:400000000040002011000000514A0000514A000080B500AF04F054FD80B500AF404B12221A6005F0CFFE3F4B181C0BF049F9012005F014FF302004F0F7FE3B4B8022D205B5
:400040001A603A4B394A126802210A431A60384B384A1A60384B00221A60384B374A126808218A431A60FA23DB00181C04F028FF334B181C05F0E8F9324BB722D2021A609B
:40008000314B324A1A60324B324A1A602E4B324A1A60324B324A1A602B4B324A1A60324BF02212011A60284B304A1A60304B314A1A60254B304A1A60304B822212061A6005
:4000C0002F4B8022D2021A602E4B41221A602E4B44221A602D4B43221A602D4B40221A602C4B42221A602C4B0820191C05F042F8082005F003F9294B294A1A600A4B294AA2
:400100001A60294B294A1A60C046274B1B68274A1340FAD1244B0222FF321A60BD4680BD30001040001BB7000C020B4078002E407C002E402D3E000064F02E406CF02E406A
:40014000DC050000040301400000014041FF008010030140007FBB0044FF00800C03014000BF120043FF00800003014040FF0080080301400082060042FF008008010B4035
:4001800000010B4024010140200101401C01014018010140040101404965000008020B402000FFFF0505004010020B400808000080B582B000AF72B6474B00221A60474B57
:4001C00001221A70FB1D00221A7023E0FB1D1A78131C5B009B185B00414A9B183B603B681A78597809020A43997809040A43DB781B061343191C3B681A795B791B0213432B
:400200009BB2081C191C04F0DFFCFB1D1A78FB1D01321A70FB1D1B78012BD7D9314A324B101C191C04F004FD304B314A1A60314B992212041A60304B992212041A602F4B7E
:40024000992212041A602E4B992212041A602D4B0E221A602C4B0E221A602C4A2B4B1B78DBB202210B43DBB21370294A284B1B78DBB23C218B43DBB214210B43DBB213704E
:40028000224A224B1B78DBB216210B43DBB21370204B22221A60204B204A1A60204B20221A60204B8C221A601F4B204A1A60204BC322D2011A601F4B07221A601E4B1F4AB4
:4002C0001A601F4B01221A60FFF7A6FE04F0F0FCBD4602B080BDC0466CF02E401C700F40243D0100303D0100403D010000000240000099EE00500F4010500F4020500F4042
:4003000030500F402000104000800F4000700F4001700F400000044008000440901DDB0018000440000104400801044086649B00080204400003044008030440906C0300C2
:400340001803044010B5064C2378002B07D1054B002B02D0044800E000BF0123237010BDA8090020000000008030010008B5084B002B03D00748084900E000BF0748036824
:40038000002B00D108BD064B002BFBD09847F9E70000000080300100AC090020C800002000000000164B002B00D1144B9D46402292029A1A924600218B460F461348144AE7
:4003C000121A0DF00DFC0F4B002B00D098470E4B002B00D098470020002104000D000D48002802D00C480FF079F80DF097FB2000290004F0B1F90DF081FBC0460000080002
:40040000000000000000000000000000A809002088130020DDF40000F905010080B582B000AF786039607B683A681A403B689A4201D1012300E00023181CBD4602B080BD5C
:4004400080B584B000AF78607B68702213401A09131C9B009B185B00FB607B680F221340FA68D318FB60FB68181CBD4604B080BD80B584B000AF78607A68E023DB011340D0
:400480001A0B131C9B009B185B00FB607A68F0231B0113401B0AFA68D318FB60FB68181CBD4604B080BDC04680B584B000AF78607A68C0239B0313401A0D131C9B009B18D8
:4004C0005B00FB607A68F0231B0313401B0CFA68D318FB60FB68181CBD4604B080BDC04680B582B000AF78607A688023DB03101C191CFFF793FF031C181CBD4602B080BD01
:4005000080B500AF0C4B1B8801339AB20A4B1A80094B1A88FA239B009A420AD1064B00221A8006F091FD012008F056FB002008F053FBBD4680BDC046D809002080B582B0FA
:4005400000AF064B7B6006F0B7FB7B680020191C05F07CFFBD4602B080BDC04601050000F0B5B7B000AFA023FB181860596006F08FFC031CD422BA181360D423FB181B6828
:40058000181CFFF791FF031CC822BA1813600023CC22BA181360D423FB181B68181CFFF767FF031CC022BA1813600023C422BA181360D423FB181B68181CFFF741FF031C16
:4005C000B822BA1813600023BC22BA18136000F0C7FA031CB022BA1813600023B422BA181360D423FB181B68181CFFF779FF031CA822BA1813600023AC22BA181360A0231B
:40060000FB181B68DB01FB660023BB66D14BB96EFA6E19605A60A823FB181B689B017B6600233B66CB4B5C681B68386E796E021C1A43BA650A1C2243FA65C64BB96DFA6D17
:4006400019605A60C823FB185C681B68181C211C0A2200230BF0ECF8031C0C1C1B017B6500233B65BB4B5C681B68386D796D021C1A43BA640A1C2243FA64B64BB96CFA6C77
:4006800019605A60C823FB185C681B68181C211C0A2200230BF0CCF81C1C131C1B007B6400233B64AB4B5C681B68386C796C021C1A43BA630A1C2243FA63A64BB96BFA6B60
:4006C00019605A60C023FB185C681B68181C211C0A2200230BF0ACF8031C0C1C1A09260716431D079B4B5C681B682A1C1A433A63321C22437A63974B396B7A6B19605A607C
:40070000C023FB185C681B68181C211C0A2200230BF08EF81C1C131C1A0A21069C20381801609C217918096811439C22BA1811601B069822BA181360864B5C681B68982216
:40074000BA1810685168021C1A43BA620A1C2243FA62804BB96AFA6A19605A60B823FB185C681B68181C211C0A2200230BF060F8031C0C1C1A0B210594203818016094217F
:400780007918096811439422BA1811601B059022BA1813606F4B5C681B689022BA1810685168021C1A433A620A1C22437A62694B396A7A6A19605A60B823FB185C681B68FC
:4007C000181C211C0A2200230BF032F81C1C131C1A0C21048C20381801608C217918096811438C22BA1811601B048822BA181360584B5C681B688822BA1810685168021C4E
:400800001A43BA610A1C2243FA61524BB969FA6919605A60B023FB185C681B68181C211C642200230BF004F8031C0C1C1A0D2103842038180160842179180968114384223F
:40084000BA1811601B038022BA181360414B5C681B688022BA1810685168021C1A433A610A1C22437A613B4B39697A6919605A60B023FB185C681B68181C211C0A22002311
:400880000AF0D6FF031C0C1C9822BA1813605460B023FB185C681B68181C211C642200230AF0C6FF031C0C1C191C221C0B1C141C980FA5007D677D6F05437D679B003B67D3
:4008C0003B6F7C6F5B185441DB1864419822BA1815685668ED1AA6412B1C341C1A0E2102F967F96F1143F9671B02BB67194B5C681B68B86FF96F021C1A43BA600A1C224317
:40090000FA60144BB968FA6819605A60B023FB185C681B68181C211C0A2200230AF088FF1C1C131C191C221C0A4B5C681B68081C1843386022437A60064B39687A681960C1
:400940005A60044B5C681B68181C211CBD4637B0F0BDC046D009002098B500AF06F048FA031C0C1C181C211CBD4698BDF0B58BB000AFB861F961BA6900210A40131CFA69BA
:4009800030210A40141C23093B6100237B6138697969031C0C1C9A0FA60016439D00031C0C1C5B197441DB1864413B627C62BB6900221340BB60FB690F221340FB60FB68B9
:4009C0001B003B6000237B603B6A7C6A39687A685B1854413B627C623B6A181CBD460BB0F0BDC046F0B58BB000AFB861F961B969E022D20511400B1CFA6900210A40141CF5
:400A000022011D0F1543260F2B1C341C9A0FA100F960F9681143F9609B00BB60BB68FC685B197441DB1864413B627C62BA69F0231B051A403A60FB69002213407B6038687B
:400A400079680B1C1B02021C120E3A613A691A433A610B1C1B0E7B613B6A7C6A39697A695B1854413B627C623B6A181CBD460BB0F0BDC046F0B589B000AF38617961396932
:400A8000E022D20311400D1C7A6900210A40161C3203290DB960B9681143B960320DFA60B9680A1C920052185200FA613969F022120311400B1C7A6900210A40141C2204E5
:400AC000190C3960396811433960230C7B603A68FB699B18FB61FB69181CBD4609B0F0BDF0B589B000AF386179613969F022120211400D1C7A6900210A40161C3205290B5D
:400B0000B960B9681143B960320BFA60B96864224A43FA613969F022120111400B1C7A6900210A40141C2206190A3960396811433960230A7B603A68131C9B009B185B0037
:400B40001A1CFB699B18FB613B690F221340FA69D318FB61FB69181CBD4609B0F0BDC04680B500AF024B1B88181CBD4680BDC046D8090020B0B582B000AF78600A1CBB1C89
:400B80001A80074BBA1C12881A807B681C1C00231D1C201C291C06F011F9BD4602B0B0BDD809002080B584B000AF78607B68702213401A09131C9B009B185B00FB607B6833
:400BC0000F221340FA68D318FB60FB68181CBD4604B080BD80B584B000AF78607A68E023DB0113401A0B131C9B009B185B00FB607A68F0231B0113401B0AFA68D318FB60B1
:400C0000FB68181CBD4604B080BDC04680B584B000AF78607A68C0239B0313401A0D131C9B009B185B00FB607A68F0231B0313401B0CFA68D318FB60FB68181CBD4604B0A0
:400C400080BDC04680B582B002AF002008F0FAFC462000F069FB094B181C01F0C3F800F05FFC074A3023009300200021542301F0F7FF00F029FCBD4680BDC046EC30010084
:400C8000AC39010090B587B000AF78600C23FB181B4A03CA03C31188198092789A70194A7B68101C191C0B220DF0DAF87B68181C0DF072F8021C1723FB181A701723FB1868
:400CC0001B780A2B0DD81723FB181B780B22D31A1C1C0C4A0C23FB18101C191C221C0DF08FF8094B181C01F07DF8064B181C0821282200F041FD00F0E7FBBD4607B090BD6D
:400D0000B8300100E0090020EC30010080B584B002AF021CFB1D1A70FB1D1B78002B08D10A4A08230093402001210A2301F098FF07E0074A08230093402001210A2301F03C
:400D40008FFF00F0C1FBBD4602B080BDC03B0100CC3B010080B584B002AF021CFB1D1A70FB1D1B78002B08D1134A2323009301200321062301F074FF18E001200321232230
:400D800001F01AF902200321232201F015F903200321232201F010F904200321232201F00BF905200321232201F006F900F08CFBBD4602B080BDC046A43B010080B582B069
:400DC00000AF021CFB1D1A7001200321232201F0F3F802200321232201F0EEF803200321232201F0E9F804200321232201F0E4F805200321232201F0DFF8FB1D1B78012BD7
:400E00000ED901201F21072201F0AAF802201F21072201F0A5F803201F21072201F0A0F8FB1D1B78022B0ED901201621072201F097F802201621072201F092F80320162169
:400E4000072201F08DF8FB1D1B78032B13D901200D21072201F084F802200D21072201F07FF803200D21072201F07AF804200D21072201F075F8FB1D1B78042B13D90120AB
:400E80000421072201F06CF802200421072201F067F803200421072201F062F804200421072201F05DF800F00FFBBD4602B080BDB0B584B002AF154B181C00F093FF05F01A
:400EC000E7FF031C7B607B68181CFFF79FFE051C7B68181CFFF77EFE041C7B68181CFFF761FE011C0A4A0B4B0091101C191C2A1C231C0CF0FFFE064B181C0A21002200F039
:400F00003BFC00F0E1FABD4602B0B0BDEC300100E0090020C430010080B582B000AF7860BD4602B080BDC04690B585B000AF7860786800210AF030FC031E00D09AE00F23C7
:400F4000FB1800221A700FE00F23FB181B784D33181C0421232201F02FF80F23FB181A780F23FB1801321A700F23FB181B78042BEAD978680CF09AFB031C0C1C181C211CE9
:400F80003E4A3F4B0AF0E2FB031E0ED04F201F21072200F0E5FF50201F21072200F0E0FF51201F21072200F0DBFF78680CF07EFB031C0C1C181C211C324A334B0AF0C6FB8F
:400FC000031E0ED04F201621072200F0C9FF50201621072200F0C4FF51201621072200F0BFFF78680CF062FB031C0C1C181C211C264A274B0AF0AAFB031E13D04E200D2157
:40100000072200F0ADFF4F200D21072200F0A8FF50200D21072200F0A3FF51200D21072200F09EFF78680CF041FB031C0C1C181C211C184A184B0AF089FB031E18D04D2057
:401040000421072200F08CFF4E200421072200F087FF4F200421072200F082FF50200421072200F07DFF51200421072200F078FF00F02AFABD4605B090BDC0469A99999973
:401080009999D93FE17A14AE47E1DA3F295C8FC2F528DC3F713D0AD7A370DD3F80B584B002AF78600A1CBB1C1A807B681B4A934204D8BB1C1B881A4A934200D92BE0194B3F
:4010C000181C00F08FFE7B68181C3C210AF092F9031C1A1C20230093101C16210B22032300F0A8FB7B68181C3C210AF009FA0B1C1A1C20230093101C1C211422022300F07A
:4011000099FBBB1C1A8820230093101C16211D22032300F08FFBBD4602B080BD60EA0000E7030000EC30010080B584B002AF78600C4B181C00F056FE7A6820230093101CA2
:401140002B210E22012300F075FB20230093042040210E22012300F06DFB00F0B5F9BD4602B080BD2C33010080B582B000AF021CFB1D1A700B4B181C00F034FEFB1D1B784B
:40118000002B06D0084B181C2B211F2200F0F4FA05E0064B181C2B211F2200F0EDFABD4602B080BD90360100D8300100E030010080B500AF012008F045FABD4680BDC04619
:4011C00080B500AF002008F03DFABD4680BDC04680B584B002AF021CFB1D1A702E4B181C00F000FEFB1D1B78092B26D8FB1D1A7820230093101C1B210E22012300F01AFBE3
:40120000264B181C00F0EEFD254B181C28210E2200F0B2FA224B181C2821162200F0ACFA1F4B181C32210E2200F0A6FA1C4B181C3221162200F0A0FA28E0FB1D1B78632B1B
:401240001AD8FB1D1A7820230093101C1B210E22012300F0EFFA114B181C00F0C3FD104B181C32210E2200F087FA0D4B181C3221162200F081FA09E0FB1D1A7820230093B9
:40128000101C1B210E22012300F0D4FA00F01CF9BD4602B080BDC0462C330100EC300100E830010090B589B000AFF8603A607B603423FB181B781422B81809493A6B0CF031
:4012C00019FDF9681423FA183B687C68081C111C1A1C231C0CF00EFDBD4609B090BDC046D83B010080B582B000AF021CFB1D1A70BB1D0A1C1A70BB1D1B78002B03D10020CF
:4013000008F00EF902E0012008F00AF9002007F0E3FFFB1D1B78181C07F042FA012007F0DBFFBD4602B080BD80B582B000AF78607B687F2B01DD7F237B607B68002B01DA02
:4013400000237B60002008F059F8012008F056F821200021FFF7C6FF7B68DBB21A1C80235B421343DBB2DBB2181C0021FFF7BAFF06200021FFF7B6FF13200021FFF7B2FF3B
:4013800020200021FFF7AEFF40200021FFF7AAFF80200021FFF7A6FF0C200021FFF7A2FF00F0BEF800F090F8054B00221A60054B00221A70044B7A681A60BD4602B080BD26
:4013C0004C110020500F00205811002080B582B000AF78607B687F2B01DD7F237B607B68002B01DA00237B6021200021FFF77AFF7B68DBB21A1C80235B421343DBB2DBB284
:40140000181C0021FFF76EFF20200021FFF76AFF024B7A681A60BD4602B080BD5811002080B582B000AF104B01221A7040200021FFF758FF80200021FFF754FF00237B601C
:4014400006E000200121FFF74DFF7B6801337B607A68F823FF339A42F3DD24200021FFF741FFBD4602B080BD500F002080B500AF134B00221A7021200021FFF733FF114B55
:401480001B68DBB21A1C80235B421343DBB2DBB2181C0021FFF726FF06200021FFF722FF13200021FFF71EFF20200021FFF71AFF0C200021FFF716FF00F006F8BD4680BD0B
:4014C000500F00205811002080B582B000AF124B1B7801225340DBB2002B1AD040200021FFF700FF80200021FFF7FCFE00237B600AE00A4A7B68D3181B78181C0121FFF776
:40150000F1FE7B6801337B607A68F823FF339A42EFDDBD4602B080BD500F0020540F002080B582B000AF00237B6007E0074A7B68D31800221A707B6801337B607A68F8234A
:40154000FF339A42F2DDBD4602B080BD540F002080B582B000AF00237B6007E0074A7B68D318FF221A707B6801337B607A68F823FF339A42F2DDBD4602B080BD540F002013
:4015800080B582B000AF021CFB1D1A70FB1D1B78002B04D00D200021FFF7A4FE03E00C200021FFF79FFEBD4602B080BD80B584B000AF021CBB1D1A803B1D0A1C1A80BB1D78
:4015C0001B88532B26D83B1D1B882F2B22D83B1D1B88DB089BB21A1C54235A43BB1D1B88D318FB603B1D1B8807221340BB600B4AFB68D3181B78D9B20122BB689A40131CA5
:40160000DBB20A1C1343DBB2D9B2044AFB68D3180A1C1A70BD4604B080BDC046540F002080B584B000AF021CBB1D1A803B1D0A1C1A80BB1D1B88532B28D83B1D1B882F2BB2
:4016400024D83B1D1B88DB089BB21A1C54235A43BB1D1B88D318FB603B1D1B8807221340BB600C4AFB68D3181B78D9B20122BB689A40131CDBB2DB43DAB20B1C1340DBB257
:40168000D9B2044AFB68D3180A1C1A70BD4604B080BDC046540F002080B584B000AF021CBB1D1A803B1D0A1C1A80BB1D1B88532B47D83B1D1B882F2B43D83B1D1B88DB08B0
:4016C0009BB21A1C54235A43BB1D1B88D318FB603B1D1B8807221340BB601B4AFB68D3181B781A1CBB681A41131C0122134013D1154AFB68D3181B78D9B20122BB689A4092
:40170000131CDBB20A1C1343DBB2D9B20E4AFB68D3180A1C1A7014E00B4AFB68D3181B78D9B20122BB689A40131CDBB2DB43DAB20B1C1340DBB2D9B2034AFB68D3180A1C75
:401740001A70BD4604B080BD540F002080B582B000AF021CFB1D1A70FB1D1B78002B03D0044B01221A7202E0024B00221A72BD4602B080BD4C11002080B586B000AFF8602D
:40178000B9607A60FB68181C0CF006FB031C3B61BB681C4A934207D11B4B1B791A1C3B6953435422D31ABB60BB68184A93420AD1154B1B791A1C3B6953435422D31A00D5F8
:4017C00001335B10BB6000237B6113E0FB685A1CFA6019780C4B1B791A1C7B695A43BB68D2187B68081C111C1A1C00F0A1F97B6901337B617A693B699A42E7DBBD4606B004
:4018000080BDC0460F2700004C1100200E27000080B584B000AFF860B9607A60F968BA687B68081C111C1A1CFFF7A6FFBD4604B080BDC04680B598B000AFF860B9607A6021
:401840003B605F23FB1800221A700023BB6500237B65FB68002B2BD13B68002B1FD00023BB650AE01423FA18BB6DD3186822BA1812781A70BB6D0133BB653B685A1EBB6D47
:401880009A42EFDC1423FA18BB6DD31830221A70BB6D01331422BA180021D15492E01423FB1830221A701423FB1800225A7089E0FB68002B06DA5F23FB1801221A70FB6855
:4018C0005B42FB6020E0FB68181C0A2109F008FF0B1CDBB23033D9B23023FA18BB6DD3180A1C1A70BB6D0133BB65FB68181C0A2109F0F6FE0B1C1A1CFB689B1A181C0A2165
:4019000009F008FE031CFB60FB68002BDBDC3023FA18BB6DD31800221A705F23FB181B78002B03D01423FB182D221A705F23FB181A78BB6DD2183B689A421DDA00233B650A
:4019400010E05F23FB181A783B6DD3181422BA18682179180978D1547B6D01337B653B6D01333B653A68BB6DD21A5F23FB181B78D21A3B6D9A42E4DC0023FB6413E05F2378
:40198000FB181A78FB6CD2187B6DD318B96DFA6C8A1A013A30217918895C1422BA18D154FB6C0133FB64FA6CBB6D9A42E7DB5F23FB181A78BB6DD2187B6DD3181422BA18C5
:4019C0000021D1541423F918BA687B68081C111C1A1CFFF7D1FEBD4618B080BD90B593B002AFB860F9603B60FB1D1A703F23FB1800221A70B868F9680022002309F092FEA9
:401A0000031E03D03F23FB1801221A701423F918BB68FC68BA6D0092FA1D12780192081C1A1C231CFFF73EFC5423FB181B782E2B1ED02F23FB181B221A700023BB6311E049
:401A40001423FA18BB6BD3181B782E2B07D11423FA18BB6BD3185422BA1812781A70BB6B0133BB632F23FB181A78BB6B9A42E7DC5C23FB181B78202B4ED03F23FB181B78C8
:401A8000002B2AD01423FB182D221A702F23FB181B221A7001237B6318E01423FA187B6BD3181B78202B06D01423FA187B6BD3181B782D2B07D11423FA187B6BD3185C2275
:401AC000BA1812781A707B6B01337B632F23FB181A787B6B9A42E0DC1EE02F23FB181B221A7000233B6311E01423FA183B6BD3181B78202B07D11423FA183B6BD3185C22CF
:401B0000BA1812781A703B6B01333B632F23FB181A783B6B9A42E7DC1423F9183A683B6D081C111C1A1CFFF727FEBD4611B090BD80B58EB000AFB9607A600F23FB18021C4E
:401B40001A70A74B5B7907221340DBB2002B00D0ADE00F23FB181B78A14A92799B1AA04A1279111C9E4A5279D208D2B24A43534304337B6100237B638FE000233B6382E085
:401B80000023FB6279E0964B1B6879693A6B8918934A1279101C7A6B42438A189B181B781A1CFB6A1A41131C0122134031D08C4B1B7A002B16D1BB689AB23B6B9BB2D31873
:401BC00099B27B6B9BB2DB009AB27B689BB2D3189AB2FB6A9BB2D3189BB2081C191CFFF7E5FC47E0BB689AB23B6B9BB2D31899B27B6B9BB2DB009AB27B689BB2D3189AB23F
:401C0000FB6A9BB2D3189BB2081C191CFFF708FD30E0734B1B7A002B16D1BB689AB23B6B9BB2D31899B27B6B9BB2DB009AB27B689BB2D3189AB2FB6A9BB2D3189BB2081C8A
:401C4000191CFFF7EDFC15E0BB689AB23B6B9BB2D31899B27B6B9BB2DB009AB27B689BB2D3189AB2FB6A9BB2D3189BB2081C191CFFF79CFCFB6A0133FB62FB6A072B82DD45
:401C80003B6B01333B63564B1B791A1E3B6B9A4200DD75E77B6B01337B63514B5B79DB08DBB21A1E7B6B9A4200DD66E795E00F23FB181B784A4A92799A1A494B1B79191C8B
:401CC000474B5B794B43002B00DA0733DB1053430433BB62424B1A68BB6AD3181B787B6207233B620023FB6171E00023BB6165E07A6A3B6A1A41131C0122134025D0384B31
:401D00001B7A002B10D1BB689AB2FB699BB2D31899B27B689AB2BB699BB2D3189BB2081C191CFFF743FC35E0BB689AB2FB699BB2D31899B27B689AB2BB699BB2D3189BB203
:401D4000081C191CFFF76CFC24E0254B1B7A002B10D1BB689AB2FB699BB2D31899B27B689AB2BB699BB2D3189BB2081C191CFFF757FC0FE0BB689AB2FB699BB2D31899B282
:401D80007B689AB2BB699BB2D3189BB2081C191CFFF70CFC3B6A013B3B623B6A002B0ADA07233B62BB6A0133BB620D4B1A68BB6AD3181B787B62BB690133BB61084B5B7990
:401DC0001A1EBB699A4293DCFB690133FB61044B1B791A1EFB699A4287DCBD460EB080BD4C11002080B582B000AF78600E4B7A681A600D4B1B681A780B4B1A710A4B1B6846
:401E00005A78094B5A71084B1B689A78064B9A71054B1B68DA78044BDA71034B00221A72BD4602B080BDC0464C11002080B588B000AFF860B9607A60FB68002B3BDBFB68CF
:401E4000532B38DCBB68002B35DBBB682F2B32DC0023FB612BE0BB68002B00DA0733DB101A1C54235A43FB68D318BB61BB68134A134004D5013B08225242134301337B6150
:401E8000BA69FB69D318B969FA698A180C498A5CD0B201217A6991400A1CD2B2011C0A43D2B2D1B2064AD154FB690133FB61FA697B689A42CFDBBD4608B080BD0700008027
:401EC000540F002080B588B000AFF860B9607A60FB68002B3DDBFB68532B3ADCBB68002B37DBBB682F2B34DC0023FB612DE0BB68002B00DA0733DB101A1C54235A43FB68E8
:401F0000D318BB61BB68144A134004D5013B08225242134301337B61BA69FB69D318B969FA698A180D498A5CD0B201217A6991400A1CD2B2D243D1B2021C0A40D2B2D1B2AF
:401F4000064AD154FB690133FB61FA697B689A42CDDBBD4608B080BD07000080540F002080B586B000AFF860B9607A60FB68002B1EDBFB68532B1BDCBB68002B18DBBB6804
:401F80002F2B15DC00237B610EE0FB6899B2BB689AB27B699BB2D3189BB2081C191CFFF705FB7B6901337B617A697B689A42ECDBBD4606B080BDC04680B586B000AFF86049
:401FC000B9607A60FB68002B1EDBFB68532B1BDCBB68002B18DBBB682F2B15DC00237B610EE0FB6899B2BB689AB27B699BB2D3189BB2081C191CFFF713FB7B6901337B611C
:402000007A697B689A42ECDBBD4606B080BDC046F0B591B000AFF860B9607A603B607A68FB68D31A0BD5FB68FB617B68FB60FB697B60BB68FB613B68BB60FB693B603A6894
:40204000BB68D31A0BD5FB68FB617B68FB60FB697B60BB68FB613B68BB60FB693B60BA683B689A4214D1FA687B689A4205DDFB68FB617B68FB60FB697B607A68FB68D31A01
:40208000F968BA68081C111C1A1CFFF7CFFE1AE1FA687B689A4214D1BA683B689A4205DDBB68FB613B68BB60FB693B603A68BB68D31AF968BA68081C111C1A1CFFF750FF92
:4020C00001E17A68FB68D31AD9175A184A403968BB68CB1AD9175B184B409A4200DC76E03A68BB68D31A181C0BF0A4FA051C0E1C7A68FB68D31A181C0BF09CFA031C0C1C33
:40210000281C311C1A1C231C0AF0A6FA031C0C1C3B617C61B8680BF08DFA031C0C1C3B637C63FA687B689A4228DDFB68FB6220E0FB6A9CB2386B796B0022644B09F064FF8C
:40214000021C0B1C101C191C0BF03EFA031C9BB2201C191CFFF72AFA386B796B3A697B690AF0B8FE031C0C1C3B637C63FB6A013BFB62FA6A7B689A42DADAA4E0FB68BB6234
:4021800020E0BB6A9CB2386B796B00224F4B09F03BFF021C0B1C101C191C0BF015FA031C9BB2201C191CFFF701FA386B796B3A697B6909F029FF031C0C1C3B637C63BB6AA0
:4021C0000133BB62BA6A7B689A42DADD7BE07A68FB68D31A181C09F0CFFE041C3A68BB68D31A181C09F0C8FE031C201C191C09F09FFB031C181C0BF059FA031C0C1C3B6101
:402200007C61F86809F0B8FE031C181C0BF04EFA031C0C1CBB63FC63BA683B689A4229DD3B6801337B6220E0B86BF96B0022274B09F0EAFE031C0C1C181C211C0BF0C4F991
:40224000031C9AB27B6A9BB2101C191CFFF7AEF9B86BF96B3A697B6909F0D6FE031C0C1CBB63FC637B6A013B7B627A6ABB689A42DADC28E0BB683B6220E0B86BF96B00221C
:40228000124B09F0C1FE031C0C1C181C211C0BF09BF9031C9AB23B6A9BB2101C191CFFF785F9B86BF96B3A697B6909F0ADFE031C0C1CBB63FC633B6A01333B623B685A1C8B
:4022C0003B6A9A42D9DCBD4611B0F0BD0000E03FF0B591B000AFF860B9607A603B607A68FB68D31A0BD5FB68FB617B68FB60FB697B60BB68FB613B68BB60FB693B603A6871
:40230000BB68D31A0BD5FB68FB617B68FB60FB697B60BB68FB613B68BB60FB693B60BA683B689A4214D1FA687B689A4205DDFB68FB617B68FB60FB697B607A68FB68D31A3E
:40234000F968BA68081C111C1A1CFFF7BBFD1AE1FA687B689A4214D1BA683B689A4205DDBB68FB613B68BB60FB693B603A68BB68D31AF968BA68081C111C1A1CFFF71CFE19
:4023800001E17A68FB68D31AD9175A184A403968BB68CB1AD9175B184B409A4200DC76E03A68BB68D31A181C0BF044F9051C0E1C7A68FB68D31A181C0BF03CF9031C0C1C32
:4023C000281C311C1A1C231C0AF046F9031C0C1C3B617C61B8680BF02DF9031C0C1C3B637C63FA687B689A4228DDFB68FB6220E0FB6A9CB2386B796B0022644B09F004FEED
:40240000021C0B1C101C191C0BF0DEF8031C9BB2201C191CFFF704F9386B796B3A697B690AF058FD031C0C1C3B637C63FB6A013BFB62FA6A7B689A42DADAA4E0FB68BB625B
:4024400020E0BB6A9CB2386B796B00224F4B09F0DBFD021C0B1C101C191C0BF0B5F8031C9BB2201C191CFFF7DBF8386B796B3A697B6909F0C9FD031C0C1C3B637C63BB6A2B
:402480000133BB62BA6A7B689A42DADD7BE07A68FB68D31A181C09F06FFD041C3A68BB68D31A181C09F068FD031C201C191C09F03FFA031C181C0BF0F9F8031C0C1C3B61C3
:4024C0007C61F86809F058FD031C181C0BF0EEF8031C0C1CBB63FC63BA683B689A4229DD3B6801337B6220E0B86BF96B0022274B09F08AFD031C0C1C181C211C0BF064F854
:40250000031C9AB27B6A9BB2101C191CFFF788F8B86BF96B3A697B6909F076FD031C0C1CBB63FC637B6A013B7B627A6ABB689A42DADC28E0BB683B6220E0B86BF96B0022E1
:40254000124B09F061FD031C0C1C181C211C0BF03BF8031C9AB23B6A9BB2101C191CFFF75FF8B86BF96B3A697B6909F04DFD031C0C1CBB63FC633B6A01333B623B685A1C12
:402580003B6A9A42D9DCBD4611B0F0BD0000E03F80B586B000AFF860B9607A603B60FA687B689A4205DDFB687B617B68FB607B697B60BA683B689A4205DDBB687B613B68F1
:4025C000BB607B693B607A68FB68D31AF968BA68081C111C1A1CFFF729FC7A68FB68D31AF9683A68081C111C1A1CFFF71FFC3A68BB68D31AF968BA68081C111C1A1CFFF76B
:40260000AFFC3A68BB68D31A01337968BA68081C111C1A1CFFF7A4FCBD4606B080BDC04680B586B000AFF860B9607A603B60FA687B689A4205DDFB687B617B68FB607B6989
:402640007B60BA683B689A4205DDBB687B613B68BB607B693B607A68FB68D31AF968BA68081C111C1A1CFFF72DFC7A68FB68D31AF9683A68081C111C1A1CFFF723FC3A68F2
:40268000BB68D31AF968BA68081C111C1A1CFFF793FC3A68BB68D31A01337968BA68081C111C1A1CFFF788FCBD4606B080BDC04680B586B000AFF860B9607A603B60FA6833
:4026C0007B689A4205DDFB687B617B68FB607B697B60BA683B689A4205DDBB687B613B68BB607B693B607A68FB68D31A042B62DD3A68BB68D31A042B5DDDFB689BB201339F
:402700009AB2BB689BB201339BB2101C191CFEF74DFF7B689BB2013B9AB2BB689BB201339BB2101C191CFEF741FFFB689BB201339AB23B689BB2013B9BB2101C191CFEF77C
:4027400035FF7B689BB2013B9AB23B689BB2013B9BB2101C191CFEF729FFFB68991C7A68FB68D31A033BBA68081C111C1A1CFFF75DFBFB68991C7A68FB68D31A033B3A68CD
:40278000081C111C1A1CFFF751FBBB68991C3A68BB68D31A033BFA68101C1A1CFFF7E0FBBB68991C3A68BB68D31A033B7A68101C1A1CFFF7D5FBBD4606B080BD80B586B0C0
:4027C00000AFF860B9607A603B60FA687B689A4205DDFB687B617B68FB607B697B60BA683B689A4205DDBB687B613B68BB607B693B607A68FB68D31A042B62DD3A68BB68E1
:40280000D31A042B5DDDFB689BB201339AB2BB689BB201339BB2101C191CFEF701FF7B689BB2013B9AB2BB689BB201339BB2101C191CFEF7F5FEFB689BB201339AB23B6806
:402840009BB2013B9BB2101C191CFEF7E9FE7B689BB2013B9AB23B689BB2013B9BB2101C191CFEF7DDFEFB68991C7A68FB68D31A033BBA68081C111C1A1CFFF723FBFB683B
:40288000991C7A68FB68D31A033B3A68081C111C1A1CFFF717FBBB68991C3A68BB68D31A033BFA68101C1A1CFFF786FBBB68991C3A68BB68D31A033B7A68101C1A1CFFF7BD
:4028C0007BFBBD4606B080BD80B58AB000AFF860B9607A607B680122D31A7B6201233B627A68131CDB079B1A5B00FB610023BB617B687B61FB6899B2BB689AB27B689BB2C8
:40290000D3189BB2081C191CFEF750FEFB6899B2BB689AB27B689BB2D31A9BB2081C191CFEF744FEFB689AB27B689BB2D3189AB2BB689BB2101C191CFEF738FEFB689AB2EB
:402940007B689BB2D31A9AB2BB689BB2101C191CFEF72CFE96E07B6A002B09DB7B69013B7B61FB690233FB617A6AFB69D3187B62BB690133BB613B6A02333B627A6A3B6A1F
:40298000D3187B62FB689AB2BB699BB2D31899B2BB689AB27B699BB2D3189BB2081C191CFEF704FEFB689AB2BB699BB2D31A99B2BB689AB27B699BB2D3189BB2081C191C48
:4029C000FEF7F4FDFB689AB2BB699BB2D31899B2BB689AB27B699BB2D31A9BB2081C191CFEF7E4FDFB689AB2BB699BB2D31A99B2BB689AB27B699BB2D31A9BB2081C191C07
:402A0000FEF7D4FDFB689AB27B699BB2D31899B2BB689AB2BB699BB2D3189BB2081C191CFEF7C4FDFB689AB27B699BB2D31A99B2BB689AB2BB699BB2D3189BB2081C191C0A
:402A4000FEF7B4FDFB689AB27B699BB2D31899B2BB689AB2BB699BB2D31A9BB2081C191CFEF7A4FDFB689AB27B699BB2D31A99B2BB689AB2BB699BB2D31A9BB2081C191C06
:402A8000FEF794FDBA697B699A4200DA63E7BD460AB080BD80B58AB000AFF860B9607A607B680122D31A7B6201233B627A68131CDB079B1A5B00FB610023BB617B687B6138
:402AC000FB6899B2BB689AB27B689BB2D3189BB2081C191CFEF7A4FDFB6899B2BB689AB27B689BB2D31A9BB2081C191CFEF798FDFB689AB27B689BB2D3189AB2BB689BB272
:402B0000101C191CFEF78CFDFB689AB27B689BB2D31A9AB2BB689BB2101C191CFEF780FD96E07B6A002B09DB7B69013B7B61FB690233FB617A6AFB69D3187B62BB69013398
:402B4000BB613B6A02333B627A6A3B6AD3187B62FB689AB2BB699BB2D31899B2BB689AB27B699BB2D3189BB2081C191CFEF758FDFB689AB2BB699BB2D31A99B2BB689AB2D9
:402B80007B699BB2D3189BB2081C191CFEF748FDFB689AB2BB699BB2D31899B2BB689AB27B699BB2D31A9BB2081C191CFEF738FDFB689AB2BB699BB2D31A99B2BB689AB29F
:402BC0007B699BB2D31A9BB2081C191CFEF728FDFB689AB27B699BB2D31899B2BB689AB2BB699BB2D3189BB2081C191CFEF718FDFB689AB27B699BB2D31A99B2BB689AB2DF
:402C0000BB699BB2D3189BB2081C191CFEF708FDFB689AB27B699BB2D31899B2BB689AB2BB699BB2D31A9BB2081C191CFEF7F8FCFB689AB27B699BB2D31A99B2BB689AB29F
:402C4000BB699BB2D31A9BB2081C191CFEF7E8FCBA697B699A4200DA63E7BD460AB080BD80B588B000AFF860B9607A603B600023FB6152E0FB692C4A134004D5013B082257
:402C80005242134301337B610023BB613EE0FB69002B00DA0733DB101A1C3B685A43BB69D3181A1C7B689A181323FB1812781A701323FB181B7801217A6991400A1C134057
:402CC000002B10DDFB689AB2BB699BB2D31899B2BB689AB2FB699BB2D3189BB2081C191CFEF764FC0FE0FB689AB2BB699BB2D31899B2BB689AB2FB699BB2D3189BB2081C9F
:402D0000191CFEF78DFCBB690133BB61BA693B689A42BCDBFB690133FB61FA69BB6A9A42A8DBBD4608B080BD0700008098B500AF05F01EFF094B01221A60FDF70DFE031CBC
:402D40000C1C074A13605460FDF70AFF021C054B1A6005F021FFBD4698BDC0465C0A0020500A0020580A002080B500AF05F014FF054B181C05F06EFE05F0FAFE034B0022AB
:402D80001A60BD4680BDC0462D2D00005C0A002080B582B000AF054B1B687B60034B00221A607B68181CBD4602B080BD5C0A002080B500AF05F0F0FE05F0C0FEBD4680BD7C
:402DC00080B500AF054B00221A6004F079FC05F0E3FE05F0CDFEBD4680BDC0465C0A002090B583B000AF78603960064B5C681B687A6813605460044B1A683B681A60BD460E
:402E000003B090BD500A0020580A002080B500AF04F06EFC064B1B78002B03D1054B181C05F026F8024B01221A70BD4680BDC0465C110020392E000080B500AF07F04AFA87
:402E4000031CDB43DBB2181C07F01EFA022004F0E5FFBD4680BDC04680B584B000AF021CBB1D1A80BB1D1B885B001A1CFA239800111C08F0BFFA031CFB60FB68181C04F0B9
:402E80000DFE04F055FCBD4604B080BD80B582B000AF021CFB1D1A70BB1D0A1C1A7004F075FCFB1D1B78181C07F0EEF9BB1D1B78181C07F07BFABD4602B080BD80B584B0E8
:402EC00000AF78600A1CFB1C1A70FB1C1B78FB600C4B1B68002B01D100F052F87A68FB685340BB607B681A0ABB68FF211940064B8900CB5853407B607B68181CBD4604B09F
:402F000080BDC046640A0020680A002080B586B000AFF860B9607A607B683B6100237B610DE0FA687B69D3181B783A69101C191CFFF7C4FF031C3B617B6901337B617A694B
:402F4000BB689A42EDD33B69181CBD4606B080BD80B584B000AF7860396001235B42FB6079683A68FB68081C111C1A1CFFF7CEFF031CFB60FB68DB43181CBD4604B080BDCC
:402F800080B584B000AF0023FB601FE0FB687B600023BB600FE07B680122134005D07B685B080F4A53407B6002E07B685B087B60BB680133BB60BB68072BECDD094BFA688D
:402FC00092007968D150FB680133FB60FB68FF2BDCDD054B01221A60BD4604B080BDC0462083B8ED680A0020640A0020F0B599B004AFF8610A1C1B23FB181A700023FB6439
:403000001B23FE181B23FB181B78181C00F020FA031C33701B23FB181B783C2B19D1C44B01221A70FB69181C00F054FAC14B00221A70C14B00221A70C04B00221A70C04B5F
:4030400000221A70BF4B00221A70BF4B00221A70EFE1B74B1B780A2B00D9E6E19A00BB4BD3181B689F461B23FB181B78181C00F017FA031E1ED0FB691A881B23FB181B78F9
:403080009BB213439AB2FB691A80AA4B1B780133DAB2A84B1A70A74B1B78042B03D1A44B02221A70C5E1FB691B881B019AB2FB691A80BEE19E4B00221A700123FB64B8E1D6
:4030C0001B23FB181B78212B03D1994B03221A70AFE1FB69181C00F0FDF90223FB64944B00221A70A5E11B23FB181B78181C00F0D7F9031E1BD0FB695A681B23FB181B78A8
:403100001A43FB695A608C4B1B780133DAB28A4B1A70894B1B78022B03D1854B04221A7087E1FB695B681A01FB695A6081E1FB69181C00F0CFF97E4B00221A700323FB642F
:4031400077E11B23FB181B783A2B03D1784B05221A706EE1FB69181C00F0BCF90423FB64734B00221A7064E11B23FB181B78181C00F096F9031E2DD0FB699A68DB681B210B
:4031800079180978C9B239610021796139691143B96079691943F960FB69B968FA689960DA60674B1B780133DAB2654B1A70644B1B78102B03D15E4B06221A7039E1FB69C4
:4031C0009A68DB68110F1D010D431401FB699C60DD602EE1FB69181C00F07CF90523FB64534B00221A7024E11B23FB181B78181C00F056F9031E1ED0FB691A8A1B23FB18A9
:403200001B789BB213439AB2FB691A824D4B1B780133DAB24B4B1A704A4B1B78042B03D1434B07221A7004E1FB691B8A1B019AB2FB691A82FDE0FB69181C00F04BF906236D
:40324000FB643B4B00221A70F3E01B23FB181B78181C00F025F9031E1ED0FB695A8A1B23FB181B789BB213439AB2FB695A82364B1B780133DAB2344B1A70334B1B78042B3D
:4032800003D12B4B08221A70D3E0FB695B8A1B019AB2FB695A82CCE0FB69181C00F01AF90A23FB64224B00221A70C2E01B23FB181B78402B03D11E4B09221A70B9E0FB69A0
:4032C000181C00F007F90723FB64194B00221A70AFE01B23FB181B78181C00F0E1F8031E1BD0FB695A691B23FB181B781A43FB695A61124B1B780133DAB2104B1A700F4B1F
:403300001B78082B03D10A4B0A221A7091E0FB695B691A01FB695A618BE0FB69181C00F0D9F80823FB64024B00221A7081E0C04662110020601100205D1100205E11002026
:403340005F1100206111002063110020043C01001B23FB181B783E2B5DD1FB695A68FB69DC689B6823003B6000237B603E68FB69DC689B681D1CFB691B8A1C1CFB695B8A3A
:40338000181C082318217918C9182D4B009501940290081C191C331C0AF0ACFC01235B42BB64284ABB6C101C01211A1CFFF7AEFD031CBB64082318229446BC446344181C8F
:4033C0000AF0EAFC011C08231822BA18D218BB6C101C1A1CFFF79AFD031CBB641A4ABB6C101C01211A1CFFF791FD031CBB64BB6CDB43BB64FB695A69BB6C9A4205D1FB69C2
:4034000001221A760023FB640BE0FB6900221A760A23FB6405E00923FB64FB69181C00F059F80A4B00221A7003E0FB69181C00F051F8FB6CDBB2181CBD4615B0F0BDC04629
:40344000E43B0100FC3B0100003C01006211002080B582B000AF021CFB1D1A70FB1D1B78402B09D9FB1D1B78462B05D8FB1DFA1D1278373A1A700CE0FB1D1B782F2B08D9D7
:40348000FB1D1B78392B04D8FB1DFA1D1278303A1A70FB1D1B78181CBD4602B080BDC04680B584B000AF021CFB1D1A700F23FB1801221A70FB1D1B780F2B03D90F23FB18CD
:4034C00000221A700F23FB181B78181CBD4604B080BDC04690B583B000AF78607B6800221A807B6800225A607A68002300249360D4607B6800221A827B6800225A827B6808
:4035000000225A617B6800221A76BD4603B090BD80B590B000AFF860B960BB1D1A80BB68FB63BB1D1B882422B918474A081C111C1A1C0AF0DFFB01235B42BB63434ABB6B7E
:40354000101C01211A1CFFF7E1FC031CBB63FB6B181C0AF021FC011CFA6BBB6B101C1A1CFFF7D4FC031CBB63394ABB6B101C01211A1CFFF7CBFC031CBB63BB6BDB43BB6370
:403580001023F918334ABB6B081C111C1A1C0AF0B1FBFA68304B111C1A1C0223081C111C1A1C0AF0DFFAFA682423FB18101C191C0AF0C2FBFB68181C0AF0EEFB031C1A1C95
:4035C000FB689A18254B111C1A1C0223081C111C1A1C0AF0C7FAFA68FB6B101C191C0AF0ABFBFB68181C0AF0D7FB031C1A1CFB689A181B4B111C1A1C0223081C111C1A1C71
:403600000AF0B0FAFA681023FB18101C191C0AF093FBFB68181C0AF0BFFB031C1A1CFB689A18104B111C1A1C0223081C111C1A1C0AF098FAFB68181C0AF0AEFB031CDBB2C4
:40364000181CBD4610B080BD303C0100FC3B0100003C0100383C0100403C0100443C0100483C01004C3C010090B585B000AF78600A1CFB1C1A700B23FB18FA1C12781A7080
:403680000023FB60FC1CFB1C1B78181C00F020F9031C2370884B1B78072B00D906E19A00864BD3181B689F467B68181C00F052F9834B00221A70834B00221A70824B002290
:4036C0001A70824B00221A70FB1C1B783C2B02D1794B01221A70E9E0FB1C1B78181C00F01FF9031E1DD07B681A88FB1C1B789BB213439AB27B681A80714B1B780133DAB20B
:403700006F4B1A706E4B1B78042B03D16A4B02221A70CBE07B681B881B019AB27B681A80C4E0654B00221A700123FB60BEE0FB1C1B78212B03D1604B03221A70B6E07B68C3
:40374000181C00F007F90223FB605B4B00221A70ACE0FB1C1B78181C00F0E2F8031E1AD07B685A68FB1C1B781A437B685A60574B1B780133DAB2554B1A70544B1B78082B47
:4037800003D14D4B04221A7090E07B685B681A017B685A608AE07B68181C00F0DBF80323FB60454B00221A7080E0FB1C1B78181C00F0B6F8031E1DD07B681A89FB1C1B7804
:4037C0009BB213439AB27B681A813F4B1B780133DAB23D4B1A703C4B1B78032B03D1364B05221A7062E07B681B891B019AB27B681A815BE07B68181C00F0ACF80423FB6008
:403800002D4B00221A7051E0FB1C1B78402B03D1294B06221A7049E07B68181C00F09AF80523FB60244B00221A703FE0FB1C1B78181C00F075F8031E1AD07B68DA68FB1C23
:403840001B781A437B68DA601E4B1B780133DAB21C4B1A701B4B1B78082B03D1164B07221A7023E07B68DB681A017B68DA601DE07B68181C00F06EF80623FB600E4B0022B0
:403880001A7013E0FB1C1B783E2B05D17B6801221A740023FB6005E00723FB607B68181C00F058F8044B00221A70C046FB68DBB2181CBD4605B090BD680E0020503C010082
:4038C0006611002064110020651100206711002080B582B000AF021CFB1D1A70FB1D1B78402B09D9FB1D1B78462B05D8FB1DFA1D1278373A1A700CE0FB1D1B782F2B08D921
:40390000FB1D1B78392B04D8FB1DFA1D1278303A1A70FB1D1B78181CBD4602B080BDC04680B584B000AF021CFB1D1A700F23FB1801221A70FB1D1B780F2B03D90F23FB1848
:4039400000221A700F23FB181B78181CBD4604B080BDC04680B582B000AF78607B6800221A807B6800225A607B6800221A817B680022DA607B6800221A74BD4602B080BDE5
:4039800080B500AF0F4B1B78002B05D00E4B1B78DB18DAB20C4B1A700A4B1B780133DAB2084B1A70074B1B78032B08D1074B00221A60074B00221A75024B00221A70BD468C
:4039C00080BDC0467C0E0020CD110020700E00207011002080B582B000AF04F011FB0E4B181C04F06DFB0D4B7B607B680120191C02F02CFD0A4B0022DA740A4B01221A754B
:403A0000084BFF221A70084B00221A6004F0C0FBBD4602B080BDC0462D3A000081390000A011002070110020700E002090B583B000AFFB1D00221A70494B1B78002B39D07B
:403A400004F086FB031E04D004F09AFD021CFB1D1A70444B1B78002B00D17EE0FB1D1B78002B00D179E0404AFB1D1B78101C191CFFF7FAFD3C4B1B7C002B6ED003F0B8F967
:403A8000031C0C1C1A1C394B5A60FDF769F8031C9AB2374B5A80344B5A68344B1A60324B1A89334B1A80334B01221A702D4B00221A7052E0304B1B7D012B4ED12F4BDB7C0D
:403AC000002B4AD104F044FB031E04D004F058FD021CFB1D1A70FB1D1B78002B3DD0284AFB1D1B78101C191CFFF780FA244B1B7E002B32D0224B1B88DAB2204B1A701F4B4E
:403B00000122DA741C4B00221A751E4B01221A601D4B00221A701D4B1B785B00DBB21A1C01231343DBB2DAB2184B1A70144B5B8A1B02DAB2114BDA70114B1B8A1B0A9BB243
:403B4000DAB20E4B5A700E4B1B8ADAB20B4B9A700B4B5B68DAB2094B9A74BD4603B090BD7D0E00209C11002088110020B8110020F4110020F111002070110020A0110020CF
:403B8000D0110020700E00207C0E0020CD110020F0B5A1B004AF384B1B7D002B03D0374BDB7C012B64D1354B1878334B1B7898420AD1334B181C04F06DFD2F4B01221A75B0
:403BC0002E4B0022DA7453E02B4BDB7C7B602A4BDC689B68210000231A1C0E1C264BDC689B681D1C244B1B8A1C1C234B9B7C181C214B5B7D191C34230822BA18D218214B89
:403C00000095019402900391101C191C7A68331C0AF070F8194B1B789BB20822B918342208208446BC446244081C111C1A1CFFF76FFC0823FB18181C04F02CFD302004F058
:403C4000D7FA0D4B00229A740B4B01221A750B4B1A78094B1A70094B0022DA74084A0823FB18101C191C0AF08FF8322001F0C8FBBD461DB0F0BDC04670110020A0110020EC
:403C8000FC110020703C010080B500AF024B1B68181CBD4680BDC046700E002090B585B000AFB860F9607A60074ABB68FC689360D4607B689AB2044B1A82034B01229A7452
:403CC000BD4605B090BDC0467011002080B500AF024B5B78181CBD4680BDC046A011002080B582B000AF074B9B7C012B02D100237B6001E001237B607B68181CBD4602B0A1
:403D000080BDC0467011002080B582B000AF0D4B9B78012B09D10C4B5B7D002B05D1FF237B60084B00229A7007E0074B00225A75044B00229A70FE237B607B68181CBD46B1
:403D400002B080BDA01100207011002080B500AF024B01225A75BD4680BDC0467011002080B500AF034B00229A70034B00225A75BD4680BDA01100207011002080B500AFA5
:403D8000024B9B7C181CBD4680BDC046A011002080B582B000AF021CFB1D1A70FB1D1B78002B03D0044B0122DA7402E0024B0022DA74BD4602B080BD7011002080B582B07C
:403DC00000AFBB1D00221A70FB1D00221A7018E0114B1B78191CFB1D1B7801229A40131C0B401A1CFB1D1B781A41131CD9B2BB1DBA1D12788A181A70FB1D1A78FB1D01323E
:403E00001A70FB1D1B78042BE2D9BB1D1B78181CBD4602B080BDC046CD110020F0B587B002AF0E23FB1801221A80914B00221A70904B01221A700C23FB18FA2212011A8025
:403E4000FCF78AFD021C0B1C131CBB60FCF788FE031C99B20C23FB180C22BA1812888A181A80854B01221A7004F092F9EDE0804B1B78002B00D1C8E0804B1B88012B23D1E5
:403E80007B4B00221A707E4B1A687E4B1B88101C191CFCF76FFE7A4B1B68BB60794B1A880C23FB18FA2189008C4662441A80734B1B880093002000210022002300F0E8F80D
:403EC0006C4B01221A708AE06C4B1B88002B56D1674B00221A700E23FB181B88012B2CD102F086FF021C0B1C131C7B60FCF738FE021CBB1C1A80624B1B687A68D3187B6084
:403F0000604B1988BB1CBA1C12888A181A80BB1C1B885D4A934209D97B6801337B60BB1CBA1C128859498C4662441A807A68BB1C1B88101C191CFCF71DFEFCF70DFD021C07
:403F40000B1C131CBB60FCF70BFE031C9AB20C23FB18FA2189008C4662441A80474B1B880093002000210022002300F091F80E23FB1800221A803F4B01221A702FE03C4BDD
:403F800000221A70642001F03BFAFCF7E9FD031C9AB23C4B9A8002F02BFF021C0B1C384B9A60374B5A68364B9B689A4206D0344B5A68334B9B68013B9A420DD1304B58687B
:403FC0002F4B99682F4B5A882E4B9E882B4B1B880093331C00F05CF8264B01221A700C23FB18FA2292001A80FCF7B6FC021C0B1C131CBB60FCF7B4FD031C99B20C23FB18E0
:404000000C22BA1812888A181A80BB681C1C00231D1CFCF7A1FC021C0B1CAB4203D814D1A24200D811E00C23FB181B88164A93420BD90C23FB180C22BA18128813498C46BC
:4040400062441A80BB680133BB60FCF789FD021C0C23FB181B889A4200D208E7064B00221A700E23FB181B88181CBD4605B0F0BDF11100209C1100207D0E002088110020A5
:40408000B8110020F4110020E703000018FCFFFFB0B5A0B002AFF860B960191CBB1D1A803B1D0A1C1A80BB1D1C883B1D1B881022B8181049FD68BA68009201932A1C231C5C
:4040C00009F018FE4423F9181023FA188823FB181B88081C111C1A1CFFF71AFA4423FB18181C04F0D7FA302004F082F8BD461EB0B0BDC0468C3C010080B500AF04F0E2FD0D
:4041000004F002FF022004F01BFFBD4680BDC04680B582B000AF002004F036FF031C7B607B689BB21BB20020191C05F06FF8021C034B1A60024B1B68181CBD4602B080BD31
:404140006012002080B500AF002005F07DFF012005F07AFF022005F087FE044B00221A70034B00221A70BD4680BDC046840E0020860E002080B500AF00F0A0F800F0DEF83A
:404180003A4B1B78012B03D0394B1B78012B21D10120FCF7E9FF0120FFF7FAFD354B00221A70354B01221A70314B1B78012B06D12E4B1B78032B02D12C4B01221A702C4B96
:4041C0001B78032B06D1294B1B78012B02D1284B01221A70264B1B78022B23D105F0FCFA0020FCF7C1FF0020FFF7D2FD214B00221A70214B00221A701D4B1B78022B06D10A
:404200001A4B1B78022B02D0184B03221A70184B1B78022B06D0154B1B78022B02D1144B03221A70124B1B78002B1CD10F4B1B78002B18D1FFF728FD031E14D0FFF750FD0F
:40424000031E10D0FFF742FD031E0CD0094B1B78002B08D100F014F8084B181C05F02EFE044B01221A70BD4680BDC046D0000020D1000020840E0020860E0020454100006D
:4042800080B582B000AF09F0FBFC031C181C3C2107F026FA0B1CDAB2FB1D1E321A70002005F0E4FBFB1D1B7864225343181C05F097FC05F07FFABD4602B080BD80B500AFD1
:4042C00005F076FF031E06D11A4B1B780133DAB2184B1A7002E0174B00221A70154B1B78142B12D9144B1B78032B03D1124B01221A7019E0104B1B78002B15D10E4B022237
:404300001A700020FFF744FD0EE00B4B1B78012B03D1094B00221A7006E0074B1B78022B02D1054B03221A70034B1B78181CBD4680BDC046870E0020D000002080B500AF17
:404340001A4B1B78032B08D1FFF718FD031E012B03D1164B01221A7023E0144B1B78002B07D1FFF70BFD031E03D1104B02221A7017E00E4B1B78012B08D1FFF7FFFC031E16
:40438000012B03D1094B00221A700AE0074B1B78022B06D1FFF7F2FC031E02D1034B03221A70024B1B78181CBD4680BDD100002080B500AF024B01221A70BD4680BDC046EC
:4043C000860E002080B582B000AF00237B602FE01D4B7A689200D35CDBB2FF2B00D124E0194A7B689B00D3185B889BB2002B0ED0154A7B689B00D3185B889BB2013B99B2CB
:40440000114A7B689B00D3180A1C5A800DE00E4B7A689200D35CDBB21A1C0C4B01219954094B7A689200FF21D1547B6801337B607B68042BCCDD06F095FC022006F0C2FB90
:40444000BD4602B080BDC046900E00206412002080B500AF0F4B1B78012B01D100F080F80C4B5B78012B01D100F08CF8094B9B78012B01D100F0A4F8064BDB78012B01D18A
:4044800000F0B4F8034B1B79012B01D100F0B8F8BD4680BD6412002080B582B000AF00237B6007E0094B7A689200FF21D1547B6801337B607B68042BF4DD054B181C06F0B3
:4044C000ABFB06F025F8BD4602B080BD900E0020C543000080B584B000AF021CFB1D1A703B1D0A1C1A800023FB6013E01B4BFA689200D35CDBB2FA1D12789A4207D117491F
:40450000FB689B003A1DCB1812885A8023E0FB680133FB60FB68042BE8DD0023FB6017E00E4BFA689200D35CDBB2FF2B0DD10B4BFA689200F91D0978D1540849FB689B00A8
:404540003A1DCB1812885A8005E0FB680133FB60FB68042BE4DDBD4604B080BD900E002080B500AF064B00221A70FFF711FBFA235B000020191CFFF7ADFFBD4680BDC04619
:404580006412002080B500AF0C4B00225A70FCF78FFCFFF7BDFD031C181CFCF7C5FC00F077F800F06BF8031C181CFCF711FE01206421FFF78FFFBD4680BDC04664120020FC
:4045C00080B500AF084B00229A70FFF7F7FB031C181CFCF7F3FBFA235B000220191CFFF779FFBD4680BDC0466412002080B500AF024B00229A70BD4680BDC04664120020EA
:4046000080B500AF024B00229A70BD4680BDC0466412002080B500AF06F032FE034B01221A7006F041FEBD4680BDC046A50E002080B500AF044B01221A7006F075FD06F0B0
:404640005FFDBD4680BDC046A60E002080B500AF06F02AFE074B181C06F082FD06F0F6FD06F062FD044B181C06F0BAFC06F02EFDBD4680BD154600003146000080B500AF43
:40468000024B1B78181CBD4680BDC046A40E002080B500AF2B4B1B78012B03D006F0A8FB031E0AD1284B1A78284B1B78D318DAB2254B1A70234B00221A7006F099FB031E0C
:4046C000012B03D106F0F0FD06F0C0FD204B1B78012B03D006F01EFC031E0AD11A4B1A781A4B1B78D31ADAB2174B1A70184B00221A7006F00FFC031E012B03D106F014FD8F
:4047000006F0E4FC06F006FC031E03D006F070FB031E06D10F4B1B780133DAB20D4B1A7002E00C4B00221A700A4B1B78042B03D9064B05221A7002E0044B01221A70BD4614
:4047400080BDC046A50E0020A40E0020D2000020A60E0020A70E002080B500AF00F056F8284B00221A70274B1B78012B16D002DC002B05D042E0022B26D0032B35D03DE0EB
:4047800000F078F8021C204B1A601F4B1B68002B03D11C4B01221A7030E02FE000F0B0F8021C194B1A60184B1B68012B03D1154B02221A7007E0144B1B68FF2B03D1114BCC
:4047C00000221A701AE019E000F0CEF8021C0E4B1A600D4B1B68012B03D10A4B03221A700CE0084B01221A7008E000F0EBF8021C054B1A60034B01221A70C046FFF728FEE8
:40480000B1E7C0464C0F0020A80E002080B500AFFFF79CFAFEF7FAFA01200021FEF736FBFCF710FA124B181CFCF72CFAFCF7C0FCFBF784FEFFF7CEF8FEF796FAFFF75CFC6F
:40484000FFF704FFFFF728FEFA235B000020191CFFF740FE01206421FFF73CFEFA235B000220191CFFF736FE62B6BD4680BDC046A03C010080B582B000AF01200021FEF7CB
:4048800005FBFFF701FA031E09D1194B181CFCF7F9F9FA235B00181C00F0C8F822E0154B181CFCF7EFF9FFF7B9FA031E0DD1124B181CFCF7E7F9FFF753FAFA235B00181CC7
:4048C00000F0B4F800237B600CE00C4B181CFCF7D9F9FFF73BFAFA235B00181C00F0A6F801237B607B68181CBD4602B080BDC046B03C0100BC3C0100CC3C0100D83C01006B
:4049000080B582B000AFFFF7BFF9031E07D0FFF7E7F9031E03D0FFF7D9F9031E11D101200021FEF7B3FA0F4B181CFCF7ABF9FEF747FAFA235B00181C00F078F800237B60DD
:4049400001E001237B60FFF7DFF9031EFF2B01D1FF237B60FFF70EFC7B68181CBD4602B080BDC046E43C010080B582B000AFFEF70FFA031C7B607B68012B0FD1FEF720FA33
:404980000E4B181CFCF77EF901200021FEF77EFAFA235B00181C00F049F809E0084B181CFCF770F900200121FEF770FAFEF700FA7B68181CBD4602B080BDC046F03C0100DC
:4049C000003D010090B587B000AF01200021FEF75DFA134B181CFCF755F90823FA183B1D101C191CFEF7FCF9BB68FC687A68181C211CFFF753F9FA235B00181C00F016F847
:404A0000084B181CFCF73EF9074B181C00F00EF801237B617B69181CBD4607B090BDC0460C3D0100183D0100B80B000080B582B000AF786004E0012000F0E2FCFFF708FD05
:404A40007B685A1E7A60002BF5D1BD4602B080BD80B500AFFEE7C04680B582B000AF78607B68DBB2181C00F0B1FCFEE780B584B000AF7860104B1A687B68D3181A1C0F4B10
:404A8000D21A80235B019A4209DC0B4B1B68FB60094B1A687B68D218074B1A6007E009F027F8031C0C221A6001235B42FB60FB68181CBD4604B080BDD4000020881300208B
:404AC00080B586B000AF224B7B61224B3B61204B7B6135E03B691B68FB603B695B68BB603B699B683B6000237B600CE0FB681A68BB681A60BB680433BB60FB680433FB60D2
:404B00007B6804337B607A683B689A42EED13B69DB683B6000237B6008E0BB6800221A60BB680433BB607B6804337B607A683B689A42F2D13B6910333B617B69013B7B612C
:404B40007B69002BC6D108F0E9FFFFF705FEFEE701000000FC43010080B582B000AF154B144A126801218A431A6000237B600FE07B68032B04D8104B7A689200D35800E025
:404B80000E4B0F4A796889008B507B6801337B607B682F2BECD9FBF70BFB0A4B00221A60044B044A126801210A431A60BD4602B080BDC0460000104000000000514A00003E
:404BC00000000020C000002080B582B000AF786039607A683B68101C00211A1C09F000F8BD4602B080BDC04680B584B000AFF860B9607A60F968BA687B68081C111C1A1CED
:404C000008F0B0FFBD4604B080BDC04680B584B000AFF860B9607A60F968BA687B68081C111C1A1C08F09EFFBD4604B080BDC04680B586B000AF7860396000233B61002387
:404C40007B612FE07B699B007A68D3181B68BB600F23FB18BA681A70BB68FF229343BB6018E03B695B003A68D3181B781A1CBB68D318191C3B695B003A68D3185B780B70CF
:404C80003B6901333B610F23FB181A780F23FB18013A1A700F23FB181B78002BE1D17B6901337B617B69032BCCD9BD4606B080BD80B500AF0A4B03221A600A4B03221A607D
:404CC000094B802212061A60084B01221A60084B00221A60012000F00DF8BD4680BDC046300030403000314000003A4000033A40000E3F4080B584B000AF021CFB1D1A7054
:404D00000B4B1B68FB60FB1D1B78002B05D0FB68802212061343FB6003E0FB685B005B08FB60034BFA681A60BD4604B080BDC04680033A4080B500AF044B044A12688021AA
:404D400009060A431A60BD4680BDC04608010B4080B500AF034B034A1268520052081A60BD4680BD08010B4090B585B000AF78600F23FC1806F0ADFA031C23700B4B1B68A1
:404D800007229343BB607B6807221340BA681343BB60064BBA681A600F23FB181B78181C06F09BFABD4605B090BDC04600010B4090B583B000AFFC1D06F08BFA031C23709F
:404DC000074B1B68072213403B60FB1D1B78181C06F083FA3B68181CBD4603B090BDC04600010B4090B585B000AF78600F23FC1806F06FFA031C2370094B7A6807210A4049
:404E0000D104074A1268074802400A431A600F23FB181B78181C06F060FABD4605B090BD00010B40FFFFC7FF90B58BB000AF78602723FC1806F04DFA031C2370184B1A68D0
:404E40000C23FB181A60174B1A680C23FB185A607B68033B144AD35C1A1C0C23FB189A60124B1A680C23FB18DA601C23FB18104A1A600C23FA181C23FB185A600D4B1C2212
:404E8000BA181A600C4B0D4A1A600A4B1B682723FB181B78181C06F020FABD460BB090BD08010B4000010B40983D010030001040B6EA00000800104004001040170000808E
:404EC00080B584B000AF78600023FB60154B154A126801210A431A60134B144A1A60144B134A1268802109020A431A607B68002B12D01023FB600CE0012000F0A5FA00F039
:404F00002FF8031E02D00023FB6005E07B68013B7B607B68002BEFD1FB68181CBD4604B080BDC04660F02E4078002E400220000010002E4080B500AF064B064A1268012136
:404F40008A431A60044B044A126804490A401A60BD4680BD60F02E4010002E40FF7FFFFF80B582B000AF054B1B68012213407B607B68181CBD4602B080BDC0460C002E4007
:404F800090B585B000AF7860114B1B6807221340022B16D00F23FC1806F09BF9031C23700C4B7A68032111400A4A1268032082430A431A600F23FB181B78181C06F08DF94D
:404FC00002E0002000F002FABD4605B090BDC04600010B4064F02E4080B582B000AF7860134B134A126802218A431A60114B114A12681E218A43111C7A6852001E200240FF
:405000000A431A600B4B0B4A126801210A431A60FA239B00181C00F017FA00F02DF8044B034A126802210A431A60BD4602B080BD08000B4018000B4080B500AF064B064A6C
:40504000126802218A431A60044B044A126801218A431A60BD4680BD08000B4018000B4080B500AF034B1B6802221340181CBD4680BDC04604000B4080B500AF024B02228C
:405080001A60BD4680BDC04604000B4080B584B000AF78607B68192213407B60064B1B6819221340FB60044B7A681A60FB68181CBD4604B080BDC04600030B4080B582B0F7
:4050C00000AF064B1B687B60044B012252421A607B68181CBD4602B080BDC04680E100E080B582B000AF7860024B7A681A60BD4602B080BD00E100E080B584B000AF021C02
:405100003960FB1D1A7080239B05FB60FB1D1B780F2B02D9002000F059F9FB1D1B789B00FA68D3181B68BB60FB1D1B789B00FA68D3183A681A60BB68181CBD4604B080BD49
:4051400080B584B000AF021CFB1D1A7080239B05FB60FB1D1B780F2B02D9002000F036F9FB1D1B789B00FA68D3181B68181CBD4604B080BD80B584B000AF021C3960FB1D95
:405180001A7080239B05FB60FB1D1B781F2B02D9002000F01BF9FB1D1B7810339B00FA68D3181B68BB60FB1D1B7810339B00FA68D3183A681A60BB68181CBD4604B080BD22
:4051C00080B584B000AF021CFB1D1A7080239B05FB60FB1D1B781F2B02D9002000F0F6F8FB1D1B7810339B00FA68D3181B68181CBD4604B080BDC04690B587B000AF021C9B
:40520000FB1D1A70BB1D0A1C1A70BB1D1B78032B02D9002000F0DAF8FB1D1B781F2B02D9002000F0D3F8FB1D1B7803221340DB0006337B611323FC1806F04BF8031C2370FB
:40524000FB1D1B789B08DBB29B00144A944663441B68FB607B6903229A40131CDA43FB681340FB60BB1D1A787B699A40131CFA681343FB60FB1D1B789B08DBB29B00074A8A
:4052800094466344FA681A601323FB181B78181C06F023F8BD4607B090BDC04600E400E080B584B000AF021CFB1D1A70FB1D1B781F2B02D9002000F089F8FB1D1B789B0818
:4052C000DBB29B000C4A944663441B68FA1D127803210A40D2000632D3401A1C0F23FB181A700F23FB181B7803221340DBB2181CBD4604B080BDC04600E400E080B582B0C5
:4053000000AF021CFB1D1A70054BFA1D12781F210A40012191400A1C1A60BD4602B080BD00E100E080B582B000AF021CFB1D1A70074B1A68FB1D1B781F210B40DA40131C14
:40534000DBB201221340DBB2181CBD4602B080BD00E100E080B582B000AF021CFB1D1A70054BFA1D12781F210A40012191400A1C1A60BD4602B080BD80E100E080B582B038
:4053800000AF021CFB1D1A70054BFA1D12781F210A40012191400A1C1A60BD4602B080BD00E200E080B582B000AF021CFB1D1A70054BFA1D12781F210A40012191400A1C52
:4053C0001A60BD4602B080BD80E200E080B582B000AF021CFB1D1A7001BEBD4602B080BD80B500AF044B044A12681204120C03490A431A60BD4680BD0CED00E00400FA051A
:4054000080B582B000AF786009E00C4B1B68181C05F056FF7B680A4A944663447B607A6880231B029A42F0D8064B1B687A685343181C05F045FFBD4602B080BDE4000020B5
:405440000080FFFFDC00002080B582B000AF021CBB1D1A80BB1D1B88044A12785343181C05F02EFFBD4602B080BDC046E000002080B582B000AF78607B68002B03D0154BA6
:405480007A681A6002E0134B134A1A60114B1B68124A94466344181C114905F0ABFF031CDAB2104B1A700B4B1B680F4A94466344181CFA23990005F09DFF031C1A1C0B4B27
:4054C0001A600A4B1B68DA03094B1A60BD4602B080BDC046D8000020006CDC023F420F0040420F00E0000020E7030000DC000020E400002080B500AF064B1B68002B04D1B2
:4055000000F00AF8034B01221A6000F037F8BD4680BDC046C00E002080B582B000AF00237B6007E0124B7A6892000021D1507B6801337B607B68042BF4D90E4B0F20191C9F
:40554000FFF7DAFD012000F071F80B4B1B68181CFA23990005F04EFF031C181C00F040F800F08AF80F20FFF7C9FEBD4602B080BDAC0E0020D5560000D800002080B500AF33
:4055800000F016F8034B034A126801210A431A60BD4680BD10E000E080B500AF034B034A126801218A431A60BD4680BD10E000E080B500AF034B034A126802210A431A608A
:4055C000BD4680BD10E000E080B500AF034B034A126802218A431A60BD4680BD10E000E080B582B000AF7860034B7A681202120A1A60BD4602B080BD14E000E080B500AFB6
:40560000034B1B681B021B0A181CBD4680BDC04614E000E080B500AF034B1B681B021B0A181CBD4680BDC04618E000E080B582B000AF78607B68012B06D1084B074A1268CE
:4056400004210A431A6005E0044B044A126804218A431A60BD4602B080BDC04610E000E080B500AF034B1B681B0C01221340181CBD4680BD10E000E080B500AF024B002225
:405680001A60BD4680BDC04618E000E080B584B000AF78603960074B7A689200D358FB60044B7A6892003968D150FB68181CBD4604B080BDAC0E002080B582B000AF7860A5
:4056C000034B7A689200D358181CBD4602B080BDAC0E002080B582B000AFFFF7C1FF031E012B13D100237B600DE00A4B7A689200D358002B04D0074B7A689200D358984712
:405700007B6801337B607B68042BEED9BD4602B080BDC046AC0E002080B582B000AF7860254B1B78DBB21A1C7B681A60234B1B78DBB21A027B681B681A437B681A60204B86
:405740001B78DBB21A047B681B681A437B681A601C4B1B78DBB21A067B681B681A437B681A607B680433184A1278D2B21A60174B1B78DBB219027B6804337A6804321268B7
:405780000A431A60124B1B78DBB219047B6804337A68043212680A431A600E4B1B78DBB219067B6804337A68043212680A431A60BD4602B080BDC04678F1FF0F79F1FF0F23
:4057C0007AF1FF0F7BF1FF0F7CF1FF0F7DF1FF0F7EF1FF0F7FF1FF0F80B500AF0E4B0E4A126801218A431A600B4B0B4A126802218A431A60094B094A126830218A4310214D
:405800000A431A60054B054A126807218A4301210A431A60BD4680BD00F02E4000FF2E4080B500AF0E4B0E4A126802218A431A600C4B0C4A126807218A4302210A431A6020
:40584000084B084A126830218A4320210A431A60034B034A126801210A431A60BD4680BD00F02E4000FF2E4080B500AF044B044A1268802109060A431A60BD4680BDC04622
:4058800004010B4090B583B000AF00F03FFB031E22D100F019F9031E1ED000F059FA031E14D1FC1D05F015FD031C237000F004FF0B4B0B4A1268520052081A6000F048FF92
:4058C000FB1D1B78181C05F008FD05E0044B044A1268520052081A60BD4603B090BDC04604010B4080B500AF114B1B78002B0BD1104B1B68DBB29BB20F2213409AB20E4B99
:405900001A800B4B01221A700C4B0C4A12680C490A40802149000A431A600A4B094A126809490A4009490A431A60BD4680BDC046DC0E002024FF0B40E800002010010B405A
:40594000FFF0FFFF08000340C0C0FFFF0A0B000080B500AF034B034A126803490A401A60BD4680BD10010B40FFF0FFFF90B587B000AF78603960484B1B68484A1340FB60D8
:40598000FA6880235B009A4200D07DE0444B1B68444A934200D077E07B68434A934200D972E07B68632B6FD93B68002B6CD03F4B1B68002B5CD03E4B1B68002B55DA3D4B5D
:4059C0001B68002B4ED07B683B4A93421ED97B68181C1F2105F00EFD031CBB60354B1A68364B1B685A43354B1B689B0A101C191C05F000FD031C5C09BB68181CFA239900E7
:405A000005F0F8FC031C63437B6122E07B68642253432B4A94466344181C2A4905F0EAFC031CBB60234B1A68244B1B685A43234B1B689B0A101C191C05F0DCFC031C1A1C91
:405A4000BB685343181CFA23D90105F0D3FC031C7B613B687A691A60144B00221A6000233B6110E011233B610DE007233B610DE00F4A124B1B689B0A13600C4B01221A6024
:405A800007233B6102E001E011233B613B69181CBD4607B090BDC04610010B403F3F0000080003400A0B000000286BEEE00E0020180003401C00034060D10000D8000020FC
:405AC0000D030000350C000080B500AF044B1B68002B01DA012300E00023181CBD4680BD04010B4080B586B000AF7860396005237B613E4B1B683E4A1340BB60BA68802358
:405B00005B009A4200D069E03A4B1B683A4A934200D063E03B68002B60D07B68002B3CD1364B1B689B0A3B61354A344B1B689B0A136006E03B69013B3B613B69002B00D1A8
:405B400003E02F4B1B68002BF4DA3B68181C00F05BF8021C2B4B1A607B69013B7B61294B1B68002B06D0274B1B68112B02D07B69002BD9D1234B1B68002B02D10023FB6007
:405B80002BE07B69002B05D11E4B00221A601023FB6022E01123FB6022E01A4B1B68002B10D0174B1B68002B09DA3B68181C00F02BF8031CFB60134B00221A600DE0072374
:405BC000FB600DE00E4A0D4B1B689B0A13600D4B01221A600723FB6002E001E01123FB60FB68181CBD4606B080BDC04610010B403F3F0000080003400A0B0000D800002081
:405C000018000340E40E002080B588B000AF7860374B1B68002B64D0354B1A68354B1B685A43344B1B689B0A101C191C05F0E2FB031C7B617B69304A94466344FA2292009B
:405C40005343181CFA23D90105F064FC031C3B613B69DA179B185340382B3CD93B69002B0DDD3A69131C9B009B185B007133FF33181C224905F04EFC031CFB610CE03A690E
:405C8000131C9B009B185B00713BFF3B181C1B4905F040FC031CFB61194B1B680F221340FB60FA68FB69D31AFB61FB690F2B01DD0F23FB61FB69002B01DA0023FB61104BBF
:405CC0000F4A12680F218A43111CFA690A431A600723BB6107E07B683A691A600023BB6101E01123BB61BB69181CBD4608B080BD1C000340D80000200083FFFFE1020000D5
:405D000024FF0B4080B582B000AF00237B600E4B1B889BB2F02B0ED00C4B0C4A12680F218A43111C084A128892B2101C0F2202400A431A6002E001235B427B607B68181C23
:405D4000BD4602B080BDC046E800002024FF0B4080B582B000AF054B1B689B0F9B077B607B68181CBD4602B080BDC0460C020B4090B585B000AF7860FFF7EAFF021E7B685A
:405D80009A4219D00F23FC1805F0A3FA031C237000F092FC0A4B0A4A1268920091087A68920F92070A431A6000F0D2FC0F23FB181B78181C05F091FABD4605B090BDC04690
:405DC0000C020B4080B500AFFFF706FD044B044A1268802109060A431A60BD4680BDC04600F02E4090B583B000AF00F029F8031E21D0FFF7ADFF021C8023DB059A4214D1ED
:405E0000FC1D05F066FA031C237000F055FC0B4B0A4A1268520052081A6000F099FCFB1D1B78181C05F059FA05E0044B034A1268520052081A60BD4603B090BD00F02E4089
:405E400080B500AF044B1B68002B01DA012300E00023181CBD4680BD00F02E4080B584B000AF78600C4B1B6801221340FB607B68002B02D0012B03D005E0FFF7ADFC06E089
:405E8000FFF7CEFC03E00020FFF7A0FAC046FB68181CBD4604B080BD00F02E4080B582B000AF7860FFF7CCFF031E10D07B68012B0AD8084B074A126804218A43111C7A68E0
:405EC00092000A431A6002E00020FFF77FFABD4602B080BD00F02E4090B583B000AFFC1D05F0F7F9031C2370074B074A1268C02109020A431A60FB1D1B78181C05F0EDF927
:405F0000BD4603B090BDC04600010B4080B500AF054B1A68C0231B02134001D0012300E00023181CBD4680BD00010B4090B583B000AFFC1D05F0CDF9031C23700C4B0C4AF1
:405F400012680C490A408021C9010A431A60084B074A126807490A40802109020A431A60FB1D1B78181C05F0B8F9BD4603B090BD00010B40FF3FFFFF80B582B000AF7860AD
:405F80007B68022B02D90020FFF720FA054B1B687A68D2000132D34001221340181CBD4602B080BD10020B4080B584B000AF786039607B68022B02D90020FFF707FA7B6892
:405FC000181CFFF7D9FF031E15D10C4B1B687A68D200111C03228A40D2431340FB603B68032213407A68D2009340FA681343FB60024BFA681A60BD4604B080BD0C020B4000
:4060000080B582B000AF7860054B1B687A68D200D34003221340181CBD4602B080BDC0460C020B4080B584B000AF786039607B68002B02D07B68012B01D1012300E000236A
:40604000002B02D10020FFF7C1F97B68181CFFF793FF031E16D10D4B1B687A68D2000232111C01228A40D2431340FB607B68DB0002331A1C3B689340FA681343FB60034B0B
:40608000FA681A60BD4604B080BDC0460C020B4080B582B000AF78607B68002B02D07B68012B01D1012300E00023002B02D10020FFF78CF9054B1B687A68D2000232D34074
:4060C00001221340181CBD4602B080BD0C020B4080B582B000AF7860144B144A11687A680A431A607B680122134005D0C0460020FFF742FF031EFAD07A6880235B00134035
:4061000005D0C0460120FFF737FF031EFAD07A6880235B02134005D0C0460220FFF72CFF031EFAD0BD4602B080BDC04610020B4080B582B000AF7860FFF7E8FE031E26D1D7
:40614000144B144A12687968C9430A401A607B680122134005D0C0460020FFF70DFF031EFAD17A6880235B00134005D0C0460120FFF702FF031EFAD17A6880235B021340AE
:4061800005D0C0460220FFF7F7FE031EFAD1BD4602B080BD10020B4090B585B000AF78600020FFF7E9FE041C0120FFF7E5FE031C1C430220FFF7E0FE031C2343FB60FB68ED
:4061C000002B0DD1084B1B68BB60BB68074A1340BB60BA687B681343BB60034BBA681A60BD4605B090BDC0460C020B40F7F7FFFF80B500AF034B1B68034A1340181CBD4687
:4062000080BDC0460C020B400808000080B584B000AF786039607B68002B02D07B68012B01D1012300E00023002B02D10020FFF7CDF8174B1B689B0F9B0701D1C92300E099
:406240005D23181CFFF700F9124B1B68FB607B681B011A1C104B9340DA43FB681340FB600C4B7A681201111C3A688A40111CFA680A431A60064B1B689B0F9B0701D143231C
:4062800000E01F23181CFFF7DFF8BD4604B080BD0C020B4008020B40FFFF000080B584B000AF78600220FFF767FE031E10D10A4B1B68FB60FB68094A1340FB607B681F22F1
:4062C00013401B06FA681343FB60034BFA681A60BD4604B080BDC0460C020B40FFFFFFE080B500AF034B1B681B0E1F221340181CBD4680BD0C020B4080B582B000AF786090
:406300007B68002B02D07B68012B01D1012300E00023002B02D10020FFF758F8054B1B687A681201D3401B041B0C181CBD4602B080BDC04608020B4080B584B000AF78607F
:406340000023FB607B68012B09D002D3022B0BD00EE00C4B1B681B041B0CFB600CE0094B1B681B0CFB6007E0074B1B68FB6003E00020FFF72BF8C046FB68181CBD4604B0A5
:4063800080BDC04600020B4004020B4080B500AF034B1B68034A1340181CBD4680BDC04610020B400404040090B585B000AF78600B23FC1804F08DFF031C2370FFF7A6FDB6
:4063C000031E04D00123FB60FFF7B0FD01E00023FB607B680D4A13407B600D4B0C4A12680C4911407A680A431A60094B1B68FB68012B01D1FFF770FD0B23FB181B78181CA5
:4064000004F06BFFBD4605B090BDC0460404040010020B40FBFBFBFF80B582B000AF7860084B084A11687A68074802400A431A60C046044B1B68044A1340FAD1BD4602B05B
:4064400080BDC04610020B400808080080B584B000AF786039600023FB607B68022B0AD8094B7A689200D358FB60074B7A6892003968D15002E00020FEF7A8FFFB68181C60
:40648000BD4604B080BDC046D00E002080B584B000AF78600023FB607B68022B05D8074B7A689200D358FB6002E00020FEF78EFFFB68181CBD4604B080BDC046D00E00202A
:4064C00080B582B000AF78607B68022B13D80D4B7A689200D358DA430B4B1B681A400A4B1A60084B7A689200D258084B1B681A43064B1A6002E00020FEF768FFBD4602B09B
:4065000080BDC046C83D0100CC0E0020EC00002080B582B000AF78607B68022B0AD8084B7A689200D358DA43064B1B681A40054B1A6002E00020FEF749FFBD4602B080BDF4
:40654000C83D0100EC00002080B500AF334B1B68042213401FD0324B1B680422134017D0304B1B6804221340DA432D4B1B681A402B4B1A602B4B1B68042293431A1C294BE4
:406580001A60294B1B68002B02D0274B1B6898470420FFF709FF214B1A688023DB00134022D01F4B1A688023DB00134017D01D4B1A688023DB001340DA43194B1B681A4009
:4065C000174B1A60174B1B68184A1A40154B1A60154B5B68002B02D0134B5B6898478023DB00181CFFF7E0FE0C4B1A688023DB02134011D00A4B1A688023DB02134006D091
:40660000094B9B68002B02D0074B9B6898478023DB02181CFFF7C8FEBD4680BD10020B40EC000020CC0E0020D00E0020FFFBFFFF80B582B000AF78607B68002B18D17B6801
:40664000181CFFF7DDFC031E032B03D10420FFF7ABFE2EE07B68181CFFF7D2FC031E022B27D10820FFF7D8FE0420FFF79DFE20E07B68012B1DD17B68181CFFF7C1FC031E71
:40668000032B05D18023DB00181CFFF78DFE10E07B68181CFFF7B4FC031E022B09D180231B01181CFFF7B8FE8023DB00181CFFF77BFEBD4602B080BD80B582B000AF0020E6
:4066C000FFF75AFC031E03D01E4B00221A6024E00120FFF751FC031E03D01A4B01221A601BE00220FFF748FC031E03D0154B02221A6012E0144B01221A60124B00221A60C7
:406700000020FFF77DFC021C104B1A6000200021FFF74AFC0120FFF7DBFC0A4B1B68181CFFF70AFE031C7B60C046064B1B68181CFFF702FE021E7B689A42F6D0BD4602B00A
:4067400080BDC046E80E0020C40E0020C80E002080B500AF0A4B1B68002B0ED0094B094A126801218A431A60074B1B680020191CFFF71AFC024B00221A60BD4680BDC04624
:40678000C40E002010020B40C80E002080B586B000AFF8607A600B23FB180A1C1A70FB68012B20D8FB68181CFFF772FC031E1AD17B68104A934216D8FB68181CFFF7BCFD83
:4067C000031C7B617A697B68D3181B041B0C3B61F9680B23FB181A783B69081C111C1A1C00F00AF802E00020FEF7F0FDBD4606B080BDC046FFFF000080B586B000AFF8606A
:406800007A600B23FB180A1C1A70FB68012B3BD8FB68181CFFF73CFC031E35D17B681D4A934231D80B23FB181B78002B14D1FB68181CFFF781FD031C7B617A697B689A424B
:40684000F5D8FB68181CFFF777FD031C7B617A697B689A42F5D31AE00F4BFA689200D3587B61FA687B68101C191CFFF7CFFC0B4B1A687B691A43094B1A60094B1A687B698E
:406880001A43074B1A6002E00020FEF79FFDBD4606B080BDFFFF0000C83D0100CC0E0020EC00002080B582B000AF786039607B683A681A403B689A4201D1012300E000233E
:4068C000181CBD4602B080BD80B584B000AF78607B680322134006D17B68181C642104F00FFE0B1E07D17B68181CC823590004F007FE0B1E02D10123FB6001E00023FB6084
:40690000FB68181CBD4604B080BDC04680B584B000AF78607B68702213401A09131C9B009B185B00FB607B680F221340FA68D318FB60FB68181CBD4604B080BD80B584B0B5
:4069400000AF78607A68E023DB0113401A0B131C9B009B185B00FB607A68F0231B0113401B0AFA68D318FB60FB68181CBD4604B080BDC04680B584B000AF78607A68C023AD
:406980009B0313401A0D131C9B009B185B00FB607A68F0231B0313401B0CFA68D318FB60FB68181CBD4604B080BDC04680B582B000AF78607A688023DB03101C191CFFF71E
:4069C00071FF031C181CBD4602B080BD80B584B000AF78607A68C0239B0313401A0D131C9B009B185B00FB607A68F0231B0313401B0CFA68D318FB60FB68181CBD4604B05F
:406A000080BDC04680B584B000AF78607A6880235B0513401A0F131C9B009B185B00FB607A68F0231B0513401B0EFA68D318FB60FB68181CBD4604B080BDC04680B584B05C
:406A400000AF78607A68C0239B0113401B0BFA2292005343FB607A68F0231B0113401B0A64225343FA68D318FB607B68F02213401A09131C9B009B185B001A1CFB689B183A
:406A8000FB607B680F221340FA68D318FB60FB68181CBD4604B080BD80B582B000AF78607A6880231B04134001D0012300E00023181CBD4602B080BD80B586B000AFF8606C
:406AC000B9607A603B60FB68DB057B61BB689B057A6913437B617B68181C0A2104F08AFC031C1B057A6913437B617B68181C0A2104F006FD0B1C1B047A6913437B613B68CA
:406B0000181C0A2104F076FC031C1B037A6913437B613B68181C0A2104F0F2FC0B1C1B027A6913437B613B6A181C0A2104F062FC031C1B017A6913437B613B6A181C0A2157
:406B400004F0DEFC0B1C1A1C7B6913437B617B69181CBD4606B080BD80B586B000AFF860B9607A607B687B61FB68181C0A2104F041FC031C1B073B61FB68181C0A2104F01C
:406B8000BFFC0B1C1B063A6913433B61BB68181C0A2104F02FFC031C1B053A6913433B61BB68181C0A2104F0ABFC0B1C1B043A6913433B617B68181CFA23990004F01AFCF9
:406BC000031C1B033A6913433B617B69181CFA23990004F095FC0B1C7B617B69181C642104F008FC031C1B023A6913433B617B69181C642104F084FC0B1C7B617B69181CDB
:406C00000A2104F0F7FB031C1B013A6913433B617B69181C0A2104F073FC0B1C1A1C3B6913433B613B69181CBD4606B080BDC04690B587B000AFF860B9607A60BB68022B40
:406C400005D8BB680C33BB607B68013B7B60BB6801331A225343181C0A2104F0CBFB031C1A1CFB68D2187B68D2187B689B08D4187B68181C642104F0BDFB031C1A1C131CD1
:406C80005B009B185B00E4187B68181CC823590004F0B0FB031CE318181C072104F030FC0B1C7B617B69002B01D107237B617B69181CBD4607B090BD80B500AF034B1B7811
:406CC000002B01D100F008F8BD4680BD7012002080B500AFBD4680BD80B584B002AF154B01221A70144B00221A60144B0022DA60134B00221A70134B00221A60FC23DB00C6
:406D0000092001211A1CFFF727FF031C7B601B2300930020002117221723FFF7CDFE031C3B603A687B68101C191C00F00DF8BD4602B080BD70120020F40E00207412002085
:406D4000881200208412002090B587B000AF786039603B68181CFFF739FE031C7B613B68181CFFF74FFE031C3B613B68181CFFF765FE031CFB603A687B68101C191C00F0B3
:406D800089F9031C0C1C0B4A136054600A4B3A685A60094B7A681A6079693A69FB68081C111C1A1CFFF744FF021C034B9A60BD4607B090BD901200207412002090B589B032
:406DC00002AF38607960094A3B687C68136054600823F9183B687C6800220092081C1A1C231C00F01FFABD4607B090BD9012002090B500AF034B5C681B68181C211CBD4691
:406E000090BDC0469012002080B582B000AF78603960044B7A681A60034B3A681A60BD4602B080BDEC0E0020F00E002080B500AF024B1B68181CBD4680BDC046EC0E00202F
:406E400080B500AF024B1B68181CBD4680BDC046F00E002090B585B002AF78600A4B1B68191C00231A1C094B5C681B685B185441796800220092081C1A1C231C00F0D2F9D1
:406E8000BD4603B090BDC046F40E00209012002090B583B002AF0C4B1B68191C00231A1C0A4B5C681B685B185441094900220092081C1A1C231C00F0B5F9054B1B68181C6C
:406EC000BD4601B090BDC046F40E0020901200207412002090B583B002AF0C4B1B68191C00231A1C0A4B5C681B685B185441094900220092081C1A1C231C00F093F9054B61
:406F00005B68181CBD4601B090BDC046F40E0020901200207412002080B586B000AF3B1D181CFFF797FF3B1D5B68181CFFF786FD031C7B617B69181CFFF7C6FC031E06D00D
:406F4000144BDB6808221A43124BDA6006E0114BDB68082293431A1C0E4BDA603B1D1B68181CFFF723FD031E06D00A4BDB6810221A43084BDA6006E0064BDB6810229343B1
:406F80001A1C044BDA60034BDB68181CBD4606B080BDC0467412002080B586B000AF786001233B610023FB6000237B6113E07B680F2213403A695343FA68D318FB607B685E
:406FC0001B097B603A69131C9B009B185B003B617B6901337B617B690F2BE8D9FB68181CBD4606B080BDC04680B586B000AF786000237B610023FB607B683B613B69181C4F
:407000000A2104F07DFA0B1C1A1C7B699A40131CFA681343FB603B69181C0A2104F0EAF9031C3B617B6904337B613B69092BE5D87B693A699A40131CFA681343FB60FB6836
:40704000181CBD4606B080BD90B500AF0D4B1A680D4B1B68D2180B4B1A600A4B1A680B4B1B689A420CD30A4B5C681B68012100225B185441064A13605460024B00221A60D0
:40708000BD4690BDF80E0020EC0E0020F00E002090120020F0B591B000AF78623962002300243B637C637B6A181CFFF7C7FC031CFB62564BFB6319E0FB6B181CFFF704FCBC
:4070C000031E08D03B6B7C6B514900225B1854413B637C6307E03B6B7C6B4E4900225B1854413B637C63FB6B0133FB63FA6BFB6A9A42E1D37B6A181CFFF784FC031CBB62FA
:40710000BB6A5A1E444B5200D35ABB63BB6A022B08D9FB6A181CFFF7D7FB031E02D0BB6B0133BB63BB6B3D4A5343BB610023FB613B6B7C6BB969FA695B1854413B637C6312
:407140007B6A181CFFF742FC021C344B5343344A944663443B6100237B613B6B7C6B39697A695B1854413B637C633B6A181CFFF701FC031CBB633B6A181CFFF78DFC031EDC
:407180000BD03B6A181CFFF711FC031E05D0BB6B0B2B02D8BB6B0C33BB63BB6BE12212015343BB600023FB603B6B7C6BB968FA685B1854413B637C633B6A181CFFF7BEFBE1
:4071C000021C131C1B019B1A9B003B6000237B603B6B7C6B39687A685B1854413B637C633B6A181CFFF792FB031C1D1C00231E1C3B6B7C6B5B1974413B637C633B6B7C6BD7
:40720000181C211CBD4611B0F0BDC046B20700000085E2018033E101D43D01008051010080AEFEFFF0B5A1B002AF7865BA64FB6400233B67A14BBB66A14B7B6619E07B6E1F
