:400000000040002011000000394A0000394A000008B504F02BFD0000F8B572B600250122804B814C291C25601A7080227F48D20009F046F98022291C7D48D20009F040F944
:40004000291C7C4FFF20CA596B00161C864310402D186A00183701330132FB18BA18934206D0581E00781F78801907700233F6E704311829E5D1704A704B02251A60C022B8
:400080006F4B92011A6099236E4A1B0413606E4A3C2013606D4A6E4913606E4A01261360C0226D4B12041A606C4B6D4A1D606D4B1D6013782B4313700B7883432838034304
:4000C0000B70162113780B4313702323664A67491360674A11602021664A1160664A703111606649664A1160664A1360664A674B1A600F22664B1A60664A674B1A60122258
:40010000664B1E60664B1A6004F0ECFD654806F047FA301C04F0F2FD302004F003FD8023614E624ADB0533601368FA201D4315605F4B604A08251A6000225F4BC0001A6055
:400140002368AB43236004F089FD5C4804F07CFDB7205B4A5B4B5C491A605C4BC00219605B4908605B49281C19605B490A605B4919605B490A60F0215A4A09011A605A4A52
:400180001160E821594A49011A60594A1160594A59491A60594A1160594A5A491A608222594B12061A608022584BD2021A604622574B1A60574B043A1A60574B02321A601C
:4001C000564B01321A60564B053A1A60554B01321A60554B02321A6004F0D6FC281C04F0FDFC524A524B1A60524B534A3360534B136011681940FCD102224F4BFF321A602C
:4002000003234F4A012013604E4A136080224E4B12061A604D4B18604D4B196004F074FCF8BDC0461C700F406CF02E4000300F4000400F4078C50100EE0099EE00000240AB
:400240000003024000500F4010500F4020500F4001700F4030500F4038500F402000104000700F4000800F4000000440A41DDB0008000440180004400001044006609B00FA
:400280000801044000020440926103000802044000030440906C0300080304401803044030001040001BB7000C020B4078002E407C002E402D3E000064F02E40DC050000EA
:4002C000007FBB001803014046FF0080000001400803014042FF00801003014044FF00801403014045FF00800003014040FF00800403014041FF0080008206000C0301403F
:4003000043FF0080114E000008010B4000010B402C01014024010140200101401C0101401801014008010140040101402000FFFF08020B400505004010020B400808000054
:40034000300030403000314000003A4000033A40000E3F4010B5064C2378002B07D1054B002B02D0044800E000BF0123237010BD9005002000000000CCB7010008B5084BFE
:40038000002B03D00748084900E000BF07480368002B00D108BD064B002BFBD09847F9E700000000CCB7010094050020C800002000000000FA210A4A10B5138889000133CE
:4003C0009BB28B4201D0138009E00024148004F003FE012005F0E0FC201C05F0DDFC10BDB005002008B504F0EBFE0020014904F0FFFC08BDB503000008B504F0E7FD08BD81
:40040000014B18887047C046B0050020F0B589B005F014F86820002105F098F800240025002800D086E105F02BF905F0EBF805F0A5F96820012105F089F8002828D005F0D0
:40044000E1F805F009F806AB1B7870201D1C0A240F2105402D116543B84A0B40EB18137006AB5D782840001160430D40401950709B785806C00FD070194001281BD1D80670
:40048000C00F44439B066118DB0F9170137117E0041C651C062C08D0002005F02FF906AB18552C1E072CF4D1C9E7012005F026F906AB9871C3E79B069B0F63435B1893706E
:4004C00006ABD97807230B40537106AB19790F208B069F0F0A237B4301405F18977106AB5979FFB2CB06DD0F0A236B4301405D18D57106AB9B79053819094143053003407D
:400500005B181381FA22FA21D2009BB29B18181C8900009306F0BCFB0291081C642106F0B7FBEDB20491281C0A2106F0B1FB281C0E060A2106F026FB000706430A21381C1C
:4005400006F020FB000506430A21381C06F0A0FB09040E43FA210098890006F013FB000306436421029806F00DFB000206430A21049806F08DFB04980E430A2106F002FB6A
:400580006E4C0001A378257800932179E3788905DB0519430643371C281C66780C1C0A2106F076FB00980C430A2106F0EBFA000504430A21009806F06BFB09040C43301CFE
:4005C0000A2106F0DFFA000304430A21301C06F05FFB09020C43281C0A2106F0D3FAFA22BD04AD0F92006A43111C64223B051B0F5343553ACD183A40AB180A223D062D0F7D
:40060000554300225D1900230092019300014C4E0443AE420FD2B30705D1301C642106F037FB002978D1C821301C490006F030FB002971D072E00A22FB00DB0F5A43111C5D
:400640003B011A0F8B185A1E3E495200565A022B0ED9AB0705D1281C642106F019FB002966D1C821281C490006F012FB00295FD000230393C023391C0A259B033248194040
:40068000090D46436943F02202960E1C391C12031140090C711841432C4823400918049100211B0D6B432240120C9B1805919C46630206D4230204D563460B2B01D80C23EB
:4006C0009C446104490F0A220B1C3C2053432105090F5918484365066D0F5543021C0F20002304402E19301C049C059D191C8018594100196941009C019DE12266460019AA
:400700006941029C039D1201564300196941341C1D1C24184D410DE00D4A00E00D4A0023009801998018594101360090019170E701369DE7201C291C09B0F0BDA0190020E2
:40074000B207000000B801008051010080AEFEFF0085E2018033E101F0B5061C0F1CA84BA84C8DB00093002301939F4217D0009A019B0134B61A9F41A30705D1201C642189
:4007800006F086FA002908D1C821201C490006F07FFA002901D09A4BE4E79B4BE2E7009B9E42E4D8201C6421099406F071FA0591C821201C490006F06BFA0123934D00939F
:4007C000002302950393924DBB4217D0029A039BB61A9F41009B00985A1C8E4B18331B5C022A08D1A00703D10598002800D004E1002900D101E15D430092E1E7029BB34256
:40080000E4D9301C391C824A002306F0B5FB291C039B41431D1C8E425D416D420D402A1C039BB61A9F41E122431C059312010023301C391C06F0A0FBE12100230901029004
:400840004843021CBB4205D11D1C96425D41694211400A1CB61A9F413C220023301C391C06F08AFB3C210023414308900A1CBB4205D11D1C96425D41694211400A1CB61AA8
:400880009F41009B06960797022B02D80C330093013CC821059B4900E618201CA308F61806F070F964213618201C06F06BF906235843009B3618581C1A230A21584306F0C6
:4008C00061F90721301806F0E3F9002900D1073120206A46121815786A46177ACAB208926A466B4612181E7E12784B4B4B495A716A4612788C4600926A4612780024DA713F
:40090000099A1E70624492B202926A4612895D701A816A46127D9F7005926A46127D1C719A71DC70301C0A2106F02CF90A210301301C069306F0ACF9069B281C59180AAB01
:4009400019700A2106F01EF90A210601281C06F09FF90AAB76185E700A21381C06F012F90A210501381C06F093F96A466D182021521812780AABDA709D700598163906F0C2
:4009800001F90A210501059806F082F90AAB6D181D7100980A2106F0F5F80A210501009806F076F90AAB681858710A21029806F0E9F80A210501029806F06AF90AAB4D1989
:4009C0009D7104F03BFD04F0D9FE6820211C04F0BDFD051C201C04F053FEA54206D004F011FE0DB0F0BD0134072CF8D00AAB185D04F046FE0028F6D0F1E70133FBE6C04640
:400A00008033E101B20700000085E20180DE28008051010000B80100A019002030F8FFFF07B5002005F0D6FC462000F003FA402000F0B8F9074800F07FFB00F0EDF900204A
:400A40003023011C0093044A243300F0ABFB00F0C7F907BDCFBC01003BBF01007FB50B25061C11492A1C01A808F021FC0F4C311C2A1C201C09F03CF9301C09F01EF9C3B230
:400A80000A2B05D8C2B2AA1A201C01A909F01CF9074800F051FB201C0821282200F0B8FA00F09EF97FBDC04624B80100C0050020CFBC0100082307B50093002804D140301E
:400AC0000121064A023303E0402001210A23044A00F068FB00F084F907BDC04617BF01000DBF010007B5002808D12323013000930321104A1D3B00F055FB18E00120032127
:400B0000232200F03CFB02200321232200F037FB03202322011C00F032FB04200321232200F02DFB05200321232200F028FB00F057F907BD21BF0100F7B5144800F0FCFAE1
:400B400004F03EFC0A2443045B0F6343191C8202920F624303051B0FCB180F21171C4606760F66430A4D020308403018120FBA1800900849281C09F069F8281C211C0022D0
:400B800000F046FA00F02CF9F7BDC046CFBC0100C005002030B8010038B50021051C06F0C3F9002878D14D24201C04212322013400F0E5FA522CF7D1281C08F01BF9374A58
:400BC000374B041C0D1C06F089F900280ED04F201F21072200F0C0FA50201F21072200F0BBFA51201F21072200F0B6FA201C291C2C4A2D4B06F072F900280ED04F201621B6
:400C0000072200F0A9FA50201621072200F0A4FA51201621072200F09FFA201C291C234A234B06F05BF9002813D04E200D21072200F092FA4F200D21072200F08DFA5020A1
:400C40000D21072200F088FA51200D21072200F083FA201C291C174A174B06F03FF9002818D04D200421072200F076FA4E200421072200F071FA4F200421072200F06CFAAF
:400C800050200421072200F067FA51200421072200F062FA00F0A4F838BDC0469A9999999999D93FE17A14AE47E1DA3F295C8FC2F528DC3F713D0AD7A370DD3F144B73B533
:400CC000984224D8134B994221D8041C202512480E1C00F031FA3C21201C05F053FF0B2203231621009500F0C1F9201C3C2105F0CFFF1422081C02231C21009500F0B6F9F3
:400D00000095301C16211D22032300F0AFF973BD60EA0000E7030000CFBC010037B5051C20240A4800F008FA281C00942B210E22012300F09BF9042040210E2201230094B0
:400D400000F094F900F04CF837BDC04693BB010010B5041C054800F0EFF90548002C00D104482B211F2200F053F910BD4CB8010042B8010047B8010008B5012005F02AFB4B
:400D800008BD10B5041C081E00D0012005F046FB002005F02BFB201C04F0ECFE012005F025FB10BD10B5041E7F2C03DCC343DB171C4000E07F2421200021FFF7E2FF8020C3
:400DC00040422043C0B20021FFF7DBFF20200021FFF7D7FF014B1C6010BDC046B41B00200B4B10B51C78002C11D14020211CFFF7C8FF8020211CFFF7C4FF064B0121185D5F
:400E0000FFF7BFFFFC2301345B009C42F5D110BDAC190020AD19002000230021044A9A181170FC22013352009342F6D17047C046AD19002010B5041E7F2C03DCC343DB1702
:400E40001C4000E07F24002005F0DCFA012005F0D9FA21200021FFF794FF802040422043C0B20021FFF78DFF06200021FFF789FF13200021FFF785FF20200021FFF781FFD0
:400E800040200021FFF77DFF80200021FFF779FF0C200021FFF775FFFFF7BEFFFFF7A0FF0023034A1360034A1370034B1C6010BDA81B0020AC190020B41B002053280ED8AF
:400EC0002F290CD85423CA085343181807231940063B8B40191C024A135C194311547047AD19002053280ED82F290CD85423CA085343181807231940063B8B40191C024A0E
:400F0000135C8B4313547047AD190020F0B585B001923E4A039153790725191C947929401679002938D1DB087343001B434302936B460C1C9D88354B5B79DB089C4262DA65
:400F40000026324B1B799E4222DA00272F4902980B7963431A1C0B689B191B189B181B790A7A3B4103997018E91980B289B2DB0702D5002A02D104E0002A02D1FFF7B2FF53
:400F800001E0FFF79BFF0137082FDFD10136D8E708350134ADB2CEE700277343041BDB105C43136804341B5D0293184B1B799F4229DA0026154B5A79964222DA1A7A039BA5
:400FC000F818029B2B41DB0706D5019B80B2F11889B2002A06D108E0019B80B2F11889B2002A02D1FFF77EFF01E0FFF767FF013D05D50725054B01341B681B5D02930136D1
:40100000D8E70137D1E705B0F0BDC046A81B0020F7B5071C0C1C019208F04FFE104B061C9C4204D10F4B1C79542344431C1B0E4B9C4207D154220B4B1B797343D31ADC0F96
:40104000E41864100025B54209DA064B785D1979019A69436118FFF759FF0135F3E7F7BD0F270000A81B00200E270000F0B593B01F1C18AB1B78041E02910392019314D1ED
:401080000BA8002F0DD07B1E9C4204DA6B461B7903550134F7E73023035500230419637043E03023477003703FE00026B04201DA444201360025201C0A2105F0D9FE0B1CC0
:4010C00004AA3033601AAB540A2105F0EBFD0135041EF0D104AB5855002E02D02D220BAB1A70A819002387420EDD00217B1B9A1B914206DA6A460BAB12799B195A5401311E
:40110000F4E7D343DB17134000220BAF9C19A91A3C1912AF791839390978A1540132AA42F3D10BAAD31800221A540BA80299039AFFF76EFF13B0F0BD064B186002781A71F7
:4011400042785A7182789A71C278DA7100221A727047C046A81B0020F8B5051C0E1C171C53280BD800242F2908D8BC4206DAA119A8B289B2FFF7A2FE0134F6E7F8BDF8B5F6
:40118000051C0E1C171C53280BD800242F2908D8BC4206DAA119A8B289B2FFF7A3FE0134F6E7F8BDF0B50F1C1E1C002485B0029003920A9B9C4228DAE3175B0F1B19DB10DA
:4011C00073430193124B234004D50822013B52421343013301229A4000250092B54212DA019A039BE1199B18029A5B5DA818009A80B289B21A4202D0FFF760FE01E0FFF797
:4012000071FE0135EAE70134D3E705B0F0BDC04607000080C37882781B02134342781B02134300781B0218437047436902399A1E0023914203D24389826A59438B18181C49
:401240007047036810B51A1E10D0117820290BD93A2901D00132F8E7591C1C788A4205D1302C03D102330360002001E00120404210BD38B5041C0D1C002803D10023092011
:401280002B6011E00368002BF8D01A78002AF5D0D98882889142F1D1587801F00BFB01231840EBD123682B6038BD002310B5CC5CC45401339342FAD110BDCB7E021C887E93
:4012C0001B021843032A05D14B7D0A7D1B0213431B0418437047130A8A76CB760378032B03D1120C0A75120A4A757047F8B5071CC56A30370123041C391C40782A1C01F088
:401300009FFB0123002814D1236AA269E070EB1A934201D300230CE0A678012EFAD9A3696078ED18391C2A1C012301F089FB013EF3E7181CF8BD08B5031CC2780020824204
:4013400002D0181CFFF7D2FF08BDC36A70B5041C0E1C0025994210D0FFF7EDFF051E0CD1211C60783031321C012301F02FFB002802D0012601357642E662281C70BD0000B2
:40138000002310B5C370013BC362041CFFF7DDFF0423002829D1164B1649E25C164B1202E35C1A4312B203238A421ED1231C30331B78E92B06D0236B104A11491A400223E2
:4013C0008A4212D1201C6630FFF724FF0D4A0002000A0023904208D0201C8230FFF71AFF094BC318581E83415B00181C10BDC0462F02000055AAFFFF2E020000FF00FF00FF
:40140000EB00900046415400BABEABCC0023F0B50B608BB00D1C171CFFF713FF0B23061E00DA4CE1A74B8200D4580C23002C00D145E12C6001252378AF43002B0DD060782B
:4014400001F038FA054008D12B1C002F00D136E1420700D433E10A2331E10023F0B22370607001F031FA0323C20700D527E1002F01D04307EFD4201C0021FFF781FF022843
:4014800021D1261C0025F736FF360020331F1B78834202D0301CFFF7BDFE06ABE85004351036102DF1D1002506AB5E590320002E05D0201C311CFFF763FF01280CD9043596
:4014C000102DF1D1F7E000260123042800D1F6E0984201D90D23F2E0231C221C3C331B783B3212781B02134380221BB292009342F0D1231C221C47331B78463212781B021A
:40150000134301D0029304E0201C5430FFF782FE0290029BA361231C40331F787B1EA770012BD7D8231C3D331D78ABB26381002BD0D06B1E1D42CDD1231C221C42331B7873
:40154000413212781B021A436B4601929B882381131C1B07BED1231C44331878013B1B780002184303D1201C5030FFF753FE231C221C3F331B783E3212781B021A43049234
:40158000A8D0029B7B430593019B1B099B18059A9B18039398429DD3C01A291C05F0F2FA002897D0484B0327984205D80027474B83427F410223DF1B049B039A851CF318D3
:4015C00092196561E6612362A262032F14D1231C221C5B331B785A3212781B02134300D078E7019B002B00D074E7201C5C30FFF711FEAD00606210E0019A002A00D169E739
:40160000059AD3186362022F01D16D0005E0032301206B4305405B085D192D4BED18029B6D0AAB4200D255E701235B422361E36081332371032F35D1231C221C61331B78BB
:40164000603212781B021343012B2BD1711C201CFFF77BFE002825D11E4B20711E4AE35CA25C1B0213431D4A1BB293421AD1201C3030FFF7CFFD1A4B984213D185239B0093
:40168000E018FFF7C7FD174B98420BD186239B00E018FFF7BFFD87239B002061E018FFF7B9FDE060074A2770938801339BB29380E380002303E00123042800D00AE7181C83
:4016C0000BB0F0BD24060020F5FF0000F50F0000FF0100002F0200002E02000055AAFFFF5252614172724161F7B50125A9425AD94369994257D203780E1C041C022B2DD087
:40170000032B3FD0AB424ED14F087F18036A790AC918FFF71AFE002802D001256D4242E07B1CFF05590A0193FF0D236AE7193037C918201C3F78FFF708FE0028EDD1019BBE
:40174000D805C00D241830342078000207432E4201D03D0927E03F053D0D24E0036A090AC918FFF7F2FD0028D7D1FF2376005B001E40A3193036A4193033657818782D02D6
:40178000054310E0036AC909C918FFF7DEFD0028C3D1FD30FF30B60006403036A019FFF739FD05012D09281CFEBD002370B58668051C046803619E420ED12378022B02D9DD
:4017C000636A002B07D12389002B01D1022021E0636AAB6115E01E1C6389002B0CD1311C2868FFF781FF061C431C12D00128EDD963699842F3D3E9E7201C311CFFF715FDDF
:40180000A861AB696E61002BE0D03034EC61002000E0012070BDF0B5051C85B00E1C141C0227012900D882E04369994200D37EE003780193BB4245D0032B56D0012B76D160
:401840004B085B180293590A036AC918FFF77DFD071E6CD1029B019A01330393029B1640DB05DB0DEB18E2B2002E08D01A1C303211780F220A40E1B209010A43D2B23033C3
:401880001A700123EB70039B281C590A2B6AC918FFF75BFD071E4AD1039BDB05DB0DEA18002E02D02409E4B208E0131C303319780F23240A9943234019430C1C131C3033EB
:4018C0001C7032E0036A090AC918FFF73EFD071E2DD1FF2376005B001E40AB19303330361C70AE19240A74701FE0036AC909C918FFF72BFD071E1AD1FE23B6005B001E4075
:4019000001963036AE19301CFFF784FC019B000F240100072409EB18044330331C70230A7370230C240EB370F4700123EB70381C05B0F0BDF7B50F1E0190056806D1EE68B3
:40194000002E14D06B699E4212D310E0281CFFF7CBFE0124A04248D9431C02D10124644243E06B69041C3E1C984201D23DE00126341C6B6901349C4204D3012E01D8002408
:4019800033E00224019B211C1868FFF7ADFE002808D0012801D0431C01D1041C25E0B442E7D1ECE70122281C211C5242FFF733FF002817D1002F08D16A692B69023AEC60BC
:4019C00093420AD2013B2B6107E0281C391C221CFFF721FF0028EFD004E001222B7913432B7102E00128B9D00124201CFEBDF8B5061C0D1E0468012D01D802202EE06369FD
:401A00009942FAD2002A07D0111C0122201C5242FFF701FF002821D13068291CFFF764FE071E01D1002019E00128E6D0431C14D0201C291C0022FFF7EEFE00280ED123694F
:401A40005A1C05D001220133236123791343237163693D1E9D42DFD3E4E70120F8BD000070B5041CFFF767FC002855D12378032B4AD12379012B47D1211C8C2230310B1C3E
:401A80009200A21800251D7001339342FAD15522224B4120E254224B9218E254221CDE3BFF3B31320B701370231C6122323385261A7058707223B600A3551A4EA3551A4B6E
:401AC000E0541A4BE2542369B832FF32A354184A180AA054174A180CA054174A1B0EA354E3680132A354154A180AA054144A180CA054144A1B0EA354E36960785A1CE2624B
:401B0000012300F09DFF2571002160780A1C00F0E3FF431E9841C0B270BDC0462E0200002F020000150200001602000017020000190200001A0200001B0200001D02000073
:401B40001E0200001F020000F7B58269046807690423002A70D0394D2037AF426CD8FB05DB0D0091051C0193002B5FD1416901328261002907D122897B09934256D3002374
:401B8000AB61043358E063897A0A013B1A424DD1201CFFF7A9FD061E012E01D802234BE0431C01D1012347E06369984238D3009B002BE4D0281C6969FFF7BCFE0723061E75
:401BC0003AD00128EAD0431CECD0201CFFF7B3FB0028E7D18C22231C92003033A2180021197001339342FAD1201C311CFFF71DFB0023E06200936389009A9A420DD201230F
:401C0000201CE370FFF772FB0028CBD1009B01330093E36A0133E362EDE7E36A9B1AE3626E61201C311CFFF700FBA861019B2F613033E4180023EC61181CFEBDFFFF1F0052
:401C4000F7B5041C036801930B782F2B01D10131FAE75C2BFBD00023A3600B780D1C1F2B3DD8231C80222B331A70201CFFF79DFD99E02021197001339342FAD1002208205E
:401C8000131C591CEB5C202B2FD86D18002A78D0621CD17FE52901D1E039D17700222021261C994252412B3692003270201C2768FFF77BFD002837D03378002859D15B0772
:401CC00071D4A379DB065AD5019B18782369D905C90D019B30315918FFF7EFFAA060231C221C203300932B32C3E72F2B05D05C2B07D102E05C28C8D10131685C2F28F9D1AC
:401D0000FAE72E2B3FD082423BD25EB2002E02DA254E803BF35C0026244FBF5D002F38D001369F42F8D12CE0381CA169FFF70DFB0028C1D1E1690B78002B18D03F23CA7A7D
:401D40001340A3710823CA7A1A400BD100988B5C805C181A0A2A02D1002803D1ACE701320028F3D0201C0021FFF7EEFEA2E70420A2E7042817D1034215D1013013E0052019
:401D800011E006200FE00B28FBD008220B200B1C77E71E1C613E192E01D8203BDBB2009EB3540132F3E7FEBD2BC30100ABC3010070B5051C0668FFF7F8FC041E10D1301CAC
:401DC000A969FFF7C2FA041E0AD1EB691B78E52B0AD0002B08D0281C0121FFF7B5FEECE7042C17D1033415E0301CA969FFF7ADFA041E0FD1EB691A1C203200211970013371
:401E00009342FAD1291CE86920310B22FFF74DFA0123F370201C70BD1FB5019003A8141C00910391FFF70DFA0B22002817DB0D4B8000C1581A1C002901D000230B70019BBD
:401E4000002B01D00021197013501A1E07D00022012C04D1684601A9FFF7D8FA021C101C04B010BD24060020F0B591B0041C03910920002C00D1EFE03F261640151C03A8CB
:401E800004A9321C0093FFF7C1FA8446002800D0DFE0049B05AF381C03990593FFF7D0FE8446031E07D1373302AA9B181B787F2B01D906239C461C231D4259D06346002B7A
:401EC0000ED0042B03D1381CFFF772FF84460123009A136007331E436346002B08D0B8E01123BA791A4200D0ADE06B0700D5A6E0330747D50025FB699D73DD731D745D74DE
:401F0000FB699D75DD751D765D762023FA69D372049B0193FB690293019B02991878FFF7CCF92A1C009002990198FFF7D4F90122FB691D775D779D77DD77049BDA70009A33
:401F4000AA421FD0DB6A111C381C2A1C0193FFF74EFD8446A8427CD104980199FFF7F5F9009B049A013B8446D360A8420AD070E06346002B6DD1BB79DA0662D4AA0701D521
:401F8000DB0760D4330701D540231E43049DFF69EB6A676223622878391CFFF78EF9A060381C1C30FFF736F92560E060EB88271CA38000238A2228376374E36163613B1C52
:401FC00092002674A2180021197001339342FAD1B3063AD5E6688E4237D066616D89A1686D02AE4210D92068FFF77EFB0223011E9C46012903D901304242424194466346A4
:40200000761B002BEDD001E000239C466346A161002B1ED1F30518D0049D281CFFF705F902239C46002814D0760A8219E2616878391C013B00F0CAFC002808D105E008231A
:4020400006E0042304E0072302E0002004E001239C4600236046236011B0F0BDF0B51F1C002387B001913B6005A9051C161CFFF700F9002800D09EE0687C002800D09AE07C
:402080002B7C0730DB0700D495E0EB686A69341C9B1A9E4238D91C1C36E06B69DA0578D1059A56895A0A013E324002922FD0059BA969181C0393FFF7B8F8002831D0029BA3
:4020C000660AC3180093002E43D0039B029A5B89B2189A4201D9029A9E1A039B01995878009A331C00F072FC00281ED12B7C7F2B20D87602019BA41B9B1901936B699B197D
:402100006B613B689B193B60002CC6D152E0002B01D1A86803E02868A969FFF7E5FA012801D8022002E0431C02D10120687442E0A861BCE7EB69009A981AB042D9D2291C00
:402140008022019B4002181828319200FFF7ADF8CFE7EA69009B9A4219D02B7C7F2B0CD9291C039B28315878012300F069FC0028DBD17F232A7C13402B74291C059B2831B9
:402180005878009A012300F021FC0028CDD1009BEB616B69261CD9058023C90D9B005B1A9C4200D91E1C283169180198321CFFF77CF89FE7201C07B0F0BDF0B51F1C002315
:4021C00087B001913B6005A9041C151CFFF751F8002800D0BBE0607C002800D0B7E0237C07309B0700D4B2E06369EA189A4250D2DD434EE06369DA0500D092E0059A5689DC
:402200005A0A013E3240029246D0237C7F2B65D8059BA169181C0393FFF707F8002850D0029B6E0AC3180093002E66D0039B029A5B89B2189A4201D9029A9E1A039B019997
:402240005878009A331C00F0FBFB00283DD1E369009A991AB1420CD2201C8022019B4902591892002830FFF720F87F23227C134023747602019BE2689B1901936369F3184A
:402280006361934200D2131CE3603B68AD1B9B193B60002DAED10CE0002B04D1A168201C00290CD101E0201CA169FFF743FB011E05D14022237C00201343237447E00129F5
:4022C00001D1022002E04B1C02D1012060743EE0A368A161002B98D1A16096E7211C059B28315878E269012300F0AAFB0028ECD17F23227C134023748AE7E369009A934257
:402300000DD06369E268934209D2211C039B28315878009A012300F059FB0028D5D1009BE36163692E1CD8058023C00D9B001B1A9D4200D91E1C2830321C20180199FEF7B5
:40234000B4FF8022237C52421343237492E707B0F0BD73B5041C0E1E0A2E02D10D21FFF7F8FF6368002B14DB5D1CE3181E733C2D0BDD211C2A1C01AB20680C31FFF71DFF30
:40238000019B5D1B6B1E9D416D42A36865600133A36073BD426813B5002A02DA012040420DE0011C041C0C31006801ABFFF705FF0028F3D16368019A9342EFD1A06816BD6A
:4023C00073B501A9051CFEF754FF041E3CD12B7C5A0639D55BB2002B0EDA291C019B28315878EA69012300F02BFB012400282BD17F232A7C13402B740198296AFEF7A5FF5F
:40240000041E21D120226E6AF37A311C1343F3722868AA68FEF75FFFEB6801981A0A337772771A0C1B0EF3770123B277B475F47534767476B474F474C370FFF711FB40220E
:40244000041C2B7C93432B74201C76BD13B5041CFFF7B6FF002806D1201C01A9FEF709FF002800D1206016BDF0B5061C171C051C002485B00191019B013B9C4212DA03AB9A
:40248000381C02A90122FFF7E9FD039B012B09D102AB1B780D2BEED001356A1E137001340A2BE8D10023201E2B70984200D0301C05B0F0BD0EB40022F0B5A2B027AB40CBD4
:4024C0000F901092119206933178002900D1F7E0252901D0013675E07478302C03D1F31CB478012707E02D2C02D0B31C002702E00227B478F31C00220292221C303A1E1CD5
:40250000092A08D80A2202994A431419303C02941C780133F1E72022211C91430A1E4C2A03D1483A1C7817430136002C00D1C7E0221C613A231C192A01D8203BDBB24F2BBF
:4025400015D008D8432B38D0442B44D002220392422B42D03AE0552B3DD0582B34D0532B34D1069B1D681A1D06922A1C01E0082232E0531B0132511E09780029F9D11C1CA0
:40258000BA0709D4029A5C1C934205D20FA82021FFF7DFFE231CF5E72978002904D00FA80135FFF7D6FEF7E7029B9C428CD20FA82021FFF7CEFE0134F6E7069B19681A1DA6
:4025C0000692C9B20FA803E0102205E0211C0FA8FFF7BFFE78E70A220392069A790705D5111D06911568442B0FD109E0442B03D1131D0693156803E0131D0693156804E046
:40260000002D02DA08236D421F430023281C0399049304F03DFB6B4601911B79281C0399059304F0AFFA019B051C092B07D92723782C00D0203B059A9B18DBB20593049BA3
:40264000049901330193059B07AA30335354002D04D0019B202B01D0019BD7E73B0706D52D23019907AA53540B1C013301933025FB0700D4103D019CBB070BD4631C03936E
:40268000029B9C4205D20FA8291CFFF762FE039CF2E7039C019B0FA8013B0193019A07AB995CFFF756FE019B002BF3D1029B9C4200D309E70FA8291CFFF74BFE0134F5E79B
:4026C0000FA8FFF767FE22B0F0BC08BC03B0184770B5051C00200E1C2C1C03F0ABFE03F081FA20700134A31BAB42F8D1012003F0A1FE70BD37B50A4C6B46DD1D281C012126
:40270000FFF7E6FF2B78FF2B05D06420013C02F09BFA002CF0D1201C441EA0413EBDC0468813000007B5012002F08EFA6B460121D81DFFF7CDFF07BD13B5012002F084FACE
:402740006B460121D81DFFF7C3FFFFF7D3FF041E02D1FFF7E7FF00E00124201C16BDF7B5FA25071C0E1CAD0001AC201C0121FFF7AFFF2378FF2B0DD023780020FE2B10D151
:40278000381C311CFFF7A4FF201C0221FFF7A0FF012006E06420013D02F056FA002DE3D1EAE7FEBD38B5051C0C1C002003F042FEA1B2281C03F00AFA052002F02FFA0120FB
:4027C00003F038FE38BD30B543B285B0041C0D1C002B07DA37200021FFF7F5FF01283BD87F231C400C2C0ED1402302A8234303702B0E43702B0C83702B0AC3700571952312
:40280000002C0DD008E0FFF78DFFFFF795FF031CFF20002B20D0E7E78723082C00D0863B06214371FFF7BEFF642002F00DFA6B46DD1D0C2C03D1281C0121FFF749FF142467
:40284000281C0121FFF744FF287843B2002B03DA013CE4B2002CF3D105B030BDF7B5071C0E1CFFF747FF041E21D001AD281C01212E70FFF797FF642002F0E6F90124FD2E8C
:4028800015D08021381C8900FFF78CFF642002F0DBF9281C0221FFF71BFF281C211CFFF717FF1F2328781840053844424441201CFEBD00000123002801D1024B1B78181C3B
:4028C0007047C046CC00002073B50324002874D13B4802F0B9F9073401AD013C281C0121E4B2FFF7F5FE002CF6D1201C211CFFF76AFF061E012E01D000244AE0D5210820E6
:402900004900FFF760FF01281AD1281C0421FFF7DFFEAB78012BEFD1EB78AA2BECD1FA24A4008021A920C905FFF74DFF011E22D0FA20013C800002F087F9002CF1D1DBE75F
:40294000A920211CFFF73FFF012802D9351C341C01E0A9250224FA26B600281C0021FFF732FF00281FD0FA20013E800002F06CF9002EF2D1C0E73A20FFF725FF0028BBD13A
:40298000281C0421FFF7A4FE2B780C245B0600D404240C4B1C70604244410B4BE4B21C70FFF7C0FE09E0802110208900FFF70BFF4342584140420440EBE7201C76BDC04642
:4029C000102700002C060020CC00002070B51D1C01230E1C191C002801D1174909780320194228D1154B1B781B0700D452020124AC42A44164421134201C111CFFF7E3FECF
:402A0000002812D18021301C8900FFF7A8FE002805D08023013D9B00F618002DF2D1122C03D10C200021FFF7CEFEFFF77BFE2B1C5D1EAB41D8B270BDCC0000202C060020CF
:402A400070B51C1C0123161C0D1C1A1C002801D11F4A127803201A4238D11E4B1B781A0700D47602012C0CD11820311CFFF7ABFE002826D1281CFE21FFF7F0FE44424441C7
:402A80001FE00622134203D09720211CFFF79BFE1920311CFFF797FE002812D1281CFC21FFF7DCFE002805D08023013C9B00ED18002CF3D10020FD21FFF7D0FE002800D18F
:402AC0000124601E8441FFF72DFEE0B270BDC046CC0000202C0600200123F0B51C1C85B0002801D12B4804781C400326002C4ED1151C01290CD0002904D0B14243D180237D
:402B0000136041E0FFF718FE44424441E4B23BE0211C0920FFF757FE041E01D0012433E068461021FFF71BFE0028F7D06B466A461878517A8009DB79127A012808D13E30EB
:402B400003401E04120201368A18B118890218E09B009209D2186B469B79314033409B02D3186A4657790F2217406A46927A4E00D0093A1802329119C9B2093901338B408F
:402B8000191C296000E00424FFF7CCFD261C301C05B0F0BDCC00002010B503F07BF80123054C2360FDF728FCA060E160FDF728FC206103F075F810BD3006002008B503F06C
:402BC0006FF8044803F04EF803F064F80022024B1A6008BD992B0000300600200022024B18681A607047C0463006002008B503F057F803F049F808BD30B5044B9C68DD68E1
:402C00001B69046045600B6030BDC0463006002008B502F051FEC043C0B202F041FE022002F012FE08BD000010B502F0B7FD054B1A781C1C002A02D1034802F01DFE0123C8
:402C4000237010BDB81B0020112C00004100FA2008B5800003F096FF02F0D0FD02F0E2FD08BD10B5041C02F0BBFD201C02F018FE10BD0000114A70B51368002B15D11C1C6B
:402C80000825012626406408002E01D00C4E7440013D002DF5D19E00151D7451802401336400A342EBD1012313604140C9B289005118030A4868584070BDC04648060020C3
:402CC0002083B8ED38B5041C101C6518AC4204D02178FFF7CFFF0134F8E738BD031C413B052B02D83738C0B205E0031C303BDBB2092B00D8181C7047002330B500250024E4
:402D000003808460C5604360038243824361037630BD000070B5061C8EB0081CFFF7DEFF8E4D031E3C2B12D13B3B301C2B70FFF7E3FF00208A4B18708A4B18708A4B1870E2
:402D40008A4B18708A4B18708A4B187003E128780138092879D803F00BFF0509141D292D313540440F2B00D984E073E00024212B01D11E3B12E0301CFFF7BEFF2C7002206D
:402D8000E9E00F2B7AD9301CFFF7B6FF002303202B70E0E000243A2B02D1353B2B7057E0301CFFF7A9FF2C700420D4E00F2B00D987E072E00F2B00D99AE089E00F2B00D954
:402DC000ADE09CE00024402B01D1373BE6E7301CFFF792FF2C700720BDE00F2B00D9B4E0A4E03E2B2AD1B36863490093338A72680193738A04A80293F36806F027FF01220B
:402E0000012152425D48FFF75DFF041C04A806F054FF221C011C04A8FFF754FF0121021C5748FFF74FFFC34372690020934202D10123337606E030760A2003E0301CFFF70C
:402E40005BFF092000232B7085E0301CFFF754FF002080E03288424913439BB233800A780132D2B20A70042A01D1022396E71B013380EDE7002301202B706CE0726839497D
:402E800013430A7873600132D2B20A70022A01D1042383E71B017360DAE7B268334813430278F1680132D2B2B3600270102A01D1062373E71A0F090111431B01F160B36067
:402EC000C6E7301CFFF718FF002305202B7042E0328A274913430A789BB20132D2B233820A70042A01D1072358E71B013382AFE7301CFFF701FF002306202B702BE0728A93
:402F00001C4913430A789BB20132D2B273820A70042A01D1082341E71B01738298E7301CFFF7EAFE00230A202B7014E072690E4913430A7873610132D2B20A70082A01D1E5
:402F40000A232BE71B01736182E7301CFFF7D4FE002308202B70C0B20EB070BDBE1B0020BC1B0020B91B0020BA1B0020BB1B0020BD1B0020BF1B0020BAC30100D0C301008F
:402F8000A4CE010070B58AB0041C0D1C68461F4906F05CFE0122012152421D48FFF792FE061C281C06F089FE321C011C281CFFF789FE0121021C1748FFF784FE1649C24342
:402FC00005A806F043FE201C144906F06EFE6946201C06F05DFE201C114906F059FE291C201C06F055FE201C0E4906F051FE05A9201C06F04DFE0C49201C06F049FE201CFC
:4030000006F05BFEC0B20AB070BDC046CBC30100D0C30100A4CE0100D2C30100D7C301003CC50100D9C30100DBC30100031C413B052B02D83738C0B205E0031C303BDBB25B
:40304000092B00D8181C70470023038043600381C36043810361037570470000F8B5041C081CFFF7E3FF6D4D061C28780023092800D9D0E01F1C03F07BFD051A1D2730397E
:40308000424B575E201CFFF7DFFF654B01221F70644B1F70644B1F70644B1F70644B1F70644B1F7000233C2E00D0B4E04EE00F2E5BD84DE000270323212E2DD0201CFFF79F
:4030C000C3FF2F700223A6E00F2E51D9201CFFF7BBFF00232B7003339DE00F2E57D9201CFFF7B2FF00232B70043394E00F2E5ED9201CFFF7A9FF00232B7005338BE00F2E5B
:4031000064D9201CFFF7A0FF00232B70063382E00027402E02D108232B700AE0201CFFF793FF2F70072376E00F2E6ED85EE03601268000236FE03E2E03D1012323750023FE
:4031400003E0201CFFF780FF092300222A7062E02388334A1E43B6B2268013780133DBB21370042BE3D10223D6E72B70012352E063682D4A1E43137866600133DBB213703D
:40318000082B01D10423C7E736016660D1E72389264A1E431378B6B20133DBB226811370032B01D10523B7E736012681C1E7E368204A1E431378E6600133DBB21370082B7B
:4031C00001D10623A8E73601E660B2E76389184A1E431378B6B20133DBB266811370032B01D1072398E736016681A2E723690D4A1E43137826610133DBB21370082B01D173
:40320000092389E73601266193E7201CFFF71CFF00232B700833D8B2F8BDC0464C0A0020C21B0020C01B0020C41B0020C11B0020C51B0020C31B0020F0B5474B85B01B78C9
:40324000002B2BD002F07EFB0021884202D002F071FCC1B2414D2B78002B00D179E0002900D176E03E4C201CFFF7F8FE237D002B6FD001F0ABFE3B4EF060FDF7C1F83A4BF7
:403280006268D880726022895A80E268B26062899A800122354B1A70002349E0344C677D002F56D1334DAB7C012B52D102F04AFB00284ED002F03EFCC1B2002949D02E4E31
:4032C000301CFFF727FD327E012A42D133782978237099422ED1B068F168284B62751A801D4BAF745F70778AA060E1603B0AA374328A766822822775E674012B16D100F03D
:40330000B5FBA668E768238A039300F05DFE041C00F0B0FB0422C0B2E3B200900192301C391C039A01F054F800F05AFE2B7801332B700EE0013399420BD1B068F168738A6B
:40334000A060E160A374338A23820C4B1A800C4B1F8005B0F0BDC0464D0A0020001C0020E81B0020201C0020641C0020611C0020081C0020D01B0020401C0020381C002096
:40338000621C0020064A53780133DBB25370032B05D10023034953700B8003498B7470474D0A0020381C0020D01B002008B502F09BFA094802F0A6FA0849012001F018FD78
:4033C0000122074B5A750022064B9A7402F0C8FAFF22054B1A7008BD3932000085330000081C0020D01B0020C81B002070B5164C9EB0A37C154D002B02D06B7D012B21D1C6
:4034000000F038FB00266378E07022790093A378C0B201930290331C0D49039611A806F015FC227811A904A8FFF7ACFD04A802F095FB302002F0BEFA01233220A3746E7502
:4034400001F0ECFB1EB070BDD01B0020081C0020DDC30100014B58707047C046D01B0020014B18887047C046381C00200A4B1A7D012A03D1094A9278002A03D0084A12786F
:40348000FF2A03D10022FF201A7504E00022FE2002491A758A707047081C0020D01B0020C81B00200023044A9370044A1375FE22034B1A707047C046D01B0020081C0020F0
:4034C000C81B00200122044B9A700022034B1A75034BFF321A707047D01B0020081C0020C81B0020014BD87C7047C046081C0020034B002802D001221A7100E01871704785
:40350000D01B002030B5051C141C9BB00B1C2A1C0DA8084906F09AFB0DA9221C6846FFF731FD684602F01AFB302002F043FA1BB030BDC046F8C3010030B5CB1A039C821A88
:403540009BB2049D226099B2002A09DA08B2002801DC29800FE0084901325B182B8009E0002AF6D008B20028F3DAFA2189005B182B80013A226030BD18FCFFFFF0B50D1CB6
:40358000041C87B0171C04AA49881E1C2B88009203AA019222684068FFF7CEFFA988EB880E2505AA6D4400920195A068E268FFF7C3FF059A049B29889B186A469289164C16
:4035C000891889B28AB210B2A04202DD0133134A05E0134CA04204DAFA22013B92008A1892B212B2D10F8A180E49521092B2194004D502200139404201430131012902D105
:40360000F532FF3292B2D90FCB185B1012B23B60326007B0F0BDC046E703000018FCFFFF19FCFFFF01000080F0B587B002F098F90122062500247C4B7C491A700A700193D8
:40364000FCF7DAFE7A4E3060FCF7DAFE794B81B2012230681980FFF755FFFCF7CDFE071CFCF7CEFEFA239B00C618B6B2FCF7C8FEB0421DD2012C1BD06F4B1A78002A09D028
:4036800000221A706D4B1A8801239A4200D11C1C019A1370FCF7B0FE002901D1B842E5D9674B9E42E2D9674B0137F618B6B2DDE7013DADB2002D02D0012CC1D102E02E1C91
:4036C000012C01D105250626002702230193002E0BD101970026012C5DD1381C052103F0E1FA31300190062655E0002DF1D0FCF783FE4F4C2060FCF783FE4E4B81B2019A7F
:4037000020681980FFF7FEFEFCF77AFEFA23DB00C01883B20293FCF76FFE00240390FCF76FFE029B984230D2012C2ED00024424B1A78A24214D01C70404B019A1B88934221
:403740000BD1062605AB3A483A4904AAFFF716FF059B013DEDB2FF1801340122324B1A70FCF74AFE002902D1039B9842D7D9344B029A9A42D3D9131C324A944663449BB265
:403780000293039B01330393C9E7019B013E0133B6B29BB29AE70122234B1A700293002E3AD00020019B021C594289B2FFF7AAFEFCF722FE071CFCF723FEFA2300249B00BB
:4037C000C518ADB2FCF71CFEA8421DD2012C21D00024194B1A78A24208D01C70174B029A1C880123604244411370A4B2FCF704FE002901D1B842E5D9114B9D42E2D9114B67
:403800000137ED18ADB2DDE7012C03D0013EB6B20024C4E70026C2E7601E441EA041034B1E7007B0F0BDC046001C00204D0A0020201C0020641C0020611C0020E81B00206D
:40384000E703000018FCFFFF074B10B51C68E123DB00E41801F0BAFB0123002902D18442A4412340D8B210BD341C002008B501F0ADFB014B186008BD341C0020F0B5051C26
:40388000A1B0952D00D88DE002F070FA02F048FA0024061C02F038FA2F1B962F06D802F025FAA54200D87FE0381C7BE0AC42F6D8FFF79CFD00F056F93C4C002802D1238833
:4038C000012B2FD12388002B0ED114A800F072F918A96846202205F0EAFC14981599169A179B00F081F907E008A800F091F914A808A9302205F0DBFC14A800F0CDF90028E8
:4039000004D000F0BDF90123238000E0208000F061FB071C00F0AEF8F9B2C2B2042314A800F0C2FC02F030FA071E03D1FDF7C2F8381C03E00120FDF7BDF8012000F0E8FD57
:40394000FFF78EFD012804D10020FDF7CBF8002003E00120FDF7C6F8012000F0EFFDFDF7EBF800F087F8FDF7D9F900F007FEFDF713F900F081FC00F087FC6368071C83428A
:4039800009D00021FCF7E8FE381C002101F008FD6760FFF797FD962001F040F902F0BAF9341A79E701F03AF921B0F0BD500A002008B500F065F9C0B24342584108BD0000C9
:4039C0000C220B4BDA800B4B0B4ADB67DA600B4ADA610B4ADA620B4ADA630B4ADA640B4ADA650B4ADA660B4A13600B4A1360704740200020382400204824002058240020E8
:403A000068240020782400208824002098240020A8240020BC240020B824002030B50D1C041C06490B681C605D601A81DB68044A0B6013680133136030BDC046B8240020BD
:403A40003820002030B5074A13681C890C801C685D68DB68046045601360034A1368013B136030BDBC2400203820002008B5FFF7D5FF08BD014B18687047C04638200020BB
:403A8000302358430F4B30B518180468456802694369018B121BAB41048902624362091BFA2489B20185A400A14208D901246442E51712196B4102624362494201850120FA
:403AC00030BDC046781C0020F7B5104C061C23880F1C0192142B01D100232380302321880B4D5943481908314919FFF7ABFF302320884343ED186B469B882E616F612B83C2
:403B0000FFF7BEFF238801332380F7BD3C200020781C0020074B08491B88002B04D1EC239B00CB18186804E03022013B5343CB18186A70473C200020781C0020074B084922
:403B40001A88002A03D1EE239B00C85A04E0531E30225343CB18188D7047C0463C200020781C0020014B18887047C0464020002084B070B50E4C0793049005910692238842
:403B8000E688B34210D23022A0880133451C50432018ADB2083004A92380A58005F087FBB54201D10023A38070BC08BC04B018474020002070B50B4C2588002D10D0302249
:403BC00061884E1C51436118B6B20831668005F06EFBE388B34201D100236380013D258070BDC0464020002084B008B505939223029006489B0003910492C01802A93022FA
:403C000005F055FB08BC08BC04B0184740200020922310B5041C04499B00C918302205F046FB201C10BDC0464020002070B5124B88B01E88114C002E0CD1E4239B00E51843
:403C40001033E1186846202205F031FBE4239B00E0580AE03023013E5E43A519291C68461031202205F023FBA05904350ECDFFF77FFF08B070BDC0463C200020781C00201D
:403C800008B5034803490122FEF7C6F808BDC046C02400209BC40100F0B5B3B0051C01F0A7FBC02292030240120D0A24131CF022634312030240120C9A18C300DB0F634388
:403CC000191C0F2703011B0FCB186A4907407F188104890F8C46FA2103936346890059437F18F021090101400B0A642100065943000F6043604E79180F180097301C5F4977
:403D0000039B05F0A3FF00235D4F311C3B605D4832223B1CFEF7A8F8061E00D0A7E000962A686B6806A801F065FA70200699C0220840000960430390F02000030840000C3F
:403D40008446F02092030A40120D624300010840000AE023624484460F20DB010B40014003981B0B4118634300912989634401910AA8454905F06AFF00962A696B6906A8E4
:403D800001F038FAC022069892030240120D6243E023111C7022DB010340024012091B0B63435443F02212030240120C8A18F02109010140090A5B180F21084024180094D1
:403DC000298B0FAE14AC0191301C2F4905F03EFF2B8D2A6A201C2D4905F038FF2C4D019400960AAB19A82B492A6805F02FFF2B68244C012B02D03B68012B28D101F0E0FA09
:403E00000A2743045B0F7B43191C8202920F7A4303051B0FCB180F21161C45066D0F7D43020308402818120FB21800901A49201CFEF740FB194D201C291CFEF73BFB184983
:403E4000201CFEF737FB201C291CFEF733FB19A805F033FF05AB021C19A9201CFEF7ADF9201CFEF7F3FA0A4A13680133136033B0F0BDC04630F8FFFF580A002001C4010054
:403E8000F0260020F426002012C401002BC40100D000002038C4010045C4010067C401009CC401000022F0B5434B9FB01A60434843490132FDF7D8FF404D09AC201C522123
:403EC0002A1CFEF7D1FA002870D03E4B1B680193019A2378D3185B785B07EDD50022002303A9535205A9535207A953520232082AF5D10121181CE55C019A521956780422A1
:403F000032401AD00A2248434019303880B201335143F0E73A2919D101240135EDB2013309A9595C019E7618777804263E40F1D13A29F1D0012C27D1013309A9C95C0A29ED
:403F400029D00D2927D000250124E9E7012A10D0002A0CD0022A15D1AE1C07AF760030398C46F15B4C43211C6144F1530AE003AF00E005AF6E00B446F65B30397443091981
:403F80006446E1530A24CAE7022A02D00132D2B2D2E7321CD0E703A905AA07AB00F078FA00F06AF9642000F039FE85E7281CFEF74DFA1FB0F0BDC046F0260020F426002086
:403FC000580A0020F0040020014B58687047C046D0000020014B186801387047D0000020024A5368013353607047C046D00000207FB5454B1B78022B00D083E00E22002123
:4040000001AC2281414D424AA38001920B1C201C2A1C12F0E7FF3F4E3368002B06D068782B7800021843211C12F04CFA322000F0F5FD07F02BFD12232381374B00210193DE
:404040000823201CA3802A1C0B1C12F0CBFF3368002B06D068782B7800021843211C12F031FA322000F0DAFD07F010FD162323812A4B002101930823201CA3802A1C0B1C7C
:4040800012F0B0FF3368002B06D068782B7800021843211C12F016FA322000F0BFFD07F0F5FC1A2323811E4B002101930823201CA3802A1C0B1C12F095FF3368002B06D076
:4040C00068782B7800021843211C12F0FBF9322000F0A4FD07F0DAFC1E232381114B002101930723201CA3802A1C0B1C12F07AFF3368002B06D068782B7800021843211CDD
:4041000012F0E0F97FBDC04675350020773500206C0A00201C2900202829002020290020562900203029002070B50C1C282808D002D8012805D066E041280AD04C280DD0B8
:4041400061E00020304B186001F08EFE02F046F859E001F0FFFFFFF74BFF54E08B89222B20D12A4D081D2A1C00211E3312F03AFF2A1C002816D163682549DD1C4860581E1C
:404180004B682E781B023343013D4B608542F7D1E12040011B1850784B6013780002184312F0EEF9A389252B12D1184D201D00212A1C1B3312F016FF002809D16368687868
:4041C0001A78134B00021A722B78184312F0D8F9A3890C22191C9143102901D0202B12D10A4D40232A1C201D002112F0FBFE636868781A7801231340034A000213602B7863
:40420000184312F0BDF970BD1C290020773500206C0A002030B5104B85B01B78022B18D101AC1C3323810D4B0021019307230C4DA380201C0B1C2A1C12F0D4FE094B1B68B2
:40424000002B06D068782B7800021843211C12F039F905B030BDC0467535002030290020773500201C29002008B5024801F0BAFD08BDC0462941000008B507F007FC032012
:4042800007F0FCFB08BD0000014B58687047C0466C0A0020034B187A002802D0002201201A7270476C0A0020F0B58BB0061C049300230392009306A832687368059100F069
:4042C00099FF069BC0251A1C0A24AD032A40120D6243171CF02212031A403849100C3A180A80E022D2011A40120B6243171CF02212011A40100A3A184A8070220F271A4036
:40430000120962433B40D3188B80338906A8CB80002300933269736900F06CFFF023069A1B0315402D0D654313401B0CED18E023DB0113401B0B6343214917400D801D1C03
:40434000F0231B011340180A2B184B80702313401B096343DB198B80338B356ACB80281C716A3C22002302F007FE0022154B80B21A803C32588050432D1A9D80328D0398B8
:40438000DA806A46104B928A211C1A8002F0FAFB0E4D211CE870039802F07AFC04982971211C02F0EFFB211C6871049802F070FCA971FFF71DFE0BB0F0BDC0462829002062
:4043C00020290020562900206C0A002030290020F0B5061C00248BB00492321C0A26059310AB1D7811AB1B7806A8039300940B1C00F000FF069B21499A02920F7243171C17
:404400001A03100F3A180A805A04520F7243171C1A05100F3A184A800F225806400F70431340C3188B806B46154A1B8A148054809480D4806A46CB80124B928A1C805C8028
:404440009C80DC80104B311C1A80281C02F09AFB0E4C311CE070281C02F01AFC03982171311C02F08FFB311C6071039802F010FCA171FFF7BDFD0BB0F0BDC0462829002026
:4044800020290020562900206C0A00203029002010B5104C20800C880F4804804C8844808C888480C988C18010880C4908805088488090888880D288CA801988084A118016
:4044C0005988518099889180DB88D380FFF790FD10BDC0466C0A002028290020202900205629002038B5084C0123002800D00023064D23706A7A23789A4203D0FFF78AFEAB
:4045000023786B7238BDC046302900206C0A002038B5084C0123002800D00023064DA370AA7AA3789A4203D0FFF774FEA378AB7238BDC046302900206C0A002038B5084C3A
:404540000123002800D00023064D6370EA7A63789A4203D0FFF75EFE6378EB7238BDC046302900206C0A002008B501F0CDFE01F0D9FE022001F0E0FE08BD000008B5002080
:4045800001F0EEFE011C002001F0FAFE014B186008BDC0466029002008B5002001F0ECFF012001F0E9FF022001F0BCFF0022024B1A705A7008BDC046780A00201FB505F046
:4045C000E1FA3C2102F054FC1E31CCB2221C084901A805F03BFB01A8FCF740FA002001F067FF6420604301F069FF01F08DFF1FBDBBC4010038B501F0CBFF164D0023002815
:4046000001D1AB780133AB70AB78134C032B15D9FFF730FA002806D0EB78002B03D10F48FCF71CFA13E02078012303280ED000280DD102232370FEF75BFF08E02378012B44
:4046400001D1002302E0022B01D101332370207838BDC046780A0020D8000020BEC4010010B5124C6378032B05D1FEF73BFF012801D1607018E06378002B04D1FEF732FFF8
:40468000022300280FD06378012B04D1FEF72AFF0023012807D06378022B05D1FEF722FF002801D103236370607810BDD800002038B5FFF79FFFFFF7D3FF2C4C2378012BA5
:4046C00002D06378012B19D10120FCF741FB0120FEF70EFF0022264B1A7001325A70DA706378934204D12278032A07D1237005E0032B03D12378012B00D163706378022B0F
:4047000019D101F0C7FE0020FCF722FB0020FEF7EFFE0022164B1A705A70DA7062782378022A04D1022B06D00323237003E0022B01D1032363706378002B15D12378002BC7
:4047400012D10B4C2578002D0ED1FFF793F900280AD06378002B07D0FFF730FF054801F0F7FE01236570237038BDC046D8000020780A0020994500000122014B5A707047AE
:40478000780A002010B5FEF79DFEFCF7F5FAFBF729FEFEF70BFEFEF711FAFFF711F9FFF7E3FE62B6FBF732FE041E17D0002100F0F7FDFFF7FDF8041E012C03D10D48FCF794
:4047C0004DF915E00C48FCF749F90020FEF742FE96204000FFF752F8002409E00748FCF73DF9201CFEF736FEFA204000FFF746F8201C10BDCAC40100D9C40100EAC401000D
:4048000010B50A20FEF722FAFEF72AFE002803D11448FCF723F922E01348FCF71FF9FEF703FF041E0ED11148FCF718F9FEF73AFE201CFFF757FEFFF719F8FA20C000FFF7AC
:404840001DF80CE00A48FCF709F9FEF73BFE0120FFF748FEFA20C000FFF710F80124201C10BDC046FAC401000AC5010017C501001FC5010038B5FFF775F907280FD9FFF7AA
:4048800071F90C280BD82948FCF7E8F80020FEF7E1FDFFF7EFF8041C601E844130E0FFF761F90C2807D92148FCF7D8F80020FEF7D1FD002424E0FFF7DDF803280AD91C4818
:4048C000FCF7CCF80020FEF7C5FDFA204000FEF7D5FF14E0FFF7CEF8164D041E09D1281CFCF7BCF80120FEF7B5FD201CFEF7B9F906E00120FEF7AEFD281CFCF7AFF80124B8
:40490000FEF7B4FDFF2800D1041CFFF7C3FC002801D0FFF7C7FAFEF797FF012801D1FEF7D1FDFFF7C5FE201C38BDC0462FC501003EC501004FC5010010B50120FEF791F9A8
:40494000FEF74CF9041E012C07D10748FCF786F8FA204000FEF792FF03E0FEF747F9FFF70BFF201C10BDC0465CC501001FB50120FEF770FD0A20FEF769F91048FCF76EF864
:40498000FA204000FEF77AFF02A801A9FEF734F902980399019B9AB2FFF796F8FFF746F9FFF7B8F8041CFFF7C9F881B2201CFCF785F9FA208000FEF761FF1FBD6BC5010089
:4049C00010B5FCF72DF8FEF72FF9FFF7DBFE0028FBD0FFF749FC0023154C23702078032821D802F0C5F80209141CFFF709FF114B1860002817D114E0FFF73CFF0D4B18602C
:404A0000022301280ED00023FF280CD10AE0FFF793FF084B18600323012802D102E0FFF7A5FF01232370FA204000FEF727FFD5E7642900207C0A0020FEE70000031C10B544
:404A400080240849084A08686400C3189A1AA24201DC0B6005E004F0EFFB0C2303600120404210BDDC0000208835002070B51049104B01394A1C15D000221E685C689D68F3
:404A8000A018AA4203D0B058A0500432F8E7021CDC68151AA54202D0002520C2F9E710330139E7E704F0CEFBFFF78AFFFEE7C0460100000044D0010001210E4A10B51368FF
:404AC000141C8B43136000239A000B49032B01D80A4989580A4801338150302BF4D1FBF79BFA0022074B1A60236801321343236010BDC04600001040394A000000000000D0
:404B000000000020C0000020054A1368002803D0802109060B4301E05B005B081360704780033A4010B5041C86B001F042FD0E4B0E491A6802AB02920D4A126803920D4A71
:404B40001419033C227804920B4A126805920B4A00926A4601930A4B1A600A4A11601B6801F02BFD06B010BD08010B401700008000010B404CC6010030001040B6EA0000EB
:404B800008001040040010401F2800D901BE034B8000C318186819607047C0464000002038B5041C0D1E032D00D901BE1F2C00D901BE01F0FEFCA308074A9B009B1803226E
:404BC000144094400634A240A540196891432943196001F0F2FC38BD00E400E01F2318401E3B8340181C014B1860704700E100E01F2318401E3B8340181C014B186070472F
:404C000080E100E01F2318401E3B8340181C014B1860704780E200E001BE704710B5041C8022074B1202944205D9186801F0B8FC044BE418F4E75868604301F0B1FC10BD5C
:404C4000E00000200080FFFF08B5034B1B7A584301F0A6FC08BDC046E000002001210F4A10B51368041C0B43802113600C4A0D4B09021A600C4A13680B431360002801D121
:404C800000200AE00120FFF7DFFF084B1B68DB07F6D4013C002CF5D1102010BD60F02E400220000078002E4010002E400C002E4001200A4A136883431360022311689943E6
:404CC000116007492E330A689A43203B1A430A6007220B68934303430B60704700F02E4000FF2E4008B5FFF7E3FF8021024A090613680B43136008BD00F02E400122124B0C
:404D000070B51C681440002815D0904216D1022507261968A94319600C490A68B2432A430A600A682E35AA43103D2A430A601A681043186005E0FFF7BBFF02E00020FFF723
:404D40006BFF201C70BDC04600F02E4000FF2E4008B501F02EFCC021034A090213680B43136001F02AFC08BD00010B4010B5802401F01FFC0749084B0A68E4011A402243EC
:404D80000A600A6813408022120213430B6001F014FC10BD00010B40FF3FFFFF70B5051C01F007FC0E4B041C1A68C0231B02134011D10C480C490540281C0E680B4A32401E
:404DC000104308600A68012B01D1FFF7C1FF201C01F0F3FB70BDFFF7C9FF0123E9E7C04600010B400404040010020B40FBFBFBFF08B5022805D8054B80001B18986999616B
:404E000003E00020FFF708FF002008BD800A0020042238B5224C2368134213D021494B6813420CD0204B5D6A48681540A8434860596A914359629B69002B00D09847042033
:404E4000FFF7ACFF80232268DB001A4215D015494A681A420DD0144A556A48682B4098434860516A114B0B405362D369002B00D098478020C000FFF791FF80232268DB0227
:404E80001A420CD0074A52681A4204D0064B1B6A002B00D098478020C002FFF77FFF38BD10020B40F0000020800A0020FFFBFFFF10B5041C830705D1642101F0E9FE012032
:404EC000002906D1C821201C490001F0E1FE4842484110BDFA2183049B0F8900594310B50C1C64210F2203051B0F4B430240E3189A180A230006000F5843101810BDF7B553
:404F00000F1CFA21061C8900101C151C01F0C0FE0C1C081C642101F0BBFE381C00910A2101F0B6FE381C0B040A21019301F02AFE019B07050A21301C1F4301F023FE00076F
:404F400007430A21301C01F0A3FE09060F43FA21281C890001F016FE000307436421201C01F010FE000207430A21009801F090FE00980F430A2101F005FE00013843FEBDB5
:404F800070B50C1C151C022901D80C34013DC821AB082E184900281CF61801F0F3FD64213618281C01F0EEFD0623584335181A2001340A21604301F0E5FD0721281801F026
:404FC00067FE002900D10731081C70BD014B186859687047882900200A4B30B59A68196852189A609A6859688A420AD301200021054A146855680019694110605160002257
:405000009A6030BDA80A002088290020F0B585B0041C0D1CFFF75EFF00220023071C009201933B4EBE4210D2301CFFF741FF002801D0384A00E0384A00230098019980182B
:405040005941013600900191ECE70A22E300DB0F5A43111C23011A0F8B185A1E2F495200565A022B05D9381CFFF722FF431E9841361800232A4803934643C0230296261C56
:405080000A21F0229B031E40360D4E43120314402B40240C1B0D34194B4344432A402148120C9B18261800279C462B0206D56B0204D563460B2B01D80C239C446904490F90
:4050C0000A220B1C3C2053432905090F5918484300230F216C06640F54430D40021C191C601980185941009C019D80197941E122664600196941029C039D1201564300190D
:405100006941341C1D1C0019694105B0F0BDC046B20700000085E2018033E1017AC601008051010080AEFEFFF7B58D02AD0F0A222B1C53430D032D0F5D19CB00DB0F5A4309
:405140000B011B0F071CD318081C0C1C0193FFF7C1FE391C0090201CFFF758FF064B074E18605960009A281C019937607460FFF707FFB060F7BDC046882900206C290020E2
:40518000012208B5074B08481A700023074A0849D360084AD360084A1370084A1360FFF7C3FF08BD6829002000161000A80A0020162009086C290020802900207C2900201C
:4051C00008B5034B1B78002B01D1FFF7D9FF08BD68290020064B10B51B18DC7D022805D1081CFFF765FE431E98412418201C10BD7AC60100F0B5161C634A89B01F1C634B4B
:405200000690019200251C1CAF420DD0019B361BAF410133181C0193FFF74AFE002801D15A4BEFE75A4BEDE79E42EFD80123594D0493002302950393574DBB420CD0029BA3
:40524000039CF61AA741049B01990133181C0493FFF7C0FF4543ECE7029BB342EFD9301C391C4D4A002301F087FE291C039B41431C1C8E425C4165420D402A1C039BB61A70
:405280009F41E122431C0793301C0023391C120101F072FE0023E121041C02930E9B09016143002B0ED0002F02D13C4B9E4205D9012302930C2C05D90C3C03E0002C01D161
:4052C00002940C3400230A1CBB4207D11D1C96425D41181C694211400A1C031CB61A9F413C220023301C391C01F046FE3C210023414305900A1CBB4207D11D1C96425D414C
:40530000181C694211400A1C031CB61A9F410799019A0498FFF7F3FD069B0E9A5860029BD2059B051343201C0A211F1C01F02AFC000507430A21201C01F0AAFC3C1C0904B5
:405340000C4305980A2101F01DFC000304430A21059801F09DFC09020C43301C0A2101F097FC301C0C430A2101F00CFC069B000104431C6007980499019AFFF701FE069B8A
:40538000986009B0F0BDC046B20700008033E1010085E20180DE280080510100C1A800007FB5021C0B1C054902A80A604B6000210091FFF71FFF07B000BDC046882900207B
:4053C00037B5084D084CE8680025291C074B1A685B68009512184B41201CFFF70BFF20683EBDC046A80A00206C2900208829002037B5084D084CE8680025291C074B1A683C
:405400005B68009512184B41201CFFF7F3FE60683EBDC046A80A00206C290020882900208021054A08B5136809060B4313600A20FFF7D4FB08BDC0460000254010B5054CED
:405440002378002B03D100F01DF801232370FFF7E7FF10BDB80A002008B50A20FFF7C8FB00F06EF8054A0A2013685B005B0813600022034B1A60FFF7C5FB08BD0000254066
:40548000880F254010B50024194B1A4A1C601A4B0A201A60194B1A4A13601A4A14601A4A14601A4A13601A4B1C60FFF7A1FB0A200321FFF775FB17490A20FFF765FB1422BB
:4054C000154BFF321C60154B1C60154B1C60154B1A60154B043A1C60144BFF3A1C60144B1A70144B1C80144B1C60144B1C6010BD00002540770800806000254007010080C7
:405500000003254004032540100325400002254004022540C1650000C80E2540880E2540480F2540080F2540C80F2540880F254090290020A0290020B029002098290020E5
:405540001022014B1A70704790290020F8B5264C04222378102B44D10125244B92181B682B423ED1071C0A200E1CFFF741FBFF2378001840002E02D1DB3B237002E02523B6
:405580002843237002221A4B1A4918601A4B0B601A4B1A6008260B68FF36164D3342F9D004232A6813400DD10222286810420BD128680E32013322701A1C184204D18022FA
:4055C000520001E00022131C0E60002B09D080200B4900060B685B005B080B600B6803430B60101CF8BDC046902900206400254040022540000F2540170300006800254070
:4056000000002540202210B5184B042019781C1C11422AD0164B19681823114200D1083B144A13601221144AFF3113680B42F9D01368DB0606D401231068184204D1802019
:40564000400003E0002000E0181C031C116010222270002B09D08021084A090613685B005B08136013680B43136010BD902900206400254068002540000F2540000025407C
:4056800030B51A49021C0B7804209B062DD5184B1A600824174AFF3413682342F9D004231068034004D0602300200B70031C0FE002201568054202D060250D7008E0102040
:4056C000012315680870181C1D4201D1802040001460002B09D08021074A090613685B005B08136013680B43136030BD9029002040022540000F25400000254010B5184B7D
:405700001A78191C930626D5164B1A68520705D4154A14680222FF321442F5D004221B6813420BD0114B0F4C1B682260002802D10F490A6011E060220A700EE080210D4A89
:40574000094B09061A600C4A13685B005B08136013680B43136001235B42181C10BDC04690290020C00F2540000F25404003254068002540170300000000254010B50A20E2
:40578000FFF736FA0022044B0A201C88A4B21A80FFF724FA201C10BDA02900208022094B52021A600C220021074B1A60074B0A3A1A60074B074A1360074A1160074A136003
:4057C0007047C04600012040240120403801204088130000140120400C0120400801204008B500F0E6FE0121034A13688B43136000F0E3FE08BDC04600002040014B80B251
:40580000186070471401204038B50D1C041CAC4000F0CFFE024B1C6000F0CFFE38BDC0460800204010B5012400F0C3FE054A13682343136000F0C1FE201C1821FFF7E4FFC1
:4058400010BDC04600002040014B18607047C0463001204010B5041C00F0ABFE0449054A0B68A403134023430B6000F0A6FE10BD10E400E0FF3FFFFF10B58024054BA402BB
:405880001C60054B0833D8670320FFF7E3FF034B1C6010BD80E100E00000002000E100E01023044900010A689A43D2B2034013430B60704700030440024B1868C006C00F36
:4058C0007047C046040304408021064A08B5136809060B4313600920FFF780F900F014F908BDC0460000244010B5054C2378002B03D100F097F801232370FFF7E5FF10BD56
:40590000C00A0020014B58607047C046C00A0020094B0A491A680B6800209A420AD00B685A1C643B581E83415B421A40044B985C0A60C0B27047C046902A0020B8290020F0
:40594000282A0020044B1868044B1A681B68904200D26530C01A7047902A0020B829002008B50920FFF744F90B4B80211A680B4B49021A6000220A4B09201A70094B1A6840
:405980000A431A601968084A0A401A60074A084B1A60FFF723F908BDB8290020902A0020BC29002004032440FFFFFEFFED0F0000C00F244030B5144A144C1168236899429D
:4059C00008D1134B19681F230B40102B02D0114B186017E01368591C633B5D1EAB415B42194023689942FCD002240B4BC0B21C600A4B58540A4B11601A68224202D11A6801
:405A000022431A6030BDC046C0290020942A00200802244040022440800F2440C4290020880F244038B51F4A00241F4B07201A60312204251D4B1E491C601E4B1A601E4B06
:405A40000B601E4908601E4902300C601D490A601D4A13601D4B1C601D4B1D60FFF7C8F809200321FFF79CF81A490920FFF78CF8194B1C60194B1C60194B1C60194B1C6061
:405A8000194B1D60194B1C601A68194B1A80194B1C60194B1C60194B1C70194B1C60194B1C6038BD0B0800020000244040002440000324404800244007000080040324401E
:405AC0001003244044002440000224400402244050002440E9680000880E2440C80E2440480F2440080F2440C80F2440880F2440C80A0020902A0020B8290020BC29002040
:405B0000C0290020942A0020064A074B11680B40902109040B431360044B1A88044B1A607047C04600000240FFFF0FFFC80A0020880F244008B5FFF705FF031C002083422C
:405B400001D0FFF7E5FED822034B92001968114201D000201A6008BDC00F244010B5041C0134631E1878002802D0FFF723FFF7E710BD0000F8B5061C082573B2124C002BD8
:405B800003DA10222368134302E0EF23226813400422236023680A201343236000F000FDFB232268013D134023600A207600EDB2054F00F0F5FCF6B2002DDED1EF233A6898
:405BC00013403B60F8BDC0460002044038B5041C4518AC4204D02078FFF7CCFF0134F8E738BD0000F8B5082600241022124D2B6813432B602B680C3A13432B600F4B1B688D
:405C00009B07DB0F012B00D11C430A2000F0C8FCFB232A680A2013402B60013E064F00F0BFFC6400002EE0D1EF233A68640813403B60E0B2F8BDC046000204400402044079
:405C400010B5041C00F0B5FC0449054A0B68A403134023430B6000F0B0FC10BD00E400E0FF3FFFFF10B50224044B1C60044B58640320FFF7E5FF034B1C6010BD80E100E0C5
:405C80000000002000E100E00222014B1A60704700E100E00222014B1A60704780E100E00222014B1A60704780E200E0A022084BD2021A600C22074B1A600022064B1A6092
:405CC000064B074A1360074A1360074A13607047400120406401204078012040E8FD0000540120404C0120404801204008B500F060FC0221034A13688B43136000F05DFCA3
:405D000008BDC04600002040014B80B21860704748012040014B186880B2704748012040014B186880B270475401204038B50D1C041CAC4000F03DFC024B1C6000F03DFCDD
:405D400038BDC0460800204010B5022400F031FC054A13682343136000F02FFC201C1821FFF7E4FF10BDC0460000204010B5054C2378002B03D1FFF799FF01232370FFF78E
:405D8000E3FF10BDCC0A0020024B1868012318407047C04604020440012304490A689A43D2B2034013430B607047C0460001044010B50024064B1C70064B1C70064B1C7024
:405DC00000F0BEF9054B1C70054B1C7010BDC0467A3500207635002079350020982A00206835002030B58BB0051C164904A8182203F05DFA144C0134E37F002B03D1FFF7AE
:405E0000D7FF0123E3770120002D18D00F4B10481D60062300930F4B0F4901936E23FF3302930E4A04AB05F047FE002807D101220B4B0C481A7026210E3211F0BBF80BB0C1
:405E400030BDC04600C70100CD0A00209C2A0020395F000000D70100A02A0020C80A00007535002000C90100021C10B50120022A2AD8164B1B78042B24D1154C217819422B
:405E800020D1144B002A05D1596A1F301A860880103009E0012A08D19621C8201986596AC00008808020C00148800B492033181C0A700FF0C5F9002806D104222378134391
:405EC000237001E00420FF3010BDC046753500207A350020F8000020793500207047437800781B021843704738B5838900250B2B1BD1041C291C0430221C353311F072F886
:405F0000051E0DD16068FFF7EAFF094B1B68820702D58220400001E00620FF30211C98470121044A13788B431370281C38BDC0469C2A00207A350020F7B50127714D041C5C
:405F40002B780E1C3B432B70272861D00FD8212850D007D8B8422CD0052800D0B0E00A78694B45E0242841D0262863D0A8E0422800D17FE014D828285AD0412800D09FE090
:405F8000624F0222381C03F092F90C223978604B514359186E31FF315E4803F088F98FE04C2873D0FA2800D186E0432800D087E064E0072301AF3B700023381C7B7007F07F
:405FC00018FA0723381C3B707C7007F012FA524F38688379002B00D080E0031C821D1978002918D101339342F9D177E04A784B4B1A7065E02B789B0662D449490B78102B63
:4060000001D10B3BCB70414B18780FF0E3F857E00222444BECE705F03DFD38680021FFF75DFF38680121FFF759FF00200EF0CAFF0422EEE73B4B19781A1C022940D02878FE
:4060400038423DD004202F78074204D003221A702B78834307E02B781B0706D50423137008222B7893432B702AE0032928D10423137025E00022254B5A70B9E74988162940
:4060800000D91721308810F00DFA19E0081CFFF72BFF2B783B4213D1002809D0122301A98B70B389C87030680B8010F0EFF907E0306810F065FA03E01B4A13781F431770DB
:4060C00011232A781A421CD001222B78201C93432B70164B311C1B68984712E0144B154F1B78381C3B70144B1B787B70134B1B78BB7005F0CFFC381C0021FFF7EFFE381C53
:4061000090E7F7BD7A350020763500207735002000D70100693500202C01002068350020C802002075350020982A00209C2A00207CF1FF0F300100207DF1FF0F7BF1FF0FF0
:40614000704700008023024A11780B431370704773000F407F23024A11780B401370704773000F40034B1B78DB0602D5024B1B78F8E7704763000F4053000F403F2110B560
:40618000104A114C13788B4336390B4313700122237813432370FF230C4A13700C4A13707F220C4B1A7000220B4B1A7000F001FA102223781343237000F0FFF9FFF7D2FF40
:4061C00010BDC04673000F4093000F4003000F4043000F4023000F4083000F4010B5054C2378002B03D1FFF7C9FF01232370FFF7A9FF10BDEE0A002008B50F200321FEF753
:40620000CFFC0F201D49FEF7BFFC01221C4B1A601C4B1B68002B01DB1B4900E01B491C4A8020136840020B4313601A4A1A4B1B491A601B4A1B4B1A6000231B4A13601B4AE1
:406240000A601B490A601B490A6802430A600121194A1360194A1360194A116019491A4A086802408020800502430A60174A1360174A1380174A184B1A6008BDC96300007C
:4062800020003A4080033A40700200517002105100003A408400008004003A4010003A400000FF0718003A401C003A400400040014003A4000033A4028023A4038023A4092
:4062C00018023A4030003A40FEFFFFDF80003A40803500203E1800007C35002008B5084B1A68002A0BDB074A1268002AFBDB80211A6809060A431A600A20FEF7A5FC08BDA4
:4063000000003A4008023A4010B5054C2378002B03D1FFF771FF01232370FFF7DFFF10BDEF0A00208021034A490213680B4313607047C04604003A4010B5041C0020A30779
:406340000AD0012205490B681340181E02D1A307F7D401E0101C0A6010BDC04610023A4008B5002804D00020FEF756FC002002E0024B186880B200B208BDC04680013A401F
:4063800038B5051C0C1C002802D00020FEF744FC0A4B6A00D05A0A4B241A20B2AD00ED5801F08EF9074901F059F8041C281C01F087F9011C201C00F05FFE38BD80350020C9
:4063C0007C35002000002041014B1A681A60704710023A402023044940010A689A43D2B2034013430B607047000304401023044900010A689A43D2B2034013430B6070472B
:40640000000104404023044980010A689A43D2B2034013430B607047000104402023044940010A689A43D2B2034013430B607047000104402023044940010A689A43D2B2CB
:40644000034013430B60704700020440C022094BD2001A600C22084B1A60084B0A3A1A60074A084B1A60084A084B1A600022084B1A60704780012040A4012040B8012040AB
:40648000FFFF000094012040C40900008C0120408801204008B500F08CF80421034A13688B43136000F089F808BDC04600002040014B80B21860704788012040014B80B237
:4064C000186070478C01204038B50D1C041CAC4000F06FF8024B1C6000F06FF838BDC0460800204010B5042400F063F8054A13682343136000F061F8201C1821FFF7E4FF12
:4065000010BDC0460000204010B5054C2378002B03D1FFF79BFF01232370FFF7E3FF10BDF00A0020014B18607047C046B001204010B5041C00F03DF8044AA40713689B00C7
:406540009B082343136000F038F810BD10E400E010B58024054B24031C60054B8C3318600320FFF7E5FF034B1C6010BD80E100E00000002000E100E07F23044AC00111681B
:406580000B401843C0B210607047C04600010440024B18684007C00F7047C046040304400230800803D00138FDD1C046C046C0467047EFF3108072B6704780F310887047F6
:4065C000F8B5A64B1B68002B00D09847A44B1B68DB0702D50022A34B1A60A34B1A78920601D4002123E0A14A00211068C00506D5C0249F48A400018821430180012112683D
:40660000D20706D590209A4980000A8802430A8001E00029E5D0012102201A78944C0A40821A2088024392B2228000221A7018781022800600D4F9E08C4C206810420CD0D5
:406640008C498B4C0A600121187801400220411A2088014389B22180DDE0187800071BD502202568054209D0824A8149106088200A88800002430A8001210DE01878C007C4
:4066800002D525221A7007E0242018707A480068002801D07948026004251A782A4200D19EE001201A78024243D00826744A1468344223D0734A744C15682768734AEF1B98
:4066C0001F2512682A40BA1AB24207D8002A06D16F49704A0D682A400A60011C321C6E4D20682D68013A28186C4D2D68EDB20570206801302060002AF1D117E012682A42ED
:4067000014D0614A644E146836683419634E3668F6B226701468013414601468594A1268944202D25E4A156000E0011C5D485E4A4CE002222468144220D04E495B4C0A608B
:406740005B491D320E680D68216832408A1AE90B0840101A206084202168564A8000116043490A88024380200A80534A40021168014311601068514901402FE0504A1068EA
:40678000C00625D54F4A1468494A10681F220240082A19D0454A384816680568AE4213D2156800680138854204D14020464D2860324D28601068454D20180078C0B228609C
:4067C000106801301060DFE710203F4A106007E01268520604D5354A1168364A116001E000293AD02A492B4A086802400A60002237490A6021490A60364A127892070CD59A
:40680000012219781A480A400A218A1A01880A4392B2028060221A701FE02F4B1A681823920600D4083B1E4A136016E01978114213D12A4801684900490801601A70144B44
:40684000274A19680A401A601968264A0A401A6080220368120613430360F8BDBC0A00208C0E2540880E2540902900200C0F2540A0290020000F25409C290020880F2540A3
:40688000CC0F2540AC290020B02900200803254060002540FFFEFFFFA42900204003254068002540ED0F0000C00F254094290020080225409829002004022540FFFFFEFF55
:4068C0008C0F2540B4290020800F254040022540C80F2540A82900206400254000002540FF5FFFFFFFFCFFFF08B5264B1B68002B00D09847244B1B685B071CD523490B68A1
:406900005A1C643B581E83415B421A40204B1868204B1B68824203D120221F4B1A7003E01E48DBB283540A601D4B1B68DB06E5D104221C4B1A601C4B1B689B0721D51B4BE2
:406940001B491A680B689A4213D00B685A1C633B581E83415B421A40164B17489B5CDBB20360164B0A601A681F231340102BE6D104E00221124A13688B4313600222114B2D
:406980001A6008BDC40A0020CC0F2440902A0020B829002040032440BC290020282A002008032440C00F24408C0F2440C0290020942A0020C42900204002244008022440C9
:4069C000880F2440800F244008B5FFF7F2FD0421034A13688B43136030BFFFF7EEFD08BD10ED00E001607047016070471E4B1F4A19781F4B09021B7819431E4B1B781278EA
:406A00001B0213431C4A934204D1072909D11B4B033906E0D4221201934202D1042900D1164B174A1360174B174A1960174B1B7812781B021343164A134200D1154B164AE9
:406A40001360164B164A1B7812781B021343154A934204D0144A934201D0052B00D1134B134A13607047C046D9F0FF0FDEF0FF0FD8F0FF0FDFF0FF0F580B0000580D00002C
:406A80006C002E4074002E40DAF0FF0FDBF0FF0FFFDFFFFF0220000078002E40DDF0FF0FDCF0FF0F0F0F000005050000050F000080002E4008B5FEF7C7F808BD08B500F0C3
:406AC00043F808BD08B500F047F808BD08B500F043F8034800F00EF8002000F011F808BD696B000008B5024800F01AF808BDC046696B0000014B18677047C04600000020BA
:406B000010B5041CFFF755FDC021044AA40113688B4323431360FFF750FD10BD0CE400E010B58024054B64011C60054B18670020FFF7E6FF034B1C6010BDC04680E100E010
:406B40000000002000E100E08022024B52011A607047C04600E100E08022024B52011A607047C04680E100E008B514F01BFE08BD02B4714649084900095C49008E4402BC5C
:406B80007047C046002243088B4274D303098B425FD3030A8B4244D3030B8B4228D3030C8B420DD3FF22090212BA030C8B4202D31212090265D0030B8B4219D300E0090A42
:406BC000C30B8B4201D3CB03C01A5241830B8B4201D38B03C01A5241430B8B4201D34B03C01A5241030B8B4201D30B03C01A5241C30A8B4201D3CB02C01A5241830A8B42EB
:406C000001D38B02C01A5241430A8B4201D34B02C01A5241030A8B4201D30B02C01A5241CDD2C3098B4201D3CB01C01A524183098B4201D38B01C01A524143098B4201D35E
:406C40004B01C01A524103098B4201D30B01C01A5241C3088B4201D3CB00C01A524183088B4201D38B00C01A524143088B4201D34B00C01A5241411A00D20146524110466C
:406C80007047FFE701B5002000F0FCF802BDC0460029F7D003B5FFF775FF0EBC4243891A1847C04603460B437FD4002243088B4274D303098B425FD3030A8B4244D3030BDA
:406CC0008B4228D3030C8B420DD3FF22090212BA030C8B4202D31212090265D0030B8B4219D300E0090AC30B8B4201D3CB03C01A5241830B8B4201D38B03C01A5241430B27
:406D00008B4201D34B03C01A5241030B8B4201D30B03C01A5241C30A8B4201D3CB02C01A5241830A8B4201D38B02C01A5241430A8B4201D34B02C01A5241030A8B4201D3A7
:406D40000B02C01A5241CDD2C3098B4201D3CB01C01A524183098B4201D38B01C01A524143098B4201D34B01C01A524103098B4201D30B01C01A5241C3088B4201D3CB002B
:406D8000C01A524183088B4201D38B00C01A524143088B4201D34B00C01A5241411A00D201465241104670475DE0CA0F00D04942031000D34042534000229C4603098B4241
:406DC0002DD3030A8B4212D3FC22890112BA030A8B420CD3890192118B4208D3890192118B4204D389013AD0921100E08909C3098B4201D3CB01C01A524183098B4201D385
:406E00008B01C01A524143098B4201D34B01C01A524103098B4201D30B01C01A5241C3088B4201D3CB00C01A524183088B4201D38B00C01A5241D9D243088B4201D34B00E3
:406E4000C01A5241411A00D20146634652415B10104601D34042002B00D54942704763465B1000D3404201B5002000F00BF802BD0029F8D003B5FFF715FF0EBC4243891A06
:406E80001847C0467047C0468446101C62468C46191C634600E0C0461FB501F059FB002801D40021C8421FBD10B501F09DFA4042013010BD10B501F04BFB002801DB002072
:406EC00010BD012010BDC04610B501F041FB002801DD002010BD012010BDC04610B501F0C7FA002801DC002010BD012010BDC04610B501F0BDFA002801DA002010BD01201D
:406F000010BDC0468446081C6146FFE71FB500F05FFA002801D40021C8421FBD10B500F0E3F94042013010BD10B500F051FA002801DB002010BD012010BDC04610B500F037
:406F400047FA002801DD002010BD012010BDC04610B500F0F3F9002801DC002010BD012010BDC04610B500F0E9F9002801DA002010BD012010BDC046002B11D1002A0FD1D0
:406F8000002900D1002802D00021C943081C07B4024802A14018029003BDC046E9FEFFFF03B4684601B5029800F04CF8019B9E4602B00CBC7047C046F0B54F4646460504E0
:406FC0002D0C2C1CC0B41704160C3F0C9946030C7C4375435F4373437D19260CAD199C46AF4203D980235B029846C4444B465143434324042E0C240C2D0466442C19591866
:407000008919201C0CBC90469946F0BDF0B583B0161C1F1C0090019101F05EFF041C0D1C221C2B1C301C391CFFF7C6FF009A019B121A8B410899201C0A604B60291C03B051
:40704000F0BDC046F0B5141C83B01D1C0090019102F03AF8221C2B1C061C0F1CFFF7ACFF009A019B121A8B410899301C0A604B60391C03B0F0BDC046F0B556464D465F46FF
:407080004446F0B443024500C70F83B08A465C0A2E0EB94641D0FF2E26D080231B042343DC00002398469B467F3E53465B025D0A53465A00DB0F120E9A4639D0FF2A33D058
:4070C00080231B042B43DD0000237F3A5146B21A46467940081C01921E430F2E00D976E07E4AB6009659B746002C30D108239846063B9B46D9E780230021DB03FF245B02D7
:40710000E4055B0AC90723430B43181C03B03CBC90469946A246AB46F0BD002C28D104239846033B9B46C0E7002D1FD1022302E0002D11D10123B21A5046464678400192E3
:407140001E430F2E27D86649B60089598F460C239846093B9B46A8E7281C01F09FFE7622431F52429D40121A0023AFE70323ADE7201C01F093FE431F9C4076235B421E1A4F
:40718000002398469B4690E70025D1469B465B464846022B6FD10121FF2401400023AEE77E23019A5B429B1A1B2B6DDD01214B46194000240023A2E78023DB031C4249D18C
:4071C0008023DB0323435B025B0A391C96E763016D01AB4237D389461A2001215B1B01241E1C49005B00002E01DBAB4201D35B1B214301380028F3D1581E83410B431D1C1C
:40720000019C7F34002CCBDD6B0704D00F232B40042B00D004352B0104D5019A314B8032141C1D40FE2C07DD4B460121FF241940002364E7251CAAE701214A46AB015B0A74
