:400000000010002011000000890400008904000008B500F053FAC04638B5164C23688022D20213432360182000F03AFB2268124B13402360114A124B1A602022114B1A60D8
:40004000103A114B1A6080221206104B1A60002525600F4A0F4B1A600F4A104B1A6009200F4900F0E9FA092000F0DAFA0D4B1D6038BDC04600010B40FFFFFBFF06000080F1
:4000800004010B40200202403002024008010B403801008000000240BF5D008040000240B10800000C020B4038B572B60122454B1A70002410E0444863001A195200821825
:4000C00091881B195B001A5AC31858880004104300F056FA0134E4B2012CECD9002412E0394DA3001A195200AA189189D08900040843131C128A598A09041143802200F0EC
:4001000045FA0134E4B2002CEAD02F49081C1830383100F01BFA802252002C4B1A80FF3A2B4B1A70C02292032A4B1A60EE221202294B1A60294A2A4B1A6080229204294BB9
:400140001A60A222D205284B1A6099231B04274A1360274A1360274A13600223264A1360264A1360264B197802220A431A70254802783C218A4328390A4302701978162214
:400180000A431A70A822204B1A60204A204B1A6080231B021F4A136040211F4A1160C02149031E4A11601E491E4A116080211E4A11601E491E4A11601E4A1360FFF72CFF97
:4001C00038BDC0461C700F401C19000000600F4002600F40000001400C0001400400990000500F4004500F4008500F4010500F4020500F4030500F402000004000800F4014
:4002000000700F4001700F4000000440001C4300080004400C0004400001044008010440B66D7B000802044000030440800D4000080304400C03044010B5064C2378002BEF
:4002400007D1054B002B02D0044800E000BF0123237010BD5801002000000000F818000008B5084B002B03D00748084900E000BF07480368002B00D108BD064B002BFBD052
:400280009847F9E700000000F81800005C010020C80000200000000010B50B4B1B68082B0CD8094C01332360732000F0E3FB20683030C0B200F0DEFB012323710A2000F0F3
:4002C000CDF900F047FB10BD7401002010B500F0BDFB021C031C303BDBB20A2B05D806498B685C1C8C600549C8540A2A02D10022014B9A6010BDC04674010020CC0000201D
:4003000010B50C4B1B68002B0DD00B4800F0BEFB084C20683030C0B200F0ACFB2368013B2360012323730A2000F098F900F0C2FB10BDC04674010020FC18000008B5002020
:4003400000F026FB052000F089F9012000F020FB022000F08BFD08BD10B51E4B1B68002B02D000F073FD01E000F008FD194B1B79002B0ED110E00022164B1A7100F014FB67
:40038000C043C0B200F004FB322000F067F9013400E00024052CEEDD0E4B1B7B002B11D113E000220B4B1A73012000F0F1FA00F0E7FAC043C0B200F0D7FA322000F04EF982
:4003C000013400E00024092CEBDD012000F0E0FA10BDC0467401002030B585B0154B6A4623CB23C2191C1B6813600B7913710020002100F0A5FC684600F038FC0E4D684697
:400400000E490F4A2B6800F077FE0120002100F097FC684600F02AFC2B68002B08D0722000F028FB044B18683030C0B200F022FB05B030BD00190000740100201419000025
:40044000CC00002008B562B600F0F0FA00F068FC094800F037FD094800F066FD084800F0BBF8084800F052FBFFF776FFFFF7B4FF642000F0F3F8F7E73D030000CD02000094
:400480009902000001030000FEE7C04608B5031C084A1068C318084A9A1A802A02DC054A136005E000F0EAFD0C2303600120404208BDC046DC000020B801002070B50F4ECE
:4004C0000F4D13E029686B68AC68002202E001C901C30432A242FAD1E868002202E0002102C304328242FAD11035013E002EE9D100F0CAFDFFF7A6FFFEE7C0460100000015
:40050000741C000008B500230AE0032B03D89A000A49505800E00A4899000A4A885001332F2BF2D9FFF7C0FD0022074B1A608022D205116801230B43136008BD0000000036
:400540008904000000000020C0000020F0B50025002711E0BB00C658F3B2FF22964308E06A008A181478A419527822700135013BDBB2002BF4D10137072FEBD9F0BDC04627
:4005800008B50A1C002100F0AEFD08BD08B500F0A1FD08BD014B18647047C0460000002010B5041C00F032F8044A1368C0218B43A4011C43146000F02DF810BD00E400E08D
:4005C0000122014B1A60704700E100E00122014B1A60704780E100E010B5041CFFF7F6FF201CFFF7D7FF0320FFF7DAFFFFF7E8FF10BDC046000000000230800804D0C046AB
:400600000138FDD1C046C046C0467047EFF3108072B6704780F310887047C046C046C0461F2318401E3B8340181C014B1860704700E100E001BE704738B5041C0D1C1F28AC
:4006400002D90020FFF7F6FFA400034B9C4664442068256038BDC0464000002010B5041C06E0084B1868FFF7C7FF074B9C46644480231B029C42F4D8024B58686043FFF76A
:40068000BBFF10BDE00000200080FFFF08B5034B1B7A5843FFF7B0FF08BDC046E0000020F0B557464E46C0B483B0041CFFF7AEFF0190E71E2D2F74D83F4B1B78DBB2A3427D
:4006C00008D33E4B1B78DBB29A463D4B1B78DBB2994631E03B4B1B78DBB2A34208D33A4B1B78DBB29A46394B1B78DBB2994623E0374B1B78DBB2A34208D3364B1B78DBB28A
:400700009A46354B1B78DBB2994615E0334B1B78DBB2A34208D3324B1B78DBB29A46314B1B78DBB2994607E02F4B1B78DBB29A462E4B1B78DBB299462D4BDE5D2F2E09D944
:400740002A2C07D919222B4B1A600520FFF754FF192503E0274B1D683F231D40AE4206D2234BDA5D234B1A600520FFF745FF1F4B9C4664442378DBB21F4A13601F4B524625
:400780001A601F4B4A461A600520FFF77FFFAE420AD9174BDA5D174B1A600520FFF72CFF02E00020FFF746FF0198FFF733FF03B00CBC91469A46F0BDC0F1FF0FC1F1FF0FC8
:4007C000C2F1FF0FC3F1FF0FC4F1FF0FC5F1FF0FC6F1FF0FC7F1FF0FC8F1FF0FC9F1FF0FCAF1FF0FCBF1FF0FCCF1FF0FCDF1FF0FE81B00002CFF0B4028FF0B401CFF0B405A
:4008000020FF0B40034B1868C0231B02184000D00120704700010B4008B5FFF7F7FE044A1368C02109020B431360FFF7F3FE08BD00010B4010B5FFF7E9FE08490A68084B66
:400840001A408024E40122430A600A6813408022120213430B60FFF7DDFE10BD00010B40FF3FFFFF70B5061CFFF7D0FE041CFFF7C9FF002803D0FFF7DDFF012500E0002583
:400880000848331C0340084A106808490840184310601368012D01D1FFF7BEFF201CFFF7B9FE70BD0404040010020B40FBFBFBFF10B5244B1B685B0715D5234B1B685B0735
:4008C0000ED5224B9969042001401F4C22688A4322609A6982439A61DB68002B00D098470420FFF7BFFF174B1B685B0518D5164B1B685B0510D5154B99698022D2001140C3
:40090000114802688A4302609969114A0A409A611B69002B00D098478020C000FFF7A2FF084B1B685B030CD5074B1B685B0304D5064B5B69002B00D098478020C002FFF766
:4009400091FF10BD10020B40F000002084010020FFFBFFFF034A1068802318401060C009C0B270471000044004490A68BF231A4080017F3B18401043086070470001044055
:40098000024B18684006C00F7047C0460401044004490A68F7231A40C000EF3B184010430860704700000440024B18680007C00F7047C046040004407222074B1A70523A80
:4009C000064B1A701A3A064B1A704132054B1A700022054B1A70704780000F4081000F4022000F4032000F4083000F4010B5FFF70DFE041C0A4A117820230B431370094961
:400A00000A7810231A43D2B20A70074A11780B43DBB2137000F096FA201CFFF7FBFD10BD90000F4091000F4093000F4008B5064B1B78002B04D1FFF7BFFF0122024B1A7007
:400A4000FFF7D4FF08BDC046A0010020074B1B78DBB29A0606D5064A1078C0B21E221A4202D102E0002000E00020704761000F4040000F40034B1B785B07FBD4024B18709C
:400A80007047C04663000F4043000F4038B5084B1B78002B05D109E0FFF7ECFF0134A4B201E0051C0024285D0028F5D138BDC046A0010020034A1068802318401060C009BE
:400AC000C0B2704710030440014BD8647047C0460000002010B5041CFFF798FD044A13689B009B08A4071C431460FFF793FD10BD00E400E00822014B1A60704700E100E09D
:400B00000822014B1A60704780E100E010B5041CFFF7F6FF201CFFF7D7FF0320FFF7DAFFFFF7E8FF10BDC04610B50B4C23686022934323602368513A9343236022681023A5
:400B40001843104320600120FFF7A0FD236810229343236010BDC0460002044038B5051C0E4C226820231343236023684022934323600020FFF78AFD23680F22934323605E
:400B8000236810202843184320600120FFF77EFD236810229343236038BDC04600020440F8B5274A13687F218B43136025490B681B0B1B03244803430B60136820218B4305
:400BC0001360116840230B431360CA277F000020FFF75CFD1A4C23681026334323600120FFF754FD194B1D682368B34323600020FFF74CFD08231D40236833432360012005
:400C0000FFF744FD2368B3432360002D02D10A20FFF73CFD013F002D01D0002FD7D1084B1A6840218A431A601A683F318A431A60044A13681B0B1B0305490B431360F8BD84
:400C400000020440080204404902000004020440B60D000010B5041CFFF7A2FF2009FFF77DFF0F202040FFF779FF10BD38B5051C0078012404E0FFF7EDFF285D0134E4B2E6
:400C80000028F8D138BDC04610B5041CFFF788FF2009FFF749FF0F202040FFF745FF10BD08B52820FFF7DAFC0320FFF73DFF0520FFF7D4FC0320FFF737FF0F20FFF7CEFC9A
:400CC0000320FFF731FF0120FFF7C8FC0220FFF72BFF0520FFF7C2FC0620FFF7D5FF0E20FFF7D2FF2C20FFF7CFFF0820FFF7CCFF0120FFF7C9FF0C20FFF7C6FF0320FFF7F8
:400D0000C3FF0520FFF7AAFC08BDC04608B50C20FFF7BAFF0122014B1A7008BDA201002008B5064B5B78002B04D1FFF7B9FF0122024B5A70FFF7EAFF08BDC046A201002016
:400D400008B501280BD0002804D002280CD003280FD012E08039C8B2FFF796FF0DE04039C8B2FFF791FF08E06C39C8B2FFF78CFF03E02C39C8B2FFF787FF08BD08B5FFF752
:400D800045FC044A136801218B431360FFF742FC08BDC046000005400004000C014B18607047C046080105400004000C014B18607047C046140105400004000C014B1860E4
:400DC0007047C0460C01054038B5041C0D1CFFF71DFCAC40024B1C60FFF71CFC38BDC0460800054008B5FFF711FC064A116801230B431360FFF70EFC01201821FFF7E4FFF3
:400E000008BDC04600000540014B18607047C0463801054010B5A022D2000A4B1A604C22094B1A600220FFF7EFFFFA24A400201CFFF7BAFF201CFFF7BFFF0020FFF7ACFFDB
:400E400010BDC046000105402401054008B5064B1B78002B04D1FFF7DDFF0122024B1A70FFF7C0FF08BDC046A4010020014B18607047C046300105408023014AD050704781
:400E80000000002010B5041CFFF7C0FB044A1368C0218B43A4011C431460FFF7BBFB10BD10E400E080225202014B1A607047C04600E100E080225202014B1A607047C0468C
:400EC00080E100E010B5041CFFF7F4FF201CFFF7D3FF0320FFF7D6FFFFF7E4FF10BDC046014B58647047C0460000002010B5041CFFF78CFB044A1168044B0B40A4031C4397
:400F00001460FFF787FB10BD00E400E0FF3FFFFF0222014B1A60704700E100E00222014B1A60704780E100E010B5041CFFF7F6FF201CFFF7D5FF0320FFF7D8FFFFF7E8FF11
:400F400010BDC046034A1368802109060B4313607047C04600000240002243088B4274D303098B425FD3030A8B4244D3030B8B4228D3030C8B420DD3FF22090212BA030C50
:400F80008B4202D31212090265D0030B8B4219D300E0090AC30B8B4201D3CB03C01A5241830B8B4201D38B03C01A5241430B8B4201D34B03C01A5241030B8B4201D30B0336
:400FC000C01A5241C30A8B4201D3CB02C01A5241830A8B4201D38B02C01A5241430A8B4201D34B02C01A5241030A8B4201D30B02C01A5241CDD2C3098B4201D3CB01C01A32
:40100000524183098B4201D38B01C01A524143098B4201D34B01C01A524103098B4201D30B01C01A5241C3088B4201D3CB00C01A524183088B4201D38B00C01A5241430818
:401040008B4201D34B00C01A5241411A00D20146524110467047FFE701B5002000F00CF802BDC0460029F7D003B5FFF775FF0EBC4243891A1847C0467047C046014B18689C
:401080007047C046540100200E4B70B500251E1C0D4CE41AA410A54204D0AB00F35898470135F8E700F0D4FD084B00251E1C084CE41AA410A54204D0AB00F3589847013532
:4010C000F8E770BD5C1C00005C1C00005C1C0000641C0000002310B5934203D0CC5CC4540133F9E710BD031C8218934202D019700133FAE7704700000EB410B59DB002A917
:40110000029008610B48822488604861012040421FABC881084804CBA400006801938C8100F06CF80023029A13701DB010BC08BC03B01847FFFFFF7F54010020F0B58E6817
:4011400085B0071C0C1C03920193B34245D390238A89DB001A423DD003250969236801985B1A029363695D43EB0F5D19029B6D1001331B189D4200D21D1C381C53050FD510
:40118000291C00F01DFB061E13D0029A2169FFF7A1FFA289184B134080221343A38111E02A1C00F065FB061E0CD1381C216900F0C1FA0C23402201203B60A38940421343C0
:4011C000A38117E0029B2661F61826606561019EED1AA560019BB34200D2019E321C2068039900F092FA0020A3689B1BA36023689E19266005B0F0BD7FFBFFFFF0B59FB041
:40120000029005938B890E1C171C1B0610D50B69002B0DD1402100F0D3FA30603061002804D10C23029A01381360D0E040237361002306AD6B6120336B761033AB763C1C64
:401240002378002B03D1E31B049312D003E0252BF9D00134F4E7049B0298311C3A1CFFF76DFF431C00D1ACE06A69049B944663446B612378002B00D1A3E0012200235242A4
:401280006A6002A95432521801342B60EB60AB601370AB654F4F2178381C052200F02AFA002808D0C01B01278740381C2B68013418432860EEE72B68DA0604D553222021BA
:4012C00002A8121811701A0704D553222B2102A81218117022782A2A01D0099B0EE0059A111D12680591002A01DB099204E05242EA60022213432B60013409E02278303AD1
:40130000092A04D80A214B4301349B18F6E7099323782E2B18D163782A2B09D1059B02341A1D1B680592002B0DDA01235B420AE0002301342278303A092A04D80A214B4395
:4013400001349B18F6E70793234F2178381C032200F0D0F9002807D0C01B40278740381C2B6801341843286021781C480622671C297600F0BFF9002812D0194B002B06D16B
:401380000722059B073393430833059314E005AB00930298291C321C124B00E000BF07E005AB00930298291C321C0E4B00F08AF80390039B013304D06B69039A9B186B61D6
:4013C0003DE7B3890B985B0601D5012040421FB0F0BDC0461A1C0000201C0000241C0000000000003D110000F7B5171C01930A698B6800900C1C934200DA131C221C3B6046
:4014000043321278002A01D001333B6023689B0602D53B6802333B60062523681D401ED0231C43331B785A1E9341226892061CD53020E1184031C870211C5A1C4531097829
:40144000A21840320233D1700FE0221C0123009801991932089EB047431C0ED00135E3683A689B1A9D42F0DBDAE7221C009801994332089DA847431C02D10120404220E091
:4014800006232068E1683A6803400025042B03D18D1AEB43DB171D40A3682269934201DD9B1AED180027AF420ADA221C0123009801991A32089EB047431CDED00137F2E767
:4014C0000020FEBDF0B58BB006920A1C43320793059004920A7E0C1C109B6E2A00D1A8E011D8632A22D009D8002A00D1B2E0582A00D0C2E045310A707C4A4FE0642A1DD0C3
:40150000692A1BD0B9E0732A00D1A7E009D86F2A29D0702A00D0B0E0202209680A43226037E0752A1FD0782A33D0A6E00E1C1A684236111D196013683370A1E021681A686B
:40154000080606D4490604D5111D19600023D55E02E0111D19601568002D3BDA2D23049A6D42137036E021681A68080606D4490604D51568111D1960ADB202E0111D1960B9
:4015800015685A4B227E03930A276F2A1DD108271BE0221C782145321170554A19680392081D226818600D68100602D4500600D5ADB2D30702D520231A4322601027002D24
:4015C00003D1202322689A432260231C002243331A7002E00A27454B03936368A360002B03DB0422216891432160002D02D1049E002B0ED0049E281C391CFFF733FD039BCC
:40160000013E5B5C281C3370391CFFF7A5FC051EF1D1082F09D12368DB0706D563682269934202DC3023013E3370049B9B1B23612BE009681A68080607D4490605D5111D4E
:4016400019601368A28A1A8004E0111D1960136862691A600023049E236116E01A68111D196016680021301C626800F043F8002801D0801B6060636803E0261C42363270BF
:40168000012323610023049A1370079B05980093211C069B09AAFFF7A7FE431C02D10120404221E0236905980699321C079DA847431CF4D023689B0705D4099BE0689842D2
:4016C00012DA181C10E00025E368099A9B1A9D42F3DA221C0123059806991932079EB047431CDCD00135EFE70BB0F0BD2B1C00003C1C0000C9B28218904204D003788B42C0
:4017000002D00130F8E70020704710B5814208D28B18984205D29B1A013A09D3995C8154FAE70023934203D0CC5CC4540133F9E710BD000030B500293ED004390B68002BE0
:4017400000DAC9181D4A1368141C002B02D14B60116031E099420DD208680A189A4203D11368C3180B6053684B60216024E08A4203D8131C5A68002AF9D11D685C198C4275
:401780000BD10968691858181960904214D110685268091819605A600EE08C4202D90C23036009E008680C18944203D114685268001908604A60596030BDC046AC0100200B
:4017C000032370B5CC1C9C430834051C0C2C01D20C2405E0002C03DA0C2300202B6042E08C42F9D3204A1368101C191C002913D00A68121B0DD40B2A02D90A608B181FE0CD
:401800008B4202D15A6802601BE04A685A600B1C17E00B1C4968E9E7144E3368002B03D1281C00F04BF83060281C211C00F046F8031C421CD0D00322C61C964386420AD165
:401840001C60181C07210B301A1D8843821A0AD05142995007E0311A281C00F02FF8431CBAD0331CECE770BDAC010020A8010020F8B5061C0C1C151C002904D1111CFFF7BD
:401880009FFF041C18E0002A03D1FFF753FF2C1C12E000F025F8A8420ED2301C291CFFF78FFF071E07D0211C2A1CFFF713FC301C211CFFF73FFF3C1C201CF8BD38B500236C
:4018C000064C051C081C2360FEF7E0FD431C03D12368002B00D02B6038BDC046B00100200B1F1A68101F002A04DA891804390B68D01804387047000000000000630000007A
:401900002020202074696D6520202020206E756D00000000257320202569200080300F40800300400F40000400300F40681B00008000000003000F4013300F403A310F40CD
:4019400069320F4042330F4008400F4004410F4002600F4080728138830F80048E0192029A01A008A602AF01B002B201B404B608B701BE55D418D604D804D904DB04DF017A
:40198000018003280502070208840A280B800D200E400F8010801398150A19051B681E041F852048221823822580288429842D8031803206332038683A0240014240432027
:4019C00048044A024B80512459015D016440670A69146A80709472027318844085018608C097C25FC43FCA1FCC0FCE0FD00DD20CD681D8B00010018002AC0313041408DCF9
:401A00000A221203130C140C152C167117431E20200922D024102640270829712B0E2D712F06301F32E03330350F37C039883A083B203F044002464049FF4A074BFF4C4065
:401A40004D204EF04F055008580459045A045F01604061A862406320800381018214830A840A85138614882089138AC08C408E209013920C941395029604970998809A204F
:401A80009D109E08A215A4E0A704A8E0B00FB110B303B4E0B610B70CBA02BE40BF40C041C103C5EBC60CC807C9FFCAFFCBFFCEF0CF44D00CD401D804D904DA04DB04DF0110
:401AC000E6C0EA40EB0200040120020103800505070809480A480D0B0F02111412801610170119A11A401B121D0A1F08200122062404254027292B102F2A32443709391458
:401B00003A013E013F024201430A472049064E804F02538056105720582059825A0480A08390911492849401950296089A019C809D02A602A980AA01AF80C07FC2BFC43EA9
:401B4000CA72CCCACE87D02BD60F0A4063026E208610C210D640DA80E610AA40AF01E820EE101001110100000010000073180C001F086000011C00E2000063637F400000DE
:401B800002E700180300000408600000041C00E10CFF00005C242300101F2C600F004C800080282200000100250604000100E00C18FFFFFF62A0F0410C0000000000021320
:401BC00004040404000000010000000000004002001030100010101200000000000000000000000000000000030405060708090A0B0C0E0F101112131415161718191B1CA4
:401C00001D1E1F2021222325262728292A2B2E2F30313233343500004300232D302B2000686C4C006566674546470030313233343536373839414243444546003031323386
:401C400034353637383961626364656600000000F8B5C046F8BC08BC9E4670476102000005050000F8B5C046F8BC08BC9E46704739020000881C0000C80000209000000078
:401C800060000000000000000000000030302E30302E30302E30303000000000B80100200000E02EC05D00001800000000366E0104040400000000000000000000000000BD
:401CC0000000000000000000000000000000000000000000181C000000000000000000000000000000000000000000000000000000000000000000000000000000000000B0
:401D00000000000000000000000000000000000000000000F4000020000000000000000000000000000000000000000000000000000000000000000000000000000000008F
:401D40000000000000000000000000000000000000000000000000000000000000000000000000000000000000000000000000000000000000000000000000000000000063
:401D80000000000000000000000000000000000000000000000000000000000000000000000000000000000000000000000000000000000000000000000000000000000023
:401DC00000000000000000000000000000000000000000000000000000000000000000000000000000000000000000000000000000000000000000000000000000000000E3
:401E000000000000000000000000000000000000000000000000000000000000000000000000000000000000000000000000000000000000000000000000000000000000A2
:0200000490303A
:02000000B03C12
:0200000490402A
:200000000000000000000000000000000000000000000000000000000000000000000000E0
:0200000490501A
:0C000000000204C81193110104D1C1CF0B
:0200000490600A
:0100000001FE
:00000001FF