:400000000040002011000000211D0000211D000008B501F087FEC04638B512221C4B1A6001F0A4FF1B4801F0E3FE012001F0BEFF302001F0EDFE184A184B1A60184C80258C
:40004000ED052560174A116802230B431360164A164B1A60164A136808218B431360FA20C00001F04FFF134801F042FF80221206114B1A608022D202104B1A6008201049C7
:4000800001F00CFF082001F0FDFE256038BDC04630001040001BB7000600008004010B400C020B4078002E402D3E00007C002E406CF02E40DC05000008010B4000010B40A9
:4000C000C520000010B572B600221B4B1A60002410E01A4863001A195200821891881B195B001A5AC31858880004104301F078FE0134E4B2012CECD9EE221206104B1A60E5
:40010000992212040F4B1A600F4B197802220A431A700E4802783C218A4328390A430270197816220A431A70094A0A4B1A60FFF773FF01F045FE10BD6CF02E4048240000B9
:400140000000024000500F4000700F4001700F40B10DD8000800044010B5064C2378002B07D1054B002B02D0044800E000BF0123237010BDE8000020000000004023000061
:4001800008B5084B002B03D00748084900E000BF07480368002B00D108BD064B002BFBD09847F9E70000000040230000EC000020C80000200000000080B5194FBD4462B664
:4001C000FFAA60320023136053609360D360136153619361D361136253629362D36213868AA81049002200F00BFF002816D168460D49012200F032FF6846FFA960310A2207
:40020000FFAB5C3301F022F8002804D1FFAB5C331B68002BF0D1684601F028F9FEE7C04670FBFFFF4C2300004423000008B5012802D101F003FB00E0012008BD08B501F0CF
:400240005BFA08BD08B5081C111C1A1C01F0FCFA08BDC04608B5081C111C1A1C01F02EFB08BDC04608B5081C111C01F07DFB08BD4278120203781A43101C7047C3781B0228
:40028000827813431B02427813431B02007818437047C0460170090A4170704701700B0A43700B0C8370090EC1707047002A06D00B780370013A01300131002AF8D17047A8
:4002C0000170013A0130002AFAD1704730B5031C5D1C1B784C1C0878181A013A002A03D02B1C211C0028F3D030BDC04600E001300378002B01D08B42F9D1181C7047C046A1
:4003000002394369023B8B4204D943895943806A081800E00020704770B5061C0D1C081C1A30FFF7A5FF041C3378032B05D1281C1430FFF79DFF0004204370BD70B5061C8A
:400340000D1C141C081C1A3091B2FFF7A3FF3378032B04D1281C1430210CFFF79BFF70BDF8B55F4656464D464446F0B4824689460F68202353449B46181C20210B22FFF7AB
:400380009FFF002600230822904600E02B1C5D1CFC5C202C2BD92F2C03D05C2C07D100E001357B5D2F2BFBD05C2BF9D01FE02E2C01D0464508D343460B2B30D02E2C30D173
:4003C00008260B239846E1E763B2002B2BDB1B48211CFFF78BFF002827D1231C613B192B01D8203CE4B25B469C550136CEE77D194B461D60002E1AD020235246D35CE52B37
:4004000003D10522C53B5146CA54202C01D8042200E000222B235146CA54002008E0062006E0062004E0062002E0062000E006203CBC90469946A246AB46F8BD50230000BC
:4004400010B50168002904D101235B421FE0013200E00A1C1378202B01D93A2BF7D13A2B14D14C1C0B78303B092B06D8944207D1002B08D10132026009E001235B4206E0F1
:4004800001235B4203E001235B4200E00023181C10BDC04638B5041C0D1C00280ED00368002B0BD01A78002A08D0D9888288914204D15878FFF7BAFEC30703D500232B60AB
:4004C000092002E023682B60002038BDF8B5C378002B22D0041CC76A061C30364078311C3A1C0123FFF7B6FE002818D10023E370236AFB1AA269934213D2A57809E0A369BF
:400500009C4667446078311C3A1C0123FFF7A2FE013D012DF3D8002004E0002002E0012000E00020F8BDC04670B5051C0E1CC36A8B4211D0FFF7CAFF041E0ED1291C30312F
:400540006878321C0123FFF77DFE002802D0013401267642EE6200E00024201C70BDC04610B5041C0023C370013BC362FFF7DCFF002822D1164BE018FFF77AFE154B98425E
:400580001DD13023E35CE92B05D0134B226B1340124A934215D1201C6630FFF76FFE0002000A0F4B98420ED0201C8230FFF766FE0C4B984209D0022008E0042006E00320A1
:4005C00004E0022002E0002000E0002010BDC0462E02000055AA0000FF00FF00EB0090004641540046415433F0B55F4656464D464446F0B487B00E1C171C00230B60FFF7D0
:400600001FFF051E00DA35E18300B14A9C58002C00D131E1346001239F432378002B0CD06078FFF703FEC30707D4002F00D125E1430700D524E1002043E100232370E8B29A
:400640006070FFF7FBFDC30700D51BE1002F02D0430700D518E1201C0021FFF781FF022812D0002524E02801EF30FF3020180379002B03D00830FFF701FE00E00020AB00FF
:4006800002AA9850013500E00025032DEBD90026B30002AA9D58002D04D0201C291CFFF75FFF00E00320012802D90136032EEFD9042800D1EAE0012800D9E9E0201C3B30B7
:4006C000FFF7D6FD80239B00984200D0E2E0201C4630FFF7CDFD8146002804D1201C5430FFF7CCFD81464B46A3614023E35CA3705A1E012A00D9CFE04A465A4392463D2331
:40070000E35C9B4663815B46002B00D1C6E0013B5A46134200D0C3E0201C4130FFF7A8FD071C01902081030700D0BBE0201C4330FFF79EFD061E04D1201C5030FFF79EFD36
:40074000061C201C3E30FFF793FD8046031E00D1AAE053443F09BFB2DF19BE4200D2A5E0F01B594601F02CFD002800D1A0E0594B984202D903239B4601E002239B46564B21
:40078000984201D801239B46861C6661E5614346EB182362EF19A7625A46032A11D1201C5A30FFF765FD002800D083E0019B002B00D081E0201C5C30FFF760FD6062B600FD
:4007C0000FE0019A002A79D0534463625B46022B01D1760005E0032373435B08012216409E193E4B9C466644760AB14568D301235B422361E360813323715B46032B2FD1D1
:40080000201C6030FFF734FD012829D1691C201CFFF78AFE002823D100232371304BE018FFF726FD2F4B98421AD1201C3030FFF725FD2D4B984213D185239B00E018FFF7AA
:400840001DFD2A4B98420BD186239B00E018FFF715FD206187239B00E018FFF70FFDE0605B4623701A4A938801339BB29380E380002026E00B2024E00C2022E0002020E0A2
:400880000A201EE003201CE00A201AE0012018E00D2016E00D2014E00D2012E00D2010E00D200EE00D200CE00D200AE00D2008E00D2006E00D2004E00D2002E00D2000E094
:4008C0000D2007B03CBC90469946A246AB46F0BD04010020F5FF0000F50F0000FF0100002E02000055AA00005252614172724161F8B54F464646C0B4061C0C1C171C0129E0
:4009000000D881E043698B4200D87FE00378022B4AD0032B5CD0012B7AD14B08984688444346590A036A9C466144FFF7FDFD051E6FD10123434499464346DB05DB0D01220D
:4009400014400BD0F21830321078FF210A1C3A4011010F2202400A43D2B200E0FAB2F31830331A700123F3704B46590A336A9C466144301CFFF7D8FD051E4AD14B46DB0555
:40098000DB0D002C02D03F09FFB207E0F218303212780F218A433F053F0F1743F31830331F700123F37034E0090A036A9C466144FFF7BAFD051E2CD16000FF235B001840F1
:4009C00030303018B9B2FFF765FC0123F37020E0C909036A9C466144FFF7A6FD051E18D13F013F09A400FE235B001C4030343419201CFFF743FC010F09073943201CFFF7A7
:400A00004DFC0123F37004E0022502E0022500E00225281C0CBC90469946F8BDF8B50668012958D973698B4257D90C1C3378022B2BD0032B3BD0012B51D14D084D19690A56
:400A4000336A9C466144301CFFF76EFD002848D16F1CED05ED0D731930331D78790A336A9C466144301CFFF75FFD00283CD1FF05FF0DF6193036307800022843E30701D595
:400A8000000939E00005000D36E0090A336A9C466144301CFFF748FD002828D16000FF235B00184030303018FFF7E2FB24E0C909336A9C466144301CFFF736FD002819D1DC
:400AC000A100FD30FF30014030317018FFF7D6FB0001000910E001200EE001200CE001200AE00120404207E00120404204E00120404201E001204042F8BDC046F0B54746C2
:400B000080B4061C0C1E0768264B9C4239D8CB0639D131618568002D03D13B78022B00D97D6A002D06D163093A8993422DD27B6AB36118E07B895B0298460DE0301C291CB6
:400B4000FFF76CFF051C431C21D0012821D97B69834220D94346E41A4445EFD2381C291CFFF7CEFBB0617561B369002B15D0620A9B18B361E305DB0D3033FB18F3610020B5
:400B80000CE002200AE0022008E0022006E0012004E0022002E0022000E0022004BC9046F0BDC046FFFF1F00F0B5474680B4051C88460768002906D1FE68002E0ED07B697E
:400BC000B3420DD90DE0FFF729FF012845D9431C48D07B69834245D8464602E0012600E00126341C01347B69A34202D8012E36D90224281C211CFFF711FF002806D00128B5
:400C000030D0431C2ED0B442ECD12AE0381C211C01225242FFF76CFE002807D14346002B04D0381C4146221CFFF762FE00280CD1FC603A697B69023B9A4201D2013A3A6151
:400C40003A79012313433B7105E0012802D10124644200E00124201C04E0012002E0002000E0002004BC9046F0BDC046F8B5071C0D1E0468012D2CD963698B422BD9002AFD
:400C800007D0201C111C01225242FFF731FE002828D1381C291CFFF7C1FE061E1DD001281DD0431C1DD0201C291C0022FFF720FE002817D123695A1C05D001332361227945
:400CC000012313432371351E63699D42E1D3002008E0022006E0022004E0002002E0022000E00120F8BDC046F0B54F464646C0B483B00768056920358369002B6BD0414AC2
:400D000095426AD80191041CEA05D60D5CD1013383614169002907D16B093A89934253D300238361042067E06B0A7A89013A1A424AD1FFF773FE8146031E012B4FD9013381
:400D40004FD07B69834238D8019B002B02D1A361042051E0201C6169FFF726FF8146031E41D0012841D0013341D0381CFFF7AEFB00283ED1381C3030002180229200FFF7E6
:400D80009FFA381C4946FFF7BBFAF862002398460CE00123FB70381CFFF798FB00282AD101239C46E044FB6A6344FB627B894345EFD8FB6A42469B1AFB624B466361381CA8
:400DC0004946FFF79DFAA0612561331C3033FF18E761002010E004200EE004200CE002200AE0012008E0072006E0022004E0012002E0012000E0012003B00CBC9046994690
:400E0000F0BDC046FFFF1F0070B5051C06680021FFF774FE002820D1301CA969FFF784FB041E19D1E8690378002B14D0C37A3F221340AB71C37A1B0706D4291C2031343A88
:400E4000FFF744FA002807D0281C0021FFF74CFF041EE1D000E00424201C70BD30B583B0041C0191056801E001330193019B1A782F2AF9D05C2AF7D00022A2601B781F2BD7
:400E800007D880322B23E254201C0021FFF736FE23E0201C01A9FFF763FA00281DD1201CFFF7B2FF2B23E35C002804D0042814D15B070FD511E05B070FD4A379DB060BD56E
:400EC0002369D905C90D30316918281CFFF724FAA060DEE7052000E0052003B030BDC046F8B5051C0E1C04680021FFF707FE002817D10027201CA969FFF716FB002810D1CE
:400F0000EB691B78E52B01D0002B03D10137B74201D106E00027281C0121FFF7E5FE0028E8D0042800D10330F8BDC04670B5051C06680121FFF7D4FF041E12D1301CA969CE
:400F4000FFF7F2FA041E0CD1E86900212022FFF7B7F9E869291C20310B22FFF7A7F90123F370201C70BDC04670B5051CFFF7AEFA041E3AD12B78032B2FD12B79012B2CD1E7
:400F80002E1C3036301C002180229200FFF798F9174BE8181749FFF77DF9301C1649FFF77DF985239B00E8181449FFF777F986239B00E8182969FFF771F987239B00E81893
:400FC000E968FFF76BF9EB695A1CEA626878311C0123FFF73FF900232B71687800210022FFF740F9002800D00124201C70BDC0462E02000055AA0000525261417272416119
:4010000010B584B001900091141C039103A8FFF717FA002819DB83000F4A9B58002B01D000221A70019B002B01D000221A70019B8000094A8350002B09D0012C09D168464D
:4010400001A90022FFF7D0FA04E00B2002E0002000E0002004B010BD04010020F0B54F464646C0B48FB00191002800D1E7E0161C071C3F25154001A802A92A1CFFF7B4FA16
:40108000041E00D0D5E0029B039303A80199FFF7E5FE041E05D12B2303AAD356002B00DA06341C23334257D0002C08D0042C03D103A8FFF73BFF041C08231D430AE003ABDC
:4010C0009B7911221A4202D1730702D402E0072400E00824002C4DD12B074BD50A9B0093181C0E300021FFF7D9F80A9B0093181C16300021FFF7D2F80A9B00932023009A3B
:40110000D372029B0A9E0093181C311CFFF704F981460098311C0022FFF710F90A981C300021FFF7BBF80123029AD3704B46002B20D0029BDE6A03A849460022FFF796FD20
:40114000041E17D10298311CFFF7EEF9041C4B46013B029AD3600DE0002C0BD103AB9B79DA0604D4B20705D5DB0702D402E0042400E00724002C08D12B0701D540231D4346
:40118000029BDB6A3B620A9B7B62002C51D1029B98460A9E181C311CFFF7BEF8B860301C1C30FFF76BF8F86043463B60DB88BB803D7400237B74FB617B6128339846B8443D
:4011C0004046002180229200FFF77AF8AB0630D5FD68002D2DD07D61029B5E897602B9680AE0381CFFF71AFC011E012900D802244B1C00D10124AD1B002C01D1B542F0D8F9
:40120000B961002C15D1EB0513D0029E301CFFF777F800280AD06D0A2A18FA61707841460123FFF70FF8002802D102E0022400E00124002C01D000233B60201C00E00920B0
:401240000FB00CBC90469946F0BDC046F0B55F4656464D464446F0B483B0041C8846151C1E1C0023336001A9FFF714F9002800D0ABE0607C002800D0A7E0237CDB0700D4B6
:40128000A2E0E36862699F1ABD4200D997E02F1C95E06369DA0500D07AE05A0A01994D89013D154014D1002B01D1A06803E0201CA169FFF7B3FB012803D8022363740220B9
:4012C00083E0431C03D10123637402307DE0A061019B9A46181CA169FFF712F8002803D102236374023070E08146A9447B0A9B4627D0EB1852465289934201D9531B9B4614
:401300005346587841464A465B46FEF79BFF002803D001236374012057E01023E356002B0CDAE3694A46981A584507D24002211C2831404480229200FEF7B8FF5B465D02F2
:4013400035E0E2694A4521D01023E356002B0FDA211C2831534658780123FEF77BFF002802D00120607430E0237C7F2213402374211C2831019B58784A460123FEF762FF46
:40138000002803D00123637401201EE04B46E3616369D905C90D8025AD006D1ABD4200D93D1C2831611840462A1CFEF77FFFA84463695B19636133685B1933607F1B002F4D
:4013C00000D066E7002000E0072003B03CBC90469946A246AB46F0BD30B583B0041C01A9FFF758F800283ED1237C5A063BD55BB2002B0DDA211C2831019B5878E2690123C5
:40140000FEF728FF00282DD1237C7F22134023740198216AFFF788F8002824D1656AEA7A20231343EB722068291CA268FEF786FF281C1C30E168FEF731FF281C1630002166
:40144000FEF72CFF281C12300021FEF723FF0123019AD3700198FFF787FD237C40229343237400E0012003B030BDC04610B582B0041CFFF7B1FF002807D1201C01A9FFF7CB
:4014800009F8002801D10023236002B010BDC04608B5002000F068FE08BDC04608B5012000F062FE08BDC04638B5051C082419E06BB2002B03DA012000F06EFE02E0002038
:4014C00000F06AFE0A2000F093FC012000F058FE142000F08DFC002000F052FE6D00EDB2013CE4B2002CE3D1002000F055FE38BD70B5061C0D1C002404E0305DFFF7D4FF92
:401500000134E4B2AC42F8D370BDC04638B50024082513E0012000F03FFE012000F030FE00F046FE012801D101231C43002000F027FE0F2000F05CFC6400013D002DE9D14F
:401540006408002000F028FEE0B238BDF8B5071C0E1C002405E03D19FFF7D8FF28700134E4B2B442F7D3F8BD08B5FFF79DFFFFF7CDFF08BD08B50A2100F022FE00F0A0FCEA
:40158000FF20FFF7F1FFFF3843425841C0B208BD08B5FFF783FFFF20FFF7E6FF08BDC04610B5FFF775FFFF20FFF7DEFFFA204000FFF7E0FF041E02D1FFF7EAFF00E0012477
:4015C000201C10BD38B5041C0D1C43B2002B07DA7F231C4037200021FFF7F4FF012836D80C2C05D0FFF7D4FFFFF7DAFF00282DD040202043FFF7B8FF280EFFF7B5FF280CC7
:40160000C0B2FFF7B1FF280AC0B2FFF7ADFFE8B2FFF7AAFF002C01D0012000E09520082C00D18720FFF7A0FF0C2C02D1FF20FFF79BFF0A24FF20FFF797FF031C020603D58D
:40164000013CE4B2002CF5D1181C00E0FF2038BD08B5C9B2FFF77AFF08BDC04638B5051C0C1C14220D4B1A70FF20FFF77DFFFF2803D10A4B1B78002BF6D1FE280BD1281C11
:40168000211CFFF7E5FFFF20FFF76EFFFF20FFF76BFF012000E0002038BDC0460C01002008B5C9B2FFF724FF08BDC04638B5051C0C1CFA204000FFF75DFF00281BD0201C7C
:4016C000FFF752FFFD2C13D0281C80218900FFF7E7FFFF20FFF748FFFF20FFF745FFFF20FFF742FF1F231840052803D0002002E0012000E0012038BD30B583B0642000F003
:40170000DFFB4C4B1B789B0709D54A4B1878C0B28EE0FF20FFF728FF013CE4B200E00A24002CF6D100200021FFF74CFF012866D16422414B1A700730D5214900FFF742FFE5
:4017400001283BD107E0FF20FFF70EFF01AB58550135EDB200E0251C032DF4D901AB9B78012B4ED101ABDB78AA2B4CD1324B1B78002B06D0A9208021C905FFF723FF00285B
:40178000F4D12D4B1B78002B3FD03A200021FFF719FF002808D000243CE0FF20FFF7E4FE01AB18550134E4B2032CF6D901AB1B785B0601D50C242DE004242BE0A9200021AD
:4017C000FFF700FF012802D80224A92501E001240125194B1B78002B05D0281C0021FFF7F1FE0028F5D1144B1B78002B0FD0102080218900FFF7E6FE00280AD10AE0002461
:4018000008E0002406E0002404E0002402E0002400E00024084B5C70FFF7BAFE002C04D0044A137801218B431370024B1878C0B203B030BDCC0000200C010020014B187883
:40184000C0B27047CC00002070B5051C141E2CD0184B1B78DB072AD4174B5B781B0700D44902012C01D9122600E01126301CFFF7A9FE002813D1281C80218900FFF7EEFEF8
:40188000002806D080239B009C466544013C002CF1D1122E03D10C200021FFF793FEFFF777FE601E8441E0B202E0042000E0032070BDC046CC0000200C01002070B5051C73
:4018C0000E1C141E45D0264B1B78DB0743D4244B1B785B0741D4234B5B781A0700D44E02012C0CD11820311CFFF76CFE00282AD1281CFE21FFF7DAFE002821D123E00622F3
:401900001A4203D09720211CFFF75CFE1920311CFFF758FE002816D1281CFC21FFF7C6FE002806D080239B009C466544013C002CF2D10020FD21FFF7B9FE002802D002E07E
:40194000002400E00124FFF723FE601E8441E0B204E0042002E0032000E0022070BDC046CC0000200C010020F0B585B00C1CCA4B1B78DB0700D5CEE1392800D9C8E1800084
:40198000C64B1B589F46FFF70BFE002801D1012400E00024FFF7FCFDBBE109200021FFF711FE002839D168461021FFF757FE002835D06B461B789B09012B0FD16B465A7AC0
:4019C000197A0B02D1186B46DA793F2313401B04CB1801339B022360002421E06B465A79997AC8095B7A0F210A408118032213405B00CB180233DBB26946087A8009C97966
:401A000089004018694689790A40920282180132093B9A402260002402E0012400E00124FFF7B6FD75E19E4B5B785B0721D58D200021FFF7C7FD00284ED1FF30FFF794FD01
:401A400068461021FFF70AFE002807D1012448E0FF20FFF789FD013DEDB200E03025002DF6D16B469B7A1A09102393402360002437E009200021FFF7A5FD00282ED1684637
:401A80001021FFF7EBFD00282AD0854B5B789B0711D56B469A7A3F231A4052006B46DB7ADB09D3185A1C6B465B7B9B09013B9A402260002415E06B469B7A5B06DB0E5A1C4A
:401AC0006B46DB7A03211940C9005B09CB18013353432360002404E0012402E0012400E00124FFF755FD14E16D4B5B780B7000240FE109200021FFF765FD002807D1201C98
:401B00001021FFF7ABFD002803D1012402E0012400E00024FFF73CFDFBE00A200021FFF751FD002807D1201C1021FFF797FD002803D1012402E0012400E00024FFF728FDD3
:401B4000E7E03A200021FFF73DFD00280AD001240CE0661CFF20FFF707FD2070013DEDB2341C00E00425002DF3D10024FFF710FDCFE08D200021FFF725FD00280AD1FF30A0
:401B8000FFF7F2FC201C4021FFF768FD002803D1012402E0012400E00024FFF7F9FCB8E03D4A117801230B4313700024B1E00978090763685B0219436388013BDB05DB0DDC
:401BC000194380231B0619433020FFF7FBFC002824D16422324B1A70FF20FFF7C5FCFF2803D12F4B1B78002BF6D1FE2818D1A668658806E0771CFF20FFF7B6FC3070013D8A
:401C00003E1C002DF6D16488264B1C1B03E0FF20FFF7AAFC013C002CF9D102E0012400E00124FFF7B5FC74E00978090763685B0219436388013BDB05DB0D194380231B06C6
:401C400019433120FFF7BEFC002823D1FF30FFF78BFCFE20FFF788FCA368658805E05E1C1878FFF781FC013D331C002DF7D164880C4B1C1B03E0FF20FFF776FC013C002C7E
:401C8000F9D1FF20FFF770FC1F23184005280BD001340AE0012408E0CC000020602300000C010020020200000024FFF771FC30E00978090763685B02194363881B0A194353
:401CC00084231B0619433120FFF77CFC002819D1FF30FFF749FCFE20FFF746FCA078FFF743FC0E4C03E0FF20FFF73EFC013C002CF9D1FF20FFF738FC1F231840052803D040
:401D0000013402E0012400E00024FFF741FC00E00424201C00E0032005B0F0BD01020000FEE7C04670B50F4E0F4D13E029686B68AC68002202E001C901C30432A242FAD1D9
:401D4000E868002202E0002102C304328242FAD11035013E002EE9D100F0C4FAFEF72CFAFEE7C04601000000A824000008B50F4A136801218B43136000230AE0032B03D86D
:401D80009A000B49505800E00A4899000A4A885001332F2BF2D9FEF795F90022074B1A60024A116801230B43136008BD0000104000000000211D000000000020C0000020CF
:401DC0000323044A1360044A13600022034B1A607047C0463000304030003140000E3F4008B50A1C002100F0A3FA08BD000000000230800803D00138FDD1C046C046C046CA
:401E00007047EFF3108072B6704780F31088704710B586B0041CFFF7F4FF0E4B1B6800930D4B1B680193033C0C4B1B5D02930C4B1B68039304AA0B4B04936B4605930A4BAA
:401E40001A600A490A4A11601B68FFF7DEFF06B010BDC04608010B4000010B405424000030001040B6EA0000080010401700008004001040024B1B68012018407047C04670
:401E80000C002E401F2318401E3B8340181C014B1860704700E100E001BE704738B5041C0D1C1F2802D90020FFF7F6FFA400034B9C4664442068256038BDC04640000020C5
:401EC00010B5041C06E0084B1868FFF791FF074B9C46644480231B029C42F4D8024B58686043FFF785FF10BDD00000200080FFFF08B5034B1B7A5843FFF77AFF08BDC0469E
:401F0000D000002010B5041C0F4A116801230B4313600E4A0E4B1A600E4A1368802109020B431360002809D100200CE00120FFF7DFFFFFF79FFF002804D1013C002CF5D1E7
:401F4000102000E0002010BD60F02E400220000078002E4010002E40034B1868C0231B02184000D00120704700010B4010B50D4B1A6801218A431A601A68022082431A601B
:401F8000094A10683024A043203C204310601068093CA043014311601A68802109060A431A6010BD00F02E4000FF2E4038B51D4B1B6801241C40002802D0012816D02BE09D
:401FC000184B19680122914319601968022081431960154B19682E3081432038014319601968093881430A431A6018E00D4B1A6802218A431A600C4A10680725A8430143E3
:402000001160116830208143103801431160196801220A431A6002E00020FFF73DFF201C38BDC04600F02E4000FF2E4008B5FFF7E8FE044A1368C02109020B431360FFF7FF
:40204000E4FE08BD00010B4010B5FFF7DAFE08490A68084B1A408024E40122430A600A6813408022120213430B60FFF7CEFE10BD00010B40FF3FFFFF70B5061CFFF7C1FEC3
:40208000041CFFF769FF002803D0FFF7DDFF012500E000250848331C0340084A106808490840184310601368012D01D1FFF7BEFF201CFFF7AAFE70BD0404040010020B40FC
:4020C000FBFBFBFF10B5244B1B685B0715D5234B5B685B070ED5224B596A042001401F4C62688A4362605A6A82435A629B69002B00D098470420FFF7BFFF174B1B685B05DE
:4021000018D5164B5B685B0510D5154B596A8022D2001140114842688A434260596A114A0A405A62DB69002B00D098478020C000FFF7A2FF084B1B685B030CD5074B5B688C
:402140005B0304D5064B1B6A002B00D098478020C002FFF791FF10BD10020B40E000002010010020FFFBFFFF04490A68FD231A404000FB3B18401043086070470000044080
:4021800004490A68FB231A408000F73B18401043086070470000044004490A68F7231A40C000EF3B184010430860704700000440024B1868012318407047C04604000440AF
:4021C000002243088B4274D303098B425FD3030A8B4244D3030B8B4228D3030C8B420DD3FF22090212BA030C8B4202D31212090265D0030B8B4219D300E0090AC30B8B426E
:4022000001D3CB03C01A5241830B8B4201D38B03C01A5241430B8B4201D34B03C01A5241030B8B4201D30B03C01A5241C30A8B4201D3CB02C01A5241830A8B4201D38B022E
:40224000C01A5241430A8B4201D34B02C01A5241030A8B4201D30B02C01A5241CDD2C3098B4201D3CB01C01A524183098B4201D38B01C01A524143098B4201D34B01C01AA3
:40228000524103098B4201D30B01C01A5241C3088B4201D3CB00C01A524183088B4201D38B00C01A524143088B4201D34B00C01A5241411A00D20146524110467047FFE7FF
:4022C00001B5002000F00CF802BDC0460029F7D003B5FFF775FF0EBC4243891A1847C0467047C0460E4B70B500251E1C0D4CE41AA410A54204D0AB00F35898470135F8E79C
:4023000000F0C0F8084B00251E1C084CE41AA410A54204D0AB00F35898470135F8E770BD90240000902400009024000098240000031C8218934202D019700133FAE77047DE
:4023400000000000544553542E54585400000000222A2B2C3A3B3C3D3E3F5B5D7C7F0000861900009A190000101D0000261A0000101D0000101D0000101D0000A01B00002D
:40238000101D0000101D0000101D0000101D0000101D0000101D0000101D0000101D0000101D0000101D0000101D0000101D0000101D0000101D0000101D0000101D00004D
:4023C000101D0000101D0000101D0000101D0000101D0000101D0000101D0000101D0000101D0000101D0000101D0000101D0000101D0000101D0000101D0000101D00000D
:40240000101D0000101D0000101D0000101D0000101D0000101D0000101D0000101D0000101D0000101D0000E81A0000F21A00001A1B0000421B0000721B0000AE1B0000E4
:40244000281C0000B01C000000300F40000400400F400004030405060708090A0B0C0E0F101112131415161718191B1C1D1E1F2021222325262728292A2B2E2F30313233AF
:4024800034350000F8B5C046F8BC08BC9E467047810100006D1D0000F8B5C046F8BC08BC9E46704759010000B8240000C8000020200000005000000000000000010000008C
:4024C0000000C05D80BB000030000000006CDC02F000000004040400000000000000000000000000000000000000000000000000000000000000000000000000000000000E
:40250000000000000000000000000000000000000000000000000000000000000000000000000000000000000000000000000000000000000000000000000000000000009B
:40254000000000000000000000000000000000000000000000000000000000000000000000000000000000000000000000000000000000000000000000000000000000005B
:40258000000000000000000000000000000000000000000000000000000000000000000000000000000000000000000000000000000000000000000000000000000000001B
:4025C00000000000000000000000000000000000000000000000000000000000000000000000000000000000000000000000000000000000000000000000000000000000DB
:020000040001F9
:0200000490303A
:020000004F238C
:0200000490402A
:4000000000000000000000000000000000000000000000000000000000000000000000000000000000000000000000000000000000000000000000000000000000000000C0
:400040000000000000000000000000000000000000000000000000000000000000000000000000000000000000000000000000000000000000000000000000000000000080
:0200000490501A
:0C00000000020E34119E00010E4160C190
:0200000490600A
:0100000001FE
:00000001FF