:400000000040002011000000D9190000D919000080B500AF01F00CFD80B500AF324B12221A6001F0BFFF314B181C01F0E9FD012001F0C8FF302001F0F3FD2D4B2D4A1A60D5
:400040002D4B8022D2051A602C4B2C4A126802210A431A602A4B2B4A1A602B4B2A4A126808218A431A60FA23DB00181C01F024FE264B181C01F03AFF254B264A1A60264BB3
:40008000264A1A60264BD02252021A60224B254A1A60254B802212061A60244B8022D2021A60234B41221A60224B40221A60224B0820191C01F04AFE082001F0C1FE1F4BF3
:4000C00020221A600C4B1E4A1A601E4B08221A60C0461C4B1B6808221340FAD1194B01221A60BD4680BDC04630001040001BB70004010B40060000800C020B4078002E4018
:400100007C002E402D3E00006CF02E40DC05000004030140007FBB000000014041FF00800003014040FF008008010B4000010B401C010140080101405521000008020B4026
:400140000500004010020B4080B582B000AF72B6404B00221A60404B01221A70FB1D00221A7023E0FB1D1A78131C5B009B185B003A4A9B183B603B681A78597809020A4307
:40018000997809040A43DB781B061343191C3B681A795B791B0213439BB2081C191C01F0CBFCFB1D1A78FB1D01321A70FB1D1B78012BD7D92A4A2B4B101C191C01F0CCFCF0
:4001C000294B2A4A1A602A4B992212041A60294B992212041A60284B992212041A60274B02221A60264B02221A60264A254B1B78DBB202210B43DBB21370234A224B1B7853
:40020000DBB23C218B43DBB214210B43DBB213701C4A1C4B1B78DBB216210B43DBB213701A4B22221A601A4B1A4A1A601A4B02221A601A4B1A4A1A601A4B80221A601A4BD2
:400240001A4A1A60FFF7E8FE01F0C6FCBD4602B080BDC0466CF02E401C700F40F05D0000FC5D0000205E000000000240990000EE00500F4010500F4020500F40200010400A
:4002800000800F4000700F4001700F4000000440080004403100DB001800044008010440B66D1B0000020440080204400300400010B5064C2378002B07D1054B002B02D094
:4002C000044800E000BF0123237010BD5801002000000000D45B000008B5084B002B03D00748084900E000BF07480368002B00D108BD064B002BFBD09847F9E70000000019
:40030000D45B00005C010020C80000200000000080B500AF094B1B8801339AB2074B1A80064B1A88FA239B009A4204D1034B00221A8002F053FABD4680BDC0468401002052
:4003400080B582B000AF064B7B6002F081F97B680020191C01F0DEFEBD4602B080BDC0461103000098B500AF02F00AFA031C0C1C181C211CBD4698BD80B582B000AFBB1DCE
:4003800000221A80BB1D044A12881A80BB1D1B88181CBD4602B080BD84010020B0B582B000AF78600A1CBB1C1A807B681C1C00231D1C201C291C02F0C9F9034BBA1C1288C2
:4003C0001A80BD4602B0B0BD8401002080B584B000AF78607B68702213401A09131C9B009B185B00FB607B680F221340FA68D318FB60FB68181CBD4604B080BD80B584B08B
:4004000000AF78607A68E023DB0113401A0B131C9B009B185B00FB607A68F0231B0113401B0AFA68D318FB60FB68181CBD4604B080BDC04680B584B000AF78607A68C02352
:400440009B0313401A0D131C9B009B185B00FB607A68F0231B0313401B0CFA68D318FB60FB68181CBD4604B080BDC04680B500AF02F060FCBD4680BD80B582B000AF78600B
:400480000020002102F068FC7B68181C02F09EFC034B181C02F09AFCBD4602B080BDC046E05B000080B582B000AF021CFB1D1A7001200E2102F050FCFB1D1B78002B03D1B7
:4004C000022002F0AFFC02E0032002F0ABFCBD4602B080BDB0B584B002AF02F05DF9031C7B607B68181CFFF7A5FF051C7B68181CFFF784FF041C7B68181CFFF767FF011C0F
:40050000094A0A4B0091101C191C2A1C231C04F045FF0120002102F01FFC034B181C02F055FCBD4602B0B0BD88010020EC5B000098B500AF03F050F90A4B01221A60FFF71E
:4005400011FF031C0C1C084A13605460FFF714FF021C064B1A6002F0C5FD03F047F9BD4698BDC046FC010020F0010020F801002080B500AF02F0B6FD03F038F9054B181CFC
:4005800003F0DAF803F028F9034B00221A60BD4680BDC04631050000FC01002080B582B000AF054B1B687B60034B00221A607B68181CBD4602B080BDFC01002080B500AF27
:4005C000054B00221A6002F08DFD03F00FF903F0F9F8BD4680BDC046FC01002080B500AF054B00221A6002F07DFD03F0FFF803F0F3F8BD4680BDC046FC01002090B583B072
:4006000000AF78603960064B5C681B687A6813605460044B1A683B681A60BD4603B090BDF0010020F801002080B500AF02F072FD064B1B78002B03D1054B181C02F01CFE26
:40064000024B01221A70BD4680BDC046F40600205506000080B500AF02F08EFE031CDB43DBB2181C02F064FE022002F0F9FDBD4680BDC04680B584B000AF021CBB1D1A8019
:40068000BB1D1B885B001A1CFA239800111C03F0EBFA031CFB60FB68181C02F09DFD02F059FDBD4604B080BD80B582B000AF021CFB1D1A7002F06AFDFB1D1B78181C02F09B
:4006C00037FEBD4602B080BD80B584B000AF78600A1CFB1C1A70FB1C1B78FB600C4B1B68002B01D100F03AF87A68FB685340BB607B681A0ABB68FF211940064B8900CB588B
:4007000053407B607B68181CBD4604B080BDC046000200200402002080B586B000AFF860B9607A607B683B6100237B610DE0FA687B69D3181B783A69101C191CFFF7C4FFA1
:40074000031C3B617B6901337B617A69BB689A42EDD33B69181CBD4606B080BD80B584B000AF0023FB601FE0FB687B600023BB600FE07B680122134005D07B685B080F4A8D
:4007800053407B6002E07B685B087B60BB680133BB60BB68072BECDD094BFA6892007968D150FB680133FB60FB68FF2BDCDD054B01221A60BD4604B080BDC0462083B8ED87
:4007C000040200200002002080B500AF02F0FAFD03F056F90B4B181C03F056F90A4B181C02F090FF094B00229A74094B0122DA74074BFF221A70074B00221A6002F04AFE5E
:40080000BD4680BD1C5C0000345C0000200700200007002004060020B0B59EB004AF334BDB7C002B5FD1324B9B7C012B5BD1304B18782E4B1B7898420AD12E4B181C02F0EB
:4008400061FF2A4B0122DA74294B00229A744AE0264BDC689B68210000231A1C0D1C234BDC689B681C1C214B1B8A181C1F4B9B7C191C3423FA18204B009401900291101C69
:40088000191C00222B1C04F089FD194B1B781C1C3A1C3423FB18101C191C221C00F0D2FC3B1C181C02F02EFF104B00229A740F4B0122DA740E4B1A780C4B1A700C4B00228F
:4008C0009A740E4B181C03F0DFF83B1C181C03F0DBF80B4B181C03F0D7F8064A3B1C101C191C04F08AFDBD461AB0B0BD000700202007002040070020405C0000585C000014
:40090000645C000080B58AB000AF304BDB7C012B56D12F4B9B7C002B52D13AE07B6ADBB23A1C101C191C00F0FDF97B6ADBB2181C03F036F83B1C1B7E012B2AD13B1C1B88D4
:40094000DAB2234B1A70224B01229A741F4B0022DA74204B01221A601F4B00221A603B1C9A7C1B4BDA703B1C1B8A1B0A9BB2DAB2174B5A703B1C1B8ADAB2154B9A70174BD6
:40098000181C03F081F8164B181C03F07DF8012317E002F05FFD031E06D002F093FE031C7B627B6A002BB9D10B4B1B68591C0A4A11601D2B02DD074B00221A60002300E0F6
:4009C0000023181CBD460AB080BDC04600070020200700200406002008060020685C0000645C000080B500AF024B1B68181CBD4680BDC0460406002090B585B000AFB860BD
:400A0000F9607A60074ABB68FC689360D4607B689AB2044B1A82034B01229A74BD4605B090BDC0460007002080B500AF024B5B78181CBD4680BDC0462007002080B582B08D
:400A400000AF074B9B7C012B02D100237B6001E001237B607B68181CBD4602B080BDC0460007002090B5A5B002AF0023BB67FF23FB6700238422BA1813607BE06823F91832
:400A80006423FA187023FB18081C111C1A1C002300F0B6F8031C7B677B6F012B11D16823FB181A686423FB181B881C1C391C514B081C191C231C04F071FC3B1C181C02F0BA
:400AC000E3FF381C4C498423FB181A68BB6F04F065FC3B1C181C02F0D7FF7B6F012B41D1FFF740FC031C0C1C1A1C6823FB185A60FFF742FC031C9AB26423FB185A80682350
:400B0000FB1818686823FB1859686423FB181A886423FB185C883B6F0093231C00F0CCF86823FB185A686423FB185B881C1C391C324B081C191C231C04F030FC3B1C181CAF
:400B400002F0A2FF0023BB673B6FFA6F9A4211D03B6FFB678423FB181B6801338422BA18136007E0BB6F0133BB67FA239B00181C01F098F98423FB181B68092B03DCBB6F16
:400B8000142B00D87AE7BB6F132B04D98223FB1801221A8026E06823F9186423FA187023FB18081C111C1A1C012300F029F8031C7B677B6F012B09D16823FB181A686423CE
:400BC000FB181B88101C191CFFF7E8FB3B6F0093002000210022002300F06EF88223FB1800221A808223FB181B88181CBD4623B090BDC046805C0000905C0000B05C0000EC
:400C000090B58DB000AFF860B9607A603B600123FB623AE01423FA182B23FB181B78101C191C00F0BBFB031CFB622B23FB181B78181C02F0B5FE1423FB181B7C012B22D175
:400C40001423FB181B881A1C7B681A603B68012B0AD11423FB185A68FB681A601423FB181A89BB681A800CE0FFF77CFB031C0C1C1A1CFB681A60FFF77FFB031C9AB2BB6806
:400C80001A80012313E00023FB6202F0E3FB031E0AD002F017FD021C2B23FB181A702B23FB181B78002BB5D10023FB62FB6A181CBD460DB090BDC046B0B5A0B002AFF8609A
:400CC000B960191CBB1D1A803B1D0A1C1A80BB1D1C883B1D1B881022B8181149FD68BA68009201932A1C231C04F058FB4423F9181023FA188823FB181B68081C111C1A1C4B
:400D000000F0A0FA4423FB18181C02F0FBFC4423FB18181C02F0B8FEBD461EB0B0BDC046C85C0000F0B599B004AFF8610A1C1B23FB181A700023FB641B23FE181B23FB18B2
:400D40001B78181C00F01EFA031C33701B23FB181B783C2B19D1C34B01221A70FB69181C00F052FAC04B00221A70C04B00221A70BF4B00221A70BF4B00221A70BE4B002219
:400D80001A70BE4B00221A70EDE1B64B1B780A2B00D9E4E19A00BA4BD3181B689F461B23FB181B78181C00F015FA031E1ED0FB691A881B23FB181B789BB213439AB2FB696A
:400DC0001A80A94B1B780133DAB2A74B1A70A64B1B78042B03D1A34B02221A70C3E1FB691B881B019AB2FB691A80BCE19D4B00221A700123FB64B6E11B23FB181B78212BE7
:400E000003D1984B03221A70ADE1FB69181C00F0FBF90223FB64934B00221A70A3E11B23FB181B78181C00F0D5F9031E1BD0FB695A681B23FB181B781A43FB695A608B4B73
:400E40001B780133DAB2894B1A70884B1B78022B03D1844B04221A7085E1FB695B681A01FB695A607FE1FB69181C00F0CDF97D4B00221A700323FB6475E11B23FB181B7834
:400E80003A2B03D1774B05221A706CE1FB69181C00F0BAF90423FB64724B00221A7062E11B23FB181B78181C00F094F9031E2DD0FB699A68DB681B2179180978C9B239610D
:400EC0000021796139691143B96079691943F960FB69B968FA689960DA60664B1B780133DAB2644B1A70634B1B78102B03D15D4B06221A7037E1FB699A68DB68110F1D0151
:400F00000D431401FB699C60DD602CE1FB69181C00F07AF90523FB64524B00221A7022E11B23FB181B78181C00F054F9031E1ED0FB691A8A1B23FB181B789BB213439AB295
:400F4000FB691A824C4B1B780133DAB24A4B1A70494B1B78042B03D1424B07221A7002E1FB691B8A1B019AB2FB691A82FBE0FB69181C00F049F90623FB643A4B00221A704C
:400F8000F1E01B23FB181B78181C00F023F9031E1DD0FB699A7C1B23FB181B781343DAB2FB699A74354B1B780133DAB2334B1A70324B1B78022B03D12A4B08221A70D2E0B5
:400FC000FB699B7C1B01DAB2FB699A74CBE0FB69181C00F019F90A23FB64224B00221A70C1E01B23FB181B78402B03D11D4B09221A70B8E0FB69181C00F006F90723FB64E9
:40100000184B00221A70AEE01B23FB181B78181C00F0E0F8031E1BD0FB695A691B23FB181B781A43FB695A61114B1B780133DAB20F4B1A700E4B1B78082B03D1094B0A229A
:401040001A7090E0FB695B691A01FB695A618AE0FB69181C00F0D8F80823FB64014B00221A7080E03B07002039070020F906002019070020380700203A0700203C0700202C
:40108000FC5C00001B23FB181B783E2B5DD1FB695A68FB69DC689B6823003B6000237B603E68FB69DC689B681D1CFB691B8A1C1CFB699B7C181C082318217918C9182D4B08
:4010C000009501940290081C191C331C04F066F901235B42BB64284ABB6C101C01211A1CFFF71AFB031CBB64082318229446BC446344181C04F089F9011C08231822BA180F
:40110000D218BB6C101C1A1CFFF706FB031CBB641A4ABB6C101C01211A1CFFF7FDFA031CBB64BB6CDB43BB64FB695A69BB6C9A4205D1FB6901221A760023FB640BE0FB6981
:4011400000221A760A23FB6405E00923FB64FB69181C00F059F80A4B00221A7003E0FB69181C00F051F8FB6CDBB2181CBD4615B0F0BDC046DC5C0000F45C0000F85C0000B4
:401180003B07002080B582B000AF021CFB1D1A70FB1D1B78402B09D9FB1D1B78462B05D8FB1DFA1D1278373A1A700CE0FB1D1B782F2B08D9FB1D1B78392B04D8FB1DFA1D66
:4011C0001278303A1A70FB1D1B78181CBD4602B080BDC04680B584B000AF021CFB1D1A700F23FB1801221A70FB1D1B780F2B03D90F23FB1800221A700F23FB181B78181C12
:40120000BD4604B080BDC04690B583B000AF78607B6800221A807B6800225A607A68002300249360D4607B6800221A827B6800229A747B6800225A617B6800221A76BD46FB
:4012400003B090BD90B591B000AFF860B9607A60BB68FB637B689BB21C1C2423FA18474B101C191C221C04F099F801235B42BB63434ABB6B101C01211A1CFFF74DFA031C84
:40128000BB63FB6B181C04F0C0F8011CFA6BBB6B101C1A1CFFF740FA031CBB63394ABB6B101C01211A1CFFF737FA031CBB63BB6BDB43BB631023F918334ABB6B081C111C28
:4012C0001A1C04F06BF8FA68304B111C1A1C0223081C111C1A1C04F04FF8FA682423FB18101C191C04F07CF8FB68181C04F08DF8031C1A1CFB689A18254B111C1A1C022343
:40130000081C111C1A1C04F037F8FA68FB6B101C191C04F065F8FB68181C04F076F8031C1A1CFB689A181B4B111C1A1C0223081C111C1A1C04F020F8FA681023FB18101CD1
:40134000191C04F04DF8FB68181C04F05EF8031C1A1CFB689A18104B111C1A1C0223081C111C1A1C04F008F8FB68181C04F04DF8031CDBB2181CBD4611B090BD285D000010
:40138000F45C0000F85C0000305D0000385D00003C5D0000405D0000445D000090B585B000AF78600A1CFB1C1A700B23FB18FA1C12781A700023FB60FC1CFB1C1B78181CE9
:4013C00000F020F9031C2370884B1B78072B00D906E19A00864BD3181B689F467B68181C00F052F9834B00221A70834B00221A70824B00221A70824B00221A70FB1C1B783A
:401400003C2B02D1794B01221A70E9E0FB1C1B78181C00F01FF9031E1DD07B681A88FB1C1B789BB213439AB27B681A80714B1B780133DAB26F4B1A706E4B1B78042B03D107
:401440006A4B02221A70CBE07B681B881B019AB27B681A80C4E0654B00221A700123FB60BEE0FB1C1B78212B03D1604B03221A70B6E07B68181C00F007F90223FB605B4BEF
:4014800000221A70ACE0FB1C1B78181C00F0E2F8031E1AD07B685A68FB1C1B781A437B685A60574B1B780133DAB2554B1A70544B1B78082B03D14D4B04221A7090E07B6805
:4014C0005B681A017B685A608AE07B68181C00F0DBF80323FB60454B00221A7080E0FB1C1B78181C00F0B6F8031E1DD07B681A89FB1C1B789BB213439AB27B681A813F4B5F
:401500001B780133DAB23D4B1A703C4B1B78032B03D1364B05221A7062E07B681B891B019AB27B681A815BE07B68181C00F0ACF80423FB602D4B00221A7051E0FB1C1B78E2
:40154000402B03D1294B06221A7049E07B68181C00F09AF80523FB60244B00221A703FE0FB1C1B78181C00F075F8031E1AD07B68DA68FB1C1B781A437B68DA601E4B1B78FC
:401580000133DAB21C4B1A701B4B1B78082B03D1164B07221A7023E07B68DB681A017B68DA601DE07B68181C00F06EF80623FB600E4B00221A7013E0FB1C1B783E2B05D136
:4015C0007B6801221A740023FB6005E00723FB607B68181C00F058F8044B00221A70C046FB68DBB2181CBD4605B090BD10060020485D000018070020F8060020FA06002096
:401600003D07002080B582B000AF021CFB1D1A70FB1D1B78402B09D9FB1D1B78462B05D8FB1DFA1D1278373A1A700CE0FB1D1B782F2B08D9FB1D1B78392B04D8FB1DFA1DDF
:401640001278303A1A70FB1D1B78181CBD4602B080BDC04680B584B000AF021CFB1D1A700F23FB1801221A70FB1D1B780F2B03D90F23FB1800221A700F23FB181B78181C8D
:40168000BD4604B080BDC04680B582B000AF78607B6800221A807B6800225A607B6800221A817B680022DA607B6800221A74BD4602B080BD90B59FB000AF78607B68952BC2
:4016C00004D87B68181C00F0EDFB52E000237B6702F00AF9031C3B673B6F181C02F02CF902F0C8F822E000F04DF800F053F800F057F8962000F0D6FB02F02EF9031CFB66CA
:401700003A6FFB6ED31A181C03F088FA031C0C1C181C211C184A194B02F0ACFB031C0C1C181C211C02F052FB031C7B677A687B6FD31A962B03D97A6F7B689A42D3D902F056
:40174000ABF80823F9180E4A7B6F081C111C1A1C03F024FE0823FB18181C02F095F97A687B6F9A4205D97A687B6FD31A181C00F099FBBD461FB090BDFCA9F1D24D6240400D
:40178000685D000080B500AFFFF7BCF8FFF744F8BD4680BD80B500AFFEF79CFEBD4680BD80B500AFFFF71EF9031E012B03D10020FEF778FE02E00120FEF774FEBD4680BD6A
:4017C00080B500AF62B6264B00221A70244B1B78012B16D002DC002B05D03AE0022B1ED0032B2DD035E000F03FF8021C1D4B1A601C4B1B68012B03D1194B01221A7028E03F
:4018000027E000F063F8021C164B1A60154B1B68012B03D1124B02221A701AE019E000F07FF8021C0F4B1A600E4B1B68012B03D10B4B03221A700CE0094B01221A7008E06D
:4018400000F098F8021C074B1A60054B01221A70C046FA235B00181CFFF72CFFB6E7C046A40700209C06002080B500AFFEF7DCFE0320FEF7FFFEFEF7F9FD104B181CFEF7C7
:40188000FBFDFEF75DFDFEF79FFFFEF771FEFFF7E9F8021C0A4B1A60094B1B68002B06D1084B181CFEF7E8FDFEF714FEFCE7064B181CFEF7E1FDFEF70DFEE8E77C5D000002
:4018C0009C0600208C5D0000985D000080B582B000AFFFF787F8031E07D0FFF7AFF8031E03D0FFF7A1F8031E10D10A20FEF7C2FE00237B60094B181CFEF7BEFDFEF76EFE2D
:40190000FA235B00181CFFF7D5FE01E001237B607B68181CBD4602B080BDC046A85D000080B582B000AFFEF739FE031C7B607B68012B0CD10D4B181CFEF79EFD0320FEF7E2
:4019400099FEFA235B00181CFFF7B4FE08E0084B181CFEF791FD0120FEF7A6FEFEF72EFE7B68181CBD4602B080BDC046B85D0000C85D000090B587B000AF0320FEF77AFEAB
:40198000134B181CFEF778FDFA235B00181CFFF791FE0823FA183B1D101C191CFEF72EFEBB68FC687A68181C211CFFF725F8094B181CFEF761FDFA23DB00181CFFF77AFE81
:4019C00001237B617B69181CBD4607B090BDC046D45D0000E05D000080B500AFFEE7C04680B584B000AF78600F4B1A687B68D3181A1C0E4BD31A802B09DC0B4B1B68FB60AB
:401A0000094B1A687B68D218074B1A6007E003F087FC031C0C221A6001235B42FB60FB68181CBD4604B080BDCC000020B808002080B586B000AF224B7B61224B3B61204BC9
:401A40007B6135E03B691B68FB603B695B68BB603B699B683B6000237B600CE0FB681A68BB681A60BB680433BB60FB680433FB607B6804337B607A683B689A42EED13B69A0
:401A8000DB683B6000237B6008E0BB6800221A60BB680433BB607B6804337B607A683B689A42F2D13B6910333B617B69013B7B617B69002BC6D103F039FCFFF781FEFEE76E
:401AC000010000007C60000080B582B000AF154B144A126801218A431A6000237B600FE07B68032B04D8104B7A689200D35800E00E4B0F4A796889008B507B6801337B60B5
:401B00007B682F2BECD9FEF71FFB0A4B00221A60044B044A126801210A431A60BD4602B080BDC0460000104000000000D919000000000020C000002080B582B000AF78607B
:401B400039607A683B68101C00211A1C03F01DFCBD4602B080BDC04680B586B000AF7860396000233B6100237B612FE07B699B007A68D3181B68BB600F23FB18BA681A708D
:401B8000BB68FF229343BB6018E03B695B003A68D3181B781A1CBB68D318191C3B695B003A68D3185B780B703B6901333B610F23FB181A780F23FB18013A1A700F23FB18EC
:401BC0001B78002BE1D17B6901337B617B69082BCCD9BD4606B080BD80B500AF054B03221A60054B03221A60044B00221A60BD4680BDC0463000304030003140000E3F400E
:401C00000230800803D00138FDD1C046C046C0467047EFF3108072B6704780F31088704790B58BB000AF78602723FC18FFF7F1FF031C2370184B1A680C23FB181A60174B34
:401C40001A680C23FB185A607B68033B144AD35C1A1C0C23FB189A60124B1A680C23FB18DA601C23FB18104A1A600C23FA181C23FB185A600D4B1C22BA181A600C4B0D4A68
:401C80001A600A4B1B682723FB181B78181CFFF7C4FFBD460BB090BD08010B4000010B404C5F000030001040B6EA000008001040040010401700008080B584B000AF78604C
:401CC0000023FB60154B154A126801210A431A60134B144A1A60144B134A1268802109020A431A607B68002B12D01023FB600CE0012000F0FBF800F019F8031E02D00023E0
:401D0000FB6005E07B68013B7B607B68002BEFD1FB68181CBD4604B080BDC04660F02E4078002E400220000010002E4080B582B000AF054B1B68012213407B607B68181C75
:401D4000BD4602B080BDC0460C002E4080B584B000AF021C3960FB1D1A7080239B05FB60FB1D1B781F2B02D9002000F091F8FB1D1B7810339B00FA68D3181B68BB60FB1DED
:401D80001B7810339B00FA68D3183A681A60BB68181CBD4604B080BD90B587B000AF021CFB1D1A70BB1D0A1C1A70BB1D1B78032B02D9002000F06CF8FB1D1B781F2B02D9D3
:401DC000002000F065F8FB1D1B7803221340DB0006337B611323FC18FFF71BFF031C2370FB1D1B789B08DBB29B00144A944663441B68FB607B6903229A40131CDA43FB6892
:401E00001340FB60BB1D1A787B699A40131CFA681343FB60FB1D1B789B08DBB29B00074A94466344FA681A601323FB181B78181CFFF7F3FEBD4607B090BDC04600E400E09E
:401E400080B582B000AF021CFB1D1A70054BFA1D12781F210A40012191400A1C1A60BD4602B080BD00E100E080B582B000AF021CFB1D1A70054BFA1D12781F210A40012158
:401E800091400A1C1A60BD4602B080BD80E100E080B582B000AF021CFB1D1A7001BEBD4602B080BD80B582B000AF786009E00C4B1B68181CFFF7A4FE7B680A4A94466344C2
:401EC0007B607A6880231B029A42F0D8064B1B687A685343181CFFF793FEBD4602B080BDDC0000200080FFFFD400002080B582B000AF021CBB1D1A80BB1D1B88044A127861
:401F00005343181CFFF77CFEBD4602B080BDC046D800002080B500AF0E4B0E4A126801218A431A600B4B0B4A126802218A431A60094B094A126830218A4310210A431A6039
:401F4000054B054A126807218A4301210A431A60BD4680BD00F02E4000FF2E4080B500AF0E4B0E4A126802218A431A600C4B0C4A126807218A4302210A431A60084B084A3B
:401F8000126830218A4320210A431A60034B034A126801210A431A60BD4680BD00F02E4000FF2E4080B500AFFFF7B4FF044B044A1268802109060A431A60BD4680BDC04617
:401FC00000F02E4080B584B000AF78600C4B1B6801221340FB607B68002B02D0012B03D005E0FFF797FF06E0FFF7B8FF03E00020FFF74EFFC046FB68181CBD4604B080BD2E
:4020000000F02E4090B583B000AFFC1DFFF701FE031C2370074B074A1268C02109020A431A60FB1D1B78181CFFF7F7FDBD4603B090BDC04600010B4080B500AF054B1A68B7
:40204000C0231B02134001D0012300E00023181CBD4680BD00010B4090B583B000AFFC1DFFF7D7FD031C23700C4B0C4A12680C490A408021C9010A431A60084B074A126883
:4020800007490A40802109020A431A60FB1D1B78181CFFF7C2FDBD4603B090BD00010B40FF3FFFFF90B585B000AF78600B23FC18FFF7AFFD031C2370FFF7BEFF031E04D0B5
:4020C0000123FB60FFF7C8FF01E00023FB607B680D4A13407B600D4B0C4A12680C4911407A680A431A60094B1B68FB68012B01D1FFF788FF0B23FB181B78181CFFF78DFD29
:40210000BD4605B090BDC0460404040010020B40FBFBFBFF80B584B000AF786039600023FB607B68022B0AD8094B7A689200D358FB60074B7A6892003968D15002E000206A
:40214000FFF7A6FEFB68181CBD4604B080BDC046AC06002080B500AF334B1B68042213401FD0324B1B680422134017D0304B1B6804221340DA432D4B1B681A402B4B1A60DC
:402180002B4B1B68042293431A1C294B1A60294B1B68002B02D0274B1B6898470420FFF781FF214B1A688023DB00134022D01F4B1A688023DB00134017D01D4B1A688023C2
:4021C000DB001340DA43194B1B681A40174B1A60174B1B68184A1A40154B1A60154B5B68002B02D0134B5B6898478023DB00181CFFF758FF0C4B1A688023DB02134011D050
:402200000A4B1A688023DB02134006D0094B9B68002B02D0074B9B6898478023DB02181CFFF740FFBD4680BD10020B40E4000020A8060020AC060020FFFBFFFF80B582B00D
:4022400000AF786039607B683A681A403B689A4201D1012300E00023181CBD4602B080BD80B584B000AF78607B680322134006D17B68181C642101F07DFD0B1E07D17B68B4
:40228000181CC823590001F075FD0B1E02D10123FB6001E00023FB60FB68181CBD4604B080BDC04680B584B000AF78607B68702213401A09131C9B009B185B00FB607B68E7
:4022C0000F221340FA68D318FB60FB68181CBD4604B080BD80B584B000AF78607A68E023DB0113401A0B131C9B009B185B00FB607A68F0231B0113401B0AFA68D318FB609A
:40230000FB68181CBD4604B080BDC04680B584B000AF78607A68C0239B0313401A0D131C9B009B185B00FB607A68F0231B0313401B0CFA68D318FB60FB68181CBD4604B089
:4023400080BDC04680B582B000AF78607A688023DB03101C191CFFF771FF031C181CBD4602B080BD80B584B000AF78607A68C0239B0313401A0D131C9B009B185B00FB60BD
:402380007A68F0231B0313401B0CFA68D318FB60FB68181CBD4604B080BDC04680B584B000AF78607A6880235B0513401A0F131C9B009B185B00FB607A68F0231B0513406B
:4023C0001B0EFA68D318FB60FB68181CBD4604B080BDC04680B584B000AF78607A68C0239B0113401B0BFA2292005343FB607A68F0231B0113401B0A64225343FA68D31820
:40240000FB607B68F02213401A09131C9B009B185B001A1CFB689B18FB607B680F221340FA68D318FB60FB68181CBD4604B080BD80B582B000AF78607A6880231B041340D8
:4024400001D0012300E00023181CBD4602B080BD80B586B000AFF860B9607A603B60FB68DB057B61BB689B057A6913437B617B68181C0A2101F0F8FB031C1B057A691343A9
:402480007B617B68181C0A2101F074FC0B1C1B047A6913437B613B68181C0A2101F0E4FB031C1B037A6913437B613B68181C0A2101F060FC0B1C1B027A6913437B613B6AD1
:4024C000181C0A2101F0D0FB031C1B017A6913437B613B6A181C0A2101F04CFC0B1C1A1C7B6913437B617B69181CBD4606B080BD80B586B000AFF860B9607A607B687B618F
:40250000FB68181C0A2101F0AFFB031C1B073B61FB68181C0A2101F02DFC0B1C1B063A6913433B61BB68181C0A2101F09DFB031C1B053A6913433B61BB68181C0A2101F056
:4025400019FC0B1C1B043A6913433B617B68181CFA23990001F088FB031C1B033A6913433B617B69181CFA23990001F003FC0B1C7B617B69181C642101F076FB031C1B025C
:402580003A6913433B617B69181C642101F0F2FB0B1C7B617B69181C0A2101F065FB031C1B013A6913433B617B69181C0A2101F0E1FB0B1C1A1C3B6913433B613B69181CC9
:4025C000BD4606B080BDC04690B587B000AFF860B9607A60BB68022B05D8BB680C33BB607B68013B7B60BB6801331A225343181C0A2101F039FB031C1A1CFB68D2187B6893
:40260000D2187B689B08D4187B68181C642101F02BFB031C1A1C131C5B009B185B00E4187B68181CC823590001F01EFB031CE318181C072101F09EFB0B1C7B617B69002B2B
:4026400001D107237B617B69181CBD4607B090BD80B500AF034B1B78002B01D100F004F8BD4680BDA807002080B584B002AF154B01221A70144B00221A60144B0022DA60C9
:40268000134B00221A70134B00221A60FC23DB00082009211A1CFFF72BFF031C7B6000230093002000210B220323FFF7D1FE031C3B603A687B68101C191C00F00DF8BD46D3
:4026C00002B080BDA8070020D0060020AC070020C0070020BC07002090B587B000AF786039603B68181CFFF73DFE031C7B613B68181CFFF753FE031C3B613B68181CFFF744
:4027000069FE031CFB603A687B68101C191C00F08BF8031C0C1C0B4A136054600A4B3A685A60094B7A681A6079693A69FB68081C111C1A1CFFF748FF021C034B9A60BD4626
:4027400007B090BDC8070020AC07002090B589B002AF38607960094A3B687C68136054600823F9183B687C6800220092081C1A1C231C00F021F9BD4607B090BDC8070020E2
:4027800090B500AF034B5C681B68181C211CBD4690BDC046C807002090B583B002AF0C4B1B68191C00231A1C0A4B5C681B685B185441094900220092081C1A1C231C00F016
:4027C000FBF8054B1B68181CBD4601B090BDC046D0060020C8070020AC07002090B500AF0D4B1A680D4B1B68D2180B4B1A600A4B1A680B4B1B689A420CD30A4B5C681B68B6
:40280000012100225B185441064A13605460024B00221A60BD4690BDD4060020C8060020CC060020C8070020F0B591B000AF78623962002300243B637C637B6A181CFFF7F6
:40284000C9FD031CFB62564BFB6319E0FB6B181CFFF706FD031E08D03B6B7C6B514900225B1854413B637C6307E03B6B7C6B4E4900225B1854413B637C63FB6B0133FB631A
:40288000FA6BFB6A9A42E1D37B6A181CFFF786FD031CBB62BB6A5A1E444B5200D35ABB63BB6A022B08D9FB6A181CFFF7D9FC031E02D0BB6B0133BB63BB6B3D4A5343BB61C6
:4028C0000023FB613B6B7C6BB969FA695B1854413B637C637B6A181CFFF744FD021C344B5343344A944663443B6100237B613B6B7C6B39697A695B1854413B637C633B6A69
:40290000181CFFF703FD031CBB633B6A181CFFF78FFD031E0BD03B6A181CFFF713FD031E05D0BB6B0B2B02D8BB6B0C33BB63BB6BE12212015343BB600023FB603B6B7C6B53
:40294000B968FA685B1854413B637C633B6A181CFFF7C0FC021C131C1B019B1A9B003B6000237B603B6B7C6B39687A685B1854413B637C633B6A181CFFF794FC031C1D1C26
:4029800000231E1C3B6B7C6B5B1974413B637C633B6B7C6B181C211CBD4611B0F0BDC046B20700000085E2018033E1017C5F00008051010080AEFEFFF0B5A1B002AF786500
:4029C000BA64FB6400233B67A14BBB66A14B7B6619E07B6EBB600023FB60BB6CFC6CB968FA685B1A9441BB64FC64BB6E0133BB66BB6E181CFFF734FC031E02D0964B7B66AF
:402A000001E0944B7B667B6E1D1C00231E1CFB6CB342DED8FB6CB34202D1BB6CAB42D8D80123FB66FA6EBB6E101C191C00F01AF9021C8A4B53437B6618E07B6E3B600023EE
:402A40007B60BB6CFC6C39687A685B1A9441BB64FC64FB6E0133FB66FA6EBB6E101C191C00F000F9021C7D4B53437B667B6E3B6400237B64FB6C7A6C934207D3FB6C7A6C97
:402A80009342DAD1BB6C3A6C9342D6D2BB6CFC6C181C211C714A002301F078F9031C0C1C3B663A6E6D4B53437B667B6EBB630023FB63FB6CFA6B93420CD3FB6CFA6B9342A4
:402AC00003D1BB6CBA6B934204D37B6E3B6200237B6203E0002300243B627C62BB6CFC6C396A7A6A5B1A9441BB64FC643B6E01333B66BB6CFC6C181C211CE1221201002349
:402B000001F044F9031C0C1C7B677B6FE122120153437B669023FB181B68002B1DD0FB6C002B06D1FB6C002B0ED1BB6C4C4A93420AD901233B677B6F0C2B02D97B6F0C3B24
:402B400000E07B6F7B6708E000233B677B6F002B01D07B6F00E00C237B677B6E3B6300237B63FB6C7A6B93420CD3FB6C7A6B934203D1BB6C3A6B934204D37B6EBB6100231E
:402B8000FB6103E000230024BB61FC61BB6CFC6CB969FA695B1A9441BB64FC64BB6CFC6C181C211C3C22002301F0F0F8031C0C1CFB65FA6D131C1B019B1A9B007B667B6E6C
:402BC000BB620023FB62FB6CFA6A93420CD3FB6CFA6A934203D1BB6CBA6A934204D37B6E3B6100237B6103E0002300243B617C61BB6CFC6C39697A695B1A9441BB64FC644A
:402C0000F96E3A6EBB6E081C111C1A1CFFF770FC021C7B6D5A60BB6C9022BA181068396F7A6FFC6D0093231CFFF712FC021C7B6D1A60396EFA6EBB6E081C111C1A1CFFF78B
:402C4000C3FC021C7B6D9A60BD461FB0F0BDC046B20700008033E1010085E20180510100C1A8000080B584B000AF786039607B68013B0A4AD35CFB607B68022B08D13B680D
:402C8000181CFFF7EDFA031E02D0FB680133FB60FB68181CBD4604B080BDC046945F000080B500AF2820FFF7FDF8032000F0C4F90520FFF7F7F8032000F0BEF90F20FFF7BA
:402CC000F1F8032000F0B8F90120FFF7EBF8022000F0B2F90520FFF7E5F8062000F0D4F80E2000F0D1F82C2000F0CEF8082000F0CBF8012000F0C8F80C2000F0C5F8032005
:402D000000F0C2F80520FFF7CDF8034B181C00F0BDF9BD4680BDC046A05F000080B500AF0C2000F0B1F8024B01221A70BD4680BDD806002080B500AF064B1B78002B04D1F3
:402D4000FFF7AEFF034B01221A70FFF7E7FFBD4680BDC046D906002080B582B000AF021CFB1D1A70BB1D0A1C1A70FB1D1B78012B10D002DC002B05D024E0022B12D0032B60
:402D800018D01FE0BB1D1B78803BDBB2181C00F07BF817E0BB1D1B78403BDBB2181C00F073F80FE0BB1D1B786C3BDBB2181C00F06BF807E0BB1D1B782C3BDBB2181C00F06A
:402DC00063F8C046BD4602B080BDC04680B584B000AF78600F23FB1801221A700E23FB187A6812781A7015E00E23FB181B78181C00F026F80F23FB181B787A68D2180E237B
:402E0000FB1812781A700F23FB181A780F23FB1801321A700E23FB181B78002BE4D1BD4604B080BD80B582B000AF021CFB1D1A70FB1D1B78181C00F003F8BD4602B080BD55
:402E400080B584B000AF021CFB1D1A7000F040F80F23FB18FA1D127812091A700F23FB181B78181C00F0B4F80F23FB18FA1D12780F210A401A700F23FB181B78181C00F039
:402E8000A7F8BD4604B080BD80B584B000AF021CFB1D1A7000F01CF80F23FB18FA1D127812091A700F23FB181B78181C00F0C4F80F23FB18FA1D12780F210A401A700F2344
:402EC000FB181B78181C00F0B7F8BD4604B080BD80B582B000AFCA235B007B60374B374A12687F218A431A60354B1B681B0B1B033B60334B3A6833490A431A602F4B2F4A90
:402F0000126820218A431A602C4B2C4A126840210A431A600020FEF7E9FF284B274A126810210A431A600120FEF7E0FF264B1B683B60224B214A126810218A431A6000203F
:402F4000FEF7D4FF3B68082213403B601B4B1B4A126810210A431A600120FEF7C7FF174B164A126810218A431A603B68002B02D10A20FEF7BBFF7B68013B7B603B68002BBF
:402F800002D07B68002BC5D10C4B0C4A126840218A431A60094B094A12687F218A431A60074B1B681B0B1B033B60054B3A6807490A431A60BD4602B080BDC04600010440CA
:402FC000080104404902000004010440B60D000080B582B000AF021CFB1D1A70154B154A126820210A431A60124B124A126840218A431A600A20FEF779FF0E4B0D4A12687A
:403000000F218A431A600B4B0A4A1268F91D097810200143C9B20A431A600A20FEF766FF044B044A126810218A431A60BD4602B080BDC0460001044080B582B000AF021C24
:40304000FB1D1A70104B104A126860218A431A600D4B0D4A12680F218A431A600A4B0A4A1268F91D097810200143C9B20A431A600120FEF73BFF044B034A126810218A4343
:403080001A60BD4602B080BD0001044080B584B000AF7860FFF71CFF4020FFF7F5FE0F23FB1800221A700FE00F23FB181B787A68D3181B78181CFFF7C3FE0F23FB181A783B
:4030C0000F23FB1801321A700F23FB181B783F2BEAD9FFF7FDFE8020FFF7D6FEBD4604B080BDC04680B582B000AF094B1B68DAB2FB1D7F218A431A70054BFA1D12781A6081
:40310000FB1D1B78DB09DBB2181CBD4602B080BD1002044080B500AF0B4B802252021A600A4B0C221A60022000F08EF8084B181C00F052F8002000F05DF8054B181C00F01E
:403140003DF8BD4680BDC04600012040240120408813000090B583B000AFFC1DFEF759FD031C2370084B084A126801210A431A60FB1D1B78181CFEF750FD0120182100F0A3
:4031800047F8BD4603B090BD0000204090B583B000AFFC1DFEF73DFD031C2370064B064A126801218A431A60FB1D1B78181CFEF734FDBD4603B090BD0000204080B582B0F9
:4031C00000AF7860034B7A681204120C1A60BD4602B080BD0801204080B582B000AF7860034B7A681204120C1A60BD4602B080BD1401204080B582B000AF7860034B7A68BE
:403200001204120C1A60BD4602B080BD0C01204090B585B000AF786039600F23FC18FEF7F8FC031C2370074B3A68796891400A1C1A600F23FB181B78181CFEF7EEFCBD46D2
:4032400005B090BD0800204080B582B000AF7860024B7A681A60BD4602B080BD3801204080B582B000AF7860024B7A681A60BD4602B080BD3001204080B582B000AF7860BA
:4032800000F04CF87B68181C00F008F8032000F013F800F039F8BD4602B080BD80B582B000AF7860034B84217A685A50BD4602B080BDC0460000002090B585B000AF021CD6
:4032C000FB1D1A700E23FB600B23FC18FEF7A1FC031C23700A4B0A4A12680A491140FA1D1078FA689040021C0A431A600B23FB181B78181CFEF791FCBD4605B090BDC04608
:4033000010E400E0FF3FFFFF80B500AF024B802292021A60BD4680BD00E100E080B500AF024B802292021A60BD4680BD80E100E080B584B000AF021CFB1D1A700D4B1B6886
:40334000DAB20F23FB1801218A431A70FB1D1B7801221340D9B20F23FB180F22BA1812780A431A70034B0F22BA1812781A60BD4604B080BD0002044080B500AF044B1B6869
:40338000DBB201221340DBB2181CBD4680BDC0460402044080B500AF00F0F8F8BD4680BD80B500AF064B064A1268802109060A431A6000F019F800F01FF8BD4680BDC046F1
:4033C0000000254080B500AF064B1B78002B04D1FFF7E0FF034B01221A70FFF7E1FFBD4680BDC046DC06002080B500AF0A20FEF727FDBD4680BDC04680B500AF00F04CF92C
:40340000BD4680BD80B582B000AF00237B600E4B1A680E4B1B689A4211D00C4B1B6801333B603B68652B01D100233B60084A3B68D3181B78DBB27B60044B3A681A607B682F
:40344000181CBD4602B080BDA8080020D00700204008002080B582B000AF0C4B1B683B600B4B1B683A689A4205D3094B1B683A68D31A7B6005E0064B1B683A68D31A65331C
:403480007B607B68181CBD4602B080BDA8080020D007002080B500AF0A20FEF7E5FC0E4B1A680E4B1A600E4B00221A700D4B0D4A1268802149020A431A600A4B094A1268CC
:4034C00009490A401A60094B094A1A600A20FEF7B7FCBD4680BDC046D0070020A8080020D407002004032540FFFFFEFFC00F2540ED0F000080B584B000AF78601C4B1A684B
:403500001C4B1B689A4209D11B4B1B681F221340102B03D0194B7A681A6026E0144B1B680133FB60FB68642B01D10023FB60C046104B1B68FA689A42FAD0114B02221A6001
:403540007B68D9B20F4AFB68D3180A1C1A70084BFA681A600C4B1B680222134005D10A4B094A126802210A431A60BD4604B080BDD8070020AC080020080225404002254047
:40358000800F2540DC070020880F254080B500AF284B294A1A60294B00221A60284B01221A60284B284A1A60284B07221A60284B00221A60274B01221A60274B224A1A60C9
:4035C000264B00221A60264B04221A600A20FEF74BFC0A200121FEF7DFFB224B0A20191CFEF7B4FB204B00221A60204B00221A601F4B00221A601F4B00221A601E4B042213
:403600001A601E4B00221A601C4B1B689AB21C4B1A801C4B00221A601B4B00221A601B4B00221A701A4B00221A601A4B00221A60BD4680BD000025400B080002400025405C
:40364000480025400003254007000080040325401003254044002540000225400402254050002540553B0000880E2540C80E2540480F2540080F2540C80F2540880F254064
:40368000DE060020A8080020D0070020D4070020D8070020AC08002080B500AF064B064A1268F0218A4390210A431A60034B044A12881A60BD4680BD00000240880F2540EE
:4036C000DE06002080B582B000AF00237B60FFF7C1FE031E03D0FFF795FE031C7B60084B1A68D8239B00134005D000237B60044BD82292001A607B68181CBD4602B080BD97
:40370000C00F254080B584B000AF78600023FB6009E07A68FB68D3181B78181CFFF7EAFEFB680133FB607A68FB68D3181B78002BEFD1BD4604B080BD80B582B000AF7860A7
:4037400000F04AF87B68181C00F008F8032000F011F800F037F8BD4602B080BD80B582B000AF7860024B7A685A64BD4602B080BD0000002090B585B000AF021CFB1D1A700D
:403780000E23FB600B23FC18FEF743FA031C23700A4B0A4A12680A491140FA1D1078FA689040021C0A431A600B23FB181B78181CFEF733FABD4605B090BDC04600E400E0E1
:4037C000FF3FFFFF80B500AF024B02221A60BD4680BDC04600E100E080B500AF024B02221A60BD4680BDC04680E100E080B500AF024B02221A60BD4680BDC04680E200E00A
:4038000090B583B000AF114B181C00F079F80F4B181C00F091F8FC1DFEF7FBF9031C23700B4A0B4B1B78DBB210210B43DBB21370FB1D1B78181CFEF7F0F900F09DF80020F9
:4038400000F038F8BD4603B090BDC046FFFF010092000F4080B500AF0549054B1B78DBB2802252421343DBB20B70BD4680BDC04670000F4080B500AF064B1B78002B04D13C
:40388000FFF7BEFF034B01221A70FFF7E3FFBD4680BDC046E406002080B500AF044A044B1B78DBB27F210B40DBB21370BD4680BD70000F4080B582B000AF021CFB1D1A70C1
:4038C000034AFB1D1B781370BD4602B080BDC04682000F4080B500AF024B1B78DBB2181CBD4680BD62000F4080B500AF034B181C00F010F9031C181CBD4680BD20000F40AD
:4039000080B582B000AF7860044A7B68101C191C00F0E6F8BD4602B080BDC04620000F4080B500AF034B181C00F0F4F8031C181CBD4680BD40000F4080B582B000AF786080
:40394000044A7B68101C191C00F0CAF8BD4602B080BDC04600000F4080B500AF044B1B78044B181C00F0D6F8031C181CBD4680BD00000F4040000F4080B500AF01E0FFF789
:40398000CFFFFFF7A7FF031C1A1C08231340F6D1BD4680BD000000000000000000000000FEB5494652465B460EB407462E4909688A462E4A12682E48022100F055F90300B5
:4039C0002A480068C0182A4900F04EF906001F3EB346234A126801219140C9430C0001250026FEF716F9814651460B6823400B6058460430FEF704F93800F04028409040CA
:403A00000B68234003430B605846FEF7F9F80136072EF1D900200130012090400B68234003430B6058460630FEF7EAF84846FEF7F4F8C046C046C0460EBC894692469B46FE
:403A4000FEBDC046C046C046C046C046C046C046C046C046C046C046C046C046C046C046E8000020E8060020EC000020D000002080250000C046C046C046C046C046C04656
:403A800080B500AFBD4680BD80B584B000AF78600F23FB1801221A700E23FB187A6812781A7015E00E23FB181B78181CFFF778FF0F23FB181B787A68D2180E23FB181278E7
:403AC0001A700F23FB181A780F23FB1801321A700E23FB181B78002BE4D1BD4604B080BD80B584B000AF786039607B68FB603B68DAB2FB681A70FB6801333A68120AD2B2FC
:403B00001A70FB6802333A68120CD2B21A70BD4604B080BD80B584B000AF78607B68FB60FB681B78DBB2BB60FB6801331B78DBB21B02BA681343BB60FB6802331B78DBB2B6
:403B40001B04BA681343BB60BB68181CBD4604B080BDC04680B582B000AF324B1B68002B02D0304B1B6898472F4B1B680422134026D02E4B1B6801337B607B68652B01D196
:403B800000237B602A4B1B687A689A4205D1294B1B68294B20221A700AE0264B1B68D9B2264A7B68D3180A1C1A70204B7A681A60234B1B681F221340DBD1224B04221A60E8
:403BC000214B1B680222134029D0204B1A68204B1B689A4213D01E4B1B6801333B603B68642B01D100233B601A4B1B493A688A181278D2B21A60164B3A681A6006E0174BF5
:403C0000164A126802218A431A6005E0144B1B681F221340102BD8D1124B02221A60BD4602B080BDE0060020CC0F2540A8080020D007002040032540D407002040080020FC
:403C400008032540C00F25408C0F2540D8070020AC08002040022540DC070020880F254008022540800F2540002243088B4274D303098B425FD3030A8B4244D3030B8B426C
:403C800028D3030C8B420DD3FF22090212BA030C8B4202D31212090265D0030B8B4219D300E0090AC30B8B4201D3CB03C01A5241830B8B4201D38B03C01A5241430B8B4297
:403CC00001D34B03C01A5241030B8B4201D30B03C01A5241C30A8B4201D3CB02C01A5241830A8B4201D38B02C01A5241430A8B4201D34B02C01A5241030A8B4201D30B02D8
:403D0000C01A5241CDD2C3098B4201D3CB01C01A524183098B4201D38B01C01A524143098B4201D34B01C01A524103098B4201D30B01C01A5241C3088B4201D3CB00C01ACE
:403D4000524183088B4201D38B00C01A524143088B4201D34B00C01A5241411A00D20146524110467047FFE701B5002000F00CF802BDC0460029F7D003B5FFF775FF0EBC83
:403D80004243891A1847C0467047C046002B11D1002A0FD1002900D1002802D00021C943081C07B4024802A14018029003BDC046D9FFFFFF03B4684601B5029800F040F852
:403DC000019B9E4602B00CBC7047C04638B500220C4B041C0D1C00F087FF002804D1201C291C00F0E5FE38BD064B0022201C291C00F064FB00F0DCFE80231B069C4660444A
:403E0000F1E7C0460000E041F0B583B0161C1F1C0090019100F0BAFF041C0D1C221C2B1C301C391C00F088FF009A019B121A8B410899201C0A604B60291C03B0F0BDC046C2
:403E4000F0B5141C83B01D1C0090019101F096F8221C2B1C061C0F1C00F06EFF009A019B121A8B410899301C0A604B60391C03B0F0BDC046F0B55F4656464D464446F0B49F
:403E80000F0387B098464D003B0BCC0F061C924681469B466D0D01946BD0664B9D4235D080275B467F031F43F3009946624BFF00400F9C4607430023BB4600266544009341
:403EC000424617035000D20F53463F0B400D904600D172E0574A904267D080235B031F435346554A5B0FFF001F43944653460021DB0060444246624092462D1A0E430F2ECC
:403F000000D9A1E04D48B600805987465B461E4300D076E000239B469946023308260093CEE799464346BB4601930091009B022B6BD1019B9A46002153460122002789469F
:403F40001A403C4B00213F030C0D24053F0B27433B4C1B0527401F437F00D2077F0817434846391C07B03CBC90469946A246AB46F0BD03433ED05B46002B00D19CE1584685
:403F800000F0BCFE2823311C1B1A021C5F46D940083A97400B1C96403B439B46B1460023284D00262D1A00938AE7524603213A43A0D10027002302219CE752463A4315D0A5
:403FC000002F00D185E1381C00F098FE021C28215046891A131CC8405146083B99409F400B1C074317480021801A83E70027002301217FE700239B4699460133042600937D
:404000005EE703230C2600935AE7032B00D13CE2012B00D0BFE11A1C019B1A4000210023002789468EE700238027994600223F03004B87E7FF07000001FCFFFFE05F000075
:40404000FFFF0F800DFCFFFFBB4500D951E100D14CE14A46039200225C469046013D180E3F0238431B020193030C994603041B0C4946061C201C1F1C0093FFF7F5FD021C36
:404080007A4302904946201C171CFFF773FE039B09041B0C19438F420CD9029B8919013B8E4200D952E18F4200D84FE1029B8919023B0293CC1B201C4946FFF7D5FD009F0E
:4040C000834647434946201CFFF754FE039A0B041404240C23439F420DD95A469B19013A9E4200D930E19F4200D82DE10222524294469B19E344029ADB1B17045A463A43E2
:404100009346019C170C220C101C04925A4611042204120C141C090C7C4305924A43414347436118100C09188C4203D980204002844667440C0C12040804120C3C198118CA
:40414000A34200D2E5E000D1DFE01F1B43465C1AA04592415242BF1AB74200D10EE1381C4946FFF781FD009B029043434946381C9846FFF7FFFD230C0F041F43B8450CD9D9
:40418000029BBF19013BBE4200D9FBE0B84500D8F8E0029BBF19023B02934346FF1A4946381CFFF761FD009B039043434946381C9846FFF7DFFD24040904240C21438845F0
:4041C0000CD9039B8919013B8E4200D9DCE0884500D8D9E0039B8919023B03934346C91A029B039A1B04059C1A43100C13049146221C049F1B0C5A4344437B437843E3181B
:40420000170CDB199C4203D980246402A44660441C0C12041B04120C00199B18814200D296E000D1FCE04A4601231A4391469B4BEB18002B00DC99E04A4652070AD00F22D1
:4042400049460A40042A05D00431494592418946524293445A46D20106D55A46904B1A4080239346DB00EB188E4A934200DD62E64A465946D208490711435A4689465702CE
:40428000514601225B053F0B5B0D0A405AE680205A460003024208D0074206D107433F0399463F0B4246804B4CE65F4607433F033F0B221C7C4B45E600F020FD031C2030C8
:4042C000272800DC5EE6083B9E400023B346994665E6504600F012FD021C2032272A00DC75E657460838874000237BE6994500D2AFE65A46594654084A46C8075208024355
:4043000003924A46D2079046A9E60027884500D31CE7019F5A46BC46E044B845BF417F42BF19FF18013ABE4206D2BC425FD800D19FE03F1B934609E7B742FAD1019B43459A
:40434000F3D9371B934601E79346D4E60293B1E64A468919013A8E4218D99146814200D061E7019A9A4200D05DE760E74F4F7F1B382F13DD012253461A404FE601235B4252
:40438000994654E7029308E7039327E788423CD874D0914647E7019B9A4648E71F2F44DC434B4A469C465B466544FA40AB4013434A46AA40151C6A1E95415A46FA402B4365
:4043C000171C5A0709D00F221A40042A05D01A1D9A429B415B42FF18131C3A023ED55346012200211A40002701238946AAE502235B429C46019AE3449446E04490459B41AC
:404400005B429B19DF193F1BA0E6019F4A467C00BC42BF417F42BF19023AC91901949CE7002B95D1002201929BE75A46214B5B1BDA40202F27D0204B9C465B466544AB40AE
:4044400049460B43591E8B411343072200271A4007D00F2200271A40042AB8D17A077F023F0BDB0813439946012253461A40002368E54145BBD89346002767E6019C9C4211
:40448000C3D391466DE70023DAE780275B463F031F433F033F0B019A034B53E5FF030000FFFFFFFEFE070000FF07000002FCFFFF1E040000E2FBFFFF3E040000F0B54D4643
:4044C00044465F465646F0B40E1C111C3203520A470F1743C5001A035800DB0F9946520A4B0F83B01A43CB000193CF4B7400F60F640DB046400D984200D1E8E001234946A0
:4045000059400B1C9E4200D1B1E0261A002E00DC1CE1002842D1131C01990B4300D0E6E06B0700D18EE00F232B40042B00D189E02A1DAA42AD418023012641466D427F19DA
:404540001B043B400E40151C002B00D183E0B64B01349C4200D116E13A1CB44BED081A405007640552020543120B640D002112030B0D1B056405120B1A436308AC4CF607A8
:4045800014401C43640064083443281C211C03B03CBC90469946A246AB46F0BDA24B9C42BED080231B041A43382E00DD03E11F2E00DD3FE12020831B9946131C49468B406B
:4045C0009C46019B6046F34003430198F2408840011C481E81410B43EB1A9D4280411D1CBA1A4042171A3B0200D4A8E07A02560A002E00D1CAE0301C00F080FB031C083B5C
:404600001F2B00DDCBE02822291C121AD1409E400A1C9D4032439C4200DDC8E01C1B671C1F2F00DDEDE01F23291C1C1B131CA540A340F9406C1EA541FA4019430D43171CFA
:4046400000246DE78023012642461B043B401640002B00D07BE7744BED0878070543FA089C423BD012036405120B640D7EE7231A9A46002B00DCA5E0002844D06A488442EF
:4046800000D14DE78020000402435346382B00DC1CE1019B1A43511E8A41D1B200224919A94280410D1CD219404217183B0246D55D4B01349C4200D169E101205B4A6B0825
:4046C0003A4028401843D5070543570828E7131C01990B4300D111E74B4613E72B1C134351D080231B031A431203120B3EE7013E002E00D080E0691A8D429B41BA1A5B4211
:40470000D71A0D1C6FE7101C019B184300D107E701235B429C46E2445346002B00D002E1019BD2195919A9429B415B42D7180D1CBCE76346034300D128E1071C65466B07C6
:4047400000D0F0E6012643461E4084E7002E00D081E0601C4005400D012800DC07E10199681A84466545B641B81A7642861B300200D4A1E08C464D1BAC458941D21B49421A
:40478000561A984634E700220025EFE6281C00F0B5FA2030031C083B1F2B00DC33E7021C283A95402A1C00259C4200DC36E71F4FE41A1740B4E6019B1A43511E8A41D3B2F3
:4047C000002209E7002B00D001E1601C43055B0D012B00DCB0E0144B984200D11EE1019BD2195919A9429B415B42D2184908D5070D435708041C93E60B4B9C4200D0D3E684
:404800008EE6211C131C1F39CB40191C202F00D18EE03F231C1BA24015436A1E954100270D4300248BE7C046FF070000FFFF7FFFFFFF0F80331C101C203BD840202E79D09A
:4048400040239B1B9A40131C019A1343591E8B4100220343C0E6002C53D0C74CA04200D1B0E0802471428946240427434946382900DDCDE01F2900DD59E120243E1C611A85
:404880008E408A46B04649462E1CCE405146B4468D4064464646494626436C1EA541CF4035430199D71B8C464D1BAC4592415242BF1A041C984696E663466546334300D0EF
:4048C00096E60026002700240025C4E61F2B61DC2020C31A9B46131C59468B4051469946019BCB409C464B46604603439C465B46019999406346481E814119435346DA408C
:40490000CDE63C1C2C435DD0F1438946002955D10199D21B8C464D1BAC4589414942571A041C98465FE69448844200D0ADE6F7E5002271E7002387E73B1C2B43002C00D016
:40494000DAE0002B00D113E1131C01990B4300D1E6E54919A9429B41D2195B42D7183B0200D421E1854B0D1C1F40041CD8E5381C2843002C40D1002800D083E0101C0199D5
:40498000084303D0171C0D1C9846C9E500260027002560E65046131C2038C340181C5346202B00D1C1E0402351465B1A9A40019911434A1E91410022014370E66E4CA042C6
:4049C00000D053E7171C019D041C9846A8E5002C28D13C1C2C4300D18AE0DB439A46002B00D082E0019BD2199C4665449D42894149425718041C59E600285BD1101C0199A1
:404A0000084300D1A4E0171C0D1C98465A4C87E53D436F1EBD410027EDB242E7041C0027002518E6544CA04262D0534680245B429A46240427435346382B00DD8EE01F2B95
:404A400000DD9DE02024E31A9B463B1C59468B40514699462B1CCB409C464B46644623439C465B469D4063466C1EA541CF401D43019BBF189C4665449D4292415242BF18AB
:404A8000041C13E6101C0199084300D148E5681A844685428041BE1A4042301A060200D447E68C464D1BAC458941D21B4942571A984635E5101C0199084334D0802478073F
:404AC000ED08FF0824032843274208D0D608264205D1C90852070A43101C371C9846FF00420F1743C500244C1AE5234CA042A2D1171C019D041C13E5002B35D0131C019973
:404B00000B4310D080247807ED08FF08240328432742E4D0D3082342E1D1C90852070A43101C1F1CDBE7144CFAE400223FE74C463E1C203CE6404946341C202932D0402663
:404B4000761AB7403D436F1EBD4100272543A8E680270026FF03084C00257CE53D436F1EBD410027EDB283E7171C019D024CD7E4171C019DD4E4C046FF070000FFFF7FFFB7
:404B800054463B1C203CE3401C1C5346202B0DD0402351465B1A9F403D436F1EBD410027254365E70027CDE70D1CC8E50027F3E70B0330B5134C1A0B4B00051C5B0DC90F83
:404BC0000020A34210DD104883420EDC80200F4C40030243E41A1F2C0ADD0D48C31ADA40131C48424340581830BD0A4BC818FBE7281CE040084CA44663449A40131C034375
:404C0000EFE7C046FE0300001D0400003304000013040000FFFFFF7FEDFBFFFF10B5041E10D000F06BF8144A121A0A281ADC0B23211C1B1AD94015300B03520584401B0BAD
:404C4000520D01E00022002300211B03201C1C0B0B0D1B052343094C1205234013435B00590810BD031C0B3B9C40520523031B0B520D0024E8E7C0461E040000FFFF0F80D6
:404C80008446101C62468C46191C634600E0C0461FB500F0D3FA002801D40021C8421FBD10B500F017FA4042013010BD10B500F0C5FA002801DB002010BD012010BDC0468C
:404CC00010B500F0BBFA002801DD002010BD012010BDC04610B500F041FA002801DC002010BD012010BDC04610B500F037FA002801DA002010BD012010BDC0461C21012362
:404D00001B04984201D3000C10391B0A984201D3000A08391B09984201D30009043902A2105C40187047C04604030202010101010000000000000000F0B54F464646050418
:404D40002D0C2C1CC0B41704160C3F0C9946030C7C4375435F4373437D19260CAD199C46AF4203D980235B029846C4444B465143434324042E0C240C2D0466442C19591808
:404D80008919201C0CBC90469946F0BDF0B544465F4656464D46F0B41C1C85B0002900DAA9E00F1C0021061C8846101C191C002C00DA97E0341C3D1C82468946B94273D8AB
:404DC00070D04946504600F09FFA8346391C301C00F09AFA5B46181A031C8346203B9C4600D59CE00023002251460092019363469940019151468140019B0091BB4200D91D
:404E000083E000D17EE0009A019B341C3D1CA41A9D416346002B00DA9AE0002600270296039701369E400396012686400296002800D171E00099019AD30799464B464E086D
:404E40001E435708002301220CE0AF4201D1A6420AD8A41BBD4124196D410138A4185D41002806D0AF42F0D9013824196D410028F8D12022029E039F5B46524236196F41F3
:404E800099185AD4281CC8402C1C5B46DC40002968DB041C8C40231C59468840021CB61A9F4103E0B0428CD90026002741464B1E9941002300910193009A019B002554426C
:404EC0009D41331C6340181C3B1C6B40191C009B019CC018614105B03CBC90469946A246AB46F0BD4346DB430C1C9846131C00215842A1415EE7002746428F4101214942F3
:404F0000884652E7B14200D87DE70026002702960397002800D08DE7029E039FC6E720215346091ACB400022191C0023009201934B4683400B4301935CE75A4620239B1AA8
:404F40002A1C9A40201C131C5A46D04018439BE720260027331A0026029603970127DF40039761E75B4620215D46C91A031CAC40CB40191C231C0B438EE7C046F0B54546F3
:404F80004E465746E0B4041C82B00D1C914698468B4262D85FD04146484600F0B5F9291C061C201C00F0B0F92023311A5B428A46C81865D44B4683401F1C4B468B401E1C9E
:404FC000AF4258D855D0A41BBD41002800DA77E0002200230092019301328240019201238B40009300293CD0FB079846404672087B080243012600270CE0AB4201D1A24226
:405000000AD8A41A9D4124196D410139A4197D41002906D0AB42F0D9013924196D410029F8D120220098019953465242001969419E183AD42F1CF7405346DD40002E29DBF4
:405040003C1CB440231C5446A7403A1C801A99410090019105E082429DD900230024009301940098019902B01CBC90469946A246F0BDA342A7D90022002300920193B1E73C
:4050800020224B46521AD3401A1C43468B401F1C174392E7534620245646E41A3B1CB540E3401C1C2B1C2343CDE7524620239B1A2A1C9A40271C131C5246D7401F43BBE7B2
:4050C00020230022581A0023009201930132C240019284E7F0B55F464D4644465646F0B41F035C00DB0F99461B4B0E034D00C90F8446360B6D0D8B4690463F0B640D9D420D
:405100000CD0154B9C4210D00123A54214D0181C3CBC90469946A246AB46F0BD311C01230143F4D10C4B9C42EED13A430123002AEDD10123A542EAD1BE42E8D1C445E6D1E9
:40514000CB4506D0002DE2D13043031C581E8341DDE70023DBE7C046FF070000F0B5574645464E46E0B40F034E00C90F8A4632491D035C0084463F0B760D90462D0B640DDE
:40518000DB0F8E420FD08C4239D0002E10D13843414241418946002C27D12A4325D1002000290ED108E0391C01432ED1B44226D0002C0BD09A450DD053465942012319438F
:4051C000081C1CBC90469946A246F0BD2A43F3D09A45F1D1A642EFDC1ADA504641424841012341421943081CEBE74A46002AE1D058425841012241421143081CE1E7291C8D
:40520000114302D1002EC2D0D4E702204042D8E7AF42D1D809D00020AF42D2D2504641424841012340421843CBE7C445C4D80020C445F3D3C5E7C046FF070000F0B55F4656
:405240004D46444656468046F0B4061C0803000B84462C484C001F035D00C90F640D8B4691463F0B6D0DDB0F844212D0854225D0002C14D161460E4370424641002D35D053
:40528000002E21D058425841012143420B43181C0EE06146022031430AD1A5420ED0002D12D13A4310D15B46594201231943081C3CBC90469946A246AB46F0BD391C0220B0
:4052C0001143F5D1002CD5D09B45ECD1AC42EADC05DBBC45E7D80FD00020BC45E8D2584641424841414201200843E1E73A43C7D10020002EDCD1D6E7C845D4D80020C84504
:40530000EDD3D5E7FF07000010B5002903D1FFF7F5FC203002E0081CFFF7F0FC10BDC046014B18687047C046500100200E4B70B500251E1C0D4CE41AA410A54204D0AB00EF
:40534000F35898470135F8E700F086FE084B00251E1C084CE41AA410A54204D0AB00F35898470135F8E770BD6460000064600000646000006C600000002310B5934203D048
:40538000CC5CC4540133F9E710BD031C8218934202D019700133FAE7704700000EB410B59DB002A9029008610B48822488604861012040421FABC881084804CBA400006832
:4053C00001938C8100F088F80023029A13701DB010BC08BC03B01847FFFFFF7F50010020021C10B51378002B01D00132FAE7CC5CD4540133002CFAD110BD031C0A78013165
:405400001A700133002AF9D170470023C25C0133002AFBD1581E7047F0B58E6885B0071C0C1C03920193B34245D390238A89DB001A423DD003250969236801985B1A029348
:4054400063695D43EB0F5D19029B6D1001331B189D4200D21D1C381C53050FD5291C00F01DFB061E13D0029A2169FFF785FFA289184B134080221343A38111E02A1C00F03D
:4054800065FB061E0CD1381C216900F0C1FA0C23402201203B60A38940421343A38117E0029B2661F61826606561019EED1AA560019BB34200D2019E321C2068039900F009
:4054C00092FA0020A3689B1BA36023689E19266005B0F0BD7FFBFFFFF0B59FB0029005938B890E1C171C1B0610D50B69002B0DD1402100F0D3FA30603061002804D10C231D
:40550000029A01381360D0E040237361002306AD6B6120336B761033AB763C1C2378002B03D1E31B049312D003E0252BF9D00134F4E7049B0298311C3A1CFFF76DFF431CF0
:4055400000D1ACE06A69049B944663446B612378002B00D1A3E00122002352426A6002A95432521801342B60EB60AB601370AB654F4F2178381C052200F02AFA002808D047
:40558000C01B01278740381C2B68013418432860EEE72B68DA0604D55322202102A8121811701A0704D553222B2102A81218117022782A2A01D0099B0EE0059A111D12684E
:4055C0000591002A01DB099204E05242EA60022213432B60013409E02278303A092A04D80A214B4301349B18F6E7099323782E2B18D163782A2B09D1059B02341A1D1B68EB
:405600000592002B0DDA01235B420AE0002301342278303A092A04D80A214B4301349B18F6E70793234F2178381C032200F0D0F9002807D0C01B40278740381C2B68013432
:405640001843286021781C480622671C297600F0BFF9002812D0194B002B06D10722059B073393430833059314E005AB00930298291C321C124B00E000BF07E005AB0093B2
:405680000298291C321C0E4B00F08AF80390039B013304D06B69039A9B186B613DE7B3890B985B0601D5012040421FB0F0BDC04622600000286000002C60000000000000D4
:4056C00019540000F7B5171C01930A698B6800900C1C934200DA131C221C3B6043321278002A01D001333B6023689B0602D53B6802333B60062523681D401ED0231C433300
:405700001B785A1E9341226892061CD53020E1184031C870211C5A1C45310978A21840320233D1700FE0221C0123009801991932089EB047431C0ED00135E3683A689B1AB9
:405740009D42F0DBDAE7221C009801994332089DA847431C02D10120404220E006232068E1683A6803400025042B03D18D1AEB43DB171D40A3682269934201DD9B1AED1842
:405780000027AF420ADA221C0123009801991A32089EB047431CDED00137F2E70020FEBDF0B58BB006920A1C43320793059004920A7E0C1C109B6E2A00D1A8E011D8632ADD
:4057C00022D009D8002A00D1B2E0582A00D0C2E045310A707C4A4FE0642A1DD0692A1BD0B9E0732A00D1A7E009D86F2A29D0702A00D0B0E0202209680A43226037E0752A44
:405800001FD0782A33D0A6E00E1C1A684236111D196013683370A1E021681A68080606D4490604D5111D19600023D55E02E0111D19601568002D3BDA2D23049A6D42137064
:4058400036E021681A68080606D4490604D51568111D1960ADB202E0111D196015685A4B227E03930A276F2A1DD108271BE0221C782145321170554A19680392081D22687E
:4058800018600D68100602D4500600D5ADB2D30702D520231A4322601027002D03D1202322689A432260231C002243331A7002E00A27454B03936368A360002B03DB0422B7
:4058C000216891432160002D02D1049E002B0ED0049E281C391CFEF74DFA039B013E5B5C281C3370391CFEF7BFF9051EF1D1082F09D12368DB0706D563682269934202DCE4
:405900003023013E3370049B9B1B23612BE009681A68080607D4490605D5111D19601368A28A1A8004E0111D1960136862691A600023049E236116E01A68111D1960166830
:405940000021301C626800F043F8002801D0801B6060636803E0261C42363270012323610023049A1370079B05980093211C069B09AAFFF7A7FE431C02D10120404221E0A7
:40598000236905980699321C079DA847431CF4D023689B0705D4099BE068984212DA181C10E00025E368099A9B1A9D42F3DA221C0123059806991932079EB047431CDCD03B
:4059C0000135EFE70BB0F0BD3360000044600000C9B28218904204D003788B4202D00130F8E70020704710B5814208D28B18984205D29B1A013A09D3995C8154FAE70023F0
:405A0000934203D0CC5CC4540133F9E710BD000030B500293ED004390B68002B00DAC9181D4A1368141C002B02D14B60116031E099420DD208680A189A4203D11368C3185C
:405A40000B6053684B60216024E08A4203D8131C5A68002AF9D11D685C198C420BD10968691858181960904214D110685268091819605A600EE08C4202D90C23036009E076
:405A800008680C18944203D114685268001908604A60596030BDC046F0060020032370B5CC1C9C430834051C0C2C01D20C2405E0002C03DA0C2300202B6042E08C42F9D357
:405AC000204A1368101C191C002913D00A68121B0DD40B2A02D90A608B181FE08B4202D15A6802601BE04A685A600B1C17E00B1C4968E9E7144E3368002B03D1281C00F097
:405B00004BF83060281C211C00F046F8031C421CD0D00322C61C964386420AD11C60181C07210B301A1D8843821A0AD05142995007E0311A281C00F02FF8431CBAD0331C77
:405B4000ECE770BDF0060020EC060020F8B5061C0C1C151C002904D1111CFFF79FFF041C18E0002A03D1FFF753FF2C1C12E000F025F8A8420ED2301C291CFFF78FFF071E6D
:405B800007D0211C2A1CFFF7F7FB301C211CFFF73FFF3C1C201CF8BD38B50023064C051C081C2360FBF71CFF431C03D12368002B00D02B6038BDC046B00800200B1F1A68A3
:405BC000101F002A04DA891804390B68D01804387047000000000000B4F1FF7F010000002020202020202020202000002530326C753A2530326C753A2530326C75202020D2
:405C000020202000526573756C7420253032753A253032753A253033750000000A0A496E6974206E6574776F726B2073746172740A0A0000424C41424C41424C410000005B
:405C4000253032583A253038582530385825303458253032580000006F75742064617461202D20000A0D000020202020202020524541442044415441204F4B45590000005D
:405C80000A0D74323D2025753A25750A0D000000537461727420693D2025752C206E6F436F6E6E6563743D2025750A0D000000000A0D65616C2074696D652069733D202520
:405CC000753A25750A0D00002530385825303358253038582530335800000000253032583A2530385825303858253034582530325800000041000000460000005E11000021
:405D00009E0D0000F80D00001E0E00007A0E0000A00E0000200F0000820F0000E20F00000810000084100000253034580000000025303858000000003C00000021000000D1
:405D4000400000003E000000DC1300000C1400006214000086140000DE1400003C15000060150000B815000074696D652073656E6420646174612025750A0D00537973744A
:405D8000656D20696E69742E2E2E00005254432073796E63206F6B005245432073796E63206572726F72000046696E206E6F20726561647900000000536B696572205374BE
:405DC00061727465640000005374617274207265616479005361766520726573756C740057616974206E65787420736B6965720000300F40000400400F40000401000F40EA
:405E00003C300F4016310F401C320F4019330F4005410F4004420F4003430F4002600F40820D0004021804010608140F1C021E182D012E27301031013208340736203A0830
:405E40003E013F01402149FF4AFF4BFF4F0150185280580B59045A0B5B0A5C095D995F016040624064406540668068806A806C806E80C061C9FFCAFFCBFFCD83CE03CF010E
:405E8000D018DA0BDD09DF01E040E240E440E540E680E880EA80EC80EE8000060A21100218441A211B10210128014004420246024F207002780A7E80C00CC205C401CA0807
:405EC000D01CD220DE83406145EC4720482349FF4AFF4BFF4D834E034F01501854015A0B5B0B5D995F016040624064406540668068806A806C806E80D608DB04DD90460206
:405F00004F25540156025A505C405F05600A62807E80904092509C0A9E02A310A401A680AD01B001B650D010D220D6DCD80CDE806F08A308AF08DA80EE400D1024A0C201A6
:405F4000C801B110B450EE0E02011101030405060708090A0B0C0E0F101112131415161718191B1C1D1E1F2021222325262728292A2B2E2F303132333435000000001F0073
:405F80003B005A0078009700B500D400F300110130014E011F1C1F1E1F1E1F1F1E1F1E1F070F1F1F1F1F1F1F070F1F1F151B151F0E1B111504040E1F0000000404040E1F7D
:405FC000000E080C080E0000000E080E020E0000000E080E020E0000000404040004000048400000363F00001C400000223F00001C400000264000001C400000223F0000B8
:40600000363F0000363F000026400000223F00002C3F00002C3F00002C3F00008E4200004300232D302B2000686C4C00656667454647003031323334353637383941424399
:40604000444546003031323334353637383961626364656600000000F8B5C046F8BC08BC9E467047D9020000C91A0000F8B5C046F8BC08BC9E467047B10200009060000002
:40608000C800002090000000600700000000000000000000B8080020006CDC0280BB0000300000000000C05DF000000004040400050000000000044000000000000000000A
:4060C0000000000000000000000000000000000000000000000000002060000000000000000000000000000000000000000000000000000000000000000000000000000020
:40610000000000000000000000000000000000000000000000000000F00000200000000000000000000000000000000000000000000000000000000000000000000000004F
:40614000000000000000000000000000000000000000000000000000000000000000000000000000000000000000000000000000000000000000000000000000000000001F
:4061800000000000000000000000000000000000000000000000000000000000000000000000000000000000000000000000000000000000000000000000000000000000DF
:4061C000000000000000000000000000000000000000000000000000000000000000000000000000000000000000000000000000000000000000000000000000000000009F
:40620000000000000000000000000000000000000000000000000000000000000000000000000000000000000000000000000000000000000000000000000000000000005E
:020000040001F9
:0200000490303A
:02000000BC271B
:0200000490402A
:4000000000000000000000000000000000000000000000000000000000000000000000000000000000000000000000000000000000000000000000000000000000000000C0
:400040000000000000000000000000000000000000000000000000000000000000000000000000000000000000000000000000000000000000000000000000000000000080
:0200000490501A
:0C00000000020E34119E00010E55CDC50B
:0200000490600A
:0100000001FE
:00000001FF