:400000000040002011000000194B0000194B000010B504F0A1FD0000F0B585B072B600250122854B854C290025601A7080228448D20009F0F7F880222900D200814809F086
:40004000F1F829002A00804DFF262F0001941837485903003040B3430293530012185000013001333818FB1803900398834207D0581E0078029C00191C7802330470F4E784
:4000800004311829E4D1714A714B02251A60C022704B92011A6099236F4A1B0413606F4A243113606E4A012613606E4A1360C0226D4B12041A606D4B6D4A1D606D4B1D6003
:4000C00013788B4328390B4313706B4A491913780B4313702323694A69491360694A11602021694A1160694A703111606849694A1160694A1360694A694B1A600F22694BD5
:400100001A60694A694B1A601222694B1E60694B1A6004F04FFE684806F04AFB300004F055FE302004F062FD8023644E644ADB0533601368FA201D431560624B624A082524
:400140001A600022614BC0001A60019B019A1B68AB43136004F0E8FD5D4804F0DBFD5D4A5D4B5E491A605E4B5E4819605E490860B7205E49C00219605D4908605D492800BC
:4001800019605D490A60F0215C4A09011A605C4A1160E8215B4A49011A605B4A11605B4A5B491A605B4A11605B4A5C491A6082225B4B12061A6080225A4BD2021A60462266
:4001C000594B1A60594B023A1A60594B023A1A60584B03321A60584B053A1A60574B01321A60574B02321A6004F032FD280004F05BFD544A544B1A60544B554A3360554B21
:40020000110013601A000B681340FCD10221504AFF3111600322504901200A604F490A6080214F4A090611604E4A10604E4A136004F064FC05B0F0BD1C700F406CF02E40BC
:4002400000300F4000400F40A8DF0100EE0099EE000002400003024000500F4010500F4020500F4030500F4038500F402000104001700F4000800F4000700F400000044037
:40028000A41DDB0008000440180004400001044006609B000801044000020440926103000802044000030440906C0300080304401803044030001040001BB7000C020B403E
:4002C00078002E407C002E402D3E000064F02E40DC050000007FBB001803014046FF00800000014000BF12001003014044FF00800803014042FF00801403014045FF008073
:400300000003014040FF00800403014041FF0080008206000C03014043FF0080E14E000008010B4000010B402C01014024010140200101401C010140180101400801014011
:40034000040101402000FFFF08020B400505004010020B4008080000300030403000314000003A4000033A40000E3F4010B5064C2378002B07D1054B002B02D0044800E01A
:4003800000BF0123237010BD68110020000000004CD20100084B10B5002B03D00749084800E000BF07480368002B00D110BD064B002BFBD09847F9E7000000006C110020C7
:4003C0004CD20100A00B002000000000FA210A4A10B51388890001339BB28B4201D0138009E00024148004F061FE012005F0DAFC200005F0D7FC10BD8411002010B504F006
:4004000053FF0249002004F05BFD10BDCD03000010B504F045FE10BD014B18887047C04684110020F0B58BB005F070F80021682005F0F4F800220023002800D08BE105F08A
:400440008DF905F049F905F00DFA0121682005F0E5F8002828D005F03FF905F065F807200A240F2208AB1978BD4B0D110540654311406918197008A949780D1128406043D5
:4004800011404118597008A98D786906C90FD97028112A4001291AD1084060436D11821829409A70197117E00400651C062C08D0002005F095F908AB18552C00072DF4D15D
:4004C000C9E7012005F08CF908AB9871C3E703210840604382189A7008AAD178072203200A270A405A7108AA11790F240A1102407A430C30014050180F21987108AA5579E4
:40050000EA06D20F7A430D405519DD7108AA9279EDB211097943224052181A81C3B20193FA23FA2192B2DB00D31818008900029306F000FD04910498642106F0FBFC28004C
:400540000691390006F070FC39000607280006F0F1FC090601980E43390006F065FC000506433900019806F0E5FC0D04FA210298890006F059FC354364210603049806F046
:4005800053FC354339000602069806F0D3FC2E430E430698390006F047FC714C0001A37825780193637806430293E1782379C9059B0519430C002800390006F0BBFC0198C9
:4005C0000C43390006F030FC000504433900019806F0B0FC09040C430298390006F024FC000304433900029806F0A4FC09020C432800390006F018FCFA2103228900330BCD
:4006000013400A000F215A43330A0B4055314B439B180F2232409A18553933090B407B430001044301949F18002400230325029303944C4CA7420FD92C4205D16421200098
:4006400006F078FC002976D1C8212000490006F071FC00296FD072E00A210A00F300DB0F5A4333011B0F9B185A1E3F495200545A022B0ED9BB0705D16421380006F05AFCBC
:40068000002966D1C8213800490006F053FC00295FD0364D00236C430022049403240593330D0A32234053431F00330C0F263340DB196B432E495B18069300230793019B0C
:4006C0001D0D25406A431D0C3540AD185B0205D4019B1B0202D50B2D00D80C3507200A24019B00271B0B034063431A00019B1909014061431B0A053423409B183C225A43F1
:40070000019B16001C403B00621892197B410698079912184B410298039980185941049B059CC0186141E12424016C433B00220012184B410FE0029A039B0E4802E00E48D6
:40074000029A039B002112184B4101340292039370E701349DE7100019000BB0F0BDC046BA270020B207000058D201008051010080AEFEFF0085E2018033E101F0B50600D8
:400780000F00A64A8BB0A64B019200251C00AF4218D00322019B361BAF4101330193134205D16421180006F0C5FB002908D1C8210198490006F0BEFB002901D0984BE4E7F5
:4007C000984BE2E79E42E4D86421019806F0B2FB0D00C8210198490006F0ACFB01230320914A0493019B1832904C059218400023029403938E4CBB4218D0029A039BB61AF9
:400800009F41049B059A01339C46049BD35C6246022A07D1002802D1002D00D0FCE0002900D1F9E05C4363460493E0E7029BB342E3D97F4A00233000390006F0E3FC4443BE
:40084000039B2200B44201D90022002334003D00A41A9D41E122431C0593120100232000290006F0CFFCE12100230901069048430200AB4203D1A04201D900220023A41A8A
:400880009D413C2200232000290006F0BBFC3C210023079048430200AB4203D1A04201D900220023A41A9D41049B022B04D80C330293019B5E1E02E0049B019E0293C821AF
:4008C000059B4900F7183000B308FF1806F0ACFA64213F18300006F0A7FA062358433F180298143301300A21584306F09DFA0721381806F01FFB002900D107316A46167E41
:40090000177FCAB206926A464A4B127E4A495A716A46127C8C4604926A46127C0025DA71019AE4B2624492B201926A4692881C701A816A46127D5F7002926A46127A9E70FB
:400940009A711D71DD700A21200006F06DFA0A2103012000059306F0EDFA059B3800591808AB19700A2106F05FFA0A210401380006F0E0FA08AB64185C700A21300006F0A2
:4009800053FA0A210401300006F0D4FA6A46127E08AB6418DA709C700A21029806F044FA0A210401029806F0C5FA08AB64181C710A21049806F038FA0A210401049806F01C
:4009C000B9FA08AB6118597101980A2106F02CFA0A210401019806F0ADFA08AB0C199C7104F094FD04F03EFF2900682004F016FE0400280004F0B2FEAC4206D004F06CFEC2
:400A00000BB0F0BD0135072DF8D008AB585D04F0A5FE0028F6D0F1E7013303E7B20700008033E1010085E20158D2010080DE280080510100BA27002030F8FFFF07B50020FD
:400A400005F04CFD462000F025FA084800F0B8FB00F012FA00213023054A00930800243300F0E4FB00F0ECF907BDC04627D7010093D901007FB50B2506002A00104901A8AF
:400A800008F0C7FB0F4C2A003100200009F0D6F8300009F0B8F8C3B20A2B05D8C2B2AA1A01A9200009F0B6F8074800F089FB28220821200000F0F2FA00F0C2F97FBDC046B7
:400AC0007CD201008611002027D70100082307B50093002804D10233064A0121403003E00A2301214020044A00F0A0FB00F0A8F907BDC0466FD9010065D9010010B523220B
:400B000004000321012000F07EFB23220321022000F079FB03212322080000F074FB23220321042000F06FFB23220321052000F06AFB012C4BD907221F21012000F050FB64
:400B400007221F21022000F04BFB07221F21032000F046FB022C3AD007221621012000F03FFB07221621022000F03AFB07221621032000F035FB032C29D007220D2101202A
:400B800000F02EFB07220D21022000F029FB07220D21032000F024FB07220D21042000F01FFB042C13D007220421012000F018FB07220421022000F013FB0722042103201D
:400BC00000F00EFB04210722080000F009FB00F037F910BD73B5144800F0F2FA04F058FC07210A248202030B0B40920F624363430F2615001A0003091940030A6143334011
:400C00009B18020C324052190640084D761800962800074908F0C0FF28000022210000F03DFA00F00DF973BD27D701008611002088D2010070B50021051C06F0BBFA002825
:400C400078D14D24200023220421013400F0DBFA522CF7D1281C08F023FA374A374B04000D0006F081FA00280ED007221F214F2000F0B6FA07221F21502000F0B1FA0722F7
:400C80001F21512000F0ACFA2D4A2E4B2000290006F06AFA00280ED0072216214F2000F09FFA07221621502000F09AFA07221621512000F095FA244A244B2000290006F03C
:400CC00053FA002813D007220D214E2000F088FA07220D214F2000F083FA07220D21502000F07EFA07220D21512000F079FA184A184B2000290006F037FA002818D007226A
:400D000004214D2000F06CFA072204214E2000F067FA072204214F2000F062FA07220421502000F05DFA07220421512000F058FA00F086F870BDC0469A9999999999D93F5F
:400D4000E17A14AE47E1DA3F295C8FC2F528DC3F713D0AD7A370DD3F144B73B505000E00984222D8124B99421FD82024114800F027FA3C21280006F057F803230B221621AA
:400D8000009400F0B9F93C21280006F0D3F80223080014221C21009400F0AEF9009403231D221621300000F0A7F973BD60EA0000E703000027D7010037B5050020240A4812
:400DC00000F0FEF92800009401230E222B2100F093F901230E2240210420009400F08CF900F02EF837BDC046EBD5010010B50400054800F0E5F91F222B210448002C00D1C7
:400E0000034800F04BF910BDA4D201009AD201009FD2010010B5012005F060FB10BD10B50400081E00D0012005F07CFB002005F061FB200004F00EFF012005F05BFB10BDF6
:400E40000B4B70B51C78002C11D121004020FFF7E6FFFC2521008020FFF7E1FF6D00054B0121185D0134FFF7DAFFAC42F7D170BDC4270020C52700200023FC22180010B5D1
:400E8000034C52001919013308709342FAD110BDC527002010B504007F2803DCC343DB171C4000E07F24002005F030FB012005F02DFB00212120FFF7B2FF80204042204308
:400EC000C0B20021FFF7ABFF00210620FFF7A7FF00211320FFF7A3FF00212020FFF79FFF00214020FFF79BFF00218020FFF797FF00210C20FFF793FFFFF7BEFFFFF7A0FF80
:400F00000023034A1360034A1370034B1C6010BDC0290020C4270020CC29002010B553280DD82F290BD85423CA085343181807231940063B8B40024C225C1343235410BDDA
:400F4000C527002010B553280DD82F290BD85423CA08534318180723012219408A40024C235C9343235410BDC5270020F0B587B00592494A0491537907271D0014793D40D7
:400F80009179002D44D1DB086343401A58430300043303936B469B8A029001933E4B5B79DB089D4276DA6B461C8A0423029A5B429B1A039F0593384B1A79059BDB199A4200
:400FC00021DD0026344A0120137911686B43C919CB5C019933418919127A89B2034203D02000002A03D105E02000002A02D1FFF7A9FF01E0FFF792FF0136082EE2D1013468
:40100000A4B20137D7E7019B013508339BB2C4E76343441ADB1063431C1D13681B5D03936B461D8A002301931B4B019A1B799A4230DA6B469E8A00230293174B02995A791D
:40104000914221DA1A7A039B01213B410B4204D031002800002A04D106E031002800002A02D1FFF76FFF01E0FFF758FF013F05D50727094B01341B681B5D0393029B013655
:4010800001330293B6B2D8E7019B013501330193ADB2C9E707B0F0BDC0290020F7B507000C00019208F0AFFD104B06009C4204D10F4B1C79542344431C1B0E4B9C4207D1ED
:4010C0000B4B1C79542374431C1BE30F1C1964100025B54209DA064B785D1979019A69430919FFF743FF0135F3E7F7BD0F270000C02900200E270000F0B593B01D0018ABAD
:401100001B78041E02910392019314D10BA8002D0DD0013DAC4204DA6B461B7903550134F8E73023035500230419637041E03023457003703DE00026B04201DA44420136BA
:40114000002720000A2105F0DFFF0B0004AA3033601ABB540A2105F0F1FE0137041EF0D104ABD855002E02D02D220BAB1A70B91900238D420DDDEA1B921B934206DA6C4629
:401180000BA824798019C4540133F6E7D343DB17134000229E190BA88619B81A013804AC205CB05401329742F7D10BAAD31800225A54039A02990BA8FFF770FF13B0F0BD58
:4011C000064B186002781A7142785A7182789A71C278DA7100221A727047C046C0290020F8B505000E00170053280BD800242F2908D8A74206DDA11989B2A8B2FFF78EFE70
:401200000134F6E7F8BDF8B505000E00170053280BD800242F2908D8A74206DDA11989B2A8B2FFF78FFE0134F6E7F8BDF0B5002587B00490059201938CB20C9B9D422EDA65
:401240000722EB1713405B19019ADB105A43154B03922B4004D50822013B52421343013301229A406B4600271E8A0292019B9F4211DA039A059B21009B18DB5D029A30000E
:401280001A4202D0FFF74AFE01E0FFF75BFE01360137B6B2EAE701340135A4B2CDE707B0F0BDC04607000080C37882781B02134342781B02134300781B021843704742695D
:4012C0000239023A03000020914203D258894143986A081870470268131E10D0197820290BD93A2901D00133F8E7511C8B4206D11278302A03D101330360002001E001206C
:401300004042704770B504000D00002803D1002309202B6011E00368002BF8D01A78002AF5D0D98882889142F1D1587801F0F8FA01231840EBD123682B6070BD002310B585
:40134000CC5CC45401339A42FAD110BDCB7E0200887E1B021843032A05D14B7D0A7D1B0213431B0418437047130A8A76CB760378032B03D1120C0A75120A4A757047F8B50F
:401380000700C56A3037012304002A004078390001F088FB0123002814D1236AA269E070EB1A934201D300230CE0A678012EFAD9A3696078ED182A000123390001F072FB15
:4013C000013EF3E71800F8BD002310B5C2789A4202D0FFF7D4FF0300180010BDC36A70B504000E0000258B4210D0FFF7EDFF051E0CD12100607801233200303101F018FBBA
:40140000002802D0012601357642E662280070BD002310B5C370013BC3620400FFF7DEFF0423002829D1164B1649E25C164B1202E35C1A4312B203238A421ED1230030332A
:401440001B78E92B06D0236B104A11491A4002238A4212D120006630FFF726FF0D4A0002000A0023904208D020008230FFF71CFF094BC318581E83415B00180010BDC046EC
:401480002F02000055AAFFFF2E020000FF00FF00EB00900046415400BABEABCC0023F0B50B6089B00D001700FFF715FF0B23061E00DA4EE1A84B8200D4580C23002C00D1C9
:4014C00047E12C6001252378AF43002B0DD0607801F026FA054008D12B00002F00D138E1420700D435E10A2333E10023F0B22370607001F01FFA0323C20700D529E1002F8F
:4015000001D04307EFD400212000FFF781FF022821D126000025F736FF360020331F1B78834202D03000FFF7BFFE04ABE85004351036102DF1D1002604AB9D590320002D4E
:4015400005D029002000FFF763FF01280CD90436102EF1D1F9E00123042800D1F9E0984201D90D23F5E00025230022003C331B783B3212781B02134380221BB29200934275
:40158000EFD12300220047331B78463212781B02134301D0019304E020005430FFF784FE0190019BA361230040331F787B1EA770012BD6D823003D331E78B3B26381002BBA
:4015C000CFD0731E1E42CCD12300220042331B78413212781B021A436B4600921B88238113001B07BDD1230044331878013B1B780002184303D120005030FFF755FE230077
:4016000022003F331B783E3212781B021A430392A7D0019B7B430293009B1F09029BBF18FF18B8429DD3C01B310005F0FDFB002897D0039B494A861C5B197F19904260D8EB
:40164000474A6661E5612362A762904273D8009A002A86D0029AD71803236762012773433E405B089E193F4BF618019B760AB34200D276E701235B422361E360813323716F
:40168000032F35D12300220061331B78603212781B021343012B2BD1691C2000FFF79EFE002825D1304B2071304AE35CA25C1B0213432F4A1BB293421AD120003030FFF7C8
:4016C000F3FD2C4B984213D185239B00E018FFF7EBFD294B98420BD186239B00E018FFF7E3FD87239B002061E018FFF7DDFDE060194A2770938801339BB29380E380002373
:4017000027E02362230022006661E561A7625B331B785A3212781B02134300D021E7009B002B00D01DE720005C30FFF7BDFDB6006062032797E7009A002A00D111E7029A01
:401740007600D718676202278DE70123042800D007E7180009B0F0BDEC110020F5FF0000F50F0000FF0100002F0200002E02000055AAFFFF5252614172724161F7B5012501
:4017800004000E00A94256D94369994253D20378022B2DD0032B3DD0AB424CD14F087F18036A790AC918FFF719FE002802D001256D4240E07B1CFF05590A0193FF0D236A81
:4017C000E7193037C91820003F78FFF707FE0028EDD1019BD805C00D241830342078000207432E4201D03D0925E03F053D0D22E0036A090AC918FFF7F1FD0028D7D1FF23CC
:4018000076005B0030341E40A419657820782D02054310E0036AC909C918FFF7DFFD0028C5D1FD30FF30B60030340640A019FFF73BFD05012D092800FEBD002370B58668D4
:401840000500046803619E420ED12378022B02D9636A002B07D12389002B01D1022021E0636AAB6115E01E006389002B0CD131002868FFF783FF0600431C12D00128EDD946
:4018800063699842F3D3E9E731002000FFF717FDA861AB696E61002BE0D03034EC61002000E0012070BDF0B5040085B00D001600022701297AD94369994277D20378009346
:4018C000BB4242D0032B52D0012B6FD14B085B180193590A036AC918FFF780FD071E65D1230030330293019B029A01330393019BDB05DB0DD318009A1540F2B2002D05D043
:401900000F2219780A4031010A43D2B21A700123E370039B2000590A236AC918FFF75EFD071E43D1039BDA05029BD20D9A18002D02D03609F6B206E00F231178360A994330
:40194000334019430E0016702EE0036A090AC918FFF744FD071E29D1FF2322006D005B0030321D4055192E70360A6E701CE0036AC909C918FFF732FD071E17D1AB00FE252E
:4019800022006D001D40303255192800FFF78CFC3601000F360900070643330A2E706B70330C360EAB70EE700123E370380005B0F0BDF7B50F1E0190056806D1EE68002EFB
:4019C00012D06B699E4210D30EE02800FFF7D6FE012845D9431C02D10120404241E06B693E00984201D23CE0012634006B6901349C4204D3012E01D8002032E00224019B61
:401A000021001868FFF7BAFE002806D0012827D0431CE1D0B442E9D1EEE70122210052422800FFF740FF002818D1002F08D16A692B69023AEC6093420AD2013B2B6107E007
:401A4000220039002800FFF72EFF0028EFD005E001222B79200013432B7102E00128BBD00120FEBDF7B58369050000910420002B6FD02F69374A203797426AD8FA05D20D84
:401A80002C6801925FD169690133AB61002907D122897B09934256D300230420AB6158E063897A0A013B1A424DD12000FFF766FE0600012801D802204BE0431C01D10120BD
:401AC00047E06369984238D3009B002BE4D069692800FFF76EFF06000720002E39D0012EE9D0731CEBD02000FFF76EFC0028E6D18C22230092003033A218187001339A422A
:401B0000FBD131002000FFF7DAFB0023E06200936389009A9A420DD201232000E370FFF72EFC0028CBD1009B01330093E36A0133E362EDE7E36A9B1AE3626E6131002000A6
:401B4000FFF7BDFBA8610020019B3034E4182F61EC61FEBDFFFF1F00F7B504000D00036801932B782F2B01D10135FAE75C2BFBD00023A3602B781F2B41D8230080222B339A
:401B80001A702000FFF759FE9CE02021197001339342FAD100224C49130008208C46591CEB5C202B31D86D18002A79D0621CD17FE52901D1E039D177002220219942524168
:401BC000230092002B331A7020002668FFF735FE002839D023002B331B7800285AD15B0770D4A379DB0659D52369D905019BC90D30335918019B1878FFF7A8FBA060230070
:401C00002200203300932B32BFE72F2B05D05C2B07D102E05C28C6D10131685C2F28F9D1FAE72E2B49D090423AD95EB2002E02DA6646803BF35C0026244FBF5D002F31D00A
:401C40000136BB42F8D12BE0A1693000FFF7C6FB0028BFD1E1690B78002B19D03F22CB7A1340A371CB7A373A13420CD10300009FCA5CFF5CD21B0A2B03D00133002AF6D0A1
:401C800001E0002AA6D000212000FFF7EBFE9FE704209FE7042815D1034213D1052011E006200FE01E00613E192E01D8203BDBB2009EB35401320B0071E70B28F0D00822D0
:401CC0000B20F8E7FEBDC04683DD010003DE010070B505000668FFF7B0FD041E28D1A9693000FFF77BFB041E22D1EB691B78E52B0AD1A9693000FFF771FB041E1BD1EB69E5
:401D000001001A00203206E0002BF2D001212800FFF7A8FEE1E7197001339A42FBD129000B222031E869FFF709FB0123F37002E0042C00D10334200070BDF8B50D000700AF
:401D40001100012D01D802202EE0046863699D42F9D2002A06D0012220005242FFF7A3FD002821D129003868FFF708FD061E01D1002019E00128E6D0431C14D00022290072
:401D80002000FFF790FD00280ED123695A1C05D0012201332361237913432371636935009E42DFD3E4E70120F8BD000070B50400FFF70AFB002855D12378032B4AD123791B
:401DC000012B47D121008C2230310B009200A218187001339342FBD15522234B4120E254224B9218E2542200DE3BFF3B31320B70137023006122323385251A705870722380
:401E0000AD0063551A4D63551A4BE0541A4BE2542369B832FF32A354184A180AA054184A180CA054174A1B0EA354E3680132A354154A180AA054154A180CA054144A1B0EF1
:401E4000A354E36960785A1CE262012300F02AFE0023237100226078110000F06FFE431E9841C0B270BDC0462E0200002F020000150200001602000017020000190200008F
:401E80001A0200001B0200001D0200001E0200001F0200001FB5019003A8140000910391FFF719FA0B22002817DB0D4B8000C1581A00002901D000230B70019B002B01D0B5
:401EC0000021197013501A1E07D00022012C04D101A96846FFF7E2FA0200100004B010BDEC110020F0B593B004000591160002930920002C00D1DFE03F2515402A0006A924
:401F000005A8FFF7CBFA0190002800D0D1E007AF069B059938000793FFF71EFE002806D1372304AA9B181B787F2B00D906301C231E4254D000280CD0042802D13800FFF72C
:401F4000C7FE0123029A136007331D43002808D0A9E01123BA791A4200D0A3E0730700D59CE02B0748D50026FB699E73DE731E745E74FB699E75DE751E765E762023FA69EE
:401F8000D372069B0393FB690493039B04991878FFF7DCF93200029004990398FFF7E4F90122FB691E775E779E77DE77069BDA70029AB2421ED0DB6A3200029938000393A1
:401FC000FFF7BBFEB0426ED103990698FFF706FA029B069A013BD360B04209D063E0002861D1BB79DA065BD4B20701D5DB0759D42B0701D540231D43069E0E9FF36A67629A
:40200000236230783900FFF7A1F9A06038001C30FFF74AF92700E0602660F3888A21A380283700233A00890025746374E36163616118137001328A42FBD1AB0635D5E5682B
:40204000002D32D065617689A1687602AE420CD22068FFF793FBAD1B0100012803D9431CF4D1012300E002230193019BA161002B1FD1EB0519D0069E3000FFF720F90223C8
:402080000193002815D06A0A1218E2617078013B390000F0CDFC002809D106E0082002E0042000E00720019003E0002004E00123019300230198236013B0F0BDF0B587B0B0
:4020C000039300231500039A0091136005A90400FFF718F9002800D09DE0607C002800D099E0237C0730DB0700D494E0E36862699F1AAF423AD92F0038E06369DA0577D1E9
:40210000059A56895A0A013E3240019231D0059BA16918000293FFF7D2F8002833D0019B7D0A1E18002D45D0029B019A5B8952199A4201D9019A9D1A029B320058780099D4
:402140002B0000F075FC002821D1237C7F2B23D86D02009B039A5B19009363697F1B5B196361039B1B6801935B191360002FC4D150E0002B01D1A06803E0A1692068FFF729
:40218000FDFA012801D8022002E0431C02D10120607440E0A061BAE7E369981B8542D7D921008022009B4002181892002831FFF7C5F8CDE7E269964219D0237C7F2B0CD967
:4021C0002100029B28315878012300F06BFC0028DDD17F22237C134023742100059B320058782831012300F023FC0028CFD1E66163693D00D9058023C90D9B005B1A9F42CE
:4022000000D91D002300283359182A000098FFF795F89EE7380007B0F0BDF0B51E00002387B00191336005A904001700FFF76AF8002800D0BBE0607C002800D0B7E0237C53
:4022400007309B0700D4B2E06369DA19934250D9DF434EE06369DA0500D091E0059A590A5289013A1140029146D0237C7F2B64D8059BA16918000393FFF721F800284FD0E1
:40228000029B7D0A1B180093002D65D0039B029A5B8952199A4201D9029A9D1A039B009A587801992B0000F0FDFB00283CD1E369009A991A8D420CD980222000019B490260
:4022C000591892002830FFF739F87F23227C134023746D02019BE2685B1901936369EB1863619A4200D21A003368E2605B1933607F1B002FAED10BE0002B03D1A068011E3D
:402300000CD100E0A1692000FFF753FB002805D14022237C00201343237448E0012801D1022002E0431C02D1012060743FE0A368A061002B99D1A06097E72100059BE269CE
:4023400058782831012300F0ADFB0028ECD17F23227C134023748BE7009BE26993420DD06369E268934209D22100039B009A58782831012300F05CFB0028D5D1009BE361FF
:4023800063693D00D8058023C00D9B001B1A9F4200D91D002300283318182A000199FEF7CDFF8022237C52421343237492E707B0F0BD73B504000E000A2902D10D21FFF7EA
:4023C000F8FF6368002B14DB5D1CE3181E733C2D0BDD210001AB2A000C312068FFF71DFF019B5D1B6B1E9D416D42A36865600133A36073BD426813B50400002A02DA0120DF
:4024000040420CE0010001AB0C310068FFF705FF0028F4D16368019A9342F0D1A06816BD73B501A90500FEF76DFF041E3CD12B7C5A0639D55BB2002B0EDA2900019BEA696A
:4024400058782831012300F02DFB012400282BD17F232A7C13402B74296A0198FEF7BEFF041E21D120226E6AF37A31001343F372AA682868FEF778FFEB6801981A0A337747
:4024800072771A0C1B0EF3770123B277B475F47534767476B474F474C370FFF787FC402204002B7C93432B74200076BD13B50400FFF7B6FF002806D101A92000FEF722FFA0
:4024C000002800D1206016BDF0B5060017000500002485B00191019B013B9C4212DA03AB012202A93800FFF7E9FD039B012B09D102AB1B780D2BEED06A1C2B700134150067
:402500000A2BE8D1002320002B709C4200D0300005B0F0BD0EB40022F0B5A2B027AB80CB0F901092119206933978002900D1F4E0252901D0013776E07978302903D1FB1CB9
:40254000B978012607E02D2902D0BB1C002602E00226B978FB1C002201920A00303A1F00092A08D80A20019A424351183039019119780133F1E70B00202293434C2B03D191
:40258000483B39781E430137002900D1C5E00A00613A0B00192A01D8203BDBB24F2B15D008D8432B37D0442B41D002220292422B3FD038E0552B3AD0582B32D0532B32D1EB
:4025C000069B1D681A1D06922B0001E008222FE05C1B01335A1E1278002AF9D1B30709D4019A23000134934204D220210FA8FFF7E0FEF5E72978002904D00FA80135FFF7A2
:40260000D8FEF7E7019BA3428ED920210FA8FFF7D0FE0134F6E7069B19681A1D0692C9B201E0102204E00FA8FFF7C3FE7CE70A220292069A700705D5101D06901468442B9D
:402640000FD109E0442B03D1131D0693146803E0131D0693146804E0002C02DA082364421E430723782900D12723DBB20593002303932000029904F05DFC2000CBB20D004D
:402680000299049304F0D0FB0400092D05D9059A049B94466344DBB20493039B03995D1C049B07AA30335354002C05D0202D01D00395DEE71F230393330704D52D2307AAB9
:4026C0005355039D023530230293F30701D42023029302232C001E400396039B002B0AD1019B661C9C4205D202990FA8FFF761FE3400F2E73400013D07AB595D0FA8FFF7D2
:4027000058FE002DF7D1019B9C4200D30CE702990FA8FFF74EFE0134F5E70FA8FFF76AFE22B0F0BC08BC03B0184770B5050000200E002C0003F002FF03F0C4FA2070013412
:40274000A31BAB42F8D1012003F0F8FE70BD000037B50A4C6B46DD1D01212800FFF7E5FF2B78FF2B05D06420013C02F0D3FA002CF0D12000441EA0413EBDC046881300008F
:4027800007B5012002F0C6FA6B460121D81DFFF7CCFF07BD13B5012002F0BCFA6B460121D81DFFF7C2FFFFF7D3FF041E02D1FFF7E7FF00E00124200016BDF7B5FA250600CB
:4027C0000F00AD0001AC01212000FFF7AEFF2378FF2B0DD023780020FE2B10D139003000FFF7A3FF20000221FFF79FFF012006E06420013D02F08EFA002DE3D1EAE7FEBD9C
:4028000070B505000C00002003F098FEA1B2280003F04CFA052002F067FA012003F08EFE70BD30B543B285B004000D00002B07DA00213720FFF7F5FF012844D87F231C40EF
:402840000C2C0FD1402302A8234303702B0E43702B0C83702B0AC3706B460571DD1D002C28D008E0FFF78CFFFFF794FF0300FF20002B28D0E6E70123082C00D1863306218A
:402880004371FFF7BDFF642002F044FA0C2C03D101212800FFF749FF142428000121FFF744FF287843B2002B0DDA013CE4B2002CF3D108E0952306214371FFF7A1FF6420B0
:4028C00002F028FAE8E705B030BDF7B507000E00FFF73EFF041E21D001AD012128002E70FFF78EFF642002F015FA0124FD2E15D0802138008900FFF783FF642002F00AFA25
:4029000002212800FFF711FF21002800FFF70DFF1F23287818400538444244412000FEBD0123002801D1024B1B7818007047C046A40B002073B50324002871D1394802F0D0
:40294000E9F9073401AD013C01212800E4B2FFF7ECFE002CF6D121002000FFF762FF060001283BD1D52108204900FFF75AFF01281AD104212800FFF7D8FEAB78012B2DD199
:40298000EB78AA2B2AD1FA24A4008021A920C905FFF747FF011E2CD0FA20013C800002F0B9F9002CF1D119E02100A920FFF739FF012802D93500340001E0A9250224FA26B7
:4029C000B60000212800FFF72CFF002820D0FA20013E800002F09EF9002EF2D10024124B1C7060424441114BE4B21C70FFF7C8FE16E03A20FFF715FF0028EFD1042128004F
:402A0000FFF793FE2B780C245B06E8D4083CE6E7802110208900FFF704FF0028DED1DEE7200076BD10270000F2110020A40B002070B51D0001230E001900002801D11749BC
:402A400009780320194228D1154B1B781B0700D452020124AC42A4416442113411002000FFF7DFFE002812D1802130008900FFF7A4FE002805D08023013D9B00F618002D89
:402A8000F2D1122C03D100210C20FFF7CAFEFFF777FE2B005D1EAB41D8B270BDA40B0020F211002070B51C00012316000D001A00002801D11F4A127803201A4238D11E4B10
:402AC0001B781A0700D47602012C0CD131001820FFF7A7FE002825D1FE212800FFF7F5FE444244411FE00622134203D021009720FFF797FE31001920FFF793FE002812D1C1
:402B0000FC212800FFF7E1FE002805D08023013C9B00ED18002CF3D1FD210020FFF7D5FE002800D10124601E8441FFF729FEE0B270BDC046A40B0020F21100207FB501237A
:402B400015001C00002801D12C4A14781C400320002C50D101290BD0002903D0814246D1802342E0FFF716FE44424441E4B23FE021000920FFF755FE041E01D0012437E030
:402B800010216846FFF719FE0028F7D06B4669461A78487A92091B7AC979012A0AD11A021218FC200904800301400131521892022A601DE09B09890059186B46C0229B79DF
:402BC00012019B0213406A46C9184B1C694656790F22897A3240C90952180621961C42000A40B218D2B2093A93402B6000E00424FFF7C6FD200004B070BDC046A40B00208F
:402C00007FB5454B1B78022B00D083E00E2201ACA38000232281414D414A1900019220002A0015F0D7FB3F4E3368002B06D068782B7800021843210014F062FD322002F060
:402C400053F808F0D9FE12232381374B2A0001930823A38000232000190015F0BBFB3368002B06D068782B7800021843210014F047FD322002F038F808F0BEFE16232381D2
:402C80002A4B2A0001930823A38000232000190015F0A0FB3368002B06D068782B7800021843210014F02CFD322002F01DF808F0A3FE1A2323811E4B2A0001930823A38085
:402CC00000232000190015F085FB3368002B06D068782B7800021843210014F011FD322002F002F808F088FE1E232381114B2A0001930723A38000232000190015F06AFB76
:402D00003368002B06D068782B7800021843210014F0F6FC7FBDC046FD330020FF330020F4110020D0290020DC290020D42900200A2A0020E429002070B50C00282808D0C2
:402D400002D8012805D067E041280AD04C280DD062E00020314B186003F09EF803F0C0FA5AE003F077FAFFF74BFF55E08B89222B20D12B4D081D2A001E33002115F02AFB4C
:402D80002A00002816D16168264B4D1E5860C81C596801380E024178314359608542F7D1E120400109185078596013780002184314F0FCFCA389252B12D1194D201D1B3302
:402DC0002A00002115F006FB002809D1636868781A78144B00021A722B78184314F0E6FCA389103B9BB2102B16D801250E4A2900DA40914310D10A4E4023201D320015F0E0
:402E0000E9FA636870781B7800021D40034B1D603378184314F0CAFC70BDC046D0290020FF330020F41100201111010030B5104B85B01B78022B18D101AC1C3323810D4B73
:402E40000D4D01930723A38000232A001900200015F0C0FA094B1B68002B06D068782B7800021843210014F04BFC05B030BDC046FD330020E4290020FF330020D02900201E
:402E800010B5024802F0B4FF10BDC046392D000010B508F0B1FD032008F0A6FD10BD0000014B58687047C046F4110020034B187A002802D0002201201A727047F4110020BC
:402EC0000023F0B589B00093060003928268C36804A8029102F002FA03210A24049B0F271A0D0A406243100007251A0C31493A4012180A801A0B2A40624310001A0A3A4038
:402F000012184A801A092A4062433B409B188B80338A04A8CB8000230093B269F36902F0DDF9032304990A0D1A40624310000A0C214B3A4012181A800A0B2A4062431000AC
:402F40000A0A3A4012185A800A09154065430F407F199F80328CB56ADA80F16A3C220023280004F04FF90022144B80B21A803C22588050432D1A9D80328E2100DA803278D3
:402F80000F4B02981A8003F04FFF0E4D2100E870029803F0CFFF03982971210003F044FF21006871039803F0C5FFA971FFF728FE09B0F0BDDC290020D42900200A2A002009
:402FC000F4110020E4290020F0B500240A258BB0059310AB1F7811AB1B7804920393009402000B0006A802F079F9069E0F21B3029B0F6B431A00330C1E480B409B18038013
:403000000723320B1A40330A0B409C4607236A4362444280320913406B433140C9186B46154A1B8A148054809480D4806A46C380124B928A1C805C809C80DC80104B81805B
:403040001A802900380003F0EFFE0E4C2900E070380003F06FFF03982171290003F0E4FE29006071039803F065FFA171FFF7C8FD0BB0F0BDDC290020D42900200A2A002027
:40308000F4110020E429002010B5104C20800C880F4804804C8844808C888480C988C18010880C4908805088488090888880D288CA801988084A118059885180998891800B
:4030C000DB88D380FFF79CFD10BDC046F4110020DC290020D42900200A2A002070B50123074C002800D00023064D237022786B7A9A4203D0FFF79AFE23786B7270BDC046F9
:40310000E4290020F411002070B50123074C002800D00023064DA370A278AB7A9A4203D0FFF784FEA378AB7270BDC046E4290020F411002070B50123074C002800D0002346
:40314000064D63706278EB7A9A4203D0FFF76EFE6378EB7270BDC046E4290020F411002010B502F00BFE0123054C2360FDF750F9A060E160FDF750F9206102F005FE10BD66
:403180000012002010B502F0FFFD044802F0DEFD02F0F4FD0022024B1A6010BD61310000001200200022024B18681A607047C0460012002010B502F0E7FD02F0D9FD10BD2C
:4031C00030B5044B9C68DD681B69046045600B6030BDC0460012002010B502F0E1FBC043C0B202F0D1FB022002F0A2FB10BD000010B502F047FB054B1A781C00002A02D1FD
:40320000034802F0ADFB0123237010BD122A0020D93100004100FA2010B5800003F004FE02F060FB02F072FB10BD10B5040002F04BFB200002F0A8FB10BD0000114AF0B52E
:403240001368002B15D101261C00082527006408374001D00C4F7C40013D002DF6D19F00151D7C51802401336400A342ECD101231360040A41402000C9B289005218536843
:403280005840F0BD141200202083B8ED70B5040010006518AC4204D02178FFF7CFFF0134F8E770BD0300413B052B02D83738C0B205E00300303BDBB2092B00D81800704700
:4032C000002330B50025002403808460C5604360038243824361037630BD000070B506008EB00800FFF7DEFF8F4D03003C2812D13B3B30002B70FFF7E3FF00208B4B1870F9
:403300008B4B18708B4B18708B4B18708B4B18708B4B187005E12878013809287AD803F079FD0509141D2A2E323641450F2B00D992E074E00024212B01D11E3B12E03000F1
:40334000FFF7BEFF2C700220EBE00F2B77D93000FFF7B6FF002303202B70E2E000243A2B03D1353B2B702000DBE03000FFF7A8FF2C700420D5E00F2B00D988E073E00F2B7C
:4033800000D99BE08AE00F2B00D9AEE09DE00024402B01D1373BE5E73000FFF791FF2C700720BEE00F2B00D9B5E0A5E03E2B2AD1738A72680293338A62490193B36804A8BB
:4033C0000093F36806F0E8FB0122012152425E48FFF75CFF040004A806F015FC2200010004A8FFF753FF012102005848FFF74EFFC34372690020934202D10123337606E005
:4034000030760A2003E03000FFF75AFF092000232B7086E03000FFF753FF002081E03288424913439BB233800A780132D2B20A70042A01D102230DE01B013380EDE7726837
:403440003B4913430A7873600132D2B20A70022A06D104232B70E0E7002301202B7060E01B017360D9E7B268334813430278F1680132D2B2B3600270102A01D10623E9E793
:403480001A0F090111431B01F160B360C5E73000FFF716FF002305202B7042E0328A274913430A789BB20132D2B233820A70042A01D10723CEE71B013382AEE73000FFF777
:4034C000FFFE002306202B702BE0728A1C4913430A789BB20132D2B273820A70042A01D10823B7E71B01738297E73000FFF7E8FE00230A202B7014E072690E4913430A78EA
:4035000073610132D2B20A70082A01D10A23A1E71B01736181E73000FFF7D2FE002308202B70C0B20EB070BD182A0020162A0020132A0020142A0020152A0020172A0020FF
:40354000192A002012DE010028DE010084E6010070B58AB004000D0068461F4906F01CFB0122012152421D48FFF790FE0600280006F049FB320001002800FFF787FE0121D0
:4035800002001748FFF782FE1649C24305A806F003FB1549200006F02EFB6946200006F01DFB1249200006F019FB2900200006F015FB0F49200006F011FB05A9200006F0A3
:4035C0000DFB0C49200006F009FB200006F01BFBC0B20AB070BDC04623DE010028DE010084E601002ADE01002FDE010076DF010031DE010033DE01000300413B052B02D83D
:403600003738C0B205E00300303BDBB2092B00D8180070470023038043600381C36043810361037570470000F8B504000800FFF7E3FF6E4D060028780023092800D9D2E0D6
:403640001F0003F0E7FB051A1D273039424B585B2000FFF7DFFF664B01221F70654B1F70654B1F70654B1F70654B1F70654B1F7000233C2E00D0B6E04BE00F2E6CD84AE0EF
:4036800000270323212E2DD02000FFF7C3FF2F700223A8E00F2E4ED92000FFF7BBFF00232B7003339FE00F2E59D92000FFF7B2FF00232B70043396E00F2E60D92000FFF779
:4036C000A9FF00232B7005338DE00F2E66D92000FFF7A0FF00232B70063384E00027402E03D108232B703B007DE02000FFF792FF2F70072377E00F2E6FD85FE03E2E03D1A2
:4037000001232375002303E02000FFF783FF092300222A7067E02388354A1E43B6B2268013780133DBB21370042B01D102230DE0360126800EE063682F4A1E4313786660C4
:403740000133DBB21370082B02D104232B7001E036016660002346E02B70012343E02389264A1E431378B6B20133DBB226811370032B01D10523E9E736012681EAE7E368E7
:40378000204A1E431378E6600133DBB21370082B01D10623DAE73601E660DBE76389184A1E431378B6B20133DBB266811370032B01D10723CAE736016681CBE723690D4AA0
:4037C0001E43137826610133DBB21370082B01D10923BBE736012661BCE72000FFF71AFF00232B700833D8B2F8BDC046181600201C2A00201A2A00201E2A00201B2A00208C
:403800001F2A00201D2A0020F0B54A4B85B01B78002B2BD002F008F90021884202D002F0F9F9C1B2444D2B78002B00D17FE0002900D17CE0414C2000FFF7F6FE237D002B42
:4038400075D001F02DFC3E4EF060FCF7E5FD3D4B6268D880726022895A80E268B26062899A800122384B1A7000234FE0374CA77D002F5CD1364DAB7C012B58D102F0D4F894
:40388000002854D002F0C6F9C1B200294FD0314E3000FFF723FD337E012B48D13278297822708A4234D12C4A2C491380214AA37557700A78AF74520013430B703379237513
:4038C000B268F368A260E360378A2782708A0105060B090FC0B2A6746175E074012E13D1009700F027FBA668E768238A0393E47C00F028FB0423C0B2019300902300039A79
:4039000030003900FFF760FB2B7801332B700EE0013291420BD1728AA274B168F268A160E260328A22820C4A13800D4B1F8005B0F0BDC04619160020582A0020402A0020A0
:40394000782A0020BC2A0020B92A0020602A0020282A0020982A0020902A0020892A0020BA2A0020094A5378002B03D008480178490001700133DBB25370032B05D1002383
:40398000044953700B8004498B74704719160020892A0020902A0020282A002010B502F017F8094802F022F80849012001F088FA0122074B9A750022064B9A7402F042F8C2
:4039C000FF22054B1A7010BD0938000065390000602A0020282A0020202A002030B5174C9FB0A37C164D002B02D0AB7D012B23D100F0A8FA134BE0701B78C0B222790290CA
:403A00000393A37810490193637811A80093002306F0C2F8227811A904A8FFF799FD04A802F00CF9302002F037F80123A37400233220AB7501F058F91FB030BD282A00200E
:403A4000602A0020892A002035DE0100014B58707047C046282A0020014B18887047C046902A00200A4B5A7D012A03D1094A9278002A03D0084A1278FF2A03D10022FF2050
:403A80005A7504E00022FE2002495A758A707047602A0020282A0020202A00200023044A9370044A5375FE22034B1A707047C046282A0020602A0020202A00200122044B8B
:403AC0009A700022034B5A75034BFF321A707047282A0020602A0020202A0020014B187D7047C046602A0020034B002802D001221A7100E018717047282A002010B5074B50
:403B0000012419780023180022009A400A401A4101338018C0B2052BF6D110BD892A002010B514009AB00B00020008490DA806F033F822000DA96846FFF70AFD684602F0A4
:403B40007DF8302001F0A8FF1AB010BD50DE010030B5CB1A039C821A9BB2049D226019B2002A08DA002901DC29800EE0074901325B182B8008E0002AF6D00029F4DAFA21AE
:403B800089005B182B80013A226030BD18FCFFFFF0B50D0087B0170003AA1E000B884988019204AA0092040002684068FFF7D0FFEB88A9880E2505AA6D440092A068E268AA
:403BC0000195FFF7C5FF059A049B16489B186A4691892A888A1892B211B2814202DD0133114905E01148814204DAFA21013B8900521811B2CA0F52180D495210194004D5B8
:403C000002200139404201430131012902D1F532FF3212B2D90FCB185B103B60326007B0F0BDC046E703000018FCFFFF19FCFFFF01000080F0B587B001F004FF012306249C
:403C40007D4A7E4913700B7001920293FCF7E0FB7B4D2860FCF7E0FB7A4B81B2012228681980FFF75DFFFCF7D3FB0700FCF7D4FBFA2300259B00C618B6B2FCF7CDFBB042B4
:403C80001FD2012D1DD000256F4B1A78AA420AD01D706E4B6A461D88127A013D6B425D41019BADB21A70FCF7B3FB002901D1B842E3D9674B9E42E0D9664B0137F618B6B290
:403CC000DBE7013CA4B2002C04D0012DBED10023019302E00194012D65D105270226ED19FCF796FB564C2060FCF796FB554B81B2320020681980FFF713FFFCF78DFBFA23D6
:403D0000DB00C01883B20293FCF782FB00240390FCF782FB029B984232D2012C30D00024494B1A78A24216D01C70484B1B88B3420ED17B1E04AADFB2424905AB4048FFF78C
:403D400027FF059A06259446019B0134634401930122394B1A70FCF75BFB002902D1039B9842D5D93A4B029A9A42D1D91300394A944663449BB20293039B01330393C7E71B
:403D8000013D0136ADB2B6B2002D01D0002FA7D1012C07D10198052103F0D0F831300190062501E0002425000123234A039313700292002D3AD00022019B1000594289B243
:403DC000FFF7AEFEFCF724FB0700FCF725FBFA2300249B00C618B6B2FCF71EFBB04205D3012C22D0013DADB20024E2E7012C1CD00024154B1A78A24209D01C70134B6A46CE
:403E00001C88127B63425C41029BA4B21A70FCF7FFFA002901D1B842DED90D4B9E42DBD90C4B0137F618B6B2D6E700250120034BA0431D7007B0F0BD582A002019160020F3
:403E4000782A0020BC2A0020B92A0020402A0020E703000018FCFFFF074B10B51C68E123DB00E41801F01CF90123002902D1A04200D80B1CD8B210BD8C2A002010B501F091
:403E80000FF9014B186010BD8C2A002010B500F00DF9C0B24342584110BD00000C22074BDA80074B074ADB655A61074ADA62074A5A64074A1360074A13607047082B0020D5
:403EC000E82D0020002E0020182E0020302E0020482E0020042B002030B51D001400074903AB1A880B6818701A829C60DD60044A5B690B6013680133136030BD482E0020CE
:403F0000002B002030B5094B1C68247804701868048A148042698468C5680C604D601A60034A1368013B136030BDC046042B0020002B002007B504A909880091FFF7CCFF20
:403F400007BD0000014B18687047C046002B0020014B986A7047C046C82A0020014B188E7047C046C82A0020014B18887047C046082B002084B070B50E4C07930490059158
:403F800006922388E688B34210D23822A0880133451C50432018ADB2083004A92380A58005F037F9AE4201D10023A38070BC08BC04B01847082B0020F0B506000F00150039
:403FC000154C164A8BB016492000FFF79BFFA268E368A661E761B61A9F41238A2584ED1AFA23ADB2A662E76225869B009D4208D901225242D317B6185F41A662E7626D4223
:404000002586210028221031684605F002F90FCCFFF7B0FF0BB0F0BDC82A0020D82A0020D02A002070B50B4C2588002D10D0382261884E1C51436118B6B20831668005F0E9
:40404000E8F8E388B34201D100236380013D258070BDC046082B002084B010B50593AA23029006489B000391049202A93822C01805F0CFF810BC08BC04B01847082B00202D
:40408000AA2310B5040004499B003822C91805F0C0F8200010BDC046082B00200A2283029B0F53430003000FC018704710B5012202490348FDF7EEFE10BDC046F6DE0100BC
:4040C0004C2E0020F0B5B3B0040001F0F9F9FA2385049B00AD0F5D430F23644A03409B18E91864220F23050A1D4013006B43553ACD1803091340053A5343ED181300C60058
:40410000F60F73430532060E16409E19FFF7C6FF574F0200330057490095380005F03CFD0023554A39001360544813003222FDF7D9FE061E00D097E00090A268E36806A801
:4041400001F0CCF8069D07272800FFF7A7FF0A212B0B02003B400A2059430F238C46290939404143280A18400300208A634401900F2005406D18009541490AA805F00CFDE7
:404180000096A269E36906A801F0A8F8069D0FAE2800FFF783FF02000A202B0B3B4058432B091F400A230F215F432B0A19400B18218C300001910F210D40ED190095304918
:4041C00014AD05F0E9FC238EA26A2E49280005F0E3FC23780AAA2C4C02950196009222682A4919A805F0D8FC2368244D012B03D0214B1B68012B28D101F04AF90600FFF7A7
:404200004DFF0A2107278C460200330B080031093B40394067464F430F215843330A0E400B40F6191B18009619492800FEF772F9184E28003100FEF76DF917492800FEF758
:4042400069F931002800FEF765F919A805F0DBFC05AB020019A92800FDF7DFFF2800FEF725F923680133236033B0F0BD30F8FFFF1B16002059DE01007C30002080300020DD
:404280006ADE010083DE0100A80B002090DE0100A0DE0100C2DE0100F7DE01000022F0B5444B9FB01A60444901324448FDF71AFE424D09AC2A0052212000FEF705F9002888
:4042C00073D03F4B1B680193019A2378D31804225B781342ECD000231A0003A95A5205A95A5207A95A520233082BF6D10021073B00910426655C019A5219527832401CD028
:404300000098013158434019303882B200920A225343EEE73A2B19D101240135EDB2013109AB0198CB5CC618042076780640F1D13A2BF1D0012C25D1013109AB5B5C0A2BF8
:4043400027D00D2B25D000250124E9E7012A0ED0002A0AD0022A13D1AE1C07AF7600F05B303B4443E418F4530AE003AF00E005AF6E00B446F65B303B7443E4186346DC538D
:404380000A24CCE7022A02D00132D2B2D4E73200D2E7009807AB05AA03A9FEF775FEFEF777FD642000F0A0FC82E72800FEF77EF81FB0F0BD7C3000201B16002080300020D6
:4043C000C810002010B502F021F802F02DF8022002F034F810BD000010B5002002F044F80100002002F050F8014B186010BDC046A832002010B5002002F044F9012002F0AB
:4044000041F9022002F012F90022024B1A705A7010BDC0462F16002010B505F081FB0400002002F0C9F820003C2102F06DFE64201E31C9B2484302F0C5F802F0E9F810BD19
:4044400070B502F02BF9144D0023002801D1AB780133AB70AB78114C142B11D9FFF772FD002802D0EB78002B13D02078012303280ED000280DD102232370FFF735FB08E007
:404480002378012B01D1002302E0022B01D101332370207870BDC0462F160020AC0B002010B5124C6378032B05D1FFF717FB012801D1607018E06378002B04D1FFF70EFBEA
:4044C000022300280FD06378012B04D1FFF706FB0023012807D06378022B05D1FFF7FEFA002801D103236370607810BDAC0B002070B5FFF7A5FFFFF7D3FF2C4C2378012B99
:4045000002D06378012B19D10120FCF76FFC0120FFF7EAFA0022264B1A7001325A70DA706378934204D12278032A24D1237022E0032B03D12378012B1DD163706378022B72
:4045400019D102F02BF80020FCF750FC0020FFF7CBFA0022164B1A705A70DA7062782378022A04D1022B1FD0032323701CE0022B01D1032363706378002B15D12378002BF0
:4045800012D10B4C2578002D0ED1FFF7DBFC00280AD06378002B07D0FFF73EFF054802F05DF801236570237070BDC046AC0B00202F160020F54300000122014B5A70704782
:4045C0002F160020F8B500220125FF260D490E4C9300585CFF280BD0C8184788002F04D04388013B9BB2438002E0585C5E5425540132052AECD102F0D1F8022002F0A4F82F
:40460000F8BDC04634160020AC320020FF2210B5054B06481A701A711A721A731A7402F0A9F802F083F810BD34160020C5450000002270B50C4B9400E65C1D00864202D1AA
:404640001C1961800EE00132052AF4D100229300EC5CFF2C03D1E854EB18598002E00132052AF4D170BDC04634160020002210B5274BA6B01A70FFF777FC264C002802D146
:40468000A38A012B3ED1A38A002B0ED118A8FFF7C9FC1CA92822684604F0BBFD189819991A9A1B9BFFF7D8FC07E00AA8FFF7E8FC38220AA918A804F0ACFDA38A002B07D1D4
:4046C000FFF740FC0422C1B218A8FEF7F9FB0EE0FFF74AFCA369984209D0FFF733FC0422C1B218A8FEF7ECFBFFF73EFCA06118A8FFF7E8FC002804D0FFF7D8FC0123A38229
:4047000000E0A08205210020FFF792FF26B010BDAC32002034160020002210B5044B5A70FFF75CF905210120FFF782FF10BDC046AC3200200022114B10B59A7001F02AFB62
:40474000041E03D1FCF7C2F9200003E00120FCF7BDF90120FEF7D8FCFFF7D0F9FCF7CEF9FFF77AF9012801D1002000E00120FEF7E1FC05210220FFF75BFF10BDAC320020AB
:40478000002210B5084BDA70FCF724FAFFF7DAFBFCF712FBFFF720FEFCF74CFA01210320FFF746FF10BDC046AC320020F8B50025104B1D71FEF76CFBFEF772FB0E4E040022
:4047C000F369984210D001F0FCFF070029002000FBF7D4FF2000290000F04AFE380001F0F4FFF461FFF76AF901210420FFF720FFF8BDC046AC3200203416002010B50D4CBB
:404800002378012B01D1FFF731FF6378012B01D1FFF782FFA378012B01D1FFF78BFFE378012B01D1FFF7ACFF2379012B01D1FFF7BDFF10BDAC32002010B5FCF7FFF8FCF71D
:40484000E9FAFEF7D5FCFBF7D9FDFFF7A7F8FEF799FCFFF723FBFFF7B5FDFEF711FBFFF7D5FE05210020FFF7E3FE05210120FFF7DFFE05210220FFF7DBFE01210320FFF799
:40488000D7FE01210420FFF7D3FE62B610BD000010B5FFF713F9FBF7C5FD041E17D0002100F0E6FDFFF7F2FA0400012803D10E48FCF7E0F815E00D48FCF7DCF80020FFF78E
:4048C000C5F89620400000F00FFA002409E00848FCF7D0F82000FFF7B9F8FA20400000F003FA200010BDC04619DF010028DF010033DF010010B50A20FEF78CFCFFF7ACF8D9
:40490000002803D11448FCF7B5F822E01348FCF7B1F8FFF78FF9041E0FD11148FCF7AAF8FFF7BCF82000FEF7D9FBFFF7A7FAFA20400000F0D9F920000CE00A48FCF79AF8EF
:40494000FFF7BCF80120FEF7C9FBFA20400000F0CBF9012010BDC0463EDF010049DF010056DF010060DF010070B5FFF7FDFA07280FD9FFF7F9FA0C280BD82748FCF77AF8F7
:404980000020FFF763F8FFF7DDFA0400601E84412CE0FFF7E9FA0C2807D91F48FCF76AF80020FFF753F8002420E0FFF7CBFA032806D91A48FCF75EF80020FFF747F814E07F
:4049C000FFF7C0FA164D041E09D12800FCF752F80120FFF73BF82000FEF727FC06E00120FFF734F82800FCF745F80124FFF73AF8FF2800D10400FEF759FA002801D0FFF7C0
:404A00004DFCFFF729FA012801D1FFF757F8FFF76FFD200070BDC0466BDF010078DF010083DF010010B50120FEF7FFFBFEF7BAFB0400012803D10548FCF71CF803E0FEF76D
:404A4000B9FBFFF7B9FD200010BDC0468CDF01001FB50A20FEF7DEFB0D48FCF70BF801A902A8FEF7ADFB02980399019B9AB2FFF7A3FAFFF76DFA0400FFF770FA81B22000AA
:404A8000FCF76AF9FA20400000F02EF91FBDC0469BDF010070B5FFF7CFFEFFF7F9FE0028FBD0002301250326134C2370207803281ED802F0AFF90208131AFFF71BFFC0B29A
:404AC000002815D113E0FFF74FFFC0B20223012802D0FF280CD10023237009E0FFF7A2FFC0B2012803D1267002E0FFF7B1FF2570FFF784FEDAE7C046B8270020054A13687B
:404B0000002803D0802109060B4301E05B005B081360704780033A4010B504F03FFB03680C2B00D1FEE7FEE7030010B580240849084A08686400C3189A1AA24201DC0B60E8
:404B400005E004F02BFB0C2303600120404210BDB00B002010340020F8B500250F49104B01394A1C14D000221F685C689E68A018B24203D0B858A0500432F8E70200DE689D
:404B8000141AA64201D020C2FAE710330139E8E704F00AFBFFF77EFFFEE7C0460100000028E8010001210D4A70B5136814008B43136000230A4D0B4E0B489A002900032B11
:404BC00000D8B15801338150302BF6D1FBF724FA012223681343236070BDC04600001040194B0000000000000000002010B5040086B001F0E6FD0E4B0E491A6802AB0292C9
:404C00000D4A126803920D4A1419033C227804920B4A126805920B4A00926A4601930A4B1A600A4A11601B6801F0CFFD06B010BD08010B401700008000010B407AE00100A1
:404C400030001040B6EA000008001040040010401F2800D901BE034B8000C318186819607047C04640000020F8B504000E00032900D901BE1F2C00D901BE032725003D4098
:404C8000BD400635AF40AE4001F09BFDA408054BA400E4182368BB431E43266001F095FDF8BDC04600E400E01F2318401E3B8340014A13607047C04600E100E01F231840BC
:404CC0001E3B8340014A13607047C04680E100E01F2318401E3B8340014A13607047C04680E200E001BE704770B5802504002D02064BAC4205D9586801F05AFD044BE41886
:404D0000F6E79868604301F053FD70BDB40B00200080FFFF10B5034B1B7B584301F048FD10BDC046B40B0020012370B5040080200E4900020A681D001A430A600C490D4AB4
:404D400011600D490A6802430A60002C01D100200AE00120FFF7DEFF084B1B682B42F6D1013C002CF5D1102070BDC04660F02E400220000078002E4010002E400C002E40F5
:404D800001200A4A136883431360022311689943116007492E330A689A43203B1A430A6007220B68934303430B60704700F02E4000FF2E4010B5FFF7E3FF8021024A09067F
:404DC00013680B43136010BD00F02E400122124B70B51C681440002815D0904216D1022507261968A94319600C490A68B2432A430A600A682E35AA43103D2A430A601A68D4
:404E00001043186005E0FFF7BBFF02E00020FFF769FF200070BDC04600F02E4000FF2E4010B501F0CEFCC021034A090213680B43136001F0CAFC10BD00010B4010B5802466
:404E400001F0BFFC0749084B0A68E4011A4022430A600A6813408022120213430B6001F0B4FC10BD00010B40FF3FFFFF70B5050001F0A7FC0E4B04001A68C0231B02134041
:404E800011D10C480C49054028000E680B4A3240104308600A68012B01D1FFF7C1FF200001F093FC70BDFFF7C9FF0123E9E7C04600010B400404040010020B40FBFBFBFFB2
:404EC00010B5022805D8054B80001B189869996103E00020FFF706FF002010BD54160020042270B5224C2368134213D021494B6813420CD0204B5D6A48681540A8434860DF
:404F0000596A914359629B69002B00D098470420FFF7ACFF80232268DB001A4215D015494A681A420DD0144A556A48682B4098434860516A114B0B405362D369002B00D0E1
:404F400098478020C000FFF791FF80232268DB021A420CD0074A52681A4204D0064B1B6A002B00D098478020C002FFF77FFF70BD10020B40C80B002054160020FFFBFFFF6A
:404F800010B50400830705D1642101F0D3FF0120002906D1C8212000490001F0CBFF4842484110BDFA2189000A000F2110B5642483049B0F5A43030A0B4063439B180200C6
:404FC00000090A400840053948439B18C01810BDF7B50F00FA21060089001000150001F0A9FF0C006421200001F0A4FF380000910A2101F019FF0A2103053800019301F0A0
:4050000099FF019B30000F040A211F4301F00CFF000707430A21300001F08CFF09060F43FA212800890001F0FFFE000307436421200001F0F9FE000207430A21009801F053
:4050400079FF00980F430A2101F0EEFE00013843FEBD70B50C001500022901D80C34013DC8212818AE0836184900280001F0DCFE64213618280001F0D7FE0623584335188C
:405080001A2001340A21604301F0CEFE0721281801F050FF002900D10731080070BD0000014B186859687047D8320020F0B50A4FBB683A689B187A68BB6093420AD3012033
:4050C0000021064E9B1A346875680019694130607160BB60F0BDC0467C160020D8320020F0B587B0002405000F00FFF75BFF002300930194404C0390039B9C4210D22000F3
:40510000FFF73EFF009A019B002801D03B4800E03B48002112184B41013400920193EBE70A23EC00E40F5C432B011B0FE418631E344A5B0003989E5AFFF722FF002804D026
:405140000223A342A4416442361903230A24280D290C0F2518400023604329400A18300019000326801859410023274A02F06AF83B0D1E4074433B0C1D406319049005917D
:4051800003933B0207D57B0205D5039B0B2B02D8039B0C3303930723380B18400A2102003D092B404A4359430F240D00380A20403C40661901250027144C801800233C2259
:4051C00000216D4202F03EF8009A019BA4197D4124184D41A4185D41049A059BA4185D41E122002312010398390002F02BF80019694107B0F0BDC046B20700000085E201DA
:405200008033E101A8E001008051010080AEFEFFF7B58B020C000A210F229B0F4B430600200C10401B180193E300DB0F5943230E1A408B1820000093FFF7B4FE3100070007
:405240002000FFF74DFF064B064D186059603A00009901982E606C60FFF7FBFEA860F7BDD8320020BC3200200122084B10B51A700023074A0749D360074A0848D360084A6C
:405280001370084A1360FFF7C3FF10BDB83200207C16002016200908BC32002000161000D0320020CC32002010B5034B1B78002B01D1FFF7D9FF10BDB8320020064B10B54C
:4052C0001B18DC7D022805D10800FFF759FE431E98412418200010BDA8E00100F0B516005D4A87B01F005D4B0490009200251C00BD420DD0009B361BAF4101331800009383
:40530000FFF73EFE002801D1544BEFE7544BEDE7B342EFD901235348534C0193002302900393BB420CD0029A039BB61A9F41019B0099013318000193FFF7C0FF6043EDE75B
:40534000B042F0D9484A00233000390001F05AFF4549039B41430A00B14201D9002200233D003400A41A9D41E122431C0593120100232000290001F045FF0023E121070057
:4053800002930C9B09017943002B0ED0002D02D1364B9C4205D9012302930C2F05D90C3F03E0002F01D102970C3700230A00AB4203D1A14201D900220023A41A9D413C22DE
:4053C00000232000290001F01DFF3C210600002371430A00AB4203D1A14201D900220023A41A9D410599009A0198FFF7F1FD049B0A2158600C9B3800DD05029B9B051D43FC
:4054000001F012FD000505430A21380001F092FD09040D4330000A2101F006FD000305430A21300001F086FD09020D4320000A2101F080FD20000D430A2101F0F5FC049B46
:40544000000105431D60009A01990598FFF701FE049B986007B0F0BDB20700008033E1010085E20180DE280080510100C1A800007FB502000B00054902A80A604B600021BF
:405480000091FFF72BFF07B000BDC046D832002037B500252900074C074BE068074C1A685B68009512184B412000FFF717FF20683EBDC0467C160020D8320020BC320020EE
:4054C00037B500252900074C074BE068074C1A685B68009512184B412000FFF7FFFE60683EBDC0467C160020D8320020BC3200208021054A10B5136809060B4313600A20B2
:40550000FFF7D2FB10BDC0460000254010B5054C2378002B03D100F01DF801232370FFF7E7FF10BD8C16002010B50A20FFF7C6FB00F06EF8054A0A2013685B005B08136078
:405540000022034B1A60FFF7C3FB10BD00002540880F254010B50024194B1A4A1C601A4B0A201A60194B1A4A13601A4A14601A4A14601A4A13601A4B1C60FFF79FFB0321D2
:405580000A20FFF771FB17490A20FFF761FB1422154BFF321C60154B1C60154B1C60154B1A60154B043A1C60144BFF3A1C60144B1A70144B1C80144B1C60144B1C6010BD19
:4055C000000025407708008060002540070100800003254004032540100325400002254004022540D1670000C80E2540880E2540480F2540080F2540C80F2540880F2540FE
:40560000E0320020F032002000330020E83200201022014B1A707047E0320020F8B5274C050023780F000420102B45D10126244B00181B6833423FD10230FFF73FFBB54027
:40564000FF231D40002F02D1DB3B237002E025233543237002211B4B1B4A1D601B4B13601B4B19600823FF33106817491842FBD00423086803400ED102200D6805420CD1DA
:405680000868102101332170184201D0180004E08020400001E0002003000821FF311160002B09D080210B4A090613685B005B08136013680B431360F8BDC046E0320020D1
:4056C0006400254040022540000F2540170300006800254000002540202210B51A4B04201C78190014422DD0184B18681823104200D1083B164A174C13601223FF33206841
:40570000144A1842FBD01368DB0606D401231068184204D18020400003E0002000E0180003001224FF34146010220A70002B09D08021094A090613685B005B081360136850
:405740000B43136010BDC046E03200206400254068002540000F25400000254010B51C4A0100137804209B0631D51A4B1A4819600823FF330168184C1942FBD00423216832
:405780000B4004D0602300201370030010E002202168014202D06021117009E01021012320681170184201D0180001E0802040000822FF322260002B09D08021074A0906C2
:4057C00013685B005B08136013680B43136010BDE032002040022540000F25400000254070B5194B1A781900930628D502230426164D174CFF332A68324202D122681A4272
:40580000F9D00422114B1B6813420BD0114B0F4C1B682260002802D10F490A6011E060220A700EE080210D4A094B09061A600C4A13685B005B08136013680B4313600123DF
:405840005B42180070BDC046E0320020C00F2540000F25404003254068002540170300000000254010B50A20FFF728FA0022044B0A201C88A4B21A80FFF716FA200010BD49
:40588000F03200208022094B52021A600C220021074B1A60074B0A3A1A60074B074A1360074A1160074A13607047C0460001204024012040380120408813000014012040CF
:4058C0000C0120400801204010B500F07AFF0121034A13688B43136000F077FF10BDC04600002040014B80B2186070471401204070B50D000400AC4000F063FF024B1C6081
:4059000000F063FF70BDC0460800204010B5012400F057FF054A13682343136000F055FF18212000FFF7E4FF10BDC04600002040014B18607047C0463001204010B5040023
:4059400000F03FFF044A054B1168A4030B401C43146000F03AFF10BD10E400E0FF3FFFFF10B58024054BA4021C60054B0833D8670320FFF7E3FF034B1C6010BD80E100E09F
:405980000000002000E100E01023044900010A689A43D2B2034013430B60704700030440024B1868C006C00F7047C046040304408021064A10B5136809060B43136009201C
:4059C000FFF772F900F010F910BDC0460000244010B5054C2378002B03D100F093F801232370FFF7E5FF10BD94160020014B58607047C04694160020084B094A1968136896
:405A00000020994208D013680133652B00D103000449C85C1360C0B27047C046E03300200833002078330020044B1868044B1A681B68904200D26530C01A7047E0330020F4
:405A40000833002010B50920FFF738F90B4B80211A680B4B49021A6000220A4B09201A70094B1A680A431A601968084A0A401A60074A084B1A60FFF717F910BD0833002078
:405A8000E03300200C33002004032440FFFFFEFFED0F0000C00F2440134B144A30B515681C681900A54208D1114B1C681F232340102B02D00F4B186015E013680133642BAD
:405AC00000D100230C68A342FCD002210A4CC0B221600A4CE0541360094B1A680A4202D11A680A431A6030BDE4330020103300200802244040022440800F244014330020F1
:405B0000880F244070B51F4A00241F4B07201A60312204251D4B1E491C601E4B1A601E4B0B601E4908601E4902300C601D490A601D4A13601D4B1C601D4B1D60FFF7BEF83C
:405B400003210920FFF790F81A490920FFF780F8194B1C60194B1C60194B1C60194B1C60194B1D60194B1C601A68194B1A80194B1C60194B1C60194B1C70194B1C60194BAB
:405B80001C6070BD0B0800020000244040002440000324404800244007000080040324401003244044002440000224400402244050002440016B0000880E2440C80E2440D7
:405BC000480F2440080F2440C80F2440880F24409C160020E0330020083300200C33002010330020E4330020064A074B11680B40902109040B431360044B1A88044B1A6041
:405C00007047C04600000240FFFF0FFF9C160020880F244010B5FFF707FF03000020834201D0FFF7E9FED822034B92001968114201D000201A6010BDC00F244010B5040053
:405C40000134631E1878002802D0FFF725FFF7E710BD0000F8B506000825134C73B2002B03DA10222368134302E0EF22236813400422236023680A201343236000F098FD13
:405C8000FB232268013D134023600A207600EDB2054F00F08DFDF6B2002DDFD1EF233A6813403B60F8BDC0460002044070B504004518AC4204D02078FFF7CCFF0134F8E73E
:405CC00070BD00000823F7B50024154D019310222B68134F13432B602B680C3A13432B60104B1B689B07DB0F012B00D11C430A2000F05EFDFB233A680A2013403B6000F0C1
:405D000057FD019B064E013B64000193002BDED13268EF33134064083360E0B2FEBDC046000204400402044010B5040000F049FD044A054B1168A4030B401C43146000F055
:405D400044FD10BD00E400E0FF3FFFFF10B50224044B1C60044B58640320FFF7E5FF034B1C6010BD80E100E00000002000E100E00222014B1A60704700E100E00222014BCC
:405D80001A60704780E100E00222014B1A60704780E200E0024B1868012318407047C04604020440012304490A689A43D2B2034013430B607047C0460001044010B500240B
:405DC000064B1C70064B1C70064B1C7000F038FA054B1C70054B1C7010BDC04602340020FE33002001340020E8330020F033002030B591B0050014221E490BA803F009FA74
:405E00001D4C0134E37F002B03D1FFF7D7FF0123E3770120002D2BD000211B24174B08A805AA1D60018106AB117016311C805C806944173C426008931C7105F0B9FE002821
:405E400016D10F4BAE2202930E4B1201019305230D4900930D480BAB05F000FE002807D101220B4B26211A700A480E3212F09AFA11B030BDCCE001009E160020EC3300208D
:405E80007902000080F00100C0000020895F0000FD330020E0E00100020010B50120022A2AD8164B1B78042B24D1154C2178194220D1144B002A05D1596A1F301A86088010
:405EC000103009E0012A08D19621C8201986596AC00008808020C00148800B49203318000A7010F083FA002806D1042223781343237001E00420FF3010BDC046FD3300204D
:405F000002340020D00B00200134002070470378407800021843704770B58389040000250B2B1AD1290004303533220012F052FA051E0DD16068FFF7EAFF094B21001B686D
:405F4000820702D58220400001E00620FF3098470121044A13788B431370280070BDC046EC33002002340020002382799A4208D1821D0378002B03D101309042F9D100E0F5
:405F80000123180070470000F0B50126994B87B01A78040032430D001A700193272800D1C9E015D8062800D198E007D8B04235D0052800D00BE10A788F4B8DE0242800D1FF
:405FC00088E0262800D1B8E0212800D0FFE095E0422800D1D4E017D8282878D0412800D0F5E0864E0222300003F013F90022824B31781A700C325143814B82485918824BA2
:40600000C91803F006F9E2E04C2800D1C4E0FA2800D1D8E0432800D0D9E0B5E00023072705AE30007370377007F02CFD30003770747007F027FD754F3B6818000293FFF7F0
:4060400093FF0390002809D0029805F0D9FC00213868FFF75BFF210038682CE0FC226C4B120118786B4B800110401A78F82112031300020049020B401A43674BFE21187890
:406080003F2303401A431000644B09041B78644F5B040B401A00030013431A0A3B7038001B0C7A70BB7005F0ABFC03993800FFF72DFF21003800FFF729FF002010F02AF821
:4060C0003F23337000233000737010F041F80422544B01E04A78544B1A7078E00B78002B75D14A78002A05D1504BDA809A80504A4B601A60019B01221B783BE0019B1B7823
:406100009B0664D44B490B78102B01D10B3BCB703A4B187810F028F905A90880002803D0454B36201B6898470122019B1B781343019A13704BE00222CAE73A4B19781A003C
:40614000022944D001980078304240D0019806780420064205D003221A70019B1B788343E6E7019B1B781B0706D5042313700822019B1B789343DBE70423032927D1D8E7B3
:4061800000221E4B5A70A7E74988162900D91721288811F081FA1AE00800FFF7BDFE019B1B78334213D1002809D0122305A98B70AB89C87028680B8011F064FA07E0286838
:4061C00011F0F4FA03E01D4A13781E431670019B1A7811231A420AD00122019B29001B7820009343019A1370134B1B68984707B0F0BDC04602340020FE330020FF330020AA
:4062000080F00100F133002079020000040C00207DF1FF0F7BF1FF0F7CF1FF0F78F1FF0F080C0020FD330020F0330020C0160020A00B00209E0D0020EC330020E833002049
:40624000704700008023024A11780B431370704773000F407F23024A11780B401370704773000F401023044904480A781A4201D00278FAE77047C04663000F4053000F4000
:406280003F2110B5104A114C13788B4336390B4313700122237813432370FF230C4A13700C4A13707F220C4B1A7000220B4B1A7000F087FA102223781343237000F085FAD4
:4062C000FFF7D0FF10BDC04673000F4093000F4003000F4043000F4023000F4083000F4010B5054C2378002B03D1FFF7C9FF01232370FFF7A7FF10BDC816002010B50321C5
:406300000F20FEF7B1FC1E490F20FEF7A1FC01221C4B1A601C4B1B68002B01DB1B4900E01B491C4A8020136840020B4313601A4A1A4B1B491A601B4A1B4B1A6000231B4ACF
:4063400013601B4A0A601B490A601B490A6802430A600121194A1360194A1360194A116019491A4A086802408020800502430A60174A1360174A1380174A184B1A6010BDC7
:40638000D164000020003A4080033A40700200517002105100003A408400008004003A4010003A400000FF0718003A401C003A400400040014003A4000033A4028023A4010
:4063C00038023A4018023A4030003A40FEFFFFDF80003A40083400203E18000004340020084B10B51A68002A0BDB07490A68002AFCDB80211A6809060A431A600A20FEF747
:4064000089FC10BD00003A4008023A4010B5054C2378002B03D1FFF771FF01232370FFF7DFFF10BDC91600208021034A490213680B4313607047C04604003A4010B5002307
:4064400082070DD001240233064918400B680122234002D10028F9D102E0024B1A601300180010BD10023A4010B5002804D00020FEF738FC002002E0024B186880B200B20D
:4064800010BDC04680013A4070B505000C00002802D00020FEF726FC0A4B6A00D05A0A4B241A20B2AD00ED5801F096FA074901F07FF9041C280001F08FFA011C201C00F022
:4064C000ADFF70BD083400200434002000002041014B1A681A60704710023A402023044940010A689A43D2B2034013430B607047000304401023044900010A689A43D2B229
:40650000034013430B607047000104404023044980010A689A43D2B2034013430B607047000104402023044940010A689A43D2B2034013430B607047000104402023044923
:4065400040010A689A43D2B2034013430B60704700020440C022094BD2001A600C22084B1A60084B0A3A1A60074A084B1A60084A084B1A600022084B1A60704740012040F4
:406580006401204078012040FFFF000054012040C40900004C0120404801204010B500F010F90221034A13688B43136000F00DF910BDC04600002040014B80B218607047A7
:4065C00048012040014B80B2186070474C01204070B50D000400AC4000F0F3F8024B1C6000F0F3F870BDC0460800204010B5022400F0E7F8054A13682343136000F0E5F832
:4066000018212000FFF7E4FF10BDC0460000204010B5054C2378002B03D1FFF79BFF01232370FFF7E3FF10BDCA160020014B18607047C0467001204010B5040000F0C1F895
:40664000044A054B1168A4050B401C43146000F0BCF810BD10E400E0FFFF3FFF10B58024054BE4021C60054B883318600320FFF7E3FF034B1C6010BD80E100E0000000202A
:4066800000E100E07F23044AC00111680B401843C0B210607047C04600010440024B18684007C00F7047C046040304408022094B52021A600C22084B1A60084B0A3A1A60AA
:4066C000FA23074A9B001360064A1360064A13607047C04680012040A4012040B8012040940120408C0120408801204070B50D000400AC4000F065F8024B1C6000F065F88C
:4067000070BDC0460800204010B5042400F059F8054A13682343136000F057F818212000FFF7E4FF10BDC0460000204010B5054C2378002B03D1FFF7B9FF01232370FFF73E
:40674000E3FF10BDCB160020014B18607047C046B001204010B5040000F033F8044AA40713689B009B081C43146000F02EF810BD10E400E010B58024054B24031C60054B0B
:406780008C3318600320FFF7E5FF034B1C6010BD80E100E00000002000E100E08022024B12031A607047C04680E200E0000000000230800803D00138FDD1C046C046C046C9
:4067C0007047EFF3108072B6704780F310887047F8B5A84B1B68002B00D09847A64B1B68DB0702D50022A54B1A60A54B1A78920601D4002223E0A34A00211068C00506D5DF
:40680000C024A148A40001882143018001211268D20706D590209C4980000A8802430A8001E00029E5D0012202201978964C1140411A2088014389B221800021197018788E
:406840001021800600D4D8E08E4C206808420DD08E4A8D4C11600122187802400220821A2088024392B22280197001E1187800071BD502202568054209D0844A82491060DA
:4068800088200A88800002430A8001220DE01878C00702D52521197007E0242018707C480068002801D07B48016004251978294200D19FE001201978014243D008267649DC
:4068C0000C68344223D07549754C0D68754909682768EF1B1F252940791AB14207D8002906D17149714A0D682A400A60020031006F4E704D20683768013938182F68FFB289
:4069000007702068013020600029F3D117E00968294214D06249664E0C6836683419654E3668F6B226700C6801340C600C685B4909688C4202D260490D6000E002005F48D7
:406940005F494DE0022124680C4220D04F4A5D4C11601F225C490E680D68216832408A1AE90B0840101A206084202168574A8000116045490A88024380200A80544A40021E
:4069800011680143116010685249014030E052490868C00626D5402050494B4D0E6849491F272C683C40082C18D00C68A446384C2768BC4512D224680F68013CBC4203D106
:4069C000474C2060334C20600C68464F34192478E4B23C600C6801340C60E1E710204049086007E00968490604D5364A1168374A11601AE0002A18D13AE01A780A4237D1EB
:406A0000394802685200520802601970264B374A19680A401A601968354A0A401A608022036812061343036022E01F491F4A086802400A6000222F490A6016490A602E4AC7
:406A4000127892070CD5012219780F480A400A218A1A01880A4392B2028060221A7007E0264B1A681823920600D4083B124A1360F8BDC046901600208C0E2540880E254038
:406A8000E03200200C0F2540F0320020000F2540EC320020880F2540CC0F2540FC320020003300200803254060002540FFFEFFFFF43200204003254068002540ED0F00006C
:406AC000C00F2540E432002008022540E832002004022540FFFFFEFF8C0F254004330020800F25404002254000002540FF5FFFFFFFFCFFFFC80F2540F83200206400254022
:406B0000254B70B51B68002B00D09847234B1B685B071CD520241F2021490B680133652B00D100231F4A15681F4AAB4203D113681E4B1C7004E012681D4DD2B2EA540B6092
:406B40001C4B1B680342E8D104221B4B1A601B4B1B689B071FD51F20194C1A4A21681368994210D013680133642B00D100231649164DC95CC9B229601360154B1B6803402B
:406B8000102BEBD104E00221124A13688B4313600222114B1A6070BD98160020CC0F2440E033002008330020400324400C3300207833002008032440C00F24408C0F24408B
:406BC00010330020E4330020143300204002244008022440880F2440800F244010B5FFF7F0FD0421034A13688B43136030BFFFF7ECFD10BD10ED00E0016070470160704714
:406C00002B4B2C4A19782C4B09021B7819432B4B1B7812781B021343294A934204D1072909D1284B033906E0D4221201934202D1042900D1234B244A1360244B244A196050
:406C4000244B1B7812781B021343234A134200D1224B234A23491360234A0B7812781B021343224A934204D0214A934201D0052B00D1204B204A1360204B214A1B6812689A
:406C8000AA2A14D11F2B12D90B780E2B0FD11D4B1D4A1B7812781B0213431C4A13601C4B1C4A1B7812781B0213431B4A13607047D9F0FF0FDEF0FF0FD8F0FF0FDFF0FF0FC0
:406CC000580B0000580D00006C002E4074002E40DAF0FF0FDBF0FF0FFFDFFFFF0220000078002E40DDF0FF0FDCF0FF0F0F0F000005050000050F000080002E40EC0F00F0B1
:406D0000E00F00F06DF2FF0F6CF2FF0F84002E406FF2FF0F6EF2FF0F94002E4010B5FDF7F9FF10BD10B5FDF7DFFF10BD10B500F05DF810BD10B500F061F810BD10B500F081
:406D40005DF8034800F028F8002000F02BF810BD0D6E000010B5024800F034F810BDC0460D6E00000220FF3070472B2070472B2070472B2070472B2070472B2070472B2012
:406D800070472B2070472B2070472B2070472B2070472B2070477047014B18677047C0460000002010B50400FFF70BFDC021044AA40113688B431C431460FFF706FD10BD36
:406DC0000CE400E010B58024054B64011C60054B18670020FFF7E6FF034B1C6010BDC04680E100E00000002000E100E08022024B52011A607047C04600E100E08022024B77
:406E000052011A607047C04680E100E010B516F009FA10BD02B4714649084900095C49008E4402BC7047C046002243088B4274D303098B425FD3030A8B4244D3030B8B4292
:406E400028D3030C8B420DD3FF22090212BA030C8B4202D31212090265D0030B8B4219D300E0090AC30B8B4201D3CB03C01A5241830B8B4201D38B03C01A5241430B8B42A5
:406E800001D34B03C01A5241030B8B4201D30B03C01A5241C30A8B4201D3CB02C01A5241830A8B4201D38B02C01A5241430A8B4201D34B02C01A5241030A8B4201D30B02E6
:406EC000C01A5241CDD2C3098B4201D3CB01C01A524183098B4201D38B01C01A524143098B4201D34B01C01A524103098B4201D30B01C01A5241C3088B4201D3CB00C01ADD
:406F0000524183088B4201D38B00C01A524143088B4201D34B00C01A5241411A00D20146524110467047FFE701B5002000F0F0F802BDC0460029F7D076E7704703460B43EE
:406F40007FD4002243088B4274D303098B425FD3030A8B4244D3030B8B4228D3030C8B420DD3FF22090212BA030C8B4202D31212090265D0030B8B4219D300E0090AC30B1A
:406F80008B4201D3CB03C01A5241830B8B4201D38B03C01A5241430B8B4201D34B03C01A5241030B8B4201D30B03C01A5241C30A8B4201D3CB02C01A5241830A8B4201D321
:406FC0008B02C01A5241430A8B4201D34B02C01A5241030A8B4201D30B02C01A5241CDD2C3098B4201D3CB01C01A524183098B4201D38B01C01A524143098B4201D34B0123
:40700000C01A524103098B4201D30B01C01A5241C3088B4201D3CB00C01A524183088B4201D38B00C01A524143088B4201D34B00C01A5241411A00D201465241104670473D
:407040005DE0CA0F00D04942031000D34042534000229C4603098B422DD3030A8B4212D3FC22890112BA030A8B420CD3890192118B4208D3890192118B4204D389013AD0A1
:40708000921100E08909C3098B4201D3CB01C01A524183098B4201D38B01C01A524143098B4201D34B01C01A524103098B4201D30B01C01A5241C3088B4201D3CB00C01A12
:4070C000524183088B4201D38B00C01A5241D9D243088B4201D34B00C01A5241411A00D20146634652415B10104601D34042002B00D54942704763465B1000D3404201B562
:40710000002000F005F802BD0029F8D016E770477047C0468446101C62468C46191C634600E0C0461FB501F085FB002801D40021C8421FBD10B501F0D9FA4042013010BD9B
:4071400010B501F077FB002801DB002010BD012010BDC04610B501F06DFB002801DD002010BD012010BDC04610B501F0FFFA002801DC002010BD012010BDC04610B501F0B2
:40718000F5FA002801DA002010BD012010BDC0468446081C6146FFE71FB500F0C5FA002801D40021C8421FBD10B500F051FA4042013010BD10B500F0B7FA002801DB0020F0
:4071C00010BD012010BDC04610B500F0ADFA002801DD002010BD012010BDC04610B500F05FFA002801DC002010BD012010BDC04610B500F055FA002801DA002010BD012082
:4072000010BDC046002B11D1002A0FD1002900D1002802D00021C943081C07B4024802A14018029003BDC046E9FEFFFF03B4684601B5029800F032F8019B9E4602B00CBC19
