:400000000040002011000000A14D0000A14D000080B500AF04F0F0FE80B500AF374B12221A6005F0B7F9364B181C04F0CDFF012005F0C0F9302004F0D7FF324B324A1A6023
:40004000324B8022D2051A60314B314A126802210A431A602F4B304A1A60304B2F4A126808218A431A60FA23DB00181C05F008F82B4B181C05F032F92A4B2B4A1A602B4BA4
:400080002B4A1A602B4BD02252021A60274B2A4A1A602A4BE82252011A60244B284A1A60284B802212061A60274B8022D2021A60264B42221A60264B41221A60254B40229C
:4000C0001A60254B0820191C05F024F8082005F09BF8224B1F221A600C4B214A1A60214B08221A60C0461F4B1B6808221340FAD11C4B01221A60BD4680BDC046300010407F
:40010000001BB70004010B40060000800C020B4078002E407C002E402D3E00006CF02E40DC05000008030140007FBB000000014042FF00800403014041FF00800003014004
:4001400040FF008008010B4000010B401C01014008010140040101404555000008020B400500004010020B4080B582B000AF72B6464B00221A60464B01221A70FB1D0022BE
:400180001A7023E0FB1D1A78131C5B009B185B00404A9B183B603B681A78597809020A43997809040A43DB781B061343191C3B681A795B791B0213439BB2081C191C04F0B9
:4001C0009FFEFB1D1A78FB1D01321A70FB1D1B78012BD7D9304A314B101C191C04F0A0FE2F4B304A1A60304BEE221A602F4B992212041A602E4B992212041A602D4B992244
:4002000012041A602C4B992212041A602B4B02221A602B4B02221A602A4A2A4B1B78DBB202210B43DBB21370274A274B1B78DBB23C218B43DBB214210B43DBB21370214A01
:40024000204B1B78DBB216210B43DBB213701F4B26221A601E4B1F4A1A601F4B02221A601E4B80221A601E4B1E4A1A601E4B1F4A1A601F4B03221A601E4B24221A60FFF79A
:40028000CBFE04F08DFEBD4602B080BD6CF02E401C700F404C890000588900007089000000000240990000EE0003024000500F4010500F4020500F4030500F402000104056
:4002C00000800F4000700F4001700F400000044008000440B100DB00180004400001044008010440B66DDB0008020440B6030000000304400803044010B5064C2378002B2E
:4003000007D1054B002B02D0044800E000BF0123237010BD80010020000000003085000008B5084B002B03D00748084900E000BF07480368002B00D108BD064B002BFBD0C4
:400340009847F9E7000000003085000084010020C80000200000000080B500AF094B1B8801339AB2074B1A80064B1A88FA239B009A4204D1034B00221A8005F04BFCBD4690
:4003800080BDC046AC01002080B582B000AF064B7B6005F055FB7B680020191C05F0B2F8BD4602B080BDC0465903000080B500AF024B1B68181CBD4680BDC046A801002084
:4003C00098B500AF05F0D6FB031C0C1C181C211CBD4698BD80B582B000AFBB1D00221A80BB1D044A12881A80BB1D1B88181CBD4602B080BDAC01002080B584B000AF05F0AC
:4004000023FF6820002105F0D3FF031CBB60BB68002B10D1002006F0B7F806F051F806F06DF96820012105F0C3FF031CBB60BB68002B23D101E0BB68D5E00023FB601AE053
:40044000FB68052B0ADC002006F004F9031CD9B23A1CFB68D3180A1C1A7009E0012006F0F9F8031CD9B23A1CFB68D3180A1C1A70FB680133FB60FB68062BE1DD06F020F8B1
:4004800005F0F4FE3B1C1B780F221340DAB23B1C1B78191C70230B401B11DBB2191C8900CB18DB18DBB2D318DAB2514B1A703B1C5B780F221340DAB23B1C5B78191C7023BB
:4004C0000B401B11DBB2191C8900CB18DB18DBB2D318DAB2464B5A703B1C9B781A1C402313409B11DAB2424BDA70414BDB78002B1ED13B1C9B780F221340DAB23B1C9B78C3
:40050000191C10230B401B11DBB2191C8900CB18DB18DBB2D318DAB2354B9A703B1C9B781A1C202313405B11DAB2314B1A7114E03B1C9B780F221340DAB23B1C9B78191CEB
:4005400030230B401B11DBB2191C8900CB18DB18DBB2D318DAB2264B9A703B1CDB7807221340DAB2224B5A713B1C1B790F221340DAB23B1C1B79191C30230B401B11DBB2B5
:40058000191C8900CB18DB18DBB2D318DAB2184B9A713B1C5B790F221340DAB23B1C5B79191C10230B401B11DBB2191C8900CB18DB18DBB2D318DAB20D4BDA713B1C9B79BD
:4005C0009BB20F2213409AB23B1C9B791B09DBB29BB2191C8900CB18DB189BB2D3189AB2034B1A810023181CBD4604B080BDC0461806002080B586B000AFF860B9607A6080
:400600003B60FB68DB057B61BB689B057A6913437B617B68181C0A2107F05AF8031C1B057A6913437B617B68181C0A2107F0D6F80B1C1B047A6913437B613B68181C0A21E5
:4006400007F046F8031C1B037A6913437B613B68181C0A2107F0C2F80B1C1B027A6913437B613B6A181C0A2107F032F8031C1B017A6913437B613B6A181C0A2107F0AEF8D1
:400680000B1C1A1C7B6913437B617B69181CBD4606B080BD80B586B000AFF860B9607A607B68FA22D200944663447B607B687B61FB68181C0A2107F00BF8031C1B073B61CF
:4006C000FB68181C0A2107F089F80B1C1B063A6913433B61BB68181C0A2106F0F9FF031C1B053A6913433B61BB68181C0A2107F075F80B1C1B043A6913433B617B68181CC7
:40070000FA23990006F0E4FF031C1B033A6913433B617B69181CFA23990007F05FF80B1C7B617B69181C642106F0D2FF031C1B023A6913433B617B69181C642107F04EF82A
:400740000B1C7B617B69181C0A2106F0C1FF031C1B013A6913433B617B69181C0A2107F03DF80B1C1A1C3B6913433B613B69181CBD4606B080BDC046F0B597B000AF786202
:40078000396200230024BB64FC647A6AC0239B0113401B0BFA22920053437B647A6AF0231B0113401B0A642253437A6CD3187B647B6AF02213401A09131C9B009B185B003D
:4007C0001A1C7B6C9B187B647B6A0F2213407A6CD3187B648D4B7B652BE07B6D0322134006D17B6D181C642106F0F8FF0B1E07D17B6D181CC823590006F0F0FF0B1E01D168
:40080000012300E00023002B08D0BB6CFC6C804900225B185441BB64FC6407E0BB6CFC6C7C4900225B185441BB64FC647B6D01337B657A6D7B6C9A42CFD37A6A80235B057A
:4008400013401A0F131C9B009B185B003B647A6AF0231B0513401B0E3A6CD3183B643B6C5A1E6D4B5200D35A3B653B6C022B1AD97B6C0322134006D17B6C181C642106F039
:40088000ADFF0B1E07D17B6C181CC823590006F0A5FF0B1E01D1012300E00023002B02D03B6D01333B653B6D5C4A5343BB610023FB61BB6CFC6CB969FA695B185441BB643D
:4008C000FC647A6AC0239B0313401A0D131C9B009B185B00FB637A6AF0231B0313401B0CFA6BD318FB63FB6B4C4A53434C4A944663443B6100237B61BB6CFC6C39697A69EE
:400900005B185441BB64FC643A6AC0239B0313401A0D131C9B009B185B003B653A6AF0231B0313401B0C3A6DD3183B653A6A80231B04134001D0012300E00023BB633A6A25
:400940008023DB03134001D0012300E000237B63BB6B002B08D07B6B012B05D13B6D0B2B02D83B6D0C333B653B6DE12212015343BB600023FB60BB6CFC6CB968FA685B180B
:400980005441BB64FC643A6AE023DB0113401A0B131C9B009B185B003B633A6AF0231B0113401B0A3A6BD3183B633A6B131C1B019B1A9B003B6000237B60BB6CFC6C396830
:4009C0007A685B185441BB64FC643B6A702213401A09131C9B009B185B00FB623B6A0F221340FA6AD318FB62FB6A1D1C00231E1CBB6CFC6C5B197441BB64FC64BB6CFC6C16
:400A0000181C211CBD4617B0F0BDC046B20700000085E2018033E101CC0000208051010080AEFEFF90B589B002AFFFF7E5FC031CFB60FB68002B2DD11C4BDB79191C1B4BC7
:400A40009B791A1C194B1B89081C111C1A1CFFF721FE031CBB60154BDB78181C134B1B79191C124B9B781A1C104B5B781C1C0F4B1B780093231CFFF7BDFD031C7B60BA68A9
:400A80007B68101C191CFFF777FE031C0C1C3B617C6103E0002300243B617C613B697C69181C211CBD4607B090BDC0461806002080B500AF05F07EFEBD4680BD80B582B0E3
:400AC00000AF78600020002105F086FE7B68181C05F0BCFE034B181C05F0B8FEBD4602B080BDC0464885000080B584B000AF78607B6801331A780E23FB181A800E23FB1842
:400B00001B881B029AB27B681B789BB213439AB20E23FB181A800E23FB181B88181CBD4604B080BD80B584B000AF78607B6803331B78FB60FB681B027A68023212781343EA
:400B4000FB60FB681B027A68013212781343FB60FB681B027A6812781343FB60FB68181CBD4604B080BDC04680B582B000AF78600A1CBB1C1A807B685A1C7A60BA1C1288F4
:400B8000D2B21A70BB1CBA1C1288120A1A807B685A1C7A60BA1C1288D2B21A70BD4602B080BDC04680B582B000AF786039607B685A1C7A603A68D2B21A703B681B0A3B60B4
:400BC0007B685A1C7A603A68D2B21A703B681B0A3B607B685A1C7A603A68D2B21A703B681B0A3B607B685A1C7A603A68D2B21A70BD4602B080BDC04680B586B000AFF8601C
:400C0000B9607A60FB687B61BB683B617B68002B0DD07B695A1C7A613A69511C396112781A707B68013B7B607B68002BF1D1BD4606B080BD80B586B000AFF860B9607A60C0
:400C4000FB687B617B695A1C7A61BA68D2B21A707B68013B7B607B68002BF3D1BD4606B080BDC04680B588B000AFF860B9607A60FB68FB61BB68BB6100237B61FB695A1CCA
:400C8000FA611B78191CBB695A1CBA611B78CB1A7B617B68013B7B607B68002B02D07B69002BEBD07B69181CBD4608B080BDC04680B582B000AF7860396002E07B680133CE
:400CC0007B607B681B78002B05D07B681B781A1E3B689A42F2D17B681B78181CBD4602B080BDC04680B586B000AF78600F23FB1800221A707B68DB78002B3BD07B68DB6A9A
:400D00007B617B6859787B6830331A1C7B69081C111C1A1C012302F0F5FC031E04D00F23FB1801221A7025E07B680022DA707B681B6A7A69D21A7B689B699A421AD27B6831
:400D40009B783B6113E07B689B697A69D3187B617B6859787B6830331A1C7B69081C111C1A1C012302F0CEFC3B69013B3B613B69012BE8D80F23FB181B78181CBD4606B0F4
:400D800080BDC04690B585B000AF786039600F23FB1800221A707B68DA6A3B689A4224D00F23FC187B68181CFFF79CFF031C23700F23FB181B78002B17D17B6859787B68A9
:400DC00030331A1C3B68081C111C1A1C012302F03BFC031E06D001235B423B600F23FB1801221A707B683A68DA620F23FB181B78181CBD4605B090BD90B585B000AF7860CB
:400E00000F23FC187B68181CFFF76CFF031C23700F23FB181B78002B61D17B681B78032B50D17B681B79012B4CD17B6830331A1C80239B00101C00211A1CFFF7FBFE7B6879
:400E40002A4A944663442A4A181C111CFFF78CFE7B683033274A181C111CFFF7A3FE7B688522920094466344234A181C111CFFF799FE7B68862292009A187B681B69101C1F
:400E8000191CFFF78FFE7B68872292009A187B68DB68101C191CFFF785FE7B68DB695A1C7B68DA627B6859787B6830331A1C7B68DB6A081C111C1A1C012302F023FC7B68F7
:400EC00000221A717B685B78181C0021002202F087FC031E03D00F23FB1801221A700F23FB181B78181CBD4605B090BD2E02000055AA0000525261417272416180B582B04A
:400F000000AF786039603B68023B3B607B685B699A1E3B689A4201D8002307E07B685B891A1C3B685A437B689B6AD318181CBD4602B080BD80B586B000AF786039607B68B1
:400F40001B683B613B68012B04D93B695A693B689A4202D801237B618AE001235B427B613B691B78022B49D0032B62D0012B00D07CE03B68FB60FB685B08FA68D318FB603E
:400F80003B691A6AFB685B0AD3183A69101C191CFFF7F8FE031E00D06AE0FB685A1CFA60DB05DB0D3A693021D3185B181B78BB603B691A6AFB685B0AD3183A69101C191C51
:400FC000FFF7E0FE031E00D052E0FB68DB05DB0D3A693021D3185B181B781B021A1CBB681343BB603B680122134002D0BB681B0902E0BB681B051B0D7B6139E03B691A6A67
:401000003B681B0AD3183A69101C191CFFF7BAFE031E00D02CE03B685A00FF235B00134030333A69D318181CFFF75EFD031C7B611EE03B691A6A3B68DB09D3183A69101CA9
:40104000191CFFF79FFE031E00D011E03B689A00FE235B00134030333A69D318181CFFF761FD031C1B011B097B6101E001237B617B69181CBD4606B080BDC04690B589B093
:4010800000AFF860B9607A601F23FB1802221A70BB68012B00D8E7E0FB685A69BB689A4200D8E1E0FB681B78022B00D17EE0032B00D1A1E0012B00D0D6E0BB68BB61BB69A0
:4010C0005B08BA69D318BB61FB681A6ABB695B0AD3181F22BC18FA68101C191CFFF752FE031C23701F23FB181B78002B00D0BBE0BB695A1CBA61DB05DB0D3033FA68D3188D
:401100007B61BB68012213400ED07B691B78DBB21A1C0F231340DAB27B68DBB21B01DBB21343DBB2DBB201E07B68DBB27A691370FB680122DA70FB681A6ABB695B0AD318A6
:401140001F22BC18FA68101C191CFFF71BFE031C23701F23FB181B78002B00D084E0BB69DB05DB0D3033FA68D3187B61BB680122134003D07B681B09DBB211E07B691B78AF
:40118000DBB21A1C0F239A43131CDAB27B681B0ADBB2191C0F230B40DBB21343DBB2DBB27A691370FB680122DA705DE0FB681A6ABB681B0AD3181F22BC18FA68101C191CF9
:4011C000FFF7E0FD031C23701F23FB181B78002B00D049E0BB685A00FF235B0013403033FA68D2187B689BB2101C191CFFF7BCFCFB680122DA7037E0FB681A6ABB68DB094E
:40120000D3181F22BC18FA68101C191CFFF7BAFD031C23701F23FB181B78002B00D023E07B681B011C09BB689A00FE235B0013403033FA68D318181CFFF774FC031C1B0F63
:401240001B0723437B60BB689A00FE235B0013403033FA68D2187B68101C191CFFF7A2FCFB680122DA70C0461F23FB181B78181CBD4609B090BDC04690B589B000AFF86072
:40128000B9607A601F23FB1800221A70FB681B68BB61BB68012B04D9BB695A69BB689A4201D802235AE07B68002B15D01F23FC18B9697A6801235B42081C111C1A1CFFF763
:4012C000DDFE031C23701F23FB181B78002B03D01F23FB181B7841E0FA68BB68101C191CFFF728FE031C7B617B69002B00D134E07B69012B01D1022330E07B69013301D180
:4013000001232BE01F23FC18BA69BB68101C191C0022FFF7B3FE031C23701F23FB181B78002B03D01F23FB181B7817E0BB691B6901330BD0BB691B695A1CBB691A61BB69A9
:401340001B7901221343DAB2BB691A717B69BB60BB695A69BB689A42BED80023181CBD4609B090BD90B589B000AF786039607B681B683B613B68002B0DD13B69DB68BB61FB
:40138000BB69002B04D03B695A69BB699A421DD80123BB611AE07A683B68101C191CFFF7C9FD031CFB60FB68012B01D8012383E0FB68013301D1FB687EE03B695A69FB6875
:4013C0009A4201D9FB6877E03B68BB61BB69FB61FB690133FB613B695A69FB699A4207D80223FB61FA69BB699A4201D9002363E07A68FB69101C191CFFF79CFD031CFB60F0
:40140000FB68002B13D1C0461723FC183969FA6901235B42081C111C1A1CFFF72FFE031C23701723FB181B78002B1ED10EE0FB68012B02D0FB68013301D1FB683CE0FA6930
:40144000BB699A4201D1002336E0C1E73B68002B0BD01723FC1839693A68FB69081C111C1A1CFFF70BFE031C23701723FB181B78002B16D13B69FA69DA603B691A693B69E4
:401480005B69023B9A4204D23B691B695A1E3B691A613B691B7901221343DAB23B691A7109E01723FB181B78012B02D101235B4200E00123FB61FB69181CBD4609B090BDC4
:4014C00080B586B000AF786039607B681B683B613B68394A934203D83B681F22134001D0022365E07B683A681A617B689B687B617B69002B06D13B691B78022B02D93B698C
:401500005B6A7B617B69002B0CD13B685B093A691289934201D302234AE03B695A6A7B689A612CE03B695B895B02FB601AE07A687B69101C191CFFF7FDFC031C7B617B6960
:40154000013301D1012333E07B69012B04D93B695A697B699A4201D8022329E03A68FB68D31A3B603A68FB689A42E0D23A697B69101C191CFFF7C2FC021C7B689A617B6878
:401580007A695A617B689B69002B01D102230FE07B689A693B685B0AD2187B689A613B68DB05DB0D30333A69D2187B68DA610023181CBD4606B080BDFFFF1F0080B586B091
:4015C00000AF786039607B681B68FB607B681B692033BB607B689B69002B03D0BB685C4A934201D90423AEE0BB68DB05DB0D00D09DE07B689B695A1C7B689A617B685B6909
:40160000002B0BD1BB685B09FA681289934200D28DE07B6800229A61042394E0BB685B0AFA685289013A134000D080E07A687B685B69101C191CFFF77DFC031C7B617B69B5
:40164000012B01D802237EE07B69013301D1012379E0FB685A697B699A425CD83B68002B04D17B6800229A6104236CE07A687B685B69101C191CFFF775FE031C7B617B6919
:40168000002B01D107235EE07B69012B01D1022359E07B69013301D1012354E0FB68181CFFF720FB031E01D001234CE0FB6830331A1C80239B00101C00211A1CFFF7BAFAF2
:4016C00000233B61FA687B69101C191CFFF716FC021CFB68DA6212E0FB680122DA70FB68181CFFF7FFFA031E01D001232BE03B6901333B61FB68DB6A5A1CFB68DA62FB68C2
:401700005B891A1E3B699A42E6D8FB68DA6A3B69D21AFB68DA627B687A695A61FA687B69101C191CFFF7EAFB021C7B689A617B68BA681A61BB68DB05DB0D3033FA68D21860
:401740007B68DA610023181CBD4606B080BDC046FFFF1F0090B587B000AF786039607B681B68FB601723FC187B68181C0021FFF7A7FE031C23701723FB181B78002B35D19A
:4017800000233B617B689B691722BC18FA68101C191CFFF7F7FA031C23701723FB181B78002B00D022E07B68DB691B78E52B04D07B68DB691B78002B08D13B6901333B616D
:4017C0003A693B689A4200D110E001E000233B611723FC187B68181C0121FFF7EFFE031C23701723FB181B78002BCBD01723FB181B78042B03D11723FB1807221A70172387
:40180000FB181B78181CBD4607B090BD80B584B000AF786039603B681A33181CFFF764F9031CFB607B681B78032B09D13B681433181CFFF759F9031C1B04FA681343FB6018
:40184000FB68181CBD4604B080BDC04680B584B000AFF860B9607A60BB681A331A1C7B689BB2101C191CFFF77FF9FB681B78032B09D1BB6814331A1C7B681B0C9BB2101CAE
:40188000191CFFF771F9BD4604B080BD90B587B000AF78607B681B683B611723FC187B68181C0021FFF70CFE031C23701723FB181B78002B03D01723FB181B784EE07B6893
:4018C0009B691722BC183A69101C191CFFF75AFA031C23701723FB181B78002B00D03AE07B68DA690F23FB1812781A700F23FB181B78002B04D11723FB1804221A702AE084
:401900007B68DB690B331B783F221340DAB27B689A717B68DB690B331B781A1C082313400BD17B68DA697B682033101C191C0B22FFF798F9031E00D10DE01723FC187B6878
:40194000181C0021FFF73AFE031C23701723FB181B78002BB3D01723FB181B78181CBD4607B090BD90B585B000AF78607B681B68BB600F23FC187B68181C0121FFF7EAFEAA
:40198000031C23700F23FB181B78002B22D17B689B690F22BC18BA68101C191CFFF7F2F9031C23700F23FB181B78002B12D17B68DB69181C00212022FFF73CF97B68DA6988
:4019C0007B682033101C191C0B22FFF715F9BB680122DA700F23FB181B78181CBD4605B090BDC04680B588B000AF786039603B681B68FB607B682033BB60BB68181C202181
:401A00000B22FFF717F900233B613B697B610823BB617B695A1C7A61FA68D2181F23FB1812781A701F23FB181B78202B00D869E01F23FB181B782F2B04D01F23FB181B78B1
:401A40005C2B10D102E07B6901337B61FA687B69D3181B782F2BF6D0FA687B69D3181B785C2BF0D04EE01F23FB181B782E2B03D03A69BB699A420ED3BB690B2B04D01F2303
:401A8000FB181B782E2B01D0062358E008233B610B23BB6135E01F23FB181B785BB2002B09DA1F23FB181B78803B1A1C1F23FB1825498A5C1A701F23FB181B78234A101C3F
:401AC000191CFFF7F5F8031E01D0062337E01F23FB181B78602B0BD91F23FB181B787A2B06D81F23FB181F22BA181278203A1A703B695A1C3A61BA68D3181F22BA181278A5
:401B00001A7086E7FA687B69D2183B681A603B69002B01D1062312E0BB681B78E52B02D1BB6805221A70BB680B331F22BA181278202A01D8042200E000221A700023181C0E
:401B4000BD4608B080BDC04674850000F485000090B587B000AF786039607B683B613B691B68FB6002E03B6801333B603B681B782F2BF8D03B681B785C2BF4D03B69002265
:401B80009A603B681B781F2B0DD87B682B22802199541723FC187B68181C0021FFF790FC031C237055E01723FC187A683B1C101C191CFFF717FF031C23701723FB181B7893
:401BC000002B00D045E01723FC187B68181CFFF75DFE031C23700B23FB187A682B21525C1A701723FB181B78002B10D01723FB181B78042B0AD10B23FB181B780422134094
:401C000004D11723FB1805221A7022E021E00B23FB181B780422134000D01AE03B699B791A1C1023134004D11723FB1805221A700FE07B681B69DB05DB0D3033FA68D318A2
:401C4000FA68101C191CFFF7E1FD021C3B699A60A9E71723FB181B78181CBD4607B090BD80B586B000AF786001235B423B617B681B68002B31D07B681B687B6102E07B697D
:401C800001337B617B691B78202B03D97B691B783A2BF4D17B691B783A2B1CD17B681B68FB60FB685A1CFA601B78303BBB60BB68092B0ED8FA687B699A420AD1BB68002B77
:401CC00007D1BB683B617B6901337B617B687A691A603B6902E000233B613B69181CBD4606B080BD80B582B000AF786039607B680022DA707B6801225242DA627A683B68D5
:401D0000101C191CFFF73EF8031E01D0042335E07B681C4A94466344181CFEF7E5FE031C1A1E194B9A4201D0032327E07B6830229B5CE92B09D07B6830229B5CEB2B1CD135
:401D40007B6832229B5C902B17D17B686633181CFEF7E8FE031C1B021B0A0C4A934201D100230BE07B688233181CFEF7DBFE021E074B9A4201D1002300E00223181CBD4682
:401D800002B080BD2E02000055AA0000464154004641543390B597B000AFF860B960FB1D1A70BB6800221A60FB68181CFFF758FF031CFB63FB6B002B01DA0B2346E2CB4BD6
:401DC000FA6B9200D358BB63BB6B002B01D10C233CE2BB68BA6B1A60FB1DFA1D127801218A431A70BB6B1B78002B1CD0BB6B5B783722BC18181C01F02DFB031C23703723F0
:401E0000FB181B78012213400DD1FB1D1B78002B07D03723FB181B780422134001D00A2314E2002312E2BB6B00221A70FB6BDAB2BB6B5A70BB6B5B783722BC18181C01F078
:401E40001DFB031C23703723FB181B780122134001D00323FAE1FB1D1B78002B07D03723FB181B780422134001D00A23EEE100233B655723FC18BA6B3B6D101C191CFFF7E8
:401E800031FF031C23705723FB181B78022B4BD100233B641CE03B6C1B01BF33FF333033BA6BD3183B633B6B04331B78002B06D03B6B0833181CFEF735FE011C00E0002155
:401EC0001423FB183A6C9200D1503B6C01333B643B6C032BDFD900233B643B6C002B02D03B6C013B3B641423FB183A6C9200D3583B653B6D002B08D0BA6B3B6D101C191C2A
:401F0000FFF7F0FE031C1A1C00E003225723FB181A705723FB181B78012B05D93B6C01333B643B6C032BDED95723FB181B78042B01D101238AE15723FB181B78012B01D946
:401F40000D2383E1BB6B3B33181CFEF7CDFD031C1A1C80239B009A4201D00D2376E1BB6B4633181CFEF7C0FD031CFB64FB6C002B06D1BB6B5433181CFEF7D4FD031CFB64EE
:401F8000BB6BFA6C9A61BB6B40229A5CBB6B9A70BB6B9B78012B05D0BB6B9B78022B01D00D2353E1BB6B9B781A1CFB6C5343FB64BB6B3D229B5C9AB2BB6B5A81BB6B5B8979
:401FC000002B07D0BB6B5B891A1CBB6B5B89013B134001D00D2339E1BB6B4133181CFEF783FD031C1A1CBB6B1A81BB6B1B890F2213409BB2002B01D00D2327E1BB6B433327
:40200000181CFEF771FD031CBB64BB6C002B06D1BB6B5033181CFEF785FD031CBB64BB6B3E332E22BC18181CFEF75EFD031C23802E23FB181B88002B01D10D2306E12E23A3
:40204000FB181A88FB6CD318BA6B1289120992B29B18BB62BA6CBB6A9A4201D20D23F5E0BA6CBB6AD21ABB6B5B89101C191C05F02FFB031C7B627B6A002B01D10D23E5E0D7
:402080005723FB1803221A707B6A194A934203D85723FB1802221A707B6A164A934203D85723FB1801221A707B6A9A1CBB6B5A61BB6B3A6DDA612E23FB181A883B6DD21866
:4020C000BB6B1A623A6DBB6AD218BB6B9A625723FB181B78032B22D1BB6B5A33181CFEF703FD031E08D00D23B0E0C046B0010020F5FF0000F50F0000BB6B1B89002B01D0FB
:402100000D23A3E0BB6B5C33181CFEF70BFD021CBB6B5A62BB6B5B699B007B6420E0BB6B1B89002B01D10D2390E0BB6B1A6AFB6CD218BB6B5A625723FB181B78022B03D13D
:40214000BB6B5B695B000AE0BB6B5A69131C5B009B185A08BB6B5B6901210B40D3187B64BB6B9A697B6C3B498C4663445B0A9A4201D20D236AE0BB6B012252421A61BB6B6E
:402180001A69BB6BDA60BB6B80221A715723FB181B78032B4AD1BB6B6033181CFEF7A4FC031E012B42D13B6D0133BA6B101C191CFEF7E8FD031E39D1BB6B00221A71BB6B3E
:4021C000254A94466344181CFEF78EFC031C1A1E224B9A422AD1BB6B3033181CFEF7A2FC021E1F4B9A4221D1BB6B8522920094466344181CFEF796FC021E1A4B9A4215D117
:40220000BB6B8622920094466344181CFEF78AFC021CBB6B1A61BB6B8722920094466344181CFEF77FFC021CBB6BDA60BB6B5722BA1812781A700C4B1B8801339AB20A4BF7
:402240001A80094B1A88BB6BDA800023181CBD4617B090BDFF0100002E02000055AA00005252614172724161B401002080B584B000AF786039607B68BB607B68002B1AD091
:40228000BB681B68002B16D0BB681B681B78002B11D0BB681B68DA88BB689B889A420AD1BB681B685B78181C01F0D4F8031C1A1C0123134007D03B6800221A600F23FB188C
:4022C00009221A7007E0BB681A683B681A600F23FB1800221A700F23FB181B78181CBD4604B080BD90B589B000AFF860B960FB1D1A70BB683B611023FB18181CFFF7B0FC74
:40230000031CFB61FB69002B01DA0B232EE0194BFA699200D358BB61BB69002B02D0BB6900221A70FB68002B02D0FB6800221A70F968104BFA699200D150FB68002B03D049
:40234000FB1D1B78012B01D000230FE01723FC180823FA180C23FB18101C191C0022FFF719FD031C23701723FB181B78181CBD4609B090BDB001002090B599B000AFF86012
:40238000B9603B60FB1D1A70FB68002B01D10923CDE1FB1DFA1D12783F210A401A705F23FC180823F9181423FA18FB1D1B78081C111C1A1CFFF7EEFC031C23705F23FB182C
:4023C0001B78002B00D0A7E17A691823FB181A60BB685F22BC181822BA18101C191CFFF7B7FB031C23705F23FB181B78002B0BD11823FB182B229B5CDBB25BB2002B03DA7A
:402400005F23FB1806221A70FB1D1B781C22134000D19DE05F23FB181B78002B17D05F23FB181B78042B08D15F23FC181823FB18181CFFF797FA031C23703B6801221A60D0
:40244000FB1DFA1D127808210A431A7014E01823FB189B791A1C1123134004D05F23FB1807221A7008E0FB1D1B780422134003D05F23FB1808221A705F23FB181B78002BF9
:4024800000D086E0FB1D1B780822134000D180E000233B651823FB18DB690E331A1C3B6D101C191CFEF77EFB1823FB18DB6916331A1C3B6D101C191CFEF774FB1823FB187E
:4024C000DB690B3320221A707A691823FB18DB69101C191CFFF79AF9031CFB647A691823FB18DB69101C191C0022FFF7AFF91823FB18DB691C33181C0021FEF753FB7B69BE
:402500000122DA70FB6C002B43D07B69DB6A3B655F23FC181823FA18FB6C101C191C0022FEF7AAFE031C23705F23FB181B78002B2FD17A695F23FC183B6D101C191CFEF7DA
:4025400021FC031C23707B69FA6C013ADA6020E05F23FB181B78002B1BD11823FB189B791A1C1023134004D05F23FB1804221A700FE0FB1D1B78022213400AD01823FB181E
:402580009B791A1C0123134003D05F23FB1807221A705F23FB181B78002B13D1FB1D1B780822134005D0FB1DFA1D127840210A431A707B69DA6AFB681A621823FB18DA6982
:4025C000FB685A625F23FB181B78002B00D0A3E07A691823FB18DB69101C191CFFF716F9021CFB689A601823FB18DB691C33181CFEF798FA021CFB68DA607A69FB681A60A9
:402600007B69DA88FB689A80FB68FA1D12781A74FB6800225A74FB680022DA61FB6800225A61FB6828331A1C80239B00101C00211A1CFEF7FFFAFB1D1B782022134000D13E
:402640006AE0FB68DB68002B66D0FB68DA68FB685A617B695B895B02BB64FB689B68BB65FB68DB687B6519E0FA68BB6D101C191CFEF760FC031CBB65BB6D012B03D85F23D1
:40268000FB1802221A70BB6D013303D15F23FB1801221A707A6DBB6CD31A7B655F23FB181B78002B03D17A6DBB6C9A42DCD8FB68BA6D9A615F23FB181B78002B2CD17B6D8A
:4026C000DB05DB0D28D07A69BB6D101C191CFEF715FC031C7B647B6C002B04D15F23FB1802221A7018E07B6D5A0A7B6CD218FB68DA617B695978FB6828331A1CFB68DB697D
:40270000081C111C1A1C012300F09EFF031E03D05F23FB1801221A705F23FB181B78002B02D0FB6800221A605F23FB181B78181CBD4619B090BDC04690B58DB000AFF86003
:40274000B9607A603B60BB68FB613B6800221A602F23FC18FA681023FB18101C191CFFF785FD031C23702F23FB181B78002B09D12F23FB18FA68527C1A702F23FB181B7860
:40278000002B03D02F23FB181B7847E1FB681B7C1A1C0223134001D107233FE1FB685A697B68D218FB685B699A4203D2FB685B69DB437B6026E1FB685B69DB05DB0D00D086
:4027C000DEE0FB685B695B0A3A695289013A1340BB61BB69002B38D1FB685B69002B0DD1FB689B68BB62BB6A002B10D1FB68181C0021FEF7B7FD031CBB6208E0FA68FB68E1
:402800009B69101C191CFEF7ADFD031CBB62BB6A002B00D1FAE0BB6A012B04D1FB6802225A740223FAE0BB6A013304D1FB6801225A740123F2E0FB68BA6A9A61FB689B6883
:40284000002B02D1FB68BA6A9A60FB681B7CDBB25BB2002B1ADA3B695978FB6828331A1CFB68DB69081C111C1A1C012300F04AFF031E04D0FB6801225A740123CEE0FB68B4
:402880001B7C7F221340DAB2FB681A743A69FB689B69101C191CFEF731FB031C7B617B69002B04D1FB6802225A740223B6E07A69BB69D3187B617B685B0A3B623B6A002B12
:4028C0003DD0BA693B6AD3183A695289934205D93B695B891A1CBB69D31A3B623B695878F9697A693B6A00F00DFF031E04D0FB6801225A74012391E0FB68DA697B69D21ACD
:402900003B6A9A4217D2FB682833191CFB68DA697B69D31A5B02FA69D21880239B00081C111C1A1CFEF768F9FB681B7C7F221340DAB2FB681A743B6A5B027B6244E0FB682D
:40294000DA697B699A4218D0FB685A69FB68DB689A4212D23B695978FB6828331A1C7B69081C111C1A1C012300F06EFE031E04D0FB6801225A74012350E0FB687A69DA616E
:40298000FB685B69DB05DB0D80229200D31A7B627A6A7B689A4201D97B687B62FB685B69DB05DB0D2833FA68D118FA697B6A081C111C1A1CFEF720F9FB681B7C802252424B
:4029C0001343DAB2FB681A74FA697B6AD318FB61FB685A697B6AD218FB685A61FB68D968FB685A690B1E934200D2131CFA68D3603B681A687B6AD2183B681A607A687B6A2C
:402A0000D31A7B607B68002B00D0D4E6FB681B7C40221343DAB2FB681A740023181CBD460DB090BD90B587B000AF78601723FC187A680823FB18101C191CFFF717FC031CA9
:402A400023701723FB181B78002B74D17B681B7C1A1C402313406ED07B681B7CDBB25BB2002B17DABB6859787B6828331A1C7B68DB69081C111C1A1C012300F043FE031E13
:402A800001D001235AE07B681B7C7F221340DAB27B681A7400233B61BA687B681B6A17217C18101C191CFEF76DF9031C23701723FB181B78002B3ED17B685B6AFB60FB6879
:402AC0000B33FA680B32127820210A43D2B21A707B6819687B689B68FA68081C111C1A1CFEF7B4FEFB681C331A1C7B68DB68101C191CFEF757F8FB6816331A1C3B69101C94
:402B0000191CFEF74FF8FB681233181C0021FEF72BF8BB680122DA70BB681722BC18181CFEF76AF9031C23707B681B7C40229343DAB27B681A741723FB181B78181CBD464B
:402B400007B090BD90B585B000AF78600F23FC187B68181CFFF766FF031C23700F23FB181B78002B12D10F23FC187A680823FB18101C191CFFF77AFB031C23700F23FB18D7
:402B80001B78002B02D17B6800221A600F23FB181B78181CBD4605B090BDC04680B584B000AF78600A1CFB1C1A70FB1C1B780A2B04D17B68181C0D21FFF7F0FF7B685B68B3
:402BC000FB60FB68002B25DBFB685A1CFA607A68D318FA1C12781A73FB683C2B12DD7B6818687B680C33191CFA680823FB18FFF7A3FDFA68BB689A4201D1002301E00123BB
:402C00005B42FB607B68FA685A607B689B685A1C7B689A60BD4604B080BDC04690B585B000AF78607B685B68002B19DB7B6819687B680C331A1C7B685B681C1C0C23FB18C8
:402C4000081C111C221CFFF777FD031E08D17B685B681A1EFB689A4202D17B689B6801E001235B42181CBD4605B090BD80B582B000AF786039607B683A681A607B68002225
:402C80005A607B685A687B689A60BD4602B080BD0EB480B5A7B000AF78602C23FA187B68101C191CFFF7E2FFA823FB18BB67A423FB181B685A1CA42179180A608322BA188B
:402CC0001B7813708323FB181B78002B00D126E28323FB181B78252B09D02C23FA188323FB181B78101C191CFFF758FF16E29723FB1800221A7000238822BA181360A42354
:402D0000FB181B685A1CA42179180A608322BA181B7813708323FB181B78302B0FD19723FB1801221A70A423FB181B685A1CA42179180A608322BA181B78137013E0832380
:402D4000FB181B782D2B0ED19723FB1802221A70A423FB181B685A1CA42179180A608322BA181B7813701AE08823FB181A68131C9B009B185B001A1C8323FB181B78D3185C
:402D8000303B8822BA181360A423FB181B685A1CA42179180A608322BA181B7813708323FB181B782F2B04D98323FB181B78392BDAD98323FB181B786C2B04D08323FB1843
:402DC0001B784C2B12D19723FB189722BA18127804210A431A70A423FB181B685A1CA42179180A608322BA181B7813708323FB181B78002B00D192E18223FB188322BA18FE
:402E000012781A708223FB181B78602B0BD98223FB181B787A2B06D88223FB188222BA181278203A1A708223FB181B78423B162B00D979E09A00C04BD3181B689F46BB6FFD
:402E40001A1DBA671B68FB6700238C22BA18136006E08C23FB181B6801338C22BA181360FA6F8C23FB181B68D3181B78002BF0D19723FB181B780222134012D105E02C23A7
:402E8000FB18181C2021FFF789FE8C23FB181B685A1C8C2179180A608822BA1812689342EDD309E0FB6F5A1CFA671B782C22BA18101C191CFFF772FEFB6F1B78002BF1D191
:402EC00005E02C23FB18181C2021FFF767FE8C23FB181B685A1C8C2179180A608822BA1812689342EDD319E1BB6F1A1DBA671B68DBB22C22BA18101C191CFFF74FFE0DE18F
:402F00009623FB1802221A7018E09623FB1808221A7013E09623FB180A221A700EE09623FB1810221A7009E02C23FA188323FB181B78101C191CFFF731FEEFE09723FB18FC
:402F40001B780422134004D0BB6F1A1DBA671B680DE08223FB181B78442B04D1BB6F1A1DBA671B6803E0BB6F1A1DBA671B688422BA1813608223FB181B78442B13D18423D3
:402F8000FB181B68002B0EDA8423FB181B685B428422BA1813609723FB189722BA18127808210A431A7000239022BA1813609623FB181B788422BA181268101C191C04F001
:402FC0000DFC0B1C1A1C8223FB181A709623FB181B788422BA181068191C04F079FB031C8422BA1813608223FB181B78092B0ED98323FB181B78782B01D1272300E00723B8
:403000008222BA188221791809785B1813709023FB181B685A1C902179180A608222BA1812783032D1B20C22BA18D1548423FB181B68002B04D09023FB181B681F2BB6D99C
:403040009723FB181B78082213400AD09023FB181B685A1C902179180A600C22BA182D21D1549023FB181B688C22BA1813609723FB181B780122134001D0302200E0202264
:403080008223FB181A7008E02C23FA188223FB181B78101C191CFFF781FD9723FB181B78022213400BD18C23FB181B685A1C8C2179180A608822BA1812689342E4D390231A
:4030C000FB181B68013B9022BA1813600C23FA189023FB181B68D3181B782C22BA18101C191CFFF75BFD9023FB181B68002BE6D108E02C23FA188223FB181B78101C191C10
:40310000FFF74CFD8C23FB181B685A1C8C2179180A608822BA1812689342EAD3C7E52C23FB18181CFFF77AFD031C181CBD4627B080BC08BC03B018470486000080B582B086
:4031400000AF786039603B689BB27A68101C191C03F05CFF052002F09DF8BD4602B080BD90B583B000AF786039607C68631C7B6003F072FF031C23703B68013B3B603B6807
:40318000002BF2D1BD4603B090BDC04680B582B000AF0F4B7B600FE0FB1C181C0121FFF7DFFFFB1C1B78FF2B00D108E0642002F095F87B68013B7B607B68002BECD17B6865
:4031C0005A1E9341DBB2181CBD4602B080BDC0468813000080B582B000AF012002F07EF8FB1D181C0121FFF7BBFFBD4602B080BD80B582B000AF012002F070F8FB1D181CA3
:403200000121FFF7ADFFFFF7C1FF031E01D0012302E0FFF7DFFF0023181CBD4602B080BD80B584B000AF78603960FA239B00FB6011E00823FB18181C0121FFF791FF08232D
:40324000FB181B78FF2B00D008E0642002F046F8FB68013BFB60FB68002BEAD10823FB181B78FE2B01D000230CE07A683B68101C191CFFF775FF0823FB18181C0221FFF71A
:403280006FFF0123181CBD4604B080BD80B584B000AF78600A1CFB1C1A70FFF777FF031E01D1002332E00C23FB18FA1C12781A700C23FB18181C0121FFF740FF642002F05A
:4032C0000DF8FB1C1B78FD2B1FD07A6880239B00101C191CFFF732FF642001F0FFFF0C23FB18181C0221FFF73BFF0C23FB18181C0121FFF735FF0C23FB181B781A1C1F2315
:403300001340052B01D0002300E00123181CBD4604B080BD90B585B000AF021C3960FB1D1A70FB1D1B785BB2002B16DAFB1DFA1D12787F210A401A700F23FC1837200021AA
:40334000FFF7E8FF031C23700F23FB181B78012B03D90F23FB181B7877E0FB1D1B780C2B07D0FFF737FFFFF743FF031E01D1FF236BE0FB1D1B7840221343DAB20823FB1805
:403380001A703B681B0EDAB20823FB185A703B681B0CDAB20823FB189A703B681B0ADAB20823FB18DA703B68DAB20823FB181A710F23FB1801221A70FB1D1B78002B03D115
:4033C0000F23FB1895221A70FB1D1B78082B03D10F23FB1887221A700823FB180F22BA1812785A710823FB18181C0621FFF7A6FE642001F073FFFB1D1B780C2B05D10E2384
:40340000FB18181C0121FFF7ABFE0F23FB1814221A700E23FB18181C0121FFF7A1FE0E23FB181B78DBB25BB2002B0BDA0F23FB180F22BA181278013A1A700F23FB181B7860
:40344000002BE6D10E23FB181B78181CBD4605B090BDC04680B582B000AF021CFB1D1A70FB1D1B78002B01D0012301E0024B1B78181CBD4602B080BDF000002080B586B051
:4034800000AF021CFB1D1A70FB1D1B78002B01D00323CEE0694B181C01F020FF1723FB180A221A700CE00823FB18181C0121FFF757FE1723FB181A781723FB18013A1A706B
:4034C0001723FB181B78002BEDD11623FB1800221A7000200021FFF71DFF031E012B00D08FE0D5235B000820191CFFF713FF031E012B46D10823FB18181C0421FFF730FE55
:403500000823FB189B78012B00D07AE00823FB18DB78AA2B00D074E0FA239B003B6110E08023DB05A920191CFFF7F4FE031E00D10AE0FA239B00181C01F0D0FE3B69013B46
:403540003B613B69002BEBD13B69002B59D03A200021FFF7DFFE031E53D10823FB18181C0421FFF7FDFD0823FB181B781A1C4023134001D00C2200E004221623FB181A707A
:403580003FE0A9200021FFF7C5FE031E012B08D81623FB1802221A701523FB18A9221A7007E01623FB1801221A701523FB1801221A70FA239B003B6111E01523FB181B7887
:4035C000181C0021FFF7A6FE031E00D10AE0FA239B00181C01F082FE3B69013B3B613B69002BEAD13B69002B07D080239B001020191CFFF78FFE031E03D01623FB1800226F
:403600001A700F4B1622BA1812781A701623FB181B785A425341DAB20F23FB181A70094B0F22BA1812781A70FFF7D4FD0F23FB181B78181CBD4606B080BDC04610270000AD
:40364000B8010020F000002080B586B000AFB9607A603B600F23FB18021C1A700F23FB181B78181CFFF7F6FE031C1A1C0123134001D0032340E0224B1B781A1C082313403F
:4036800002D17B685B027B603B68012B01D9122200E011221723FB181A701723FB181A787B68101C191CFFF735FE031E1ED1BA6880239B00101C191CFFF7B2FD031E00D1A1
:4036C0000BE0BB688022920094466344BB603B68013B3B603B68002BE9D11723FB181B78122B03D10C200021FFF714FEFFF772FD3B685A1E9341DBB2181CBD4606B080BD99
:40370000B801002080B584B000AFB9607A603B600F23FB18021C1A700F23FB181B78181CFFF798FE031C1A1C0123134001D0032350E02A4B1B781A1C0823134002D17B6820
:403740005B027B603B68012B10D17B681820191CFFF7E0FD031E37D1BB68181CFE21FFF795FD031E30D000233B602DE01B4B1B781A1C0623134004D03B689720191CFFF727
:40378000C9FD7B681920191CFFF7C4FD031E1BD1BB68181CFC21FFF779FD031E00D10BE0BB688022920094466344BB603B68013B3B603B68002BEBD10020FD21FFF766FDE3
:4037C000031E01D101233B60FFF704FD3B685A1E9341DBB2181CBD4604B080BDB801002080B58AB000AF3A60FB1D021C1A70BB1D0A1C1A70FB1D1B78181CFFF72BFE031C86
:403800001A1C0123134001D0032394E02723FB1801221A70BB1D1B78012B0FD0032B00D178E0002B00D07DE0FFF7E2FC031E04D02723FB1800221A7078E077E00920002176
:40384000FFF768FD031E64D10C23FB18181C1021FFF7E6FC031E5CD00C23FB181B789B09DBB2012B18D10C23FB185B7A1A1C0C23FB181B7A1B02D3181A1C0C23FB18DB79B8
:40388000191C3F230B401B04D31801333B623B6A9A023B681A6037E00C23FB185B790F221340DAB20C23FB189B7ADB09DBB2D318DAB20C23FB185B7A03210B40DBB2DB186B
:4038C000DBB2D318DAB21F23FB1802321A700C23FB181B7A9B09DBB21A1C0C23FB18DB799B00D2180C23FB189B79191C03230B409B02D31801333B621F23FB181B78093BD7
:403900003A6A9A403B681A602723FB1800221A700CE00BE03B6880221A602723FB1800221A7003E02723FB1804221A70FFF752FC2723FB181B78181CBD460AB080BDC046EC
:40394000B0B500AF0B4B1B78002B0FD1094B01221A70FCF735FD041C0D1CFCF73BFD031C9BB2201C291C1A1C00F068F803F01AFCBD46B0BDB901002080B500AF044B181C78
:4039800003F0B6FB034B00221A70BD4680BDC04641390000B901002080B582B000AF084B1B78012B05D101237B60054B00221A7001E000237B607B68181CBD4602B080BDEE
:4039C000B901002080B582B000AF00F0B7F9031C7B607B68181CBD4602B080BD90B585B000AFB860F960BB1D1A80124B1B88191C114A0B1C5B005B181B01D3180833BA1D8A
:403A000012881A800B4B1B88191C0B4A0B1C5B005B181B01D218BB68FC6813605460054B1B8801339AB2034B1A800123181CBD4605B090BD580800206008002090B585B0EC
:403A400000AFB860F960BB1D1A80164B1B88191C154A0B1C5B005B181B01D3181833BA1D12881A800F4B1B88191C0F4A0B1C5B005B181B01D31810331A1CBB68FC681360D0
:403A80005460084B1B88181C00F020F8054B1B8801339AB2034B1A800123181CBD4605B090BDC046C01100206008002080B500AF044B1B881A1C044B1B88D31A181CBD46C7
:403AC00080BDC04658080020C011002090B583B000AF78603D497A68131C5B009B181B01CB18103319685A68384C7868031C5B001B181B01E3185C681B68C91AA241334C35
:403B00007868031C5B001B181B01E318203319605A602E497A68131C5B009B181B01CB181833198829487A68131C5B009B181B01C31808331B88CB1A98B224497A68131CC8
:403B40005B009B181B01CB182833021C1A801F497A68131C5B009B181B01CB1828331A88FA239B009A422DD918497A68131C5B009B181B01CB1820335C681B680121494242
:403B8000CA17C9186241114C7868031C5B001B181B01E318203319605A600C497A68131C5B009B181B01CB1828331B885B4298B206497A68131C5B009B181B01CB182833F9
:403BC000021C1A80181CBD4603B090BD6008002080B584B000AF78607B68702213401A09131C9B009B185B00FB607B680F221340FA68D318FB60FB68181CBD4604B080BDA6
:403C000080B584B000AF78607A68E023DB0113401A0B131C9B009B185B00FB607A68F0231B0113401B0AFA68D318FB60FB68181CBD4604B080BDC04680B584B000AF786076
:403C40007A68C0239B0313401A0D131C9B009B185B00FB607A68F0231B0313401B0CFA68D318FB60FB68181CBD4604B080BDC04680B584B000AF78607A68C0239B031340C8
:403C80001A0D131C9B009B185B00FB607A68F0231B0313401B0CFA68D318FB60FB68181CBD4604B080BDC04680B584B000AF78607A6880235B0513401A0F131C9B009B1816
:403CC0005B00FB607A68F0231B0513401B0EFA68D318FB60FB68181CBD4604B080BDC04680B584B000AF78607A68C0239B0113401B0BFA2292005343FB607A68F0231B01CA
:403D000013401B0A64225343FA68D318FB607B68F02213401A09131C9B009B185B001A1CFB689B18FB607B680F221340FA68D318FB60FB68181CBD4604B080BD90B583B04B
:403D400000AFFC1D074A084B101C191C0122FEF7C9FA031C2370FB1D1B78181CBD4603B090BDC0462806002060860000B0B5BCB002AF786001F02CFF031CE022BA181360F1
:403D8000E023FB181B68181CFFF7AAFF031C914A94466344DC22BA181360E023FB181B68181CFFF781FF031CD822BA181360E023FB181B68181CFFF75BFF031CD422BA1834
:403DC0001360B823F8188449D423FB181A68D823FB181C68DC23FB181B680093231C03F095FF7E4B00221A60E723FC187C49B823FA187A4B081C111C3222FEF7BDFA031C22
:403E00002370E723FB181B78002B00D0DAE07B685C681B686C22B91800220092081C1A1C231C01F0E5FF6C23FB181B68181CFFF703FF051C6C23FB181B68181CFFF7E0FE40
:403E4000041C6C23FB181B68181CFFF7C1FE7B681B89191CA423FA18624B00900191101C191C2A1C231C03F051FF7B685C691B696C22B91800220092081C1A1C231C01F0BE
:403E8000B7FF6C23FB181B68181CFFF7D5FE051C6C23FB181B68181CFFF7B2FE041C6C23FB181B68181CFFF793FE7B681B8B191C9023FA184B4B00900191101C191C2A1C28
:403EC000231C03F023FF7B685C6A1B6A1D1C7B681B8D1C1C7C23FA18434B101C191C2A1C231C03F013FF414B1A680823F8184049A423FC189023FB1800937C23FB180193CE
:403F0000231C03F003FF394B1B68012B03D0334B1B68012B35D101F039FE031CD022BA181360D023FB181B68181CFFF785FE051CD023FB181B68181CFFF762FE041CD02319
:403F4000FB181B68181CFFF743FE011C244A294B0091101C191C2A1C231CFEF799FE204A254B101C191CFEF793FE1D4A234B101C191CFEF78DFE1A4A1F4B101C191CFEF7A3
:403F800087FE0823FB18181C03F0EFFE051CE723FC1813490823FA18CC23FB18081C111C2A1CFEF7C9FB031C2370E723FC180C4B181CFEF7C7FD031C23700C4B1B685A1CEA
:403FC0000A4B1A60E723FB181B78181CBD463AB0B0BDC04630F8FFFF648600005C080020C41100207886000094860000F4000020A4860000B0860000D086000004870000B8
:4040000080B500AF02F074FD064B1B78002B03D1054B181C02F01EFE024B01221A70BD4680BDC046EC1300202D40000080B500AF02F090FE031CDB43DBB2181C02F066FE40
:40404000022002F0FBFDBD4680BDC04680B584B000AF021CBB1D1A80BB1D1B885B001A1CFA239800111C03F033FB031CFB60FB68181C02F09FFD02F05BFDBD4604B080BD5A
:4040800080B582B000AF021CFB1D1A7002F06CFDFB1D1B78181C02F039FEBD4602B080BD80B584B000AF78600A1CFB1C1A70FB1C1B78FB600C4B1B68002B01D100F03AF820
:4040C0007A68FB685340BB607B681A0ABB68FF211940064B8900CB5853407B607B68181CBD4604B080BDC046BC010020C001002080B586B000AFF860B9607A607B683B610C
:4041000000237B610DE0FA687B69D3181B783A69101C191CFFF7C4FF031C3B617B6901337B617A69BB689A42EDD33B69181CBD4606B080BD80B584B000AF0023FB601FE05E
:40414000FB687B600023BB600FE07B680122134005D07B685B080F4A53407B6002E07B685B087B60BB680133BB60BB68072BECDD094BFA6892007968D150FB680133FB60CA
:40418000FB68FF2BDCDD054B01221A60BD4604B080BDC0462083B8EDC0010020BC01002080B5A0B000AF02F0ABFE021C7F23FB181A707F23FB181B78181C01F091FF284B30
:4041C00000221A70274A7F23FB181B78101C191C00F08AF9031CBB67BB6F002B0DD06823F918214ABB6F081C111C1A1C03F08EFD6823FB18181C01F0E3FF1A4B1B7E002B0F
:4042000027D01849164A3B1C081C111C1A1C00F0B3FB031E1DD0124B1B780A2B19D13423FA183B1C101C191C002200F0B1F80F4B181C01F0C5FF3423FB18181C01F0C0FFC0
:404240000B4B181C01F0BCFF3423FB18181C02F077FE084B04221A60BD4620B080BDC04619140020F8130020248700003087000038870000C00F254080B582B000AF02F025
:404280008FFD044B7B607B68181C02F09BFDBD4602B080BDA141000090B5AFB004AF0023A422BA1813600023A022BA18136000239C22BA181360334B00221A7000239822F7
:4042C000BA1813604CE0391C2F4A002300240093019400230293081C111C1A2203F016FD3423F9183A1CA423FB181B68081C111C1A1C00F04DF83423FB18181C02F020FE40
:4043000000239C22BA18136019E01E4B1B78142B0BD11E4B181C01F053FF0123A022BA18136001239822BA181360322000F0B2FF9C23FB181B6801339C22BA1813609C23DB
:40434000FB181B68312B04D8A023FB181B68002BDBD0A423FB181B680133A422BA181360A023FB181B68002B04D1A423FB181B68042BA8D99823FB181B68181CBD462BB0DB
:4043800090BDC046191400203C8700004C87000090B591B000AFF860B9607A60BB68FB637B689BB21C1C2423FA18474B101C191C221C03F0ABFC01235B42BB63434ABB6BA8
:4043C000101C01211A1CFFF793FE031CBB63FB6B181C03F0CAFC011CFA6BBB6B101C1A1CFFF786FE031CBB63394ABB6B101C01211A1CFFF77DFE031CBB63BB6BDB43BB6324
:404400001023F918334ABB6B081C111C1A1C03F07DFCFA68304B111C1A1C0223081C111C1A1C03F061FCFA682423FB18101C191C03F08EFCFB68181C03F097FC031C1A1C5A
:40444000FB689A18254B111C1A1C0223081C111C1A1C03F049FCFA68FB6B101C191C03F077FCFB68181C03F080FC031C1A1CFB689A181B4B111C1A1C0223081C111C1A1CFC
:4044800003F032FCFA681023FB18101C191C03F05FFCFB68181C03F068FC031C1A1CFB689A18104B111C1A1C0223081C111C1A1C03F01AFCFB68181C03F057FC031CDBB230
:4044C000181CBD4611B090BD788700008087000084870000888700009087000094870000988700009C870000F0B597B004AF78610A1C1323FB181A7000237B641323FE1824
:404500001323FB181B78181C00F0D8F9031C33701323FB181B783C2B16D1D84B01221A707B69181C00F00CFAD54B00221A70D54B00221A70D44B00221A70D44B00221A70B2
:40454000D34B00221A70B3E1CC4B1B78092B00D9AAE19A00CF4BD3181B689F461323FB181B78181C00F0D2F9031E1ED07B691A881323FB181B789BB213439AB27B691A80EB
:40458000BF4B1B780133DAB2BD4B1A70BC4B1B78042B03D1B94B02221A7089E17B691B881B019AB27B691A8082E1B44B00221A7001237B647CE11323FB181B78212B03D17C
:4045C000AE4B03221A7073E17B69181C00F0B8F902237B64A94B00221A7069E11323FB181B78181C00F092F9031E1BD07B695A681323FB181B781A437B695A60A14B1B7885
:404600000133DAB29F4B1A709E4B1B78022B03D19A4B04221A704BE17B695B681A017B695A6045E17B69181C00F08AF9934B00221A7003237B643BE11323FB181B783A2B0B
:4046400003D18E4B05221A7032E17B69181C00F077F904237B64894B00221A7028E11323FB181B78181C00F051F9031E2DD07B699A68DB68132179180978C9B2B960002136
:40468000F960B96811433960F968194379607B6939687A689960DA607C4B1B780133DAB27A4B1A70794B1B78102B03D1734B06221A70FDE07B699A68DB68110F1D010D4390
:4046C00014017B699C60DD60F2E07B69181C00F037F905237B64694B00221A70E8E01323FB181B78181C00F011F9031E1DD07B691A7C1323FB181B781343DAB27B691A748D
:40470000634B1B780133DAB2614B1A70604B1B78042B03D1594B07221A70C9E07B691B7C1B01DAB27B691A74C2E07B69181C00F007F906237B64514B00221A70B8E01323A4
:40474000FB181B78402B03D14C4B08221A70AFE07B69181C00F0F4F807237B64474B00221A70A5E01323FB181B78181C00F0CEF8031E1BD07B695A691323FB181B781A4308
:404780007B695A61404B1B780133DAB23E4B1A703D4B1B78082B03D1384B09221A7087E07B695B691A017B695A6181E07B69181C00F0C6F808237B64304B00221A7077E097
:4047C0001323FB181B783E2B4DD17B695D687B69DC689B687A69127C101C08221021791889182D4A009301940290081C111C2A1C03F08CFA01235B423B64284A3B6C101C72
:4048000001211A1CFFF774FC031C3B6408231022BA18D2183B6C101C28211A1CFFF768FC031C3B641E4A3B6C101C01211A1CFFF75FFC031C3B643B6CDB433B647B695A69CC
:404840003B6C9A4205D07B6901221A7600237B640FE07B6900221A760A237B64114B181C01F0AEFC05E009237B647B69181C00F067F8024B00221A701AE0C04618140020EF
:40488000F3130020F0130020F1130020F2130020F4130020CC870000A0870000B0870000B4870000B88700007B69181C00F048F87B6CDBB2181CBD4613B0F0BD80B582B04A
:4048C00000AF021CFB1D1A70FB1D1B78402B09D9FB1D1B78462B05D8FB1DFA1D1278373A1A700CE0FB1D1B782F2B08D9FB1D1B78392B04D8FB1DFA1D1278303A1A70FB1D22
:404900001B78181CBD4602B080BDC04680B584B000AF021CFB1D1A700F23FB1801221A70FB1D1B780F2B03D90F23FB1800221A700F23FB181B78181CBD4604B080BDC04636
:4049400090B583B000AF78607B6800221A807B6800225A607A68002300249360D4607B6800221A747B6800225A617B6800221A76BD4603B090BDC046F0B58DB002AFF860AE
:40498000B9607A602723FB1800221A70654B181C01F016FCFB685B681A3B062B00D9B5E09A00614BD3181B689F46604B181C01F007FC79685E4A00230093081C111C2022BC
:4049C000002303F0A3F95B4B181C01F0F9FB7B68181C01F0F5FB584B181C01F0F1FBBB680A221A702723FB1801221A7092E000233B62524B181C01F0E3FBFEF7CDFF031E03
:404A000002D001233B6205E0FFF750F8031E01D002233B627968464A3C6A00230093081C111C2122231C03F071F9424B181C01F0C7FB7B68181C01F0C3FB3F4B181C01F026
:404A4000BFFBBB680A221A702723FB1801221A7060E0FBF7ABFC031E06D1FBF7B1FC031C0C1CBB61FC6103E000230024BB61FC61FB691D0000231E1C2B1C7B61BB693B6105
:404A80002F4B181C01F09CFBFBF7A4FC79682D4A7C693B6900930190081C111C2222231C03F034F9BB680A221A702723FB1801221A702FE0244B181C01F082FB79681C4AEB
:404AC00000230093081C111C2022002303F01EF9FB68DC689B68FA68127C92B2181C211CFEF77CFFBB680A221A702723FB1801221A700FE0154B181C01F062FBBB68142274
:404B00001A702723FB1801221A7003E02723FB1800221A702723FB181B78181CBD460BB0F0BDC046F4870000B4880000088800001C8800002C8800003C8800004088000035
:404B4000548800006C880000808800009C88000080B582B000AF62B6FB1D00221A70FB1D1B78042B4ED89A00294BD3181B689F4600F050F8031C3B603B68012B03D1FB1D39
:404B800001221A703EE03DE000F07EF8031C3B603B68012B03D1FB1D02221A7032E031E000F08EF8031C3B603B68012B03D1FB1D03221A7026E0FB1D01221A7022E000F00A
:404BC0009FF8031C3B603B68012B08D1FB1D01221A70FA239B00181C00F05CFB12E0FB1D04221A700EE000F0BBF8031C3B603B68012B03D1FB1D03221A7002E0FB1D002239
:404C00001A70C046FA235B00181C00F043FBA6E7DC88000090B585B000AFFFF7F1F90320FFF714FAFBF744FF164B181CFBF746FFFBF7AAFBFFF720FBFEF79EFEFBF7F2FECD
:404C4000031C0C1C3B607C603B687A68134312D03B687C68181C211C00F072FFFEF7B2FE031CFB60FB68002B02D10123FB6004E00023FB6001E00023FB60FB68181CBD4606
:404C800005B090BDF088000080B582B000AFFFF703FB031C7B607B68002B07D1074B181CFBF70CFF0A20FFF7D1F901E001237B607B68181CBD4602B080BDC04600890000AB
:404CC00080B582B000AF0120FFF7DAF9FEF764FE031C7B607B68012B04D1074B181CFBF7EDFE03E0054B181CFBF7E8FE7B68181CBD4602B080BDC0460C8900001C89000094
:404D000080B582B000AF0320FFF7A0F9114B1B881A1C131C5B009B181B010F4A9B18181CFFF724F8031C7B607B68002B02D101237B600AE0094B181CFBF7C0FEFA235B0057
:404D4000181C00F0A7FA00237B607B68181CBD4602B080BDC0110020600800202C89000080B582B000AFFEF7E9FF031C7B607B68002B0BD1094B181CFBF7A0FEFA235B00D2
:404D8000181C00F087FA01237B6001E000237B607B68181CBD4602B080BDC0463C89000080B500AFFEE7C04680B584B000AF78600F4B1A687B68D3181A1C0E4BD31A802B0C
:404DC00009DC0B4B1B68FB60094B1A687B68D218074B1A6007E002F05BFF031C0C221A6001235B42FB60FB68181CBD4604B080BDF80000207814002080B586B000AF224B3F
:404E00007B61224B3B61204B7B6135E03B691B68FB603B695B68BB603B699B683B6000237B600CE0FB681A68BB681A60BB680433BB60FB680433FB607B6804337B607A683E
:404E40003B689A42EED13B69DB683B6000237B6008E0BB6800221A60BB680433BB607B6804337B607A683B689A42F2D13B6910333B617B69013B7B617B69002BC6D102F028
:404E80000DFFFFF765FEFEE701000000648A000080B582B000AF154B144A126801218A431A6000237B600FE07B68032B04D8104B7A689200D35800E00E4B0F4A7968890032
:404EC0008B507B6801337B607B682F2BECD9FBF74BF90A4B00221A60044B044A126801210A431A60BD4602B080BDC0460000104000000000A14D000000000020C000002086
:404F000080B582B000AF786039607A683B68101C00211A1C02F0F1FEBD4602B080BDC04680B586B000AF7860396000233B6100237B612FE07B699B007A68D3181B68BB60C7
:404F40000F23FB18BA681A70BB68FF229343BB6018E03B695B003A68D3181B781A1CBB68D318191C3B695B003A68D3185B780B703B6901333B610F23FB181A780F23FB1811
:404F8000013A1A700F23FB181B78002BE1D17B6901337B617B69052BCCD9BD4606B080BD80B500AF054B03221A60054B03221A60044B00221A60BD4680BDC0463000304041
:404FC00030003140000E3F400230800803D00138FDD1C046C046C0467047EFF3108072B6704780F31088704790B58BB000AF78602723FC18FFF7F1FF031C2370184B1A6831
:405000000C23FB181A60174B1A680C23FB185A607B68033B144AD35C1A1C0C23FB189A60124B1A680C23FB18DA601C23FB18104A1A600C23FA181C23FB185A600D4B1C2250
:40504000BA181A600C4B0D4A1A600A4B1B682723FB181B78181CFFF7C4FFBD460BB090BD08010B4000010B40B489000030001040B6EA0000080010400400104017000080BC
:4050800080B584B000AF78600023FB60154B154A126801210A431A60134B144A1A60144B134A1268802109020A431A607B68002B12D01023FB600CE0012000F00FF900F00E
:4050C00019F8031E02D00023FB6005E07B68013B7B607B68002BEFD1FB68181CBD4604B080BDC04660F02E4078002E400220000010002E4080B582B000AF054B1B680122A0
:4051000013407B607B68181CBD4602B080BDC0460C002E4080B584B000AF021C3960FB1D1A7080239B05FB60FB1D1B781F2B02D9002000F0A5F8FB1D1B7810339B00FA6841
:40514000D3181B68BB60FB1D1B7810339B00FA68D3183A681A60BB68181CBD4604B080BD90B587B000AF021CFB1D1A70BB1D0A1C1A70BB1D1B78032B02D9002000F080F8FA
:40518000FB1D1B781F2B02D9002000F079F8FB1D1B7803221340DB0006337B611323FC18FFF71BFF031C2370FB1D1B789B08DBB29B00144A944663441B68FB607B69032243
:4051C0009A40131CDA43FB681340FB60BB1D1A787B699A40131CFA681343FB60FB1D1B789B08DBB29B00074A94466344FA681A601323FB181B78181CFFF7F3FEBD4607B039
:4052000090BDC04600E400E080B582B000AF021CFB1D1A70054BFA1D12781F210A40012191400A1C1A60BD4602B080BD00E100E080B582B000AF021CFB1D1A70054BFA1D83
:4052400012781F210A40012191400A1C1A60BD4602B080BD80E100E080B582B000AF021CFB1D1A70054BFA1D12781F210A40012191400A1C1A60BD4602B080BD80E200E03C
:4052800080B582B000AF021CFB1D1A7001BEBD4602B080BD80B582B000AF786009E00C4B1B68181CFFF790FE7B680A4A944663447B607A6880231B029A42F0D8064B1B6851
:4052C0007A685343181CFFF77FFEBD4602B080BD080100200080FFFF0001002080B582B000AF021CBB1D1A80BB1D1B88044A12785343181CFFF768FEBD4602B080BDC046BE
:405300000401002080B500AF0E4B0E4A126801218A431A600B4B0B4A126802218A431A60094B094A126830218A4310210A431A60054B054A126807218A4301210A431A6013
:40534000BD4680BD00F02E4000FF2E4080B500AF0E4B0E4A126802218A431A600C4B0C4A126807218A4302210A431A60084B084A126830218A4320210A431A60034B034AC3
:40538000126801210A431A60BD4680BD00F02E4000FF2E4080B500AFFFF7B4FF044B044A1268802109060A431A60BD4680BDC04600F02E4080B584B000AF78600C4B1B68F6
:4053C00001221340FB607B68002B02D0012B03D005E0FFF797FF06E0FFF7B8FF03E00020FFF74EFFC046FB68181CBD4604B080BD00F02E4090B583B000AFFC1DFFF7EDFDA4
:40540000031C2370074B074A1268C02109020A431A60FB1D1B78181CFFF7E3FDBD4603B090BDC04600010B4080B500AF054B1A68C0231B02134001D0012300E00023181CAB
:40544000BD4680BD00010B4090B583B000AFFC1DFFF7C3FD031C23700C4B0C4A12680C490A408021C9010A431A60084B074A126807490A40802109020A431A60FB1D1B782A
:40548000181CFFF7AEFDBD4603B090BD00010B40FF3FFFFF90B585B000AF78600B23FC18FFF79BFD031C2370FFF7BEFF031E04D00123FB60FFF7C8FF01E00023FB607B68E3
:4054C0000D4A13407B600D4B0C4A12680C4911407A680A431A60094B1B68FB68012B01D1FFF788FF0B23FB181B78181CFFF779FDBD4605B090BDC0460404040010020B4013
:40550000FBFBFBFF80B584B000AF786039600023FB607B68022B0AD8094B7A689200D358FB60074B7A6892003968D15002E00020FFF7A6FEFB68181CBD4604B080BDC0467F
:40554000CC05002080B500AF334B1B68042213401FD0324B1B680422134017D0304B1B6804221340DA432D4B1B681A402B4B1A602B4B1B68042293431A1C294B1A60294B27
:405580001B68002B02D0274B1B6898470420FFF781FF214B1A688023DB00134022D01F4B1A688023DB00134017D01D4B1A688023DB001340DA43194B1B681A40174B1A60B3
:4055C000174B1B68184A1A40154B1A60154B5B68002B02D0134B5B6898478023DB00181CFFF758FF0C4B1A688023DB02134011D00A4B1A688023DB02134006D0094B9B68AD
:40560000002B02D0074B9B6898478023DB02181CFFF740FFBD4680BD10020B4010010020C8050020CC050020FFFBFFFF80B582B000AF786039607B683A681A403B689A42C7
:4056400001D1012300E00023181CBD4602B080BD80B584B000AF78607B680322134006D17B68181C642102F0B9F80B1E07D17B68181CC823590002F0B1F80B1E02D1012393
:40568000FB6001E00023FB60FB68181CBD4604B080BDC04680B584B000AF78607B68702213401A09131C9B009B185B00FB607B680F221340FA68D318FB60FB68181CBD46E8
:4056C00004B080BD80B584B000AF78607A68E023DB0113401A0B131C9B009B185B00FB607A68F0231B0113401B0AFA68D318FB60FB68181CBD4604B080BDC04680B584B032
:4057000000AF78607A68C0239B0313401A0D131C9B009B185B00FB607A68F0231B0313401B0CFA68D318FB60FB68181CBD4604B080BDC04680B582B000AF78607A68802399
:40574000DB03101C191CFFF771FF031C181CBD4602B080BD80B584B000AF78607A68C0239B0313401A0D131C9B009B185B00FB607A68F0231B0313401B0CFA68D318FB600A
:40578000FB68181CBD4604B080BDC04680B584B000AF78607A6880235B0513401A0F131C9B009B185B00FB607A68F0231B0513401B0EFA68D318FB60FB68181CBD4604B04D
:4057C00080BDC04680B584B000AF78607A68C0239B0113401B0BFA2292005343FB607A68F0231B0113401B0A64225343FA68D318FB607B68F02213401A09131C9B009B18C8
:405800005B001A1CFB689B18FB607B680F221340FA68D318FB60FB68181CBD4604B080BD80B582B000AF78607A6880231B04134001D0012300E00023181CBD4602B080BDC9
:4058400080B586B000AFF860B9607A603B60FB68DB057B61BB689B057A6913437B617B68181C0A2101F034FF031C1B057A6913437B617B68181C0A2101F0B0FF0B1C1B044F
:405880007A6913437B613B68181C0A2101F020FF031C1B037A6913437B613B68181C0A2101F09CFF0B1C1B027A6913437B613B6A181C0A2101F00CFF031C1B017A69134314
:4058C0007B613B6A181C0A2101F088FF0B1C1A1C7B6913437B617B69181CBD4606B080BD80B586B000AFF860B9607A607B687B61FB68181C0A2101F0EBFE031C1B073B6132
:40590000FB68181C0A2101F069FF0B1C1B063A6913433B61BB68181C0A2101F0D9FE031C1B053A6913433B61BB68181C0A2101F055FF0B1C1B043A6913433B617B68181C98
:40594000FA23990001F0C4FE031C1B033A6913433B617B69181CFA23990001F03FFF0B1C7B617B69181C642101F0B2FE031C1B023A6913433B617B69181C642101F02EFF22
:405980000B1C7B617B69181C0A2101F0A1FE031C1B013A6913433B617B69181C0A2101F01DFF0B1C1A1C3B6913433B613B69181CBD4606B080BDC04690B587B000AFF860A7
:4059C000B9607A60BB68022B05D8BB680C33BB607B68013B7B60BB6801331A225343181C0A2101F075FE031C1A1CFB68D2187B68D2187B689B08D4187B68181C642101F0B6
:405A000067FE031C1A1C131C5B009B185B00E4187B68181CC823590001F05AFE031CE318181C072101F0DAFE0B1C7B617B69002B01D107237B617B69181CBD4607B090BD2C
:405A400080B500AF034B1B78002B01D100F004F8BD4680BD2014002080B584B002AF154B01221A70144B00221A60144B0022DA60134B00221A70134B00221A60124B012085
:405A800001211A1CFFF72CFF031C7B60002300930120002100220023FFF7D2FE031C3B603A687B68101C191C00F010F8BD4602B080BDC04620140020F0050020241400201F
:405AC0003814002034140020B207000090B587B000AF786039603B68181CFFF73BFE031C7B613B68181CFFF751FE031C3B613B68181CFFF767FE031CFB603A687B68101C48
:405B0000191C00F0ADF8031C0C1C0B4A136054600A4B3A685A60094B7A681A6079693A69FB68081C111C1A1CFFF746FF021C034B9A60BD4607B090BD401400202414002094
:405B400090B589B002AF38607960094A3B687C68136054600823F9183B687C6800220092081C1A1C231C00F043F9BD4607B090BD4014002090B500AF034B5C681B68181C10
:405B8000211CBD4690BDC0464014002090B583B002AF0C4B1B68191C00231A1C0A4B5C681B685B185441094901220092081C1A1C231C00F01DF9054B1B68181CBD4601B048
:405BC00090BDC046F0050020401400202414002090B583B002AF0C4B1B68191C00231A1C0A4B5C681B685B185441094901220092081C1A1C231C00F0FBF8054B5B68181C72
:405C0000BD4601B090BDC046F0050020401400202414002090B500AF0D4B1A680D4B1B68D2180B4B1A600A4B1A680B4B1B689A420CD30A4B5C681B68012100225B185441C6
:405C4000064A13605460024B00221A60BD4690BDF4050020E8050020EC05002040140020F0B591B000AF78623962002300243B637C637B6A181CFFF7A5FD031CFB62564B2D
:405C8000FB6319E0FB6B181CFFF7E2FC031E08D03B6B7C6B514900225B1854413B637C6307E03B6B7C6B4E4900225B1854413B637C63FB6B0133FB63FA6BFB6A9A42E1D354
:405CC0007B6A181CFFF762FD031CBB62BB6A5A1E444B5200D35ABB63BB6A022B08D9FB6A181CFFF7B5FC031E02D0BB6B0133BB63BB6B3D4A5343BB610023FB613B6B7C6BE8
:405D0000B969FA695B1854413B637C637B6A181CFFF720FD021C344B5343344A944663443B6100237B613B6B7C6B39697A695B1854413B637C633B6A181CFFF7DFFC031C00
:405D4000BB633B6A181CFFF76BFD031E0BD03B6A181CFFF7EFFC031E05D0BB6B0B2B02D8BB6B0C33BB63BB6BE12212015343BB600023FB603B6B7C6BB968FA685B185441E6
:405D80003B637C633B6A181CFFF79CFC021C131C1B019B1A9B003B6000237B603B6B7C6B39687A685B1854413B637C633B6A181CFFF770FC031C1D1C00231E1C3B6B7C6B9B
:405DC0005B1974413B637C633B6B7C6B181C211CBD4611B0F0BDC046B20700000085E2018033E101E48900008051010080AEFEFFF0B5A1B002AF7865BA64FB6400233B67A2
:405E0000A14BBB66A14B7B6619E07B6EBB600023FB60BB6CFC6CB968FA685B1A9441BB64FC64BB6E0133BB66BB6E181CFFF710FC031E02D0964B7B6601E0944B7B667B6E16
:405E40001D1C00231E1CFB6CB342DED8FB6CB34202D1BB6CAB42D8D80123FB66FA6EBB6E101C191C00F01AF9021C8A4B53437B6618E07B6E3B6000237B60BB6CFC6C3968F9
:405E80007A685B1A9441BB64FC64FB6E0133FB66FA6EBB6E101C191C00F000F9021C7D4B53437B667B6E3B6400237B64FB6C7A6C934207D3FB6C7A6C9342DAD1BB6C3A6CE1
:405EC0009342D6D2BB6CFC6C181C211C714A002301F090FC031C0C1C3B663A6E6D4B53437B667B6EBB630023FB63FB6CFA6B93420CD3FB6CFA6B934203D1BB6CBA6B93426D
:405F000004D37B6E3B6200237B6203E0002300243B627C62BB6CFC6C396A7A6A5B1A9441BB64FC643B6E01333B66BB6CFC6C181C211CE1221201002301F05CFC031C0C1C39
:405F40007B677B6FE122120153437B669023FB181B68002B1DD0FB6C002B06D1FB6C002B0ED1BB6C4C4A93420AD901233B677B6F0C2B02D97B6F0C3B00E07B6F7B6708E091
:405F800000233B677B6F002B01D07B6F00E00C237B677B6E3B6300237B63FB6C7A6B93420CD3FB6C7A6B934203D1BB6C3A6B934204D37B6EBB610023FB6103E000230024B8
:405FC000BB61FC61BB6CFC6CB969FA695B1A9441BB64FC64BB6CFC6C181C211C3C22002301F008FC031C0C1CFB65FA6D131C1B019B1A9B007B667B6EBB620023FB62FB6C5E
:40600000FA6A93420CD3FB6CFA6A934203D1BB6CBA6A934204D37B6E3B6100237B6103E0002300243B617C61BB6CFC6C39697A695B1A9441BB64FC64F96E3A6EBB6E081C7D
:40604000111C1A1CFFF74CFC021C7B6D5A60BB6C9022BA181068396F7A6FFC6D0093231CFFF7EEFB021C7B6D1A60396EFA6EBB6E081C111C1A1CFFF79FFC021C7B6D9A6021
:40608000BD461FB0F0BDC046B20700008033E1010085E20180510100C1A8000080B584B000AF786039607B68013B0A4AD35CFB607B68022B08D13B68181CFFF7C9FA031E4A
:4060C00002D0FB680133FB60FB68181CBD4604B080BDC046FC8900000000000000000000FEB5494652465B460EB407462E4909688A462E4A12682E48022101F0E9FA030022
:406100002A480068C0182A4901F0E2FA06001F3EB346234A126801219140C9430C0001250026FEF75AFF814651460B6823400B6058460430FEF748FF3800F0402840904038
:406140000B68234003430B605846FEF73DFF0136072EF1D900200130012090400B68234003430B6058460630FEF72EFF4846FEF738FFC046C046C0460EBC894692469B46B6
:40618000FEBDC046C046C046C046C046C046C046C046C046C046C046C046C046C046C04614010020F805002018010020FC00002000C20100C046C046C046C046C046C0463C
:4061C00080B584B000AF78600F23FB1801221A700E23FB187A6812781A7015E00E23FB181B78181CFFF77CFF0F23FB181B787A68D2180E23FB1812781A700F23FB181A783F
:406200000F23FB1801321A700E23FB181B78002BE4D1BD4604B080BD80B500AF00F052F8BD4680BD80B500AF064B064A1268802109060A431A6000F033F800F039F8BD469E
:4062400080BDC0460000244080B500AF064B1B78002B04D1FFF7E0FF034B01221A70FFF7E1FFBD4680BDC046FC05002080B500AF0920FEF7DDFF00F01FF8074B064A1268A1
:40628000520052081A60054B00221A600920FEF7E3FFBD4680BDC04600002440880F244080B500AF0920FEF7AFFFBD4680BDC04680B500AFBD4680BD80B500AF00F06EF8D3
:4062C000BD4680BD80B500AF204B00221A60204B204A1A60204B214A1A60214B00221A60204B00221A60204B1C4A1A601F4B00221A600920FEF79CFF09200321FEF730FF4A
:406300001B4B0920191CFEF705FF1A4B00221A60194B00221A60194B00221A60184B1422FF321A60174B00221A60174B00221A60164B10221A70164B00221A80154B0022A3
:406340001A60154B00221A60BD4680BD000024406000244077080080000324400701008004032440100324400002244004022440B9710000C80E2440880E2440480F244086
:40638000080F2440C80F2440880F24404814002058140020681400205014002080B500AF024B10221A70BD4680BDC0464814002080B584B000AF786039600023FB60042327
:4063C000BB60384B1B78DBB2102B66D1364B1B680122134002D00823BB605EE00920FEF727FF7B685B00FF2213407B603B68002B03D12C4B24221A7006E02A4B25221A70B7
:406400007B68012213437B60284B7A681A60284B284A1A60284B02221A60C046244B1A680823FF331340F9D0214B1B680422134002D00023BB601CE01D4B1B6802221340A0
:4064400002D00223BB6014E0194B1B680122134007D0144B10221A700123BB600123FB6007E0104B10221A7080235B00BB600123FB600F4B0822FF321A60FB68002B0CD0DA
:406480000E4B0E4A1268520052081A600B4B0B4A1268802109060A431A60BB68181CBD4604B080BD481400206400244040022440000F2440170300006800244000002440FD
:4064C00080B582B000AF00237B6004233B600920FEF7AEFE274B1B78DBB220221340DBB2002B3ED0244B254A126820210A4001D0182200E010221A60C046214B1A6812236C
:40650000FF331340F9D01E4B1B681022134002D000233B600EE01A4B1B680122134004D001233B6001237B6004E080235B003B6001237B60124B1222FF321A600D4B1022EC
:406540001A707B68002B0CD00E4B0E4A1268520052081A600B4B0B4A1268802109060A431A600920FEF750FE3B68181CBD4602B080BDC0464814002068002440640024406F
:40658000000F24400000244080B584B000AF78600023FB600423BB602A4B1B78DBB220221340DBB2002B48D0274B7A681A60C046264B1A680823FF331340F9D0234B1B6829
:4065C0000422134005D01F4B60221A700023BB601FE01E4B1B680222134005D0194B60221A700223BB6014E0184B1B680122134007D0144B10221A700123BB600123FB60B2
:4066000007E0104B10221A7080235B00BB600123FB600E4B0822FF321A60FB68002B0CD00B4B0B4A1268520052081A60084B084A1268802109060A431A60BB68181CBD46F1
:4066400004B080BD4814002040022440000F24400000244080B584B000AF786001235B42FB601F4B1B78DBB220221340DBB2002B31D0C0461B4B1B680422134005D11A4BA9
:406680001A680223FF331340F4D0164B1B680422134010D0154B1B68FB60124B04221A607B68002B03D1124B04221A6013E00C4B60221A700FE00C4B0E4A1A600E4B0E4A74
:4066C0001268520052081A600B4B0B4A1268802109060A431A60FB68181CBD4604B080BD48140020C00F2440000F24404003244068002440170300000000244080B582B059
:4067000000AF0920FEF794FD074B1B889BB27B60054B00221A800920FEF776FD7B68181CBD4602B080BDC0465814002080B500AF2820FEF7AFFD032000F0B0F90520FEF703
:40674000A9FD032000F0AAF90F20FEF7A3FD032000F0A4F90120FEF79DFD022000F09EF90520FEF797FD062000F0C0F80E2000F0BDF82C2000F0BAF8082000F0B7F80120CB
:4067800000F0B4F80C2000F0B1F8032000F0AEF80520FEF77FFDBD4680BDC04680B500AF0C2000F0A3F8024B01221A70BD4680BD0406002080B500AF064B1B78002B04D11C
:4067C000FFF7B4FF034B01221A70FFF7E7FFBD4680BDC0460506002080B582B000AF021CFB1D1A70BB1D0A1C1A70FB1D1B78012B10D002DC002B05D024E0022B12D0032B74
:4068000018D01FE0BB1D1B78803BDBB2181C00F06DF817E0BB1D1B78403BDBB2181C00F065F80FE0BB1D1B786C3BDBB2181C00F05DF807E0BB1D1B782C3BDBB2181C00F0D9
:4068400055F8C046BD4602B080BDC04680B584B000AF78600F23FB1801221A700E23FB187A6812781A7015E00E23FB181B78181C00F018F80F23FB181B787A68D2180E23DC
:40688000FB1812781A700F23FB181A780F23FB1801321A700E23FB181B78002BE4D1BD4604B080BD80B584B000AF021CFB1D1A7000F040F80F23FB18FA1D127812091A70A2
:4068C0000F23FB181B78181C00F0B4F80F23FB18FA1D12780F210A401A700F23FB181B78181C00F0A7F8BD4604B080BD80B584B000AF021CFB1D1A7000F01CF80F23FB1856
:40690000FA1D127812091A700F23FB181B78181C00F0C4F80F23FB18FA1D12780F210A401A700F23FB181B78181C00F0B7F8BD4604B080BD80B582B000AFCA235B007B6097
:40694000374B374A12687F218A431A60354B1B681B0B1B033B60334B3A6833490A431A602F4B2F4A126820218A431A602C4B2C4A126840210A431A600020FEF7AFFC284BB7
:40698000274A126810210A431A600120FEF7A6FC264B1B683B60224B214A126810218A431A600020FEF79AFC3B68082213403B601B4B1B4A126810210A431A600120FEF72A
:4069C0008DFC174B164A126810218A431A603B68002B02D10A20FEF781FC7B68013B7B603B68002B02D07B68002BC5D10C4B0C4A126840218A431A60094B094A12687F214F
:406A00008A431A60074B1B681B0B1B033B60054B3A6807490A431A60BD4602B080BDC04600010440080104404902000004010440B60D000080B582B000AF021CFB1D1A709B
:406A4000154B154A126820210A431A60124B124A126840218A431A600A20FEF73FFC0E4B0D4A12680F218A431A600B4B0A4A1268F91D097810200143C9B20A431A600A2064
:406A8000FEF72CFC044B044A126810218A431A60BD4602B080BDC0460001044080B582B000AF021CFB1D1A70104B104A126860218A431A600D4B0D4A12680F218A431A6080
:406AC0000A4B0A4A1268F91D097810200143C9B20A431A600120FEF701FC044B034A126810218A431A60BD4602B080BD0001044080B500AF0B4B802252021A600A4B0C2221
:406B00001A60022000F08EF8084B181C00F052F8002000F05DF8054B181C00F03DF8BD4680BDC04600012040240120408813000090B583B000AFFC1DFEF74FFA031C23707D
:406B4000084B084A126801210A431A60FB1D1B78181CFEF746FA0120182100F047F8BD4603B090BD0000204090B583B000AFFC1DFEF733FA031C2370064B064A12680121BC
:406B80008A431A60FB1D1B78181CFEF72AFABD4603B090BD0000204080B582B000AF7860034B7A681204120C1A60BD4602B080BD0801204080B582B000AF7860034B7A68EE
:406BC0001204120C1A60BD4602B080BD1401204080B582B000AF7860034B7A681204120C1A60BD4602B080BD0C01204090B585B000AF786039600F23FC18FEF7EEF9031C7A
:406C00002370074B3A68796891400A1C1A600F23FB181B78181CFEF7E4F9BD4605B090BD0800204080B582B000AF7860024B7A681A60BD4602B080BD3801204080B582B0A7
:406C400000AF7860024B7A681A60BD4602B080BD3001204080B582B000AF786000F04CF87B68181C00F008F8032000F013F800F039F8BD4602B080BD80B582B000AF786019
:406C8000034B84217A685A50BD4602B080BDC0460000002090B585B000AF021CFB1D1A700E23FB600B23FC18FEF797F9031C23700A4B0A4A12680A491140FA1D1078FA6887
:406CC0009040021C0A431A600B23FB181B78181CFEF787F9BD4605B090BDC04610E400E0FF3FFFFF80B500AF024B802292021A60BD4680BD00E100E080B500AF024B802292
:406D000092021A60BD4680BD80E100E080B584B000AF021CFB1D1A700D4B1B68DAB20F23FB187F210A401A70FB1D1B78DB01D9B20F23FB180F22BA1812780A431A70044BC2
:406D40000F22BA1812781A60BD4604B080BDC0460001044080B500AF044B1B6880221340DB09DBB2181CBD4680BDC0460401044080B500AF00F040F8BD4680BD80B500AFBE
:406D8000064B064A1268802109060A431A6000F025F800F02BF8BD4680BDC0460000254080B500AF064B1B78002B04D1FFF7E0FF034B01221A70FFF7E1FFBD4680BDC046C2
:406DC0000806002080B582B000AF7860024B7A681A60BD4602B080BD0C06002080B500AF0A20FEF711FABD4680BDC04680B500AF00F070F8BD4680BD80B500AF214B224A1E
:406E00001A60224B00221A60214B01221A60214B214A1A60214B07221A60214B00221A60204B01221A60204B1B4A1A601F4B00221A601F4B04221A600A20FEF7F9F90A20C1
:406E40000321FEF78DF91B4B0A20191CFEF762F9194B00221A60194B00221A60184B00221A60184B00221A60174B04221A60174B00221A60154B1B689AB2154B1A80BD4634
:406E800080BDC046000025400B08000240002540480025400003254007000080040325401003254044002540000225400402254050002540B5760000880E2540C80E25405F
:406EC000480F2540080F2540C80F2540880F25400A06002080B500AF064B064A1268F0218A4390210A431A60034B044A12881A60BD4680BD00000240880F25400A0600203F
:406F000080B582B000AF00237B6000F0ADFB031E03D000F099FB031C7B60084B1A68D8239B00134005D000237B60044BD82292001A607B68181CBD4602B080BDC00F254010
:406F400080B584B000AF78600023FB6009E07A68FB68D3181B78181C00F096FBFB680133FB607A68FB68D3181B78002BEFD1BD4604B080BD80B584B000AF021CFB1D1A70D6
:406F80000F23FB1808221A702FE0FB1D1B785BB2002B06DA1C4B1C4A126804210A431A6005E0194B184A1268FB210A401A60164B154A126802210A431A601420FEF704F885
:406FC000114B114A1268FD210A401A601420FDF7FBFFFA1DFB1D1B78DB1813700F23FB181A780F23FB18013A1A700F23FB181B78002BCAD1044B044A1268FB210A401A60AE
:40700000BD4604B080BDC0460002044080B584B000AF78600A1CBB1C1A800E23FB1800221A800FE00E23FB181B887A68D3181B78181CFFF79FFF0E23FB181A880E23FB1861
:4070400001321A800E23FA18BB1C12881B889A42E8D3BD4604B080BD80B584B000AF0023BB600823FB602CE01F4B1F4A126804210A431A601C4B1C4A126802210A431A600F
:407080001A4B1B6808221340DA08FB1D1A70FB1D1B78012B03D1BB6801221343BB601420FDF792FF104B104A1268FD210A401A601420FDF789FFBB685B00BB60FB68013BD3
:4070C000FB60FB68002BCFD1BB685B08BB60064B054A1268FB210A401A60BB68DBB2181CBD4604B080BDC046000204400402044080B582B000AF786000F04AF87B68181CC7
:4071000000F008F8032000F011F800F037F8BD4602B080BD80B582B000AF7860024B7A685A64BD4602B080BD0000002090B585B000AF021CFB1D1A700E23FB600B23FC188E
:40714000FDF74BFF031C23700A4B0A4A12680A491140FA1D1078FA689040021C0A431A600B23FB181B78181CFDF73BFFBD4605B090BDC04600E400E0FF3FFFFF80B500AF7D
:40718000024B02221A60BD4680BDC04600E100E080B500AF024B02221A60BD4680BDC04680E100E080B500AF024B02221A60BD4680BDC04680E200E080B582B000AF0023F7
:4071C0003B60C04B1B68002B02D0BE4B1B689847BD4B1B680122134002D0BC4B00221A60BB4B1B78DBB220221340DBB2002B38D0B84B1A6880235B0013400AD0B64B1B88B9
:407200009BB2C022920013439AB2B34B1A8001233B60B04B1B68012213400AD0AE4B1B889BB29022920013439AB2AB4B1A8001233B603B68002B14D0A54B1B78DBB20122C3
