:400000000010002011000000610C0000610C000008B500F03FFEC04610B51E4C23688022D20213432360182000F0A6FE22681A4B13402360194A1A4B1A601022194B1A60C9
:400040002023194A13601121184A11601F31184A116080210906174A116000222260164A16490A6016490A60164A17490A6017490A60174A13600522164B1A600332164BC7
:400080001A60154B1B681B07FBD40122124B1A6010BDC04600010B40FFFFFBFF0600008004010B40080202400C020240200202402402024008010B40CF00008000000240BE
:4000C00040000240BF5D0080800002400400024008020B400C020B4010020B4010B572B6002410E0274863001A195200821891881B195B001A5AC31858880004104300F0BF
:4001000011FE0134E4B2012CECD999231B041E4A1360EE2109021D4A116099211C4A11601C4A13601C4A13601C4A13601C4B1978022002220A431A701A4C22783C218A43F0
:4001400028390A432270197816220A431A70A422154B1A60154A164B1A602022154B1A60154A164B1A60D8221201154B1A60154B18603122144B1A60144B1860FFF74CFF6C
:4001800010BDC046242D0000000001400C0001401000014000500F4020500F4030500F4000700F4001700F4000000440801143000800044018000440B66D1B000802044044
:4001C0000803044000040440080404401804044010B5064C2378002B07D1054B002B02D0044800E000BF0123237010BD4801002000000000802B000008B5084B002B03D025
:400200000748084900E000BF07480368002B00D108BD064B002BFBD09847F9E700000000802B00004C010020C80000200000000008B500F097F8022000F0A6F800F022FA06
:4002400000F0B8F800F00CF906E0084800F0B6F8FA20400000F06EFD00F0C8FA002803D100F004FA0028F0D008BDC0468C2B000008B500F0FDF9002808D100F0B7FA0028ED
:4002800006D000F003FB002804D104E0002002E0002000E0012008BD38B51B4800F08EF8002000F07FF8012000F002FB00F0E0F9002803D100F00AFB0028F7D000F006FBBC
:4002C000002817D10120002100F016F9041C0D1C00F0DEFA002802D10C4800F06FF80C4800F06CF8201C291C00F078F8094800F021FD08E0022000F047F8074800F05EF840
:40030000044800F017FD38BD982B0000A82B0000BC2B000088130000C82B000008B5034800F04CF80A2000F02FF808BDD42B000008B562B6FFF77CFF01E0FFF7EFFFFFF72B
:4003400097FF0028F9D0FFF7A7FFF8E708B500F05BFEC043C0B200F04BFE022000F0CCFE08BDC04608B500F0ABFE054B1B78002B02D1044800F02EFE0122014B1A7008BDC3
:400380004C0600204D03000008B54100FA20800001F0C4FC00F056FE00F07AFE00F05AFE08BDC04610B5041C00F036FE201C00F01FFE10BD08B500F0A1FF08BD10B5041C5D
:4003C0000020002100F0AAFF201C00F03DFF024800F03AFF10BDC046E42B0000F0B589B0041C0D1C00F046F8071C201C291C00F053F80390201C291C00F060F8061C201C78
:40040000291C00F065F80096019004AA101C07493A1C039B01F0A0FF0120002100F07EFF04A800F011FF09B0F0BDC046F02B000008B50A4A138801339BB21380FA22920005
:40044000934204D10022054B1A8000F085FF042000F074FD01F09CFB08BDC0466801002008B501F0EBF8024801F084FB08BDC0463104000030B50C1C89068A0F0023910FAE
:40048000900012184B4192185B410F252C40201C00218018594130BD30B541004A0F0023950F940012196B4192185B410001040F0025201C291C8018594130BD43025B0F15
:4004C0009A00D3185B000003000F18187047C04603041B0F64225A4303051B0F9900CB185B009B180F221040C0187047014B18887047C04668010020F0B54F464646C0B491
:4005000083B0804601F010FA061C8702BF0FBB00DF197F0003031B0FFF1845046D0FAB005D196D0003051B0FED184406640FA3001C1964000F230340E418FFF7D7FF019084
:40054000730201D5012300E000234246D201464989469B011A439046381C00210A22002301F06EFC0001434603439846381C00210A22002301F064FC434613439846281C9E
:4005800000210A22002301F05BFC030909071943070743460B439846281C00210A22002301F04EFC110A1B060B431206174342461A439046201C00210A22002301F040FCC9
:4005C000030B0905194300053D1C054343460B439846201C00210A22002301F031FC110C1B040B4317042F4342461A439046019E301C00216422002301F022FC041C0D1C7F
:40060000030D090319432003074343460B4398460196301C00210A22002301F011FCA30F9C46AB0066463343A200A4185D4124196D41001BA941030E0902194300020743BE
:4006400044460C43019800210A22002301F0F8FB381C1043211C19434B469860D96003B00CBC90469946F0BD680100200120704708B501F073F9002801D1013000E000202F
:4006800008BDC04608B5024801F070F908BDC0465D070000F8B5041C0E1C264F381C264901F05AFE254801210122524200F052F9051C301C01F07FFE011C301C2A1C00F06C
:4006C00049F9021C1E48012100F044F9C2431D4D281C1D4901F040FE201C1C49022201F029FE201C391C01F059FE201C01F063FE20181749022201F01DFE201C311C01F017
:400700004DFE201C01F057FE20181249022201F011FE201C291C01F041FE201C01F04BFE20180D49022201F005FE201C01F043FEC0B2F8BDEC050020FC2B0000042C00006B
:40074000082C0000380600200C2C0000142C0000182C00001C2C0000202C000010B58EB001F00AF9C4B2FF23184001F019FA0022174B1A701748211C00F01EF9021E06D005
:4007800001A8154901F0E8FD01A801F041FA11480F49124A00F024FA002814D00C4B1B780A2B10D101A80D490022FFF773FF0C4801F02EFA01A801F02BFA0A4801F028FA46
:4007C00001A801F0EFF80422074B1A600EB010BD2106002000060020242C0000B4050020302C0000982C0000C00F0740F0B58FB01F4801F00DFA00270025002630E01D4C01
:40080000002200230092019300230293201C1A491A3201F0A1FD04A8211C321CFFF73AFF164801F0F5F904A801F0F2F9144801F0EFF904A801F0B6F800240CE0114B1B7871
:40084000142B04D1104801F0E3F901270125322000F070FA0134312C01D8002DEED00136002D01D1042ECAD9381C0FB0F0BDC046382C000024060020602C0000302C000088
:40088000982C000021060020702C0000012070470120704708B5054B1B68002B02D0013B024A1360022001F001F908BD7801002008B5044B186001F0E9F8034801F024F93F
:4008C00008BDC046780100209508000008B5054B1B68002B03D101F071F8012000E0002008BDC04678010020002010E0031C002207E0D90703D55B0808494B4000E05B0817
:400900000132072AF5DD8100054A8B500130FF28ECDD0122034B1A607047C0462083B8ED7C0100207C05002038B5051C0C1C074B1B68002B01D1FFF7D7FF6C402D0AFF23AE
:400940001C40A400024BE058684038BD7C0500207C01002070B5061C0D1C101C002403E0315DFFF7E1FF0134AC42F9D370BDC046031C413B052B02D83738C3B205E0031C61
:40098000303BDBB2092B00D9031C181C7047C0460F2801D8012000E00020704730B5002303804360002400258460C560002202744361037630BDC04638B5051C081CFFF7EA
:4009C000D7FF041C021E3C2A12D13B3A7D4B1A70281CFFF7E3FF00237B4A13707B4A13707B4A13707B4A13707B4A13700020E6E0744B1978092900D9DDE08B007749CB58BE
:400A00009F46FFF7C5FF002813D02B881C432C806D4A13780133DBB21370042B04D10222684B1A700020CAE02B881B012B800020C5E00022634B1A700120C0E0212804D121
:400A40001E3A604B1A700020B9E0281CFFF7A6FF00225C4B1A700220B1E0FFF799FF002812D06B681C436C60584A13780133DBB21370022B04D10422524B1A7000209EE057
:400A800024016C6000209AE0281CFFF787FF00224C4B1A70032092E03A2804D1353A494B1A7000208BE0281CFFF778FF0022454B1A70042083E0FFF76BFF002817D0AB68CE
:400AC0001C43EA68AC6043490B780133DBB20B70102B04D106223B4B1A7000206FE0210F13010B432401AC60EB60002067E0281CFFF754FF0022334B1A7005205FE0FFF7B1
:400B000047FF002813D02B7C1C43E4B22C74324A13780133DBB21370042B04D10722294B1A7000204BE024012C74002047E0281CFFF734FF0022234B1A7006203FE0402827
:400B400004D1383A1F4B1A70002038E0281CFFF725FF00221B4B1A70072030E0FFF718FF002812D06B691C436C61194A13780133DBB21370082B04D10922124B1A700020D8
:400B80001DE024016C61002019E0281CFFF706FF00220C4B1A70082011E03E2803D101232B76002003E0281CFFF7F8FE09200022044B1A7003E0281CFFF7F0FE0020C0B2DF
:400BC00038BDC04620060020E8050020B0050020E6050020E7050020E90500209C2C0000F0B583B0037E002B29D0151C0C1C071C154801F00DF87B681A2B02D0202B17D06D
:400C00001EE0124801F004F800230093281C1049202201F0A1FB0F4800F0FAFF281C00F0F7FF0D4800F0F4FF0A232370012607E00A4800F0EDFF14232370012600E00026B8
:400C4000301C03B0F0BDC046C42C0000D82C0000EC2C0000FC2C0000982C00000C2D0000FEE7C04608B5031C084A1068C318084A9A1A802A02DC054A136005E001F02EFBD6
:400C80000C2303600120404208BDC046CC000020F006002070B50F4E0F4D13E029686B68AC68002202E001C901C30432A242FAD1E868002202E0002102C304328242FAD173
:400CC0001035013E002EE9D101F00EFBFFF730FBFEE7C04601000000E02D000008B500230AE0032B03D89A000A49505800E00A4899000A4A885001332F2BF2D9FFF7EEF9DF
:400D00000022074B1A608022D205116801230B43136008BD00000000610C000000000020C000002008B50A1C002101F00CFB08BD01BE704710B5041C06E0084B186800F0F7
:400D400073FF074B9C46644480231B029C42F4D8024B5868604300F067FF10BDD00000200080FFFF08B5034B1B7A584300F05CFF08BDC046D0000020F0B557464E46C0B4EF
:400D800083B0041C00F05AFF0190E71E2D2F74D83F4B1B78DBB2A34208D33E4B1B78DBB29A463D4B1B78DBB2994631E03B4B1B78DBB2A34208D33A4B1B78DBB29A46394B5F
:400DC0001B78DBB2994623E0374B1B78DBB2A34208D3364B1B78DBB29A46354B1B78DBB2994615E0334B1B78DBB2A34208D3324B1B78DBB29A46314B1B78DBB2994607E05D
:400E00002F4B1B78DBB29A462E4B1B78DBB299462D4BDE5D2F2E09D92A2C07D919222B4B1A60052000F000FF192503E0274B1D683F231D40AE4206D2234BDA5D234B1A602D
:400E4000052000F0F1FE1F4B9C4664442378DBB21F4A13601F4B52461A601F4B4A461A600520FFF77FFFAE420AD9174BDA5D174B1A60052000F0D8FE02E00020FFF758FF6B
:400E8000019800F0DFFE03B00CBC91469A46F0BDC0F1FF0FC1F1FF0FC2F1FF0FC3F1FF0FC4F1FF0FC5F1FF0FC6F1FF0FC7F1FF0FC8F1FF0FC9F1FF0FCAF1FF0FCBF1FF0FB7
:400EC000CCF1FF0FCDF1FF0F302D00002CFF0B4028FF0B401CFF0B4020FF0B40034B1868C0231B02184000D00120704700010B4008B500F0A3FE044A1368C02109020B43DB
:400F0000136000F09FFE08BD00010B4010B500F095FE08490A68084B1A408024E40122430A600A6813408022120213430B6000F089FE10BD00010B40FF3FFFFF70B5061C41
:400F400000F07CFE041CFFF7C9FF002803D0FFF7DDFF012500E000250848331C0340084A106808490840184310601368012D01D1FFF7BEFF201C00F065FE70BD040404002B
:400F800010020B40FBFBFBFF8023014AD05070470000002010B5041C00F050FE044A1368C0218B43A4011C43146000F04BFE10BD10E400E080225202014B1A607047C04699
:400FC00000E100E080225202014B1A607047C04680E100E010B5041CFFF7F4FF201CFFF7D3FF0320FFF7D6FFFFF7E4FF10BDC04604490A68FB231A408000F73B1840104376
:401000000860704700000440024B18684007C00F7047C0460400044008B500F00FFE044A136801218B43136000F00CFE08BDC046000005400004000C014B18607047C046E4
:40104000080105400004000C014B18607047C04614010540024B18680004000C7047C046140105400004000C014B18607047C0460C01054038B5041C0D1C00F0DFFDAC4072
:40108000024B1C6000F0DEFD38BDC0460800054008B500F0D3FD064A116801230B43136000F0D0FD01201821FFF7E4FF08BDC04600000540014B18607047C046380105402A
:4010C00010B580225202094B1A600C22084B1A600220FFF7EFFF074C201CFFF7B3FF0020FFF7C0FF201CFFF7A5FF10BD000105402401054088130000014B18607047C046EB
:401100003001054010B50B4C23686022934323602368513A93432360226810231843104320600120FFF71EFE236810229343236010BDC0460002044038B5051C0E4C226809
:4011400020231343236023684022934323600020FFF708FE23680F2293432360236810202843184320600120FFF7FCFD236810229343236038BDC04600020440F8B5274A56
:4011800013687F218B43136025490B681B0B1B03244803430B60136820218B431360116840230B431360CA277F000020FFF7DAFD1A4C23681026334323600120FFF7D2FD94
:4011C000194B1D682368B34323600020FFF7CAFD08231D402368334323600120FFF7C2FD2368B3432360002D02D10A20FFF7BAFD013F002D01D0002FD7D1084B1A6840211D
:401200008A431A601A683F318A431A60044A13681B0B1B0305490B431360F8BD00020440080204404902000004020440B60D000010B5041CFFF7A2FF2009FFF77DFF0F202B
:401240002040FFF779FF10BD38B5051C0078012404E0FFF7EDFF285D0134E4B20028F8D138BDC04610B5041CFFF788FF2009FFF749FF0F202040FFF745FF10BD08B52820C2
:40128000FFF758FD0320FFF73DFF0520FFF752FD0320FFF737FF0F20FFF74CFD0320FFF731FF0120FFF746FD0220FFF72BFF0520FFF740FD0620FFF7D5FF0E20FFF7D2FF45
:4012C0002C20FFF7CFFF0820FFF7CCFF0120FFF7C9FF0C20FFF7C6FF0320FFF7C3FF0520FFF728FD08BDC04608B50C20FFF7BAFF0122014B1A7008BD8005002008B5064B40
:401300005B78002B04D1FFF7B9FF0122024B5A70FFF7EAFF08BDC0468005002008B501280BD0002804D002280CD003280FD012E08039C8B2FFF796FF0DE04039C8B2FFF750
:4013400091FF08E06C39C8B2FFF78CFF03E02C39C8B2FFF787FF08BD30B50B4B9A6819688C4662449A609A685B689A420BD307490C684D680122002312196B410A604B60F8
:401380000022014B9A6030BD8405002070060020F0B557464E464546E0B4804689468504AD0FFA2292006A43111C03051B0F64225343CD1803061B0F9A00D3185B00EB18F9
:4013C0000F2505405D1900260027574C1FE0A30705D1201C642100F027FD002908D1201CC821490000F020FD002903D1012302E0012300E00023002B04D04C4A0023B6188D
:401400005F4103E04A4A0023B6185F410134AC42DDD34346DB00DB0F9A00D3185B0042461201120F9B185A1E52004249525A9246022B18D9AB0705D1281C642100F0F4FC6C
:40144000002908D1281CC821490000F0EDFC002903D1012302E0012300E00023002B02D001239C46E244344C514661430A1C0023B6185F41C020800342460240120D930077
:401480009B185B00F021090342460A40120C9B185C432A4D62190023B6185F414B4603401B0D9A00D3185B004A461140090C591880231B04134000D00123002B0AD04B465A
:4014C0005B0201D5012300E00023002B02D00B2900D80C31E12000014843021C0023B6185F414B465B045B0F9A00D3185B004A461205120F9B181901C91A8A000023B618E3
:401500005F414B465B065B0F9A00D21852000F2349460B40D0180021801979411CBC90469946A246F0BDC046B20700000085E2018033E101602D00008051010080AEFEFF09
:40154000F0B583B001900C1C8F02BF0FBB00DB195B000F033F0FDF19CE00F60FB3009B195B000E01360F9E198904890FFA2292004A43101C23051B0F64225343C11822067E
:40158000120F93009B185B00CB180F2222409D18201C0199FFF7FCFE164B18605960164B5C60019A1A60022E01D80C36013D01361A2070430A2100F0B1FB3F187F19A808A1
:4015C0003F18281C642100F0A9FB4300181840003F18281CC821490000F0A0FB3818072100F022FC002900D10731034B996003B0F0BDC046700600205406002008B50122D7
:40160000074B1A700023074AD360074AD360074A1370074A136007480749FFF791FF08BD5006002084050020540600206806002064060020374390001620070708B5034B17
:401640001B78002B01D1FFF7D9FF08BD5006002038B50F4B1B18DD7D022817D10C1C8B0705D1081C642100F0DFFB002908D1201CC821490000F0D8FB002903D1012302E0B2
:40168000012300E00023002B00D00135281C38BD602D0000F0B55F4656464D464446F0B485B08346141C1D1C9A4B9B4A904620E0009A019BA41A9D4101239C46E0444346D9
:4016C0009B0705D14046642100F0AEFB002908D14046C821490000F0A7FB002903D1012302E0012300E00023002B01D08B4B00E0884B009300230193002DD9D1009A019B7C
:401700009D4201D19442D3D801204146FFF7A0FF834B5843012399460AE0A41BBD4101239C46E14448464146FFF792FF7C4B5843061C0027AF42F0D1A042EED9201C291CD9
:40174000774A002300F07CFB754941430A1C0023AB4203D1A14201D900220023A41A9D41431C9A46201C291CE1221201002300F067FB0090E121090141430E9B002B13D012
:40178000002D03D109D1674B9C4206D9009B0C2B01D90C380090012707E0009B002B01D10C330093002700E000270A1C0023AB4203D1A14201D900220023A41A9D41201CD4
:4017C000291C3C22002300F03BFB061C0101891B8A000023AB4203D1A24201D900220023A41A9D4148460A2100F098FA050748460A2100F019FB09060D4350460A2100F014
:401800008DFA0005054350460A2100F00DFB09040D434046FA21890000F080FA000305434046FA21890000F0FFFA0391081C642100F074FA000205430398642100F0F4FAE9
:401840000391081C0A2100F069FA0001054303980A2100F0E9FA0D435B465D600E9BDB05BD051D43009F381C0A2100F057FA00050543381C0A2100F0D7FA0F042F43301C3A
:401880000A2100F04BFA05033D43301C0A2100F0CBFA09020D43201C0A2100F03FFA00010543201C0A2100F0BFFA0D435B461D604B46022B05D80C239C46E1440D3B9C4667
:4018C000E044484601301A2358430A2100F026FA5044404443469C0804194046642100F01DFA43001818400024184046C821490000F014FA2018072100F096FA002900D1FF
:4019000007315B46996005B03CBC90469946A246AB46F0BD8033E101B20700000085E20180510100C1A8000030B583B0084B1A685B68084C084DE868002112184B4101314A
:401940000091201CFFF7A6FE206803B030BDC046700600205406002084050020024B18680006C00F7047C04604000440014B58607047C0469405002008B500F083F90028A7
:4019800002D000F065F900E00020054B1A68D8239B001A4203D01A1C014B1A60002008BDC00F074038B5051C002402E000F07EF90134285D0028F9D138BDC04608B500F0AA
:4019C0003DF9044A136802218B43136000F03AF908BDC046000005400004000C014B18607047C046480105400004000C014B18607047C046540105400004000C014B186033
:401A00007047C0464C01054038B5041C0D1C00F015F9AC40024B1C6000F014F938BDC0460800054008B500F009F9064A116802230B43136000F006F902201821FFF7E4FFA8
:401A400008BDC04600000540014B18607047C0467801054010B50022094B1A600C32094B1A600220FFF7F0FF074C201CFFF7BCFF201CFFF7C1FF0020FFF7AEFF10BDC04687
:401A8000400105406401054060EA000008B5064B1B78002B04D1FFF7DDFF0122024B1A70FFF7C0FF08BDC046A0050020014B18607047C046700105408423014AD0507047FA
:401AC0000000002010B5041C00F0B8F8044A1168044B0B40A4031C43146000F0B3F810BD10E400E0FF3FFFFF80229202014B1A607047C04600E100E080229202014B1A6078
:401B00007047C04680E100E010B5041CFFF7F4FF201CFFF7D1FF0320FFF7D4FFFFF7E4FF10BDC046014B58667047C0460000002010B5041C00F082F8044A1168044B0B40A8
:401B4000A4031C43146000F07DF810BD08E400E0FF3FFFFF80229200014B1A607047C04600E100E080229200014B1A607047C04680E100E010B5041CFFF7F4FF201CFFF741
:401B8000D1FF0320FFF7D4FFFFF7E4FF10BDC04680229200014B1A607047C04680E200E0144B1A68144B1B689A4208D1134B1B680F221340082B02D0114B186019E00D4BBD
:401BC0001A680132102A00D100220B4B1B689A42FBD002230B490B60C0B20B49885405490A600A4A1268134203D1084A11680B43136070477C060020800600200802064073
:401C000040020640800F0640A0060020880F064038B5051C002402E0FFF7C2FF0134285D0028F9D138BDC0460230800804D0C0460138FDD1C046C046C0467047EFF310805C
:401C400072B6704780F310887047C046C046C046094B1A68094B1B689A420BD0074B1B680133112B00D10023054AD05CC0B2034A136000E000207047E0060020B0060020D4
:401C8000CC060020074B1B68074A1268934203D3054A1068181A04E0034A10681B1A1133181C7047E0060020B0060020144B1A68144B1B689A4208D1134B1B680F22134028
:401CC000082B02D0114B186019E00D4B1A680132102A00D100220B4B1B689A42FBD002230B490B60C0B20B49885405490A600A4A1268134203D1084A11680B4313607047E0
:401D0000B8060020E40600200802074040020740800F0740BC060020880F0740002243088B4274D303098B425FD3030A8B4244D3030B8B4228D3030C8B420DD3FF22090210
:401D400012BA030C8B4202D31212090265D0030B8B4219D300E0090AC30B8B4201D3CB03C01A5241830B8B4201D38B03C01A5241430B8B4201D34B03C01A5241030B8B426F
:401D800001D30B03C01A5241C30A8B4201D3CB02C01A5241830A8B4201D38B02C01A5241430A8B4201D34B02C01A5241030A8B4201D30B02C01A5241CDD2C3098B4201D328
:401DC000CB01C01A524183098B4201D38B01C01A524143098B4201D34B01C01A524103098B4201D30B01C01A5241C3088B4201D3CB00C01A524183088B4201D38B00C01A83
:401E0000524143088B4201D34B00C01A5241411A00D20146524110467047FFE701B5002000F00CF802BDC0460029F7D003B5FFF775FF0EBC4243891A1847C0467047C046BC
:401E4000002B11D1002A0FD1002900D1002802D00021C943081C07B4024802A14018029003BDC046D9FFFFFF03B4684601B5029800F022F8019B9E4602B00CBC7047C04662
:401E8000F0B583B0161C1F1C0090019100F058F8041C0D1C221C2B1C301C391C00F026F8009A019B121A8B410899201C0A604B60291C03B0F0BDC046F0B5141C83B01D1CF2
:401EC0000090019100F034F9221C2B1C061C0F1C00F00CF8009A019B121A8B410899301C0A604B60391C03B0F0BDC046F0B54F46464605042D0C2C1CC0B41704160C3F0CA6
:401F00009946030C7C4375435F4373437D19260CAD199C46AF4203D980235B029846C4444B465143434324042E0C240C2D0466442C1959188919201C0CBC90469946F0BDEB
:401F4000F0B544465F4656464D46F0B41C1C85B0002900DAA9E00F1C0021061C8846101C191C002C00DA97E0341C3D1C82468946B94273D870D04946504600F085F9834685
:401F8000391C301C00F080F95B46181A031C8346203B9C4600D59CE00023002251460092019363469940019151468140019B0091BB4200D983E000D17EE0009A019B341C45
:401FC0003D1CA41A9D416346002B00DA9AE0002600270296039701369E400396012686400296002800D171E00099019AD30799464B464E081E435708002301220CE0AF4211
:4020000001D1A6420AD8A41BBD4124196D410138A4185D41002806D0AF42F0D9013824196D410028F8D12022029E039F5B46524236196F4199185AD4281CC8402C1C5B4630
:40204000DC40002968DB041C8C40231C59468840021CB61A9F4103E0B0428CD90026002741464B1E9941002300910193009A019B002554429D41331C6340181C3B1C6B40E8
:40208000191C009B019CC018614105B03CBC90469946A246AB46F0BD4346DB430C1C9846131C00215842A1415EE7002746428F4101214942884652E7B14200D87DE700260B
:4020C000002702960397002800D08DE7029E039FC6E720215346091ACB400022191C0023009201934B4683400B4301935CE75A4620239B1A2A1C9A40201C131C5A46D04038
:4021000018439BE720260027331A0026029603970127DF40039761E75B4620215D46C91A031CAC40CB40191C231C0B438EE7C046F0B545464E465746E0B4041C82B00D1C5C
:40214000914698468B4262D85FD04146484600F09BF8291C061C201C00F096F82023311A5B428A46C81865D44B4683401F1C4B468B401E1CAF4258D855D0A41BBD41002857
:4021800000DA77E0002200230092019301328240019201238B40009300293CD0FB079846404672087B080243012600270CE0AB4201D1A2420AD8A41A9D4124196D4101391C
:4021C000A4197D41002906D0AB42F0D9013924196D410029F8D120220098019953465242001969419E183AD42F1CF7405346DD40002E29DB3C1CB440231C5446A7403A1CA4
:40220000801A99410090019105E082429DD900230024009301940098019902B01CBC90469946A246F0BDA342A7D90022002300920193B1E720224B46521AD3401A1C4346FB
:402240008B401F1C174392E7534620245646E41A3B1CB540E3401C1C2B1C2343CDE7524620239B1A2A1C9A40271C131C5246D7401F43BBE720230022581A00230092019311
:402280000132C240019284E710B5002903D100F007F8203002E0081C00F002F810BDC0461C2101231B04984201D3000C10391B0A984201D3000A08391B09984201D30009AB
:4022C000043902A2105C40187047C04604030202010101010000000000000000014B18687047C046400100200E4B70B500251E1C0D4CE41AA410A54204D0AB00F35898470B
:402300000135F8E700F05AFD084B00251E1C084CE41AA410A54204D0AB00F35898470135F8E770BDC82D0000C82D0000C82D0000D02D0000002310B5934203D0CC5CC4540B
:402340000133F9E710BD031C8218934202D019700133FAE7704700000EB410B59DB002A9029008610B48822488604861012040421FABC881084804CBA400006801938C8141
:4023800000F080F80023029A13701DB010BC08BC03B01847FFFFFF7F40010020021C10B51378002B01D00132FAE7CC5CD4540133002CFAD110BD0023C25C0133002AFBD1F6
:4023C000581E7047F0B58E6885B0071C0C1C03920193B34245D390238A89DB001A423DD003250969236801985B1A029363695D43EB0F5D19029B6D1001331B189D4200D27F
:402400001D1C381C53050FD5291C00F01DFB061E13D0029A2169FFF78DFFA289184B134080221343A38111E02A1C00F065FB061E0CD1381C216900F0C1FA0C234022012017
:402440003B60A38940421343A38117E0029B2661F61826606561019EED1AA560019BB34200D2019E321C2068039900F092FA0020A3689B1BA36023689E19266005B0F0BD7B
:402480007FFBFFFFF0B59FB0029005938B890E1C171C1B0610D50B69002B0DD1402100F0D3FA30603061002804D10C23029A01381360D0E040237361002306AD6B61203303
:4024C0006B761033AB763C1C2378002B03D1E31B049312D003E0252BF9D00134F4E7049B0298311C3A1CFFF76DFF431C00D1ACE06A69049B944663446B612378002B00D1D2
:40250000A3E00122002352426A6002A95432521801342B60EB60AB601370AB654F4F2178381C052200F02AFA002808D0C01B01278740381C2B68013418432860EEE72B6839
:40254000DA0604D55322202102A8121811701A0704D553222B2102A81218117022782A2A01D0099B0EE0059A111D12680591002A01DB099204E05242EA60022213432B60F1
:40258000013409E02278303A092A04D80A214B4301349B18F6E7099323782E2B18D163782A2B09D1059B02341A1D1B680592002B0DDA01235B420AE0002301342278303AA9
:4025C000092A04D80A214B4301349B18F6E70793234F2178381C032200F0D0F9002807D0C01B40278740381C2B6801341843286021781C480622671C297600F0BFF9002859
:4026000012D0194B002B06D10722059B073393430833059314E005AB00930298291C321C124B00E000BF07E005AB00930298291C321C0E4B00F08AF80390039B013304D0EB
:402640006B69039A9B186B613DE7B3890B985B0601D5012040421FB0F0BDC046862D00008C2D0000902D000000000000C5230000F7B5171C01930A698B6800900C1C934294
:4026800000DA131C221C3B6043321278002A01D001333B6023689B0602D53B6802333B60062523681D401ED0231C43331B785A1E9341226892061CD53020E1184031C8705F
:4026C000211C5A1C45310978A21840320233D1700FE0221C0123009801991932089EB047431C0ED00135E3683A689B1A9D42F0DBDAE7221C009801994332089DA847431CCB
:4027000002D10120404220E006232068E1683A6803400025042B03D18D1AEB43DB171D40A3682269934201DD9B1AED180027AF420ADA221C0123009801991A32089EB0477C
:40274000431CDED00137F2E70020FEBDF0B58BB006920A1C43320793059004920A7E0C1C109B6E2A00D1A8E011D8632A22D009D8002A00D1B2E0582A00D0C2E045310A7082
:402780007C4A4FE0642A1DD0692A1BD0B9E0732A00D1A7E009D86F2A29D0702A00D0B0E0202209680A43226037E0752A1FD0782A33D0A6E00E1C1A684236111D1960136898
:4027C0003370A1E021681A68080606D4490604D5111D19600023D55E02E0111D19601568002D3BDA2D23049A6D42137036E021681A68080606D4490604D51568111D1960E0
:40280000ADB202E0111D196015685A4B227E03930A276F2A1DD108271BE0221C782145321170554A19680392081D226818600D68100602D4500600D5ADB2D30702D52023EC
:402840001A4322601027002D03D1202322689A432260231C002243331A7002E00A27454B03936368A360002B03DB0422216891432160002D02D1049E002B0ED0049E281C0F
:40288000391CFFF7D1FA039B013E5B5C281C3370391CFFF743FA051EF1D1082F09D12368DB0706D563682269934202DC3023013E3370049B9B1B23612BE009681A6808069E
:4028C00007D4490605D5111D19601368A28A1A8004E0111D1960136862691A600023049E236116E01A68111D196016680021301C626800F043F8002801D0801B606063683A
:4029000003E0261C42363270012323610023049A1370079B05980093211C069B09AAFFF7A7FE431C02D10120404221E0236905980699321C079DA847431CF4D023689B079F
:4029400005D4099BE068984212DA181C10E00025E368099A9B1A9D42F3DA221C0123059806991932079EB047431CDCD00135EFE70BB0F0BD972D0000A82D0000C9B2821882
:40298000904204D003788B4202D00130F8E70020704710B5814208D28B18984205D29B1A013A09D3995C8154FAE70023934203D0CC5CC4540133F9E710BD000030B5002949
:4029C0003ED004390B68002B00DAC9181D4A1368141C002B02D14B60116031E099420DD208680A189A4203D11368C3180B6053684B60216024E08A4203D8131C5A68002A8C
:402A0000F9D11D685C198C420BD10968691858181960904214D110685268091819605A600EE08C4202D90C23036009E008680C18944203D114685268001908604A605960A6
:402A400030BDC046A8050020032370B5CC1C9C430834051C0C2C01D20C2405E0002C03DA0C2300202B6042E08C42F9D3204A1368101C191C002913D00A68121B0DD40B2A61
:402A800002D90A608B181FE08B4202D15A6802601BE04A685A600B1C17E00B1C4968E9E7144E3368002B03D1281C00F04BF83060281C211C00F046F8031C421CD0D003224A
:402AC000C61C964386420AD11C60181C07210B301A1D8843821A0AD05142995007E0311A281C00F02FF8431CBAD0331CECE770BDA8050020A4050020F8B5061C0C1C151CEE
:402B0000002904D1111CFFF79FFF041C18E0002A03D1FFF753FF2C1C12E000F025F8A8420ED2301C291CFFF78FFF071E07D0211C2A1CFFF7FFFB301C211CFFF73FFF3C1CCE
:402B4000201CF8BD38B50023064C051C081C2360FEF788F8431C03D12368002B00D02B6038BDC046E80600200B1F1A68101F002A04DA891804390B68D01804387047000069
:402B800000000000BCF3FF7F010000004572726F7220696E6974000053797374656D207265616479000000004572726F72207265636F72642074696D6500000074696D6528
:402BC00020736B696572000054696D65206F7574000000004572726F72207374617274656400000020202020202020202020000025693A25693A25693A2569002530345868
:402C000000000000410000004600000025303858000000003C00000021000000400000003E0000004552524F523A2025640D0A00446174613A0D0A0053656E64696E672016
:402C40005061636B657420466F72205265616479205374617274204D6F64756C650D0A00253032583A253031364C582530345800524541445920524553504F4E5345205205
:402C8000454349455645442E204841564520434F4E4E454354494F4E0D0A0000B60B0000020A00003C0A00005A0A0000980A0000B60A0000FE0A00003E0B00005C0B0000F5
:402CC0009A0B00005061636B65742052656369657665640D0A0000005061636B6574204F6B2053656E6465640D0A0000253032583A25303136582530345800004461746135
:402D00002053656E6465643A200000005061636B6574204F6B2052656369657665640D0A0000000000300F40000400400F400004030405060708090A0B0C0E0F1011121372
:402D40001415161718191B1C1D1E1F2021222325262728292A2B2E2F303132333435000000001F003B005A0078009700B500D400F300110130014E011F1C1F1E1F1E1F1F4D
:402D80001E1F1E1F4300232D302B2000686C4C006566674546470030313233343536373839414243444546003031323334353637383961626364656600000000F8B5C046B0
:402DC000F8BC08BC9E467047F9010000DD0C0000F8B5C046F8BC08BC9E467047D1010000F02D0000C800002080000000A805000000000000F00600200000E02EC05D0000D2
:402E00001800000000366E010000000000000000000000000000000000000000000000000000000000000000842D0000000000000000000000000000000000000000000024
:402E400000000000000000000000000000000000000000000000000000000000000000000000000000000000E0000020000000000000000000000000000000000000000052
:402E80000000000000000000000000000000000000000000000000000000000000000000000000000000000000000000000000000000000000000000000000000000000012
:402EC00000000000000000000000000000000000000000000000000000000000000000000000000000000000000000000000000000000000000000000000000000000000D2
:402F00000000000000000000000000000000000000000000000000000000000000000000000000000000000000000000000000000000000000000000000000000000000091
:402F40000000000000000000000000000000000000000000000000000000000000000000000000000000000000000000000000000000000000000000000000000000000051
:0200000490303A
:02000000F753B4
:0200000490402A
:200000000000000000000000000000000000000000000000000000000000000000000000E0
:0200000490501A
:0C000000000204C81193110104D708E6A7
:0200000490600A
:0100000001FE
:00000001FF