:400000000010002011000000F1020000F102000008B500F087F9C04638B5134C23688022D20213432360182000F00AFA22680F4B134023600E4A0F4B1A6010220E4B1A6029
:40004000802212060D4B1A60002525600C4A0D4B1A6009200C4900F0BFF9092000F0B0F90A4B1D6038BDC04600010B40FFFFFBFF0600008004010B402002024008010B409B
:40008000BF5D008000000240510600000C020B4010B572B6002410E01F4863001A195200821891881B195B001A5AC31858880004104300F07FF90134E4B2012CECD9EE2265
:4000C0001202164B1A6099231B04154A1360154A1360154A1360154B197802220A431A70134802783C218A4328390A430270197816220A431A7004220E4B1A600E4A0F4B6A
:400100001A600F4A0F4B1A60D82212010E4B1A60FFF782FF10BDC046801700000C00014000500F4020500F4030500F4000700F4001700F400000044080012000080004402D
:40014000B66D1B00080204400803044010B5064C2378002B07D1054B002B02D0044800E000BF0123237010BD48010020000000005C17000008B5084B002B03D007480849A9
:4001800000E000BF07480368002B00D108BD064B002BFBD09847F9E7000000005C1700004C010020C80000200000000043045B0F9A00D3185B000005000FC0187047C0461D
:4001C00008B500F04BF8022000F05AF800F06EF800F080F808BDC04608B500F07FF8002801D0002000E0012008BDC04600B585B0002000F053F868460449054A00F0A6FEF6
:40020000684600F057F805B000BDC04660170000AD01000008B5034800F04CF80A2000F02FF808BD6417000008B562B6FFF7C8FF01E0FFF7EFFFFFF7CFFF0028F9D0FFF775
:40024000D5FFF8E708B500F095FAC043C0B200F085FA022000F006FB08BDC04608B500F0E5FA054B1B78002B02D1044800F068FA0122014B1A7008BDA001002045020000FC
:4002800008B54100FA20800000F09AFD00F090FA00F0B4FA00F094FA08BDC04610B5041C00F070FA201C00F059FA10BD08B500F0DBFB08BD10B5041C0020002100F0E4FBF6
:4002C000201C00F077FB024800F074FB10BDC0467417000008B500F04BFD08BD08B500F051FD002801D1013000E0002008BDC046FEE7C04608B5031C084A1068C318084AF0
:400300009A1A802A02DC054A136005E000F0EAFD0C2303600120404208BDC046CC000020D801002070B50F4E0F4D13E029686B68AC68002202E001C901C30432A242FAD15E
:40034000E868002202E0002102C304328242FAD11035013E002EE9D100F0CAFDFFF764FFFEE7C046010000003C18000008B500230AE0032B03D89A000A49505800E00A4828
:4003800099000A4A885001332F2BF2D9FFF780FE0022074B1A608022D205116801230B43136008BD00000000F102000000000020C000002008B50A1C002100F0BFFD08BDB9
:4003C0001F2318401E3B8340181C014B1860704700E100E001BE704738B5041C0D1C1F2802D90020FFF7F6FFA400034B9C4664442068256038BDC0464000002010B5041C35
:4004000006E0084B186800F0C7FC074B9C46644480231B029C42F4D8024B5868604300F0BBFC10BDD00000200080FFFF08B5034B1B7A584300F0B0FC08BDC046D0000020E6
:40044000F0B557464E46C0B483B0041C00F0AEFC0190E71E2D2F74D83F4B1B78DBB2A34208D33E4B1B78DBB29A463D4B1B78DBB2994631E03B4B1B78DBB2A34208D33A4B91
:400480001B78DBB29A46394B1B78DBB2994623E0374B1B78DBB2A34208D3364B1B78DBB29A46354B1B78DBB2994615E0334B1B78DBB2A34208D3324B1B78DBB29A46314B08
:4004C0001B78DBB2994607E02F4B1B78DBB29A462E4B1B78DBB299462D4BDE5D2F2E09D92A2C07D919222B4B1A60052000F054FC192503E0274B1D683F231D40AE4206D2CD
:40050000234BDA5D234B1A60052000F045FC1F4B9C4664442378DBB21F4A13601F4B52461A601F4B4A461A600520FFF77FFFAE420AD9174BDA5D174B1A60052000F02CFCD2
:4005400002E00020FFF746FF019800F033FC03B00CBC91469A46F0BDC0F1FF0FC1F1FF0FC2F1FF0FC3F1FF0FC4F1FF0FC5F1FF0FC6F1FF0FC7F1FF0FC8F1FF0FC9F1FF0F04
:40058000CAF1FF0FCBF1FF0FCCF1FF0FCDF1FF0F8C1700002CFF0B4028FF0B401CFF0B4020FF0B40034B1868C0231B02184000D00120704700010B4008B500F0F7FB044AAF
:4005C0001368C02109020B43136000F0F3FB08BD00010B4010B500F0E9FB08490A68084B1A408024E40122430A600A6813408022120213430B6000F0DDFB10BD00010B4066
:40060000FF3FFFFF70B5061C00F0D0FB041CFFF7C9FF002803D0FFF7DDFF012500E000250848331C0340084A106808490840184310601368012D01D1FFF7BEFF201C00F03C
:40064000B9FB70BD0404040010020B40FBFBFBFF10B5244B1B685B0715D5234B1B685B070ED5224BD969042001401F4C22688A432260DA698243DA611B69002B00D098470E
:400680000420FFF7BFFF174B1B685B0518D5164B1B685B0510D5154BD9698022D2001140114802688A430260D969114A0A40DA615B69002B00D098478020C000FFF7A2FFF7
:4006C000084B1B685B030CD5074B1B685B0304D5064B9B69002B00D098478020C002FFF791FF10BD10020B40E000002064010020FFFBFFFF8023014AD05070470000002036
:4007000010B5041C00F052FB044A1368C0218B43A4011C43146000F04DFB10BD10E400E080225202014B1A607047C04600E100E080225202014B1A607047C04680E100E0DA
:4007400010B5041CFFF7F4FF201CFFF7D3FF0320FFF7D6FFFFF7E4FF10BDC04604490A68FB231A408000F73B184010430860704700000440024B18684007C00F7047C04676
:400780000400044008B500F011FB044A136801218B43136000F00EFB08BDC046000005400004000C014B18607047C046080105400004000C014B18607047C0461401054039
:4007C000024B18680004000C7047C046140105400004000C014B18607047C0460C01054038B5041C0D1C00F0E1FAAC40024B1C6000F0E0FA38BDC0460800054008B500F0AD
:40080000D5FA064A116801230B43136000F0D2FA01201821FFF7E4FF08BDC04600000540014B18607047C0463801054010B580225202094B1A600C22084B1A600220FFF7A1
:40084000EFFF074C201CFFF7B3FF0020FFF7C0FF201CFFF7A5FF10BD000105402401054088130000014B18607047C0463001054010B50B4C23686022934323602368513A01
:4008800093432360226810231843104320600120FFF7CCFD236810229343236010BDC0460002044038B5051C0E4C226820231343236023684022934323600020FFF7B6FDC8
:4008C00023680F2293432360236810202843184320600120FFF7AAFD236810229343236038BDC04600020440F8B5274A13687F218B43136025490B681B0B1B03244803437C
:400900000B60136820218B431360116840230B431360CA277F000020FFF788FD1A4C23681026334323600120FFF780FD194B1D682368B34323600020FFF778FD08231D40F3
:400940002368334323600120FFF770FD2368B3432360002D02D10A20FFF768FD013F002D01D0002FD7D1084B1A6840218A431A601A683F318A431A60044A13681B0B1B030E
:4009800005490B431360F8BD00020440080204404902000004020440B60D000010B5041CFFF7A2FF2009FFF77DFF0F202040FFF779FF10BD38B5051C0078012404E0FFF721
:4009C000EDFF285D0134E4B20028F8D138BDC04610B5041CFFF788FF2009FFF749FF0F202040FFF745FF10BD08B52820FFF706FD0320FFF73DFF0520FFF700FD0320FFF7EC
:400A000037FF0F20FFF7FAFC0320FFF731FF0120FFF7F4FC0220FFF72BFF0520FFF7EEFC0620FFF7D5FF0E20FFF7D2FF2C20FFF7CFFF0820FFF7CCFF0120FFF7C9FF0C20E5
:400A4000FFF7C6FF0320FFF7C3FF0520FFF7D6FC08BDC04608B50C20FFF7BAFF0122014B1A7008BD8401002008B5064B5B78002B04D1FFF7B9FF0122024B5A70FFF7EAFF85
:400A800008BDC0468401002008B501280BD0002804D002280CD003280FD012E08039C8B2FFF796FF0DE04039C8B2FFF791FF08E06C39C8B2FFF78CFF03E02C39C8B2FFF7A3
:400AC00087FF08BDF0B557464E464546E0B4804689468504AD0FFA2292006A43111C03051B0F64225343CD1803061B0F9A00D3185B00EB180F2505405D1900260027574C2C
:400B00001FE0A30705D1201C642100F0DFF9002908D1201CC821490000F0D8F9002903D1012302E0012300E00023002B04D04C4A0023B6185F4103E04A4A0023B6185F4124
:400B40000134AC42DDD34346DB00DB0F9A00D3185B0042461201120F9B185A1E52004249525A9246022B18D9AB0705D1281C642100F0ACF9002908D1281CC821490000F0C0
:400B8000A5F9002903D1012302E0012300E00023002B02D001239C46E244344C514661430A1C0023B6185F41C020800342460240120D93009B185B00F021090342460A40F6
:400BC000120C9B185C432A4D62190023B6185F414B4603401B0D9A00D3185B004A461140090C591880231B04134000D00123002B0AD04B465B0201D5012300E00023002B9B
:400C000002D00B2900D80C31E12000014843021C0023B6185F414B465B045B0F9A00D3185B004A461205120F9B181901C91A8A000023B6185F414B465B065B0F9A00D218B0
:400C400052000F2349460B40D0180021801979411CBC90469946A246F0BDC046B20700000085E2018033E101BC1700008051010080AEFEFFF0B583B001900C1C8F02BF0F1C
:400C8000BB00DB195B000F033F0FDF19CE00F60FB3009B195B000E01360F9E198904890FFA2292004A43101C23051B0F64225343C1182206120F93009B185B00CB180F2261
:400CC00022409D18201C0199FFF7FCFE164B18605960164B5C60019A1A60022E01D80C36013D01361A2070430A2100F069F83F187F19A8083F18281C642100F061F84300DF
:400D0000181840003F18281CC821490000F058F83818072100F0DAF8002900D10731034B996003B0F0BDC046C8010020AC01002008B50122084B1A700023084AD360084AB0
:400D4000D360084A1370084A1360802000040749FFF790FF08BDC046A801002088010020AC010020C0010020BC0100207019010108B5034B1B78002B01D1FFF7D9FF08BDAC
:400D8000A8010020024B18680006C00F7047C04604000440000000000230800804D0C0460138FDD1C046C046C0467047EFF3108072B6704780F310887047C046C046C0463A
:400DC000002243088B4274D303098B425FD3030A8B4244D3030B8B4228D3030C8B420DD3FF22090212BA030C8B4202D31212090265D0030B8B4219D300E0090AC30B8B4282
:400E000001D3CB03C01A5241830B8B4201D38B03C01A5241430B8B4201D34B03C01A5241030B8B4201D30B03C01A5241C30A8B4201D3CB02C01A5241830A8B4201D38B0242
:400E4000C01A5241430A8B4201D34B02C01A5241030A8B4201D30B02C01A5241CDD2C3098B4201D3CB01C01A524183098B4201D38B01C01A524143098B4201D34B01C01AB7
:400E8000524103098B4201D30B01C01A5241C3088B4201D3CB00C01A524183088B4201D38B00C01A524143088B4201D34B00C01A5241411A00D20146524110467047FFE713
:400EC00001B5002000F00CF802BDC0460029F7D003B5FFF775FF0EBC4243891A1847C0467047C046014B18687047C046440100200E4B70B500251E1C0D4CE41AA410A54280
:400F000004D0AB00F35898470135F8E700F084FC084B00251E1C084CE41AA410A54204D0AB00F35898470135F8E770BD2418000024180000241800002C180000031C821848
:400F4000934202D019700133FAE770470EB410B59DB002A9029008610B48822488604861012040421FABC881084804CBA400006801938C8100F06CF80023029A13701DB08C
:400F800010BC08BC03B01847FFFFFF7F44010020F0B58E6885B0071C0C1C03920193B34245D390238A89DB001A423DD003250969236801985B1A029363695D43EB0F5D19AF
:400FC000029B6D1001331B189D4200D21D1C381C53050FD5291C00F025FB061E13D0029A216900F0BCFAA289184B134080221343A38111E02A1C00F06DFB061E0CD1381CED
:40100000216900F0C9FA0C23402201203B60A38940421343A38117E0029B2661F61826606561019EED1AA560019BB34200D2019E321C2068039900F09BFA0020A3689B1B04
:40104000A36023689E19266005B0F0BD7FFBFFFFF0B59FB0029005938B890E1C171C1B0610D50B69002B0DD1402100F0DBFA30603061002804D10C23029A01381360D0E04E
:4010800040237361002306AD6B6120336B761033AB763C1C2378002B03D1E31B049312D003E0252BF9D00134F4E7049B0298311C3A1CFFF76DFF431C00D1ACE06A69049BDE
:4010C000944663446B612378002B00D1A3E00122002352426A6002A95432521801342B60EB60AB601370AB654F4F2178381C052200F02AFA002808D0C01B01278740381CBD
:401100002B68013418432860EEE72B68DA0604D55322202102A8121811701A0704D553222B2102A81218117022782A2A01D0099B0EE0059A111D12680591002A01DB0992F9
:4011400004E05242EA60022213432B60013409E02278303A092A04D80A214B4301349B18F6E7099323782E2B18D163782A2B09D1059B02341A1D1B680592002B0DDA012319
:401180005B420AE0002301342278303A092A04D80A214B4301349B18F6E70793234F2178381C032200F0D0F9002807D0C01B40278740381C2B6801341843286021781C48E4
:4011C0000622671C297600F0BFF9002812D0194B002B06D10722059B073393430833059314E005AB00930298291C321C124B00E000BF07E005AB00930298291C321C0E4BD1
:4012000000F08AF80390039B013304D06B69039A9B186B613DE7B3890B985B0601D5012040421FB0F0BDC046E2170000E8170000EC17000000000000910F0000F7B5171C3A
:4012400001930A698B6800900C1C934200DA131C221C3B6043321278002A01D001333B6023689B0602D53B6802333B60062523681D401ED0231C43331B785A1E93412268A7
:4012800092061CD53020E1184031C870211C5A1C45310978A21840320233D1700FE0221C0123009801991932089EB047431C0ED00135E3683A689B1A9D42F0DBDAE7221C3E
:4012C000009801994332089DA847431C02D10120404220E006232068E1683A6803400025042B03D18D1AEB43DB171D40A3682269934201DD9B1AED180027AF420ADA221C76
:401300000123009801991A32089EB047431CDED00137F2E70020FEBDF0B58BB006920A1C43320793059004920A7E0C1C109B6E2A00D1A8E011D8632A22D009D8002A00D10D
:40134000B2E0582A00D0C2E045310A707C4A4FE0642A1DD0692A1BD0B9E0732A00D1A7E009D86F2A29D0702A00D0B0E0202209680A43226037E0752A1FD0782A33D0A6E0BC
:401380000E1C1A684236111D196013683370A1E021681A68080606D4490604D5111D19600023D55E02E0111D19601568002D3BDA2D23049A6D42137036E021681A68080614
:4013C00006D4490604D51568111D1960ADB202E0111D196015685A4B227E03930A276F2A1DD108271BE0221C782145321170554A19680392081D226818600D68100602D499
:40140000500600D5ADB2D30702D520231A4322601027002D03D1202322689A432260231C002243331A7002E00A27454B03936368A360002B03DB0422216891432160002D49
:4014400002D1049E002B0ED0049E281C391CFFF73DFD039B013E5B5C281C3370391CFFF7AFFC051EF1D1082F09D12368DB0706D563682269934202DC3023013E3370049BF7
:401480009B1B23612BE009681A68080607D4490605D5111D19601368A28A1A8004E0111D1960136862691A600023049E236116E01A68111D196016680021301C626800F0A2
:4014C00043F8002801D0801B6060636803E0261C42363270012323610023049A1370079B05980093211C069B09AAFFF7A7FE431C02D10120404221E0236905980699321C7D
:40150000079DA847431CF4D023689B0705D4099BE068984212DA181C10E00025E368099A9B1A9D42F3DA221C0123059806991932079EB047431CDCD00135EFE70BB0F0BDA1
:40154000F317000004180000C9B28218904204D003788B4202D00130F8E700207047002310B5934203D0CC5CC4540133F9E710BD10B5814208D28B18984205D29B1A013A32
:4015800009D3995C8154FAE70023934203D0CC5CC4540133F9E710BD30B500293ED004390B68002B00DAC9181D4A1368141C002B02D14B60116031E099420DD208680A187D
:4015C0009A4203D11368C3180B6053684B60216024E08A4203D8131C5A68002AF9D11D685C198C420BD10968691858181960904214D110685268091819605A600EE08C428B
:4016000002D90C23036009E008680C18944203D114685268001908604A60596030BDC0469C010020032370B5CC1C9C430834051C0C2C01D20C2405E0002C03DA0C23002065
:401640002B6042E08C42F9D3204A1368101C191C002913D00A68121B0DD40B2A02D90A608B181FE08B4202D15A6802601BE04A685A600B1C17E00B1C4968E9E7144E336847
:40168000002B03D1281C00F04BF83060281C211C00F046F8031C421CD0D00322C61C964386420AD11C60181C07210B301A1D8843821A0AD05142995007E0311A281C00F068
:4016C0002FF8431CBAD0331CECE770BD9C01002098010020F8B5061C0C1C151C002904D1111CFFF79FFF041C18E0002A03D1FFF753FF2C1C12E000F025F8A8420ED2301C73
:40170000291CFFF78FFF071E07D0211C2A1CFFF726FF301C211CFFF73FFF3C1C201CF8BD38B50023064C051C081C2360FEF7E2FD431C03D12368002B00D02B6038BDC04603
:40174000D00100200B1F1A68101F002A04DA891804390B68D01804387047000000000000256900004572726F7220737461727465640000002020202020202020202000007A
:4017800000300F40000400400F400004030405060708090A0B0C0E0F101112131415161718191B1C1D1E1F2021222325262728292A2B2E2F303132333435000000001F0004
:4017C0003B005A0078009700B500D400F300110130014E011F1C1F1E1F1E1F1F1E1F1E1F4300232D302B2000686C4C006566674546470030313233343536373839414243C5
:40180000444546003031323334353637383961626364656600000000F8B5C046F8BC08BC9E467047750100006D030000F8B5C046F8BC08BC9E4670474D010000501800004F
:40184000C800002080000000900000000000000000000000D80100200000E02EC05D00001800000000366E0104040400000000000000000000000000000000000000000083
:40188000000000000000000000000000E017000000000000000000000000000000000000000000000000000000000000000000000000000000000000000000000000000031
:4018C000000000000000000000000000E4000020000000000000000000000000000000000000000000000000000000000000000000000000000000000000000000000000E4
:4019000000000000000000000000000000000000000000000000000000000000000000000000000000000000000000000000000000000000000000000000000000000000A7
:401940000000000000000000000000000000000000000000000000000000000000000000000000000000000000000000000000000000000000000000000000000000000067
:401980000000000000000000000000000000000000000000000000000000000000000000000000000000000000000000000000000000000000000000000000000000000027
:4019C00000000000000000000000000000000000000000000000000000000000000000000000000000000000000000000000000000000000000000000000000000000000E7
:0200000490303A
:020000003D368B
:0200000490402A
:200000000000000000000000000000000000000000000000000000000000000000000000E0
:0200000490501A
:0C000000000204C81193110104D04EC985
:0200000490600A
:0100000001FE
:00000001FF