:400000000010002011000000D9030000D903000008B500F0E3F9C04638B5184C23688022D20213432360182000F066FA2268144B13402360134A144B1A601022134B1A6086
:400040002032134B1A60103A124B1A6080221206114B1A6000252560104A114B1A60114B114A1360114A13600920114900F010FA092000F001FA0F4B1D6038BD00010B402A
:40008000FFFFFBFF0600008004010B4008020240200202402402024008010B401000008000000240BF5D00804000024080000240090700000C020B4010B572B6002410E0EA
:4000C000244863001A195200821891881B195B001A5AC31858880004104300F0C7F90134E4B2012CECD9EE2212021B4B1A6099221A4B1A6099231B04194A1360194A136052
:40010000194A1360194B1978022002220A431A70174C22783C218A4328390A432270197816220A431A708422124B1A60124A134B1A60134A134B1A60D8221201124B1A6006
:40014000124B18603122124B1A60124B1860FFF763FF10BD741900000C0001401000014000500F4020500F4030500F4000700F4001700F400000044080014000080004405E
:40018000B66D1B00080204400803044000040440080404401804044010B5064C2378002B07D1054B002B02D0044800E000BF0123237010BDE00000200000000004190000DE
:4001C00008B5084B002B03D00748084900E000BF07480368002B00D108BD064B002BFBD09847F9E70000000004190000E4000020C80000200000000008B500F077F80220EA
:4002000000F086F800F09AF800F0ACF8034800F099F8FA20400000F04DF908BD1019000008B500F0A3F8002801D0002000E0012008BDC04608B5164800F084F8002000F02C
:4002400075F8022000F0ACF800F090F8002803D100F0B4F80028F7D000F0B0F8002810D100F058FF00F08CF8002802D1094800F069F8094800F066F8FA20400000F01AF967
:4002800005E0064800F05EF8054800F013F908BD1C1900002C190000401900004C1900008813000008B5034800F04CF80A2000F02FF808BD5819000008B562B6FFF79CFFCB
:4002C00001E0FFF7EFFFFFF7ABFF0028F9D0FFF7B1FFF8E708B500F0A9FAC043C0B200F099FA022000F01AFB08BDC04608B500F0F9FA054B1B78002B02D1044800F07CFAB6
:400300000122014B1A7008BD35010020D502000008B54100FA20800000F0E6FF00F0A4FA00F0C8FA00F0A8FA08BDC04610B5041C00F084FA201C00F06DFA10BD08B500F068
:40034000EFFB08BD10B5041C0020002100F0F8FB201C00F08BFB024800F088FB10BDC0466819000008B500F05FFD08BD08B500F0EBFE002801D1013000E0002008BDC046A8
:400380000120704708B5054B1B68002B02D0013B024A1360022000F057FF08BDFC00002008B5044B186000F03FFF034800F07AFF08BDC046FC0000208503000008B5054BB2
:4003C0001B68002B03D100F0C7FE012000E0002008BDC046FC000020FEE7C04670B50F4E0F4D13E029686B68AC68002202E001C901C30432A242FAD1E868002202E000219E
:4004000002C304328242FAD11035013E002EE9D101F04AFAFFF750FFFEE7C04601000000F819000008B500230AE0032B03D89A000A49505800E00A4899000A4A88500133BC
:400440002F2BF2D9FFF738FE0022074B1A608022D205116801230B43136008BD00000000D903000000000020C000002008B50A1C002101F03FFA08BD1F2318401E3B83401C
:40048000181C014B1860704700E100E001BE704738B5041C0D1C1F2802D90020FFF7F6FFA400034B9C4664442068256038BDC0464000002010B5041C06E0084B186800F081
:4004C000FFFE074B9C46644480231B029C42F4D8024B5868604300F0F3FE10BDCC0000200080FFFF08B5034B1B7A584300F0E8FE08BDC046CC000020F0B557464E46C0B4DF
:4005000083B0041C00F0E6FE0190E71E2D2F74D83F4B1B78DBB2A34208D33E4B1B78DBB29A463D4B1B78DBB2994631E03B4B1B78DBB2A34208D33A4B1B78DBB29A46394B5C
:400540001B78DBB2994623E0374B1B78DBB2A34208D3364B1B78DBB29A46354B1B78DBB2994615E0334B1B78DBB2A34208D3324B1B78DBB29A46314B1B78DBB2994607E0E5
:400580002F4B1B78DBB29A462E4B1B78DBB299462D4BDE5D2F2E09D92A2C07D919222B4B1A60052000F08CFE192503E0274B1D683F231D40AE4206D2234BDA5D234B1A602B
:4005C000052000F07DFE1F4B9C4664442378DBB21F4A13601F4B52461A601F4B4A461A600520FFF77FFFAE420AD9174BDA5D174B1A60052000F064FE02E00020FFF746FFEE
:40060000019800F06BFE03B00CBC91469A46F0BDC0F1FF0FC1F1FF0FC2F1FF0FC3F1FF0FC4F1FF0FC5F1FF0FC6F1FF0FC7F1FF0FC8F1FF0FC9F1FF0FCAF1FF0FCBF1FF0FB3
:40064000CCF1FF0FCDF1FF0F801900002CFF0B4028FF0B401CFF0B4020FF0B40034B1868C0231B02184000D00120704700010B4008B500F02FFE044A1368C02109020B439B
:40068000136000F02BFE08BD00010B4010B500F021FE08490A68084B1A408024E40122430A600A6813408022120213430B6000F015FE10BD00010B40FF3FFFFF70B5061C26
:4006C00000F008FE041CFFF7C9FF002803D0FFF7DDFF012500E000250848331C0340084A106808490840184310601368012D01D1FFF7BEFF201C00F0F1FD70BD040404009D
:4007000010020B40FBFBFBFF10B5244B1B685B0715D5234B1B685B070ED5224BD969042001401F4C22688A432260DA698243DA611B69002B00D098470420FFF7BFFF174B00
:400740001B685B0518D5164B1B685B0510D5154BD9698022D2001140114802688A430260D969114A0A40DA615B69002B00D098478020C000FFF7A2FF084B1B685B030CD55B
:40078000074B1B685B0304D5064B9B69002B00D098478020C002FFF791FF10BD10020B40DC00002000010020FFFBFFFF8023014AD05070470000002010B5041C00F08AFD96
:4007C000044A1368C0218B43A4011C43146000F085FD10BD10E400E080225202014B1A607047C04600E100E080225202014B1A607047C04680E100E010B5041CFFF7F4FF34
:40080000201CFFF7D3FF0320FFF7D6FFFFF7E4FF10BDC04604490A68FB231A408000F73B184010430860704700000440024B18684007C00F7047C0460400044008B500F08E
:4008400049FD044A136801218B43136000F046FD08BDC046000005400004000C014B18607047C046080105400004000C014B18607047C04614010540024B18680004000C1C
:400880007047C046140105400004000C014B18607047C0460C01054038B5041C0D1C00F019FDAC40024B1C6000F018FD38BDC0460800054008B500F00DFD064A116801235C
:4008C0000B43136000F00AFD01201821FFF7E4FF08BDC04600000540014B18607047C0463801054010B580225202094B1A600C22084B1A600220FFF7EFFF074C201CFFF7EF
:40090000B3FF0020FFF7C0FF201CFFF7A5FF10BD000105402401054088130000014B18607047C0463001054010B50B4C23686022934323602368513A93432360226810239D
:400940001843104320600120FFF7CCFD236810229343236010BDC0460002044038B5051C0E4C226820231343236023684022934323600020FFF7B6FD23680F229343236008
:40098000236810202843184320600120FFF7AAFD236810229343236038BDC04600020440F8B5274A13687F218B43136025490B681B0B1B03244803430B60136820218B43DB
:4009C0001360116840230B431360CA277F000020FFF788FD1A4C23681026334323600120FFF780FD194B1D682368B34323600020FFF778FD08231D40236833432360012083
:400A0000FFF770FD2368B3432360002D02D10A20FFF768FD013F002D01D0002FD7D1084B1A6840218A431A601A683F318A431A60044A13681B0B1B0305490B431360F8BD2E
:400A400000020440080204404902000004020440B60D000010B5041CFFF7A2FF2009FFF77DFF0F202040FFF779FF10BD38B5051C0078012404E0FFF7EDFF285D0134E4B2E8
:400A80000028F8D138BDC04610B5041CFFF788FF2009FFF749FF0F202040FFF745FF10BD08B52820FFF706FD0320FFF73DFF0520FFF700FD0320FFF737FF0F20FFF7FAFC16
:400AC0000320FFF731FF0120FFF7F4FC0220FFF72BFF0520FFF7EEFC0620FFF7D5FF0E20FFF7D2FF2C20FFF7CFFF0820FFF7CCFF0120FFF7C9FF0C20FFF7C6FF0320FFF7A2
:400B0000C3FF0520FFF7D6FC08BDC04608B50C20FFF7BAFF0122014B1A7008BD2001002008B5064B5B78002B04D1FFF7B9FF0122024B5A70FFF7EAFF08BDC04620010020F0
:400B400008B501280BD0002804D002280CD003280FD012E08039C8B2FFF796FF0DE04039C8B2FFF791FF08E06C39C8B2FFF78CFF03E02C39C8B2FFF787FF08BDF0B55746C5
:400B80004E464546E0B4804689468504AD0FFA2292006A43111C03051B0F64225343CD1803061B0F9A00D3185B00EB180F2505405D1900260027574C1FE0A30705D1201C3D
:400BC000642100F017FC002908D1201CC821490000F010FC002903D1012302E0012300E00023002B04D04C4A0023B6185F4103E04A4A0023B6185F410134AC42DDD343464D
:400C0000DB00DB0F9A00D3185B0042461201120F9B185A1E52004249525A9246022B18D9AB0705D1281C642100F0E4FB002908D1281CC821490000F0DDFB002903D1012328
:400C400002E0012300E00023002B02D001239C46E244344C514661430A1C0023B6185F41C020800342460240120D93009B185B00F021090342460A40120C9B185C432A4D0D
:400C800062190023B6185F414B4603401B0D9A00D3185B004A461140090C591880231B04134000D00123002B0AD04B465B0201D5012300E00023002B02D00B2900D80C31A6
:400CC000E12000014843021C0023B6185F414B465B045B0F9A00D3185B004A461205120F9B181901C91A8A000023B6185F414B465B065B0F9A00D21852000F2349460B40AD
:400D0000D0180021801979411CBC90469946A246F0BDC046B20700000085E2018033E101B01900008051010080AEFEFFF0B583B001900C1C8F02BF0FBB00DB195B000F03A7
:400D40003F0FDF19CE00F60FB3009B195B000E01360F9E198904890FFA2292004A43101C23051B0F64225343C1182206120F93009B185B00CB180F2222409D18201C0199CF
:400D8000FFF7FCFE164B18605960164B5C60019A1A60022E01D80C36013D01361A2070430A2100F0A1FA3F187F19A8083F18281C642100F099FA4300181840003F18281C8C
:400DC000C821490000F090FA3818072100F012FB002900D10731034B996003B0F0BDC046580100203C01002008B50122084B1A700023084AD360084AD360084A1370084A0C
:400E00001360802000040749FFF790FF08BDC04638010020240100203C010020500100204C0100207019010108B5034B1B78002B01D1FFF7D9FF08BD3801002038B50F4BC9
:400E40001B18DD7D022817D10C1C8B0705D1081C642100F0CFFA002908D1201CC821490000F0C8FA002903D1012302E0012300E00023002B00D00135281C38BDB019000062
:400E8000F0B55F4656464D464446F0B485B08346141C1D1C9A4B9B4A904620E0009A019BA41A9D4101239C46E04443469B0705D14046642100F09EFA002908D14046C82183
:400EC000490000F097FA002903D1012302E0012300E00023002B01D08B4B00E0884B009300230193002DD9D1009A019B9D4201D19442D3D801204146FFF7A0FF834B58434A
:400F0000012399460AE0A41BBD4101239C46E14448464146FFF792FF7C4B5843061C0027AF42F0D1A042EED9201C291C774A002300F06CFA754941430A1C0023AB4203D133
:400F4000A14201D900220023A41A9D41431C9A46201C291CE1221201002300F057FA0090E121090141430E9B002B13D0002D03D109D1674B9C4206D9009B0C2B01D90C3888
:400F80000090012707E0009B002B01D10C330093002700E000270A1C0023AB4203D1A14201D900220023A41A9D41201C291C3C22002300F02BFA061C0101891B8A000023C6
:400FC000AB4203D1A24201D900220023A41A9D4148460A2100F088F9050748460A2100F009FA09060D4350460A2100F07DF90005054350460A2100F0FDF909040D43404652
:40100000FA21890000F070F9000305434046FA21890000F0EFF90391081C642100F064F9000205430398642100F0E4F90391081C0A2100F059F90001054303980A2100F081
:40104000D9F90D435B465D600E9BDB05BD051D43009F381C0A2100F047F900050543381C0A2100F0C7F90F042F43301C0A2100F03BF905033D43301C0A2100F0BBF90902AD
:401080000D43201C0A2100F02FF900010543201C0A2100F0AFF90D435B461D604B46022B05D80C239C46E1440D3B9C46E044484601301A2358430A2100F016F950444044B3
:4010C00043469C0804194046642100F00DF943001818400024184046C821490000F004F92018072100F086F9002900D107315B46996005B03CBC90469946A246AB46F0BD8E
:401100008033E101B20700000085E20180510100C1A8000030B583B0084B1A685B68084C084DE868002112184B4101310091201CFFF7A6FE206803B030BDC04658010020FE
:401140003C01002024010020024B18680006C00F7047C0460400044008B500F0BBF8044A136802218B43136000F0B8F808BDC046000005400004000C014B18607047C04658
:40118000480105400004000C014B18607047C046540105400004000C014B18607047C0464C01054038B5041C0D1C00F093F8AC40024B1C6000F092F838BDC046080005402B
:4011C00008B500F087F8064A116802230B43136000F084F802201821FFF7E4FF08BDC04600000540014B18607047C0467801054010B50022094B1A600C32094B1A60022042
:40120000FFF7F0FF074C201CFFF7BCFF201CFFF7C1FF0020FFF7AEFF10BDC046400105406401054060EA000008B5064B1B78002B04D1FFF7DDFF0122024B1A70FFF7C0FF65
:4012400008BDC04634010020014B18607047C046700105408423014AD05070470000002010B5041C00F036F8044A1168044B0B40A4031C43146000F031F810BD10E400E096
:40128000FF3FFFFF80229202014B1A607047C04600E100E080229202014B1A607047C04680E100E010B5041CFFF7F4FF201CFFF7D1FF0320FFF7D4FFFFF7E4FF10BDC04616
:4012C0000230800804D0C0460138FDD1C046C046C0467047EFF3108072B6704780F310887047C046C046C046002243088B4274D303098B425FD3030A8B4244D3030B8B420D
:4013000028D3030C8B420DD3FF22090212BA030C8B4202D31212090265D0030B8B4219D300E0090AC30B8B4201D3CB03C01A5241830B8B4201D38B03C01A5241430B8B4240
:4013400001D34B03C01A5241030B8B4201D30B03C01A5241C30A8B4201D3CB02C01A5241830A8B4201D38B02C01A5241430A8B4201D34B02C01A5241030A8B4201D30B0281
:40138000C01A5241CDD2C3098B4201D3CB01C01A524183098B4201D38B01C01A524143098B4201D34B01C01A524103098B4201D30B01C01A5241C3088B4201D3CB00C01A78
:4013C000524183088B4201D38B00C01A524143088B4201D34B00C01A5241411A00D20146524110467047FFE701B5002000F00CF802BDC0460029F7D003B5FFF775FF0EBC2D
:401400004243891A1847C0467047C046002B11D1002A0FD1002900D1002802D00021C943081C07B4024802A14018029003BDC046D9FFFFFF03B4684601B5029800F022F819
:40144000019B9E4602B00CBC7047C046F0B583B0161C1F1C0090019100F058F8041C0D1C221C2B1C301C391C00F026F8009A019B121A8B410899201C0A604B60291C03B079
:40148000F0BDC046F0B5141C83B01D1C0090019100F034F9221C2B1C061C0F1C00F00CF8009A019B121A8B410899301C0A604B60391C03B0F0BDC046F0B54F464646050479
:4014C0002D0C2C1CC0B41704160C3F0C9946030C7C4375435F4373437D19260CAD199C46AF4203D980235B029846C4444B465143434324042E0C240C2D0466442C195918C1
:401500008919201C0CBC90469946F0BDF0B544465F4656464D46F0B41C1C85B0002900DAA9E00F1C0021061C8846101C191C002C00DA97E0341C3D1C82468946B94273D863
:4015400070D04946504600F085F98346391C301C00F080F95B46181A031C8346203B9C4600D59CE00023002251460092019363469940019151468140019B0091BB4200D90B
:4015800083E000D17EE0009A019B341C3D1CA41A9D416346002B00DA9AE0002600270296039701369E400396012686400296002800D171E00099019AD30799464B464E0826
:4015C0001E435708002301220CE0AF4201D1A6420AD8A41BBD4124196D410138A4185D41002806D0AF42F0D9013824196D410028F8D12022029E039F5B46524236196F41AC
:4016000099185AD4281CC8402C1C5B46DC40002968DB041C8C40231C59468840021CB61A9F4103E0B0428CD90026002741464B1E9941002300910193009A019B0025544224
:401640009D41331C6340181C3B1C6B40191C009B019CC018614105B03CBC90469946A246AB46F0BD4346DB430C1C9846131C00215842A1415EE7002746428F4101214942AB
:40168000884652E7B14200D87DE70026002702960397002800D08DE7029E039FC6E720215346091ACB400022191C0023009201934B4683400B4301935CE75A4620239B1A61
:4016C0002A1C9A40201C131C5A46D04018439BE720260027331A0026029603970127DF40039761E75B4620215D46C91A031CAC40CB40191C231C0B438EE7C046F0B54546AC
:401700004E465746E0B4041C82B00D1C914698468B4262D85FD04146484600F09BF8291C061C201C00F096F82023311A5B428A46C81865D44B4683401F1C4B468B401E1C8C
:40174000AF4258D855D0A41BBD41002800DA77E0002200230092019301328240019201238B40009300293CD0FB079846404672087B080243012600270CE0AB4201D1A242DE
:401780000AD8A41A9D4124196D410139A4197D41002906D0AB42F0D9013924196D410029F8D120220098019953465242001969419E183AD42F1CF7405346DD40002E29DBAD
:4017C0003C1CB440231C5446A7403A1C801A99410090019105E082429DD900230024009301940098019902B01CBC90469946A246F0BDA342A7D90022002300920193B1E7F5
:4018000020224B46521AD3401A1C43468B401F1C174392E7534620245646E41A3B1CB540E3401C1C2B1C2343CDE7524620239B1A2A1C9A40271C131C5246D7401F43BBE76A
:4018400020230022581A0023009201930132C240019284E710B5002903D100F007F8203002E0081C00F002F810BDC0461C2101231B04984201D3000C10391B0A984201D3FB
:40188000000A08391B09984201D30009043902A2105C40187047C046040302020101010100000000000000000E4B70B500251E1C0D4CE41AA410A54204D0AB00F358984719
:4018C0000135F8E700F086F8084B00251E1C084CE41AA410A54204D0AB00F35898470135F8E770BDE0190000E0190000E0190000E8190000031C8218934202D019700133D2
:40190000FAE770470000000004FCFF7F010000004572726F7220696E6974000053797374656D207265616479000000004572726F72207265636F72642074696D6500000080
:4019400074696D6520736B696572000054696D65206F7574000000004572726F72207374617274656400000020202020202020202020000000300F40000400400F400004FC
:40198000030405060708090A0B0C0E0F101112131415161718191B1C1D1E1F2021222325262728292A2B2E2F303132333435000000001F003B005A0078009700B500D400EB
:4019C000F300110130014E011F1C1F1E1F1E1F1F1E1F1E1FF8B5C046F8BC08BC9E467047C101000025040000F8B5C046F8BC08BC9E46704799010000081A0000C8000020DA
:401A00001800000080000000000000000000E02EC05D00001800000000366E010404040000000000000000000000000000000000000000000000000000000000000000001A
:401A40000000000000000000000000000000000000000000000000000000000000000000000000000000000000000000000000000000000000000000000000000000000066
:401A80000000000000000000000000000000000000000000000000000000000000000000000000000000000000000000000000000000000000000000000000000000000026
:401AC00000000000000000000000000000000000000000000000000000000000000000000000000000000000000000000000000000000000000000000000000000000000E6
:401B000000000000000000000000000000000000000000000000000000000000000000000000000000000000000000000000000000000000000000000000000000000000A5
:0200000490303A
:02000000C283B9
:0200000490402A
:200000000000000000000000000000000000000000000000000000000000000000000000E0
:0200000490501A
:0C000000000204C81193110104D0D416B2
:0200000490600A
:0100000001FE
:00000001FF