:400000000040002011000000C10C0000C10C000080B500AF00F080FE80B500AF264B12221A6001F0EFFA254B181C01F019F9012001F0F8FA302001F023F9214B214A1A602D
:40004000214B8022D2051A60204B204A126802210A431A601E4B1F4A1A601F4B1E4A126808218A431A60FA23DB00181C01F054F91A4B181C01F06AFA194BD02252021A6064
:40008000184B194A1A60194B802212061A60184B8022D2021A60174B40221A60164B0820191C01F083F9082001F0FAF9064B8022D2051A60BD4680BD30001040001BB700CA
:4000C00004010B40060000800C020B4078002E407C002E402D3E00006CF02E40DC050000000301400000014040FF008008010B4000010B40080101407517000080B582B0CA
:4001000000AF72B6384B00221A60FB1D00221A7023E0FB1D1A78131C5B009B185B00334A9B183B603B681A78597809020A43997809040A43DB781B061343191C3B681A79F7
:400140005B791B0213439BB2081C191C00F068FEFB1D1A78FB1D01321A70FB1D1B78012BD7D9234A234B101C191C00F069FE224B224A1A60224B992212041A60214B992271
:4001800012041A60204A204B1B78DBB202210B43DBB213701D4A1D4B1B78DBB23C218B43DBB214210B43DBB21370174A164B1B78DBB216210B43DBB21370154B02221A608A
:4001C000144B154A1A60154B02221A60144B20221A60144BC02292021A60FFF71DFF00F06FFEBD4602B080BD6CF02E406C380000783800009438000000000240990000EE4B
:4002000000500F4010500F4000700F4001700F4000000440080004403100D80018000440000104400801044010B5064C2378002B07D1054B002B02D0044800E000BF012359
:40024000237010BD58010020000000009C37000008B5084B002B03D00748084900E000BF07480368002B00D108BD064B002BFBD09847F9E7000000009C3700005C010020B4
:40028000C80000200000000080B500AF00F044FE00F0B6FF054B0122DA74054B00229A74044B00221A60BD4680BDC046E8050020C80500207401002090B59FB000AF78607F
:4002C0007B68952B04D87B68181C01F01BF970E0394B181C01F05EFB01F06CFB031C3B6701F0F6FA7A687B6FD31A962B34D9334BDB7C012B05D1324B9B7C002B01D100F038
:400300006DF82E4BDB7C012B08D12D4B9B7C012B04D100F0A5F8294B0122DA7401F012FB031CFB6601F046FB031C3B67FA6E3B6FD31A181C02F038FC031C0C1C181C211CFF
:40034000204A214B01F05CFD031C0C1C181C211C01F038FD031C7B6701F0CCFA0823F9181A4A7B6F081C111C1A1C02F003FE0823FB18181C00F048FF154B1B68591C144A64
:400380001160052B0FDD124B00221A600C4B00229A74104B1B68591C0E4A1160052B02D10D4B00221A607A687B6FD31A181C01F0A9F8BD461FB090BDFFFF0100E805002073
:4003C000C8050020FCA9F1D24D624040A0370000780100207C0100207401002090B59FB004AF1B4B5B781C1C194B9B78181C184BDB78191C3A1C174B009401900291101CED
:40040000191C0022002302F0B5FD114B1B781C1C3423FA183B1C101C191C221C00F018FB3423FB18181C00F053FE094B01229A74094B181C00F0E8FE3423FB18181C00F0C5
:40044000E3FE064B181C00F0DFFEBD461BB090BDC8050020B4370000CC370000D837000090B58BB000AF00237B6242E03A1C2323FB181B78101C191C00F062F8031C7B620A
:400480002323FB181B78181C00F04AFE3B1C1B7E012B2ED13B1C1B88DAB2224B1A70214B0022DA74204B00229A74204B01221A601F4B00221A603B1C9A7C1A4B9A743B1C90
:4004C000DC689B68174A9360D4603B1C1A8A154B1A82154B1B780133DAB2134B1A70154B181C00F091FE144B181C00F08DFE012313E000F0CDFD021C2323FB181A70232362
:40050000FB181B78002BB1D10C4B181C00F07CFE094B181C00F078FE0023181CBD460BB090BDC046E8050020C8050020740100207C010020DC370000D8370000F4370000A4
:40054000F0B597B004AF78610A1C1323FB181A7000237B641323FE181323FB181B78181C00F016FA031C33701323FB181B783C2B19D1C34B01221A707B69181C00F04AFAB6
:40058000C04B00221A70C04B00221A70BF4B00221A70BF4B00221A70BE4B00221A70BE4B00221A70E5E1B64B1B780A2B00D9DCE19A00BA4BD3181B689F461323FB181B7804
:4005C000181C00F00DFA031E1ED07B691A881323FB181B789BB213439AB27B691A80A94B1B780133DAB2A74B1A70A64B1B78042B03D1A34B02221A70BBE17B691B881B01CD
:400600009AB27B691A80B4E19D4B00221A7001237B64AEE11323FB181B78212B03D1984B03221A70A5E17B69181C00F0F3F902237B64934B00221A709BE11323FB181B7847
:40064000181C00F0CDF9031E1BD07B695A681323FB181B781A437B695A608B4B1B780133DAB2894B1A70884B1B78022B03D1844B04221A707DE17B695B681A017B695A60DC
:4006800077E17B69181C00F0C5F97D4B00221A7003237B646DE11323FB181B783A2B03D1774B05221A7064E17B69181C00F0B2F904237B64724B00221A705AE11323FB18E2
:4006C0001B78181C00F08CF9031E2DD07B699A68DB68132179180978C9B2B9600021F960B96811433960F968194379607B6939687A689960DA60664B1B780133DAB2644B32
:400700001A70634B1B78102B03D15D4B06221A702FE17B699A68DB68110F1D010D4314017B699C60DD6024E17B69181C00F072F905237B64524B00221A701AE11323FB1880
:400740001B78181C00F04CF9031E1ED07B691A8A1323FB181B789BB213439AB27B691A824C4B1B780133DAB24A4B1A70494B1B78042B03D1424B07221A70FAE07B691B8AC5
:400780001B019AB27B691A82F3E07B69181C00F041F906237B643A4B00221A70E9E01323FB181B78181C00F01BF9031E1DD07B699A7C1323FB181B781343DAB27B699A746E
:4007C000354B1B780133DAB2334B1A70324B1B78022B03D12A4B08221A70CAE07B699B7C1B01DAB27B699A74C3E07B69181C00F011F90A237B64224B00221A70B9E01323FC
:40080000FB181B78402B03D11D4B09221A70B0E07B69181C00F0FEF807237B64184B00221A70A6E01323FB181B78181C00F0D8F8031E1BD07B695A691323FB181B781A43CE
:400840007B695A61114B1B780133DAB20F4B1A700E4B1B78082B03D1094B0A221A7088E07B695B691A017B695A6182E07B69181C00F0D0F808237B64014B00221A7078E0F3
:400880000306002001060020C0050020E0050020000600200206002004060020203800001323FB181B783E2B55D17B695D687B69DC689B687A69128A161C7A69927C101C21
:4008C00008221021791889182D4A0093019402960390081C111C2A1C02F04CFB01235B423B64284A3B6C101C01211A1C00F084F9031C3B64082310229446BC446344181C97
:4009000002F067FB011C08231022BA18D2183B6C101C1A1C00F070F9031C3B641A4A3B6C101C01211A1C00F067F9031C3B643B6CDB433B647B695A693B6C9A4205D17B6928
:4009400001221A7600237B640BE07B6900221A760A237B6405E009237B647B69181C00F059F80A4B00221A7003E07B69181C00F051F87B6CDBB2181CBD4613B0F0BDC04696
:4009800004380000183800001C3800000306002080B582B000AF021CFB1D1A70FB1D1B78402B09D9FB1D1B78462B05D8FB1DFA1D1278373A1A700CE0FB1D1B782F2B08D9E1
:4009C000FB1D1B78392B04D8FB1DFA1D1278303A1A70FB1D1B78181CBD4602B080BDC04680B584B000AF021CFB1D1A700F23FB1801221A70FB1D1B780F2B03D90F23FB18B8
:400A000000221A700F23FB181B78181CBD4604B080BDC04690B583B000AF78607B6800221A807B6800225A607A68002300249360D4607B6800221A827B6800229A747B68C0
:400A400000225A617B6800221A76BD4603B090BD90B591B000AFF860B9607A60BB68FB637B689BB21C1C2423FA18474B101C191C221C02F07FFA01235B42BB63434ABB6B11
:400A8000101C01211A1C00F0B7F8031CBB63FB6B181C02F09EFA011CFA6BBB6B101C1A1C00F0AAF8031CBB63394ABB6B101C01211A1C00F0A1F8031CBB63BB6BDB43BB6384
:400AC0001023F918334ABB6B081C111C1A1C02F051FAFA68304B111C1A1C0223081C111C1A1C02F035FAFA682423FB18101C191C02F062FAFB68181C02F06BFA031C1A1C90
:400B0000FB689A18254B111C1A1C0223081C111C1A1C02F01DFAFA68FB6B101C191C02F04BFAFB68181C02F054FA031C1A1CFB689A181B4B111C1A1C0223081C111C1A1C02
:400B400002F006FAFA681023FB18101C191C02F033FAFB68181C02F03CFA031C1A1CFB689A18104B111C1A1C0223081C111C1A1C02F0EEF9FB68181C02F02BFA031CDBB295
:400B8000181CBD4611B090BD4C380000183800001C380000543800005C38000060380000643800006838000080B584B000AF78600A1CFB1C1A70FB1C1B78FB600C4B1B683E
:400BC000002B01D100F03AF87A68FB685340BB607B681A0ABB68FF211940064B8900CB5853407B607B68181CBD4604B080BDC046800100208401002080B586B000AFF8600C
:400C0000B9607A607B683B6100237B610DE0FA687B69D3181B783A69101C191CFFF7C4FF031C3B617B6901337B617A69BB689A42EDD33B69181CBD4606B080BD80B584B04D
:400C400000AF0023FB601FE0FB687B600023BB600FE07B680122134005D07B685B080F4A53407B6002E07B685B087B60BB680133BB60BB68072BECDD094BFA6892007968E6
:400C8000D150FB680133FB60FB68FF2BDCDD054B01221A60BD4604B080BDC0462083B8ED840100208001002080B500AF62B6FFF7EBFA024B181CFFF7FFFAFAE7DC0500005D
:400CC00080B500AFFEE7C04680B584B000AF78600F4B1A687B68D3181A1C0E4BD31A802B09DC0B4B1B68FB60094B1A687B68D218074B1A6007E002F0FFF8031C0C221A6045
:400D000001235B42FB60FB68181CBD4604B080BDCC000020F006002080B586B000AF224B7B61224B3B61204B7B6135E03B691B68FB603B695B68BB603B699B683B600023D9
:400D40007B600CE0FB681A68BB681A60BB680433BB60FB680433FB607B6804337B607A683B689A42EED13B69DB683B6000237B6008E0BB6800221A60BB680433BB607B682C
:400D800004337B607A683B689A42F2D13B6910333B617B69013B7B617B69002BC6D102F0B1F8FFF781FFFEE701000000683A000080B582B000AF154B144A126801218A4302
:400DC0001A6000237B600FE07B68032B04D8104B7A689200D35800E00E4B0F4A796889008B507B6801337B607B682F2BECD9FFF785F90A4B00221A60044B044A126801213C
:400E00000A431A60BD4602B080BDC0460000104000000000C10C000000000020C000002080B582B000AF786039607A683B68101C00211A1C02F095F8BD4602B080BDC046D0
:400E400080B586B000AF7860396000233B6100237B612FE07B699B007A68D3181B68BB600F23FB18BA681A70BB68FF229343BB6018E03B695B003A68D3181B781A1CBB689A
:400E8000D318191C3B695B003A68D3185B780B703B6901333B610F23FB181A780F23FB18013A1A700F23FB181B78002BE1D17B6901337B617B69062BCCD9BD4606B080BD8A
:400EC00080B500AF054B03221A60054B03221A60044B00221A60BD4680BDC0463000304030003140000E3F4080B500AF00F034F8BD4680BD80B500AF064B064A1268802151
:400F000009060A431A6000F019F800F01FF8BD4680BDC0460000254080B500AF064B1B78002B04D1FFF7E0FF034B01221A70FFF7E1FFBD4680BDC0468405002080B500AFE7
:400F40000A2000F0ADFABD4680BDC04680B500AF00F088F8BD4680BD80B500AF284B294A1A60294B00221A60284B01221A60284B284A1A60284B07221A60284B00221A60EE
:400F8000274B01221A60274B224A1A60264B00221A60264B04221A600A2000F095FA0A20032100F029FA224B0A20191C00F0FEF9204B00221A60204B00221A601F4B002255
:400FC0001A601F4B00221A601E4B04221A601E4B00221A601C4B1B689AB21C4B1A801C4B00221A601B4B00221A601B4B00221A701A4B00221A601A4B00221A60BD4680BDD3
:40100000000025400B08000240002540480025400003254007000080040325401003254044002540000225400402254050002540191B0000880E2540C80E2540480F2540BB
:40104000080F2540C80F2540880F254086050020E0060020080600200C06002010060020E406002080B500AF064B064A1268F0218A4390210A431A60034B044A12881A6066
:40108000BD4680BD00000240880F25408605002080B582B000AF00237B6000F0D1FC031E03D000F0A5FC031C7B60084B1A68D8239B00134005D000237B60044BD82292004B
:4010C0001A607B68181CBD4602B080BDC00F254080B584B000AF78600023FB6009E07A68FB68D3181B78181C00F0CAFCFB680133FB607A68FB68D3181B78002BEFD1BD4692
:4011000004B080BD00000000000000000000000000000000000000000000000000000000FEB5494652465B460EB407462E4909688A462E4A12682E48022100F0B1FD030050
:401140002A480068C0182A4900F0AAFD06001F3EB346234A126801219140C9430C000125002600F086F8814651460B6823400B605846043000F074F83800F040284090403E
:401180000B68234003430B60584600F069F80136072EF1D900200130012090400B68234003430B605846063000F05AF8484600F064F8C046C046C0460EBC894692469B4666
:4011C000FEBDC046C046C046C046C046C046C046C046C046C046C046C046C046C046C046D0000020D4000020D8000020DC00002080250000C046C046C046C046C046C04639
:4012000080B500AFBD4680BD80B584B000AF78600F23FB1801221A700E23FB187A6812781A7015E00E23FB181B78181CFFF778FF0F23FB181B787A68D2180E23FB1812788F
:401240001A700F23FB181A780F23FB1801321A700E23FB181B78002BE4D1BD4604B080BD0230800803D00138FDD1C046C046C0467047EFF3108072B6704780F310887047F0
:4012800090B58BB000AF78602723FC18FFF7F1FF031C2370184B1A680C23FB181A60174B1A680C23FB185A607B68033B144AD35C1A1C0C23FB189A60124B1A680C23FB186F
:4012C000DA601C23FB18104A1A600C23FA181C23FB185A600D4B1C22BA181A600C4B0D4A1A600A4B1B682723FB181B78181CFFF7C4FFBD460BB090BD08010B4000010B40D7
:401300009C39000030001040B6EA000008001040040010401700008080B584B000AF78600023FB60154B154A126801210A431A60134B144A1A60144B134A126880210902CD
:401340000A431A607B68002B12D01023FB600CE0012000F0FBF800F019F8031E02D00023FB6005E07B68013B7B607B68002BEFD1FB68181CBD4604B080BDC04660F02E40CA
:4013800078002E400220000010002E4080B582B000AF054B1B68012213407B607B68181CBD4602B080BDC0460C002E4080B584B000AF021C3960FB1D1A7080239B05FB60D5
:4013C000FB1D1B781F2B02D9002000F091F8FB1D1B7810339B00FA68D3181B68BB60FB1D1B7810339B00FA68D3183A681A60BB68181CBD4604B080BD90B587B000AF021C8A
:40140000FB1D1A70BB1D0A1C1A70BB1D1B78032B02D9002000F06CF8FB1D1B781F2B02D9002000F065F8FB1D1B7803221340DB0006337B611323FC18FFF71BFF031C23703E
:40144000FB1D1B789B08DBB29B00144A944663441B68FB607B6903229A40131CDA43FB681340FB60BB1D1A787B699A40131CFA681343FB60FB1D1B789B08DBB29B00074AC8
:4014800094466344FA681A601323FB181B78181CFFF7F3FEBD4607B090BDC04600E400E080B582B000AF021CFB1D1A70054BFA1D12781F210A40012191400A1C1A60BD4620
:4014C00002B080BD00E100E080B582B000AF021CFB1D1A70054BFA1D12781F210A40012191400A1C1A60BD4602B080BD80E100E080B582B000AF021CFB1D1A7001BEBD468D
:4015000002B080BD80B582B000AF786009E00C4B1B68181CFFF7A4FE7B680A4A944663447B607A6880231B029A42F0D8064B1B687A685343181CFFF793FEBD4602B080BD6D
:40154000E80000200080FFFFE000002080B582B000AF021CBB1D1A80BB1D1B88044A12785343181CFFF77CFEBD4602B080BDC046E400002080B500AF0E4B0E4A1268012185
:401580008A431A600B4B0B4A126802218A431A60094B094A126830218A4310210A431A60054B054A126807218A4301210A431A60BD4680BD00F02E4000FF2E4080B500AF38
:4015C0000E4B0E4A126802218A431A600C4B0C4A126807218A4302210A431A60084B084A126830218A4320210A431A60034B034A126801210A431A60BD4680BD00F02E406F
:4016000000FF2E4080B500AFFFF7B4FF044B044A1268802109060A431A60BD4680BDC04600F02E4080B584B000AF78600C4B1B6801221340FB607B68002B02D0012B03D004
:4016400005E0FFF797FF06E0FFF7B8FF03E00020FFF74EFFC046FB68181CBD4604B080BD00F02E4090B583B000AFFC1DFFF701FE031C2370074B074A1268C02109020A43F4
:401680001A60FB1D1B78181CFFF7F7FDBD4603B090BDC04600010B4080B500AF054B1A68C0231B02134001D0012300E00023181CBD4680BD00010B4090B583B000AFFC1D91
:4016C000FFF7D7FD031C23700C4B0C4A12680C490A408021C9010A431A60084B074A126807490A40802109020A431A60FB1D1B78181CFFF7C2FDBD4603B090BD00010B4068
:40170000FF3FFFFF90B585B000AF78600B23FC18FFF7AFFD031C2370FFF7BEFF031E04D00123FB60FFF7C8FF01E00023FB607B680D4A13407B600D4B0C4A12680C4911405D
:401740007A680A431A60094B1B68FB68012B01D1FFF788FF0B23FB181B78181CFFF78DFDBD4605B090BDC0460404040010020B40FBFBFBFF80B500AF334B1B6804221340C1
:401780001FD0324B1B680422134017D0304B1B6804221340DA432D4B1B681A402B4B1A602B4B1B68042293431A1C294B1A60294B1B68002B02D0274B1B6898470420FFF706
:4017C000A1FF214B1A688023DB00134022D01F4B1A688023DB00134017D01D4B1A688023DB001340DA43194B1B681A40174B1A60174B1B68184A1A40154B1A60154B5B6861
:40180000002B02D0134B5B6898478023DB00181CFFF778FF0C4B1A688023DB02134011D00A4B1A688023DB02134006D0094B9B68002B02D0074B9B6898478023DB02181C43
:40184000FFF760FFBD4680BD10020B40F00000209405002098050020FFFBFFFF90B583B000AF114B181C00F079F80F4B181C00F091F8FC1DFFF7FDFC031C23700B4A0B4B74
:401880001B78DBB210210B43DBB21370FB1D1B78181CFFF7F2FC00F09DF8002000F038F8BD4603B090BDC046FFFF010092000F4080B500AF0549054B1B78DBB28022524230
:4018C0001343DBB20B70BD4680BDC04671000F4080B500AF064B1B78002B04D1FFF7BEFF034B01221A70FFF7E3FFBD4680BDC046B405002080B500AF044A044B1B78DBB276
:401900007F210B40DBB21370BD4680BD71000F4080B582B000AF021CFB1D1A70034AFB1D1B781370BD4602B080BDC04682000F4080B500AF024B1B78DBB2181CBD4680BDCD
:4019400062000F4080B500AF034B181C00F088F9031C181CBD4680BD20000F4080B582B000AF7860044A7B68101C191C00F05EF9BD4602B080BDC04620000F4080B500AFCB
:40198000034B181C00F06CF9031C181CBD4680BD40000F4080B582B000AF7860044A7B68101C191C00F042F9BD4602B080BDC04600000F4080B500AF044B1B78044B181CF3
:4019C00000F04EF9031C181CBD4680BD00000F4040000F4080B500AF01E0FFF7CFFFFFF7A7FF031C1A1C08231340F6D1BD4680BD80B582B000AF00237B600E4B1A680E4BF8
:401A00001B689A4211D00C4B1B6801333B603B68652B01D100233B60084A3B68D3181B78DBB27B60044B3A681A607B68181CBD4602B080BDE00600200806002078060020D9
:401A400080B582B000AF0C4B1B683B600B4B1B683A689A4205D3094B1B683A68D31A7B6005E0064B1B683A68D31A65337B607B68181CBD4602B080BDE00600200806002073
:401A800080B584B000AF78601C4B1A681C4B1B689A4209D11B4B1B681F221340102B03D0194B7A681A6026E0144B1B680133FB60FB68642B01D10023FB60C046104B1B68C5
:401AC000FA689A42FAD0114B02221A607B68D9B20F4AFB68D3180A1C1A70084BFA681A600C4B1B680222134005D10A4B094A126802210A431A60BD4604B080BD1006002093
:401B0000E40600200802254040022540800F254014060020880F254080B582B000AF324B1B68002B02D0304B1B6898472F4B1B680422134026D02E4B1B6801337B607B6811
:401B4000652B01D100237B602A4B1B687A689A4205D1294B1B68294B20221A700AE0264B1B68D9B2264A7B68D3180A1C1A70204B7A681A60234B1B681F221340DBD1224B86
:401B800004221A60214B1B680222134029D0204B1A68204B1B689A4213D01E4B1B6801333B603B68642B01D100233B601A4B1B493A688A181278D2B21A60164B3A681A60FD
:401BC00006E0174B164A126802218A431A6005E0144B1B681F221340102BD8D1124B02221A60BD4602B080BD88050020CC0F2540E006002008060020400325400C06002032
:401C00007806002008032540C00F25408C0F254010060020E40600204002254014060020880F254008022540800F254080B584B000AF786039607B68FB603B68DAB2FB6889
:401C40001A70FB6801333A68120AD2B21A70FB6802333A68120CD2B21A70BD4604B080BD80B584B000AF78607B68FB60FB681B78DBB2BB60FB6801331B78DBB21B02BA685B
:401C80001343BB60FB6802331B78DBB21B04BA681343BB60BB68181CBD4604B080BDC046002243088B4274D303098B425FD3030A8B4244D3030B8B4228D3030C8B420DD3E9
:401CC000FF22090212BA030C8B4202D31212090265D0030B8B4219D300E0090AC30B8B4201D3CB03C01A5241830B8B4201D38B03C01A5241430B8B4201D34B03C01A52419F
:401D0000030B8B4201D30B03C01A5241C30A8B4201D3CB02C01A5241830A8B4201D38B02C01A5241430A8B4201D34B02C01A5241030A8B4201D30B02C01A5241CDD2C3096E
:401D40008B4201D3CB01C01A524183098B4201D38B01C01A524143098B4201D34B01C01A524103098B4201D30B01C01A5241C3088B4201D3CB00C01A524183088B4201D3C7
:401D80008B00C01A524143088B4201D34B00C01A5241411A00D20146524110467047FFE701B5002000F00CF802BDC0460029F7D003B5FFF775FF0EBC4243891A1847C04695
:401DC0007047C04638B500220C4B041C0D1C00F051FF002804D1201C291C00F0AFFE38BD064B0022201C291C00F02EFB00F0A6FE80231B069C466044F1E7C0460000E0413D
:401E0000F0B55F4656464D464446F0B40F0387B098464D003B0BCC0F061C924681469B466D0D01946BD0664B9D4235D080275B467F031F43F3009946624BFF00400F9C460A
:401E400007430023BB46002665440093424617035000D20F53463F0B400D904600D172E0574A904267D080235B031F435346554A5B0FFF001F43944653460021DB00604473
:401E80004246624092462D1A0E430F2E00D9A1E04D48B600805987465B461E4300D076E000239B469946023308260093CEE799464346BB4601930091009B022B6BD1019B1C
:401EC0009A46002153460122002789461A403C4B00213F030C0D24053F0B27433B4C1B0527401F437F00D2077F0817434846391C07B03CBC90469946A246AB46F0BD034339
:401F00003ED05B46002B00D19CE1584600F0BCFE2823311C1B1A021C5F46D940083A97400B1C96403B439B46B1460023284D00262D1A00938AE7524603213A43A0D1002742
:401F4000002302219CE752463A4315D0002F00D185E1381C00F098FE021C28215046891A131CC8405146083B99409F400B1C074317480021801A83E70027002301217FE72E
:401F800000239B4699460133042600935EE703230C2600935AE7032B00D13CE2012B00D0BFE11A1C019B1A4000210023002789468EE700238027994600223F03004B87E782
:401FC000FF07000001FCFFFFCC390000FFFF0F800DFCFFFFBB4500D951E100D14CE14A46039200225C469046013D180E3F0238431B020193030C994603041B0C4946061CE1
:40200000201C1F1C0093FFF74BFE021C7A4302904946201C171CFFF7C9FE039B09041B0C19438F420CD9029B8919013B8E4200D952E18F4200D84FE1029B8919023B02930A
:40204000CC1B201C4946FFF72BFE009F834647434946201CFFF7AAFE039A0B041404240C23439F420DD95A469B19013A9E4200D930E19F4200D82DE10222524294469B19AD
:40208000E344029ADB1B17045A463A439346019C170C220C101C04925A4611042204120C141C090C7C4305924A43414347436118100C09188C4203D98020400284466744C0
:4020C0000C0C12040804120C3C198118A34200D2E5E000D1DFE01F1B43465C1AA04592415242BF1AB74200D10EE1381C4946FFF7D7FD009B029043434946381C9846FFF760
:4021000055FE230C0F041F43B8450CD9029BBF19013BBE4200D9FBE0B84500D8F8E0029BBF19023B02934346FF1A4946381CFFF7B7FD009B039043434946381C9846FFF7D3
:4021400035FE24040904240C214388450CD9039B8919013B8E4200D9DCE0884500D8D9E0039B8919023B03934346C91A029B039A1B04059C1A43100C13049146221C049FB1
:402180001B0C5A4344437B437843E318170CDB199C4203D980246402A44660441C0C12041B04120C00199B18814200D296E000D1FCE04A4601231A4391469B4BEB18002BFC
:4021C00000DC99E04A4652070AD00F2249460A40042A05D00431494592418946524293445A46D20106D55A46904B1A4080239346DB00EB188E4A934200DD62E64A4659466C
:40220000D208490711435A4689465702514601225B053F0B5B0D0A405AE680205A460003024208D0074206D107433F0399463F0B4246804B4CE65F4607433F033F0B221C90
:402240007C4B45E600F020FD031C2030272800DC5EE6083B9E400023B346994665E6504600F012FD021C2032272A00DC75E657460838874000237BE6994500D2AFE65A4680
:40228000594654084A46C8075208024303924A46D2079046A9E60027884500D31CE7019F5A46BC46E044B845BF417F42BF19FF18013ABE4206D2BC425FD800D19FE03F1BF3
:4022C000934609E7B742FAD1019B4345F3D9371B934601E79346D4E60293B1E64A468919013A8E4218D99146814200D061E7019A9A4200D05DE760E74F4F7F1B382F13DD4E
:40230000012253461A404FE601235B42994654E7029308E7039327E788423CD874D0914647E7019B9A4648E71F2F44DC434B4A469C465B466544FA40AB4013434A46AA40D0
:40234000151C6A1E95415A46FA402B43171C5A0709D00F221A40042A05D01A1D9A429B415B42FF18131C3A023ED55346012200211A40002701238946AAE502235B429C46E6
:40238000019AE3449446E04490459B415B429B19DF193F1BA0E6019F4A467C00BC42BF417F42BF19023AC91901949CE7002B95D1002201929BE75A46214B5B1BDA40202F57
:4023C00027D0204B9C465B466544AB4049460B43591E8B411343072200271A4007D00F2200271A40042AB8D17A077F023F0BDB0813439946012253461A40002368E5414594
:40240000BBD89346002767E6019C9C42C3D391466DE70023DAE780275B463F031F433F033F0B019A034B53E5FF030000FFFFFFFEFE070000FF07000002FCFFFF1E040000DD
:40244000E2FBFFFF3E040000F0B54D4644465F465646F0B40E1C111C3203520A470F1743C5001A035800DB0F9946520A4B0F83B01A43CB000193CF4B7400F60F640DB0465E
:40248000400D984200D1E8E00123494659400B1C9E4200D1B1E0261A002E00DC1CE1002842D1131C01990B4300D0E6E06B0700D18EE00F232B40042B00D189E02A1DAA428E
:4024C000AD418023012641466D427F191B043B400E40151C002B00D183E0B64B01349C4200D116E13A1CB44BED081A405007640552020543120B640D002112030B0D1B0506
:402500006405120B1A436308AC4CF60714401C43640064083443281C211C03B03CBC90469946A246AB46F0BDA24B9C42BED080231B041A43382E00DD03E11F2E00DD3FE10E
:402540002020831B9946131C49468B409C46019B6046F34003430198F2408840011C481E81410B43EB1A9D4280411D1CBA1A4042171A3B0200D4A8E07A02560A002E00D179
:40258000CAE0301C00F080FB031C083B1F2B00DDCBE02822291C121AD1409E400A1C9D4032439C4200DDC8E01C1B671C1F2F00DDEDE01F23291C1C1B131CA540A340F94061
:4025C0006C1EA541FA4019430D43171C00246DE78023012642461B043B401640002B00D07BE7744BED0878070543FA089C423BD012036405120B640D7EE7231A9A46002B1C
:4026000000DCA5E0002844D06A48844200D14DE78020000402435346382B00DC1CE1019B1A43511E8A41D1B200224919A94280410D1CD219404217183B0246D55D4B0134E2
:402640009C4200D169E101205B4A6B083A4028401843D5070543570828E7131C01990B4300D111E74B4613E72B1C134351D080231B031A431203120B3EE7013E002E00D07E
:4026800080E0691A8D429B41BA1A5B42D71A0D1C6FE7101C019B184300D107E701235B429C46E2445346002B00D002E1019BD2195919A9429B415B42D7180D1CBCE76346C8
:4026C000034300D128E1071C65466B0700D0F0E6012643461E4084E7002E00D081E0601C4005400D012800DC07E10199681A84466545B641B81A7642861B300200D4A1E0C8
:402700008C464D1BAC458941D21B4942561A984634E700220025EFE6281C00F0B5FA2030031C083B1F2B00DC33E7021C283A95402A1C00259C4200DC36E71F4FE41A174078
:40274000B4E6019B1A43511E8A41D3B2002209E7002B00D001E1601C43055B0D012B00DCB0E0144B984200D11EE1019BD2195919A9429B415B42D2184908D5070D43570828
:40278000041C93E60B4B9C4200D0D3E68EE6211C131C1F39CB40191C202F00D18EE03F231C1BA24015436A1E954100270D4300248BE7C046FF070000FFFF7FFFFFFF0F806A
:4027C000331C101C203BD840202E79D040239B1B9A40131C019A1343591E8B4100220343C0E6002C53D0C74CA04200D1B0E0802471428946240427434946382900DDCDE019
:402800001F2900DD59E120243E1C611A8E408A46B04649462E1CCE405146B4468D4064464646494626436C1EA541CF4035430199D71B8C464D1BAC4592415242BF1A041C0B
:40284000984696E663466546334300D096E60026002700240025C4E61F2B61DC2020C31A9B46131C59468B4051469946019BCB409C464B46604603439C465B460199994018
:402880006346481E814119435346DA40CDE63C1C2C435DD0F1438946002955D10199D21B8C464D1BAC4589414942571A041C98465FE69448844200D0ADE6F7E5002271E729
:4028C000002387E73B1C2B43002C00D0DAE0002B00D113E1131C01990B4300D1E6E54919A9429B41D2195B42D7183B0200D421E1854B0D1C1F40041CD8E5381C2843002C56
:4029000040D1002800D083E0101C0199084303D0171C0D1C9846C9E500260027002560E65046131C2038C340181C5346202B00D1C1E0402351465B1A9A40019911434A1E5E
:4029400091410022014370E66E4CA04200D053E7171C019D041C9846A8E5002C28D13C1C2C4300D18AE0DB439A46002B00D082E0019BD2199C4665449D4289414942571890
:40298000041C59E600285BD1101C0199084300D1A4E0171C0D1C98465A4C87E53D436F1EBD410027EDB242E7041C0027002518E6544CA04262D0534680245B429A462404B8
:4029C00027435346382B00DD8EE01F2B00DD9DE02024E31A9B463B1C59468B40514699462B1CCB409C464B46644623439C465B469D4063466C1EA541CF401D43019BBF18F9
:402A00009C4665449D4292415242BF18041C13E6101C0199084300D148E5681A844685428041BE1A4042301A060200D447E68C464D1BAC458941D21B4942571A984635E56F
:402A4000101C0199084334D080247807ED08FF0824032843274208D0D608264205D1C90852070A43101C371C9846FF00420F1743C500244C1AE5234CA042A2D1171C019DEC
:402A8000041C13E5002B35D0131C01990B4310D080247807ED08FF08240328432742E4D0D3082342E1D1C90852070A43101C1F1CDBE7144CFAE400223FE74C463E1C203CA9
:402AC000E6404946341C202932D04026761AB7403D436F1EBD4100272543A8E680270026FF03084C00257CE53D436F1EBD410027EDB283E7171C019D024CD7E4171C019DE2
:402B0000D4E4C046FF070000FFFF7FFF54463B1C203CE3401C1C5346202B0DD0402351465B1A9F403D436F1EBD410027254365E70027CDE70D1CC8E50027F3E70B0330B513
:402B4000134C1A0B4B00051C5B0DC90F0020A34210DD104883420EDC80200F4C40030243E41A1F2C0ADD0D48C31ADA40131C48424340581830BD0A4BC818FBE7281CE04019
:402B8000084CA44663449A40131C0343EFE7C046FE0300001D0400003304000013040000FFFFFF7FEDFBFFFF10B5041E10D000F06BF8144A121A0A281ADC0B23211C1B1AC7
:402BC000D94015300B03520584401B0B520D01E00022002300211B03201C1C0B0B0D1B052343094C1205234013435B00590810BD031C0B3B9C40520523031B0B520D00244E
:402C0000E8E7C0461E040000FFFF0F808446101C62468C46191C634600E0C0461FB500F005F9002801D40021C8421FBD10B500F049F84042013010BD10B500F0F7F80028D4
:402C400001DB002010BD012010BDC04610B500F0EDF8002801DD002010BD012010BDC04610B500F073F8002801DC002010BD012010BDC04610B500F069F8002801DA0020D7
:402C800010BD012010BDC0461C2101231B04984201D3000C10391B0A984201D3000A08391B09984201D30009043902A2105C40187047C04604030202010101010000000066
:402CC00000000000F0B55F464D4644465646F0B41F035C00DB0F99461B4B0E034D00C90F8446360B6D0D8B4690463F0B640D9D420CD0154B9C4210D00123A54214D0181C67
:402D00003CBC90469946A246AB46F0BD311C01230143F4D10C4B9C42EED13A430123002AEDD10123A542EAD1BE42E8D1C445E6D1CB4506D0002DE2D13043031C581E834198
:402D4000DDE70023DBE7C046FF070000F0B5574645464E46E0B40F034E00C90F8A4632491D035C0084463F0B760D90462D0B640DDB0F8E420FD08C4239D0002E10D138439A
:402D8000414241418946002C27D12A4325D1002000290ED108E0391C01432ED1B44226D0002C0BD09A450DD05346594201231943081C1CBC90469946A246F0BD2A43F3D037
:402DC0009A45F1D1A642EFDC1ADA504641424841012341421943081CEBE74A46002AE1D058425841012241421143081CE1E7291C114302D1002EC2D0D4E702204042D8E722
:402E0000AF42D1D809D00020AF42D2D2504641424841012340421843CBE7C445C4D80020C445F3D3C5E7C046FF070000F0B55F464D46444656468046F0B4061C0803000B24
:402E400084462C484C001F035D00C90F640D8B4691463F0B6D0DDB0F844212D0854225D0002C14D161460E4370424641002D35D0002E21D058425841012143420B43181C57
:402E80000EE06146022031430AD1A5420ED0002D12D13A4310D15B46594201231943081C3CBC90469946A246AB46F0BD391C02201143F5D1002CD5D09B45ECD1AC42EADC13
:402EC00005DBBC45E7D80FD00020BC45E8D2584641424841414201200843E1E73A43C7D10020002EDCD1D6E7C845D4D80020C845EDD3D5E7FF070000014B18687047C04659
:402F0000540100200E4B70B500251E1C0D4CE41AA410A54204D0AB00F35898470135F8E700F090FD084B00251E1C084CE41AA410A54204D0AB00F35898470135F8E770BD88
:402F4000503A0000503A0000503A0000583A0000002310B5934203D0CC5CC4540133F9E710BD031C8218934202D019700133FAE7704700000EB410B59DB002A90290086141
:402F80000B48822488604861012040421FABC881084804CBA400006801938C8100F080F80023029A13701DB010BC08BC03B01847FFFFFF7F54010020021C10B51378002B62
:402FC00001D00132FAE7CC5CD4540133002CFAD110BD0023C25C0133002AFBD1581E7047F0B58E6885B0071C0C1C03920193B34245D390238A89DB001A423DD00325096917
:40300000236801985B1A029363695D43EB0F5D19029B6D1001331B189D4200D21D1C381C53050FD5291C00F01DFB061E13D0029A2169FFF78DFFA289184B134080221343B6
:40304000A38111E02A1C00F065FB061E0CD1381C216900F0C1FA0C23402201203B60A38940421343A38117E0029B2661F61826606561019EED1AA560019BB34200D2019E84
:40308000321C2068039900F092FA0020A3689B1BA36023689E19266005B0F0BD7FFBFFFFF0B59FB0029005938B890E1C171C1B0610D50B69002B0DD1402100F0D3FA3060DC
:4030C0003061002804D10C23029A01381360D0E040237361002306AD6B6120336B761033AB763C1C2378002B03D1E31B049312D003E0252BF9D00134F4E7049B0298311CAF
:403100003A1CFFF76DFF431C00D1ACE06A69049B944663446B612378002B00D1A3E00122002352426A6002A95432521801342B60EB60AB601370AB654F4F2178381C0522A8
:4031400000F02AFA002808D0C01B01278740381C2B68013418432860EEE72B68DA0604D55322202102A8121811701A0704D553222B2102A81218117022782A2A01D0099BD3
:403180000EE0059A111D12680591002A01DB099204E05242EA60022213432B60013409E02278303A092A04D80A214B4301349B18F6E7099323782E2B18D163782A2B09D1AA
:4031C000059B02341A1D1B680592002B0DDA01235B420AE0002301342278303A092A04D80A214B4301349B18F6E70793234F2178381C032200F0D0F9002807D0C01B4027EA
:403200008740381C2B6801341843286021781C480622671C297600F0BFF9002812D0194B002B06D10722059B073393430833059314E005AB00930298291C321C124B00E01C
:4032400000BF07E005AB00930298291C321C0E4B00F08AF80390039B013304D06B69039A9B186B613DE7B3890B985B0601D5012040421FB0F0BDC0460E3A0000143A00004F
:40328000183A000000000000E12F0000F7B5171C01930A698B6800900C1C934200DA131C221C3B6043321278002A01D001333B6023689B0602D53B6802333B60062523686F
:4032C0001D401ED0231C43331B785A1E9341226892061CD53020E1184031C870211C5A1C45310978A21840320233D1700FE0221C0123009801991932089EB047431C0ED0F6
:403300000135E3683A689B1A9D42F0DBDAE7221C009801994332089DA847431C02D10120404220E006232068E1683A6803400025042B03D18D1AEB43DB171D40A36822693B
:40334000934201DD9B1AED180027AF420ADA221C0123009801991A32089EB047431CDED00137F2E70020FEBDF0B58BB006920A1C43320793059004920A7E0C1C109B6E2AA3
:4033800000D1A8E011D8632A22D009D8002A00D1B2E0582A00D0C2E045310A707C4A4FE0642A1DD0692A1BD0B9E0732A00D1A7E009D86F2A29D0702A00D0B0E0202209685E
:4033C0000A43226037E0752A1FD0782A33D0A6E00E1C1A684236111D196013683370A1E021681A68080606D4490604D5111D19600023D55E02E0111D19601568002D3BDA64
:403400002D23049A6D42137036E021681A68080606D4490604D51568111D1960ADB202E0111D196015685A4B227E03930A276F2A1DD108271BE0221C782145321170554A87
:4034400019680392081D226818600D68100602D4500600D5ADB2D30702D520231A4322601027002D03D1202322689A432260231C002243331A7002E00A27454B0393636888
:40348000A360002B03DB0422216891432160002D02D1049E002B0ED0049E281C391CFEF785FC039B013E5B5C281C3370391CFEF7F7FB051EF1D1082F09D12368DB0706D5AB
:4034C00063682269934202DC3023013E3370049B9B1B23612BE009681A68080607D4490605D5111D19601368A28A1A8004E0111D1960136862691A600023049E236116E033
:403500001A68111D196016680021301C626800F043F8002801D0801B6060636803E0261C42363270012323610023049A1370079B05980093211C069B09AAFFF7A7FE431CDB
:4035400002D10120404221E0236905980699321C079DA847431CF4D023689B0705D4099BE068984212DA181C10E00025E368099A9B1A9D42F3DA221C0123059806991932CF
:40358000079EB047431CDCD00135EFE70BB0F0BD1F3A0000303A0000C9B28218904204D003788B4202D00130F8E70020704710B5814208D28B18984205D29B1A013A09D3EF
:4035C000995C8154FAE70023934203D0CC5CC4540133F9E710BD000030B500293ED004390B68002B00DAC9181D4A1368141C002B02D14B60116031E099420DD208680A18F9
:403600009A4203D11368C3180B6053684B60216024E08A4203D8131C5A68002AF9D11D685C198C420BD10968691858181960904214D110685268091819605A600EE08C422A
:4036400002D90C23036009E008680C18944203D114685268001908604A60596030BDC046BC050020032370B5CC1C9C430834051C0C2C01D20C2405E0002C03DA0C230020E1
:403680002B6042E08C42F9D3204A1368101C191C002913D00A68121B0DD40B2A02D90A608B181FE08B4202D15A6802601BE04A685A600B1C17E00B1C4968E9E7144E3368E7
:4036C000002B03D1281C00F04BF83060281C211C00F046F8031C421CD0D00322C61C964386420AD11C60181C07210B301A1D8843821A0AD05142995007E0311A281C00F008
:403700002FF8431CBAD0331CECE770BDBC050020B8050020F8B5061C0C1C151C002904D1111CFFF79FFF041C18E0002A03D1FFF753FF2C1C12E000F025F8A8420ED2301CCA
:40374000291CFFF78FFF071E07D0211C2A1CFFF7FFFB301C211CFFF73FFF3C1C201CF8BD38B50023064C051C081C2360FDF7ACFA431C03D12368002B00D02B6038BDC04608
:40378000E80600200B1F1A68101F002A04DA891804390B68D0180438704700000000000074696D652073656E6420646174612025750A0D00253032583A2530313658253066
:4037C0003258253032582530325800006F75742064617461202D20000A0D000020202020202020524541442044415441204F4B45590000004552524F522052454144212155
:4038000021210000253032583A253031364C5825303458253032580041000000460000006A090000BA050000140600003A06000096060000BC0600003C0700009E070000B4
:40384000FE07000024080000A0080000253034580000000025303858000000003C00000021000000400000003E00000000300F40000400400F40000401000F403A300F40AF
:403880001C310F4019320F400D330F4004420F4002600F40820D403149FF4AFF4BFF4F01501856085A0B5B045D995F016040624064406540668068806A806C806E8082272C
:4038C0008C0F9401960898029A18AC04AE18B008B207B420B610BA02BE40C031C9FFCAFFCBFFCD83CE03CF01D018D280D80BDA0BDB0ADC09DD99DF01E040E240E440E54089
:40390000E680E880EA80EC80EE80044007400BC00D080E0816021C501D081E081F40401042024508460258A0600262A0774078027EA08CA0C090C260C480D05AD60CD80C20
:40394000DEC1403145EC4720482349FF4AFF4BFF4D834E034F01501854015A0B5B0B5D995F016040624064406540668068806A806C806E80450846024F0556025F457E800A
:4039800093409E02A108A280D050D6D0DE8024508C50C801E20A020111010000030405060708090A0B0C0E0F101112131415161718191B1C1D1E1F2021222325262728297C
:4039C0002A2B2E2F3031323334350000D41F0000C21E0000A81F0000AE1E0000A81F0000B21F0000A81F0000AE1E0000C21E0000C21E0000B21F0000AE1E0000B81E000022
:403A0000B81E0000B81E00001A2200004300232D302B2000686C4C006566674546470030313233343536373839414243444546003031323334353637383961626364656668
:403A400000000000F8B5C046F8BC08BC9E46704751020000B10D0000F8B5C046F8BC08BC9E46704729020000783A0000C8000020900000009805000000000000F0060020A1
:403A8000050000000100000000010440006CDC0280BB0000300000000000C05DF00000000404040000000000000000000000000000000000000000000000000000000000ED
:403AC000000000000C3A0000000000000000000000000000000000000000000000000000000000000000000000000000000000000000000000000000000000000000000080
:403B000000000000F4000020000000000000000000000000000000000000000000000000000000000000000000000000000000000000000000000000000000000000000071
:403B40000000000000000000000000000000000000000000000000000000000000000000000000000000000000000000000000000000000000000000000000000000000045
:403B80000000000000000000000000000000000000000000000000000000000000000000000000000000000000000000000000000000000000000000000000000000000005
:403BC00000000000000000000000000000000000000000000000000000000000000000000000000000000000000000000000000000000000000000000000000000000000C5
:403C00000000000000000000000000000000000000000000000000000000000000000000000000000000000000000000000000000000000000000000000000000000000084
:020000040001F9
:0200000490303A
:020000008E541C
:0200000490402A
:4000000000000000000000000000000000000000000000000000000000000000000000000000000000000000000000000000000000000000000000000000000000000000C0
:400040000000000000000000000000000000000000000000000000000000000000000000000000000000000000000000000000000000000000000000000000000000000080
:0200000490501A
:0C00000000020E34119E00010E479FF21A
:0200000490600A
:0100000001FE
:00000001FF