:400000000040002011000000D5280000D528000080B500AF02F08CFC80B500AF404B12221A6002F05DFF3F4B181C04F049FE012002F066FF302002F091FD3B4B8022D2054C
:400040001A603A4B394A126802210A431A60384B384A1A60384B00221A60384B374A126808218A431A60FA23DB00181C02F0C2FD334B181C02F0D8FE324BB722D2021A6013
:40008000314B324A1A60324B324A1A602E4B324A1A60324B2F4A1A602B4B314A1A60314BF02212011A60284B2F4A1A602F4B304A1A60254B2F4A1A602F4B822212061A600F
:4000C0002E4B8022D2021A602D4B41221A602D4B44221A602C4B43221A602C4B40221A602B4B42221A602B4B0820191C02F0CCFD082002F043FE284B284A1A600A4B284ADE
:400100001A60284B284A1A60C046264B1B68264A1340FAD1234B0222FF321A60BD4680BD30001040001BB7000C020B4078002E407C002E402D3E000064F02E406CF02E406F
:40014000DC050000040301400000014041FF008010030140007FBB0044FF00800C03014043FF00800003014040FF0080080301400082060042FF008008010B4000010B40BA
:4001800024010140200101401C01014018010140040101409130000008020B402000FFFF0505004010020B400808000080B582B000AF72B6474B00221A60474B01221A70E3
:4001C000FB1D00221A7023E0FB1D1A78131C5B009B185B00414A9B183B603B681A78597809020A43997809040A43DB781B061343191C3B681A795B791B0213439BB2081C67
:40020000191C02F019FCFB1D1A78FB1D01321A70FB1D1B78012BD7D9314A324B101C191C02F01AFC304B314A1A60314B992212041A60304B992212041A602F4B99221204D3
:400240001A602E4B992212041A602D4B02221A602C4B02221A602C4A2B4B1B78DBB202210B43DBB21370294A284B1B78DBB23C218B43DBB214210B43DBB21370224A224B5E
:400280001B78DBB216210B43DBB21370204B20221A60204B204A1A60204B20221A60204B84221A601F4B204A1A60204BC322D2011A601F4B07221A601E4B1F4A1A601F4BB3
:4002C00001221A60FFF7A8FE02F006FCBD4602B080BDC0466CF02E401C700F4044C6000050C6000060C6000000000240000099EE00500F4010500F4020500F4030500F4049
:400300002000104000800F4000700F4001700F4000000440080004403610DB0018000440000104400801044086609B00080204400003044008030440906C0300180304409D
:4003400010B5064C2378002B07D1054B002B02D0044800E000BF0123237010BD6809002000000000C8B9000008B5084B002B03D00748084900E000BF07480368002B00D1F7
:4003800008BD064B002BFBD09847F9E700000000C8B900006C090020C80000200000000080B500AF0C4B1B8801339AB20A4B1A80094B1A88FA239B009A420AD1064B00224F
:4003C0001A8003F0A9F9012004F058F8002004F055F8BD4680BDC0469009002080B582B000AF064B7B6003F0D1F87B680020191C02F02EFEBD4602B080BDC046A103000019
:4004000098B500AF03F05AF9031C0C1C181C211CBD4698BD80B500AF024B1B88181CBD4680BDC04690090020B0B582B000AF78600A1CBB1C1A80074BBA1C12881A807B686F
:400440001C1C00231D1C201C291C03F01DF9BD4602B0B0BD9009002080B584B000AF78607B68702213401A09131C9B009B185B00FB607B680F221340FA68D318FB60FB6803
:40048000181CBD4604B080BD80B584B000AF78607A68E023DB0113401A0B131C9B009B185B00FB607A68F0231B0113401B0AFA68D318FB60FB68181CBD4604B080BDC046F6
:4004C00080B584B000AF78607A68C0239B0313401A0D131C9B009B185B00FB607A68F0231B0313401B0CFA68D318FB60FB68181CBD4604B080BDC04680B582B002AF0020FE
:4005000004F00AFA462000F0CBF9094B181C00F079FC00F043FA074A3023009300200021542300F0EBFC00F00DFABD4680BDC04608BA0000C8C2000090B587B000AF78603D
:400540000C23FB181B4A03CA03C31188198092789A70194A7B68101C191C0B2207F022F97B68181C07F0BAF8021C1723FB181A701723FB181B780A2B0DD81723FB181B7886
:400580000B22D31A1C1C0C4A0C23FB18101C191C221C07F0D7F8094B181C00F033FC064B181C0821282200F087FA00F0CBF9BD4607B090BDD8B900009809002008BA00000D
:4005C00080B584B002AF021CFB1D1A70FB1D1B78002B08D1134A2323009301200321062300F08CFC18E001200321232200F05AFC02200321232200F055FC03200321232236
:4006000000F050FC04200321232200F04BFC05200321232200F046FC00F094F9BD4602B080BDC046C0C40000B0B584B002AF154B181C00F0E7FB03F04DF8031C7B607B683C
:40064000181CFFF73DFF051C7B68181CFFF71CFF041C7B68181CFFF7FFFE011C0A4A0B4B0091101C191C2A1C231C06F0E5FF064B181C0A21002200F01FFA00F063F9BD465F
:4006800002B0B0BD08BA000098090020E4B9000090B585B000AF78607868002104F07CFD031E00D09AE00F23FB1800221A700FE00F23FB181B784D33181C0421232200F05B
:4006C000F1FB0F23FB181A780F23FB1801321A700F23FB181B78042BEAD9786806F0C2FC031C0C1C181C211C3E4A3F4B04F02EFD031E0ED04F201F21072200F0A7FB502015
:400700001F21072200F0A2FB51201F21072200F09DFB786806F0A6FC031C0C1C181C211C324A334B04F012FD031E0ED04F201621072200F08BFB50201621072200F086FBAF
:4007400051201621072200F081FB786806F08AFC031C0C1C181C211C264A274B04F0F6FC031E13D04E200D21072200F06FFB4F200D21072200F06AFB50200D21072200F06B
:4007800065FB51200D21072200F060FB786806F069FC031C0C1C181C211C184A184B04F0D5FC031E18D04D200421072200F04EFB4E200421072200F049FB4F20042107229F
:4007C00000F044FB50200421072200F03FFB51200421072200F03AFB00F0B4F8BD4605B090BDC0469A9999999999D93FE17A14AE47E1DA3F295C8FC2F528DC3F713D0AD7AD
:40080000A370DD3F80B582B000AF021CFB1D1A700B4B181C00F0F6FAFB1D1B78002B06D0084B181C2B211F2200F046F905E0064B181C2B211F2200F03FF9BD4602B080BD49
:40084000ACBF0000F8B9000000BA000080B500AF012004F061F8BD4680BDC04680B582B000AF021CFB1D1A70BB1D0A1C1A70BB1D1B78002B03D1002004F028F802E001200B
:4008800004F024F8002003F0D5FFFB1D1B78181C03F074FC012003F0CDFFBD4602B080BD80B582B000AF78607B687F2B01DD7F237B607B68002B01DA00237B60002003F05D
:4008C000DFFF012003F0DCFF21200021FFF7C6FF7B68DBB21A1C80235B421343DBB2DBB2181C0021FFF7BAFF06200021FFF7B6FF13200021FFF7B2FF20200021FFF7AEFFC3
:4009000040200021FFF7AAFF80200021FFF7A6FF0C200021FFF7A2FF00F040F800F012F8054B00221A60054B00221A70044B7A681A60BD4602B080BDA4100020A80E002006
:40094000B010002080B582B000AF124B1B7801225340DBB2002B1AD040200021FFF77EFF80200021FFF77AFF00237B600AE00A4A7B68D3181B78181C0121FFF76FFF7B68DB
:4009800001337B607A68F823FF339A42EFDDBD4602B080BDA80E0020AC0E002080B582B000AF00237B6007E0074A7B68D31800221A707B6801337B607A68F823FF339A42EC
:4009C000F2DDBD4602B080BDAC0E002080B584B000AF021CBB1D1A803B1D0A1C1A80BB1D1B88532B26D83B1D1B882F2B22D83B1D1B88DB089BB21A1C54235A43BB1D1B8866
:400A0000D318FB603B1D1B8807221340BB600B4AFB68D3181B78D9B20122BB689A40131CDBB20A1C1343DBB2D9B2044AFB68D3180A1C1A70BD4604B080BDC046AC0E00208D
:400A400080B584B000AF021CBB1D1A803B1D0A1C1A80BB1D1B88532B28D83B1D1B882F2B24D83B1D1B88DB089BB21A1C54235A43BB1D1B88D318FB603B1D1B8807221340BF
:400A8000BB600C4AFB68D3181B78D9B20122BB689A40131CDBB2DB43DAB20B1C1340DBB2D9B2044AFB68D3180A1C1A70BD4604B080BDC046AC0E002080B586B000AFF860AF
:400AC000B9607A60FB68181C06F008FE031C3B61BB681C4A934207D11B4B1B791A1C3B6953435422D31ABB60BB68184A93420AD1154B1B791A1C3B6953435422D31A00D5C6
:400B000001335B10BB6000237B6113E0FB685A1CFA6019780C4B1B791A1C7B695A43BB68D2187B68081C111C1A1C00F011F87B6901337B617A693B699A42E7DBBD4606B061
:400B400080BDC0460F270000A41000200E27000080B58EB000AFB9607A600F23FB18021C1A70A74B5B7907221340DBB2002B00D0ADE00F23FB181B78A14A92799B1AA04A2D
:400B80001279111C9E4A5279D208D2B24A43534304337B6100237B638FE000233B6382E00023FB6279E0964B1B6879693A6B8918934A1279101C7A6B42438A189B181B7858
:400BC0001A1CFB6A1A41131C0122134031D08C4B1B7A002B16D1BB689AB23B6B9BB2D31899B27B6B9BB2DB009AB27B689BB2D3189AB2FB6A9BB2D3189BB2081C191CFFF749
:400C0000E5FE47E0BB689AB23B6B9BB2D31899B27B6B9BB2DB009AB27B689BB2D3189AB2FB6A9BB2D3189BB2081C191CFFF708FF30E0734B1B7A002B16D1BB689AB23B6B87
:400C40009BB2D31899B27B6B9BB2DB009AB27B689BB2D3189AB2FB6A9BB2D3189BB2081C191CFFF7EDFE15E0BB689AB23B6B9BB2D31899B27B6B9BB2DB009AB27B689BB2F5
:400C8000D3189AB2FB6A9BB2D3189BB2081C191CFFF79CFEFB6A0133FB62FB6A072B82DD3B6B01333B63564B1B791A1E3B6B9A4200DD75E77B6B01337B63514B5B79DB0853
:400CC000DBB21A1E7B6B9A4200DD66E795E00F23FB181B784A4A92799A1A494B1B79191C474B5B794B43002B00DA0733DB1053430433BB62424B1A68BB6AD3181B787B62AF
:400D000007233B620023FB6171E00023BB6165E07A6A3B6A1A41131C0122134025D0384B1B7A002B10D1BB689AB2FB699BB2D31899B27B689AB2BB699BB2D3189BB2081CA4
:400D4000191CFFF743FE35E0BB689AB2FB699BB2D31899B27B689AB2BB699BB2D3189BB2081C191CFFF76CFE24E0254B1B7A002B10D1BB689AB2FB699BB2D31899B27B68BD
:400D80009AB2BB699BB2D3189BB2081C191CFFF757FE0FE0BB689AB2FB699BB2D31899B27B689AB2BB699BB2D3189BB2081C191CFFF70CFE3B6A013B3B623B6A002B0ADAF2
:400DC00007233B62BB6A0133BB620D4B1A68BB6AD3181B787B62BB690133BB61084B5B791A1EBB699A4293DCFB690133FB61044B1B791A1EFB699A4287DCBD460EB080BD6A
:400E0000A410002080B582B000AF78600E4B7A681A600D4B1B681A780B4B1A710A4B1B685A78094B5A71084B1B689A78064B9A71054B1B68DA78044BDA71034B00221A7225
:400E4000BD4602B080BDC046A410002080B586B000AFF860B9607A60FB68002B1EDBFB68532B1BDCBB68002B18DBBB682F2B15DC00237B610EE0FB6899B2BB689AB27B6945
:400E80009BB2D3189BB2081C191CFFF79FFD7B6901337B617A697B689A42ECDBBD4606B080BDC04680B586B000AFF860B9607A60FB68002B1EDBFB68532B1BDCBB68002B57
:400EC00018DBBB682F2B15DC00237B610EE0FB6899B2BB689AB27B699BB2D3189BB2081C191CFFF7ADFD7B6901337B617A697B689A42ECDBBD4606B080BDC04680B588B05F
:400F000000AFF860B9607A603B600023FB6152E0FB692C4A134004D5013B08225242134301337B610023BB613EE0FB69002B00DA0733DB101A1C3B685A43BB69D3181A1C5F
:400F40007B689A181323FB1812781A701323FB181B7801217A6991400A1C1340002B10DDFB689AB2BB699BB2D31899B2BB689AB2FB699BB2D3189BB2081C191CFFF726FD1C
:400F80000FE0FB689AB2BB699BB2D31899B2BB689AB2FB699BB2D3189BB2081C191CFFF74FFDBB690133BB61BA693B689A42BCDBFB690133FB61FA69BB6A9A42A8DBBD466E
:400FC00008B080BD0700008098B500AF03F072F9094B01221A60FFF713FA031C0C1C074A13605460FFF716FA021C054B1A6003F06BF9BD4698BDC0460C0A0020000A002065
:40100000080A002080B500AF03F05EF9054B181C03F000F903F04EF9034B00221A60BD4680BDC046C90F00000C0A002080B582B000AF054B1B687B60034B00221A607B68D7
:40104000181CBD4602B080BD0C0A002080B500AF03F03AF903F024F9BD4680BD80B500AF054B00221A6002F0B9FD03F02DF903F021F9BD4680BDC0460C0A002090B583B028
:4010800000AF78603960064B5C681B687A6813605460044B1A683B681A60BD4603B090BD000A0020080A002080B500AF02F0AEFD064B1B78002B03D1054B181C02F020FE2A
:4010C000024B01221A70BD4680BDC046B4100020D510000080B500AF03F0BCFD031CDB43DBB2181C03F090FD022002F0FDFDBD4680BDC04680B582B000AF021CFB1D1A70AF
:40110000BB1D0A1C1A7002F0A1FDFB1D1B78181C03F07AFDBB1D1B78181C03F0A9FDBD4602B080BD80B584B000AF78600A1CFB1C1A70FB1C1B78FB600C4B1B68002B01D191
:4011400000F03AF87A68FB685340BB607B681A0ABB68FF211940064B8900CB5853407B607B68181CBD4604B080BDC046100A0020140A002080B586B000AFF860B9607A605E
:401180007B683B6100237B610DE0FA687B69D3181B783A69101C191CFFF7C4FF031C3B617B6901337B617A69BB689A42EDD33B69181CBD4606B080BD80B584B000AF0023E9
:4011C000FB601FE0FB687B600023BB600FE07B680122134005D07B685B080F4A53407B6002E07B685B087B60BB680133BB60BB68072BECDD094BFA6892007968D150FB68AF
:401200000133FB60FB68FF2BDCDD054B01221A60BD4604B080BDC0462083B8ED140A0020100A0020F0B599B004AFF8610A1C1B23FB181A700023FB641B23FE181B23FB1810
:401240001B78181C00F020FA031C33701B23FB181B783C2B19D1C44B01221A70FB69181C00F054FAC14B00221A70C14B00221A70C04B00221A70C04B00221A70BF4B00220A
:401280001A70BF4B00221A70EFE1B74B1B780A2B00D9E6E19A00BB4BD3181B689F461B23FB181B78181C00F017FA031E1ED0FB691A881B23FB181B789BB213439AB2FB695C
:4012C0001A80AA4B1B780133DAB2A84B1A70A74B1B78042B03D1A44B02221A70C5E1FB691B881B019AB2FB691A80BEE19E4B00221A700123FB64B8E11B23FB181B78212BD7
:4013000003D1994B03221A70AFE1FB69181C00F0FDF90223FB64944B00221A70A5E11B23FB181B78181C00F0D7F9031E1BD0FB695A681B23FB181B781A43FB695A608C4B63
:401340001B780133DAB28A4B1A70894B1B78022B03D1854B04221A7087E1FB695B681A01FB695A6081E1FB69181C00F0CFF97E4B00221A700323FB6477E11B23FB181B7823
:401380003A2B03D1784B05221A706EE1FB69181C00F0BCF90423FB64734B00221A7064E11B23FB181B78181C00F096F9031E2DD0FB699A68DB681B2179180978C9B23961FE
:4013C0000021796139691143B96079691943F960FB69B968FA689960DA60674B1B780133DAB2654B1A70644B1B78102B03D15E4B06221A7039E1FB699A68DB68110F1D0146
:401400000D431401FB699C60DD602EE1FB69181C00F07CF90523FB64534B00221A7024E11B23FB181B78181C00F056F9031E1ED0FB691A8A1B23FB181B789BB213439AB287
:40144000FB691A824D4B1B780133DAB24B4B1A704A4B1B78042B03D1434B07221A7004E1FB691B8A1B019AB2FB691A82FDE0FB69181C00F04BF90623FB643B4B00221A703C
:40148000F3E01B23FB181B78181C00F025F9031E1ED0FB695A8A1B23FB181B789BB213439AB2FB695A82364B1B780133DAB2344B1A70334B1B78042B03D12B4B08221A70AE
:4014C000D3E0FB695B8A1B019AB2FB695A82CCE0FB69181C00F01AF90A23FB64224B00221A70C2E01B23FB181B78402B03D11E4B09221A70B9E0FB69181C00F007F907232E
:40150000FB64194B00221A70AFE01B23FB181B78181C00F0E1F8031E1BD0FB695A691B23FB181B781A43FB695A61124B1B780133DAB2104B1A700F4B1B78082B03D10A4B5B
:401540000A221A7091E0FB695B691A01FB695A618BE0FB69181C00F0D9F80823FB64024B00221A7081E0C046BA100020B8100020B5100020B6100020B7100020B9100020C7
:40158000BB10002014C500001B23FB181B783E2B5DD1FB695A68FB69DC689B6823003B6000237B603E68FB69DC689B681D1CFB691B8A1C1CFB695B8A181C08231821791822
:4015C000C9182D4B009501940290081C191C331C06F032F801235B42BB64284ABB6C101C01211A1CFFF7C6FD031CBB64082318229446BC446344181C06F070F8011C08235A
:401600001822BA18D218BB6C101C1A1CFFF7B2FD031CBB641A4ABB6C101C01211A1CFFF7A9FD031CBB64BB6CDB43BB64FB695A69BB6C9A4205D1FB6901221A760023FB6462
:401640000BE0FB6900221A760A23FB6405E00923FB64FB69181C00F059F80A4B00221A7003E0FB69181C00F051F8FB6CDBB2181CBD4615B0F0BDC046F4C400000CC50000B3
:4016800010C50000BA10002080B582B000AF021CFB1D1A70FB1D1B78402B09D9FB1D1B78462B05D8FB1DFA1D1278373A1A700CE0FB1D1B782F2B08D9FB1D1B78392B04D833
:4016C000FB1DFA1D1278303A1A70FB1D1B78181CBD4602B080BDC04680B584B000AF021CFB1D1A700F23FB1801221A70FB1D1B780F2B03D90F23FB1800221A700F23FB18A5
:401700001B78181CBD4604B080BDC04690B583B000AF78607B6800221A807B6800225A607A68002300249360D4607B6800221A827B6800225A827B6800225A617B680022F4
:401740001A76BD4603B090BD80B590B000AFF860B960BB1D1A80BB68FB63BB1D1B882422B918474A081C111C1A1C05F065FF01235B42BB63434ABB6B101C01211A1CFFF73F
:40178000F9FC031CBB63FB6B181C05F0A7FF011CFA6BBB6B101C1A1CFFF7ECFC031CBB63394ABB6B101C01211A1CFFF7E3FC031CBB63BB6BDB43BB631023F918334ABB6B15
:4017C000081C111C1A1C05F037FFFA68304B111C1A1C0223081C111C1A1C05F08FFEFA682423FB18101C191C05F048FFFB68181C05F074FF031C1A1CFB689A18254B111C6A
:401800001A1C0223081C111C1A1C05F077FEFA68FB6B101C191C05F031FFFB68181C05F05DFF031C1A1CFB689A181B4B111C1A1C0223081C111C1A1C05F060FEFA6810235F
:40184000FB18101C191C05F019FFFB68181C05F045FF031C1A1CFB689A18104B111C1A1C0223081C111C1A1C05F048FEFB68181C05F034FF031CDBB2181CBD4610B080BD69
:4018800040C500000CC5000010C5000048C5000050C5000054C5000058C500005CC5000090B585B000AF78600A1CFB1C1A700B23FB18FA1C12781A700023FB60FC1CFB1C24
:4018C0001B78181C00F020F9031C2370884B1B78072B00D906E19A00864BD3181B689F467B68181C00F052F9834B00221A70834B00221A70824B00221A70824B00221A7018
:40190000FB1C1B783C2B02D1794B01221A70E9E0FB1C1B78181C00F01FF9031E1DD07B681A88FB1C1B789BB213439AB27B681A80714B1B780133DAB26F4B1A706E4B1B785B
:40194000042B03D16A4B02221A70CBE07B681B881B019AB27B681A80C4E0654B00221A700123FB60BEE0FB1C1B78212B03D1604B03221A70B6E07B68181C00F007F90223E8
:40198000FB605B4B00221A70ACE0FB1C1B78181C00F0E2F8031E1AD07B685A68FB1C1B781A437B685A60574B1B780133DAB2554B1A70544B1B78082B03D14D4B04221A7052
:4019C00090E07B685B681A017B685A608AE07B68181C00F0DBF80323FB60454B00221A7080E0FB1C1B78181C00F0B6F8031E1DD07B681A89FB1C1B789BB213439AB27B682C
:401A00001A813F4B1B780133DAB23D4B1A703C4B1B78032B03D1364B05221A7062E07B681B891B019AB27B681A815BE07B68181C00F0ACF80423FB602D4B00221A7051E062
:401A4000FB1C1B78402B03D1294B06221A7049E07B68181C00F09AF80523FB60244B00221A703FE0FB1C1B78181C00F075F8031E1AD07B68DA68FB1C1B781A437B68DA6049
:401A80001E4B1B780133DAB21C4B1A701B4B1B78082B03D1164B07221A7023E07B68DB681A017B68DA601DE07B68181C00F06EF80623FB600E4B00221A7013E0FB1C1B7874
:401AC0003E2B05D17B6801221A740023FB6005E00723FB607B68181C00F058F8044B00221A70C046FB68DBB2181CBD4605B090BD140E002060C50000BE100020BC10002069
:401B0000BD100020BF10002080B582B000AF021CFB1D1A70FB1D1B78402B09D9FB1D1B78462B05D8FB1DFA1D1278373A1A700CE0FB1D1B782F2B08D9FB1D1B78392B04D891
:401B4000FB1DFA1D1278303A1A70FB1D1B78181CBD4602B080BDC04680B584B000AF021CFB1D1A700F23FB1801221A70FB1D1B780F2B03D90F23FB1800221A700F23FB1820
:401B80001B78181CBD4604B080BDC04680B582B000AF78607B6800221A807B6800225A607B6800221A817B680022DA607B6800221A74BD4602B080BD80B500AF0A4B1B78E8
:401BC0000133DAB2084B1A70074B1B780A2B08D1064B00221A60064B00221A75024B00221A70BD4680BDC046240E0020180E0020C810002080B582B000AF02F0F5F80E4B49
:401C0000181C02F003F90D4B7B607B680120191C01F01EFA0A4B0022DA740A4B01221A75084BFF221A70084B00221A6002F050F9BD4602B080BDC0464D1C0000B91B0000E4
:401C4000F8100020C8100020180E002090B583B000AFFB1D00221A70444B1B78002B39D002F016F9031E04D002F04EFA021CFB1D1A703F4B1B78002B00D173E0FB1D1B78B6
:401C8000002B00D16EE03B4AFB1D1B78101C191CFFF706FE374B1B7C002B63D001F00EFD031C0C1C1A1C344B5A60FEF7B3FB031C9AB2324B5A802F4B5A682F4B1A602D4B19
:401CC0001A892E4B1A802E4B01221A70284B00221A7047E02B4B1B7D012B43D12A4BDB7C002B3FD102F0D4F8031E04D002F00CFA021CFB1D1A70FB1D1B78002B32D0234ABD
:401D0000FB1D1B78101C191CFFF78CFA1F4B1B7E002B27D01D4B1B88DAB21B4B1A701A4B0122DA74174B00221A75194B01221A60184B00221A70154B5B8A1B02DAB2124B2B
:401D4000DA70124B1B8A1B0A9BB2DAB20E4B5A700E4B1B8ADAB20C4B9A700C4B5B68DAB2094B9A74BD4603B090BDC046250E0020F4100020E0100020101100204C110020B5
:401D800049110020C8100020F810002028110020180E0020240E0020F0B5A1B004AF384B1B7D002B03D0374BDB7C012B64D1354B1878334B1B7898420AD1334B181C02F022
:401DC000C3F92F4B01221A752E4B0022DA7453E02B4BDB7C7B602A4BDC689B68210000231A1C0E1C264BDC689B681D1C244B1B8A1C1C234B9B7C181C214B5B7D191C342311
:401E00000822BA18D218214B0095019402900391101C191C7A68331C05F00EFC194B1B789BB20822B918342208208446BC446244081C111C1A1CFFF787FC0823FB18181CD0
:401E400002F082F9302002F073F80D4B00229A740B4B01221A750B4B1A78094B1A70094B0022DA74084A0823FB18101C191C05F02DFC322000F0B4FFBD461DB0F0BDC046A7
:401E8000C8100020F81000205411002080C5000080B500AF024B1B68181CBD4680BDC046180E002090B585B000AFB860F9607A60074ABB68FC689360D4607B689AB2044BD3
:401EC0001A82034B01229A74BD4605B090BDC046C810002080B500AF024B5B78181CBD4680BDC046F810002080B582B000AF074B9B7C012B02D100237B6001E001237B60C2
:401F00007B68181CBD4602B080BDC046C810002080B582B000AF0D4B9B78012B09D10C4B5B7D002B05D1FF237B60084B00229A7007E0074B00225A75044B00229A70FE23A1
:401F40007B607B68181CBD4602B080BDF8100020C810002080B500AF024B01225A75BD4680BDC046C810002080B500AF034B00229A70034B00225A75BD4680BDF8100020F7
:401F8000C810002080B500AF024B9B7C181CBD4680BDC046F810002080B582B000AF021CFB1D1A70FB1D1B78002B03D0044B0122DA7402E0024B0022DA74BD4602B080BD6F
:401FC000C8100020F0B587B002AF0E23FB1801221A80914B00221A70904B01221A700C23FB18FA2212011A80FEF70AFA021C0B1C131CBB60FEF70EFA031C99B20C23FB180F
:402000000C22BA1812888A181A80854B01221A7001F05EFFEDE0804B1B78002B00D1C8E0804B1B88012B23D17B4B00221A707E4B1A687E4B1B88101C191CFEF7F5F97A4B70
:402040001B68BB60794B1A880C23FB18FA2189008C4662441A80734B1B880093002000210022002300F0E8F86C4B01221A708AE06C4B1B88002B56D1674B00221A700E2311
:40208000FB181B88012B2CD101F018FB021C0B1C131C7B60FEF7BEF9021CBB1C1A80624B1B687A68D3187B60604B1988BB1CBA1C12888A181A80BB1C1B885D4A934209D934
:4020C0007B6801337B60BB1CBA1C128859498C4662441A807A68BB1C1B88101C191CFEF7A3F9FEF78DF9021C0B1C131CBB60FEF791F9031C9AB20C23FB18FA2189008C46F9
:4021000062441A80474B1B880093002000210022002300F091F80E23FB1800221A803F4B01221A702FE03C4B00221A70642000F057FEFEF76FF9031C9AB23C4B9A8001F0FC
:40214000BDFA021C0B1C384B9A60374B5A68364B9B689A4206D0344B5A68334B9B68013B9A420DD1304B58682F4B99682F4B5A882E4B9E882B4B1B880093331C00F05CF8C4
:40218000264B01221A700C23FB18FA2292001A80FEF736F9021C0B1C131CBB60FEF73AF9031C99B20C23FB180C22BA1812888A181A80BB681C1C00231D1CFEF721F9021C36
:4021C0000B1CAB4203D814D1A24200D811E00C23FB181B88164A93420BD90C23FB180C22BA18128813498C4662441A80BB680133BB60FEF70FF9021C0C23FB181B889A42C8
:4022000000D208E7064B00221A700E23FB181B88181CBD4605B0F0BD49110020F4100020250E0020E0100020101100204C110020E703000018FCFFFFB0B5A0B002AFF860E7
:40224000B960191CBB1D1A803B1D0A1C1A80BB1D1C883B1D1B881022B8181049FD68BA68009201932A1C231C05F0E6F94423F9181023FA188823FB181B88081C111C1A1C09
:40228000FFF762FA4423FB18181C01F05DFF302001F04EFEBD461EB0B0BDC0469CC5000080B586B000AF78607B68952B04D87B68181C00F095FD32E000237B6102F04AF850
:4022C00002F09AF8031C3B613B69181C02F06CF810E000F027F800F02BF800F035F8962000F07EFD02F06EF8031CFB603A69FB68D31A7B617A687B69D31A962B03D97A694D
:402300007B689A42E5D902F037F87A687B699A4205D97A687B69D31A181C00F061FDBD4606B080BD80B500AFFFF736FDBD4680BD80B500AFFEF778F900F022F8031C181C60
:40234000FEF7A6F9BD4680BD80B500AFFFF7A0FD031E012B03D10020FEF732F902E00120FEF72EF9BD4680BD80B500AF02F0AAF802F0BEF9022002F0C9F9BD4680BDC04615
:4023800080B582B000AF002002F0E4F9031C7B607B689BB21BB20020191C02F0FDF9021C034B1A60024B1B68181CBD4602B080BDB811002080B500AF002002F0F3FB01201A
:4023C00002F0F0FB022002F087FB024B00221A70BD4680BD280E002080B500AF00F0AAF800F0E8F8374B1B78012B03D0364B1B78012B1ED10120FEF705FA0120FFF7CCFD5D
:40240000324B00221A70304B1B78012B06D12D4B1B78032B02D12B4B01221A702A4B1B78032B06D1274B1B78012B02D1264B01221A70254B1B78022B20D102F0E3FA0020F4
:40244000FEF7E0F90020FFF7A7FD204B00221A701D4B1B78022B06D11A4B1B78022B02D0184B03221A70184B1B78022B06D0154B1B78022B02D1144B03221A70124B1B78CB
:40248000002B1CD10F4B1B78002B18D1FFF700FD031E14D0FFF728FD031E10D0FFF71AFD031E0CD0094B1B78002B08D100F012F8074B181C02F01CFB044B01221A70BD4672
:4024C00080BDC046CC000020CD000020280E0020B523000080B584B000AF05F093F8031C181C3C2102F0FCFD0B1CDAB20F23FB181E321A700F23FB181B78391D0C4A081CE5
:40250000111C1A1C05F098F83B1D181CFEF714F8002002F08FFA0F23FB181B7864225343181C02F0A3FA02F05BFABD4604B080BDB0C5000080B500AF02F058FB031E06D103
:402540001A4B1B780133DAB2184B1A7002E0174B00221A70154B1B78052B12D9144B1B78032B03D1124B01221A7019E0104B1B78002B15D10E4B02221A700020FFF70CFD9C
:402580000EE00B4B1B78012B03D1094B00221A7006E0074B1B78022B02D1054B03221A70034B1B78181CBD4680BDC0462A0E0020CC00002080B500AF1A4B1B78032B08D1F8
:4025C000FFF7E0FC031E012B03D1164B01221A7023E0144B1B78002B07D1FFF7D3FC031E03D1104B02221A7017E00E4B1B78012B08D1FFF7C7FC031E012B03D1094B0022E7
:402600001A700AE0074B1B78022B06D1FFF7BAFC031E02D1034B03221A70024B1B78181CBD4680BDCD00002080B500AF00F058F8294B00221A70284B1B78012B16D002DC25
:40264000002B05D042E0022B26D0032B35D03DE000F066F8021C214B1A60204B1B68002B03D11D4B01221A7030E02FE000F09EF8021C1A4B1A60194B1B68012B03D1164B87
:4026800002221A7007E0154B1B68FF2B03D1124B00221A701AE019E000F0BCF8021C0F4B1A600E4B1B68012B03D10B4B03221A700CE0094B01221A7008E000F0D7F8021C7F
:4026C000064B1A60044B01221A70C046FA235B00181CFFF7E5FDAEE7BC1100202C0E002080B500AFFFF736FCFEF7DEFC01200021FEF700FDFDF700FF084B181CFDF71CFF15
:40270000FEF7A4F8FDF76AFEFFF774FAFEF77AFCFFF72AFE62B6BD4680BDC046B4C5000080B582B000AF01200021FEF7E3FCFFF7AFFB031E09D1194B181CFDF7FDFEFA237D
:402740005B00181CFFF7ACFD22E0154B181CFDF7F3FEFFF737FC031E0DD1124B181CFDF7EBFEFFF701FCFA23DB00181CFFF798FD00237B600CE00C4B181CFDF7DDFEFFF736
:40278000E9FBFA235B00181CFFF78AFD01237B607B68181CBD4602B080BDC046C4C50000D4C50000E4C50000ECC5000080B582B000AFFFF76DFB031E07D0FFF795FB031E6F
:4027C00003D0FFF787FB031E11D101200021FEF791FC0F4B181CFDF7AFFEFEF73FFCFA235B00181CFFF75CFD00237B6001E001237B60FFF78DFB031EFF2B01D1FF237B60F7
:40280000FFF7EAFD7B68181CBD4602B080BDC046FCC5000080B582B000AFFEF707FC031C7B607B68012B0DD10E4B181CFDF784FE01200021FEF75EFCFA235B00181CFFF7C0
:402840002FFD09E0084B181CFDF776FE00200121FEF750FCFEF7FAFB7B68181CBD4602B080BDC0460CC600001CC6000090B587B000AF01200021FEF73DFC134B181CFDF703
:402880005BFE0823FA183B1D101C191CFEF7F6FBBB68FC687A68181C211CFFF703FBFA235B00181CFFF7FCFC084B181CFDF744FE074B181CFFF7F4FC01237B617B69181C3A
:4028C000BD4607B090BDC04628C6000034C60000B80B000080B500AFFEE7C04680B584B000AF7860104B1A687B68D3181A1C0F4BD21A80235B019A4209DC0B4B1B68FB6046
:40290000094B1A687B68D218074B1A6007E004F0CBFD031C0C221A6001235B42FB60FB68181CBD4604B080BDD0000020D812002080B586B000AF224B7B61224B3B61204B46
:402940007B6135E03B691B68FB603B695B68BB603B699B683B6000237B600CE0FB681A68BB681A60BB680433BB60FB680433FB607B6804337B607A683B689A42EED13B6991
:40298000DB683B6000237B6008E0BB6800221A60BB680433BB607B6804337B607A683B689A42F2D13B6910333B617B69013B7B617B69002BC6D104F07DFDFFF735FEFEE765
:4029C0000100000028CB000080B582B000AF154B144A126801218A431A6000237B600FE07B68032B04D8104B7A689200D35800E00E4B0F4A796889008B507B6801337B608F
:402A00007B682F2BECD9FDF7D1FB0A4B00221A60044B044A126801210A431A60BD4602B080BDC0460000104000000000D528000000000020C000002080B582B000AF7860B0
:402A400039607A683B68101C00211A1C04F094FDBD4602B080BDC04680B586B000AF7860396000233B6100237B612FE07B699B007A68D3181B68BB600F23FB18BA681A7005
:402A8000BB68FF229343BB6018E03B695B003A68D3181B781A1CBB68D318191C3B695B003A68D3185B780B703B6901333B610F23FB181A780F23FB18013A1A700F23FB18DD
:402AC0001B78002BE1D17B6901337B617B69032BCCD9BD4606B080BD80B500AF0A4B03221A600A4B03221A60094B802212061A60084B01221A60084B00221A60012000F081
:402B00000DF8BD4680BDC046300030403000314000003A4000033A40000E3F4080B584B000AF021CFB1D1A700B4B1B68FB60FB1D1B78002B05D0FB68802212061343FB6000
:402B400003E0FB685B005B08FB60034BFA681A60BD4604B080BDC04680033A4090B58BB000AF78602723FC1802F0B3F8031C2370184B1A680C23FB181A60174B1A680C236D
:402B8000FB185A607B68033B144AD35C1A1C0C23FB189A60124B1A680C23FB18DA601C23FB18104A1A600C23FA181C23FB185A600D4B1C22BA181A600C4B0D4A1A600A4BFB
:402BC0001B682723FB181B78181C02F086F8BD460BB090BD08010B4000010B4084C6000030001040B6EA000008001040040010401700008080B584B000AF78600023FB60F8
:402C0000154B154A126801210A431A60134B144A1A60144B134A1268802109020A431A607B68002B12D01023FB600CE0012000F0FBF800F019F8031E02D00023FB6005E0CE
:402C40007B68013B7B607B68002BEFD1FB68181CBD4604B080BDC04660F02E4078002E400220000010002E4080B582B000AF054B1B68012213407B607B68181CBD4602B0B1
:402C800080BDC0460C002E4080B584B000AF021C3960FB1D1A7080239B05FB60FB1D1B781F2B02D9002000F091F8FB1D1B7810339B00FA68D3181B68BB60FB1D1B7810337D
:402CC0009B00FA68D3183A681A60BB68181CBD4604B080BD90B587B000AF021CFB1D1A70BB1D0A1C1A70BB1D1B78032B02D9002000F06CF8FB1D1B781F2B02D9002000F04A
:402D000065F8FB1D1B7803221340DB0006337B611323FC1801F0DDFF031C2370FB1D1B789B08DBB29B00144A944663441B68FB607B6903229A40131CDA43FB681340FB60E7
:402D4000BB1D1A787B699A40131CFA681343FB60FB1D1B789B08DBB29B00074A94466344FA681A601323FB181B78181C01F0B5FFBD4607B090BDC04600E400E080B582B0D8
:402D800000AF021CFB1D1A70054BFA1D12781F210A40012191400A1C1A60BD4602B080BD00E100E080B582B000AF021CFB1D1A70054BFA1D12781F210A40012191400A1C79
:402DC0001A60BD4602B080BD80E100E080B582B000AF021CFB1D1A7001BEBD4602B080BD80B582B000AF786009E00C4B1B68181C01F066FF7B680A4A944663447B607A68EF
:402E000080231B029A42F0D8064B1B687A685343181C01F055FFBD4602B080BDE00000200080FFFFD800002080B582B000AF021CBB1D1A80BB1D1B88044A12785343181C3E
:402E400001F03EFFBD4602B080BDC046DC00002080B500AF0E4B0E4A126801218A431A600B4B0B4A126802218A431A60094B094A126830218A4310210A431A60054B054A53
:402E8000126807218A4301210A431A60BD4680BD00F02E4000FF2E4080B500AF0E4B0E4A126802218A431A600C4B0C4A126807218A4302210A431A60084B084A12683021C0
:402EC0008A4320210A431A60034B034A126801210A431A60BD4680BD00F02E4000FF2E4080B500AFFFF7B4FF044B044A1268802109060A431A60BD4680BDC04600F02E4035
:402F000080B584B000AF78600C4B1B6801221340FB607B68002B02D0012B03D005E0FFF797FF06E0FFF7B8FF03E00020FFF74EFFC046FB68181CBD4604B080BD00F02E40DE
:402F400090B583B000AFFC1D01F0C3FE031C2370074B074A1268C02109020A431A60FB1D1B78181C01F0B9FEBD4603B090BDC04600010B4080B500AF054B1A68C0231B024B
:402F8000134001D0012300E00023181CBD4680BD00010B4090B583B000AFFC1D01F099FE031C23700C4B0C4A12680C490A408021C9010A431A60084B074A126807490A40DC
:402FC000802109020A431A60FB1D1B78181C01F084FEBD4603B090BD00010B40FF3FFFFF90B585B000AF78600B23FC1801F071FE031C2370FFF7BEFF031E04D00123FB6005
:40300000FFF7C8FF01E00023FB607B680D4A13407B600D4B0C4A12680C4911407A680A431A60094B1B68FB68012B01D1FFF788FF0B23FB181B78181C01F04FFEBD4605B0E2
:4030400090BDC0460404040010020B40FBFBFBFF80B584B000AF786039600023FB607B68022B0AD8094B7A689200D358FB60074B7A6892003968D15002E00020FFF7A6FE39
:40308000FB68181CBD4604B080BDC0463C0E002080B500AF334B1B68042213401FD0324B1B680422134017D0304B1B6804221340DA432D4B1B681A402B4B1A602B4B1B6896
:4030C000042293431A1C294B1A60294B1B68002B02D0274B1B6898470420FFF781FF214B1A688023DB00134022D01F4B1A688023DB00134017D01D4B1A688023DB0013403E
:40310000DA43194B1B681A40174B1A60174B1B68184A1A40154B1A60154B5B68002B02D0134B5B6898478023DB00181CFFF758FF0C4B1A688023DB02134011D00A4B1A6857
:403140008023DB02134006D0094B9B68002B02D0074B9B6898478023DB02181CFFF740FFBD4680BD10020B40E8000020380E00203C0E0020FFFBFFFF80B582B000AF7860DA
:4031800039607B683A681A403B689A4201D1012300E00023181CBD4602B080BD80B584B000AF78607B680322134006D17B68181C642101F0A5FE0B1E07D17B68181CC823A4
:4031C000590001F09DFE0B1E02D10123FB6001E00023FB60FB68181CBD4604B080BDC04680B584B000AF78607B68702213401A09131C9B009B185B00FB607B680F2213400A
:40320000FA68D318FB60FB68181CBD4604B080BD80B584B000AF78607A68E023DB0113401A0B131C9B009B185B00FB607A68F0231B0113401B0AFA68D318FB60FB68181C37
:40324000BD4604B080BDC04680B584B000AF78607A68C0239B0313401A0D131C9B009B185B00FB607A68F0231B0313401B0CFA68D318FB60FB68181CBD4604B080BDC0468E
:4032800080B582B000AF78607A688023DB03101C191CFFF771FF031C181CBD4602B080BD80B584B000AF78607A68C0239B0313401A0D131C9B009B185B00FB607A68F023BC
:4032C0001B0313401B0CFA68D318FB60FB68181CBD4604B080BDC04680B584B000AF78607A6880235B0513401A0F131C9B009B185B00FB607A68F0231B0513401B0EFA6886
:40330000D318FB60FB68181CBD4604B080BDC04680B584B000AF78607A68C0239B0113401B0BFA2292005343FB607A68F0231B0113401B0A64225343FA68D318FB607B681D
:40334000F02213401A09131C9B009B185B001A1CFB689B18FB607B680F221340FA68D318FB60FB68181CBD4604B080BD80B582B000AF78607A6880231B04134001D00123D2
:4033800000E00023181CBD4602B080BD80B586B000AFF860B9607A603B60FB68DB057B61BB689B057A6913437B617B68181C0A2101F020FD031C1B057A6913437B617B6866
:4033C000181C0A2101F09CFD0B1C1B047A6913437B613B68181C0A2101F00CFD031C1B037A6913437B613B68181C0A2101F088FD0B1C1B027A6913437B613B6A181C0A2166
:4034000001F0F8FC031C1B017A6913437B613B6A181C0A2101F074FD0B1C1A1C7B6913437B617B69181CBD4606B080BD80B586B000AFF860B9607A607B687B61FB68181CB5
:403440000A2101F0D7FC031C1B073B61FB68181C0A2101F055FD0B1C1B063A6913433B61BB68181C0A2101F0C5FC031C1B053A6913433B61BB68181C0A2101F041FD0B1CBE
:403480001B043A6913433B617B68181CFA23990001F0B0FC031C1B033A6913433B617B69181CFA23990001F02BFD0B1C7B617B69181C642101F09EFC031C1B023A691343D5
:4034C0003B617B69181C642101F01AFD0B1C7B617B69181C0A2101F08DFC031C1B013A6913433B617B69181C0A2101F009FD0B1C1A1C3B6913433B613B69181CBD4606B03D
:4035000080BDC04690B587B000AFF860B9607A60BB68022B05D8BB680C33BB607B68013B7B60BB6801331A225343181C0A2101F061FC031C1A1CFB68D2187B68D2187B6806
:403540009B08D4187B68181C642101F053FC031C1A1C131C5B009B185B00E4187B68181CC823590001F046FC031CE318181C072101F0C6FC0B1C7B617B69002B01D1072332
:403580007B617B69181CBD4607B090BD80B500AF034B1B78002B01D100F004F8BD4680BDC011002080B584B002AF154B01221A70144B00221A60144B0022DA60134B0022D4
:4035C0001A70134B00221A60FC23DB00092001211A1CFFF72BFF031C7B601B2300930020002117221723FFF7D1FE031C3B603A687B68101C191C00F00DF8BD4602B080BDE1
:40360000C0110020600E0020C4110020D8110020D411002090B587B000AF786039603B68181CFFF73DFE031C7B613B68181CFFF753FE031C3B613B68181CFFF769FE031C3D
:40364000FB603A687B68101C191C00F08BF8031C0C1C0B4A136054600A4B3A685A60094B7A681A6079693A69FB68081C111C1A1CFFF748FF021C034B9A60BD4607B090BD59
:40368000E0110020C411002090B589B002AF38607960094A3B687C68136054600823F9183B687C6800220092081C1A1C231C00F021F9BD4607B090BDE011002090B500AF3D
:4036C000034B5C681B68181C211CBD4690BDC046E011002090B583B002AF0C4B1B68191C00231A1C0A4B5C681B685B185441094900220092081C1A1C231C00F0FBF8054B56
:403700001B68181CBD4601B090BDC046600E0020E0110020C411002090B500AF0D4B1A680D4B1B68D2180B4B1A600A4B1A680B4B1B689A420CD30A4B5C681B680121002289
:403740005B185441064A13605460024B00221A60BD4690BD640E0020580E00205C0E0020E0110020F0B591B000AF78623962002300243B637C637B6A181CFFF7C9FD031C1C
:40378000FB62564BFB6319E0FB6B181CFFF706FD031E08D03B6B7C6B514900225B1854413B637C6307E03B6B7C6B4E4900225B1854413B637C63FB6B0133FB63FA6BFB6AE6
:4037C0009A42E1D37B6A181CFFF786FD031CBB62BB6A5A1E444B5200D35ABB63BB6A022B08D9FB6A181CFFF7D9FC031E02D0BB6B0133BB63BB6B3D4A5343BB610023FB61C2
:403800003B6B7C6BB969FA695B1854413B637C637B6A181CFFF744FD021C344B5343344A944663443B6100237B613B6B7C6B39697A695B1854413B637C633B6A181CFFF76E
:4038400003FD031CBB633B6A181CFFF78FFD031E0BD03B6A181CFFF713FD031E05D0BB6B0B2B02D8BB6B0C33BB63BB6BE12212015343BB600023FB603B6B7C6BB968FA68AB
:403880005B1854413B637C633B6A181CFFF7C0FC021C131C1B019B1A9B003B6000237B603B6B7C6B39687A685B1854413B637C633B6A181CFFF794FC031C1D1C00231E1CFD
:4038C0003B6B7C6B5B1974413B637C633B6B7C6B181C211CBD4611B0F0BDC046B20700000085E2018033E101B4C600008051010080AEFEFFF0B5A1B002AF7865BA64FB64F2
:4039000000233B67A14BBB66A14B7B6619E07B6EBB600023FB60BB6CFC6CB968FA685B1A9441BB64FC64BB6E0133BB66BB6E181CFFF734FC031E02D0964B7B6601E0944B1C
:403940007B667B6E1D1C00231E1CFB6CB342DED8FB6CB34202D1BB6CAB42D8D80123FB66FA6EBB6E101C191C00F01AF9021C8A4B53437B6618E07B6E3B6000237B60BB6C5D
:40398000FC6C39687A685B1A9441BB64FC64FB6E0133FB66FA6EBB6E101C191C00F000F9021C7D4B53437B667B6E3B6400237B64FB6C7A6C934207D3FB6C7A6C9342DAD1CA
:4039C000BB6C3A6C9342D6D2BB6CFC6C181C211C714A002301F008FC031C0C1C3B663A6E6D4B53437B667B6EBB630023FB63FB6CFA6B93420CD3FB6CFA6B934203D1BB6C47
:403A0000BA6B934204D37B6E3B6200237B6203E0002300243B627C62BB6CFC6C396A7A6A5B1A9441BB64FC643B6E01333B66BB6CFC6C181C211CE1221201002301F0D4FB34
:403A4000031C0C1C7B677B6FE122120153437B669023FB181B68002B1DD0FB6C002B06D1FB6C002B0ED1BB6C4C4A93420AD901233B677B6F0C2B02D97B6F0C3B00E07B6F39
:403A80007B6708E000233B677B6F002B01D07B6F00E00C237B677B6E3B6300237B63FB6C7A6B93420CD3FB6C7A6B934203D1BB6C3A6B934204D37B6EBB610023FB6103E05A
:403AC00000230024BB61FC61BB6CFC6CB969FA695B1A9441BB64FC64BB6CFC6C181C211C3C22002301F080FB031C0C1CFB65FA6D131C1B019B1A9B007B667B6EBB62002389
:403B0000FB62FB6CFA6A93420CD3FB6CFA6A934203D1BB6CBA6A934204D37B6E3B6100237B6103E0002300243B617C61BB6CFC6C39697A695B1A9441BB64FC64F96E3A6E2B
:403B4000BB6E081C111C1A1CFFF770FC021C7B6D5A60BB6C9022BA181068396F7A6FFC6D0093231CFFF712FC021C7B6D1A60396EFA6EBB6E081C111C1A1CFFF7C3FC021C6E
:403B80007B6D9A60BD461FB0F0BDC046B20700008033E1010085E20180510100C1A8000080B584B000AF786039607B68013B0A4AD35CFB607B68022B08D13B68181CFFF771
:403BC000EDFA031E02D0FB680133FB60FB68181CBD4604B080BDC046CCC6000080B582B000AF094B1B68DAB2FB1D02210A401A70054BFA1D12781A60FB1D1B785B08DBB248
:403C0000181CBD4602B080BD1003044080B500AF0B4B802252021A600A4B0C221A60022000F056F8084B181C00F036F8002000F041F8054B181C00F021F8BD4680BDC0463F
:403C400000012040240120408813000090B583B000AFFC1D01F03DF8031C2370064B064A126801218A431A60FB1D1B78181C01F034F8BD4603B090BD0000204080B582B061
:403C800000AF7860034B7A681204120C1A60BD4602B080BD0801204080B582B000AF7860034B7A681204120C1A60BD4602B080BD1401204080B582B000AF7860034B7A68F3
:403CC0001204120C1A60BD4602B080BD0C01204080B582B000AF7860024B7A681A60BD4602B080BD3801204080B582B000AF7860024B7A681A60BD4602B080BD300120407B
:403D000080B582B000AF786000F04CF87B68181C00F008F8032000F013F800F039F8BD4602B080BD80B582B000AF7860034B84217A685A50BD4602B080BDC04600000020A4
:403D400090B585B000AF021CFB1D1A700E23FB600B23FC1800F0BDFF031C23700A4B0A4A12680A491140FA1D1078FA689040021C0A431A600B23FB181B78181C00F0ADFF0D
:403D8000BD4605B090BDC04610E400E0FF3FFFFF80B500AF024B802292021A60BD4680BD00E100E080B500AF024B802292021A60BD4680BD80E100E080B500AF00F004F9D3
:403DC000BD4680BD80B500AF064B064A1268802109060A431A6000F025F800F02BF8BD4680BDC0460000244080B500AF064B1B78002B04D1FFF7E0FF034B01221A70FFF7B5
:403E0000E1FFBD4680BDC046680E002080B582B000AF7860024B7A681A60BD4602B080BD6C0E002080B500AF0920FEF7A7FFBD4680BDC04680B500AF00F04CF9BD4680BD5C
:403E400080B582B000AF00237B600E4B1A680E4B1B689A4211D00C4B1B6801333B603B68652B01D100233B60084A3B68D3181B78DBB27B60044B3A681A607B68181CBD46EE
:403E800002B080BDC0120020E81100205812002080B582B000AF0C4B1B683B600B4B1B683A689A4205D3094B1B683A68D31A7B6005E0064B1B683A68D31A65337B607B68E5
:403EC000181CBD4602B080BDC0120020E811002080B500AF0920FEF765FF0E4B1A680E4B1A600E4B00221A700D4B0D4A1268802149020A431A600A4B094A126809490A40DE
:403F00001A60094B094A1A600920FEF737FFBD4680BDC046E8110020C0120020EC11002004032440FFFFFEFFC00F2440ED0F000080B584B000AF78601C4B1A681C4B1B68CC
:403F40009A4209D11B4B1B681F221340102B03D0194B7A681A6026E0144B1B680133FB60FB68642B01D10023FB60C046104B1B68FA689A42FAD0114B02221A607B68D9B233
:403F80000F4AFB68D3180A1C1A70084BFA681A600C4B1B680222134005D10A4B094A126802210A431A60BD4604B080BDF0110020C41200200802244040022440800F244036
:403FC000F4110020880F244080B500AF284B294A1A60294B00221A60284B31221A60284B284A1A60284B07221A60284B00221A60274B31221A60274B224A1A60264B00225F
:404000001A60264B04221A600920FEF7CBFE09200021FEF75FFE224B0920191CFEF734FE204B00221A60204B00221A601F4B00221A601F4B00221A601E4B04221A601E4BF4
:4040400000221A601C4B1B689AB21C4B1A801C4B00221A601B4B00221A601B4B00221A701A4B00221A601A4B00221A60BD4680BD000024400B08000240002440480024404B
:404080000003244007000080040324401003244044002440000224400402244050002440E14C0000880E2440C80E2440480F2440080F2440C80F2440880F24406A0E00209F
:4040C000C0120020E8110020EC110020F0110020C412002080B500AF074B074A126807490A40902109040A431A60054B054A12881A60BD4680BDC04600000240FFFF0FFF1A
:40410000880F24406A0E002080B582B000AF00237B60FFF7BDFE031E03D0FFF791FE031C7B60084B1A68D8239B00134005D000237B60044BD82292001A607B68181CBD46B4
:4041400002B080BDC00F244080B584B000AF78600023FB6009E07A68FB68D3181B78181CFFF7E6FEFB680133FB607A68FB68D3181B78002BEFD1BD4604B080BD80B584B0F8
:4041800000AF021CFB1D1A700F23FB1808221A702FE0FB1D1B785BB2002B06DA1C4B1C4A126810210A431A6005E0194B184A1268EF210A401A60164B154A126804210A43E1
:4041C0001A600A2000F07CFD114B114A1268FB210A401A600A2000F073FDFA1DFB1D1B78DB1813700F23FB181A780F23FB18013A1A700F23FB181B78002BCAD1044B044AC3
:404200001268EF210A401A60BD4604B080BDC0460002044080B582B000AF786000F04AF87B68181C00F008F8032000F011F800F037F8BD4602B080BD80B582B000AF7860AE
:40424000024B7A685A64BD4602B080BD0000002090B585B000AF021CFB1D1A700E23FB600B23FC1800F035FD031C23700A4B0A4A12680A491140FA1D1078FA689040021CFE
:404280000A431A600B23FB181B78181C00F025FDBD4605B090BDC04600E400E0FF3FFFFF80B500AF024B02221A60BD4680BDC04600E100E080B500AF024B02221A60BD466A
:4042C00080BDC04680E100E080B500AF024B02221A60BD4680BDC04680E200E080B500AF0B4BA022D2021A600A4B0C221A60002000F0B8F8084B181C00F070F8064B181C78
:4043000000F086F8044B181C00F04EF8BD4680BD4001204064012040E8FD000090B583B000AFFC1D00F0D5FC031C2370084B084A126802210A431A60FB1D1B78181C00F040
:40434000CCFC0220182100F071F8BD4603B090BD0000204080B500AF064B1B78002B04D1FFF7BCFF034B01221A70FFF7D7FFBD4680BDC046700E002090B583B000AFFC1DFA
:4043800000F0A7FC031C2370064B064A126802218A431A60FB1D1B78181C00F09EFCBD4603B090BD0000204080B582B000AF7860034B7A681204120C1A60BD4602B080BDA9
:4043C0004801204080B500AF034B1B681B041B0C181CBD4680BDC0464801204080B582B000AF7860034B7A681204120C1A60BD4602B080BD5401204080B500AF034B1B68CE
:404400001B041B0C181CBD4680BDC0465401204080B582B000AF7860034B7A681204120C1A60BD4602B080BD4C01204090B585B000AF786039600F23FC1800F04AFC031C67
:404440002370074B3A68796891400A1C1A600F23FB181B78181C00F040FCBD4605B090BD0800204080B582B000AF7860024B7A681A60BD4602B080BD7801204080B584B0F3
:4044800000AF021CFB1D1A700D4B1B68DAB20F23FB1801218A431A70FB1D1B7801221340D9B20F23FB180F22BA1812780A431A70034B0F22BA1812781A60BD4604B080BDCA
:4044C0000001044080B500AF064B1B78002B04D100F00AF8034B01221A7000F0EDF8BD4680BDC046710E002080B584B000AF0F200321FEF7EFFB564B0F20191CFEF7C4FB05
:40450000544B01221A60544B1B68002B01DA534900E05349534B534A12680A431A60524B524A1A60524B534A1A60534B00221A60524B534A1A60534B514A1A60524B524A42
:404540001268802149020A431A60504B00221A604F4B00221A604F4B01221A604E4B1B687B607B684D4A13407B607B688022920513437B607B68012293437B60464B7A6854
:404580001A600023FB605CE00022DC239B0113407B60FB689B00424A944663447A681A6000220123134009D0384B384A1268F96801208840011C89B20A431A6000220223D4
:4045C000134009D0324B324A1268F96801208840011C89B20A431A60002280239B00134003D080235B00BB6002E080235B01BB60002280235B00134005D12A4BFA685200A6
:404600000021D15209E0BB68002B00DA01335B1099B2244BFA685200D152BB68224A5343224A94466344181C214900F073FC031C9BB219B21F4BFA689200D150FB68013399
:40464000FB60FB68002B9FD0BD4604B080BDC0461948000020003A4080033A40700210517002005100003A4004003A408400008018003A400000FF071C003A4010003A40A6
:404680000400040014003A4000033A4028023A4038023A4018023A4030003A40FFFFFFDF80003A40CC12002010270000E40C0000C8190000C812002080B500AF0A4B1B68BF
:4046C000002B0EDBC046094B1B68002BFBDB064B054A1268802109060A431A600A20FEF7A3FBBD4680BDC04600003A4008023A4080B500AF044B044A1268802149020A4302
:404700001A60BD4680BDC04604003A4080B584B000AF78600023FB607B680322134011D00B4B1B6801221340FB60FB68002B03D17B6802221340F3D1FB68002B02D0044BB8
:4047400001221A60FB68181CBD4604B080BDC04610023A4080B584B000AF78607B68002B02D00020FEF732FB7B68002B09D17B689B00084A944663441B681B041B0CFB6010
:4047800001E00023FB60FB689BB21BB2181CBD4604B080BD80013A4090B585B000AF78600A1CBB1C1A807B68002B02D00020FEF70DFB164B7A685200D35A99B2BB1C1A88DF
:4047C0008BB2D31A9AB2BB1C1A80BB1C00229B5E181C01F0ADF8031C181C0D4900F076FF031C1C1C0B4B7A689200D358181C01F09FF8031C201C191C00F076FD031CFB6093
:40480000FB68181CBD4605B090BDC046CC12002000002041C812002080B582B000AF044B1B687B60024B7A681A60BD4602B080BD10023A4080B584B000AF021CFB1D1A70BB
:404840000E4B1B68DAB20F23FB1810218A431A70FB1D1B781B01DBB210221340D9B20F23FB180F22BA1812780A431A70034B0F22BA1812781A60BD4604B080BD0001044068
:4048800080B584B000AF021CFB1D1A700E4B1B68DAB20F23FB1840218A431A70FB1D1B789B01DBB240221340D9B20F23FB180F22BA1812780A431A70034B0F22BA18127823
:4048C0001A60BD4604B080BD0001044080B584B000AF021CFB1D1A700E4B1B68DAB20F23FB1820218A431A70FB1D1B785B01DBB220221340D9B20F23FB180F22BA18127862
:404900000A431A70034B0F22BA1812781A60BD4604B080BD0001044080B584B000AF021CFB1D1A700E4B1B68DAB20F23FB1820218A431A70FB1D1B785B01DBB220221340CC
:40494000D9B20F23FB180F22BA1812780A431A70034B0F22BA1812781A60BD4604B080BD0003044080B500AF0B4BC022D2001A600A4B0C221A60022000F0A2F8084B181CDB
:4049800000F066F8074B181C00F070F8002000F051F8BD4680BDC04680012040A4012040FFFF0000C409000090B583B000AFFC1D00F08FF9031C2370084B084A12680421CD
:4049C0000A431A60FB1D1B78181C00F086F90420182100F059F8BD4603B090BD0000204080B500AF064B1B78002B04D1FFF7BAFF034B01221A70FFF7D7FFBD4680BDC0461D
:404A0000720E002090B583B000AFFC1D00F061F9031C2370064B064A126804218A431A60FB1D1B78181C00F058F9BD4603B090BD0000204080B582B000AF7860034B7A6872
:404A40001204120C1A60BD4602B080BD8801204080B582B000AF7860034B7A681204120C1A60BD4602B080BD9401204080B582B000AF7860034B7A681204120C1A60BD462B
:404A800002B080BD8C01204090B585B000AF786039600F23FC1800F01CF9031C2370074B3A68796891400A1C1A600F23FB181B78181C00F012F9BD4605B090BD08002040C9
:404AC00080B582B000AF7860024B7A681A60BD4602B080BDB801204080B582B000AF7860024B7A681A60BD4602B080BDB001204080B582B000AF786000F04AF87B68181C43
:404B000000F008F8032000F013F800F037F8BD4602B080BD80B582B000AF7860034B8C217A685A50BD4602B080BDC0460000002090B585B000AF021CFB1D1A701E23FB6044
:404B40000B23FC1800F0C5F8031C23700A4B0A4A126892009108FA1D1078FA689040021C0A431A600B23FB181B78181C00F0B5F8BD4605B090BDC04610E400E080B500AF28
:404B8000024B802212031A60BD4680BD00E100E080B500AF024B802212031A60BD4680BD80E100E080B584B000AF021CFB1D1A700D4B1B68DAB20F23FB187F210A401A709B
:404BC000FB1D1B78DB01D9B20F23FB180F22BA1812780A431A70044B0F22BA1812781A60BD4604B080BDC0460001044080B500AF044B1B68042213409B08DBB2181CBD46CF
:404C000080BDC0460403044080B584B000AF021CFB1D1A700E4B1B68DAB20F23FB1808218A431A70FB1D1B78DB00DBB208221340D9B20F23FB180F22BA1812780A431A701D
:404C4000034B0F22BA1812781A60BD4604B080BD0003044080B500AF044B1B6808221340DB08DBB2181CBD4680BDC0460403044080B584B000AF021CFB1D1A700E4B1B6888
:404C8000DAB20F23FB1810218A431A70FB1D1B781B01DBB210221340D9B20F23FB180F22BA1812780A431A70034B0F22BA1812781A60BD4604B080BD0003044000000000FE
:404CC0000230800803D00138FDD1C046C046C0467047EFF3108072B6704780F31088704780B582B000AF324B1B68002B02D0304B1B6898472F4B1B680422134026D02E4B6F
:404D00001B6801337B607B68652B01D100237B602A4B1B687A689A4205D1294B1B68294B20221A700AE0264B1B68D9B2264A7B68D3180A1C1A70204B7A681A60234B1B68CC
:404D40001F221340DBD1224B04221A60214B1B680222134029D0204B1A68204B1B689A4213D01E4B1B6801333B603B68642B01D100233B601A4B1B493A688A181278D2B255
:404D80001A60164B3A681A6006E0174B164A126802218A431A6005E0144B1B681F221340102BD8D1124B02221A60BD4602B080BD6C0E0020CC0F2440C0120020E811002060
:404DC00040032440EC1100205812002008032440C00F24408C0F2440F0110020C412002040022440F4110020880F244008022440800F2440002243088B4274D303098B422C
:404E00005FD3030A8B4244D3030B8B4228D3030C8B420DD3FF22090212BA030C8B4202D31212090265D0030B8B4219D300E0090AC30B8B4201D3CB03C01A5241830B8B42F1
:404E400001D38B03C01A5241430B8B4201D34B03C01A5241030B8B4201D30B03C01A5241C30A8B4201D3CB02C01A5241830A8B4201D38B02C01A5241430A8B4201D34B0284
:404E8000C01A5241030A8B4201D30B02C01A5241CDD2C3098B4201D3CB01C01A524183098B4201D38B01C01A524143098B4201D34B01C01A524103098B4201D30B01C01AB9
:404EC0005241C3088B4201D3CB00C01A524183088B4201D38B00C01A524143088B4201D34B00C01A5241411A00D20146524110467047FFE701B5002000F0FCF802BDC0463A
:404F00000029F7D003B5FFF775FF0EBC4243891A1847C04603460B437FD4002243088B4274D303098B425FD3030A8B4244D3030B8B4228D3030C8B420DD3FF22090212BA17
:404F4000030C8B4202D31212090265D0030B8B4219D300E0090AC30B8B4201D3CB03C01A5241830B8B4201D38B03C01A5241430B8B4201D34B03C01A5241030B8B4201D335
:404F80000B03C01A5241C30A8B4201D3CB02C01A5241830A8B4201D38B02C01A5241430A8B4201D34B02C01A5241030A8B4201D30B02C01A5241CDD2C3098B4201D3CB01FE
:404FC000C01A524183098B4201D38B01C01A524143098B4201D34B01C01A524103098B4201D30B01C01A5241C3088B4201D3CB00C01A524183088B4201D38B00C01A52418A
:4050000043088B4201D34B00C01A5241411A00D201465241104670475DE0CA0F00D04942031000D34042534000229C4603098B422DD3030A8B4212D3FC22890112BA030A2F
:405040008B420CD3890192118B4208D3890192118B4204D389013AD0921100E08909C3098B4201D3CB01C01A524183098B4201D38B01C01A524143098B4201D34B01C01A56
:40508000524103098B4201D30B01C01A5241C3088B4201D3CB00C01A524183088B4201D38B00C01A5241D9D243088B4201D34B00C01A5241411A00D20146634652415B1005
:4050C000104601D34042002B00D54942704763465B1000D3404201B5002000F00BF802BD0029F8D003B5FFF715FF0EBC4243891A1847C0467047C0468446101C62468C469A
:40510000191C634600E0C0461FB501F059FB002801D40021C8421FBD10B501F09DFA4042013010BD10B501F04BFB002801DB002010BD012010BDC04610B501F041FB0028C6
:4051400001DD002010BD012010BDC04610B501F0C7FA002801DC002010BD012010BDC04610B501F0BDFA002801DA002010BD012010BDC0468446081C6146FFE71FB500F083
:405180005FFA002801D40021C8421FBD10B500F0E3F94042013010BD10B500F051FA002801DB002010BD012010BDC04610B500F047FA002801DD002010BD012010BDC046BF
:4051C00010B500F0F3F9002801DC002010BD012010BDC04610B500F0E9F9002801DA002010BD012010BDC046002B11D1002A0FD1002900D1002802D00021C943081C07B496
:40520000024802A14018029003BDC046E9FEFFFF03B4684601B5029800F04CF8019B9E4602B00CBC7047C046F0B54F46464605042D0C2C1CC0B41704160C3F0C9946030C12
:405240007C4375435F4373437D19260CAD199C46AF4203D980235B029846C4444B465143434324042E0C240C2D0466442C1959188919201C0CBC90469946F0BDF0B583B08E
:40528000161C1F1C0090019101F05EFF041C0D1C221C2B1C301C391CFFF7C6FF009A019B121A8B410899201C0A604B60291C03B0F0BDC046F0B5141C83B01D1C00900191B9
:4052C00002F03AF8221C2B1C061C0F1CFFF7ACFF009A019B121A8B410899301C0A604B60391C03B0F0BDC046F0B556464D465F464446F0B443024500C70F83B08A465C0ABC
:405300002E0EB94641D0FF2E26D080231B042343DC00002398469B467F3E53465B025D0A53465A00DB0F120E9A4639D0FF2A33D080231B042B43DD0000237F3A5146B21AA0
:4053400046467940081C01921E430F2E00D976E07E4AB6009659B746002C30D108239846063B9B46D9E780230021DB03FF245B02E4055B0AC90723430B43181C03B03CBC0F
:4053800090469946A246AB46F0BD002C28D104239846033B9B46C0E7002D1FD1022302E0002D11D10123B21A50464646784001921E430F2E27D86649B60089598F460C234A
:4053C0009846093B9B46A8E7281C01F09FFE7622431F52429D40121A0023AFE70323ADE7201C01F093FE431F9C4076235B421E1A002398469B4690E70025D1469B465B46BE
:405400004846022B6FD10121FF2401400023AEE77E23019A5B429B1A1B2B6DDD01214B46194000240023A2E78023DB031C4249D18023DB0323435B025B0A391C96E7630161
:405440006D01AB4237D389461A2001215B1B01241E1C49005B00002E01DBAB4201D35B1B214301380028F3D1581E83410B431D1C019C7F34002CCBDD6B0704D00F232B4091
:40548000042B00D004352B0104D5019A314B8032141C1D40FE2C07DD4B460121FF241940002364E7251CAAE701214A46AB015B0AE4B211405BE7019A8946013A01921B207D
:4054C0000021C4E71D4207D023435B025B0A391C4CE700256302ABD58023DB032B435B025B0A514642E7032B25D0012BC0D101210024014000233AE7291CD9402B1C019A94
:405500009E3293405D1EAB410B435A0704D00F221A40042A00D004335A0105D54B46012101241940002322E701214A469B015B0A114000241BE7802301214A46DB032B43C1
:405540005B020A405B0A111C10E7C046D8C6000018C70000FFFFFFF7430270B542004C005D0AC30F4802120E460A240EC90FFF2A05D0FF2C08D00120A2420BD070BD012060
:40558000002DFBD1FF2CF6D10120002EF6D10120A242F3D1B542F1D18B4205D0002AEDD1281C431E9841E9E70020E7E7F0B543024D024A0044005E0A240EC30F6D0A120ED8
:4055C000C90FFF2C0DD0FF2A31D0002C0DD177427741002A23D1002D21D10020002F0BD107E0002E28D1FF2A21D0002A05D08B4207D0584201231843F0BD002DF9D08B426A
:40560000F7D19442F5DC04DBAE42F2D80020AE42F2D25842434101205B421843ECE7002FE5D048424141012049420843E4E7002D02D1002CCBD0DAE702204042DCE7C046DD
:405640004302F0B542004C005E0AC30F4802120E450A240EC90FFF2A0FD0FF2C1AD0002A10D177427741002C29D0002F17D0484241410120494208430BE00220002E08D1CA
:40568000FF2C07D0002C0AD1002D08D1584201231843F0BD0220002DFBD1002AE1D08B42F4D1A242F2DC04DBAE42EFD80020AE42EFD25842434101205B421843E9E7002D40
:4056C000D3D10020002FE4D1E0E7C046F0B55F4656464D464446F0B445024600C40F83B00F1C6D0A360EA34645D0FF2E25D080231B041D4300239A46ED007F3E01937B0215
:405700005B0A98467800FB0F000E994640D0FF2838D0802342461B041343DB00984600237F384A46019F30186240411C1F430F2F69D87D4EBF00F659B746002D45D10823A9
:405740000193063B9A46DAE793465346022B2FD15B46012400251C40FF236D02DB056D0AE4071D432543281C03B03CBC90469946A246AB46F0BD002D2CD104230193033BE5
:405780009A46BCE743465A4253410322D31AC8E742460123002AC4D0404601F0B7FC4246431F9A4076235B42181A90460023B8E7032B00D1ADE0012B00D08CE05B46544665
:4057C0001C40E4B200230025C7E70C230193093B9A4694E7281C01F099FC7626431F9D4000237642361A01939A4688E780250024ED03FF23B1E74546CB469A46A5E74546A6
:4058000093469A46A1E743462C041B0C9C46230C444626041C1C360C2F0C7443351C66467D4373437743EB18260C9E19B54203D980235B029C46674424043304240C1B19DA
:405840009D016C1EA5419B0E360C2B43BD19AD011D432B0104D5012368081D400543081C031C7F33002B2CDD690704D00F212940042900D00435290103D52C4B1D40031C6E
:405880008033FE2B17DD0124FF231440002564E78020C003054209D04346034206D1454605436D026D0A4C46FF2356E705436D026D0AFF2351E70124AD016D0ADBB2144088
:4058C0004BE77E235B421B1A1B2B07DD012400231440002541E7081C5A46C1E79E30291C8540D940681E85410D436B0704D00F232B40042B00D004356B0104D5012401234E
:405900001440002529E70124AD016D0A1440002323E78023DB031D4301245B466D0223401C1C6D0AFF2318E758C70000FFFFFFF770B5041E39D0C50F00D04442201C01F010
:40594000E5FB9E23261C1B1A962B07DC082801DD083884406402640AD8B21EE0992B0ADD0522211C121AD1400A1C011C1B318E40711E8E411643052801DD421F96400F4C00
:405980003440720704D00F221640042E00D0043462010ED4A401640AD8B26402C005640AED0704432C43201C70BD002500200024F3E7024B1C409F231B1AEBE7FFFFFFFB2A
:4059C000F0B5454657464E4694464C000A03C90FE0B488460E1C1903470FC500480A6146490F01436046520A1743C0005A00640D520DDB0F8446984500D1A7E0A01A0028D2
:405A000000DC01E1002A3DD163460B4300D0D4E06B0700D188E00F232B40042B00D183E02A1DAA42AD4180236D427F191B043B404646151C002B00D17CE0CC4B01349C4266
:405A400000D1FDE03A1CCA4BED081A405007640552020543120B640D002112030B0D1B056405120B1A436308C24CF60714401C43640064083443281C211C1CBC9046994605
:405A8000A246F0BDB94B9C42C2D080231B041943382800DDECE01F2800DD21E120220E1C6346121A9640C340334366469640321C561EB24113430A1CC240EB1A9D42B64170
:405AC0001D1CBA1A7642971B3B0200D497E07A02560A002E00D1B6E0301C01F017FB031C083B1F2B00DDB7E09E40371C28262A1C361AF240161C9D403E439C4200DDB2E0A3
:405B00001C1B621C1F2A00DDD8E01F23291C1C1B331CA540A340D1406C1EA541D64019430D43371C002473E780231B043B40464600D082E78D4BED0878070543FA089C4273
:405B400032D012036405120B640D85E7A31A002B00DC94E0002A3CD0844A944200D157E7802212041143382B00DC05E163461943481E81410022C8B24019A8429B41051C50
:405B8000D2195B42D7183B0239D5784B01349C4200D14CE10120764A6B083A4028401843D5070543570833E72B1C134348D080231B031A431203120B4EE70138002878D13D
:405BC0006346EE1AB5429B417A1A5B42D71A351C7AE7021C0A4300D11AE7013B002B00D0F2E04019A8429B41CA195B42D718051CC9E7131C334300D118E1171C351C464629
:405C00006B0700D007E795E700287AD1621C5205520D012A00DCFBE06246AA1A9542B6419146781A7242861A320200D493E06246551BAC458041CF1B40423E1A984648E722
:405C40000022002508E7281C01F060FA2030031C083B1F2B00DC47E7283885402E1C00259C4200DC4CE7424AE41A1640371CCFE6634619434B1E99410022CBB21DE7002BDA
:405C800000D0F2E0601C43055B0D012B00DCA4E0364B984200D121E163465C19AC429B41CF195B42FA186408D50725435708041CAEE62E4B9C4200D0EAE6A9E6211C331C08
:405CC0001F39CB40191C202A00D182E03F231C1BA64035436E1EB54100270D4300248EE7031C0E1C203BDE40202874D040231B1A99400B1C62461343591E8B410022334347
:405D0000DBE6002C50D0194CA24200D1A8E08024240440422743382800DDD9E01F2800DD39E120243E1C241AA640B0462E1CA146C640444626434C46A5406C1EA541C740F8
:405D400035436046451BCF1BAC45894149427F1A141C9846B8E64B464D46334300D0B8E60026002700240025E4E6C046FF070000FFFF7FFFFFFF0F801F2B5BDC2022081CCC
:405D8000D21A9040814660469246D8404A4610438146524660469040021C501E8241484610430A1CDA40E7E63C1C2C4358D0C043002851D16046451BAC458041CF1B404275
:405DC0003F1A141C98467FE68F4A944200D0CAE61EE600267DE700238CE73B1C2B43002C00D0BDE0002B00D1F5E063460B4300D10EE663465B19AB428041CA19404217183A
:405E00003A0200D4FCE0814A1D1C17400134FFE53A1C2A43002C51D1002A00D085E062460A4303D00F1C65469846F1E50026002700257FE6181C0A1C2038C240202B00D199
:405E4000A7E04020C01A8140081C63461843411E8841104300228FE66B4CA24200D05AE70F1C6546141C9846D2E5002C3AD1381C284371D0DB43002B18D0634882426BD00D
:405E8000382B00DD9DE01F2B00DDA7E020203C1CC01A8440A1462C1C8246DC404846044350468540681E8541DF402543654465459B417F185B42FF18141C64E6002A19D123
:405EC00062460A4377D00F1C654698464E4C9FE53D436F1EBD410027EDB232E7041C0027002527E64848824236D0802000045B420743C5E762460A4349D08024ED0878077A
:405F0000FA0824032843224209D0CE08264206D162464F07381CD20810439846321CD200470F1743C500384C72E562460A4300D16EE56246AE1AB5429241781A5242821A99
:405F4000100200D455E66246551BAC458041CA1B4042171A98465BE50F1C6546141C57E5002B34D063460B4311D08024ED087807FA08240328432242D1D0CB082342CED1AF
:405F800062464F07381CD20810431A1CC7E71E4C3EE5002059E7041C3E1C203CE640341C20282BD04026301A87403D436F1EBD4100272543C5E680270026FF03124C0025F4
:405FC000B8E53D436F1EBD410027EDB26EE70F1C65460D4C1CE50F1C654619E51C1C381C203CE040041C202B0CD04020C31A9F403D436F1EBD410027254357E70027D4E7B5
:406000001D1CFCE50027F3E7FF070000FFFF7FFFF0B55F4656464D464446F0B40F0387B098464D003B0BCC0F061C924681469B466D0D01946BD0664B9D4235D080275B46BE
:406040007F031F43F3009946624BFF00400F9C4607430023BB46002665440093424617035000D20F53463F0B400D904600D172E0574A904267D080235B031F435346554A7C
:406080005B0FFF001F43944653460021DB0060444246624092462D1A0E430F2E00D9A1E04D48B600805987465B461E4300D076E000239B469946023308260093CEE799464B
:4060C0004346BB4601930091009B022B6BD1019B9A46002153460122002789461A403C4B00213F030C0D24053F0B27433B4C1B0527401F437F00D2077F0817434846391CD8
:4061000007B03CBC90469946A246AB46F0BD03433ED05B46002B00D19CE1584600F0F6FF2823311C1B1A021C5F46D940083A97400B1C96403B439B46B1460023284D0026B1
:406140002D1A00938AE7524603213A43A0D10027002302219CE752463A4315D0002F00D185E1381C00F0D2FF021C28215046891A131CC8405146083B99409F400B1C0743EB
:4061800017480021801A83E70027002301217FE700239B4699460133042600935EE703230C2600935AE7032B00D13CE2012B00D0BFE11A1C019B1A40002100230027894625
:4061C0008EE700238027994600223F03004B87E7FF07000001FCFFFF98C70000FFFF0F800DFCFFFFBB4500D951E100D14CE14A46039200225C469046013D180E3F02384388
:406200001B020193030C994603041B0C4946061C201C1F1C0093FEF7EDFD021C7A4302904946201C171CFEF76BFE039B09041B0C19438F420CD9029B8919013B8E4200D926
:4062400052E18F4200D84FE1029B8919023B0293CC1B201C4946FEF7CDFD009F834647434946201CFEF74CFE039A0B041404240C23439F420DD95A469B19013A9E4200D92B
:4062800030E19F4200D82DE10222524294469B19E344029ADB1B17045A463A439346019C170C220C101C04925A4611042204120C141C090C7C4305924A434143474361189E
:4062C000100C09188C4203D980204002844667440C0C12040804120C3C198118A34200D2E5E000D1DFE01F1B43465C1AA04592415242BF1AB74200D10EE1381C4946FEF71F
:4063000079FD009B029043434946381C9846FEF7F7FD230C0F041F43B8450CD9029BBF19013BBE4200D9FBE0B84500D8F8E0029BBF19023B02934346FF1A4946381CFEF731
:4063400059FD009B039043434946381C9846FEF7D7FD24040904240C214388450CD9039B8919013B8E4200D9DCE0884500D8D9E0039B8919023B03934346C91A029B039A16
:406380001B04059C1A43100C13049146221C049F1B0C5A4344437B437843E318170CDB199C4203D980246402A44660441C0C12041B04120C00199B18814200D296E000D18A
:4063C000FCE04A4601231A4391469B4BEB18002B00DC99E04A4652070AD00F2249460A40042A05D00431494592418946524293445A46D20106D55A46904B1A408023934631
:40640000DB00EB188E4A934200DD62E64A465946D208490711435A4689465702514601225B053F0B5B0D0A405AE680205A460003024208D0074206D107433F0399463F0BAD
:406440004246804B4CE65F4607433F033F0B221C7C4B45E600F05AFE031C2030272800DC5EE6083B9E400023B346994665E6504600F04CFE021C2032272A00DC75E65746FA
:406480000838874000237BE6994500D2AFE65A46594654084A46C8075208024303924A46D2079046A9E60027884500D31CE7019F5A46BC46E044B845BF417F42BF19FF1833
:4064C000013ABE4206D2BC425FD800D19FE03F1B934609E7B742FAD1019B4345F3D9371B934601E79346D4E60293B1E64A468919013A8E4218D99146814200D061E7019AE0
:406500009A4200D05DE760E74F4F7F1B382F13DD012253461A404FE601235B42994654E7029308E7039327E788423CD874D0914647E7019B9A4648E71F2F44DC434B4A46E9
:406540009C465B466544FA40AB4013434A46AA40151C6A1E95415A46FA402B43171C5A0709D00F221A40042A05D01A1D9A429B415B42FF18131C3A023ED55346012200212A
:406580001A40002701238946AAE502235B429C46019AE3449446E04490459B415B429B19DF193F1BA0E6019F4A467C00BC42BF417F42BF19023AC91901949CE7002B95D190
:4065C000002201929BE75A46214B5B1BDA40202F27D0204B9C465B466544AB4049460B43591E8B411343072200271A4007D00F2200271A40042AB8D17A077F023F0BDB0871
:4066000013439946012253461A40002368E54145BBD89346002767E6019C9C42C3D391466DE70023DAE780275B463F031F433F033F0B019A034B53E5FF030000FFFFFFFE83
:40664000FE070000FF07000002FCFFFF1E040000E2FBFFFF3E040000F0B55F464D4644465646F0B41F035C00DB0F99461B4B0E034D00C90F8446360B6D0D8B4690463F0BD4
:40668000640D9D420CD0154B9C4210D00123A54214D0181C3CBC90469946A246AB46F0BD311C01230143F4D10C4B9C42EED13A430123002AEDD10123A542EAD1BE42E8D1C4
:4066C000C445E6D1CB4506D0002DE2D13043031C581E8341DDE70023DBE7C046FF070000F0B5574645464E46E0B40F034E00C90F8A4632491D035C0084463F0B760D904632
:406700002D0B640DDB0F8E420FD08C4239D0002E10D13843414241418946002C27D12A4325D1002000290ED108E0391C01432ED1B44226D0002C0BD09A450DD053465942D0
:4067400001231943081C1CBC90469946A246F0BD2A43F3D09A45F1D1A642EFDC1ADA504641424841012341421943081CEBE74A46002AE1D058425841012241421143081C84
:40678000E1E7291C114302D1002EC2D0D4E702204042D8E7AF42D1D809D00020AF42D2D2504641424841012340421843CBE7C445C4D80020C445F3D3C5E7C046FF070000FE
:4067C000F0B55F464D46444656468046F0B4061C0803000B84462C484C001F035D00C90F640D8B4691463F0B6D0DDB0F844212D0854225D0002C14D161460E4370424641A6
:40680000002D35D0002E21D058425841012143420B43181C0EE06146022031430AD1A5420ED0002D12D13A4310D15B46594201231943081C3CBC90469946A246AB46F0BD5F
:40684000391C02201143F5D1002CD5D09B45ECD1AC42EADC05DBBC45E7D80FD00020BC45E8D2584641424841414201200843E1E73A43C7D10020002EDCD1D6E7C845D4D824
:406880000020C845EDD3D5E7FF070000F0B54D4644465F465646F0B40E1C111C3203520A470F1743C5001A035800DB0F9946520A4B0F83B01A43CB000193CF4B7400F60FAF
:4068C000640DB046400D984200D1E8E00123494659400B1C9E4200D1B1E0261A002E00DC1CE1002842D1131C01990B4300D0E6E06B0700D18EE00F232B40042B00D189E0D6
:406900002A1DAA42AD418023012641466D427F191B043B400E40151C002B00D183E0B64B01349C4200D116E13A1CB44BED081A405007640552020543120B640D0021120386
:406940000B0D1B056405120B1A436308AC4CF60714401C43640064083443281C211C03B03CBC90469946A246AB46F0BDA24B9C42BED080231B041A43382E00DD03E11F2E4F
:4069800000DD3FE12020831B9946131C49468B409C46019B6046F34003430198F2408840011C481E81410B43EB1A9D4280411D1CBA1A4042171A3B0200D4A8E07A02560AF7
:4069C000002E00D1CAE0301C00F0A0FB031C083B1F2B00DDCBE02822291C121AD1409E400A1C9D4032439C4200DDC8E01C1B671C1F2F00DDEDE01F23291C1C1B131CA540DA
:406A0000A340F9406C1EA541FA4019430D43171C00246DE78023012642461B043B401640002B00D07BE7744BED0878070543FA089C423BD012036405120B640D7EE7231A86
:406A40009A46002B00DCA5E0002844D06A48844200D14DE78020000402435346382B00DC1CE1019B1A43511E8A41D1B200224919A94280410D1CD219404217183B0246D530
:406A80005D4B01349C4200D169E101205B4A6B083A4028401843D5070543570828E7131C01990B4300D111E74B4613E72B1C134351D080231B031A431203120B3EE7013E1B
:406AC000002E00D080E0691A8D429B41BA1A5B42D71A0D1C6FE7101C019B184300D107E701235B429C46E2445346002B00D002E1019BD2195919A9429B415B42D7180D1C92
:406B0000BCE76346034300D128E1071C65466B0700D0F0E6012643461E4084E7002E00D081E0601C4005400D012800DC07E10199681A84466545B641B81A7642861B30024C
:406B400000D4A1E08C464D1BAC458941D21B4942561A984634E700220025EFE6281C00F0D5FA2030031C083B1F2B00DC33E7021C283A95402A1C00259C4200DC36E71F4FD4
:406B8000E41A1740B4E6019B1A43511E8A41D3B2002209E7002B00D001E1601C43055B0D012B00DCB0E0144B984200D11EE1019BD2195919A9429B415B42D2184908D507FE
:406BC0000D435708041C93E60B4B9C4200D0D3E68EE6211C131C1F39CB40191C202F00D18EE03F231C1BA24015436A1E954100270D4300248BE7C046FF070000FFFF7FFFC4
:406C0000FFFF0F80331C101C203BD840202E79D040239B1B9A40131C019A1343591E8B4100220343C0E6002C53D0C74CA04200D1B0E0802471428946240427434946382991
:406C400000DDCDE01F2900DD59E120243E1C611A8E408A46B04649462E1CCE405146B4468D4064464646494626436C1EA541CF4035430199D71B8C464D1BAC4592415242F6
:406C8000BF1A041C984696E663466546334300D096E60026002700240025C4E61F2B61DC2020C31A9B46131C59468B4051469946019BCB409C464B46604603439C465B460E
:406CC000019999406346481E814119435346DA40CDE63C1C2C435DD0F1438946002955D10199D21B8C464D1BAC4589414942571A041C98465FE69448844200D0ADE6F7E5AC
:406D0000002271E7002387E73B1C2B43002C00D0DAE0002B00D113E1131C01990B4300D1E6E54919A9429B41D2195B42D7183B0200D421E1854B0D1C1F40041CD8E5381CEE
:406D40002843002C40D1002800D083E0101C0199084303D0171C0D1C9846C9E500260027002560E65046131C2038C340181C5346202B00D1C1E0402351465B1A9A400199FF
:406D800011434A1E91410022014370E66E4CA04200D053E7171C019D041C9846A8E5002C28D13C1C2C4300D18AE0DB439A46002B00D082E0019BD2199C4665449D4289414A
:406DC00049425718041C59E600285BD1101C0199084300D1A4E0171C0D1C98465A4C87E53D436F1EBD410027EDB242E7041C0027002518E6544CA04262D0534680245B4242
:406E00009A46240427435346382B00DD8EE01F2B00DD9DE02024E31A9B463B1C59468B40514699462B1CCB409C464B46644623439C465B469D4063466C1EA541CF401D43DF
:406E4000019BBF189C4665449D4292415242BF18041C13E6101C0199084300D148E5681A844685428041BE1A4042301A060200D447E68C464D1BAC458941D21B4942571A70
:406E8000984635E5101C0199084334D080247807ED08FF0824032843274208D0D608264205D1C90852070A43101C371C9846FF00420F1743C500244C1AE5234CA042A2D141
:406EC000171C019D041C13E5002B35D0131C01990B4310D080247807ED08FF08240328432742E4D0D3082342E1D1C90852070A43101C1F1CDBE7144CFAE400223FE74C460A
:406F00003E1C203CE6404946341C202932D04026761AB7403D436F1EBD4100272543A8E680270026FF03084C00257CE53D436F1EBD410027EDB283E7171C019D024CD7E478
:406F4000171C019DD4E4C046FF070000FFFF7FFF54463B1C203CE3401C1C5346202B0DD0402351465B1A9F403D436F1EBD410027254365E70027CDE70D1CC8E50027F3E7B1
:406F80000B0330B5134C1A0B4B00051C5B0DC90F0020A34210DD104883420EDC80200F4C40030243E41A1F2C0ADD0D48C31ADA40131C48424340581830BD0A4BC818FBE706
:406FC000281CE040084CA44663449A40131C0343EFE7C046FE0300001D0400003304000013040000FFFFFF7FEDFBFFFF38B5041E16D0C50F00D04442201C00F087F8174B1F
:407000001B1A0A2821DC021C211C153291400A1C0B21081AC4405B052403240B5B0D03E000250023002400220021101C24030A0D1205240B14430A4A1B0514401C436400BF
:40704000ED0764082C43211C38BD0B3884405B052403240B5B0D0022E6E7C0461E040000FFFF0F804200120E511C38B5C9B243025D0AC40F012915DDE02189008C466D07A4
:407080001B0B62440021281C0D0D2D052B431C4D52052B40520813435B00E4075B082343191C38BD002A15D1002D1FD0281C00F02DF80A281DDC0B232A1C1B1ADA40131C2F
:4070C000021C153295400F4A1B03121A52051B0B520DD7E7002D06D080221B0B120313436D07094ACEE7084A0023CBE700220023C8E7031C0B3B9D402B1C0025E3E7C046CE
:40710000FFFF0F8089030000FF0700001C2101231B04984201D3000C10391B0A984201D3000A08391B09984201D30009043902A2105C40187047C046040302020101010143
:407140000000000000000000F0B544465F4656464D46F0B41C1C85B0002900DAA9E00F1C0021061C8846101C191C002C00DA97E0341C3D1C82468946B94273D870D0494600
:40718000504600F085F98346391C301C00F080F95B46181A031C8346203B9C4600D59CE00023002251460092019363469940019151468140019B0091BB4200D983E000D10A
:4071C0007EE0009A019B341C3D1CA41A9D416346002B00DA9AE0002600270296039701369E400396012686400296002800D171E00099019AD30799464B464E081E435708FE
:40720000002301220CE0AF4201D1A6420AD8A41BBD4124196D410138A4185D41002806D0AF42F0D9013824196D410028F8D12022029E039F5B46524236196F4199185AD4F0
