:400000000040002011000000350700003507000008B500F0A9FBC04638B512222F4B1A6000F0A8FC2E4800F003FC012000F0C2FC302000F00DFC2B4A2B4B1A602B4D8023DA
:40004000DB052B602A4A116802230B431360294A294B1A60294A13680824A3431360FA20C00000F053FC264800F046FC254A264B1A60264B2649196026490A60264A1A603F
:40008000D022520225490A602549196025490A60254A1A6080221206244B1A608022D202234B1A604222234B1A600132224B1A60033A224B1A600132214B1A60213A214B0F
:4000C0001A60214B2B60214B1C60204B1B681B07FBD401221D4B1A6038BDC04630001040001BB7000600008004010B400C020B4078002E402D3E00007C002E406CF02E4042
:40010000DC050000007FBB00080301400000014042FF00800C03014043FF00800003014040FF00800403014041FF008008010B4000010B40200101401C010140080101408F
:400140000401014008020B400500004010020B4010B572B60022294B1A60002410E0284863001A195200821891881B195B001A5AC31858880004104300F054FB0134E4B207
:40018000012CECD91F4A204B1A6099231B041F4A13601F4A13601F4A13601F4A13601F4B197802220A431A701D4802783C218A4328390A430270197816220A431A702223B0
:4001C000184A13601849194A1160194A1360194A194B1A608022194B1A608022D203184B1A604022174B1A60C0225203164B1A60FFF712FF00F006FB10BDC0466CF02E4025
:400200004C250000990099EE0000024000500F4010500F4020500F4030500F4000700F4001700F40000004403110DB000800044018000440B66D1B000801044000020440B7
:4002400008020440000304400803044010B5064C2378002B07D1054B002B02D0044800E000BF0123237010BD4801002000000000D024000008B5084B002B03D0074808491E
:4002800000E000BF07480368002B00D108BD064B002BFBD09847F9E700000000D02400004C010020C80000200000000008B500F0D1F8022000F0E0F800F078F800F00AF922
:4002C000034800F077F8FA20400000F0FDFA08BDDC24000008B500F0A7F8002804D100F061F8002802D102E0002000E0012008BD38B51C4800F05EF8002000F0CBF801206E
:4003000000F0FCF900F090F8002803D100F004FA0028F7D000F000FA002818D10120002100F024F9041C0D1C00F03EF8002802D10D4800F03FF80D4800F03CF8201C291C5D
:4003400000F048F8FA20800000F0BEFA09E0022000F092F8064800F02DF8FA20800000F0B3FA38BDE8240000F82400000C2500001825000008B5034800F01CF80A2000F03B
:400380007BF808BD2425000008B562B6FFF78EFFFFF7A0FF002802D0FFF7AAFFF8E7FFF7E9FFF5E7012070470120704708B500F049FD08BD10B5041C0020002100F052FDD0
:4003C000201C00F0E5FC024800F0E2FC10BDC04634250000F0B589B0041C0D1C00F084F8071C201C291C00F091F80390201C291C00F09EF8061C201C291C00F0A3F800969E
:40040000019004AA101C07493A1C039B01F060FC0120002100F026FD04A800F0B9FC09B0F0BDC0464025000008B501F03BF8002801D1013000E0002008BDC04608B500F0C5
:4004400087FBC043C0B200F077FB022000F0F8FB08BDC04608B500F0D7FB054B1B78002B02D1044800F05AFB0122014B1A7008BD9C0100203D04000008B54100FA2080000E
:4004800001F008F900F082FB00F0A6FB00F086FB08BDC04610B5041C00F062FB201C00F04BFB10BD08B50A4A138801339BB21380FA229200934204D10022054B1A8000F08B
:4004C000EFFC042000F0DCFA01F0DCF808BDC0466801002008B500F055FE024801F0C4F808BDC046A504000030B50C1C89068A0F0023910F900012184B4192185B410F25EB
:400500002C40201C00218018594130BD30B541004A0F0023950F940012196B4192185B410001040F0025201C291C8018594130BD43025B0F9A00D3185B000003000F181832
:400540007047C04603041B0F64225A4303051B0F9900CB185B009B180F221040C0187047014B18887047C04668010020F0B54F464646C0B483B0804600F07AFF061C870225
:40058000BF0FBB00DF197F0003031B0FFF1845046D0FAB005D196D0003051B0FED184406640FA3001C1964000F230340E418FFF7D7FF0190730201D5012300E000234246A9
:4005C000D201464989469B011A439046381C00210A22002301F0F0F80001434603439846381C00210A22002301F0E6F8434613439846281C00210A22002301F0DDF80309DA
:4006000009071943070743460B439846281C00210A22002301F0D0F8110A1B060B431206174342461A439046201C00210A22002301F0C2F8030B0905194300053D1C0543F2
:4006400043460B439846201C00210A22002301F0B3F8110C1B040B4317042F4342461A439046019E301C00216422002301F0A4F8041C0D1C030D09031943200307434346B2
:400680000B4398460196301C00210A22002301F093F8A30F9C46AB0066463343A200A4185D4124196D41001BA941030E090219430002074344460C43019800210A2200234C
:4006C00001F07AF8381C1043211C19434B469860D96003B00CBC90469946F0BD6801002008B5054B1B68002B02D0013B024A1360022000F057FF08BD7801002008B5044BD5
:40070000186000F03FFF034800F07AFF08BDC04678010020E106000008B5054B1B68002B03D100F0C7FE012000E0002008BDC04678010020FEE7C04608B5031C084A1068BA
:40074000C318084A9A1A802A02DC054A136005E001F080FA0C2303600120404208BDC046CC000020D001002070B50F4E0F4D13E029686B68AC68002202E001C901C3043210
:40078000A242FAD1E868002202E0002102C304328242FAD11035013E002EE9D101F060FAFFF7F2FDFEE7C046010000000826000008B50F4A136801218B43136000230AE0D4
:4007C000032B03D89A000B49505800E00A4899000A4A885001332F2BF2D9FFF7B9FC0022074B1A60024A116801230B43136008BD0000104000000000350700000000002056
:40080000C00000200323044A1360044A13600022034B1A607047C0463000304030003140000E3F4008B50A1C002101F048FA08BD0230800803D00138FDD1C046C046C04619
:400840007047EFF3108072B6704780F31088704710B586B0041CFFF7F4FF0E4B1B6800930D4B1B680193033C0C4B1B5D02930C4B1B68039304AA0B4B04936B4605930A4B80
:400880001A600A490A4A11601B68FFF7DEFF06B010BDC04608010B4000010B405825000030001040B6EA0000080010401700008004001040024B1B68012018407047C04641
:4008C0000C002E4001BE704710B5041C06E0084B1868FFF7ADFF074B9C46644480231B029C42F4D8024B58686043FFF7A1FF10BDD00000200080FFFF08B5034B1B7A5843C6
:40090000FFF796FF08BDC046D000002010B5041C0F4A116801230B4313600E4A0E4B1A600E4A1368802109020B431360002809D100200CE00120FFF7DFFFFFF7BBFF00288F
:4009400004D1013C002CF5D1102000E0002010BD60F02E400220000078002E4010002E40034B1868C0231B02184000D00120704700010B4010B50D4B1A6801218A431A6010
:400980001A68022082431A60094A10683024A043203C204310601068093CA043014311601A68802109060A431A6010BD00F02E4000FF2E4038B51D4B1B6801241C400028BC
:4009C00002D0012816D02BE0184B19680122914319601968022081431960154B19682E3081432038014319601968093881430A431A6018E00D4B1A6802218A431A600C4AE0
:400A000010680725A84301431160116830208143103801431160196801220A431A6002E00020FFF74FFF201C38BDC04600F02E4000FF2E4008B5FFF704FF044A1368C021D5
:400A400009020B431360FFF700FF08BD00010B4010B5FFF7F6FE08490A68084B1A408024E40122430A600A6813408022120213430B60FFF7EAFE10BD00010B40FF3FFFFFBE
:400A800070B5061CFFF7DDFE041CFFF769FF002803D0FFF7DDFF012500E000250848331C0340084A106808490840184310601368012D01D1FFF7BEFF201CFFF7C6FE70BD47
:400AC0000404040010020B40FBFBFBFF8423014AD05070470000002010B5041CFFF7B1FE044A1168044B0B40A4031C431460FFF7ACFE10BD10E400E0FF3FFFFF802292029C
:400B0000014B1A607047C04600E100E080229202014B1A607047C04680E100E010B5041CFFF7F4FF201CFFF7D1FF0320FFF7D4FFFFF7E4FF10BDC04604490A68BF231A4014
:400B400080017F3B184010430860704700030440024B18684006C00F7047C0460403044008B5FFF76EFE044A136801218B431360FFF76BFE08BDC046000020400004000C5A
:400B8000014B18607047C046080120400004000C014B18607047C04614012040024B18680004000C7047C046140120400004000C014B18607047C0460C01204038B5041C2B
:400BC0000D1CFFF73EFEAC40024B1C60FFF73DFE38BDC0460800204008B5FFF732FE064A116801230B431360FFF72FFE01201821FFF7E4FF08BDC04600002040014B18607B
:400C00007047C0463801204010B580225202094B1A600C22084B1A600220FFF7EFFF074C201CFFF7B3FF0020FFF7C0FF201CFFF7A5FF10BD000120402401204088130000A4
:400C4000014B18607047C0463001204010B50B4C23686022934323602368513A93432360226810231843104320600120FFF744FE236810229343236010BDC04600010440FF
:400C800038B5051C0E4C226820231343236023684022934323600020FFF72EFE23680F2293432360236810202843184320600120FFF722FE236810229343236038BDC04640
:400CC00000010440F8B5274A13687F218B43136025490B681B0B1B03244803430B60136820218B431360116840230B431360CA277F000020FFF700FE1A4C23681026334338
:400D000023600120FFF7F8FD194B1D682368B34323600020FFF7F0FD08231D402368334323600120FFF7E8FD2368B3432360002D02D10A20FFF7E0FD013F002D01D0002FBE
:400D4000D7D1084B1A6840218A431A601A683F318A431A60044A13681B0B1B0305490B431360F8BD00010440080104404902000004010440B60D000010B5041CFFF7A2FFDF
:400D80002009FFF77DFF0F202040FFF779FF10BD38B5051C0078012404E0FFF7EDFF285D0134E4B20028F8D138BDC04610B5041CFFF788FF2009FFF749FF0F202040FFF7D3
:400DC00045FF10BD08B52820FFF77EFD0320FFF73DFF0520FFF778FD0320FFF737FF0F20FFF772FD0320FFF731FF0120FFF76CFD0220FFF72BFF0520FFF766FD0620FFF7FF
:400E0000D5FF0E20FFF7D2FF2C20FFF7CFFF0820FFF7CCFF0120FFF7C9FF0C20FFF7C6FF0320FFF7C3FF0520FFF74EFD08BDC04608B50C20FFF7BAFF0122014B1A7008BDC8
:400E40007C01002008B5064B5B78002B04D1FFF7B9FF0122024B5A70FFF7EAFF08BDC0467C01002008B501280BD0002804D002280CD003280FD012E08039C8B2FFF796FF48
:400E80000DE04039C8B2FFF791FF08E06C39C8B2FFF78CFF03E02C39C8B2FFF787FF08BD30B50B4B9A6819688C4662449A609A685B689A420BD307490C684D6801220023D3
:400EC00012196B410A604B600022014B9A6030BD80010020C0010020F0B557464E464546E0B4804689468504AD0FFA2292006A43111C03051B0F64225343CD1803061B0F72
:400F00009A00D3185B00EB180F2505405D1900260027574C1FE0A30705D1201C642100F03FFC002908D1201CC821490000F038FC002903D1012302E0012300E00023002B9B
:400F400004D04C4A0023B6185F4103E04A4A0023B6185F410134AC42DDD34346DB00DB0F9A00D3185B0042461201120F9B185A1E52004249525A9246022B18D9AB0705D17F
:400F8000281C642100F00CFC002908D1281CC821490000F005FC002903D1012302E0012300E00023002B02D001239C46E244344C514661430A1C0023B6185F41C0208003DF
:400FC00042460240120D93009B185B00F021090342460A40120C9B185C432A4D62190023B6185F414B4603401B0D9A00D3185B004A461140090C591880231B04134000D05D
:401000000123002B0AD04B465B0201D5012300E00023002B02D00B2900D80C31E12000014843021C0023B6185F414B465B045B0F9A00D3185B004A461205120F9B1819014B
:40104000C91A8A000023B6185F414B465B065B0F9A00D21852000F2349460B40D0180021801979411CBC90469946A246F0BDC046B20700000085E2018033E101882500004D
:401080008051010080AEFEFFF0B583B001900C1C8F02BF0FBB00DB195B000F033F0FDF19CE00F60FB3009B195B000E01360F9E198904890FFA2292004A43101C23051B0F63
:4010C00064225343C1182206120F93009B185B00CB180F2222409D18201C0199FFF7FCFE164B18605960164B5C60019A1A60022E01D80C36013D01361A2070430A2100F094
:40110000C9FA3F187F19A8083F18281C642100F0C1FA4300181840003F18281CC821490000F0B8FA3818072100F03AFB002900D10731034B996003B0F0BDC046C001002003
:40114000A401002008B50122074B1A700023074AD360074AD360074A1370074A136007480749FFF791FF08BDA001002080010020A4010020B8010020B40100205005A10076
:401180001620150708B5034B1B78002B01D1FFF7D9FF08BDA001002038B50F4B1B18DD7D022817D10C1C8B0705D1081C642100F0F7FA002908D1201CC821490000F0F0FAA4
:4011C000002903D1012302E0012300E00023002B00D00135281C38BD88250000F0B55F4656464D464446F0B485B08346141C1D1C9A4B9B4A904620E0009A019BA41A9D412E
:4012000001239C46E04443469B0705D14046642100F0C6FA002908D14046C821490000F0BFFA002903D1012302E0012300E00023002B01D08B4B00E0884B0093002301936C
:40124000002DD9D1009A019B9D4201D19442D3D801204146FFF7A0FF834B5843012399460AE0A41BBD4101239C46E14448464146FFF792FF7C4B5843061C0027AF42F0D1BB
:40128000A042EED9201C291C774A002300F094FA754941430A1C0023AB4203D1A14201D900220023A41A9D41431C9A46201C291CE1221201002300F07FFA0090E1210901BA
:4012C00041430E9B002B13D0002D03D109D1674B9C4206D9009B0C2B01D90C380090012707E0009B002B01D10C330093002700E000270A1C0023AB4203D1A14201D9002259
:401300000023A41A9D41201C291C3C22002300F053FA061C0101891B8A000023AB4203D1A24201D900220023A41A9D4148460A2100F0B0F9050748460A2100F031FA090699
:401340000D4350460A2100F0A5F90005054350460A2100F025FA09040D434046FA21890000F098F9000305434046FA21890000F017FA0391081C642100F08CF90002054337
:401380000398642100F00CFA0391081C0A2100F081F90001054303980A2100F001FA0D435B465D600E9BDB05BD051D43009F381C0A2100F06FF900050543381C0A2100F045
:4013C000EFF90F042F43301C0A2100F063F905033D43301C0A2100F0E3F909020D43201C0A2100F057F900010543201C0A2100F0D7F90D435B461D604B46022B05D80C2348
:401400009C46E1440D3B9C46E044484601301A2358430A2100F03EF95044404443469C0804194046642100F035F943001818400024184046C821490000F02CF920180721C7
:4014400000F0AEF9002900D107315B46996005B03CBC90469946A246AB46F0BD8033E101B20700000085E20180510100C1A8000030B583B0084B1A685B68084C084DE86887
:40148000002112184B4101310091201CFFF7A6FE206803B030BDC046C0010020A401002080010020024B18680006C00F7047C0460402044008B5FFF7C4F9044A1368022142
:4014C0008B431360FFF7C1F908BDC046000020400004000C014B18607047C046480120400004000C014B18607047C046540120400004000C014B18607047C0464C01204012
:4015000038B5041C0D1CFFF79CF9AC40024B1C60FFF79BF938BDC0460800204008B5FFF790F9064A116802230B431360FFF78DF902201821FFF7E4FF08BDC0460000204082
:40154000014B18607047C0467801204010B50022094B1A600C32094B1A600220FFF7F0FF074C201CFFF7BCFF201CFFF7C1FF0020FFF7AEFF10BDC04640012040640120401B
:4015800060EA000008B5064B1B78002B04D1FFF7DDFF0122024B1A70FFF7C0FF08BDC04690010020014B18607047C046700120408823014AD05070470000002010B5041C1F
:4015C000FFF73FF9044A1168044B0B40A4051C431460FFF73AF910BD10E400E0FFFF3FFF8022D202014B1A607047C04600E100E08022D202014B1A607047C04680E100E0E6
:4016000010B5041CFFF7F4FF201CFFF7D1FF0320FFF7D4FFFFF7E4FF10BDC046014B18667047C0460000002010B5041CFFF709F9044A1368C0218B43A4011C431460FFF7D8
:4016400004F910BD08E400E080225200014B1A607047C04600E100E080225200014B1A607047C04680E100E010B5041CFFF7F4FF201CFFF7D3FF0320FFF7D6FFFFF7E4FF4B
:4016800010BDC04680225200014B1A607047C04680E200E0002243088B4274D303098B425FD3030A8B4244D3030B8B4228D3030C8B420DD3FF22090212BA030C8B4202D3E6
:4016C0001212090265D0030B8B4219D300E0090AC30B8B4201D3CB03C01A5241830B8B4201D38B03C01A5241430B8B4201D34B03C01A5241030B8B4201D30B03C01A524124
:40170000C30A8B4201D3CB02C01A5241830A8B4201D38B02C01A5241430A8B4201D34B02C01A5241030A8B4201D30B02C01A5241CDD2C3098B4201D3CB01C01A5241830938
:401740008B4201D38B01C01A524143098B4201D34B01C01A524103098B4201D30B01C01A5241C3088B4201D3CB00C01A524183088B4201D38B00C01A524143088B4201D34F
:401780004B00C01A5241411A00D20146524110467047FFE701B5002000F00CF802BDC0460029F7D003B5FFF775FF0EBC4243891A1847C0467047C046002B11D1002A0FD1AB
:4017C000002900D1002802D00021C943081C07B4024802A14018029003BDC046D9FFFFFF03B4684601B5029800F022F8019B9E4602B00CBC7047C046F0B583B0161C1F1CBB
:401800000090019100F058F8041C0D1C221C2B1C301C391C00F026F8009A019B121A8B410899201C0A604B60291C03B0F0BDC046F0B5141C83B01D1C0090019100F034F97E
:40184000221C2B1C061C0F1C00F00CF8009A019B121A8B410899301C0A604B60391C03B0F0BDC046F0B54F46464605042D0C2C1CC0B41704160C3F0C9946030C7C43754306
:401880005F4373437D19260CAD199C46AF4203D980235B029846C4444B465143434324042E0C240C2D0466442C1959188919201C0CBC90469946F0BDF0B544465F46564667
:4018C0004D46F0B41C1C85B0002900DAA9E00F1C0021061C8846101C191C002C00DA97E0341C3D1C82468946B94273D870D04946504600F085F98346391C301C00F080F972
:401900005B46181A031C8346203B9C4600D59CE00023002251460092019363469940019151468140019B0091BB4200D983E000D17EE0009A019B341C3D1CA41A9D41634637
:40194000002B00DA9AE0002600270296039701369E400396012686400296002800D171E00099019AD30799464B464E081E435708002301220CE0AF4201D1A6420AD8A41BDA
:40198000BD4124196D410138A4185D41002806D0AF42F0D9013824196D410028F8D12022029E039F5B46524236196F4199185AD4281CC8402C1C5B46DC40002968DB041C6A
:4019C0008C40231C59468840021CB61A9F4103E0B0428CD90026002741464B1E9941002300910193009A019B002554429D41331C6340181C3B1C6B40191C009B019CC018D2
:401A0000614105B03CBC90469946A246AB46F0BD4346DB430C1C9846131C00215842A1415EE7002746428F4101214942884652E7B14200D87DE70026002702960397002855
:401A400000D08DE7029E039FC6E720215346091ACB400022191C0023009201934B4683400B4301935CE75A4620239B1A2A1C9A40201C131C5A46D04018439BE720260027F5
:401A8000331A0026029603970127DF40039761E75B4620215D46C91A031CAC40CB40191C231C0B438EE7C046F0B545464E465746E0B4041C82B00D1C914698468B4262D871
:401AC0005FD04146484600F09BF8291C061C201C00F096F82023311A5B428A46C81865D44B4683401F1C4B468B401E1CAF4258D855D0A41BBD41002800DA77E00022002324
:401B00000092019301328240019201238B40009300293CD0FB079846404672087B080243012600270CE0AB4201D1A2420AD8A41A9D4124196D410139A4197D41002906D09E
:401B4000AB42F0D9013924196D410029F8D120220098019953465242001969419E183AD42F1CF7405346DD40002E29DB3C1CB440231C5446A7403A1C801A9941009001910E
:401B800005E082429DD900230024009301940098019902B01CBC90469946A246F0BDA342A7D90022002300920193B1E720224B46521AD3401A1C43468B401F1C174392E73F
:401BC000534620245646E41A3B1CB540E3401C1C2B1C2343CDE7524620239B1A2A1C9A40271C131C5246D7401F43BBE720230022581A0023009201930132C240019284E73E
:401C000010B5002903D100F007F8203002E0081C00F002F810BDC0461C2101231B04984201D3000C10391B0A984201D3000A08391B09984201D30009043902A2105C4018BF
:401C40007047C04604030202010101010000000000000000014B18687047C046400100200E4B70B500251E1C0D4CE41AA410A54204D0AB00F35898470135F8E700F0B2FC83
:401C8000084B00251E1C084CE41AA410A54204D0AB00F35898470135F8E770BDF0250000F0250000F0250000F8250000002310B5934203D0CC5CC4540133F9E710BD031C6E
:401CC0008218934202D019700133FAE7704700000EB410B59DB002A9029008610B48822488604861012040421FABC881084804CBA400006801938C8100F06CF80023029AB5
:401D000013701DB010BC08BC03B01847FFFFFF7F40010020F0B58E6885B0071C0C1C03920193B34245D390238A89DB001A423DD003250969236801985B1A029363695D4345
:401D4000EB0F5D19029B6D1001331B189D4200D21D1C381C53050FD5291C00F01DFB061E13D0029A2169FFF7A1FFA289184B134080221343A38111E02A1C00F065FB061E40
:401D80000CD1381C216900F0C1FA0C23402201203B60A38940421343A38117E0029B2661F61826606561019EED1AA560019BB34200D2019E321C2068039900F092FA002018
:401DC000A3689B1BA36023689E19266005B0F0BD7FFBFFFFF0B59FB0029005938B890E1C171C1B0610D50B69002B0DD1402100F0D3FA30603061002804D10C23029A01382B
:401E00001360D0E040237361002306AD6B6120336B761033AB763C1C2378002B03D1E31B049312D003E0252BF9D00134F4E7049B0298311C3A1CFFF76DFF431C00D1ACE09F
:401E40006A69049B944663446B612378002B00D1A3E00122002352426A6002A95432521801342B60EB60AB601370AB654F4F2178381C052200F02AFA002808D0C01B0127D8
:401E80008740381C2B68013418432860EEE72B68DA0604D55322202102A8121811701A0704D553222B2102A81218117022782A2A01D0099B0EE0059A111D12680591002AC8
:401EC00001DB099204E05242EA60022213432B60013409E02278303A092A04D80A214B4301349B18F6E7099323782E2B18D163782A2B09D1059B02341A1D1B680592002B20
:401F00000DDA01235B420AE0002301342278303A092A04D80A214B4301349B18F6E70793234F2178381C032200F0D0F9002807D0C01B40278740381C2B6801341843286048
:401F400021781C480622671C297600F0BFF9002812D0194B002B06D10722059B073393430833059314E005AB00930298291C321C124B00E000BF07E005AB00930298291CED
:401F8000321C0E4B00F08AF80390039B013304D06B69039A9B186B613DE7B3890B985B0601D5012040421FB0F0BDC046AE250000B4250000B825000000000000151D0000C5
:401FC000F7B5171C01930A698B6800900C1C934200DA131C221C3B6043321278002A01D001333B6023689B0602D53B6802333B60062523681D401ED0231C43331B785A1E99
:402000009341226892061CD53020E1184031C870211C5A1C45310978A21840320233D1700FE0221C0123009801991932089EB047431C0ED00135E3683A689B1A9D42F0DB51
:40204000DAE7221C009801994332089DA847431C02D10120404220E006232068E1683A6803400025042B03D18D1AEB43DB171D40A3682269934201DD9B1AED180027AF420B
:402080000ADA221C0123009801991A32089EB047431CDED00137F2E70020FEBDF0B58BB006920A1C43320793059004920A7E0C1C109B6E2A00D1A8E011D8632A22D009D859
:4020C000002A00D1B2E0582A00D0C2E045310A707C4A4FE0642A1DD0692A1BD0B9E0732A00D1A7E009D86F2A29D0702A00D0B0E0202209680A43226037E0752A1FD0782ABD
:4021000033D0A6E00E1C1A684236111D196013683370A1E021681A68080606D4490604D5111D19600023D55E02E0111D19601568002D3BDA2D23049A6D42137036E021688D
:402140001A68080606D4490604D51568111D1960ADB202E0111D196015685A4B227E03930A276F2A1DD108271BE0221C782145321170554A19680392081D226818600D6867
:40218000100602D4500600D5ADB2D30702D520231A4322601027002D03D1202322689A432260231C002243331A7002E00A27454B03936368A360002B03DB0422216891437E
:4021C0002160002D02D1049E002B0ED0049E281C391CFFF7E5FA039B013E5B5C281C3370391CFFF757FA051EF1D1082F09D12368DB0706D563682269934202DC3023013EB3
:402200003370049B9B1B23612BE009681A68080607D4490605D5111D19601368A28A1A8004E0111D1960136862691A600023049E236116E01A68111D196016680021301C8C
:40224000626800F043F8002801D0801B6060636803E0261C42363270012323610023049A1370079B05980093211C069B09AAFFF7A7FE431C02D10120404221E02369059822
:402280000699321C079DA847431CF4D023689B0705D4099BE068984212DA181C10E00025E368099A9B1A9D42F3DA221C0123059806991932079EB047431CDCD00135EFE78F
:4022C0000BB0F0BDBF250000D0250000C9B28218904204D003788B4202D00130F8E70020704710B5814208D28B18984205D29B1A013A09D3995C8154FAE70023934203D0E9
:40230000CC5CC4540133F9E710BD000030B500293ED004390B68002B00DAC9181D4A1368141C002B02D14B60116031E099420DD208680A189A4203D11368C3180B60536815
:402340004B60216024E08A4203D8131C5A68002AF9D11D685C198C420BD10968691858181960904214D110685268091819605A600EE08C4202D90C23036009E008680C183F
:40238000944203D114685268001908604A60596030BDC04698010020032370B5CC1C9C430834051C0C2C01D20C2405E0002C03DA0C2300202B6042E08C42F9D3204A13689A
:4023C000101C191C002913D00A68121B0DD40B2A02D90A608B181FE08B4202D15A6802601BE04A685A600B1C17E00B1C4968E9E7144E3368002B03D1281C00F04BF83060E0
:40240000281C211C00F046F8031C421CD0D00322C61C964386420AD11C60181C07210B301A1D8843821A0AD05142995007E0311A281C00F02FF8431CBAD0331CECE770BD81
:402440009801002094010020F8B5061C0C1C151C002904D1111CFFF79FFF041C18E0002A03D1FFF753FF2C1C12E000F025F8A8420ED2301C291CFFF78FFF071E07D0211C4A
:402480002A1CFFF713FC301C211CFFF73FFF3C1C201CF8BD38B50023064C051C081C2360FEF74AF9431C03D12368002B00D02B6038BDC046C80100200B1F1A68101F002A3C
:4024C00004DA891804390B68D01804387047000000000000E4F3FF7F010000004572726F7220696E6974000053797374656D207265616479000000004572726F72207265E3
:40250000636F72642074696D6500000074696D6520736B696572000054696D65206F7574000000004572726F722073746172746564000000202020202020202020200000CF
:4025400025693A25693A25693A25690000300F40000400400F400004030405060708090A0B0C0E0F101112131415161718191B1C1D1E1F2021222325262728292A2B2E2F9E
:40258000303132333435000000001F003B005A0078009700B500D400F300110130014E011F1C1F1E1F1E1F1F1E1F1E1F4300232D302B2000686C4C0065666745464700304C
:4025C000313233343536373839414243444546003031323334353637383961626364656600000000F8B5C046F8BC08BC9E46704775020000B1070000F8B5C046F8BC08BCE7
:402600009E4670474D02000018260000C8000020800000008800000000000000D00100200000C05D80BB000030000000006CDC0200000000000000000000000000000000BF
:4026400000000000000000000000000000000000AC250000000000000000000000000000000000000000000000000000000000000000000000000000000000000000000089
:4026800000000000000000000000000000000000E000002000000000000000000000000000000000000000000000000000000000000000000000000000000000000000001A
:4026C00000000000000000000000000000000000000000000000000000000000000000000000000000000000000000000000000000000000000000000000000000000000DA
:402700000000000000000000000000000000000000000000000000000000000000000000000000000000000000000000000000000000000000000000000000000000000099
:402740000000000000000000000000000000000000000000000000000000000000000000000000000000000000000000000000000000000000000000000000000000000059
:402780000000000000000000000000000000000000000000000000000000000000000000000000000000000000000000000000000000000000000000000000000000000019
:020000040001F9
:0200000490303A
:020000006A454F
:0200000490402A
:4000000000000000000000000000000000000000000000000000000000000000000000000000000000000000000000000000000000000000000000000000000000000000C0
:400040000000000000000000000000000000000000000000000000000000000000000000000000000000000000000000000000000000000000000000000000000000000080
:0200000490501A
:0C00000000020E34119E00010E407BE354
:0200000490600A
:0100000001FE
:00000001FF