:400000000040002011000000A15D0000A15D000080B500AF05F0F0FE80B500AF374B12221A6006F0B7F9364B181C05F0CDFF012006F0C0F9302005F0D7FF324B324A1A60FE
:40004000324B8022D2051A60314B314A126802210A431A602F4B304A1A60304B2F4A126808218A431A60FA23DB00181C06F008F82B4B181C06F032F92A4B2B4A1A602B4BA2
:400080002B4A1A602B4BD02252021A60274B2A4A1A602A4BE82252011A60244B284A1A60284B802212061A60274B8022D2021A60264B42221A60264B41221A60254B40229C
:4000C0001A60254B0820191C06F024F8082006F09BF8224B20221A600C4B214A1A60214B08221A60C0461F4B1B6808221340FAD11C4B01221A60BD4680BDC046300010407C
:40010000001BB70004010B40060000800C020B4078002E407C002E402D3E00006CF02E40DC05000008030140007FBB000000014042FF00800403014041FF00800003014004
:4001400040FF008008010B4000010B401C01014008010140040101404565000008020B400500004010020B4080B582B000AF72B6464B00221A60464B01221A70FB1D0022AE
:400180001A7023E0FB1D1A78131C5B009B185B00404A9B183B603B681A78597809020A43997809040A43DB781B061343191C3B681A795B791B0213439BB2081C191C05F0B8
:4001C0009FFEFB1D1A78FB1D01321A70FB1D1B78012BD7D9304A314B101C191C05F0A0FE2F4B304A1A60304BEE221A602F4B992212041A602E4B992212041A602D4B992243
:4002000012041A602C4B992212041A602B4B06221A602B4B06221A602A4A2A4B1B78DBB202210B43DBB21370274A274B1B78DBB23C218B43DBB214210B43DBB21370214AF9
:40024000204B1B78DBB216210B43DBB213701F4B02221A601E4B1F4A1A601F4B02221A601E4B1F4A1A601F4B90221A601E4B1F4A1A601F4B03221A601E4B24221A60FFF7AC
:40028000CBFE05F08DFEBD4602B080BD6CF02E401C700F404CAD000058AD000080AD000000000240990000EE0003024000500F4010500F4020500F4030500F4020001040D9
:4002C00000800F4000700F4001700F40000004400800044031B0D9001800044008010440B66D7B000002044008020440B6234000000304400803044010B5064C2378002BFF
:4003000007D1054B002B02D0044800E000BF0123237010BD7801002000000000B8A9000008B5084B002B03D00748084900E000BF07480368002B00D108BD064B002BFBD020
:400340009847F9E700000000B8A900007C010020C80000200000000080B500AF0C4B1B8801339AB20A4B1A80094B1A88FA239B009A420AD1064B00221A8006F049FC0120BD
:4003800005F0E8FC002005F0E5FCBD4680BDC046A801002080B582B000AF064B7B6006F04FFB7B680020191C06F0ACF8BD4602B080BDC0465903000098B500AF06F0D8FBF2
:4003C000031C0C1C181C211CBD4698BD80B500AF024B1B88181CBD4680BDC046A801002080B584B000AF06F08DFE6820002106F03DFF031CBB60BB68002B10D1002007F0E2
:4004000021F806F0BBFF07F0D7F86820012106F02DFF031CBB60BB68002B23D101E0BB68D5E00023FB601AE0FB68052B0ADC002007F06EF8031CD9B23A1CFB68D3180A1C4A
:400440001A7009E0012007F063F8031CD9B23A1CFB68D3180A1C1A70FB680133FB60FB68062BE1DD06F08AFF06F05EFE3B1C1B780F221340DAB23B1C1B78191C70230B408C
:400480001B11DBB2191C8900CB18DB18DBB2D318DAB2514B1A703B1C5B780F221340DAB23B1C5B78191C70230B401B11DBB2191C8900CB18DB18DBB2D318DAB2464B5A70A2
:4004C0003B1C9B781A1C402313409B11DAB2424BDA70414BDB78002B1ED13B1C9B780F221340DAB23B1C9B78191C10230B401B11DBB2191C8900CB18DB18DBB2D318DAB2B6
:40050000354B9A703B1C9B781A1C202313405B11DAB2314B1A7114E03B1C9B780F221340DAB23B1C9B78191C30230B401B11DBB2191C8900CB18DB18DBB2D318DAB2264B8F
:400540009A703B1CDB7807221340DAB2224B5A713B1C1B790F221340DAB23B1C1B79191C30230B401B11DBB2191C8900CB18DB18DBB2D318DAB2184B9A713B1C5B790F22B3
:400580001340DAB23B1C5B79191C10230B401B11DBB2191C8900CB18DB18DBB2D318DAB20D4BDA713B1C9B799BB20F2213409AB23B1C9B791B09DBB29BB2191C8900CB18F8
:4005C000DB189BB2D3189AB2034B1A810023181CBD4604B080BDC046A806002080B586B000AFF860B9607A603B60BB685A425341DBB2BB60FB685A425341DBB2FB60FB68A3
:40060000DB057B61BB689B057A6913437B617B68181C0A2108F022FA031C1B057A6913437B617B68181C0A2108F09EFA0B1C1B047A6913437B613B68181C0A2108F00EFA4D
:40064000031C1B037A6913437B613B68181C0A2108F08AFA0B1C1B027A6913437B613B6A181C0A2108F0FAF9031C1B017A6913437B613B6A181C0A2108F076FA0B1C1A1C49
:400680007B6913437B617B69181CBD4606B080BD80B586B000AFF860B9607A607B68FA22D200944663447B607B687B61FB68181C0A2108F0D3F9031C1B073B61FB68181CCB
:4006C0000A2108F051FA0B1C1B063A6913433B61BB68181C0A2108F0C1F9031C1B053A6913433B61BB68181C0A2108F03DFA0B1C1B043A6913433B617B68181CFA2399004E
:4007000008F0ACF9031C1B033A6913433B617B69181CFA23990008F027FA0B1C7B617B69181C642108F09AF9031C1B023A6913433B617B69181C642108F016FA0B1C7B61BF
:400740007B69181C0A2108F089F9031C1B013A6913433B617B69181C0A2108F005FA0B1C1A1C3B6913433B613B69181CBD4606B080BDC046F0B597B000AF786239620023B8
:400780000024BB64FC647A6AC0239B0113401B0BFA22920053437B647A6AF0231B0113401B0A642253437A6CD3187B647B6AF02213401A09131C9B009B185B001A1C7B6CDE
:4007C0009B187B647B6A0F2213407A6CD3187B648D4B7B652BE07B6D0322134006D17B6D181C642108F0C0F90B1E07D17B6D181CC823590008F0B8F90B1E01D1012300E0F9
:400800000023002B08D0BB6CFC6C804900225B185441BB64FC6407E0BB6CFC6C7C4900225B185441BB64FC647B6D01337B657A6D7B6C9A42CFD37A6A80235B0513401A0F02
:40084000131C9B009B185B003B647A6AF0231B0513401B0E3A6CD3183B643B6C5A1E6D4B5200D35A3B653B6C022B1AD97B6C0322134006D17B6C181C642108F075F90B1E1C
:4008800007D17B6C181CC823590008F06DF90B1E01D1012300E00023002B02D03B6D01333B653B6D5C4A5343BB610023FB61BB6CFC6CB969FA695B185441BB64FC647A6A0A
:4008C000C0239B0313401A0D131C9B009B185B00FB637A6AF0231B0313401B0CFA6BD318FB63FB6B4C4A53434C4A944663443B6100237B61BB6CFC6C39697A695B1854412A
:40090000BB64FC643A6AC0239B0313401A0D131C9B009B185B003B653A6AF0231B0313401B0C3A6DD3183B653A6A80231B04134001D0012300E00023BB633A6A8023DB03AC
:40094000134001D0012300E000237B63BB6B002B08D07B6B012B05D13B6D0B2B02D83B6D0C333B653B6DE12212015343BB600023FB60BB6CFC6CB968FA685B185441BB64D8
:40098000FC643A6AE023DB0113401A0B131C9B009B185B003B633A6AF0231B0113401B0A3A6BD3183B633A6B131C1B019B1A9B003B6000237B60BB6CFC6C39687A685B188F
:4009C0005441BB64FC643B6A702213401A09131C9B009B185B00FB623B6A0F221340FA6AD318FB62FB6A1D1C00231E1CBB6CFC6C5B197441BB64FC64BB6CFC6C181C211CFA
:400A0000BD4617B0F0BDC046B20700000085E2018033E101CC0000208051010080AEFEFF90B589B002AFFFF7DBFC031CFB60FB68002B2DD11C4BDB79191C1B4B9B791A1CF8
:400A4000194B1B89081C111C1A1CFFF721FE031CBB60154BDB78181C134B1B79191C124B9B781A1C104B5B781C1C0F4B1B780093231CFFF7B3FD031C7B60BA687B68101CEE
:400A8000191CFFF777FE031C0C1C3B617C6103E0002300243B617C613B697C69181C211CBD4607B090BDC046A806002080B584B000AF78607B68702213401A09131C9B00B9
:400AC0009B185B00FB607B680F221340FA68D318FB60FB68181CBD4604B080BD80B584B000AF78607A68E023DB0113401A0B131C9B009B185B00FB607A68F0231B01134033
:400B00001B0AFA68D318FB60FB68181CBD4604B080BDC04680B584B000AF78607A68C0239B0313401A0D131C9B009B185B00FB607A68F0231B0313401B0CFA68D318FB6022
:400B4000FB68181CBD4604B080BDC04680B500AF06F094FDBD4680BD80B582B000AF78600020002106F09CFD7B68181C06F0D2FD034B181C06F0CEFDBD4602B080BDC04664
:400B8000C4A9000080B582B000AF021CFB1D1A7001200F2106F084FDFB1D1B78002B03D1002006F0E3FD02E0012006F0DFFDBD4602B080BD80B582B000AF021CFB1D1A70ED
:400BC00001200E2106F06CFDFB1D1B78002B03D1022006F0CBFD02E0032006F0C7FDBD4602B080BDB0B584B002AF05F0CDFF031C7B607B68181CFFF78DFF051C7B68181C35
:400C0000FFF76CFF041C7B68181CFFF74FFF011C094A0A4B0091101C191C2A1C231C09F0B7FA0120002106F03BFD034B181C06F071FDBD4602B0B0BDB4010020D0A900002C
:400C4000B0B584B002AF78600A1CBB1C1A807B68181C3C2107F002FF031C1D1C7B68181C3C2107F081FF0B1C1C1CBB1C1B880A490A4A0093081C111C2A1C231C09F088FAA8
:400C80000020002106F00CFD034B181C06F042FDBD4602B0B0BDC046B4010020E8A9000080B582B000AF786009490A4A7B68081C111C1A1C042309F06BFA01200A2106F0EA
:400CC000EFFC034B181C06F025FDBD4602B080BDB401002000AA000080B582B000AF78607B68002B07D10120002106F0D9FC0C4B181C06F00FFD7B68002B0DD07B680F2B88
:400D00000AD87B68DBB2013BDBB20120191C06F0C7FC042006F02AFDBD4602B080BDC04608AA000080B584B000AF78607B6801331A780E23FB181A800E23FB181B881B0223
:400D40009AB27B681B789BB213439AB20E23FB181A800E23FB181B88181CBD4604B080BD80B584B000AF78607B6803331B78FB60FB681B027A68023212781343FB60FB68AA
:400D80001B027A68013212781343FB60FB681B027A6812781343FB60FB68181CBD4604B080BDC04680B582B000AF78600A1CBB1C1A807B685A1C7A60BA1C1288D2B21A7062
:400DC000BB1CBA1C1288120A1A807B685A1C7A60BA1C1288D2B21A70BD4602B080BDC04680B582B000AF786039607B685A1C7A603A68D2B21A703B681B0A3B607B685A1C27
:400E00007A603A68D2B21A703B681B0A3B607B685A1C7A603A68D2B21A703B681B0A3B607B685A1C7A603A68D2B21A70BD4602B080BDC04680B586B000AFF860B9607A603F
:400E4000FB687B61BB683B617B68002B0DD07B695A1C7A613A69511C396112781A707B68013B7B607B68002BF1D1BD4606B080BD80B586B000AFF860B9607A60FB687B6132
:400E80007B695A1C7A61BA68D2B21A707B68013B7B607B68002BF3D1BD4606B080BDC04680B588B000AFF860B9607A60FB68FB61BB68BB6100237B61FB695A1CFA611B78D9
:400EC000191CBB695A1CBA611B78CB1A7B617B68013B7B607B68002B02D07B69002BEBD07B69181CBD4608B080BDC04680B582B000AF7860396002E07B6801337B607B68BC
:400F00001B78002B05D07B681B781A1E3B689A42F2D17B681B78181CBD4602B080BDC04680B586B000AF78600F23FB1800221A707B68DB78002B3BD07B68DB6A7B617B6856
:400F400059787B6830331A1C7B69081C111C1A1C012302F0F5FC031E04D00F23FB1801221A7025E07B680022DA707B681B6A7A69D21A7B689B699A421AD27B689B783B61FF
:400F800013E07B689B697A69D3187B617B6859787B6830331A1C7B69081C111C1A1C012302F0CEFC3B69013B3B613B69012BE8D80F23FB181B78181CBD4606B080BDC0461E
:400FC00090B585B000AF786039600F23FB1800221A707B68DA6A3B689A4224D00F23FC187B68181CFFF79CFF031C23700F23FB181B78002B17D17B6859787B6830331A1C11
:401000003B68081C111C1A1C012302F03BFC031E06D001235B423B600F23FB1801221A707B683A68DA620F23FB181B78181CBD4605B090BD90B585B000AF78600F23FC18DB
:401040007B68181CFFF76CFF031C23700F23FB181B78002B61D17B681B78032B50D17B681B79012B4CD17B6830331A1C80239B00101C00211A1CFFF7FBFE7B682A4A94462F
:4010800063442A4A181C111CFFF78CFE7B683033274A181C111CFFF7A3FE7B688522920094466344234A181C111CFFF799FE7B68862292009A187B681B69101C191CFFF700
:4010C0008FFE7B68872292009A187B68DB68101C191CFFF785FE7B68DB695A1C7B68DA627B6859787B6830331A1C7B68DB6A081C111C1A1C012302F023FC7B6800221A7133
:401100007B685B78181C0021002202F087FC031E03D00F23FB1801221A700F23FB181B78181CBD4605B090BD2E02000055AA0000525261417272416180B582B000AF78602D
:4011400039603B68023B3B607B685B699A1E3B689A4201D8002307E07B685B891A1C3B685A437B689B6AD318181CBD4602B080BD80B586B000AF786039607B681B683B61D7
:401180003B68012B04D93B695A693B689A4202D801237B618AE001235B427B613B691B78022B49D0032B62D0012B00D07CE03B68FB60FB685B08FA68D318FB603B691A6AF3
:4011C000FB685B0AD3183A69101C191CFFF7F8FE031E00D06AE0FB685A1CFA60DB05DB0D3A693021D3185B181B78BB603B691A6AFB685B0AD3183A69101C191CFFF7E0FE63
:40120000031E00D052E0FB68DB05DB0D3A693021D3185B181B781B021A1CBB681343BB603B680122134002D0BB681B0902E0BB681B051B0D7B6139E03B691A6A3B681B0A30
:40124000D3183A69101C191CFFF7BAFE031E00D02CE03B685A00FF235B00134030333A69D318181CFFF75EFD031C7B611EE03B691A6A3B68DB09D3183A69101C191CFFF704
:401280009FFE031E00D011E03B689A00FE235B00134030333A69D318181CFFF761FD031C1B011B097B6101E001237B617B69181CBD4606B080BDC04690B589B000AFF86075
:4012C000B9607A601F23FB1802221A70BB68012B00D8E7E0FB685A69BB689A4200D8E1E0FB681B78022B00D17EE0032B00D1A1E0012B00D0D6E0BB68BB61BB695B08BA69DF
:40130000D318BB61FB681A6ABB695B0AD3181F22BC18FA68101C191CFFF752FE031C23701F23FB181B78002B00D0BBE0BB695A1CBA61DB05DB0D3033FA68D3187B61BB68D1
:40134000012213400ED07B691B78DBB21A1C0F231340DAB27B68DBB21B01DBB21343DBB2DBB201E07B68DBB27A691370FB680122DA70FB681A6ABB695B0AD3181F22BC184E
:40138000FA68101C191CFFF71BFE031C23701F23FB181B78002B00D084E0BB69DB05DB0D3033FA68D3187B61BB680122134003D07B681B09DBB211E07B691B78DBB21A1CBF
:4013C0000F239A43131CDAB27B681B0ADBB2191C0F230B40DBB21343DBB2DBB27A691370FB680122DA705DE0FB681A6ABB681B0AD3181F22BC18FA68101C191CFFF7E0FDA7
:40140000031C23701F23FB181B78002B00D049E0BB685A00FF235B0013403033FA68D2187B689BB2101C191CFFF7BCFCFB680122DA7037E0FB681A6ABB68DB09D3181F22B2
:40144000BC18FA68101C191CFFF7BAFD031C23701F23FB181B78002B00D023E07B681B011C09BB689A00FE235B0013403033FA68D318181CFFF774FC031C1B0F1B072343C5
:401480007B60BB689A00FE235B0013403033FA68D2187B68101C191CFFF7A2FCFB680122DA70C0461F23FB181B78181CBD4609B090BDC04690B589B000AFF860B9607A60C5
:4014C0001F23FB1800221A70FB681B68BB61BB68012B04D9BB695A69BB689A4201D802235AE07B68002B15D01F23FC18B9697A6801235B42081C111C1A1CFFF7DDFE031C1A
:4015000023701F23FB181B78002B03D01F23FB181B7841E0FA68BB68101C191CFFF728FE031C7B617B69002B00D134E07B69012B01D1022330E07B69013301D101232BE008
:401540001F23FC18BA69BB68101C191C0022FFF7B3FE031C23701F23FB181B78002B03D01F23FB181B7817E0BB691B6901330BD0BB691B695A1CBB691A61BB691B790122DF
:401580001343DAB2BB691A717B69BB60BB695A69BB689A42BED80023181CBD4609B090BD90B589B000AF786039607B681B683B613B68002B0DD13B69DB68BB61BB69002B21
:4015C00004D03B695A69BB699A421DD80123BB611AE07A683B68101C191CFFF7C9FD031CFB60FB68012B01D8012383E0FB68013301D1FB687EE03B695A69FB689A4201D9CC
:40160000FB6877E03B68BB61BB69FB61FB690133FB613B695A69FB699A4207D80223FB61FA69BB699A4201D9002363E07A68FB69101C191CFFF79CFD031CFB60FB68002BD5
:4016400013D1C0461723FC183969FA6901235B42081C111C1A1CFFF72FFE031C23701723FB181B78002B1ED10EE0FB68012B02D0FB68013301D1FB683CE0FA69BB699A427C
:4016800001D1002336E0C1E73B68002B0BD01723FC1839693A68FB69081C111C1A1CFFF70BFE031C23701723FB181B78002B16D13B69FA69DA603B691A693B695B69023BA1
:4016C0009A4204D23B691B695A1E3B691A613B691B7901221343DAB23B691A7109E01723FB181B78012B02D101235B4200E00123FB61FB69181CBD4609B090BD80B586B018
:4017000000AF786039607B681B683B613B68394A934203D83B681F22134001D0022365E07B683A681A617B689B687B617B69002B06D13B691B78022B02D93B695B6A7B6113
:401740007B69002B0CD13B685B093A691289934201D302234AE03B695A6A7B689A612CE03B695B895B02FB601AE07A687B69101C191CFFF7FDFC031C7B617B69013301D1B9
:40178000012333E07B69012B04D93B695A697B699A4201D8022329E03A68FB68D31A3B603A68FB689A42E0D23A697B69101C191CFFF7C2FC021C7B689A617B687A695A619E
:4017C0007B689B69002B01D102230FE07B689A693B685B0AD2187B689A613B68DB05DB0D30333A69D2187B68DA610023181CBD4606B080BDFFFF1F0080B586B000AF786066
:4018000039607B681B68FB607B681B692033BB607B689B69002B03D0BB685C4A934201D90423AEE0BB68DB05DB0D00D09DE07B689B695A1C7B689A617B685B69002B0BD146
:40184000BB685B09FA681289934200D28DE07B6800229A61042394E0BB685B0AFA685289013A134000D080E07A687B685B69101C191CFFF77DFC031C7B617B69012B01D875
:4018800002237EE07B69013301D1012379E0FB685A697B699A425CD83B68002B04D17B6800229A6104236CE07A687B685B69101C191CFFF775FE031C7B617B69002B01D1DF
:4018C00007235EE07B69012B01D1022359E07B69013301D1012354E0FB68181CFFF720FB031E01D001234CE0FB6830331A1C80239B00101C00211A1CFFF7BAFA00233B61EE
:40190000FA687B69101C191CFFF716FC021CFB68DA6212E0FB680122DA70FB68181CFFF7FFFA031E01D001232BE03B6901333B61FB68DB6A5A1CFB68DA62FB685B891A1E22
:401940003B699A42E6D8FB68DA6A3B69D21AFB68DA627B687A695A61FA687B69101C191CFFF7EAFB021C7B689A617B68BA681A61BB68DB05DB0D3033FA68D2187B68DA611C
:401980000023181CBD4606B080BDC046FFFF1F0090B587B000AF786039607B681B68FB601723FC187B68181C0021FFF7A7FE031C23701723FB181B78002B35D100233B61B7
:4019C0007B689B691722BC18FA68101C191CFFF7F7FA031C23701723FB181B78002B00D022E07B68DB691B78E52B04D07B68DB691B78002B08D13B6901333B613A693B68A4
:401A00009A4200D110E001E000233B611723FC187B68181C0121FFF7EFFE031C23701723FB181B78002BCBD01723FB181B78042B03D11723FB1807221A701723FB181B78E4
:401A4000181CBD4607B090BD80B584B000AF786039603B681A33181CFFF764F9031CFB607B681B78032B09D13B681433181CFFF759F9031C1B04FA681343FB60FB68181CE5
:401A8000BD4604B080BDC04680B584B000AFF860B9607A60BB681A331A1C7B689BB2101C191CFFF77FF9FB681B78032B09D1BB6814331A1C7B681B0C9BB2101C191CFFF7D8
:401AC00071F9BD4604B080BD90B587B000AF78607B681B683B611723FC187B68181C0021FFF70CFE031C23701723FB181B78002B03D01723FB181B784EE07B689B6917223F
:401B0000BC183A69101C191CFFF75AFA031C23701723FB181B78002B00D03AE07B68DA690F23FB1812781A700F23FB181B78002B04D11723FB1804221A702AE07B68DB6957
:401B40000B331B783F221340DAB27B689A717B68DB690B331B781A1C082313400BD17B68DA697B682033101C191C0B22FFF798F9031E00D10DE01723FC187B68181C002108
:401B8000FFF73AFE031C23701723FB181B78002BB3D01723FB181B78181CBD4607B090BD90B585B000AF78607B681B68BB600F23FC187B68181C0121FFF7EAFE031C23700B
:401BC0000F23FB181B78002B22D17B689B690F22BC18BA68101C191CFFF7F2F9031C23700F23FB181B78002B12D17B68DB69181C00212022FFF73CF97B68DA697B682033C2
:401C0000101C191C0B22FFF715F9BB680122DA700F23FB181B78181CBD4605B090BDC04680B588B000AF786039603B681B68FB607B682033BB60BB68181C20210B22FFF751
:401C400017F900233B613B697B610823BB617B695A1C7A61FA68D2181F23FB1812781A701F23FB181B78202B00D869E01F23FB181B782F2B04D01F23FB181B785C2B10D12A
:401C800002E07B6901337B61FA687B69D3181B782F2BF6D0FA687B69D3181B785C2BF0D04EE01F23FB181B782E2B03D03A69BB699A420ED3BB690B2B04D01F23FB181B7883
:401CC0002E2B01D0062358E008233B610B23BB6135E01F23FB181B785BB2002B09DA1F23FB181B78803B1A1C1F23FB1825498A5C1A701F23FB181B78234A101C191CFFF778
:401D0000F5F8031E01D0062337E01F23FB181B78602B0BD91F23FB181B787A2B06D81F23FB181F22BA181278203A1A703B695A1C3A61BA68D3181F22BA1812781A7086E796
:401D4000FA687B69D2183B681A603B69002B01D1062312E0BB681B78E52B02D1BB6805221A70BB680B331F22BA181278202A01D8042200E000221A700023181CBD4608B008
:401D800080BDC04618AA000098AA000090B587B000AF786039607B683B613B691B68FB6002E03B6801333B603B681B782F2BF8D03B681B785C2BF4D03B6900229A603B68AF
:401DC0001B781F2B0DD87B682B22802199541723FC187B68181C0021FFF790FC031C237055E01723FC187A683B1C101C191CFFF717FF031C23701723FB181B78002B00D0F3
:401E000045E01723FC187B68181CFFF75DFE031C23700B23FB187A682B21525C1A701723FB181B78002B10D01723FB181B78042B0AD10B23FB181B780422134004D117233D
:401E4000FB1805221A7022E021E00B23FB181B780422134000D01AE03B699B791A1C1023134004D11723FB1805221A700FE07B681B69DB05DB0D3033FA68D318FA68101CE1
:401E8000191CFFF7E1FD021C3B699A60A9E71723FB181B78181CBD4607B090BD80B586B000AF786001235B423B617B681B68002B31D07B681B687B6102E07B6901337B61B9
:401EC0007B691B78202B03D97B691B783A2BF4D17B691B783A2B1CD17B681B68FB60FB685A1CFA601B78303BBB60BB68092B0ED8FA687B699A420AD1BB68002B07D1BB684A
:401F00003B617B6901337B617B687A691A603B6902E000233B613B69181CBD4606B080BD80B582B000AF786039607B680022DA707B6801225242DA627A683B68101C191C2C
:401F4000FFF73EF8031E01D0042335E07B681C4A94466344181CFEF7E5FE031C1A1E194B9A4201D0032327E07B6830229B5CE92B09D07B6830229B5CEB2B1CD17B6832221D
:401F80009B5C902B17D17B686633181CFEF7E8FE031C1B021B0A0C4A934201D100230BE07B688233181CFEF7DBFE021E074B9A4201D1002300E00223181CBD4602B080BD88
:401FC0002E02000055AA0000464154004641543390B597B000AFF860B960FB1D1A70BB6800221A60FB68181CFFF758FF031CFB63FB6B002B01DA0B2346E2CB4BFA6B92008C
:40200000D358BB63BB6B002B01D10C233CE2BB68BA6B1A60FB1DFA1D127801218A431A70BB6B1B78002B1CD0BB6B5B783722BC18181C01F02DFB031C23703723FB181B78FE
:40204000012213400DD1FB1D1B78002B07D03723FB181B780422134001D00A2314E2002312E2BB6B00221A70FB6BDAB2BB6B5A70BB6B5B783722BC18181C01F01DFB031CA5
:4020800023703723FB181B780122134001D00323FAE1FB1D1B78002B07D03723FB181B780422134001D00A23EEE100233B655723FC18BA6B3B6D101C191CFFF731FF031C8E
:4020C00023705723FB181B78022B4BD100233B641CE03B6C1B01BF33FF333033BA6BD3183B633B6B04331B78002B06D03B6B0833181CFEF735FE011C00E000211423FB1818
:402100003A6C9200D1503B6C01333B643B6C032BDFD900233B643B6C002B02D03B6C013B3B641423FB183A6C9200D3583B653B6D002B08D0BA6B3B6D101C191CFFF7F0FE4D
:40214000031C1A1C00E003225723FB181A705723FB181B78012B05D93B6C01333B643B6C032BDED95723FB181B78042B01D101238AE15723FB181B78012B01D90D2383E154
:40218000BB6B3B33181CFEF7CDFD031C1A1C80239B009A4201D00D2376E1BB6B4633181CFEF7C0FD031CFB64FB6C002B06D1BB6B5433181CFEF7D4FD031CFB64BB6BFA6CB4
:4021C0009A61BB6B40229A5CBB6B9A70BB6B9B78012B05D0BB6B9B78022B01D00D2353E1BB6B9B781A1CFB6C5343FB64BB6B3D229B5C9AB2BB6B5A81BB6B5B89002B07D0C1
:40220000BB6B5B891A1CBB6B5B89013B134001D00D2339E1BB6B4133181CFEF783FD031C1A1CBB6B1A81BB6B1B890F2213409BB2002B01D00D2327E1BB6B4333181CFEF7BD
:4022400071FD031CBB64BB6C002B06D1BB6B5033181CFEF785FD031CBB64BB6B3E332E22BC18181CFEF75EFD031C23802E23FB181B88002B01D10D2306E12E23FB181A88D5
:40228000FB6CD318BA6B1289120992B29B18BB62BA6CBB6A9A4201D20D23F5E0BA6CBB6AD21ABB6B5B89101C191C06F0D7FB031C7B627B6A002B01D10D23E5E05723FB1814
:4022C00003221A707B6A194A934203D85723FB1802221A707B6A164A934203D85723FB1801221A707B6A9A1CBB6B5A61BB6B3A6DDA612E23FB181A883B6DD218BB6B1A620F
:402300003A6DBB6AD218BB6B9A625723FB181B78032B22D1BB6B5A33181CFEF703FD031E08D00D23B0E0C04618020020F5FF0000F50F0000BB6B1B89002B01D00D23A3E03E
:40234000BB6B5C33181CFEF70BFD021CBB6B5A62BB6B5B699B007B6420E0BB6B1B89002B01D10D2390E0BB6B1A6AFB6CD218BB6B5A625723FB181B78022B03D1BB6B5B69C4
:402380005B000AE0BB6B5A69131C5B009B185A08BB6B5B6901210B40D3187B64BB6B9A697B6C3B498C4663445B0A9A4201D20D236AE0BB6B012252421A61BB6B1A69BB6B6D
:4023C000DA60BB6B80221A715723FB181B78032B4AD1BB6B6033181CFEF7A4FC031E012B42D13B6D0133BA6B101C191CFEF7E8FD031E39D1BB6B00221A71BB6B254A94465C
:402400006344181CFEF78EFC031C1A1E224B9A422AD1BB6B3033181CFEF7A2FC021E1F4B9A4221D1BB6B8522920094466344181CFEF796FC021E1A4B9A4215D1BB6B86224F
:40244000920094466344181CFEF78AFC021CBB6B1A61BB6B8722920094466344181CFEF77FFC021CBB6BDA60BB6B5722BA1812781A700C4B1B8801339AB20A4B1A80094B95
:402480001A88BB6BDA800023181CBD4617B090BDFF0100002E02000055AA000052526141727241611C02002080B584B000AF786039607B68BB607B68002B1AD0BB681B682E
:4024C000002B16D0BB681B681B78002B11D0BB681B68DA88BB689B889A420AD1BB681B685B78181C01F0D4F8031C1A1C0123134007D03B6800221A600F23FB1809221A703B
:4025000007E0BB681A683B681A600F23FB1800221A700F23FB181B78181CBD4604B080BD90B589B000AFF860B960FB1D1A70BB683B611023FB18181CFFF7B0FC031CFB616B
:40254000FB69002B01DA0B232EE0194BFA699200D358BB61BB69002B02D0BB6900221A70FB68002B02D0FB6800221A70F968104BFA699200D150FB68002B03D0FB1D1B78D7
:40258000012B01D000230FE01723FC180823FA180C23FB18101C191C0022FFF719FD031C23701723FB181B78181CBD4609B090BD1802002090B599B000AFF860B9603B605E
:4025C000FB1D1A70FB68002B01D10923CDE1FB1DFA1D12783F210A401A705F23FC180823F9181423FA18FB1D1B78081C111C1A1CFFF7EEFC031C23705F23FB181B78002BE0
:4026000000D0A7E17A691823FB181A60BB685F22BC181822BA18101C191CFFF7B7FB031C23705F23FB181B78002B0BD11823FB182B229B5CDBB25BB2002B03DA5F23FB1860
:4026400006221A70FB1D1B781C22134000D19DE05F23FB181B78002B17D05F23FB181B78042B08D15F23FC181823FB18181CFFF797FA031C23703B6801221A60FB1DFA1DF4
:40268000127808210A431A7014E01823FB189B791A1C1123134004D05F23FB1807221A7008E0FB1D1B780422134003D05F23FB1808221A705F23FB181B78002B00D086E0B0
:4026C000FB1D1B780822134000D180E000233B651823FB18DB690E331A1C3B6D101C191CFEF77EFB1823FB18DB6916331A1C3B6D101C191CFEF774FB1823FB18DB690B33F0
:4027000020221A707A691823FB18DB69101C191CFFF79AF9031CFB647A691823FB18DB69101C191C0022FFF7AFF91823FB18DB691C33181C0021FEF753FB7B690122DA7090
:40274000FB6C002B43D07B69DB6A3B655F23FC181823FA18FB6C101C191C0022FEF7AAFE031C23705F23FB181B78002B2FD17A695F23FC183B6D101C191CFEF721FC031CC9
:4027800023707B69FA6C013ADA6020E05F23FB181B78002B1BD11823FB189B791A1C1023134004D05F23FB1804221A700FE0FB1D1B78022213400AD01823FB189B791A1CCE
:4027C0000123134003D05F23FB1807221A705F23FB181B78002B13D1FB1D1B780822134005D0FB1DFA1D127840210A431A707B69DA6AFB681A621823FB18DA69FB685A626B
:402800005F23FB181B78002B00D0A3E07A691823FB18DB69101C191CFFF716F9021CFB689A601823FB18DB691C33181CFEF798FA021CFB68DA607A69FB681A607B69DA883F
:40284000FB689A80FB68FA1D12781A74FB6800225A74FB680022DA61FB6800225A61FB6828331A1C80239B00101C00211A1CFEF7FFFAFB1D1B782022134000D16AE0FB6895
:40288000DB68002B66D0FB68DA68FB685A617B695B895B02BB64FB689B68BB65FB68DB687B6519E0FA68BB6D101C191CFEF760FC031CBB65BB6D012B03D85F23FB18022205
:4028C0001A70BB6D013303D15F23FB1801221A707A6DBB6CD31A7B655F23FB181B78002B03D17A6DBB6C9A42DCD8FB68BA6D9A615F23FB181B78002B2CD17B6DDB05DB0DB7
:4029000028D07A69BB6D101C191CFEF715FC031C7B647B6C002B04D15F23FB1802221A7018E07B6D5A0A7B6CD218FB68DA617B695978FB6828331A1CFB68DB69081C111CB1
:402940001A1C012300F09EFF031E03D05F23FB1801221A705F23FB181B78002B02D0FB6800221A605F23FB181B78181CBD4619B090BDC04690B58DB000AFF860B9607A601F
:402980003B60BB68FB613B6800221A602F23FC18FA681023FB18101C191CFFF785FD031C23702F23FB181B78002B09D12F23FB18FA68527C1A702F23FB181B78002B03D013
:4029C0002F23FB181B7847E1FB681B7C1A1C0223134001D107233FE1FB685A697B68D218FB685B699A4203D2FB685B69DB437B6026E1FB685B69DB05DB0D00D0DEE0FB6821
:402A00005B695B0A3A695289013A1340BB61BB69002B38D1FB685B69002B0DD1FB689B68BB62BB6A002B10D1FB68181C0021FEF7B7FD031CBB6208E0FA68FB689B69101C8F
:402A4000191CFEF7ADFD031CBB62BB6A002B00D1FAE0BB6A012B04D1FB6802225A740223FAE0BB6A013304D1FB6801225A740123F2E0FB68BA6A9A61FB689B68002B02D173
:402A8000FB68BA6A9A60FB681B7CDBB25BB2002B1ADA3B695978FB6828331A1CFB68DB69081C111C1A1C012300F04AFF031E04D0FB6801225A740123CEE0FB681B7C7F2238
:402AC0001340DAB2FB681A743A69FB689B69101C191CFEF731FB031C7B617B69002B04D1FB6802225A740223B6E07A69BB69D3187B617B685B0A3B623B6A002B3DD0BA69D8
:402B00003B6AD3183A695289934205D93B695B891A1CBB69D31A3B623B695878F9697A693B6A00F00DFF031E04D0FB6801225A74012391E0FB68DA697B69D21A3B6A9A4239
:402B400017D2FB682833191CFB68DA697B69D31A5B02FA69D21880239B00081C111C1A1CFEF768F9FB681B7C7F221340DAB2FB681A743B6A5B027B6244E0FB68DA697B6945
:402B80009A4218D0FB685A69FB68DB689A4212D23B695978FB6828331A1C7B69081C111C1A1C012300F06EFE031E04D0FB6801225A74012350E0FB687A69DA61FB685B692C
:402BC000DB05DB0D80229200D31A7B627A6A7B689A4201D97B687B62FB685B69DB05DB0D2833FA68D118FA697B6A081C111C1A1CFEF720F9FB681B7C802252421343DAB24E
:402C0000FB681A74FA697B6AD318FB61FB685A697B6AD218FB685A61FB68D968FB685A690B1E934200D2131CFA68D3603B681A687B6AD2183B681A607A687B6AD31A7B6003
:402C40007B68002B00D0D4E6FB681B7C40221343DAB2FB681A740023181CBD460DB090BD90B587B000AF78601723FC187A680823FB18101C191CFFF717FC031C2370172362
:402C8000FB181B78002B74D17B681B7C1A1C402313406ED07B681B7CDBB25BB2002B17DABB6859787B6828331A1C7B68DB69081C111C1A1C012300F043FE031E01D00123A9
:402CC0005AE07B681B7C7F221340DAB27B681A7400233B61BA687B681B6A17217C18101C191CFEF76DF9031C23701723FB181B78002B3ED17B685B6AFB60FB680B33FA688C
:402D00000B32127820210A43D2B21A707B6819687B689B68FA68081C111C1A1CFEF7B4FEFB681C331A1C7B68DB68101C191CFEF757F8FB6816331A1C3B69101C191CFEF7C7
:402D40004FF8FB681233181C0021FEF72BF8BB680122DA70BB681722BC18181CFEF76AF9031C23707B681B7C40229343DAB27B681A741723FB181B78181CBD4607B090BD2F
:402D800090B585B000AF78600F23FC187B68181CFFF766FF031C23700F23FB181B78002B12D10F23FC187A680823FB18101C191CFFF77AFB031C23700F23FB181B78002BDB
:402DC00002D17B6800221A600F23FB181B78181CBD4605B090BDC04680B584B000AF78600A1CFB1C1A70FB1C1B780A2B04D17B68181C0D21FFF7F0FF7B685B68FB60FB6871
:402E0000002B25DBFB685A1CFA607A68D318FA1C12781A73FB683C2B12DD7B6818687B680C33191CFA680823FB18FFF7A3FDFA68BB689A4201D1002301E001235B42FB603E
:402E40007B68FA685A607B689B685A1C7B689A60BD4604B080BDC04690B585B000AF78607B685B68002B19DB7B6819687B680C331A1C7B685B681C1C0C23FB18081C111C2D
:402E8000221CFFF777FD031E08D17B685B681A1EFB689A4202D17B689B6801E001235B42181CBD4605B090BD80B582B000AF786039607B683A681A607B6800225A607B6897
:402EC0005A687B689A60BD4602B080BD0EB480B5A7B000AF78602C23FA187B68101C191CFFF7E2FFA823FB18BB67A423FB181B685A1CA42179180A608322BA181B781370D0
:402F00008323FB181B78002B00D126E28323FB181B78252B09D02C23FA188323FB181B78101C191CFFF758FF16E29723FB1800221A7000238822BA181360A423FB181B6891
:402F40005A1CA42179180A608322BA181B7813708323FB181B78302B0FD19723FB1801221A70A423FB181B685A1CA42179180A608322BA181B78137013E08323FB181B782E
:402F80002D2B0ED19723FB1802221A70A423FB181B685A1CA42179180A608322BA181B7813701AE08823FB181A68131C9B009B185B001A1C8323FB181B78D318303B8822AB
:402FC000BA181360A423FB181B685A1CA42179180A608322BA181B7813708323FB181B782F2B04D98323FB181B78392BDAD98323FB181B786C2B04D08323FB181B784C2B0C
:4030000012D19723FB189722BA18127804210A431A70A423FB181B685A1CA42179180A608322BA181B7813708323FB181B78002B00D192E18223FB188322BA1812781A70B1
:403040008223FB181B78602B0BD98223FB181B787A2B06D88223FB188222BA181278203A1A708223FB181B78423B162B00D979E09A00C04BD3181B689F46BB6F1A1DBA6777
:403080001B68FB6700238C22BA18136006E08C23FB181B6801338C22BA181360FA6F8C23FB181B68D3181B78002BF0D19723FB181B780222134012D105E02C23FB18181C76
:4030C0002021FFF789FE8C23FB181B685A1C8C2179180A608822BA1812689342EDD309E0FB6F5A1CFA671B782C22BA18101C191CFFF772FEFB6F1B78002BF1D105E02C2362
:40310000FB18181C2021FFF767FE8C23FB181B685A1C8C2179180A608822BA1812689342EDD319E1BB6F1A1DBA671B68DBB22C22BA18101C191CFFF74FFE0DE19623FB18B4
:4031400002221A7018E09623FB1808221A7013E09623FB180A221A700EE09623FB1810221A7009E02C23FA188323FB181B78101C191CFFF731FEEFE09723FB181B780422CD
:40318000134004D0BB6F1A1DBA671B680DE08223FB181B78442B04D1BB6F1A1DBA671B6803E0BB6F1A1DBA671B688422BA1813608223FB181B78442B13D18423FB181B68B4
:4031C000002B0EDA8423FB181B685B428422BA1813609723FB189722BA18127808210A431A7000239022BA1813609623FB181B788422BA181268101C191C05F0B5FC0B1C7C
:403200001A1C8223FB181A709623FB181B788422BA181068191C05F021FC031C8422BA1813608223FB181B78092B0ED98323FB181B78782B01D1272300E007238222BA1885
:403240008221791809785B1813709023FB181B685A1C902179180A608222BA1812783032D1B20C22BA18D1548423FB181B68002B04D09023FB181B681F2BB6D99723FB1803
:403280001B78082213400AD09023FB181B685A1C902179180A600C22BA182D21D1549023FB181B688C22BA1813609723FB181B780122134001D0302200E020228223FB1837
:4032C0001A7008E02C23FA188223FB181B78101C191CFFF781FD9723FB181B78022213400BD18C23FB181B685A1C8C2179180A608822BA1812689342E4D39023FB181B68FA
:40330000013B9022BA1813600C23FA189023FB181B68D3181B782C22BA18101C191CFFF75BFD9023FB181B68002BE6D108E02C23FA188223FB181B78101C191CFFF74CFD24
:403340008C23FB181B685A1C8C2179180A608822BA1812689342EAD3C7E52C23FB18181CFFF77AFD031C181CBD4627B080BC08BC03B01847A8AA000080B582B000AF786034
:4033800039603B689BB27A68101C191C04F0ACFE052002F07FFFBD4602B080BD90B583B000AF786039607C68631C7B6004F0C2FE031C23703B68013B3B603B68002BF2D1D5
:4033C000BD4603B090BDC04680B582B000AF0F4B7B600FE0FB1C181C0121FFF7DFFFFB1C1B78FF2B00D108E0642002F077FF7B68013B7B607B68002BECD17B685A1E9341DC
:40340000DBB2181CBD4602B080BDC0468813000080B582B000AF012002F060FFFB1D181C0121FFF7BBFFBD4602B080BD80B582B000AF012002F052FFFB1D181C0121FFF7C2
:40344000ADFFFFF7C1FF031E01D0012302E0FFF7DFFF0023181CBD4602B080BD80B584B000AF78603960FA239B00FB6011E00823FB18181C0121FFF791FF0823FB181B785D
:40348000FF2B00D008E0642002F028FFFB68013BFB60FB68002BEAD10823FB181B78FE2B01D000230CE07A683B68101C191CFFF775FF0823FB18181C0221FFF76FFF012303
:4034C000181CBD4604B080BD80B584B000AF78600A1CFB1C1A70FFF777FF031E01D1002332E00C23FB18FA1C12781A700C23FB18181C0121FFF740FF642002F0EFFEFB1CA6
:403500001B78FD2B1FD07A6880239B00101C191CFFF732FF642002F0E1FE0C23FB18181C0221FFF73BFF0C23FB18181C0121FFF735FF0C23FB181B781A1C1F231340052B89
:4035400001D0002300E00123181CBD4604B080BD90B585B000AF021C3960FB1D1A70FB1D1B785BB2002B16DAFB1DFA1D12787F210A401A700F23FC1837200021FFF7E8FF0E
:40358000031C23700F23FB181B78012B03D90F23FB181B7877E0FB1D1B780C2B07D0FFF737FFFFF743FF031E01D1FF236BE0FB1D1B7840221343DAB20823FB181A703B6873
:4035C0001B0EDAB20823FB185A703B681B0CDAB20823FB189A703B681B0ADAB20823FB18DA703B68DAB20823FB181A710F23FB1801221A70FB1D1B78002B03D10F23FB18BB
:4036000095221A70FB1D1B78082B03D10F23FB1887221A700823FB180F22BA1812785A710823FB18181C0621FFF7A6FE642002F055FEFB1D1B780C2B05D10E23FB18181C5D
:403640000121FFF7ABFE0F23FB1814221A700E23FB18181C0121FFF7A1FE0E23FB181B78DBB25BB2002B0BDA0F23FB180F22BA181278013A1A700F23FB181B78002BE6D183
:403680000E23FB181B78181CBD4605B090BDC04680B582B000AF021CFB1D1A70FB1D1B78002B01D0012301E0024B1B78181CBD4602B080BDF000002080B586B000AF021C24
:4036C000FB1D1A70FB1D1B78002B01D00323CEE0694B181C02F002FE1723FB180A221A700CE00823FB18181C0121FFF757FE1723FB181A781723FB18013A1A701723FB18C7
:403700001B78002BEDD11623FB1800221A7000200021FFF71DFF031E012B00D08FE0D5235B000820191CFFF713FF031E012B46D10823FB18181C0421FFF730FE0823FB1821
:403740009B78012B00D07AE00823FB18DB78AA2B00D074E0FA239B003B6110E08023DB05A920191CFFF7F4FE031E00D10AE0FA239B00181C02F0B2FD3B69013B3B613B6920
:40378000002BEBD13B69002B59D03A200021FFF7DFFE031E53D10823FB18181C0421FFF7FDFD0823FB181B781A1C4023134001D00C2200E004221623FB181A703FE0A92090
:4037C0000021FFF7C5FE031E012B08D81623FB1802221A701523FB18A9221A7007E01623FB1801221A701523FB1801221A70FA239B003B6111E01523FB181B78181C0021D8
:40380000FFF7A6FE031E00D10AE0FA239B00181C02F064FD3B69013B3B613B69002BEAD13B69002B07D080239B001020191CFFF78FFE031E03D01623FB1800221A700F4BBB
:403840001622BA1812781A701623FB181B785A425341DAB20F23FB181A70094B0F22BA1812781A70FFF7D4FD0F23FB181B78181CBD4606B080BDC04610270000200200200D
:40388000F000002080B586B000AFB9607A603B600F23FB18021C1A700F23FB181B78181CFFF7F6FE031C1A1C0123134001D0032340E0224B1B781A1C0823134002D17B6820
:4038C0005B027B603B68012B01D9122200E011221723FB181A701723FB181A787B68101C191CFFF735FE031E1ED1BA6880239B00101C191CFFF7B2FD031E00D10BE0BB6807
:403900008022920094466344BB603B68013B3B603B68002BE9D11723FB181B78122B03D10C200021FFF714FEFFF772FD3B685A1E9341DBB2181CBD4606B080BD2002002022
:4039400080B584B000AFB9607A603B600F23FB18021C1A700F23FB181B78181CFFF798FE031C1A1C0123134001D0032350E02A4B1B781A1C0823134002D17B685B027B607F
:403980003B68012B10D17B681820191CFFF7E0FD031E37D1BB68181CFE21FFF795FD031E30D000233B602DE01B4B1B781A1C0623134004D03B689720191CFFF7C9FD7B6874
:4039C0001920191CFFF7C4FD031E1BD1BB68181CFC21FFF779FD031E00D10BE0BB688022920094466344BB603B68013B3B603B68002BEBD10020FD21FFF766FD031E01D157
:403A000001233B60FFF704FD3B685A1E9341DBB2181CBD4604B080BD2002002080B58AB000AF3A60FB1D021C1A70BB1D0A1C1A70FB1D1B78181CFFF72BFE031C1A1C012373
:403A4000134001D0032394E02723FB1801221A70BB1D1B78012B0FD0032B00D178E0002B00D07DE0FFF7E2FC031E04D02723FB1800221A7078E077E009200021FFF768FD33
:403A8000031E64D10C23FB18181C1021FFF7E6FC031E5CD00C23FB181B789B09DBB2012B18D10C23FB185B7A1A1C0C23FB181B7A1B02D3181A1C0C23FB18DB79191C3F233A
:403AC0000B401B04D31801333B623B6A9A023B681A6037E00C23FB185B790F221340DAB20C23FB189B7ADB09DBB2D318DAB20C23FB185B7A03210B40DBB2DB18DBB2D31848
:403B0000DAB21F23FB1802321A700C23FB181B7A9B09DBB21A1C0C23FB18DB799B00D2180C23FB189B79191C03230B409B02D31801333B621F23FB181B78093B3A6A9A408E
:403B40003B681A602723FB1800221A700CE00BE03B6880221A602723FB1800221A7003E02723FB1804221A70FFF752FC2723FB181B78181CBD460AB080BDC04698B500AF2C
:403B800004F074FB094B01221A60FCF715FC031C0C1C074A13605460FCF718FC021C054B1A6004F06DFBBD4698BDC0463C020020300200203802002080B500AF04F060FB08
:403BC000054B181C04F002FB04F050FB034B00221A60BD4680BDC0467D3B00003C02002080B582B000AF054B1B687B60034B00221A607B68181CBD4602B080BD3C020020B6
:403C000080B500AF04F03CFB04F026FBBD4680BD90B583B000AF78603960064B5C681B687A6813605460044B1A683B681A60BD4603B090BD300200203802002080B582B0E3
:403C400000AF00F011FB031C7B607B68002B02D101237B6001E000237B607B68181CBD4602B080BD80B582B000AF114B0C22DA8000237B600DE07B6801331A010D4BD2187E
:403C80000C497B681B01CB1808335A607B6801337B607B68062BEED9064B064ADA67064B044A1A60054B034A1A60BD4602B080BDE8220020E0260020642700206027002065
:403CC00090B585B000AFB860F960BB1D1A800C4B1B68BA1D12881A81094B1A68BB68FC6813605460064B1B68DA68054B1A60054B1B685A1C034B1A60BD4605B090BDC04652
:403D000060270020E022002090B583B000AF786039600C4B1B681A893B681A80094B1B685C681B687A6813605460064B1B68DA68044B1A60044B1B685A1E034B1A60BD464D
:403D400003B090BD64270020E022002090B585B000AFB860F960BB1D1A80BB68FC68BA1D1288181C211CFFF7ABFF0123181CBD4605B090BD90B585B000AFB860F960BB1D92
:403D80001A80254B1B88962B02D1234B00221A80214B1B881A1C131C5B009B181B011F4A99181D4B1B881A1C131C5B009B181B0108331A1C194BD318081C191CFFF7A4FF94
:403DC000154B1B88191C154A0B1C5B005B181B01D3181833BA1D12881A800F4B1B88191C0E4A0B1C5B005B181B01D31810331A1CBB68FC6813605460074B1B88181C00F014
:403E000019F8054B1B8801339AB2034B1A800123181CBD4605B090BDE4220020C006002080B500AF024B1B68181CBD4680BDC046E022002090B583B000AF78603E497A68F5
:403E4000131C5B009B181B01CB18103319685A68394C7868031C5B001B181B01E3185C681B68C91AA241344C7868031C5B001B181B01E318203319605A602F497A68131C17
:403E80005B009B181B01CB18183319882A487A68131C5B009B181B01C31808331B88CB1A98B225497A68131C5B009B181B01CB182833021C1A8020497A68131C5B009B184D
:403EC0001B01CB1828331A88FA239B009A422DD919497A68131C5B009B181B01CB1820335C681B6801214942CA17C9186241124C7868031C5B001B181B01E3182033196032
:403F00005A600D497A68131C5B009B181B01CB1828331B885B4298B207497A68131C5B009B181B01CB182833021C1A800123181CBD4603B090BDC046C006002090B583B02E
:403F400000AF0F4B1B88002B07D10E4AE2235B01D3185C681B687B600CE0094B1B885A1E0849131C5B009B181B01CB1820335C681B687B607B68181CBD4603B090BDC0464F
:403F8000E4220020C006002080B582B000AF0D4B1B88002B04D10C4B0C4A9B5A7B600BE0084B1B885A1E0849131C5B009B181B01CB1828331B887B607B68181CBD4602B0DC
:403FC00080BDC046E4220020C0060020481C000080B500AF024B1B88181CBD4680BDC046E822002084B098B500AF10243C1920606160A260E360194B1A88184BDB889A42AF
:4040000026D2164B1B8801339AB2144B1A80134B9B885A1C91B2114A9180181C0F4A0821031C5B001B181B01D3185B181022BA18191C3023081C111C1A1C06F097F8074B9E
:404040009A88064BDB889A4202D1044B00229A80BD4698BC08BC04B01847C046E822002090B583B000AF7860164B1B88002B26D0144B5B885A1C91B2124A5180181C7C686E
:40408000104A0821031C5B001B181B01D3185B18211C1A1C3023081C111C1A1C06F066F8084B5A88074BDB889A4202D1054B00225A80044B1B88013B9AB2024B1A80BD466C
:4040C00003B090BDE822002084B098B500AF10243C1920606160A260E360074A92239B0010217918D3183022181C06F03FF8BD4698BC08BC04B01847E822002080B584B095
:4041000000AF78607B68702213401A09131C9B009B185B00FB607B680F221340FA68D318FB60FB68181CBD4604B080BD80B584B000AF78607A68E023DB0113401A0B131CE8
:404140009B009B185B00FB607A68F0231B0113401B0AFA68D318FB60FB68181CBD4604B080BDC04680B584B000AF78607A68C0239B0313401A0D131C9B009B185B00FB6079
:404180007A68F0231B0313401B0CFA68D318FB60FB68181CBD4604B080BDC04680B584B000AF78607A68C0239B0313401A0D131C9B009B185B00FB607A68F0231B031340D3
:4041C0001B0CFA68D318FB60FB68181CBD4604B080BDC04680B584B000AF78607A6880235B0513401A0F131C9B009B185B00FB607A68F0231B0513401B0EFA68D318FB60A2
:40420000FB68181CBD4604B080BDC04680B584B000AF78607A68C0239B0113401B0BFA2292005343FB607A68F0231B0113401B0A64225343FA68D318FB607B68F0221340EF
:404240001A09131C9B009B185B001A1CFB689B18FB607B680F221340FA68D318FB60FB68181CBD4604B080BD90B583B000AFFC1D074A084B101C191C0122FEF751F9031C3C
:404280002370FB1D1B78181CBD4603B090BDC0466827002004AB0000B0B5BCB002AF786002F094FC031CE022BA181360E023FB181B68181CFFF7AAFF031C914A94466344FC
:4042C000DC22BA181360E023FB181B68181CFFF781FF031CD822BA181360E023FB181B68181CFFF75BFF031CD422BA181360B823F8188449D423FB181A68D823FB181C688D
:40430000DC23FB181B680093231C05F041FF7E4B00221A60E723FC187C49B823FA187A4B081C111C3222FEF745F9031C2370E723FB181B78002B00D0DAE07B685C681B68CE
:404340006C22B91800220092081C1A1C231C02F04DFD6C23FB181B68181CFFF703FF051C6C23FB181B68181CFFF7E0FE041C6C23FB181B68181CFFF7C1FE7B681B89191CCC
:40438000A423FA18624B00900191101C191C2A1C231C05F0FDFE7B685C691B696C22B91800220092081C1A1C231C02F01FFD6C23FB181B68181CFFF7D5FE051C6C23FB18B4
:4043C0001B68181CFFF7B2FE041C6C23FB181B68181CFFF793FE7B681B8B191C9023FA184B4B00900191101C191C2A1C231C05F0CFFE7B685C6A1B6A1D1C7B681B8D1C1C53
:404400007C23FA18434B101C191C2A1C231C05F0BFFE414B1A680823F8184049A423FC189023FB1800937C23FB180193231C05F0AFFE394B1B68012B03D0334B1B68012B45
:4044400035D102F0A1FB031CD022BA181360D023FB181B68181CFFF785FE051CD023FB181B68181CFFF762FE041CD023FB181B68181CFFF743FE011C244A294B0091101C18
:40448000191C2A1C231CFEF721FD204A254B101C191CFEF71BFD1D4A234B101C191CFEF715FD1A4A1F4B101C191CFEF70FFD0823FB18181C05F09BFE051CE723FC181349DF
:4044C0000823FA18CC23FB18081C111C2A1CFEF751FA031C2370E723FC180C4B181CFEF74FFC031C23700C4B1B685A1C0A4B1A60E723FB181B78181CBD463AB0B0BDC046F6
:4045000030F8FFFF08AB0000982900209C2900201CAB000038AB0000F400002048AB000058AB00007CAB0000B4AB000080B500AF03F07CFA064B1B78002B03D1054B181CEE
:4045400003F026FB024B01221A70BD4680BDC046C42B00205945000080B500AF03F098FB031CDB43DBB2181C03F06EFB022003F003FBBD4680BDC04680B584B000AF021CE7
:40458000BB1D1A80BB1D1B885B001A1CFA239800111C04F063FA031CFB60FB68181C03F0A7FA03F063FABD4604B080BD80B582B000AF021CFB1D1A7003F074FAFB1D1B787F
:4045C000181C03F041FBBD4602B080BD80B584B000AF78600A1CFB1C1A70FB1C1B78FB600C4B1B68002B01D100F03AF87A68FB685340BB607B681A0ABB68FF211940064BCA
:404600008900CB5853407B607B68181CBD4604B080BDC046400200204402002080B586B000AFF860B9607A607B683B6100237B610DE0FA687B69D3181B783A69101C191CEF
:40464000FFF7C4FF031C3B617B6901337B617A69BB689A42EDD33B69181CBD4606B080BD80B584B000AF0023FB601FE0FB687B600023BB600FE07B680122134005D07B6851
:404680005B080F4A53407B6002E07B685B087B60BB680133BB60BB68072BECDD094BFA6892007968D150FB680133FB60FB68FF2BDCDD054B01221A60BD4604B080BDC046D4
:4046C0002083B8ED440200204002002080B500AF03F004FB044B01221A75044B00229A7403F064FBBD4680BDF02B0020D02B002090B59FB004AF214B9B7C002B03D0204B39
:404700001B7D012B36D1FFF78BFB031CDAB21B4BDA701A4B5B781C1C184B9B78181C174BDB783422B918174A00940190029300230393081C111C0022002305F029FD0F4B02
:404740001B781C1C3A1C3423FB18101C191C221C00F0B2FD3B1C181C03F060FC074B01229A74074B00221A75074B00221A60322001F090FDBD461BB090BDC046D02B002016
:40478000F02B0020D4AB0000142C002090B58BB000AF564B1B7D002B00D0A2E0544B9B7C012B00D09DE000237B6276E03A1C2323FB181B78101C191C00F0ECFA031C7B6200
:4047C000022001F067FD3B1C1B7E012B65D13B1C1B88DAB2454B1A70454B1A78434B1B789A4238D1414B01221A75414B00229A74404B01221A60404B00221A603B1C5B8AA3
:404800001B0A9BB2DAB2394B9A743B1CDC689B68364A9360D4603B1C1A8A344B1A823B1C5B8ADAB2314BDA74304B9B7C012B08D12E4BDC689B682D4A128A181C211CFFF72A
:4048400085FA2B4B1B780133DAB2294B1A70322001F020FD1FE0264B1B781A1C234B1B7801339A4217D13B1C5B8ADAB21F4B9A743B1CDC689B681D4A9360D4603B1C1A8AF9
:404880001A4B1A821B4B01221A601B4B00221A60322001F0FFFC012324E003F067FA031E0BD003F09BFB021C2323FB181A702323FB181B78002B00D078E70F4B1B685A1C19
:4048C0000D4B1A600C4B1B68312B08D9084B00229A74064B00221A75064B00221A60002300E00023181CBD460BB090BDF02B0020D02B00200C2C0020142C002080B582B083
:4049000000AF78607B68DAB2024B5A70BD4602B080BDC046D02B002080B500AF024B1B68181CBD4680BDC0460C2C002080B582B000AF0D4BDB7C012B09D10C4B9B78002B71
:4049400005D1FF237B60084B0022DA7407E0074B00229A70044B0022DA74FE237B607B68181CBD4602B080BDF02B0020D02B002080B582B000AF78607B68FF2B03D1054B03
:4049800001229A7002E0034B00229A70BD4602B080BDC046D02B002090B595B002AF0023BB6300237B630023FB6300237B6200233B6300237B646DE0FBF7FEFC031C0C1C1A
:4049C0001A1C1423FB181A60FBF700FD031C9AB20C23FB181A801423FB1819680C23FB181A88FB6B081C111C1A1C00F0CBF896235B00181C01F04EFC1423FB18181D0C2307
:404A0000FB18991C1423FB1808331A1C0C23FB181C1D2423FB180093231C00F0D9F8031CFB62FB6A012B32D17A6AFB6B9A422ED1FBF7C2FC031C0C1C1A1C1423FB18DA60A5
:404A4000FBF7C4FC031C9AB20C23FB18DA801423F8180C23F9180823FA183B1D00F02CF9BB681A1CBB6B9B18BB637B681A1C7B6B9B187B63FB6B181CFCF72EF9FB6B01331E
:404A8000FB6300233B637B6C01337B6402E03B6B01333B637B6C0D2B02DC3B6B142B8BD93B6B132B04D94223FB1801221A805DE0BB6B9AB22A23FB18FA2189004A431A806D
:404AC0000023BB632A23FB181A887B6BD318181C0E2103F0C3FF031C7B6307E07B6B274A944663447B63BB6B0133BB637B6B244A9342F3D8FBF760FC031C0C1C1A1CBB6B93
:404B0000D2181423FB18DA60FBF760FC031C9AB27B6B9BB2D3189AB20C23FB18DA800C23FB18DB88164A934210D91423FB18DB685A1C1423FB18DA600C23FB18DB880F4A00
:404B4000944663449AB20C23FB18DA801423FB18D9680C23FB18DA88FB6B081C111C1A1C00F084F84223FB1800221A804223FB181B88181CBD4613B090BDC04618FCFFFF96
:404B8000E703000080B59EB000AFF8607A600A23FB180A1C1A800A23FB181B881022B8180A49FA6805F0F4FA4423F9181023FA187B68081C111C1A1C00F07EFB4423FB1820
:404BC000181C03F02BFABD461EB080BDF0AB000080B58CB000AFF860B9607A603B600123FB622DE01023FA182B23FB181B78101C191C00F00DFC031CFB621023FB181B7D3F
:404C0000012B1BD11023FB181B881A1CBB6B1A601023FB185A68FB681A601023FB181A89BB681A801023FB18DA687B681A601023FB185A893B681A80012313E00023FB6230
:404C400003F094F8031E0AD003F0C8F9021C2B23FB181A702B23FB181B78002BC2D10023FB62FB6A181CBD460CB080BD80B59EB000AFF8607A600A23FB180A1C1A800A23A5
:404C8000FB181B881022B8180A49FA6805F080FA4423F9181023FA187B68081C111C1A1C00F00AFB4423FB18181C03F0B7F9BD461EB080BDF0AB000080B58AB000AFF8608C
:404CC000B9607A603B60FB680C331A68FB681B68D31A3B62BB6806331B881A1CBB681B88D31A7B627B6A002B08DA7B6AFA229200944663447B623B6A013B3B62FB680833CE
:404D00001A68FB6804331B68D31ABB61BB6804331B881A1CBB6802331B88D31AFB61FB69002B08DAFB69FA22920094466344FB61BB69013BBB613A6ABB69D31A3B617A6A43
:404D4000FB69D31A7B617B69002B00DA01335B107B613B690E4A134004D5013B0222524213430133012B03D17B69F533FF337B613B69002B00DA01335B103B617B683A6978
:404D80001A603B687A691A60BD460AB080BDC04601000080F0B599B004AFF8610A1C1B23FB181A700023FB641B23FE181B23FB181B78181C00F020FA031C33701B23FB18F2
:404DC0001B783C2B19D1C44B01221A70FB69181C00F054FAC14B00221A70C14B00221A70C04B00221A70C04B00221A70BF4B00221A70BF4B00221A70EFE1B74B1B780A2B59
:404E000000D9E6E19A00BB4BD3181B689F461B23FB181B78181C00F017FA031E1ED0FB691A881B23FB181B789BB213439AB2FB691A80AA4B1B780133DAB2A84B1A70A74B29
:404E40001B78042B03D1A44B02221A70C5E1FB691B881B019AB2FB691A80BEE19E4B00221A700123FB64B8E11B23FB181B78212B03D1994B03221A70AFE1FB69181C00F0ED
:404E8000FDF90223FB64944B00221A70A5E11B23FB181B78181C00F0D7F9031E1BD0FB695A681B23FB181B781A43FB695A608C4B1B780133DAB28A4B1A70894B1B78022BE1
:404EC00003D1854B04221A7087E1FB695B681A01FB695A6081E1FB69181C00F0CFF97E4B00221A700323FB6477E11B23FB181B783A2B03D1784B05221A706EE1FB69181C1A
:404F000000F0BCF90423FB64734B00221A7064E11B23FB181B78181C00F096F9031E2DD0FB699A68DB681B2179180978C9B239610021796139691143B96079691943F96035
:404F4000FB69B968FA689960DA60674B1B780133DAB2654B1A70644B1B78102B03D15E4B06221A7039E1FB699A68DB68110F1D010D431401FB699C60DD602EE1FB69181C82
:404F800000F07CF90523FB64534B00221A7024E11B23FB181B78181C00F056F9031E1ED0FB691A8A1B23FB181B789BB213439AB2FB691A824D4B1B780133DAB24B4B1A706A
:404FC0004A4B1B78042B03D1434B07221A7004E1FB691B8A1B019AB2FB691A82FDE0FB69181C00F04BF90623FB643B4B00221A70F3E01B23FB181B78181C00F025F9031E72
:405000001ED0FB695A8A1B23FB181B789BB213439AB2FB695A82364B1B780133DAB2344B1A70334B1B78042B03D12B4B08221A70D3E0FB695B8A1B019AB2FB695A82CCE0BC
:40504000FB69181C00F01AF90A23FB64224B00221A70C2E01B23FB181B78402B03D11E4B09221A70B9E0FB69181C00F007F90723FB64194B00221A70AFE01B23FB181B78E0
:40508000181C00F0E1F8031E1BD0FB695A691B23FB181B781A43FB695A61124B1B780133DAB2104B1A700F4B1B78082B03D10A4B0A221A7091E0FB695B691A01FB695A61F9
:4050C0008BE0FB69181C00F0D9F80823FB64024B00221A7081E0C046102C0020092C0020C92B0020E92B0020082C00200A2C0020182C00201CAC00001B23FB181B783E2BE6
:405100005DD1FB695A68FB69DC689B6823003B6000237B603E68FB69DC689B681D1CFB691B8A1C1CFB695B8A181C082318217918C9182D4B009501940290081C191C331CBA
:4051400005F026F801235B42BB64284ABB6C101C01211A1CFFF762FA031CBB64082318229446BC446344181C05F041F8011C08231822BA18D218BB6C101C1A1CFFF74EFA42
:40518000031CBB641A4ABB6C101C01211A1CFFF745FA031CBB64BB6CDB43BB64FB695A69BB6C9A4205D1FB6901221A760023FB640BE0FB6900221A760A23FB6405E0092394
:4051C000FB64FB69181C00F059F80A4B00221A7003E0FB69181C00F051F8FB6CDBB2181CBD4615B0F0BDC046FCAB000014AC000018AC0000102C002080B582B000AF021C64
:40520000FB1D1A70FB1D1B78402B09D9FB1D1B78462B05D8FB1DFA1D1278373A1A700CE0FB1D1B782F2B08D9FB1D1B78392B04D8FB1DFA1D1278303A1A70FB1D1B78181CDE
:40524000BD4602B080BDC04680B584B000AF021CFB1D1A700F23FB1801221A70FB1D1B780F2B03D90F23FB1800221A700F23FB181B78181CBD4604B080BDC04690B583B03C
:4052800000AF78607B6800221A807B6800225A607A68002300249360D4607B6800221A827B6800225A827B6800225A617B6800221A76BD4603B090BD90B591B000AFF86052
:4052C000B9607A60BB68FB637B689BB21C1C2423FA18474B101C191C221C04F059FF01235B42BB63434ABB6B101C01211A1CFFF795F9031CBB63FB6B181C04F078FF011C03
:40530000FA6BBB6B101C1A1CFFF788F9031CBB63394ABB6B101C01211A1CFFF77FF9031CBB63BB6BDB43BB631023F918334ABB6B081C111C1A1C04F02BFFFA68304B111CFC
:405340001A1C0223081C111C1A1C04F00FFFFA682423FB18101C191C04F03CFFFB68181C04F045FF031C1A1CFB689A18254B111C1A1C0223081C111C1A1C04F0F7FEFA68FA
:40538000FB6B101C191C04F025FFFB68181C04F02EFF031C1A1CFB689A181B4B111C1A1C0223081C111C1A1C04F0E0FEFA681023FB18101C191C04F00DFFFB68181C04F011
:4053C00016FF031C1A1CFB689A18104B111C1A1C0223081C111C1A1C04F0C8FEFB68181C04F005FF031CDBB2181CBD4611B090BD48AC000014AC000018AC000050AC000016
:4054000058AC00005CAC000060AC000064AC000090B585B000AF78600A1CFB1C1A700B23FB18FA1C12781A700023FB60FC1CFB1C1B78181C00F086F9031C2370B94B1B78E5
:40544000092B00D967E19A00B74BD3181B689F467B68181C00F0B8F9B44B00221A70B44B00221A70B34B00221A70B34B00221A70B24B00221A70B24B00221A70FB1C1B788A
:405480003C2B02D1A74B01221A7044E1FB1C1B78181C00F07FF9031E1DD07B681A88FB1C1B789BB213439AB27B681A809F4B1B780133DAB29D4B1A709C4B1B78042B03D1D3
:4054C000984B02221A7026E17B681B881B019AB27B681A801FE1934B00221A700123FB6019E1FB1C1B78212B03D18E4B03221A7011E17B68181C00F067F90223FB60894BA7
:4055000000221A7007E1FB1C1B78181C00F042F9031E1AD07B685A68FB1C1B781A437B685A60844B1B780133DAB2824B1A70814B1B78082B03D17B4B04221A70EBE07B6877
:405540005B681A017B685A60E5E07B68181C00F03BF90323FB60734B00221A70DBE0FB1C1B78181C00F016F9031E1DD07B681A89FB1C1B789BB213439AB27B681A816E4BC9
:405580001B780133DAB26C4B1A706B4B1B78032B03D1644B05221A70BDE07B681B891B019AB27B681A81B6E07B68181C00F00CF90423FB605B4B00221A70ACE0FB1C1B78F6
:4055C000181C00F0E7F8031E1AD07B68DA68FB1C1B781A437B68DA60594B1B780133DAB2574B1A70564B1B78082B03D14D4B06221A7090E07B68DB681A017B68DA608AE074
:405600007B68181C00F0E0F80523FB60454B00221A7080E0FB1C1B78181C00F0BBF8031E1DD07B685A89FB1C1B789BB213439AB27B685A81414B1B780133DAB23F4B1A70CD
:405640003E4B1B78032B03D1364B07221A7062E07B685B891B019AB27B685A815BE07B68181C00F0B1F80623FB602E4B00221A7051E0FB1C1B78402B03D12A4B08221A70D2
:4056800049E07B68181C00F09FF80723FB60254B00221A703FE0FB1C1B78181C00F07AF8031E1AD07B681A69FB1C1B781A437B681A611F4B1B780133DAB21D4B1A701C4B37
:4056C0001B78082B03D1174B09221A7023E07B681B691A017B681A611DE07B68181C00F073F80823FB600F4B00221A7013E0FB1C1B783E2B05D17B6801221A750023FB602C
:4057000005E00923FB607B68181C00F05DF8054B00221A70C046FB68DBB2181CBD4605B090BDC0464406002068AC0000E82B0020C82B0020192C0020CA2B00201A2C0020CC
:405740000B2C002080B582B000AF021CFB1D1A70FB1D1B78402B09D9FB1D1B78462B05D8FB1DFA1D1278373A1A700CE0FB1D1B782F2B08D9FB1D1B78392B04D8FB1DFA1D6B
:405780001278303A1A70FB1D1B78181CBD4602B080BDC04680B584B000AF021CFB1D1A700F23FB1801221A70FB1D1B780F2B03D90F23FB1800221A700F23FB181B78181C0C
:4057C000BD4604B080BDC04680B582B000AF78607B6800221A807B6800225A607B6800221A817B680022DA607B6800225A817B6800221A617B6800221A75BD4602B080BD9E
:4058000090B587B000AF78607B68952B04D87B68181C00F03FFD46E000237B6102F0AEFD031C3B613B69181C02F0D0FD02F06CFD24E000F03FF800F045F800F08BF800F079
:40584000A5F8962000F026FD02F0D0FD031CFB603A69FB68D31A181C04F0DAF8031C0C1C181C211C114A124B03F0FEF9031C0C1C181C211C03F0A4F9031C7B617A687B6939
:40588000D31A962B03D97A697B689A42D1D902F04DFD7A687B699A4205D97A687B69D31A181C00F0F7FCBD4607B090BDFCA9F1D24D62404080B500AFFEF71AFFFEF766FFA2
:4058C000BD4680BD90B597B008AFFEF781FB031E03D11E4B1B88012B34D11C4B1B88002B14D13B1C181CFEF7BBFB3C1C6B46191C231C10332022081C191C04F037FC206828
:405900006168A268E368FEF7DFFB09E0391C104A92239B00D3183022081C191C04F026FC3B1C181CFEF7B8FC031C7B637B6B002B05D0FEF799FC054B01221A8002E0034B08
:4059400000221A80BD460FB090BDC04646060020E822002080B500AF02F066FD031E03D10020FBF70FF902E00120FBF70BF9FEF7D3FF031E012B03D10020FBF71BF902E08F
:405980000120FBF717F9BD4680BDC04680B500AFFBF728F9FEF744FA031C181CFBF780F9BD4680BD80B500AFC04600F057F8031EFBD0284B00221A70264B1B78012B16D00C
:4059C00002DC002B05D03FE0022B26D0032B35D03AE000F093F8021C1F4B1A601E4B1B68002B03D11B4B01221A702DE02CE000F0CBF8021C184B1A60174B1B68012B03D113
:405A0000144B02221A7007E0134B1B68FF2B03D1104B00221A7017E016E000F023F9021C0D4B1A600C4B1B68012B03D1094B03221A7009E0074B01221A7005E000F032F9DE
:405A4000044B01221A70C046FA235B00181CFFF7D7FEB1E7202C00204C06002090B585B000AFFF20FEF784FFFEF760FDFBF76EF8FAF790FCFEF72AFEFEF79EF8FEF7F2F8C9
:405A800062B6FAF7CDFF031C0C1C3B607C603B687A6813431DD03B687C68181C211C01F04DF8FEF7CBF8031CFB60FB68012B06D10F4B181CFBF750F80123FB6012E00D4B34
:405AC000181CFBF749F80023FB600020FEF716FF08E0094B181CFBF73FF80023FB600020FEF70CFFFB68181CBD4605B090BDC04690AC0000A0AC0000B4AC000080B582B06F
:405B000000AF0A20FEF738FDFEF706FF031E09D1194B181CFBF720F8FA235B00181CFFF76FFE23E0154B181CFBF716F8FEF734FF031E0DD1124B181CFBF70EF8FEF7F6FE8C
:405B4000FA23DB00181CFFF75BFE00237B600DE00C4B181CFBF700F8FF20FEF709FFFA23DB00181CFFF74CFE01237B607B68181CBD4602B080BDC046C4AC0000D4AC0000C4
:405B8000E4AC0000ECAC000080B582B000AFFEF71FFA031E072B15D9FEF71AFA031E0C2B10D82D4B181CFAF7D7FF0020FEF7A6FEFEF736F9031E02D001237B603FE000238B
:405BC0007B603CE0FEF704FA031E0C2B09D9224B181CFAF7C1FF0020FEF790FE00237B602DE0FEF71DF9031E032B0ED91B4B181CFAF7B2FF0020FEF781FEFA235B00181CC4
:405C0000FFF7FEFD01237B6019E0FEF709F9031E0CD1134B181CFAF79FFF0120FEF76EFE0020FEF7C3FC00237B6008E00120FEF765FE0B4B181CFAF78FFF01237B60FEF7B3
:405C400075FE031EFF2B01D1FF237B607B68181CBD4602B080BDC046FCAC00000CAD000020AD000080B582B000AF0120FEF79EFCFDF7B6FF031C7B607B68012B09D1084BB5
:405C8000181CFAF769FFFA235B00181CFFF7B8FD01E0FDF7B5FF7B68181CBD4602B080BD30AD0000B0B58CB008AF0120FEF726FE0A20FEF761FC244B181CFAF74DFFFA2386
:405CC0005B00181CFFF79CFD0823FA183B1D101C191CFDF79DFFBB68FC687A6892B2181C211CFEF747F8194B1B88013B184D1C1C6400E41823011C1C10222B199B186A4639
:405D0000111C1A1C2023081C111C1A1C04F02EFA60592B1959682B199A682B19DB68FEF761F9FEF70BF9041CFEF72EF9031C9BB2201C191CFAF784FFFA239B00181CFFF7D8
:405D40005FFDBD4604B0B0BD40AD0000E4220020C006002080B584B000AF021CFB1D1A700E4B1B68DAB20F23FB1810218A431A70FB1D1B781B01DBB210221340D9B20F2307
:405D8000FB180F22BA1812780A431A70034B0F22BA1812781A60BD4604B080BD0000044080B500AFFEE7C04680B584B000AF78600F4B1A687B68D3181A1C0E4BD31A802B4F
:405DC00009DC0B4B1B68FB60094B1A687B68D218074B1A6007E004F09DF9031C0C221A6001235B42FB60FB68181CBD4604B080BDF8000020602D002080B586B000AF224BF0
:405E00007B61224B3B61204B7B6135E03B691B68FB603B695B68BB603B699B683B6000237B600CE0FB681A68BB681A60BB680433BB60FB680433FB607B6804337B607A682E
:405E40003B689A42EED13B69DB683B6000237B6008E0BB6800221A60BB680433BB607B6804337B607A683B689A42F2D13B6910333B617B69013B7B617B69002BC6D104F016
:405E80004FF9FFF78FFDFEE701000000E4AF000080B582B000AF154B144A126801218A431A6000237B600FE07B68032B04D8104B7A689200D35800E00E4B0F4A7968890018
:405EC0008B507B6801337B607B682F2BECD9FAF74BF90A4B00221A60044B044A126801210A431A60BD4602B080BDC0460000104000000000A15D000000000020C000002067
:405F000080B582B000AF786039607A683B68101C00211A1C04F033F9BD4602B080BDC04680B586B000AF7860396000233B6100237B612FE07B699B007A68D3181B68BB6078
:405F40000F23FB18BA681A70BB68FF229343BB6018E03B695B003A68D3181B781A1CBB68D318191C3B695B003A68D3185B780B703B6901333B610F23FB181A780F23FB1801
:405F8000013A1A700F23FB181B78002BE1D17B6901337B617B69092BCCD9BD4606B080BD80B500AF054B03221A60054B03221A60044B00221A60BD4680BDC046300030402D
:405FC00030003140000E3F400230800803D00138FDD1C046C046C0467047EFF3108072B6704780F31088704790B58BB000AF78602723FC18FFF7F1FF031C2370184B1A6821
:406000000C23FB181A60174B1A680C23FB185A607B68033B144AD35C1A1C0C23FB189A60124B1A680C23FB18DA601C23FB18104A1A600C23FA181C23FB185A600D4B1C2240
:40604000BA181A600C4B0D4A1A600A4B1B682723FB181B78181CFFF7C4FFBD460BB090BD08010B4000010B40B4AE000030001040B6EA000008001040040010401700008087
:4060800080B584B000AF78600023FB60154B154A126801210A431A60134B144A1A60144B134A1268802109020A431A607B68002B12D01023FB600CE0012000F00FF900F0FE
:4060C00019F8031E02D00023FB6005E07B68013B7B607B68002BEFD1FB68181CBD4604B080BDC04660F02E4078002E400220000010002E4080B582B000AF054B1B68012290
:4061000013407B607B68181CBD4602B080BDC0460C002E4080B584B000AF021C3960FB1D1A7080239B05FB60FB1D1B781F2B02D9002000F0A5F8FB1D1B7810339B00FA6831
:40614000D3181B68BB60FB1D1B7810339B00FA68D3183A681A60BB68181CBD4604B080BD90B587B000AF021CFB1D1A70BB1D0A1C1A70BB1D1B78032B02D9002000F080F8EA
:40618000FB1D1B781F2B02D9002000F079F8FB1D1B7803221340DB0006337B611323FC18FFF71BFF031C2370FB1D1B789B08DBB29B00144A944663441B68FB607B69032233
:4061C0009A40131CDA43FB681340FB60BB1D1A787B699A40131CFA681343FB60FB1D1B789B08DBB29B00074A94466344FA681A601323FB181B78181CFFF7F3FEBD4607B029
:4062000090BDC04600E400E080B582B000AF021CFB1D1A70054BFA1D12781F210A40012191400A1C1A60BD4602B080BD00E100E080B582B000AF021CFB1D1A70054BFA1D73
:4062400012781F210A40012191400A1C1A60BD4602B080BD80E100E080B582B000AF021CFB1D1A70054BFA1D12781F210A40012191400A1C1A60BD4602B080BD80E200E02C
:4062800080B582B000AF021CFB1D1A7001BEBD4602B080BD80B582B000AF786009E00C4B1B68181CFFF790FE7B680A4A944663447B607A6880231B029A42F0D8064B1B6841
:4062C0007A685343181CFFF77FFEBD4602B080BD080100200080FFFF0001002080B582B000AF021CBB1D1A80BB1D1B88044A12785343181CFFF768FEBD4602B080BDC046AE
:406300000401002080B500AF0E4B0E4A126801218A431A600B4B0B4A126802218A431A60094B094A126830218A4310210A431A60054B054A126807218A4301210A431A6003
:40634000BD4680BD00F02E4000FF2E4080B500AF0E4B0E4A126802218A431A600C4B0C4A126807218A4302210A431A60084B084A126830218A4320210A431A60034B034AB3
:40638000126801210A431A60BD4680BD00F02E4000FF2E4080B500AFFFF7B4FF044B044A1268802109060A431A60BD4680BDC04600F02E4080B584B000AF78600C4B1B68E6
:4063C00001221340FB607B68002B02D0012B03D005E0FFF797FF06E0FFF7B8FF03E00020FFF74EFFC046FB68181CBD4604B080BD00F02E4090B583B000AFFC1DFFF7EDFD94
:40640000031C2370074B074A1268C02109020A431A60FB1D1B78181CFFF7E3FDBD4603B090BDC04600010B4080B500AF054B1A68C0231B02134001D0012300E00023181C9B
:40644000BD4680BD00010B4090B583B000AFFC1DFFF7C3FD031C23700C4B0C4A12680C490A408021C9010A431A60084B074A126807490A40802109020A431A60FB1D1B781A
:40648000181CFFF7AEFDBD4603B090BD00010B40FF3FFFFF90B585B000AF78600B23FC18FFF79BFD031C2370FFF7BEFF031E04D00123FB60FFF7C8FF01E00023FB607B68D3
:4064C0000D4A13407B600D4B0C4A12680C4911407A680A431A60094B1B68FB68012B01D1FFF788FF0B23FB181B78181CFFF779FDBD4605B090BDC0460404040010020B4003
:40650000FBFBFBFF80B584B000AF786039600023FB607B68022B0AD8094B7A689200D358FB60074B7A6892003968D15002E00020FFF7A6FEFB68181CBD4604B080BDC0466F
:406540005C06002080B500AF334B1B68042213401FD0324B1B680422134017D0304B1B6804221340DA432D4B1B681A402B4B1A602B4B1B68042293431A1C294B1A60294B86
:406580001B68002B02D0274B1B6898470420FFF781FF214B1A688023DB00134022D01F4B1A688023DB00134017D01D4B1A688023DB001340DA43194B1B681A40174B1A60A3
:4065C000174B1B68184A1A40154B1A60154B5B68002B02D0134B5B6898478023DB00181CFFF758FF0C4B1A688023DB02134011D00A4B1A688023DB02134006D0094B9B689D
:40660000002B02D0074B9B6898478023DB02181CFFF740FFBD4680BD10020B4010010020580600205C060020FFFBFFFF80B582B000AF786039607B683A681A403B689A4295
:4066400001D1012300E00023181CBD4602B080BD80B584B000AF78607B680322134006D17B68181C642102F07FFA0B1E07D17B68181CC823590002F077FA0B1E02D10123F3
:40668000FB6001E00023FB60FB68181CBD4604B080BDC04680B584B000AF78607B68702213401A09131C9B009B185B00FB607B680F221340FA68D318FB60FB68181CBD46D8
:4066C00004B080BD80B584B000AF78607A68E023DB0113401A0B131C9B009B185B00FB607A68F0231B0113401B0AFA68D318FB60FB68181CBD4604B080BDC04680B584B022
:4067000000AF78607A68C0239B0313401A0D131C9B009B185B00FB607A68F0231B0313401B0CFA68D318FB60FB68181CBD4604B080BDC04680B582B000AF78607A68802389
:40674000DB03101C191CFFF771FF031C181CBD4602B080BD80B584B000AF78607A68C0239B0313401A0D131C9B009B185B00FB607A68F0231B0313401B0CFA68D318FB60FA
:40678000FB68181CBD4604B080BDC04680B584B000AF78607A6880235B0513401A0F131C9B009B185B00FB607A68F0231B0513401B0EFA68D318FB60FB68181CBD4604B03D
:4067C00080BDC04680B584B000AF78607A68C0239B0113401B0BFA2292005343FB607A68F0231B0113401B0A64225343FA68D318FB607B68F02213401A09131C9B009B18B8
:406800005B001A1CFB689B18FB607B680F221340FA68D318FB60FB68181CBD4604B080BD80B582B000AF78607A6880231B04134001D0012300E00023181CBD4602B080BDB9
:4068400080B586B000AFF860B9607A603B60FB68DB057B61BB689B057A6913437B617B68181C0A2102F0FAF8031C1B057A6913437B617B68181C0A2102F076F90B1C1B04BE
:406880007A6913437B613B68181C0A2102F0E6F8031C1B037A6913437B613B68181C0A2102F062F90B1C1B027A6913437B613B6A181C0A2102F0D2F8031C1B017A691343C3
:4068C0007B613B6A181C0A2102F04EF90B1C1A1C7B6913437B617B69181CBD4606B080BD80B586B000AFF860B9607A607B687B61FB68181C0A2102F0B1F8031C1B073B61A0
:40690000FB68181C0A2102F02FF90B1C1B063A6913433B61BB68181C0A2102F09FF8031C1B053A6913433B61BB68181C0A2102F01BF90B1C1B043A6913433B617B68181C45
:40694000FA23990002F08AF8031C1B033A6913433B617B69181CFA23990002F005F90B1C7B617B69181C642102F078F8031C1B023A6913433B617B69181C642102F0F4F80F
:406980000B1C7B617B69181C0A2102F067F8031C1B013A6913433B617B69181C0A2102F0E3F80B1C1A1C3B6913433B613B69181CBD4606B080BDC04690B587B000AFF86016
:4069C000B9607A60BB68022B05D8BB680C33BB607B68013B7B60BB6801331A225343181C0A2102F03BF8031C1A1CFB68D2187B68D2187B689B08D4187B68181C642102F0E4
:406A00002DF8031C1A1C131C5B009B185B00E4187B68181CC823590002F020F8031CE318181C072102F0A0F80B1C7B617B69002B01D107237B617B69181CBD4607B090BDDA
:406A400080B500AF034B1B78002B01D100F004F8BD4680BD282C002080B584B002AF154B01221A70144B00221A60144B0022DA60134B00221A70134B00221A60FC23DB00D9
:406A8000082009211A1CFFF72BFF031C7B6000230093002000210A221023FFF7D1FE031C3B603A687B68101C191C00F00DF8BD4602B080BD282C0020800600202C2C002000
:406AC000402C00203C2C002090B587B000AF786039603B68181CFFF73DFE031C7B613B68181CFFF753FE031C3B613B68181CFFF769FE031CFB603A687B68101C191C00F086
:406B0000ADF8031C0C1C0B4A136054600A4B3A685A60094B7A681A6079693A69FB68081C111C1A1CFFF748FF021C034B9A60BD4607B090BD482C00202C2C002090B589B0E9
:406B400002AF38607960094A3B687C68136054600823F9183B687C6800220092081C1A1C231C00F043F9BD4607B090BD482C002090B500AF034B5C681B68181C211CBD461E
:406B800090BDC046482C002090B583B002AF0C4B1B68191C00231A1C0A4B5C681B685B185441094900220092081C1A1C231C00F01DF9054B1B68181CBD4601B090BDC04606
:406BC00080060020482C00202C2C002090B583B002AF0C4B1B68191C00231A1C0A4B5C681B685B185441094900220092081C1A1C231C00F0FBF8054B5B68181CBD4601B031
:406C000090BDC04680060020482C00202C2C002090B500AF0D4B1A680D4B1B68D2180B4B1A600A4B1A680B4B1B689A420CD30A4B5C681B68012100225B185441064A1360D6
:406C40005460024B00221A60BD4690BD84060020780600207C060020482C0020F0B591B000AF78623962002300243B637C637B6A181CFFF7A7FD031CFB62564BFB6319E0B4
:406C8000FB6B181CFFF7E4FC031E08D03B6B7C6B514900225B1854413B637C6307E03B6B7C6B4E4900225B1854413B637C63FB6B0133FB63FA6BFB6A9A42E1D37B6A181C80
:406CC000FFF764FD031CBB62BB6A5A1E444B5200D35ABB63BB6A022B08D9FB6A181CFFF7B7FC031E02D0BB6B0133BB63BB6B3D4A5343BB610023FB613B6B7C6BB969FA6968
:406D00005B1854413B637C637B6A181CFFF722FD021C344B5343344A944663443B6100237B613B6B7C6B39697A695B1854413B637C633B6A181CFFF7E1FC031CBB633B6AAE
:406D4000181CFFF76DFD031E0BD03B6A181CFFF7F1FC031E05D0BB6B0B2B02D8BB6B0C33BB63BB6BE12212015343BB600023FB603B6B7C6BB968FA685B1854413B637C6318
:406D80003B6A181CFFF79EFC021C131C1B019B1A9B003B6000237B603B6B7C6B39687A685B1854413B637C633B6A181CFFF772FC031C1D1C00231E1C3B6B7C6B5B197441DB
:406DC0003B637C633B6B7C6B181C211CBD4611B0F0BDC046B20700000085E2018033E101E4AE00008051010080AEFEFFF0B5A1B002AF7865BA64FB6400233B67A14BBB6689
:406E0000A14B7B6619E07B6EBB600023FB60BB6CFC6CB968FA685B1A9441BB64FC64BB6E0133BB66BB6E181CFFF712FC031E02D0964B7B6601E0944B7B667B6E1D1C0023B5
:406E40001E1CFB6CB342DED8FB6CB34202D1BB6CAB42D8D80123FB66FA6EBB6E101C191C00F01AF9021C8A4B53437B6618E07B6E3B6000237B60BB6CFC6C39687A685B1AEE
:406E80009441BB64FC64FB6E0133FB66FA6EBB6E101C191C00F000F9021C7D4B53437B667B6E3B6400237B64FB6C7A6C934207D3FB6C7A6C9342DAD1BB6C3A6C9342D6D2AB
:406EC000BB6CFC6C181C211C714A002301F058FE031C0C1C3B663A6E6D4B53437B667B6EBB630023FB63FB6CFA6B93420CD3FB6CFA6B934203D1BB6CBA6B934204D37B6E50
:406F00003B6200237B6203E0002300243B627C62BB6CFC6C396A7A6A5B1A9441BB64FC643B6E01333B66BB6CFC6C181C211CE1221201002301F024FE031C0C1C7B677B6F53
:406F4000E122120153437B669023FB181B68002B1DD0FB6C002B06D1FB6C002B0ED1BB6C4C4A93420AD901233B677B6F0C2B02D97B6F0C3B00E07B6F7B6708E000233B6788
:406F80007B6F002B01D07B6F00E00C237B677B6E3B6300237B63FB6C7A6B93420CD3FB6C7A6B934203D1BB6C3A6B934204D37B6EBB610023FB6103E000230024BB61FC61F4
:406FC000BB6CFC6CB969FA695B1A9441BB64FC64BB6CFC6C181C211C3C22002301F0D0FD031C0C1CFB65FA6D131C1B019B1A9B007B667B6EBB620023FB62FB6CFA6A9342C5
:407000000CD3FB6CFA6A934203D1BB6CBA6A934204D37B6E3B6100237B6103E0002300243B617C61BB6CFC6C39697A695B1A9441BB64FC64F96E3A6EBB6E081C111C1A1C43
:40704000FFF74EFC021C7B6D5A60BB6C9022BA181068396F7A6FFC6D0093231CFFF7F0FB021C7B6D1A60396EFA6EBB6E081C111C1A1CFFF7A1FC021C7B6D9A60BD461FB09C
:40708000F0BDC046B20700008033E1010085E20180510100C1A8000080B584B000AF786039607B68013B0A4AD35CFB607B68022B08D13B68181CFFF7CBFA031E02D0FB68D5
:4070C0000133FB60FB68181CBD4604B080BDC046FCAE000080B500AF00F052F8BD4680BD80B500AF064B064A1268802109060A431A6000F033F800F039F8BD4680BDC04670
:407100000000244080B500AF064B1B78002B04D1FFF7E0FF034B01221A70FFF7E1FFBD4680BDC0468806002080B500AF0920FFF77FF800F01FF8074B064A12685200520840
:407140001A60054B00221A600920FFF785F8BD4680BDC04600002440880F244080B500AF0920FFF751F8BD4680BDC04680B500AFBD4680BD80B500AF00F06EF8BD4680BD38
:4071800080B500AF204B00221A60204B204A1A60204B214A1A60214B00221A60204B00221A60204B1C4A1A601F4B00221A600920FFF73EF809200321FEF7D2FF1B4B0920EE
:4071C000191CFEF7A7FF1A4B00221A60194B00221A60194B00221A60184B1422FF321A60174B00221A60174B00221A60164B10221A70164B00221A80154B00221A60154BE8
:4072000000221A60BD4680BD000024406000244077080080000324400701008004032440100324400002244004022440B9840000C80E2440880E2440480F2440080F244003
