:400000000040002011000000D1510000D151000080B500AF05F008F980B500AF374B12221A6005F0CFFB364B181C05F0E5F9012005F0D8FB302005F0EFF9324B324A1A604D
:40004000324B8022D2051A60314B314A126802210A431A602F4B304A1A60304B2F4A126808218A431A60FA23DB00181C05F020FA2B4B181C05F04AFB2A4B2B4A1A602B4B70
:400080002B4A1A602B4BD02252021A60274B2A4A1A602A4BE82252011A60244B284A1A60284B802212061A60274B8022D2021A60264B42221A60264B41221A60254B40229C
:4000C0001A60254B0820191C05F03CFA082005F0B3FA224B1F221A600C4B214A1A60214B08221A60C0461F4B1B6808221340FAD11C4B01221A60BD4680BDC046300010404B
:40010000001BB70004010B40060000800C020B4078002E407C002E402D3E00006CF02E40DC05000008030140007FBB000000014042FF00800403014041FF00800003014004
:4001400040FF008008010B4000010B401C01014008010140040101407559000008020B400500004010020B4080B582B000AF72B6464B00221A60464B01221A70FB1D00228A
:400180001A7023E0FB1D1A78131C5B009B185B00404A9B183B603B681A78597809020A43997809040A43DB781B061343191C3B681A795B791B0213439BB2081C191C05F0B8
:4001C000B7F8FB1D1A78FB1D01321A70FB1D1B78012BD7D9304A314B101C191C05F0B8F82F4B304A1A60304BEE221A602F4B992212041A602E4B992212041A602D4B99221F
:4002000012041A602C4B992212041A602B4B02221A602B4B02221A602A4A2A4B1B78DBB202210B43DBB21370274A274B1B78DBB23C218B43DBB214210B43DBB21370214A01
:40024000204B1B78DBB216210B43DBB213701F4B26221A601E4B1F4A1A601F4B20221A601E4B02221A601E4B1E4A1A601E4B1F4A1A601F4B03221A601E4B24221A60FFF7FA
:40028000CBFE05F0A5F8BD4602B080BD6CF02E401C700F4084A2000090A20000B0A2000000000240990000EE0003024000500F4010500F4020500F4030500F402000104048
:4002C00000800F4000700F4001700F400000044008000440B100DB000C0004401800044008010440B66D7B0008020440B6030000000304400803044010B5064C2378002B83
:4003000007D1054B002B02D0044800E000BF0123237010BD8001002000000000D09E000008B5084B002B03D00748084900E000BF07480368002B00D108BD064B002BFBD00B
:400340009847F9E700000000D09E000084010020C80000200000000080B500AF094B1B8801339AB2074B1A80064B1A88FA239B009A4204D1034B00221A8005F061FEBD46BF
:4003800080BDC046AC01002080B582B000AF064B7B6005F06DFD7B680020191C05F0CAFABD4602B080BDC0465903000098B500AF05F0F6FD031C0C1C181C211CBD4698BD53
:4003C00080B582B000AFBB1D00221A80BB1D044A12881A80BB1D1B88181CBD4602B080BDAC01002080B584B000AF06F0A3F86820002106F053F9031CBB60BB68002B10D18E
:40040000002006F037FA06F0D1F906F0EDFA6820012106F043F9031CBB60BB68002B23D101E0BB68D5E00023FB601AE0FB68052B0ADC002006F084FA031CD9B23A1CFB68DF
:40044000D3180A1C1A7009E0012006F079FA031CD9B23A1CFB68D3180A1C1A70FB680133FB60FB68062BE1DD06F0A0F906F074F83B1C1B780F221340DAB23B1C1B78191C22
:4004800070230B401B11DBB2191C8900CB18DB18DBB2D318DAB2514B1A703B1C5B780F221340DAB23B1C5B78191C70230B401B11DBB2191C8900CB18DB18DBB2D318DAB21F
:4004C000464B5A703B1C9B781A1C402313409B11DAB2424BDA70414BDB78002B1ED13B1C9B780F221340DAB23B1C9B78191C10230B401B11DBB2191C8900CB18DB18DBB2D2
:40050000D318DAB2354B9A703B1C9B781A1C202313405B11DAB2314B1A7114E03B1C9B780F221340DAB23B1C9B78191C30230B401B11DBB2191C8900CB18DB18DBB2D31815
:40054000DAB2264B9A703B1CDB7807221340DAB2224B5A713B1C1B790F221340DAB23B1C1B79191C30230B401B11DBB2191C8900CB18DB18DBB2D318DAB2184B9A713B1CBB
:400580005B790F221340DAB23B1C5B79191C10230B401B11DBB2191C8900CB18DB18DBB2D318DAB20D4BDA713B1C9B799BB20F2213409AB23B1C9B791B09DBB29BB2191C5F
:4005C0008900CB18DB189BB2D3189AB2034B1A810023181CBD4604B080BDC0463C06002080B586B000AFF860B9607A603B60BB685A425341DBB2BB60FB685A425341DBB261
:40060000FB60FB68DB057B61BB689B057A6913437B617B68181C0A2107F0AEFC031C1B057A6913437B617B68181C0A2107F02AFD0B1C1B047A6913437B613B68181C0A2174
:4006400007F09AFC031C1B037A6913437B613B68181C0A2107F016FD0B1C1B027A6913437B613B6A181C0A2107F086FC031C1B017A6913437B613B6A181C0A2107F002FD6F
:400680000B1C1A1C7B6913437B617B69181CBD4606B080BD80B586B000AFF860B9607A607B68FA22D200944663447B607B687B61FB68181C0A2107F05FFC031C1B073B6177
:4006C000FB68181C0A2107F0DDFC0B1C1B063A6913433B61BB68181C0A2107F04DFC031C1B053A6913433B61BB68181C0A2107F0C9FC0B1C1B043A6913433B617B68181CC5
:40070000FA23990007F038FC031C1B033A6913433B617B69181CFA23990007F0B3FC0B1C7B617B69181C642107F026FC031C1B023A6913433B617B69181C642107F0A2FCD6
:400740000B1C7B617B69181C0A2107F015FC031C1B013A6913433B617B69181C0A2107F091FC0B1C1A1C3B6913433B613B69181CBD4606B080BDC046F0B597B000AF786258
:40078000396200230024BB64FC647A6AC0239B0113401B0BFA22920053437B647A6AF0231B0113401B0A642253437A6CD3187B647B6AF02213401A09131C9B009B185B003D
:4007C0001A1C7B6C9B187B647B6A0F2213407A6CD3187B648D4B7B652BE07B6D0322134006D17B6D181C642107F04CFC0B1E07D17B6D181CC823590007F044FC0B1E01D1C4
:40080000012300E00023002B08D0BB6CFC6C804900225B185441BB64FC6407E0BB6CFC6C7C4900225B185441BB64FC647B6D01337B657A6D7B6C9A42CFD37A6A80235B057A
:4008400013401A0F131C9B009B185B003B647A6AF0231B0513401B0E3A6CD3183B643B6C5A1E6D4B5200D35A3B653B6C022B1AD97B6C0322134006D17B6C181C642107F038
:4008800001FC0B1E07D17B6C181CC823590007F0F9FB0B1E01D1012300E00023002B02D03B6D01333B653B6D5C4A5343BB610023FB61BB6CFC6CB969FA695B185441BB649B
:4008C000FC647A6AC0239B0313401A0D131C9B009B185B00FB637A6AF0231B0313401B0CFA6BD318FB63FB6B4C4A53434C4A944663443B6100237B61BB6CFC6C39697A69EE
:400900005B185441BB64FC643A6AC0239B0313401A0D131C9B009B185B003B653A6AF0231B0313401B0C3A6DD3183B653A6A80231B04134001D0012300E00023BB633A6A25
:400940008023DB03134001D0012300E000237B63BB6B002B08D07B6B012B05D13B6D0B2B02D83B6D0C333B653B6DE12212015343BB600023FB60BB6CFC6CB968FA685B180B
:400980005441BB64FC643A6AE023DB0113401A0B131C9B009B185B003B633A6AF0231B0113401B0A3A6BD3183B633A6B131C1B019B1A9B003B6000237B60BB6CFC6C396830
:4009C0007A685B185441BB64FC643B6A702213401A09131C9B009B185B00FB623B6A0F221340FA6AD318FB62FB6A1D1C00231E1CBB6CFC6C5B197441BB64FC64BB6CFC6C16
:400A0000181C211CBD4617B0F0BDC046B20700000085E2018033E101CC0000208051010080AEFEFF90B589B002AFFFF7DBFC031CFB60FB68002B2DD11C4BDB79191C1B4BD1
:400A40009B791A1C194B1B89081C111C1A1CFFF721FE031CBB60154BDB78181C134B1B79191C124B9B781A1C104B5B781C1C0F4B1B780093231CFFF7B3FD031C7B60BA68B3
:400A80007B68101C191CFFF777FE031C0C1C3B617C6103E0002300243B617C613B697C69181C211CBD4607B090BDC0463C06002080B500AF05F0F4FFBD4680BD80B582B048
:400AC00000AF78600020002105F0FCFF7B68181C06F032F8034B181C06F02EF8BD4602B080BDC046E89E000080B584B000AF78607B6801331A780E23FB181A800E23FB1830
:400B00001B881B029AB27B681B789BB213439AB20E23FB181A800E23FB181B88181CBD4604B080BD80B584B000AF78607B6803331B78FB60FB681B027A68023212781343EA
:400B4000FB60FB681B027A68013212781343FB60FB681B027A6812781343FB60FB68181CBD4604B080BDC04680B582B000AF78600A1CBB1C1A807B685A1C7A60BA1C1288F4
:400B8000D2B21A70BB1CBA1C1288120A1A807B685A1C7A60BA1C1288D2B21A70BD4602B080BDC04680B582B000AF786039607B685A1C7A603A68D2B21A703B681B0A3B60B4
:400BC0007B685A1C7A603A68D2B21A703B681B0A3B607B685A1C7A603A68D2B21A703B681B0A3B607B685A1C7A603A68D2B21A70BD4602B080BDC04680B586B000AFF8601C
:400C0000B9607A60FB687B61BB683B617B68002B0DD07B695A1C7A613A69511C396112781A707B68013B7B607B68002BF1D1BD4606B080BD80B586B000AFF860B9607A60C0
:400C4000FB687B617B695A1C7A61BA68D2B21A707B68013B7B607B68002BF3D1BD4606B080BDC04680B588B000AFF860B9607A60FB68FB61BB68BB6100237B61FB695A1CCA
:400C8000FA611B78191CBB695A1CBA611B78CB1A7B617B68013B7B607B68002B02D07B69002BEBD07B69181CBD4608B080BDC04680B582B000AF7860396002E07B680133CE
:400CC0007B607B681B78002B05D07B681B781A1E3B689A42F2D17B681B78181CBD4602B080BDC04680B586B000AF78600F23FB1800221A707B68DB78002B3BD07B68DB6A9A
:400D00007B617B6859787B6830331A1C7B69081C111C1A1C012302F0F5FC031E04D00F23FB1801221A7025E07B680022DA707B681B6A7A69D21A7B689B699A421AD27B6831
:400D40009B783B6113E07B689B697A69D3187B617B6859787B6830331A1C7B69081C111C1A1C012302F0CEFC3B69013B3B613B69012BE8D80F23FB181B78181CBD4606B0F4
:400D800080BDC04690B585B000AF786039600F23FB1800221A707B68DA6A3B689A4224D00F23FC187B68181CFFF79CFF031C23700F23FB181B78002B17D17B6859787B68A9
:400DC00030331A1C3B68081C111C1A1C012302F03BFC031E06D001235B423B600F23FB1801221A707B683A68DA620F23FB181B78181CBD4605B090BD90B585B000AF7860CB
:400E00000F23FC187B68181CFFF76CFF031C23700F23FB181B78002B61D17B681B78032B50D17B681B79012B4CD17B6830331A1C80239B00101C00211A1CFFF7FBFE7B6879
:400E40002A4A944663442A4A181C111CFFF78CFE7B683033274A181C111CFFF7A3FE7B688522920094466344234A181C111CFFF799FE7B68862292009A187B681B69101C1F
:400E8000191CFFF78FFE7B68872292009A187B68DB68101C191CFFF785FE7B68DB695A1C7B68DA627B6859787B6830331A1C7B68DB6A081C111C1A1C012302F023FC7B68F7
:400EC00000221A717B685B78181C0021002202F087FC031E03D00F23FB1801221A700F23FB181B78181CBD4605B090BD2E02000055AA0000525261417272416180B582B04A
:400F000000AF786039603B68023B3B607B685B699A1E3B689A4201D8002307E07B685B891A1C3B685A437B689B6AD318181CBD4602B080BD80B586B000AF786039607B68B1
:400F40001B683B613B68012B04D93B695A693B689A4202D801237B618AE001235B427B613B691B78022B49D0032B62D0012B00D07CE03B68FB60FB685B08FA68D318FB603E
:400F80003B691A6AFB685B0AD3183A69101C191CFFF7F8FE031E00D06AE0FB685A1CFA60DB05DB0D3A693021D3185B181B78BB603B691A6AFB685B0AD3183A69101C191C51
:400FC000FFF7E0FE031E00D052E0FB68DB05DB0D3A693021D3185B181B781B021A1CBB681343BB603B680122134002D0BB681B0902E0BB681B051B0D7B6139E03B691A6A67
:401000003B681B0AD3183A69101C191CFFF7BAFE031E00D02CE03B685A00FF235B00134030333A69D318181CFFF75EFD031C7B611EE03B691A6A3B68DB09D3183A69101CA9
:40104000191CFFF79FFE031E00D011E03B689A00FE235B00134030333A69D318181CFFF761FD031C1B011B097B6101E001237B617B69181CBD4606B080BDC04690B589B093
:4010800000AFF860B9607A601F23FB1802221A70BB68012B00D8E7E0FB685A69BB689A4200D8E1E0FB681B78022B00D17EE0032B00D1A1E0012B00D0D6E0BB68BB61BB69A0
:4010C0005B08BA69D318BB61FB681A6ABB695B0AD3181F22BC18FA68101C191CFFF752FE031C23701F23FB181B78002B00D0BBE0BB695A1CBA61DB05DB0D3033FA68D3188D
:401100007B61BB68012213400ED07B691B78DBB21A1C0F231340DAB27B68DBB21B01DBB21343DBB2DBB201E07B68DBB27A691370FB680122DA70FB681A6ABB695B0AD318A6
:401140001F22BC18FA68101C191CFFF71BFE031C23701F23FB181B78002B00D084E0BB69DB05DB0D3033FA68D3187B61BB680122134003D07B681B09DBB211E07B691B78AF
:40118000DBB21A1C0F239A43131CDAB27B681B0ADBB2191C0F230B40DBB21343DBB2DBB27A691370FB680122DA705DE0FB681A6ABB681B0AD3181F22BC18FA68101C191CF9
:4011C000FFF7E0FD031C23701F23FB181B78002B00D049E0BB685A00FF235B0013403033FA68D2187B689BB2101C191CFFF7BCFCFB680122DA7037E0FB681A6ABB68DB094E
:40120000D3181F22BC18FA68101C191CFFF7BAFD031C23701F23FB181B78002B00D023E07B681B011C09BB689A00FE235B0013403033FA68D318181CFFF774FC031C1B0F63
:401240001B0723437B60BB689A00FE235B0013403033FA68D2187B68101C191CFFF7A2FCFB680122DA70C0461F23FB181B78181CBD4609B090BDC04690B589B000AFF86072
:40128000B9607A601F23FB1800221A70FB681B68BB61BB68012B04D9BB695A69BB689A4201D802235AE07B68002B15D01F23FC18B9697A6801235B42081C111C1A1CFFF763
:4012C000DDFE031C23701F23FB181B78002B03D01F23FB181B7841E0FA68BB68101C191CFFF728FE031C7B617B69002B00D134E07B69012B01D1022330E07B69013301D180
:4013000001232BE01F23FC18BA69BB68101C191C0022FFF7B3FE031C23701F23FB181B78002B03D01F23FB181B7817E0BB691B6901330BD0BB691B695A1CBB691A61BB69A9
:401340001B7901221343DAB2BB691A717B69BB60BB695A69BB689A42BED80023181CBD4609B090BD90B589B000AF786039607B681B683B613B68002B0DD13B69DB68BB61FB
:40138000BB69002B04D03B695A69BB699A421DD80123BB611AE07A683B68101C191CFFF7C9FD031CFB60FB68012B01D8012383E0FB68013301D1FB687EE03B695A69FB6875
:4013C0009A4201D9FB6877E03B68BB61BB69FB61FB690133FB613B695A69FB699A4207D80223FB61FA69BB699A4201D9002363E07A68FB69101C191CFFF79CFD031CFB60F0
:40140000FB68002B13D1C0461723FC183969FA6901235B42081C111C1A1CFFF72FFE031C23701723FB181B78002B1ED10EE0FB68012B02D0FB68013301D1FB683CE0FA6930
:40144000BB699A4201D1002336E0C1E73B68002B0BD01723FC1839693A68FB69081C111C1A1CFFF70BFE031C23701723FB181B78002B16D13B69FA69DA603B691A693B69E4
:401480005B69023B9A4204D23B691B695A1E3B691A613B691B7901221343DAB23B691A7109E01723FB181B78012B02D101235B4200E00123FB61FB69181CBD4609B090BDC4
:4014C00080B586B000AF786039607B681B683B613B68394A934203D83B681F22134001D0022365E07B683A681A617B689B687B617B69002B06D13B691B78022B02D93B698C
:401500005B6A7B617B69002B0CD13B685B093A691289934201D302234AE03B695A6A7B689A612CE03B695B895B02FB601AE07A687B69101C191CFFF7FDFC031C7B617B6960
:40154000013301D1012333E07B69012B04D93B695A697B699A4201D8022329E03A68FB68D31A3B603A68FB689A42E0D23A697B69101C191CFFF7C2FC021C7B689A617B6878
:401580007A695A617B689B69002B01D102230FE07B689A693B685B0AD2187B689A613B68DB05DB0D30333A69D2187B68DA610023181CBD4606B080BDFFFF1F0080B586B091
:4015C00000AF786039607B681B68FB607B681B692033BB607B689B69002B03D0BB685C4A934201D90423AEE0BB68DB05DB0D00D09DE07B689B695A1C7B689A617B685B6909
:40160000002B0BD1BB685B09FA681289934200D28DE07B6800229A61042394E0BB685B0AFA685289013A134000D080E07A687B685B69101C191CFFF77DFC031C7B617B69B5
:40164000012B01D802237EE07B69013301D1012379E0FB685A697B699A425CD83B68002B04D17B6800229A6104236CE07A687B685B69101C191CFFF775FE031C7B617B6919
:40168000002B01D107235EE07B69012B01D1022359E07B69013301D1012354E0FB68181CFFF720FB031E01D001234CE0FB6830331A1C80239B00101C00211A1CFFF7BAFAF2
:4016C00000233B61FA687B69101C191CFFF716FC021CFB68DA6212E0FB680122DA70FB68181CFFF7FFFA031E01D001232BE03B6901333B61FB68DB6A5A1CFB68DA62FB68C2
:401700005B891A1E3B699A42E6D8FB68DA6A3B69D21AFB68DA627B687A695A61FA687B69101C191CFFF7EAFB021C7B689A617B68BA681A61BB68DB05DB0D3033FA68D21860
:401740007B68DA610023181CBD4606B080BDC046FFFF1F0090B587B000AF786039607B681B68FB601723FC187B68181C0021FFF7A7FE031C23701723FB181B78002B35D19A
:4017800000233B617B689B691722BC18FA68101C191CFFF7F7FA031C23701723FB181B78002B00D022E07B68DB691B78E52B04D07B68DB691B78002B08D13B6901333B616D
:4017C0003A693B689A4200D110E001E000233B611723FC187B68181C0121FFF7EFFE031C23701723FB181B78002BCBD01723FB181B78042B03D11723FB1807221A70172387
:40180000FB181B78181CBD4607B090BD80B584B000AF786039603B681A33181CFFF764F9031CFB607B681B78032B09D13B681433181CFFF759F9031C1B04FA681343FB6018
:40184000FB68181CBD4604B080BDC04680B584B000AFF860B9607A60BB681A331A1C7B689BB2101C191CFFF77FF9FB681B78032B09D1BB6814331A1C7B681B0C9BB2101CAE
:40188000191CFFF771F9BD4604B080BD90B587B000AF78607B681B683B611723FC187B68181C0021FFF70CFE031C23701723FB181B78002B03D01723FB181B784EE07B6893
:4018C0009B691722BC183A69101C191CFFF75AFA031C23701723FB181B78002B00D03AE07B68DA690F23FB1812781A700F23FB181B78002B04D11723FB1804221A702AE084
:401900007B68DB690B331B783F221340DAB27B689A717B68DB690B331B781A1C082313400BD17B68DA697B682033101C191C0B22FFF798F9031E00D10DE01723FC187B6878
:40194000181C0021FFF73AFE031C23701723FB181B78002BB3D01723FB181B78181CBD4607B090BD90B585B000AF78607B681B68BB600F23FC187B68181C0121FFF7EAFEAA
:40198000031C23700F23FB181B78002B22D17B689B690F22BC18BA68101C191CFFF7F2F9031C23700F23FB181B78002B12D17B68DB69181C00212022FFF73CF97B68DA6988
:4019C0007B682033101C191C0B22FFF715F9BB680122DA700F23FB181B78181CBD4605B090BDC04680B588B000AF786039603B681B68FB607B682033BB60BB68181C202181
:401A00000B22FFF717F900233B613B697B610823BB617B695A1C7A61FA68D2181F23FB1812781A701F23FB181B78202B00D869E01F23FB181B782F2B04D01F23FB181B78B1
:401A40005C2B10D102E07B6901337B61FA687B69D3181B782F2BF6D0FA687B69D3181B785C2BF0D04EE01F23FB181B782E2B03D03A69BB699A420ED3BB690B2B04D01F2303
:401A8000FB181B782E2B01D0062358E008233B610B23BB6135E01F23FB181B785BB2002B09DA1F23FB181B78803B1A1C1F23FB1825498A5C1A701F23FB181B78234A101C3F
:401AC000191CFFF7F5F8031E01D0062337E01F23FB181B78602B0BD91F23FB181B787A2B06D81F23FB181F22BA181278203A1A703B695A1C3A61BA68D3181F22BA181278A5
:401B00001A7086E7FA687B69D2183B681A603B69002B01D1062312E0BB681B78E52B02D1BB6805221A70BB680B331F22BA181278202A01D8042200E000221A700023181C0E
:401B4000BD4608B080BDC046149F0000949F000090B587B000AF786039607B683B613B691B68FB6002E03B6801333B603B681B782F2BF8D03B681B785C2BF4D03B690022F1
:401B80009A603B681B781F2B0DD87B682B22802199541723FC187B68181C0021FFF790FC031C237055E01723FC187A683B1C101C191CFFF717FF031C23701723FB181B7893
:401BC000002B00D045E01723FC187B68181CFFF75DFE031C23700B23FB187A682B21525C1A701723FB181B78002B10D01723FB181B78042B0AD10B23FB181B780422134094
:401C000004D11723FB1805221A7022E021E00B23FB181B780422134000D01AE03B699B791A1C1023134004D11723FB1805221A700FE07B681B69DB05DB0D3033FA68D318A2
:401C4000FA68101C191CFFF7E1FD021C3B699A60A9E71723FB181B78181CBD4607B090BD80B586B000AF786001235B423B617B681B68002B31D07B681B687B6102E07B697D
:401C800001337B617B691B78202B03D97B691B783A2BF4D17B691B783A2B1CD17B681B68FB60FB685A1CFA601B78303BBB60BB68092B0ED8FA687B699A420AD1BB68002B77
:401CC00007D1BB683B617B6901337B617B687A691A603B6902E000233B613B69181CBD4606B080BD80B582B000AF786039607B680022DA707B6801225242DA627A683B68D5
:401D0000101C191CFFF73EF8031E01D0042335E07B681C4A94466344181CFEF7E5FE031C1A1E194B9A4201D0032327E07B6830229B5CE92B09D07B6830229B5CEB2B1CD135
:401D40007B6832229B5C902B17D17B686633181CFEF7E8FE031C1B021B0A0C4A934201D100230BE07B688233181CFEF7DBFE021E074B9A4201D1002300E00223181CBD4682
:401D800002B080BD2E02000055AA0000464154004641543390B597B000AFF860B960FB1D1A70BB6800221A60FB68181CFFF758FF031CFB63FB6B002B01DA0B2346E2CB4BD6
:401DC000FA6B9200D358BB63BB6B002B01D10C233CE2BB68BA6B1A60FB1DFA1D127801218A431A70BB6B1B78002B1CD0BB6B5B783722BC18181C01F02DFB031C23703723F0
:401E0000FB181B78012213400DD1FB1D1B78002B07D03723FB181B780422134001D00A2314E2002312E2BB6B00221A70FB6BDAB2BB6B5A70BB6B5B783722BC18181C01F078
:401E40001DFB031C23703723FB181B780122134001D00323FAE1FB1D1B78002B07D03723FB181B780422134001D00A23EEE100233B655723FC18BA6B3B6D101C191CFFF7E8
:401E800031FF031C23705723FB181B78022B4BD100233B641CE03B6C1B01BF33FF333033BA6BD3183B633B6B04331B78002B06D03B6B0833181CFEF735FE011C00E0002155
:401EC0001423FB183A6C9200D1503B6C01333B643B6C032BDFD900233B643B6C002B02D03B6C013B3B641423FB183A6C9200D3583B653B6D002B08D0BA6B3B6D101C191C2A
:401F0000FFF7F0FE031C1A1C00E003225723FB181A705723FB181B78012B05D93B6C01333B643B6C032BDED95723FB181B78042B01D101238AE15723FB181B78012B01D946
:401F40000D2383E1BB6B3B33181CFEF7CDFD031C1A1C80239B009A4201D00D2376E1BB6B4633181CFEF7C0FD031CFB64FB6C002B06D1BB6B5433181CFEF7D4FD031CFB64EE
:401F8000BB6BFA6C9A61BB6B40229A5CBB6B9A70BB6B9B78012B05D0BB6B9B78022B01D00D2353E1BB6B9B781A1CFB6C5343FB64BB6B3D229B5C9AB2BB6B5A81BB6B5B8979
:401FC000002B07D0BB6B5B891A1CBB6B5B89013B134001D00D2339E1BB6B4133181CFEF783FD031C1A1CBB6B1A81BB6B1B890F2213409BB2002B01D00D2327E1BB6B433327
:40200000181CFEF771FD031CBB64BB6C002B06D1BB6B5033181CFEF785FD031CBB64BB6B3E332E22BC18181CFEF75EFD031C23802E23FB181B88002B01D10D2306E12E23A3
:40204000FB181A88FB6CD318BA6B1289120992B29B18BB62BA6CBB6A9A4201D20D23F5E0BA6CBB6AD21ABB6B5B89101C191C05F083FF031C7B627B6A002B01D10D23E5E07F
:402080005723FB1803221A707B6A194A934203D85723FB1802221A707B6A164A934203D85723FB1801221A707B6A9A1CBB6B5A61BB6B3A6DDA612E23FB181A883B6DD21866
:4020C000BB6B1A623A6DBB6AD218BB6B9A625723FB181B78032B22D1BB6B5A33181CFEF703FD031E08D00D23B0E0C046B0010020F5FF0000F50F0000BB6B1B89002B01D0FB
:402100000D23A3E0BB6B5C33181CFEF70BFD021CBB6B5A62BB6B5B699B007B6420E0BB6B1B89002B01D10D2390E0BB6B1A6AFB6CD218BB6B5A625723FB181B78022B03D13D
:40214000BB6B5B695B000AE0BB6B5A69131C5B009B185A08BB6B5B6901210B40D3187B64BB6B9A697B6C3B498C4663445B0A9A4201D20D236AE0BB6B012252421A61BB6B6E
:402180001A69BB6BDA60BB6B80221A715723FB181B78032B4AD1BB6B6033181CFEF7A4FC031E012B42D13B6D0133BA6B101C191CFEF7E8FD031E39D1BB6B00221A71BB6B3E
:4021C000254A94466344181CFEF78EFC031C1A1E224B9A422AD1BB6B3033181CFEF7A2FC021E1F4B9A4221D1BB6B8522920094466344181CFEF796FC021E1A4B9A4215D117
:40220000BB6B8622920094466344181CFEF78AFC021CBB6B1A61BB6B8722920094466344181CFEF77FFC021CBB6BDA60BB6B5722BA1812781A700C4B1B8801339AB20A4BF7
:402240001A80094B1A88BB6BDA800023181CBD4617B090BDFF0100002E02000055AA00005252614172724161B401002080B584B000AF786039607B68BB607B68002B1AD091
:40228000BB681B68002B16D0BB681B681B78002B11D0BB681B68DA88BB689B889A420AD1BB681B685B78181C01F0D4F8031C1A1C0123134007D03B6800221A600F23FB188C
:4022C00009221A7007E0BB681A683B681A600F23FB1800221A700F23FB181B78181CBD4604B080BD90B589B000AFF860B960FB1D1A70BB683B611023FB18181CFFF7B0FC74
:40230000031CFB61FB69002B01DA0B232EE0194BFA699200D358BB61BB69002B02D0BB6900221A70FB68002B02D0FB6800221A70F968104BFA699200D150FB68002B03D049
:40234000FB1D1B78012B01D000230FE01723FC180823FA180C23FB18101C191C0022FFF719FD031C23701723FB181B78181CBD4609B090BDB001002090B599B000AFF86012
:40238000B9603B60FB1D1A70FB68002B01D10923CDE1FB1DFA1D12783F210A401A705F23FC180823F9181423FA18FB1D1B78081C111C1A1CFFF7EEFC031C23705F23FB182C
:4023C0001B78002B00D0A7E17A691823FB181A60BB685F22BC181822BA18101C191CFFF7B7FB031C23705F23FB181B78002B0BD11823FB182B229B5CDBB25BB2002B03DA7A
:402400005F23FB1806221A70FB1D1B781C22134000D19DE05F23FB181B78002B17D05F23FB181B78042B08D15F23FC181823FB18181CFFF797FA031C23703B6801221A60D0
:40244000FB1DFA1D127808210A431A7014E01823FB189B791A1C1123134004D05F23FB1807221A7008E0FB1D1B780422134003D05F23FB1808221A705F23FB181B78002BF9
:4024800000D086E0FB1D1B780822134000D180E000233B651823FB18DB690E331A1C3B6D101C191CFEF77EFB1823FB18DB6916331A1C3B6D101C191CFEF774FB1823FB187E
:4024C000DB690B3320221A707A691823FB18DB69101C191CFFF79AF9031CFB647A691823FB18DB69101C191C0022FFF7AFF91823FB18DB691C33181C0021FEF753FB7B69BE
:402500000122DA70FB6C002B43D07B69DB6A3B655F23FC181823FA18FB6C101C191C0022FEF7AAFE031C23705F23FB181B78002B2FD17A695F23FC183B6D101C191CFEF7DA
:4025400021FC031C23707B69FA6C013ADA6020E05F23FB181B78002B1BD11823FB189B791A1C1023134004D05F23FB1804221A700FE0FB1D1B78022213400AD01823FB181E
:402580009B791A1C0123134003D05F23FB1807221A705F23FB181B78002B13D1FB1D1B780822134005D0FB1DFA1D127840210A431A707B69DA6AFB681A621823FB18DA6982
:4025C000FB685A625F23FB181B78002B00D0A3E07A691823FB18DB69101C191CFFF716F9021CFB689A601823FB18DB691C33181CFEF798FA021CFB68DA607A69FB681A60A9
:402600007B69DA88FB689A80FB68FA1D12781A74FB6800225A74FB680022DA61FB6800225A61FB6828331A1C80239B00101C00211A1CFEF7FFFAFB1D1B782022134000D13E
:402640006AE0FB68DB68002B66D0FB68DA68FB685A617B695B895B02BB64FB689B68BB65FB68DB687B6519E0FA68BB6D101C191CFEF760FC031CBB65BB6D012B03D85F23D1
:40268000FB1802221A70BB6D013303D15F23FB1801221A707A6DBB6CD31A7B655F23FB181B78002B03D17A6DBB6C9A42DCD8FB68BA6D9A615F23FB181B78002B2CD17B6D8A
:4026C000DB05DB0D28D07A69BB6D101C191CFEF715FC031C7B647B6C002B04D15F23FB1802221A7018E07B6D5A0A7B6CD218FB68DA617B695978FB6828331A1CFB68DB697D
:40270000081C111C1A1C012300F09EFF031E03D05F23FB1801221A705F23FB181B78002B02D0FB6800221A605F23FB181B78181CBD4619B090BDC04690B58DB000AFF86003
:40274000B9607A603B60BB68FB613B6800221A602F23FC18FA681023FB18101C191CFFF785FD031C23702F23FB181B78002B09D12F23FB18FA68527C1A702F23FB181B7860
:40278000002B03D02F23FB181B7847E1FB681B7C1A1C0223134001D107233FE1FB685A697B68D218FB685B699A4203D2FB685B69DB437B6026E1FB685B69DB05DB0D00D086
:4027C000DEE0FB685B695B0A3A695289013A1340BB61BB69002B38D1FB685B69002B0DD1FB689B68BB62BB6A002B10D1FB68181C0021FEF7B7FD031CBB6208E0FA68FB68E1
:402800009B69101C191CFEF7ADFD031CBB62BB6A002B00D1FAE0BB6A012B04D1FB6802225A740223FAE0BB6A013304D1FB6801225A740123F2E0FB68BA6A9A61FB689B6883
:40284000002B02D1FB68BA6A9A60FB681B7CDBB25BB2002B1ADA3B695978FB6828331A1CFB68DB69081C111C1A1C012300F04AFF031E04D0FB6801225A740123CEE0FB68B4
:402880001B7C7F221340DAB2FB681A743A69FB689B69101C191CFEF731FB031C7B617B69002B04D1FB6802225A740223B6E07A69BB69D3187B617B685B0A3B623B6A002B12
:4028C0003DD0BA693B6AD3183A695289934205D93B695B891A1CBB69D31A3B623B695878F9697A693B6A00F00DFF031E04D0FB6801225A74012391E0FB68DA697B69D21ACD
:402900003B6A9A4217D2FB682833191CFB68DA697B69D31A5B02FA69D21880239B00081C111C1A1CFEF768F9FB681B7C7F221340DAB2FB681A743B6A5B027B6244E0FB682D
:40294000DA697B699A4218D0FB685A69FB68DB689A4212D23B695978FB6828331A1C7B69081C111C1A1C012300F06EFE031E04D0FB6801225A74012350E0FB687A69DA616E
:40298000FB685B69DB05DB0D80229200D31A7B627A6A7B689A4201D97B687B62FB685B69DB05DB0D2833FA68D118FA697B6A081C111C1A1CFEF720F9FB681B7C802252424B
:4029C0001343DAB2FB681A74FA697B6AD318FB61FB685A697B6AD218FB685A61FB68D968FB685A690B1E934200D2131CFA68D3603B681A687B6AD2183B681A607A687B6A2C
:402A0000D31A7B607B68002B00D0D4E6FB681B7C40221343DAB2FB681A740023181CBD460DB090BD90B587B000AF78601723FC187A680823FB18101C191CFFF717FC031CA9
:402A400023701723FB181B78002B74D17B681B7C1A1C402313406ED07B681B7CDBB25BB2002B17DABB6859787B6828331A1C7B68DB69081C111C1A1C012300F043FE031E13
:402A800001D001235AE07B681B7C7F221340DAB27B681A7400233B61BA687B681B6A17217C18101C191CFEF76DF9031C23701723FB181B78002B3ED17B685B6AFB60FB6879
:402AC0000B33FA680B32127820210A43D2B21A707B6819687B689B68FA68081C111C1A1CFEF7B4FEFB681C331A1C7B68DB68101C191CFEF757F8FB6816331A1C3B69101C94
:402B0000191CFEF74FF8FB681233181C0021FEF72BF8BB680122DA70BB681722BC18181CFEF76AF9031C23707B681B7C40229343DAB27B681A741723FB181B78181CBD464B
:402B400007B090BD90B585B000AF78600F23FC187B68181CFFF766FF031C23700F23FB181B78002B12D10F23FC187A680823FB18101C191CFFF77AFB031C23700F23FB18D7
:402B80001B78002B02D17B6800221A600F23FB181B78181CBD4605B090BDC04680B584B000AF78600A1CFB1C1A70FB1C1B780A2B04D17B68181C0D21FFF7F0FF7B685B68B3
:402BC000FB60FB68002B25DBFB685A1CFA607A68D318FA1C12781A73FB683C2B12DD7B6818687B680C33191CFA680823FB18FFF7A3FDFA68BB689A4201D1002301E00123BB
:402C00005B42FB607B68FA685A607B689B685A1C7B689A60BD4604B080BDC04690B585B000AF78607B685B68002B19DB7B6819687B680C331A1C7B685B681C1C0C23FB18C8
:402C4000081C111C221CFFF777FD031E08D17B685B681A1EFB689A4202D17B689B6801E001235B42181CBD4605B090BD80B582B000AF786039607B683A681A607B68002225
:402C80005A607B685A687B689A60BD4602B080BD0EB480B5A7B000AF78602C23FA187B68101C191CFFF7E2FFA823FB18BB67A423FB181B685A1CA42179180A608322BA188B
:402CC0001B7813708323FB181B78002B00D126E28323FB181B78252B09D02C23FA188323FB181B78101C191CFFF758FF16E29723FB1800221A7000238822BA181360A42354
:402D0000FB181B685A1CA42179180A608322BA181B7813708323FB181B78302B0FD19723FB1801221A70A423FB181B685A1CA42179180A608322BA181B78137013E0832380
:402D4000FB181B782D2B0ED19723FB1802221A70A423FB181B685A1CA42179180A608322BA181B7813701AE08823FB181A68131C9B009B185B001A1C8323FB181B78D3185C
:402D8000303B8822BA181360A423FB181B685A1CA42179180A608322BA181B7813708323FB181B782F2B04D98323FB181B78392BDAD98323FB181B786C2B04D08323FB1843
:402DC0001B784C2B12D19723FB189722BA18127804210A431A70A423FB181B685A1CA42179180A608322BA181B7813708323FB181B78002B00D192E18223FB188322BA18FE
:402E000012781A708223FB181B78602B0BD98223FB181B787A2B06D88223FB188222BA181278203A1A708223FB181B78423B162B00D979E09A00C04BD3181B689F46BB6FFD
:402E40001A1DBA671B68FB6700238C22BA18136006E08C23FB181B6801338C22BA181360FA6F8C23FB181B68D3181B78002BF0D19723FB181B780222134012D105E02C23A7
:402E8000FB18181C2021FFF789FE8C23FB181B685A1C8C2179180A608822BA1812689342EDD309E0FB6F5A1CFA671B782C22BA18101C191CFFF772FEFB6F1B78002BF1D191
:402EC00005E02C23FB18181C2021FFF767FE8C23FB181B685A1C8C2179180A608822BA1812689342EDD319E1BB6F1A1DBA671B68DBB22C22BA18101C191CFFF74FFE0DE18F
:402F00009623FB1802221A7018E09623FB1808221A7013E09623FB180A221A700EE09623FB1810221A7009E02C23FA188323FB181B78101C191CFFF731FEEFE09723FB18FC
:402F40001B780422134004D0BB6F1A1DBA671B680DE08223FB181B78442B04D1BB6F1A1DBA671B6803E0BB6F1A1DBA671B688422BA1813608223FB181B78442B13D18423D3
:402F8000FB181B68002B0EDA8423FB181B685B428422BA1813609723FB189722BA18127808210A431A7000239022BA1813609623FB181B788422BA181268101C191C05F000
:402FC00061F80B1C1A1C8223FB181A709623FB181B788422BA181068191C04F0CDFF031C8422BA1813608223FB181B78092B0ED98323FB181B78782B01D1272300E0072310
:403000008222BA188221791809785B1813709023FB181B685A1C902179180A608222BA1812783032D1B20C22BA18D1548423FB181B68002B04D09023FB181B681F2BB6D99C
:403040009723FB181B78082213400AD09023FB181B685A1C902179180A600C22BA182D21D1549023FB181B688C22BA1813609723FB181B780122134001D0302200E0202264
:403080008223FB181A7008E02C23FA188223FB181B78101C191CFFF781FD9723FB181B78022213400BD18C23FB181B685A1C8C2179180A608822BA1812689342E4D390231A
:4030C000FB181B68013B9022BA1813600C23FA189023FB181B68D3181B782C22BA18101C191CFFF75BFD9023FB181B68002BE6D108E02C23FA188223FB181B78101C191C10
:40310000FFF74CFD8C23FB181B685A1C8C2179180A608822BA1812689342EAD3C7E52C23FB18181CFFF77AFD031C181CBD4627B080BC08BC03B01847A49F000080B582B0CD
:4031400000AF786039603B689BB27A68101C191C04F0BAF9052002F0B5FABD4602B080BD90B583B000AF786039607C68631C7B6004F0D0F9031C23703B68013B3B603B683B
:40318000002BF2D1BD4603B090BDC04680B582B000AF0F4B7B600FE0FB1C181C0121FFF7DFFFFB1C1B78FF2B00D108E0642002F0ADFA7B68013B7B607B68002BECD17B684B
:4031C0005A1E9341DBB2181CBD4602B080BDC0468813000080B582B000AF012002F096FAFB1D181C0121FFF7BBFFBD4602B080BD80B582B000AF012002F088FAFB1D181C6F
:403200000121FFF7ADFFFFF7C1FF031E01D0012302E0FFF7DFFF0023181CBD4602B080BD80B584B000AF78603960FA239B00FB6011E00823FB18181C0121FFF791FF08232D
:40324000FB181B78FF2B00D008E0642002F05EFAFB68013BFB60FB68002BEAD10823FB181B78FE2B01D000230CE07A683B68101C191CFFF775FF0823FB18181C0221FFF700
:403280006FFF0123181CBD4604B080BD80B584B000AF78600A1CFB1C1A70FFF777FF031E01D1002332E00C23FB18FA1C12781A700C23FB18181C0121FFF740FF642002F05A
:4032C00025FAFB1C1B78FD2B1FD07A6880239B00101C191CFFF732FF642002F017FA0C23FB18181C0221FFF73BFF0C23FB18181C0121FFF735FF0C23FB181B781A1C1F23E7
:403300001340052B01D0002300E00123181CBD4604B080BD90B585B000AF021C3960FB1D1A70FB1D1B785BB2002B16DAFB1DFA1D12787F210A401A700F23FC1837200021AA
:40334000FFF7E8FF031C23700F23FB181B78012B03D90F23FB181B7877E0FB1D1B780C2B07D0FFF737FFFFF743FF031E01D1FF236BE0FB1D1B7840221343DAB20823FB1805
:403380001A703B681B0EDAB20823FB185A703B681B0CDAB20823FB189A703B681B0ADAB20823FB18DA703B68DAB20823FB181A710F23FB1801221A70FB1D1B78002B03D115
:4033C0000F23FB1895221A70FB1D1B78082B03D10F23FB1887221A700823FB180F22BA1812785A710823FB18181C0621FFF7A6FE642002F08BF9FB1D1B780C2B05D10E2371
:40340000FB18181C0121FFF7ABFE0F23FB1814221A700E23FB18181C0121FFF7A1FE0E23FB181B78DBB25BB2002B0BDA0F23FB180F22BA181278013A1A700F23FB181B7860
:40344000002BE6D10E23FB181B78181CBD4605B090BDC04680B582B000AF021CFB1D1A70FB1D1B78002B01D0012301E0024B1B78181CBD4602B080BDF000002080B586B051
:4034800000AF021CFB1D1A70FB1D1B78002B01D00323CEE0694B181C02F038F91723FB180A221A700CE00823FB18181C0121FFF757FE1723FB181A781723FB18013A1A7058
:4034C0001723FB181B78002BEDD11623FB1800221A7000200021FFF71DFF031E012B00D08FE0D5235B000820191CFFF713FF031E012B46D10823FB18181C0421FFF730FE55
:403500000823FB189B78012B00D07AE00823FB18DB78AA2B00D074E0FA239B003B6110E08023DB05A920191CFFF7F4FE031E00D10AE0FA239B00181C02F0E8F83B69013B33
:403540003B613B69002BEBD13B69002B59D03A200021FFF7DFFE031E53D10823FB18181C0421FFF7FDFD0823FB181B781A1C4023134001D00C2200E004221623FB181A707A
:403580003FE0A9200021FFF7C5FE031E012B08D81623FB1802221A701523FB18A9221A7007E01623FB1801221A701523FB1801221A70FA239B003B6111E01523FB181B7887
:4035C000181C0021FFF7A6FE031E00D10AE0FA239B00181C02F09AF83B69013B3B613B69002BEAD13B69002B07D080239B001020191CFFF78FFE031E03D01623FB1800225C
:403600001A700F4B1622BA1812781A701623FB181B785A425341DAB20F23FB181A70094B0F22BA1812781A70FFF7D4FD0F23FB181B78181CBD4606B080BDC04610270000AD
:40364000B8010020F000002080B586B000AFB9607A603B600F23FB18021C1A700F23FB181B78181CFFF7F6FE031C1A1C0123134001D0032340E0224B1B781A1C082313403F
:4036800002D17B685B027B603B68012B01D9122200E011221723FB181A701723FB181A787B68101C191CFFF735FE031E1ED1BA6880239B00101C191CFFF7B2FD031E00D1A1
:4036C0000BE0BB688022920094466344BB603B68013B3B603B68002BE9D11723FB181B78122B03D10C200021FFF714FEFFF772FD3B685A1E9341DBB2181CBD4606B080BD99
:40370000B801002080B584B000AFB9607A603B600F23FB18021C1A700F23FB181B78181CFFF798FE031C1A1C0123134001D0032350E02A4B1B781A1C0823134002D17B6820
:403740005B027B603B68012B10D17B681820191CFFF7E0FD031E37D1BB68181CFE21FFF795FD031E30D000233B602DE01B4B1B781A1C0623134004D03B689720191CFFF727
:40378000C9FD7B681920191CFFF7C4FD031E1BD1BB68181CFC21FFF779FD031E00D10BE0BB688022920094466344BB603B68013B3B603B68002BEBD10020FD21FFF766FDE3
:4037C000031E01D101233B60FFF704FD3B685A1E9341DBB2181CBD4604B080BDB801002080B58AB000AF3A60FB1D021C1A70BB1D0A1C1A70FB1D1B78181CFFF72BFE031C86
:403800001A1C0123134001D0032394E02723FB1801221A70BB1D1B78012B0FD0032B00D178E0002B00D07DE0FFF7E2FC031E04D02723FB1800221A7078E077E00920002176
:40384000FFF768FD031E64D10C23FB18181C1021FFF7E6FC031E5CD00C23FB181B789B09DBB2012B18D10C23FB185B7A1A1C0C23FB181B7A1B02D3181A1C0C23FB18DB79B8
:40388000191C3F230B401B04D31801333B623B6A9A023B681A6037E00C23FB185B790F221340DAB20C23FB189B7ADB09DBB2D318DAB20C23FB185B7A03210B40DBB2DB186B
:4038C000DBB2D318DAB21F23FB1802321A700C23FB181B7A9B09DBB21A1C0C23FB18DB799B00D2180C23FB189B79191C03230B409B02D31801333B621F23FB181B78093BD7
:403900003A6A9A403B681A602723FB1800221A700CE00BE03B6880221A602723FB1800221A7003E02723FB1804221A70FFF752FC2723FB181B78181CBD460AB080BDC046EC
:4039400098B500AF03F082FE0A4B01221A60FCF72DFD031C0C1C084A13605460FCF730FD021C064B1A6003F039FA03F079FEBD4698BDC046CC010020C0010020C80100205B
:4039800080B500AF03F02AFA03F06AFE054B181C03F00CFE03F05AFE034B00221A60BD4680BDC04641390000CC01002080B582B000AF054B1B687B60034B00221A607B68BD
:4039C000181CBD4602B080BDCC01002080B500AF03F004FA03F044FE03F02EFEBD4680BD90B583B000AF78603960064B5C681B687A6813605460044B1A683B681A60BD4621
:403A000003B090BDC0010020C801002080B582B000AF00F06FFA031C7B607B68181CBD4602B080BD80B582B000AF00237B600DE07B6801331A010D4BD2180C497B681B0181
:403A4000CB1808335A607B6801337B607B68062BEED9064B054ADA67054B044A1A60054B024A1A60BD4602B080BDC046D0260020542700205027002090B585B000AFB86011
:403A8000F960BB1D1A800C4B1B68BA1D12881A81094B1A68BB68FC6813605460064B1B68DA68054B1A60054B1B685A1C034B1A60BD4605B090BDC04650270020A02400205A
:403AC00090B583B000AF786039600C4B1B681A893B681A80094B1B685C681B687A6813605460064B1B68DA68044B1A60044B1B685A1E034B1A60BD4603B090BD54270020BE
:403B0000A024002090B585B000AFB860F960BB1D1A80BB68FC68BA1D1288181C211CFFF7ABFF0123181CBD4605B090BD90B585B000AFB860F960BB1D1A80254B1B88962B4F
:403B400002D1234B00221A80214B1B881A1C131C5B009B181B011F4A99181D4B1B881A1C131C5B009B181B0108331A1C194BD318081C191CFFF7A4FF154B1B88191C154AAD
:403B80000B1C5B005B181B01D3181833BA1D12881A800F4B1B88191C0E4A0B1C5B005B181B01D31810331A1CBB68FC6813605460074B1B88181C00F019F8054B1B880133B5
:403BC0009AB2034B1A800123181CBD4605B090BDA42400208008002080B500AF024B1B68181CBD4680BDC046A024002090B583B000AF78603E497A68131C5B009B181B01D1
:403C0000CB18103319685A68394C7868031C5B001B181B01E3185C681B68C91AA241344C7868031C5B001B181B01E318203319605A602F497A68131C5B009B181B01CB18A5
:403C4000183319882A487A68131C5B009B181B01C31808331B88CB1A98B225497A68131C5B009B181B01CB182833021C1A8020497A68131C5B009B181B01CB1828331A88A0
:403C8000FA239B009A422DD919497A68131C5B009B181B01CB1820335C681B6801214942CA17C9186241124C7868031C5B001B181B01E318203319605A600D497A68131C4F
:403CC0005B009B181B01CB1828331B885B4298B207497A68131C5B009B181B01CB182833021C1A800123181CBD4603B090BDC0468008002090B583B000AF0F4B1B88002BF9
:403D000007D10E4AE2235B01D3185C681B687B600CE0094B1B885A1E0849131C5B009B181B01CB1820335C681B687B607B68181CBD4603B090BDC046A424002080080020D8
:403D400080B582B000AF0D4B1B88002B04D10C4B0C4A9B5A7B600BE0084B1B885A1E0849131C5B009B181B01CB1828331B887B607B68181CBD4602B080BDC046A4240020FF
:403D800080080020481C000080B584B000AF78607B68702213401A09131C9B009B185B00FB607B680F221340FA68D318FB60FB68181CBD4604B080BD80B584B000AF78605F
:403DC0007A68E023DB0113401A0B131C9B009B185B00FB607A68F0231B0113401B0AFA68D318FB60FB68181CBD4604B080BDC04680B584B000AF78607A68C0239B031340EF
:403E00001A0D131C9B009B185B00FB607A68F0231B0313401B0CFA68D318FB60FB68181CBD4604B080BDC04680B584B000AF78607A68C0239B0313401A0D131C9B009B1818
:403E40005B00FB607A68F0231B0313401B0CFA68D318FB60FB68181CBD4604B080BDC04680B584B000AF78607A6880235B0513401A0F131C9B009B185B00FB607A68F0234D
:403E80001B0513401B0EFA68D318FB60FB68181CBD4604B080BDC04680B584B000AF78607A68C0239B0113401B0BFA2292005343FB607A68F0231B0113401B0A642253431F
:403EC000FA68D318FB607B68F02213401A09131C9B009B185B001A1CFB689B18FB607B680F221340FA68D318FB60FB68181CBD4604B080BD90B583B000AFFC1D074A084BB2
:403F0000101C191C0122FEF7EDF9031C2370FB1D1B78181CBD4603B090BDC0464806002000A00000B0B5BCB002AF786002F066F8031CE022BA181360E023FB181B68181C9D
:403F4000FFF7AAFF031C914A94466344DC22BA181360E023FB181B68181CFFF781FF031CD822BA181360E023FB181B68181CFFF75BFF031CD422BA181360B823F818844914
:403F8000D423FB181A68D823FB181C68DC23FB181B680093231C05F089FB7E4B00221A60E723FC187C49B823FA187A4B081C111C3222FEF7E1F9031C2370E723FB181B7833
:403FC000002B00D0DAE07B685C681B686C22B91800220092081C1A1C231C02F01FF96C23FB181B68181CFFF703FF051C6C23FB181B68181CFFF7E0FE041C6C23FB181B6848
:40400000181CFFF7C1FE7B681B89191CA423FA18624B00900191101C191C2A1C231C05F045FB7B685C691B696C22B91800220092081C1A1C231C02F0F1F86C23FB181B6840
:40404000181CFFF7D5FE051C6C23FB181B68181CFFF7B2FE041C6C23FB181B68181CFFF793FE7B681B8B191C9023FA184B4B00900191101C191C2A1C231C05F017FB7B6818
:404080005C6A1B6A1D1C7B681B8D1C1C7C23FA18434B101C191C2A1C231C05F007FB414B1A680823F8184049A423FC189023FB1800937C23FB180193231C05F0F7FA394BA8
:4040C0001B68012B03D0334B1B68012B35D101F073FF031CD022BA181360D023FB181B68181CFFF785FE051CD023FB181B68181CFFF762FE041CD023FB181B68181CFFF715
:4041000043FE011C244A294B0091101C191C2A1C231CFEF7BDFD204A254B101C191CFEF7B7FD1D4A234B101C191CFEF7B1FD1A4A1F4B101C191CFEF7ABFD0823FB18181C1E
:4041400005F0E3FA051CE723FC1813490823FA18CC23FB18081C111C2A1CFEF7EDFA031C2370E723FC180C4B181CFEF7EBFC031C23700C4B1B685A1C0A4B1A60E723FB18FB
:404180001B78181CBD463AB0B0BDC04630F8FFFF04A000007C080020A824002018A0000034A00000F400002044A0000050A0000070A00000A4A0000080B500AF02F026FEBC
:4041C000064B1B78002B03D1054B181C02F0D0FE024B01221A70BD4680BDC04658270020E541000080B500AF02F042FF031CDB43DBB2181C02F018FF022002F0ADFEBD46B3
:4042000080BDC04680B584B000AF021CBB1D1A80BB1D1B885B001A1CFA239800111C03F0ABFE031CFB60FB68181C02F051FE02F00DFEBD4604B080BD80B582B000AF021C92
:40424000FB1D1A7002F01EFEFB1D1B78181C02F0EBFEBD4602B080BD80B584B000AF78600A1CFB1C1A70FB1C1B78FB600C4B1B68002B01D100F03AF87A68FB685340BB603A
:404280007B681A0ABB68FF211940064B8900CB5853407B607B68181CBD4604B080BDC046D0010020D401002080B586B000AFF860B9607A607B683B6100237B610DE0FA68C7
:4042C0007B69D3181B783A69101C191CFFF7C4FF031C3B617B6901337B617A69BB689A42EDD33B69181CBD4606B080BD80B584B000AF0023FB601FE0FB687B600023BB606F
:404300000FE07B680122134005D07B685B080F4A53407B6002E07B685B087B60BB680133BB60BB68072BECDD094BFA6892007968D150FB680133FB60FB68FF2BDCDD054BEE
:4043400001221A60BD4604B080BDC0462083B8EDD4010020D001002080B500AF02F0AEFE03F0CEFA064B0122DA74064B00229A7402F00CFF044B00221A60BD4680BDC046CA
:404380008827002068270020D405002090B5A1B000AF78600023BB670023FB677B68952B04D87B68181C01F08DF985E0444B181C03F0FCF903F00AFA031C7B6703F094F90A
:4043C00040E0404BDB7C012B0BD13F4B9B7C002B07D1BB6F002B02D0BB6F0A2B01D900F081F8384BDB7C012B08D1374B9B7C012B04D100F0C3F8334B0122DA74962001F08C
:4044000061F9BB6F0133BB6703F0A8F9031C3B6703F0DCF9031C7B673A6F7B6FD31A181C04F084FD031C0C1C181C211C274A284B03F0A8FE031C0C1C181C211C03F04EFE2F
:40444000031CFB677A68FB6FD31A962B03D9FA6F7B689A42B5D903F059F90C23F9181D4AFB6F081C111C1A1C05F020F90C23FB18181C03F049FA184B1B68591C164A11606C
:40448000012B05DD144B00221A600F4B00229A74124B1B68591C114A1160032B02DD104B00221A607A68FB6F9A4205D97A68FB6FD31A181C01F006F9BD4621B090BDC046BA
:4044C000FFFF01008827002068270020FCA9F1D24D624040C4A00000D8050020DC050020D405002090B59FB004AFFFF775FB031CDAB21E4BDA701D4B00229A701B4B5B7875
:404500001C1C1A4B9B78181C184BDB78191C3A1C174B009401900291101C191C0022002305F0C4F8114B1B781C1C3423FA183B1C101C191C221C00F06BFB3423FB18181C6B
:4045400002F05CFF094B01229A740A4B181C03F0DBF93423FB18181C03F0D6F9064B181C03F0D2F9BD461BB090BDC04668270020D8A00000F0A00000FCA0000090B58BB082
:4045800000AF00237B6274E03A1C2323FB181B78101C191C00F0ACF8031C7B622323FB181B78181C03F03CF93B1C1B7E012B60D13B1C1B88DAB23B4B1A703B4B1A78394BFE
:4045C0001B789A4235D1374B0022DA74364B00229A74364B01221A60354B00221A603B1C9A7C304B9A743B1CDC689B682D4A9360D4603B1C1A8A2B4B1A822A4B9B7C012B72
:4046000008D1284BDC689B68264A128A181C211CFFF778FA244B1B780133DAB2224B1A70244B181C03F070F9234B181C03F06CF91DE01D4B1B781A1C1A4B1B7801339A421A
:4046400015D13B1C9A7C174B9A743B1CDC689B68144A9360D4603B1C1A8A124B1A82174B181C03F051F9144B181C03F04DF9012314E002F06BFD031E0BD002F09FFE021CA6
:404680002323FB181A702323FB181B78002B00D07AE7094B181C03F037F90023181CBD460BB090BD8827002068270020D4050020DC05002000A10000FCA0000018A1000054
:4046C00080B500AF024B1B68181CBD4680BDC046D405002080B582B000AF78607B68DAB2024B5A70BD4602B080BDC04668270020F0B599B004AFF8610A1C1B23FB181A707D
:404700000023FB641B23FE181B23FB181B78181C00F01EFA031C33701B23FB181B783C2B19D1C34B01221A70FB69181C00F052FAC04B00221A70C04B00221A70BF4B002263
:404740001A70BF4B00221A70BE4B00221A70BE4B00221A70EDE1B64B1B780A2B00D9E4E19A00BA4BD3181B689F461B23FB181B78181C00F015FA031E1ED0FB691A881B23FE
:40478000FB181B789BB213439AB2FB691A80A94B1B780133DAB2A74B1A70A64B1B78042B03D1A34B02221A70C3E1FB691B881B019AB2FB691A80BCE19D4B00221A7001231A
:4047C000FB64B6E11B23FB181B78212B03D1984B03221A70ADE1FB69181C00F0FBF90223FB64934B00221A70A3E11B23FB181B78181C00F0D5F9031E1BD0FB695A681B234B
:40480000FB181B781A43FB695A608B4B1B780133DAB2894B1A70884B1B78022B03D1844B04221A7085E1FB695B681A01FB695A607FE1FB69181C00F0CDF97D4B00221A7002
:404840000323FB6475E11B23FB181B783A2B03D1774B05221A706CE1FB69181C00F0BAF90423FB64724B00221A7062E11B23FB181B78181C00F094F9031E2DD0FB699A68FA
:40488000DB681B2179180978C9B239610021796139691143B96079691943F960FB69B968FA689960DA60664B1B780133DAB2644B1A70634B1B78102B03D15D4B06221A70B0
:4048C00037E1FB699A68DB68110F1D010D431401FB699C60DD602CE1FB69181C00F07AF90523FB64524B00221A7022E11B23FB181B78181C00F054F9031E1ED0FB691A8A70
:404900001B23FB181B789BB213439AB2FB691A824C4B1B780133DAB24A4B1A70494B1B78042B03D1424B07221A7002E1FB691B8A1B019AB2FB691A82FBE0FB69181C00F07A
:4049400049F90623FB643A4B00221A70F1E01B23FB181B78181C00F023F9031E1DD0FB699A7C1B23FB181B781343DAB2FB699A74354B1B780133DAB2334B1A70324B1B789C
:40498000022B03D12A4B08221A70D2E0FB699B7C1B01DAB2FB699A74CBE0FB69181C00F019F90A23FB64224B00221A70C1E01B23FB181B78402B03D11D4B09221A70B8E023
:4049C000FB69181C00F006F90723FB64184B00221A70AEE01B23FB181B78181C00F0E0F8031E1BD0FB695A691B23FB181B781A43FB695A61114B1B780133DAB20F4B1A7004
:404A00000E4B1B78082B03D1094B0A221A7090E0FB695B691A01FB695A618AE0FB69181C00F0D8F80823FB64014B00221A7080E0A3270020A12700206027002080270020C3
:404A4000A0270020A2270020A427002054A100001B23FB181B783E2B5DD1FB695A68FB69DC689B6823003B6000237B603E68FB69DC689B681D1CFB691B8A1C1CFB699B7C38
:404A8000181C082318217918C9182D4B009501940290081C191C331C04F008FE01235B42BB64284ABB6C101C01211A1CFFF7FCFB031CBB64082318229446BC446344181CD4
:404AC00004F023FE011C08231822BA18D218BB6C101C1A1CFFF7E8FB031CBB641A4ABB6C101C01211A1CFFF7DFFB031CBB64BB6CDB43BB64FB695A69BB6C9A4205D1FB69DE
:404B000001221A760023FB640BE0FB6900221A760A23FB6405E00923FB64FB69181C00F059F80A4B00221A7003E0FB69181C00F051F8FB6CDBB2181CBD4615B0F0BDC04612
:404B400034A100004CA1000050A10000A327002080B582B000AF021CFB1D1A70FB1D1B78402B09D9FB1D1B78462B05D8FB1DFA1D1278373A1A700CE0FB1D1B782F2B08D94B
:404B8000FB1D1B78392B04D8FB1DFA1D1278303A1A70FB1D1B78181CBD4602B080BDC04680B584B000AF021CFB1D1A700F23FB1801221A70FB1D1B780F2B03D90F23FB18B6
:404BC00000221A700F23FB181B78181CBD4604B080BDC04690B583B000AF78607B6800221A807B6800225A607A68002300249360D4607B6800221A827B6800229A747B68BF
:404C000000225A617B6800221A76BD4603B090BD90B591B000AFF860B9607A60BB68FB637B689BB21C1C2423FA18474B101C191C221C04F03BFD01235B42BB63434ABB6B4E
:404C4000101C01211A1CFFF72FFB031CBB63FB6B181C04F05AFD011CFA6BBB6B101C1A1CFFF722FB031CBB63394ABB6B101C01211A1CFFF719FB031CBB63BB6BDB43BB633E
:404C80001023F918334ABB6B081C111C1A1C04F00DFDFA68304B111C1A1C0223081C111C1A1C04F0F1FCFA682423FB18101C191C04F01EFDFB68181C04F027FD031C1A1C8B
:404CC000FB689A18254B111C1A1C0223081C111C1A1C04F0D9FCFA68FB6B101C191C04F007FDFB68181C04F010FD031C1A1CFB689A181B4B111C1A1C0223081C111C1A1CBF
:404D000004F0C2FCFA681023FB18101C191C04F0EFFCFB68181C04F0F8FC031C1A1CFB689A18104B111C1A1C0223081C111C1A1C04F0AAFCFB68181C04F0E7FC031CDBB2D2
:404D4000181CBD4611B090BD80A100004CA1000050A1000088A1000090A1000094A1000098A100009CA1000080B584B000AF78607B68702213401A09131C9B009B185B0037
:404D8000FB607B680F221340FA68D318FB60FB68181CBD4604B080BD80B584B000AF78607A68E023DB0113401A0B131C9B009B185B00FB607A68F0231B0113401B0AFA68B7
:404DC000D318FB60FB68181CBD4604B080BDC04680B584B000AF78607A68C0239B0313401A0D131C9B009B185B00FB607A68F0231B0313401B0CFA68D318FB60FB68181C10
:404E0000BD4604B080BDC046B0B59EB002AF62B66F23FB1800221A706F23FB181B78042B51D89A003D4BD3181B689F4600F07AF8031CBB66BB6E012B04D16F23FB18012212
:404E40001A7040E03FE000F0AFF8031CBB66BB6E012B04D16F23FB1802221A7033E032E000F0EEF8031CBB66BB6E012B04D16F23FB1803221A7026E06F23FB1801221A7004
:404E800021E000F00DF9031CBB66BB6E012B04D16F23FB1801221A7015E06F23FB1804221A7010E000F074F9031CBB66BB6E012B04D16F23FB1803221A7003E06F23FB1862
:404EC00000221A70C046FA235B00181CFFF75EFA01F072F8031C7B667B6E181CFFF778FF051C7B6E181CFFF757FF041C7B6E181CFFF73AFF011C3A1C094B0091101C191C72
:404F00002A1C231C04F0D2FB0120002101F0DAFD3B1C181C01F010FE7EE7C046C8A10000ACA1000090B585B000AFFFF745F90320FFF768F9FBF7BCFD1A4B181CFBF7BEFDAE
:404F4000FBF722FAFFF708FAFEF71AFDFEF76AFDFBF768FD031C0C1C3B607C603B687A68134315D03B687C68181C211C00F0FEFFFEF74CFD031CFB60FB68002B02D10123CC
:404F8000FB600AE00023FB600020FFF7A3FB04E00023FB600020FFF79DFBFB68181CBD4605B090BDDCA1000080B582B000AFFFF787FB031E0CD11F4B181CFBF77FFD0A208F
:404FC000FFF720F90020FFF785FB00237B602BE0FEF702FE031E032B0ED9174B181CFBF76DFD0020FFF776FBFA235B00181CFFF7CDF901237B6017E0FEF7EEFD031E0ED121
:405000000E4B181CFBF75AFDFA235B00181CFFF7BDF90120FFF75EFB00237B6004E00120FFF758FB01237B607B68181CBD4602B080BDC046ECA10000F8A100000CA20000A4
:4050400090B587B000AF0120FFF7F6F8FEF7AEFC031C7B617B69012B09D10F4B181CFBF72DFDFA235B00181CFFF790F90FE0FEF7B3FD041C3A1C094B101C191C221C04F0B6
:4050800015FB3B1C181CFBF719FDFEF79FFC7B69181CBD4607B090BD1CA200002CA20000B0B58CB002AF0020FFF714FB0320FFF7A9F8314B181CFBF701FDFA235B00181C95
:4050C000FFF764F91823FA181423FB18101C191CFEF786FCBB69FC697A6992B2181C211CFEF724FD254B1B885A1E131C5B009B181B01234A9B18181CFEF714FF031C7B627B
:405100007B6A002B28D101237B62FEF7F3FD031C181C3C2102F030FF031C1D1CFEF7EAFD031C181C3C2102F0ADFF0B1C1C1CFEF707FE011C3A1C134B0091101C191C2A1CCB
:40514000231C04F0B3FA3B1C181CFBF7B7FC0E4B181CFFF71BF90AE00C4B181CFBF7AEFCFA235B00181CFFF711F900237B627B6A181CBD460AB0B0BD40A20000A4240020BE
:40518000800800204CA20000DC05000064A2000080B582B000AFFEF7ADFE031C7B607B68002B0BD1094B181CFBF788FCFA235B00181CFFF7EBF801237B6001E000237B6077
:4051C0007B68181CBD4602B080BDC04674A2000080B500AFFEE7C04680B584B000AF78600F4B1A687B68D3181A1C0E4BD31A802B09DC0B4B1B68FB60094B1A687B68D2183E
:40520000074B1A6007E004F013FA031C0C221A6001235B42FB60FB68181CBD4604B080BDF8000020E028002080B586B000AF224B7B61224B3B61204B7B6135E03B691B681D
:40524000FB603B695B68BB603B699B683B6000237B600CE0FB681A68BB681A60BB680433BB60FB680433FB607B6804337B607A683B689A42EED13B69DB683B6000237B60A4
:4052800008E0BB6800221A60BB680433BB607B6804337B607A683B689A42F2D13B6910333B617B69013B7B617B69002BC6D104F0C5F9FFF7A9FDFEE701000000B0A400000C
:4052C00080B582B000AF154B144A126801218A431A6000237B600FE07B68032B04D8104B7A689200D35800E00E4B0F4A796889008B507B6801337B607B682F2BECD9FAF767
:4053000033FF0A4B00221A60044B044A126801210A431A60BD4602B080BDC0460000104000000000D151000000000020C000002080B582B000AF786039607A683B68101CA8
:4053400000211A1C04F0A9F9BD4602B080BDC04680B586B000AF7860396000233B6100237B612FE07B699B007A68D3181B68BB600F23FB18BA681A70BB68FF229343BB60E0
:4053800018E03B695B003A68D3181B781A1CBB68D318191C3B695B003A68D3185B780B703B6901333B610F23FB181A780F23FB18013A1A700F23FB181B78002BE1D17B6995
:4053C00001337B617B69072BCCD9BD4606B080BD80B500AF054B03221A60054B03221A60044B00221A60BD4680BDC0463000304030003140000E3F400230800803D0013865
:40540000FDD1C046C046C0467047EFF3108072B6704780F31088704790B58BB000AF78602723FC18FFF7F1FF031C2370184B1A680C23FB181A60174B1A680C23FB185A6044
:405440007B68033B144AD35C1A1C0C23FB189A60124B1A680C23FB18DA601C23FB18104A1A600C23FA181C23FB185A600D4B1C22BA181A600C4B0D4A1A600A4B1B68272312
:40548000FB181B78181CFFF7C4FFBD460BB090BD08010B4000010B40C0A3000030001040B6EA000008001040040010401700008080B584B000AF78600023FB60154B154ABB
:4054C000126801210A431A60134B144A1A60144B134A1268802109020A431A607B68002B12D01023FB600CE0012000F00FF900F019F8031E02D00023FB6005E07B68013B71
:405500007B607B68002BEFD1FB68181CBD4604B080BDC04660F02E4078002E400220000010002E4080B582B000AF054B1B68012213407B607B68181CBD4602B080BDC046A4
:405540000C002E4080B584B000AF021C3960FB1D1A7080239B05FB60FB1D1B781F2B02D9002000F0A5F8FB1D1B7810339B00FA68D3181B68BB60FB1D1B7810339B00FA68C6
:40558000D3183A681A60BB68181CBD4604B080BD90B587B000AF021CFB1D1A70BB1D0A1C1A70BB1D1B78032B02D9002000F080F8FB1D1B781F2B02D9002000F079F8FB1DC1
:4055C0001B7803221340DB0006337B611323FC18FFF71BFF031C2370FB1D1B789B08DBB29B00144A944663441B68FB607B6903229A40131CDA43FB681340FB60BB1D1A78C7
:405600007B699A40131CFA681343FB60FB1D1B789B08DBB29B00074A94466344FA681A601323FB181B78181CFFF7F3FEBD4607B090BDC04600E400E080B582B000AF021C4A
:40564000FB1D1A70054BFA1D12781F210A40012191400A1C1A60BD4602B080BD00E100E080B582B000AF021CFB1D1A70054BFA1D12781F210A40012191400A1C1A60BD46E0
:4056800002B080BD80E100E080B582B000AF021CFB1D1A70054BFA1D12781F210A40012191400A1C1A60BD4602B080BD80E200E080B582B000AF021CFB1D1A7001BEBD460A
:4056C00002B080BD80B582B000AF786009E00C4B1B68181CFFF790FE7B680A4A944663447B607A6880231B029A42F0D8064B1B687A685343181CFFF77FFEBD4602B080BD94
:40570000080100200080FFFF0001002080B582B000AF021CBB1D1A80BB1D1B88044A12785343181CFFF768FEBD4602B080BDC0460401002080B500AF0E4B0E4A1268012134
:405740008A431A600B4B0B4A126802218A431A60094B094A126830218A4310210A431A60054B054A126807218A4301210A431A60BD4680BD00F02E4000FF2E4080B500AF36
:405780000E4B0E4A126802218A431A600C4B0C4A126807218A4302210A431A60084B084A126830218A4320210A431A60034B034A126801210A431A60BD4680BD00F02E406D
:4057C00000FF2E4080B500AFFFF7B4FF044B044A1268802109060A431A60BD4680BDC04600F02E4080B584B000AF78600C4B1B6801221340FB607B68002B02D0012B03D003
:4058000005E0FFF797FF06E0FFF7B8FF03E00020FFF74EFFC046FB68181CBD4604B080BD00F02E4090B583B000AFFC1DFFF7EDFD031C2370074B074A1268C02109020A4307
:405840001A60FB1D1B78181CFFF7E3FDBD4603B090BDC04600010B4080B500AF054B1A68C0231B02134001D0012300E00023181CBD4680BD00010B4090B583B000AFFC1DA3
:40588000FFF7C3FD031C23700C4B0C4A12680C490A408021C9010A431A60084B074A126807490A40802109020A431A60FB1D1B78181CFFF7AEFDBD4603B090BD00010B408E
:4058C000FF3FFFFF90B585B000AF78600B23FC18FFF79BFD031C2370FFF7BEFF031E04D00123FB60FFF7C8FF01E00023FB607B680D4A13407B600D4B0C4A12680C49114070
:405900007A680A431A60094B1B68FB68012B01D1FFF788FF0B23FB181B78181CFFF779FDBD4605B090BDC0460404040010020B40FBFBFBFF80B584B000AF78603960002385
:40594000FB607B68022B0AD8094B7A689200D358FB60074B7A6892003968D15002E00020FFF7A6FEFB68181CBD4604B080BDC046EC05002080B500AF334B1B680422134068
:405980001FD0324B1B680422134017D0304B1B6804221340DA432D4B1B681A402B4B1A602B4B1B68042293431A1C294B1A60294B1B68002B02D0274B1B6898470420FFF7C4
:4059C00081FF214B1A688023DB00134022D01F4B1A688023DB00134017D01D4B1A688023DB001340DA43194B1B681A40174B1A60174B1B68184A1A40154B1A60154B5B683F
:405A0000002B02D0134B5B6898478023DB00181CFFF758FF0C4B1A688023DB02134011D00A4B1A688023DB02134006D0094B9B68002B02D0074B9B6898478023DB02181C21
:405A4000FFF740FFBD4680BD10020B4010010020E8050020EC050020FFFBFFFF80B582B000AF786039607B683A681A403B689A4201D1012300E00023181CBD4602B080BD09
:405A800080B584B000AF78607B680322134006D17B68181C642102F0F5FA0B1E07D17B68181CC823590002F0EDFA0B1E02D10123FB6001E00023FB60FB68181CBD4604B0EA
:405AC00080BDC04680B584B000AF78607B68702213401A09131C9B009B185B00FB607B680F221340FA68D318FB60FB68181CBD4604B080BD80B584B000AF78607A68E023E6
:405B0000DB0113401A0B131C9B009B185B00FB607A68F0231B0113401B0AFA68D318FB60FB68181CBD4604B080BDC04680B584B000AF78607A68C0239B0313401A0D131C20
:405B40009B009B185B00FB607A68F0231B0313401B0CFA68D318FB60FB68181CBD4604B080BDC04680B582B000AF78607A688023DB03101C191CFFF771FF031C181CBD46ED
:405B800002B080BD80B584B000AF78607A68C0239B0313401A0D131C9B009B185B00FB607A68F0231B0313401B0CFA68D318FB60FB68181CBD4604B080BDC04680B584B0C7
:405BC00000AF78607A6880235B0513401A0F131C9B009B185B00FB607A68F0231B0513401B0EFA68D318FB60FB68181CBD4604B080BDC04680B584B000AF78607A68C0230B
:405C00009B0113401B0BFA2292005343FB607A68F0231B0113401B0A64225343FA68D318FB607B68F02213401A09131C9B009B185B001A1CFB689B18FB607B680F22134012
:405C4000FA68D318FB60FB68181CBD4604B080BD80B582B000AF78607A6880231B04134001D0012300E00023181CBD4602B080BD80B586B000AFF860B9607A603B60FB688B
:405C8000DB057B61BB689B057A6913437B617B68181C0A2102F070F9031C1B057A6913437B617B68181C0A2102F0ECF90B1C1B047A6913437B613B68181C0A2102F05CF9A2
:405CC000031C1B037A6913437B613B68181C0A2102F0D8F90B1C1B027A6913437B613B6A181C0A2102F048F9031C1B017A6913437B613B6A181C0A2102F0C4F90B1C1A1C9D
:405D00007B6913437B617B69181CBD4606B080BD80B586B000AFF860B9607A607B687B61FB68181C0A2102F027F9031C1B073B61FB68181C0A2102F0A5F90B1C1B063A692D
:405D400013433B61BB68181C0A2102F015F9031C1B053A6913433B61BB68181C0A2102F091F90B1C1B043A6913433B617B68181CFA23990002F000F9031C1B033A69134314
:405D80003B617B69181CFA23990002F07BF90B1C7B617B69181C642102F0EEF8031C1B023A6913433B617B69181C642102F06AF90B1C7B617B69181C0A2102F0DDF8031CAC
:405DC0001B013A6913433B617B69181C0A2102F059F90B1C1A1C3B6913433B613B69181CBD4606B080BDC04690B587B000AFF860B9607A60BB68022B05D8BB680C33BB6084
:405E00007B68013B7B60BB6801331A225343181C0A2102F0B1F8031C1A1CFB68D2187B68D2187B689B08D4187B68181C642102F0A3F8031C1A1C131C5B009B185B00E41852
:405E40007B68181CC823590002F096F8031CE318181C072102F016F90B1C7B617B69002B01D107237B617B69181CBD4607B090BD80B500AF034B1B78002B01D100F004F819
:405E8000BD4680BDA827002080B584B002AF154B01221A70144B00221A60144B0022DA60134B00221A70134B00221A60FC23DB00082005211A1CFFF72BFF031C7B600E2309
:405EC0000093002000210F220E23FFF7D1FE031C3B603A687B68101C191C00F00DF8BD4602B080BDA827002010060020AC270020C0270020BC27002090B587B000AF7860FB
:405F000039603B68181CFFF73DFE031C7B613B68181CFFF753FE031C3B613B68181CFFF769FE031CFB603A687B68101C191C00F0ADF8031C0C1C0B4A136054600A4B3A6809
:405F40005A60094B7A681A6079693A69FB68081C111C1A1CFFF748FF021C034B9A60BD4607B090BDC8270020AC27002090B589B002AF38607960094A3B687C6813605460FB
:405F80000823F9183B687C6800220092081C1A1C231C00F043F9BD4607B090BDC827002090B500AF034B5C681B68181C211CBD4690BDC046C827002090B583B002AF0C4BB0
:405FC0001B68191C00231A1C0A4B5C681B685B185441094900220092081C1A1C231C00F01DF9054B1B68181CBD4601B090BDC04610060020C8270020AC27002090B583B089
:4060000002AF0C4B1B68191C00231A1C0A4B5C681B685B185441094900220092081C1A1C231C00F0FBF8054B5B68181CBD4601B090BDC04610060020C8270020AC2700209B
:4060400090B500AF0D4B1A680D4B1B68D2180B4B1A600A4B1A680B4B1B689A420CD30A4B5C681B68012100225B185441064A13605460024B00221A60BD4690BD1406002080
:40608000080600200C060020C8270020F0B591B000AF78623962002300243B637C637B6A181CFFF7A7FD031CFB62564BFB6319E0FB6B181CFFF7E4FC031E08D03B6B7C6B86
:4060C000514900225B1854413B637C6307E03B6B7C6B4E4900225B1854413B637C63FB6B0133FB63FA6BFB6A9A42E1D37B6A181CFFF764FD031CBB62BB6A5A1E444B520031
:40610000D35ABB63BB6A022B08D9FB6A181CFFF7B7FC031E02D0BB6B0133BB63BB6B3D4A5343BB610023FB613B6B7C6BB969FA695B1854413B637C637B6A181CFFF722FD91
:40614000021C344B5343344A944663443B6100237B613B6B7C6B39697A695B1854413B637C633B6A181CFFF7E1FC031CBB633B6A181CFFF76DFD031E0BD03B6A181CFFF7CE
:40618000F1FC031E05D0BB6B0B2B02D8BB6B0C33BB63BB6BE12212015343BB600023FB603B6B7C6BB968FA685B1854413B637C633B6A181CFFF79EFC021C131C1B019B1ABC
:4061C0009B003B6000237B603B6B7C6B39687A685B1854413B637C633B6A181CFFF772FC031C1D1C00231E1C3B6B7C6B5B1974413B637C633B6B7C6B181C211CBD4611B0EF
:40620000F0BDC046B20700000085E2018033E101F0A300008051010080AEFEFFF0B5A1B002AF7865BA64FB6400233B67A14BBB66A14B7B6619E07B6EBB600023FB60BB6C23
:40624000FC6CB968FA685B1A9441BB64FC64BB6E0133BB66BB6E181CFFF712FC031E02D0964B7B6601E0944B7B667B6E1D1C00231E1CFB6CB342DED8FB6CB34202D1BB6C4E
:40628000AB42D8D80123FB66FA6EBB6E101C191C00F01AF9021C8A4B53437B6618E07B6E3B6000237B60BB6CFC6C39687A685B1A9441BB64FC64FB6E0133FB66FA6EBB6E79
:4062C000101C191C00F000F9021C7D4B53437B667B6E3B6400237B64FB6C7A6C934207D3FB6C7A6C9342DAD1BB6C3A6C9342D6D2BB6CFC6C181C211C714A002301F0CEFEBF
:40630000031C0C1C3B663A6E6D4B53437B667B6EBB630023FB63FB6CFA6B93420CD3FB6CFA6B934203D1BB6CBA6B934204D37B6E3B6200237B6203E0002300243B627C62FE
:40634000BB6CFC6C396A7A6A5B1A9441BB64FC643B6E01333B66BB6CFC6C181C211CE1221201002301F09AFE031C0C1C7B677B6FE122120153437B669023FB181B68002BEA
:406380001DD0FB6C002B06D1FB6C002B0ED1BB6C4C4A93420AD901233B677B6F0C2B02D97B6F0C3B00E07B6F7B6708E000233B677B6F002B01D07B6F00E00C237B677B6EAB
:4063C0003B6300237B63FB6C7A6B93420CD3FB6C7A6B934203D1BB6C3A6B934204D37B6EBB610023FB6103E000230024BB61FC61BB6CFC6CB969FA695B1A9441BB64FC648D
:40640000BB6CFC6C181C211C3C22002301F046FE031C0C1CFB65FA6D131C1B019B1A9B007B667B6EBB620023FB62FB6CFA6A93420CD3FB6CFA6A934203D1BB6CBA6A934283
:4064400004D37B6E3B6100237B6103E0002300243B617C61BB6CFC6C39697A695B1A9441BB64FC64F96E3A6EBB6E081C111C1A1CFFF74EFC021C7B6D5A60BB6C9022BA18D7
:406480001068396F7A6FFC6D0093231CFFF7F0FB021C7B6D1A60396EFA6EBB6E081C111C1A1CFFF7A1FC021C7B6D9A60BD461FB0F0BDC046B20700008033E1010085E201AA
:4064C00080510100C1A8000080B584B000AF786039607B68013B0A4AD35CFB607B68022B08D13B68181CFFF7CBFA031E02D0FB680133FB60FB68181CBD4604B080BDC046EA
:4065000008A4000080B500AF00F052F8BD4680BD80B500AF064B064A1268802109060A431A6000F033F800F039F8BD4680BDC0460000244080B500AF064B1B78002B04D12D
:40654000FFF7E0FF034B01221A70FFF7E1FFBD4680BDC0461806002080B500AF0920FFF77FF800F01FF8074B064A1268520052081A60054B00221A600920FFF785F8BD46A3
:4065800080BDC04600002440880F244080B500AF0920FFF751F8BD4680BDC04680B500AFBD4680BD80B500AF00F06EF8BD4680BD80B500AF204B00221A60204B204A1A60CF
:4065C000204B214A1A60214B00221A60204B00221A60204B1C4A1A601F4B00221A600920FFF73EF809200221FEF7D2FF1B4B0920191CFEF7A7FF1A4B00221A60194B00229E
:406600001A60194B00221A60184B1422FF321A60174B00221A60174B00221A60164B10221A70164B00221A80154B00221A60154B00221A60BD4680BD000024406000244006
:4066400077080080000324400701008004032440100324400002244004022440D5790000C80E2440880E2440480F2440080F2440C80F2440880F2440D0270020E02700204E
:40668000F0270020D827002080B500AF024B10221A70BD4680BDC046D027002080B584B000AF786039600023FB600423BB60384B1B78DBB2102B66D1364B1B680122134062
:4066C00002D00823BB605EE00920FEF7C9FF7B685B00FF2213407B603B68002B03D12C4B24221A7006E02A4B25221A707B68012213437B60284B7A681A60284B284A1A6057
:40670000284B02221A60C046244B1A680823FF331340F9D0214B1B680422134002D00023BB601CE01D4B1B680222134002D00223BB6014E0194B1B680122134007D0144B69
:4067400010221A700123BB600123FB6007E0104B10221A7080235B00BB600123FB600F4B0822FF321A60FB68002B0CD00E4B0E4A1268520052081A600B4B0B4A1268802159
:4067800009060A431A60BB68181CBD4604B080BDD02700206400244040022440000F244017030000680024400000244080B582B000AF00237B6004233B600920FEF750FF33
:4067C000274B1B78DBB220221340DBB2002B3ED0244B254A126820210A4001D0182200E010221A60C046214B1A681223FF331340F9D01E4B1B681022134002D000233B60BA
:406800000EE01A4B1B680122134004D001233B6001237B6004E080235B003B6001237B60124B1222FF321A600D4B10221A707B68002B0CD00E4B0E4A1268520052081A6073
:406840000B4B0B4A1268802109060A431A600920FEF7F2FE3B68181CBD4602B080BDC046D02700206800244064002440000F24400000244080B584B000AF78600023FB60AF
:406880000423BB602A4B1B78DBB220221340DBB2002B48D0274B7A681A60C046264B1A680823FF331340F9D0234B1B680422134005D01F4B60221A700023BB601FE01E4B01
:4068C0001B680222134005D0194B60221A700223BB6014E0184B1B680122134007D0144B10221A700123BB600123FB6007E0104B10221A7080235B00BB600123FB600E4B2A
:406900000822FF321A60FB68002B0CD00B4B0B4A1268520052081A60084B084A1268802109060A431A60BB68181CBD4604B080BDD027002040022440000F24400000244058
:4069400080B584B000AF786001235B42FB601F4B1B78DBB220221340DBB2002B31D0C0461B4B1B680422134005D11A4B1A680223FF331340F4D0164B1B680422134010D063
:40698000154B1B68FB60124B04221A607B68002B03D1124B04221A6013E00C4B60221A700FE00C4B0E4A1A600E4B0E4A1268520052081A600B4B0B4A1268802109060A43DC
:4069C0001A60FB68181CBD4604B080BDD0270020C00F2440000F24404003244068002440170300000000244080B582B000AF0920FEF736FE074B1B889BB27B60054B0022ED
:406A00001A800920FEF718FE7B68181CBD4602B080BDC046E027002080B500AF2820FEF751FE032000F0B0F90520FEF74BFE032000F0AAF90F20FEF745FE032000F0A4F9F6
:406A40000120FEF73FFE022000F09EF90520FEF739FE062000F0C0F80E2000F0BDF82C2000F0BAF8082000F0B7F8012000F0B4F80C2000F0B1F8032000F0AEF80520FEF71E
:406A800021FEBD4680BDC04680B500AF0C2000F0A3F8024B01221A70BD4680BD2006002080B500AF064B1B78002B04D1FFF7B4FF034B01221A70FFF7E7FFBD4680BDC046C8
:406AC0002106002080B582B000AF021CFB1D1A70BB1D0A1C1A70FB1D1B78012B10D002DC002B05D024E0022B12D0032B18D01FE0BB1D1B78803BDBB2181C00F06DF817E001
:406B0000BB1D1B78403BDBB2181C00F065F80FE0BB1D1B786C3BDBB2181C00F05DF807E0BB1D1B782C3BDBB2181C00F055F8C046BD4602B080BDC04680B584B000AF7860B5
:406B40000F23FB1801221A700E23FB187A6812781A7015E00E23FB181B78181C00F018F80F23FB181B787A68D2180E23FB1812781A700F23FB181A780F23FB1801321A7014
:406B80000E23FB181B78002BE4D1BD4604B080BD80B584B000AF021CFB1D1A7000F040F80F23FB18FA1D127812091A700F23FB181B78181C00F0B4F80F23FB18FA1D127811
:406BC0000F210A401A700F23FB181B78181C00F0A7F8BD4604B080BD80B584B000AF021CFB1D1A7000F01CF80F23FB18FA1D127812091A700F23FB181B78181C00F0C4F8E3
:406C00000F23FB18FA1D12780F210A401A700F23FB181B78181C00F0B7F8BD4604B080BD80B582B000AFCA235B007B60374B374A12687F218A431A60354B1B681B0B1B03E7
:406C40003B60334B3A6833490A431A602F4B2F4A126820218A431A602C4B2C4A126840210A431A600020FEF751FD284B274A126810210A431A600120FEF748FD264B1B688A
:406C80003B60224B214A126810218A431A600020FEF73CFD3B68082213403B601B4B1B4A126810210A431A600120FEF72FFD174B164A126810218A431A603B68002B02D192
:406CC0000A20FEF723FD7B68013B7B603B68002B02D07B68002BC5D10C4B0C4A126840218A431A60094B094A12687F218A431A60074B1B681B0B1B033B60054B3A6807494A
:406D00000A431A60BD4602B080BDC04600010440080104404902000004010440B60D000080B582B000AF021CFB1D1A70154B154A126820210A431A60124B124A1268402100
:406D40008A431A600A20FEF7E1FC0E4B0D4A12680F218A431A600B4B0A4A1268F91D097810200143C9B20A431A600A20FEF7CEFC044B044A126810218A431A60BD4602B091
:406D800080BDC0460001044080B582B000AF021CFB1D1A70104B104A126860218A431A600D4B0D4A12680F218A431A600A4B0A4A1268F91D097810200143C9B20A431A606E
:406DC0000120FEF7A3FC044B034A126810218A431A60BD4602B080BD0001044080B582B000AF094B1B68DAB2FB1D04210A401A70054BFA1D12781A60FB1D1B789B08DBB249
:406E0000181CBD4602B080BD1000044080B500AF0B4B802252021A600A4B0C221A60022000F08EF8084B181C00F052F8002000F05DF8054B181C00F03DF8BD4680BDC04684
:406E400000012040240120408813000090B583B000AFFC1DFEF7D9FA031C2370084B084A126801210A431A60FB1D1B78181CFEF7D0FA0120182100F047F8BD4603B090BDA5
:406E80000000204090B583B000AFFC1DFEF7BDFA031C2370064B064A126801218A431A60FB1D1B78181CFEF7B4FABD4603B090BD0000204080B582B000AF7860034B7A684D
:406EC0001204120C1A60BD4602B080BD0801204080B582B000AF7860034B7A681204120C1A60BD4602B080BD1401204080B582B000AF7860034B7A681204120C1A60BD4687
:406F000002B080BD0C01204090B585B000AF786039600F23FC18FEF778FA031C2370074B3A68796891400A1C1A600F23FB181B78181CFEF76EFABD4605B090BD08002040E0
:406F400080B582B000AF7860024B7A681A60BD4602B080BD3801204080B582B000AF7860024B7A681A60BD4602B080BD3001204080B582B000AF786000F04CF87B68181C9C
:406F800000F008F8032000F013F800F039F8BD4602B080BD80B582B000AF7860034B84217A685A50BD4602B080BDC0460000002090B585B000AF021CFB1D1A700E23FB60B6
:406FC0000B23FC18FEF721FA031C23700A4B0A4A12680A491140FA1D1078FA689040021C0A431A600B23FB181B78181CFEF711FABD4605B090BDC04610E400E0FF3FFFFFED
:4070000080B500AF024B802292021A60BD4680BD00E100E080B500AF024B802292021A60BD4680BD80E100E080B584B000AF021CFB1D1A700D4B1B68DAB20F23FB187F21E8
:407040000A401A70FB1D1B78DB01D9B20F23FB180F22BA1812780A431A70044B0F22BA1812781A60BD4604B080BDC0460001044080B500AF044B1B6880221340DB09DBB2D0
:40708000181CBD4680BDC0460401044080B500AF00F0F8F8BD4680BD80B500AF064B064A1268802109060A431A6000F019F800F01FF8BD4680BDC0460000254080B500AFFC
:4070C000064B1B78002B04D1FFF7E0FF034B01221A70FFF7E1FFBD4680BDC0462406002080B500AF0A20FEF7A7FABD4680BDC04680B500AF00F04CF9BD4680BD80B582B0CC
:4071000000AF00237B600E4B1A680E4B1B689A4211D00C4B1B6801333B603B68652B01D100233B60084A3B68D3181B78DBB27B60044B3A681A607B68181CBD4602B080BD73
:40714000D0280020F82700206828002080B582B000AF0C4B1B683B600B4B1B683A689A4205D3094B1B683A68D31A7B6005E0064B1B683A68D31A65337B607B68181CBD4638
:4071800002B080BDD0280020F827002080B500AF0A20FEF765FA0E4B1A680E4B1A600E4B00221A700D4B0D4A1268802149020A431A600A4B094A126809490A401A60094B0C
:4071C000094A1A600A20FEF737FABD4680BDC046F8270020D0280020FC27002004032540FFFFFEFFC00F2540ED0F000080B584B000AF78601C4B1A681C4B1B689A4209D182
:407200001B4B1B681F221340102B03D0194B7A681A6026E0144B1B680133FB60FB68642B01D10023FB60C046104B1B68FA689A42FAD0114B02221A607B68D9B20F4AFB683A
