:400000000040002011000000BD770000BD77000080B500AF07F0FEFB80B500AF3D4B12221A6007F0B5FE3C4B181C0AF0C1FB012007F0BEFE302007F0D5FC384B384A1A6073
:40004000384B8022D2051A60374B374A126802210A431A60354B364A1A60364B00221A60354B354A126808218A431A60FA23DB00181C07F003FD314B181C07F02DFE304BB3
:40008000304A1A60304B314A1A60314B2D4A1A602D4B304A1A60304BD02252021A602A4B2E4A1A602E4BE82252011A60264B2D4A1A602D4B802212061A602C4B8022D20216
:4000C0001A602B4B43221A602A4B42221A602A4B41221A60294B40221A60294B0820191C07F016FD082007F08DFD264B20221A600C4B254A1A60254B08221A60C046234BC3
:400100001B6808221340FAD1204B01221A60BD4680BDC04630001040001BB70004010B40060000800C020B4078002E407C002E402D3E000064F02E406CF02E40DC0500007D
:400140000C030140007FBB000000014043FF00800803014042FF00800403014041FF00800003014040FF008008010B4000010B402C0101401C0101400801014004010140DE
:40018000417F000008020B400500004010020B4080B582B000AF72B64C4B00221A604C4B01221A70FB1D00221A7023E0FB1D1A78131C5B009B185B00464A9B183B603B6849
:4001C0001A78597809020A43997809040A43DB781B061343191C3B681A795B791B0213439BB2081C191C07F099FBFB1D1A78FB1D01321A70FB1D1B78012BD7D9364A374B24
:40020000101C191C07F09AFB354B802252001A80344B01221A70344B344A1A60344B354A1A60354B992212041A60344B992212041A60334B992212041A60324B99221204FC
:400240001A60314B8022D2051A60304B02221A602F4B02221A602F4A2E4B1B78DBB202210B43DBB213702C4A2B4B1B78DBB23C218B43DBB214210B43DBB21370254A254B9B
:400280001B78DBB216210B43DBB21370234B06221A60234B234A1A60234B02221A60234B234A1A60234B10221A60234B234A1A60234B83221A60234B234A1A60FFF7ACFED2
:4002C00007F07CFBBD4602B080BDC0466CF02E401C700F4008D3010014D301003CD3010000600F4002600F4000000240990000EE00030240EE00003000500F4010500F4045
:4003000020500F4030500F4038500F402000104000800F4000700F4001700F400000044008000440B100D8001800044008010440B66D7B000002044008020440B6A3C1008C
:4003400000030440080304402400C00010B5064C2378002B07D1054B002B02D0044800E000BF0123237010BD780500200000000030CF010008B5084B002B03D00748084947
:4003800000E000BF07480368002B00D108BD064B002BFBD09847F9E70000000030CF01007C050020C80000200000000080B500AF0C4B1B8801339AB20A4B1A80094B1A8851
:4003C000FA239B009A420AD1064B07221A8008F01DF9012007F0CCF9002007F0C9F9BD4680BDC046A005002080B582B000AF064B7B6008F023F87B680020191C07F080FDAA
:40040000BD4602B080BDC046AD03000098B500AF08F0ACF8031C0C1C181C211CBD4698BD80B500AF024B1B88181CBD4680BDC046A005002080B584B000AF08F061FB682065
:40044000002108F011FC031CBB60BB68002B10D1002008F0EFFC08F08FFC08F0A5FD6820012108F001FC031CBB60BB68002B23D101E0BB68D5E00023FB601AE0FB68052BEE
:400480000ADC002008F03CFD031CD9B23A1CFB68D3180A1C1A7009E0012008F031FD031CD9B23A1CFB68D3180A1C1A70FB680133FB60FB68062BE1DD08F05EFC08F032FB1E
:4004C0003B1C1B780F221340DAB23B1C1B78191C70230B401B11DBB2191C8900CB18DB18DBB2D318DAB2514B1A703B1C5B780F221340DAB23B1C5B78191C70230B401B11EB
:40050000DBB2191C8900CB18DB18DBB2D318DAB2464B5A703B1C9B781A1C402313409B11DAB2424BDA70414BDB78012B1ED13B1C9B780F221340DAB23B1C9B78191C102390
:400540000B401B11DBB2191C8900CB18DB18DBB2D318DAB2354B9A703B1C9B781A1C202313405B11DAB2314B1A7114E03B1C9B780F221340DAB23B1C9B78191C30230B4075
:400580001B11DBB2191C8900CB18DB18DBB2D318DAB2264B9A703B1CDB7807221340DAB2224B5A713B1C1B790F221340DAB23B1C1B79191C30230B401B11DBB2191C890055
:4005C000CB18DB18DBB2D318DAB2184B9A713B1C5B790F221340DAB23B1C5B79191C10230B401B11DBB2191C8900CB18DB18DBB2D318DAB20D4BDA713B1C9B799BB20F22BD
:4006000013409AB23B1C9B791B09DBB29BB2191C8900CB18DB189BB2D3189AB2034B1A810023181CBD4604B080BDC0468019002090B585B000AF7A4B1B78181C0A210AF0CD
:4006400023FD031CDBB21B01DCB2754B1B78181C0A210AF09FFD0B1CDBB2E318DAB23B1C1A706F4B5B78181C0A210AF00DFD031CDBB21B01DCB26A4B5B78181C0A210AF079
:4006800089FD0B1CDBB2E318DAB23B1C5A70644BDB78012B2ED1624B9B78181C0A210AF0F3FC031CDBB21B01DCB25D4B9B78181C0A210AF06FFD0B1CDBB2E318DAB23B1CBB
:4006C0009A703B1C9B78DAB2554B1B795B01DBB21343DBB2DAB23B1C9A703B1C9B78DAB24F4BDB789B01DBB21343DBB2DAB23B1C9A7021E04A4B9B78181C0A210AF0C4FC6F
:40070000031CDBB21B01DCB2454B9B78181C0A210AF040FD0B1CDBB2E318DAB23B1C9A703B1C9B78DAB23E4BDB789B01DBB21343DBB2DAB23B1C9A70394B5A793B1CDA70CB
:40074000374B9B79181C0A210AF09EFC031CDBB21B01DCB2324B9B79181C0A210AF01AFD0B1CDBB2E318DAB23B1C1A712C4BDB79181C0A210AF088FC031CDBB21B01DCB27E
:40078000274BDB79181C0A210AF004FD0B1CDBB2E318DAB23B1C5A71214B1B89181C0A210AF072FC031C9BB2DBB21B01DCB21C4B1B89181C0A210AF0EDFC0B1C9BB2DBB2F4
:4007C000E318DAB23B1C9A7108F09AF908F0ECFB6820002108F048FA031CBB60002008F029FBBB68002B15D10023FB600FE03A1CFB68D3181B78181C08F01CFB031CBB60F8
:40080000BB68002B00D005E0FB680133FB60FB68062BECDD08F0B0FABD4605B090BDC0468019002080B586B000AFF860B9607A603B60FB68DB057B61BB689B057A691343E5
:400840007B617B68181C0A210AF01EFC031C1B057A6913437B617B68181C0A210AF09AFC0B1C1B047A6913437B613B68181C0A210AF00AFC031C1B037A6913437B613B68CE
:40088000181C0A210AF086FC0B1C1B027A6913437B613B6A181C0A210AF0F6FB031C1B017A6913437B613B6A181C0A210AF072FC0B1C1A1C7B6913437B617B69181CBD46CB
:4008C00006B080BD80B586B000AFF860B9607A607B68FA22D200944663447B607B687B61FB68181C0A210AF0CFFB031C1B073B61FB68181C0A210AF04DFC0B1C1B063A6961
:4009000013433B61BB68181C0A210AF0BDFB031C1B053A6913433B61BB68181C0A210AF039FC0B1C1B043A6913433B617B68181CFA2399000AF0A8FB031C1B033A69134391
:400940003B617B69181CFA2399000AF023FC0B1C7B617B69181C64210AF096FB031C1B023A6913433B617B69181C64210AF012FC0B1C7B617B69181C0A210AF085FB031C74
:400980001B013A6913433B617B69181C0A210AF001FC0B1C1A1C3B6913433B613B69181CBD4606B080BDC046F0B597B000AF7862396200230024BB64FC647A6AC0239B014C
:4009C00013401B0BFA22920053437B647A6AF0231B0113401B0A642253437A6CD3187B647B6AF02213401A09131C9B009B185B001A1C7B6C9B187B647B6A0F2213407A6CC1
:400A0000D3187B648C4B7B652BE07B6D0322134006D17B6D181C64210AF0BCFB0B1E07D17B6D181CC82359000AF0B4FB0B1E01D1012300E00023002B08D0BB6CFC6C7F491B
:400A400000225B185441BB64FC6407E0BB6CFC6C7B4900225B185441BB64FC647B6D01337B657A6D7B6C9A42CFD37A6A80235B0513401A0F131C9B009B185B003B647A6AE4
:400A8000F0231B0513401B0E3A6CD3183B643B6C5A1E6C4B5200D35A3B653B6C022B1AD97B6C0322134006D17B6C181C64210AF071FB0B1E07D17B6C181CC82359000AF005
:400AC00069FB0B1E01D1012300E00023002B02D03B6D01333B653B6D5B4A5343BB610023FB61BB6CFC6CB969FA695B185441BB64FC647A6AC0239B0313401A0D131C9B0035
:400B00009B185B00FB637A6AF0231B0313401B0CFA6BD318FB63FB6B4B4A53434B4A944663443B6100237B61BB6CFC6C39697A695B185441BB64FC643A6AC0239B031340B7
:400B40001A0D131C9B009B185B003B653A6AF0231B0313401B0C3A6DD3183B653A6A80231B0413405A425341DBB2BB633A6A8023DB03134001D0012300E000237B63BB6B4D
:400B8000012B08D07B6B002B05D13B6D0B2B02D83B6D0C333B653B6DE12212015343BB600023FB60BB6CFC6CB968FA685B185441BB64FC643A6AE023DB0113401A0B131C5B
:400BC0009B009B185B003B633A6AF0231B0113401B0A3A6BD3183B633A6B131C1B019B1A9B003B6000237B60BB6CFC6C39687A685B185441BB64FC643B6A702213401A0916
:400C0000131C9B009B185B00FB623B6A0F221340FA6AD318FB62FB6A1D1C00231E1CBB6CFC6C5B197441BB64FC64BB6CFC6C181C211CBD4617B0F0BDB20700000085E201E0
:400C40008033E101CC0000208051010080AEFEFF90B589B002AFFFF7EDFB031CFB60FB68002B2DD11C4BDB79191C1B4B9B791A1C194B1B89081C111C1A1CFFF723FE031C7E
:400C8000BB60154BDB78181C134B1B79191C124B9B781A1C104B5B781C1C0F4B1B780093231CFFF7BFFD031C7B60BA687B68101C191CFFF779FE031C0C1C3B617C6103E01E
:400CC000002300243B617C613B697C69181C211CBD4607B090BDC04680190020F0B5A7B000AFB864F96400237B6600239022BA181360CB4B8822BA181360CA4B8422BA18A0
:400D0000136044E08423FB181B68BB600023FB60BB6CFC6CB968FA685B1A9441BB64FC648823FB181B6801338822BA1813608823FB181A680323134008D18823FB181B6834
:400D4000181C64210AF026FA0B1E09D18823FB181B68181CC82359000AF01CFA0B1E04D101238022BA18136003E000238022BA1813608023FB181B68002B04D0AA4B84220B
:400D8000BA18136003E0A74B8422BA1813608423FB181B681D1C00231E1CFB6CB342B1D8FB6CB34202D1BB6CAB42ABD801238C22BA1813608C23FB181B685A1E9B4B9B5CFF
:400DC000FB678C23FB181B68022B23D18823FB181A680323134008D18823FB181B68181C64210AF0D7F90B1E09D18823FB181B68181CC82359000AF0CDF90B1E02D1012339
:400E0000BB6701E00023BB67BB6F002B02D0FB6F0133FB678C23FB181B685A1E834B9B5CFB678C23FB181B68022B23D18823FB181A680323134008D18823FB181B68181CF2
:400E400064210AF0A7F90B1E09D18823FB181B68181CC82359000AF09DF90B1E02D101237B6701E000237B677B6F002B02D0FB6F0133FB67FA6F6E4B53438422BA18136095
:400E80004AE08423FB181B683B6000237B60BB6CFC6C39687A685B1A9441BB64FC648C23FB181B6801338C22BA1813608C23FB181B685A1E5D4B9B5CFB678C23FB181B68E8
:400EC000022B23D18823FB181A680323134008D18823FB181B68181C64210AF05BF90B1E09D18823FB181B68181CC82359000AF051F90B1E02D101233B6701E000233B678F
:400F00003B6F002B02D0FB6F0133FB67FA6F484B53438422BA1813608423FB181B683B6400237B64FB6C7A6C934207D3FB6C7A6C9342A6D1BB6C3A6C9342A2D2BB6CFC6C75
:400F4000181C211C3A4A00230AF020FA031C0C1C3B663A6E364B53438422BA1813608423FB181B68BB630023FB63FB6CFA6B93420ED3FB6CFA6B934203D1BB6CBA6B9342BF
:400F800006D38423FB181B683B6200237B6203E0002300243B627C62BB6CFC6C396A7A6A5B1A9441BB64FC643B6E01333B66BB6CFC6C181C211CE122120100230AF0E6F96A
:400FC000031C0C1C9422BA1813609423FB181B68E122120153438422BA1813607B6E002B3BD0FB6C002B06D1FB6C002B24D1BB6C104A934220D900239022BA18136094239C
:40100000FB181B680C2B04D99423FB181B680C3B02E09423FB181B689422BA1813601CE0B20700008033E1010085E201E400002080510100C1A8000001239022BA1813603C
:401040009423FB181B68002B03D09423FB181B6800E00C239422BA1813608423FB181B683B6300237B63FB6C7A6B93420ED3FB6C7A6B934203D1BB6C3A6B934206D38423DA
:40108000FB181B68BB610023FB6103E000230024BB61FC61BB6CFC6CB969FA695B1A9441BB64FC64BB6CFC6C181C211C3C2200230AF06CF9031C0C1CFB65FA6D131C1B0146
:4010C0009B1A9B008422BA1813608423FB181B68BB620023FB62FB6CFA6A93420ED3FB6CFA6A934203D1BB6CBA6A934206D38423FB181B683B6100237B6103E000230024EB
:401100003B617C61BB6CFC6C39697A695B1A9441BB64FC648823FB181B68BB658C23FB181B68181C0A2109F0AFFF031C1B077B658C23FB181B68181C0A210AF02BF80B1CA4
:401140001B067A6D13437B653B6E181C0A2109F09BFF031C1B057A6D13437B653B6E181C0A210AF017F80B1C1B047A6D13437B658823FB181B68181CFA23990009F084FF1F
:40118000031C1B037A6D13437B65BB6D181CFA23990009F0FFFF0B1CBB65BB6D181C642109F072FF031C1B027A6D13437B65BB6D181C642109F0EEFF0B1CBB65BB6D181C77
:4011C0000A2109F061FF031C1B017A6D13437B65BB6D181C0A2109F0DDFF0B1C1A1C7B6D13437B658823FB181B68BB668C23FB181B68022B09D88C23FB181B680C338C2255
:40120000BA181360BB6E013BBB668C23FB181B6801331A225343181C0A2109F035FF031C1A1C3B6ED218BB6ED218BB6E9B08D418BB6E181C642109F027FF031C1A1C131CD4
:401240005B009B185B00E418BB6E181CC823590009F01AFF031CE318181C072109F09AFF0B1CFB66FB6E002B01D10723FB66BB6CFC6CDAB2194B1A70FB6DDAB2174B5A70AC
:401280009423FB181B68DAB2144B9A709023FB181B68DAB2114B1A717B6EDAB20F4BDA70FB6EDAB20D4B5A718C23FB181B68DAB20A4BDA718823FB181B689BB2084A9446D4
:4012C00063449AB2054B1A813B6EDAB2034B9A71FFF7AEF9BD4627B0F0BDC0468019002030F8FFFF80B582B000AF786039607B683A681A403B689A4201D1012300E000239B
:40130000181CBD4602B080BD80B584B000AF78607B68702213401A09131C9B009B185B00FB607B680F221340FA68D318FB60FB68181CBD4604B080BD80B584B000AF7860EF
:401340007A68E023DB0113401A0B131C9B009B185B00FB607A68F0231B0113401B0AFA68D318FB60FB68181CBD4604B080BDC04680B584B000AF78607A68C0239B03134099
:401380001A0D131C9B009B185B00FB607A68F0231B0313401B0CFA68D318FB60FB68181CBD4604B080BDC04680B582B000AF78607A688023DB03101C191CFFF793FF031CB4
:4013C000181CBD4602B080BD80B500AF07F04EFEBD4680BD80B582B000AF78600020002107F056FE7B68181C07F08CFE034B181C07F088FEBD4602B080BDC04680CF010007
:4014000080B582B000AF021CFB1D1A7001200F2107F03EFEFB1D1B78002B03D1002007F09DFE02E0012007F099FEBD4602B080BD80B582B000AF021CFB1D1A7001200E214D
:4014400007F026FEFB1D1B78002B03D1022007F085FE02E0032007F081FEBD4602B080BDB0B584B002AF07F08DF8031C7B607B68181CFFF799FF031E18D17B68181CFFF722
:4014800077FF051C7B68181CFFF756FF041C7B68181CFFF739FF011C174A184B0091101C191C2A1C231C0BF087FA19E07B68181CFFF75EFF031C0C331C1C7B68181CFFF7F4
:4014C0003BFF051C7B68181CFFF71EFF011C0A4A0A4B0091101C191C221C2B1C0BF06CFA0120002107F0D4FD034B181C07F00AFEBD4602B0B0BDC046A80500208CCF0100ED
:40150000B0B584B002AF78600A1CBB1C1A807B68181C3C2109F0B8FD031C1D1C7B68181C3C2109F037FE0B1C1C1CBB1C1B880A490A4A0093081C111C2A1C231C0BF03CFABC
:401540000020002107F0A4FD034B181C07F0DAFDBD4602B0B0BDC046A8050020A4CF010080B582B000AF786009490A4A7B68081C111C1A1C04230BF01FFA01200A2107F05D
:4015800087FD034B181C07F0BDFDBD4602B080BDA8050020BCCF010080B582B000AF78607B68002B07D10120002107F071FD0C4B181C07F0A7FD7B68002B0DD07B680F2B80
:4015C0000AD87B68DBB2013BDBB20120191C07F05FFD042007F0C2FDBD4602B080BDC046C4CF010080B584B000AF78607B6801331A780E23FB181A800E23FB181B881B0246
:401600009AB27B681B789BB213439AB20E23FB181A800E23FB181B88181CBD4604B080BD80B584B000AF78607B6803331B78FB60FB681B027A68023212781343FB60FB68E1
:401640001B027A68013212781343FB60FB681B027A6812781343FB60FB68181CBD4604B080BDC04680B582B000AF78600A1CBB1C1A807B685A1C7A60BA1C1288D2B21A7099
:40168000BB1CBA1C1288120A1A807B685A1C7A60BA1C1288D2B21A70BD4602B080BDC04680B582B000AF786039607B685A1C7A603A68D2B21A703B681B0A3B607B685A1C5E
:4016C0007A603A68D2B21A703B681B0A3B607B685A1C7A603A68D2B21A703B681B0A3B607B685A1C7A603A68D2B21A70BD4602B080BDC04680B586B000AFF860B9607A6077
:40170000FB687B61BB683B617B68002B0DD07B695A1C7A613A69511C396112781A707B68013B7B607B68002BF1D1BD4606B080BD80B586B000AFF860B9607A60FB687B6169
:401740007B695A1C7A61BA68D2B21A707B68013B7B607B68002BF3D1BD4606B080BDC04680B588B000AFF860B9607A60FB68FB61BB68BB6100237B61FB695A1CFA611B7810
:40178000191CBB695A1CBA611B78CB1A7B617B68013B7B607B68002B02D07B69002BEBD07B69181CBD4608B080BDC04680B582B000AF7860396002E07B6801337B607B68F3
:4017C0001B78002B05D07B681B781A1E3B689A42F2D17B681B78181CBD4602B080BDC04680B586B000AF78600F23FB1800221A707B68DB78002B3BD07B68DB6A7B617B688E
:4018000059787B6830331A1C7B69081C111C1A1C012302F07FFE031E04D00F23FB1801221A7025E07B680022DA707B681B6A7A69D21A7B689B699A421AD27B689B783B61AA
:4018400013E07B689B697A69D3187B617B6859787B6830331A1C7B69081C111C1A1C012302F058FE3B69013B3B613B69012BE8D80F23FB181B78181CBD4606B080BDC046C9
:4018800090B585B000AF786039600F23FB1800221A707B68DA6A3B689A4224D00F23FC187B68181CFFF79CFF031C23700F23FB181B78002B17D17B6859787B6830331A1C48
:4018C0003B68081C111C1A1C012302F0C5FD031E06D001235B423B600F23FB1801221A707B683A68DA620F23FB181B78181CBD4605B090BD90B585B000AF78600F23FC1888
:401900007B68181CFFF76CFF031C23700F23FB181B78002B61D17B681B78032B50D17B681B79012B4CD17B6830331A1C80239B00101C00211A1CFFF7FBFE7B682A4A944666
:4019400063442A4A181C111CFFF78CFE7B683033274A181C111CFFF7A3FE7B688522920094466344234A181C111CFFF799FE7B68862292009A187B681B69101C191CFFF737
:401980008FFE7B68872292009A187B68DB68101C191CFFF785FE7B68DB695A1C7B68DA627B6859787B6830331A1C7B68DB6A081C111C1A1C012302F0ADFD7B6800221A71DF
:4019C0007B685B78181C0021002202F011FE031E03D00F23FB1801221A700F23FB181B78181CBD4605B090BD2E02000055AA0000525261417272416180B582B000AF7860D9
:401A000039603B68023B3B607B685B699A1E3B689A4201D8002307E07B685B891A1C3B685A437B689B6AD318181CBD4602B080BD80B586B000AF786039607B681B683B610E
:401A40003B68012B04D93B695A693B689A4202D801237B618AE001235B427B613B691B78022B49D0032B62D0012B00D07CE03B68FB60FB685B08FA68D318FB603B691A6A2A
:401A8000FB685B0AD3183A69101C191CFFF7F8FE031E00D06AE0FB685A1CFA60DB05DB0D3A693021D3185B181B78BB603B691A6AFB685B0AD3183A69101C191CFFF7E0FE9A
:401AC000031E00D052E0FB68DB05DB0D3A693021D3185B181B781B021A1CBB681343BB603B680122134002D0BB681B0902E0BB681B051B0D7B6139E03B691A6A3B681B0A68
:401B0000D3183A69101C191CFFF7BAFE031E00D02CE03B685A00FF235B00134030333A69D318181CFFF75EFD031C7B611EE03B691A6A3B68DB09D3183A69101C191CFFF73B
:401B40009FFE031E00D011E03B689A00FE235B00134030333A69D318181CFFF761FD031C1B011B097B6101E001237B617B69181CBD4606B080BDC04690B589B000AFF860AC
:401B8000B9607A601F23FB1802221A70BB68012B00D8E7E0FB685A69BB689A4200D8E1E0FB681B78022B00D17EE0032B00D1A1E0012B00D0D6E0BB68BB61BB695B08BA6916
:401BC000D318BB61FB681A6ABB695B0AD3181F22BC18FA68101C191CFFF752FE031C23701F23FB181B78002B00D0BBE0BB695A1CBA61DB05DB0D3033FA68D3187B61BB6809
:401C0000012213400ED07B691B78DBB21A1C0F231340DAB27B68DBB21B01DBB21343DBB2DBB201E07B68DBB27A691370FB680122DA70FB681A6ABB695B0AD3181F22BC1885
:401C4000FA68101C191CFFF71BFE031C23701F23FB181B78002B00D084E0BB69DB05DB0D3033FA68D3187B61BB680122134003D07B681B09DBB211E07B691B78DBB21A1CF6
:401C80000F239A43131CDAB27B681B0ADBB2191C0F230B40DBB21343DBB2DBB27A691370FB680122DA705DE0FB681A6ABB681B0AD3181F22BC18FA68101C191CFFF7E0FDDE
:401CC000031C23701F23FB181B78002B00D049E0BB685A00FF235B0013403033FA68D2187B689BB2101C191CFFF7BCFCFB680122DA7037E0FB681A6ABB68DB09D3181F22EA
:401D0000BC18FA68101C191CFFF7BAFD031C23701F23FB181B78002B00D023E07B681B011C09BB689A00FE235B0013403033FA68D318181CFFF774FC031C1B0F1B072343FC
:401D40007B60BB689A00FE235B0013403033FA68D2187B68101C191CFFF7A2FCFB680122DA70C0461F23FB181B78181CBD4609B090BDC04690B589B000AFF860B9607A60FC
:401D80001F23FB1800221A70FB681B68BB61BB68012B04D9BB695A69BB689A4201D802235AE07B68002B15D01F23FC18B9697A6801235B42081C111C1A1CFFF7DDFE031C51
:401DC00023701F23FB181B78002B03D01F23FB181B7841E0FA68BB68101C191CFFF728FE031C7B617B69002B00D134E07B69012B01D1022330E07B69013301D101232BE040
:401E00001F23FC18BA69BB68101C191C0022FFF7B3FE031C23701F23FB181B78002B03D01F23FB181B7817E0BB691B6901330BD0BB691B695A1CBB691A61BB691B79012216
:401E40001343DAB2BB691A717B69BB60BB695A69BB689A42BED80023181CBD4609B090BD90B589B000AF786039607B681B683B613B68002B0DD13B69DB68BB61BB69002B58
:401E800004D03B695A69BB699A421DD80123BB611AE07A683B68101C191CFFF7C9FD031CFB60FB68012B01D8012383E0FB68013301D1FB687EE03B695A69FB689A4201D903
:401EC000FB6877E03B68BB61BB69FB61FB690133FB613B695A69FB699A4207D80223FB61FA69BB699A4201D9002363E07A68FB69101C191CFFF79CFD031CFB60FB68002B0D
:401F000013D1C0461723FC183969FA6901235B42081C111C1A1CFFF72FFE031C23701723FB181B78002B1ED10EE0FB68012B02D0FB68013301D1FB683CE0FA69BB699A42B3
:401F400001D1002336E0C1E73B68002B0BD01723FC1839693A68FB69081C111C1A1CFFF70BFE031C23701723FB181B78002B16D13B69FA69DA603B691A693B695B69023BD8
:401F80009A4204D23B691B695A1E3B691A613B691B7901221343DAB23B691A7109E01723FB181B78012B02D101235B4200E00123FB61FB69181CBD4609B090BD80B586B04F
:401FC00000AF786039607B681B683B613B68394A934203D83B681F22134001D0022365E07B683A681A617B689B687B617B69002B06D13B691B78022B02D93B695B6A7B614B
:402000007B69002B0CD13B685B093A691289934201D302234AE03B695A6A7B689A612CE03B695B895B02FB601AE07A687B69101C191CFFF7FDFC031C7B617B69013301D1F0
:40204000012333E07B69012B04D93B695A697B699A4201D8022329E03A68FB68D31A3B603A68FB689A42E0D23A697B69101C191CFFF7C2FC021C7B689A617B687A695A61D5
:402080007B689B69002B01D102230FE07B689A693B685B0AD2187B689A613B68DB05DB0D30333A69D2187B68DA610023181CBD4606B080BDFFFF1F0080B586B000AF78609D
:4020C00039607B681B68FB607B681B692033BB607B689B69002B03D0BB685C4A934201D90423AEE0BB68DB05DB0D00D09DE07B689B695A1C7B689A617B685B69002B0BD17E
:40210000BB685B09FA681289934200D28DE07B6800229A61042394E0BB685B0AFA685289013A134000D080E07A687B685B69101C191CFFF77DFC031C7B617B69012B01D8AC
:4021400002237EE07B69013301D1012379E0FB685A697B699A425CD83B68002B04D17B6800229A6104236CE07A687B685B69101C191CFFF775FE031C7B617B69002B01D116
:4021800007235EE07B69012B01D1022359E07B69013301D1012354E0FB68181CFFF720FB031E01D001234CE0FB6830331A1C80239B00101C00211A1CFFF7BAFA00233B6125
:4021C000FA687B69101C191CFFF716FC021CFB68DA6212E0FB680122DA70FB68181CFFF7FFFA031E01D001232BE03B6901333B61FB68DB6A5A1CFB68DA62FB685B891A1E5A
:402200003B699A42E6D8FB68DA6A3B69D21AFB68DA627B687A695A61FA687B69101C191CFFF7EAFB021C7B689A617B68BA681A61BB68DB05DB0D3033FA68D2187B68DA6153
:402240000023181CBD4606B080BDC046FFFF1F0090B587B000AF786039607B681B68FB601723FC187B68181C0021FFF7A7FE031C23701723FB181B78002B35D100233B61EE
:402280007B689B691722BC18FA68101C191CFFF7F7FA031C23701723FB181B78002B00D022E07B68DB691B78E52B04D07B68DB691B78002B08D13B6901333B613A693B68DB
:4022C0009A4200D110E001E000233B611723FC187B68181C0121FFF7EFFE031C23701723FB181B78002BCBD01723FB181B78042B03D11723FB1807221A701723FB181B781C
:40230000181CBD4607B090BD80B584B000AF786039603B681A33181CFFF764F9031CFB607B681B78032B09D13B681433181CFFF759F9031C1B04FA681343FB60FB68181C1C
:40234000BD4604B080BDC04680B584B000AFF860B9607A60BB681A331A1C7B689BB2101C191CFFF77FF9FB681B78032B09D1BB6814331A1C7B681B0C9BB2101C191CFFF70F
:4023800071F9BD4604B080BD90B587B000AF78607B681B683B611723FC187B68181C0021FFF70CFE031C23701723FB181B78002B03D01723FB181B784EE07B689B69172276
:4023C000BC183A69101C191CFFF75AFA031C23701723FB181B78002B00D03AE07B68DA690F23FB1812781A700F23FB181B78002B04D11723FB1804221A702AE07B68DB698F
:402400000B331B783F221340DAB27B689A717B68DB690B331B781A1C082313400BD17B68DA697B682033101C191C0B22FFF798F9031E00D10DE01723FC187B68181C00213F
:40244000FFF73AFE031C23701723FB181B78002BB3D01723FB181B78181CBD4607B090BD90B585B000AF78607B681B68BB600F23FC187B68181C0121FFF7EAFE031C237042
:402480000F23FB181B78002B22D17B689B690F22BC18BA68101C191CFFF7F2F9031C23700F23FB181B78002B12D17B68DB69181C00212022FFF73CF97B68DA697B682033F9
:4024C000101C191C0B22FFF715F9BB680122DA700F23FB181B78181CBD4605B090BDC04680B588B000AF786039603B681B68FB607B682033BB60BB68181C20210B22FFF789
:4025000017F900233B613B697B610823BB617B695A1C7A61FA68D2181F23FB1812781A701F23FB181B78202B00D869E01F23FB181B782F2B04D01F23FB181B785C2B10D161
:4025400002E07B6901337B61FA687B69D3181B782F2BF6D0FA687B69D3181B785C2BF0D04EE01F23FB181B782E2B03D03A69BB699A420ED3BB690B2B04D01F23FB181B78BA
:402580002E2B01D0062358E008233B610B23BB6135E01F23FB181B785BB2002B09DA1F23FB181B78803B1A1C1F23FB1825498A5C1A701F23FB181B78234A101C191CFFF7AF
:4025C000F5F8031E01D0062337E01F23FB181B78602B0BD91F23FB181B787A2B06D81F23FB181F22BA181278203A1A703B695A1C3A61BA68D3181F22BA1812781A7086E7CE
:40260000FA687B69D2183B681A603B69002B01D1062312E0BB681B78E52B02D1BB6805221A70BB680B331F22BA181278202A01D8042200E000221A700023181CBD4608B03F
:4026400080BDC046D4CF010054D0010090B587B000AF786039607B683B613B691B68FB6002E03B6801333B603B681B782F2BF8D03B681B785C2BF4D03B6900229A603B6821
:402680001B781F2B0DD87B682B22802199541723FC187B68181C0021FFF790FC031C237055E01723FC187A683B1C101C191CFFF717FF031C23701723FB181B78002B00D02A
:4026C00045E01723FC187B68181CFFF75DFE031C23700B23FB187A682B21525C1A701723FB181B78002B10D01723FB181B78042B0AD10B23FB181B780422134004D1172375
:40270000FB1805221A7022E021E00B23FB181B780422134000D01AE03B699B791A1C1023134004D11723FB1805221A700FE07B681B69DB05DB0D3033FA68D318FA68101C18
:40274000191CFFF7E1FD021C3B699A60A9E71723FB181B78181CBD4607B090BD80B586B000AF786001235B423B617B681B68002B31D07B681B687B6102E07B6901337B61F0
:402780007B691B78202B03D97B691B783A2BF4D17B691B783A2B1CD17B681B68FB60FB685A1CFA601B78303BBB60BB68092B0ED8FA687B699A420AD1BB68002B07D1BB6881
:4027C0003B617B6901337B617B687A691A603B6902E000233B613B69181CBD4606B080BD80B582B000AF786039607B680022DA707B6801225242DA627A683B68101C191C64
:40280000FFF73EF8031E01D0042335E07B681C4A94466344181CFEF7E5FE031C1A1E194B9A4201D0032327E07B6830229B5CE92B09D07B6830229B5CEB2B1CD17B68322254
:402840009B5C902B17D17B686633181CFEF7E8FE031C1B021B0A0C4A934201D100230BE07B688233181CFEF7DBFE021E074B9A4201D1002300E00223181CBD4602B080BDBF
:402880002E02000055AA0000464154004641543390B597B000AFF860B960FB1D1A70BB6800221A60FB68181CFFF758FF031CFB63FB6B002B01DA0B2346E2CB4BFA6B9200C3
:4028C000D358BB63BB6B002B01D10C233CE2BB68BA6B1A60FB1DFA1D127801218A431A70BB6B1B78002B1CD0BB6B5B783722BC18181C01F0B7FC031C23703723FB181B78AB
:40290000012213400DD1FB1D1B78002B07D03723FB181B780422134001D00A2314E2002312E2BB6B00221A70FB6BDAB2BB6B5A70BB6B5B783722BC18181C01F0A7FC031C51
:4029400023703723FB181B780122134001D00323FAE1FB1D1B78002B07D03723FB181B780422134001D00A23EEE100233B655723FC18BA6B3B6D101C191CFFF731FF031CC5
:4029800023705723FB181B78022B4BD100233B641CE03B6C1B01BF33FF333033BA6BD3183B633B6B04331B78002B06D03B6B0833181CFEF735FE011C00E000211423FB184F
:4029C0003A6C9200D1503B6C01333B643B6C032BDFD900233B643B6C002B02D03B6C013B3B641423FB183A6C9200D3583B653B6D002B08D0BA6B3B6D101C191CFFF7F0FE85
:402A0000031C1A1C00E003225723FB181A705723FB181B78012B05D93B6C01333B643B6C032BDED95723FB181B78042B01D101238AE15723FB181B78012B01D90D2383E18B
:402A4000BB6B3B33181CFEF7CDFD031C1A1C80239B009A4201D00D2376E1BB6B4633181CFEF7C0FD031CFB64FB6C002B06D1BB6B5433181CFEF7D4FD031CFB64BB6BFA6CEB
:402A80009A61BB6B40229A5CBB6B9A70BB6B9B78012B05D0BB6B9B78022B01D00D2353E1BB6B9B781A1CFB6C5343FB64BB6B3D229B5C9AB2BB6B5A81BB6B5B89002B07D0F8
:402AC000BB6B5B891A1CBB6B5B89013B134001D00D2339E1BB6B4133181CFEF783FD031C1A1CBB6B1A81BB6B1B890F2213409BB2002B01D00D2327E1BB6B4333181CFEF7F5
:402B000071FD031CBB64BB6C002B06D1BB6B5033181CFEF785FD031CBB64BB6B3E332E22BC18181CFEF75EFD031C23802E23FB181B88002B01D10D2306E12E23FB181A880C
:402B4000FB6CD318BA6B1289120992B29B18BB62BA6CBB6A9A4201D20D23F5E0BA6CBB6AD21ABB6B5B89101C191C08F08DFA031C7B627B6A002B01D10D23E5E05723FB1894
:402B800003221A707B6A194A934203D85723FB1802221A707B6A164A934203D85723FB1801221A707B6A9A1CBB6B5A61BB6B3A6DDA612E23FB181A883B6DD218BB6B1A6246
:402BC0003A6DBB6AD218BB6B9A625723FB181B78032B22D1BB6B5A33181CFEF703FD031E08D00D23B0E0C0460C060020F5FF0000F50F0000BB6B1B89002B01D00D23A3E07E
:402C0000BB6B5C33181CFEF70BFD021CBB6B5A62BB6B5B699B007B6420E0BB6B1B89002B01D10D2390E0BB6B1A6AFB6CD218BB6B5A625723FB181B78022B03D1BB6B5B69FB
:402C40005B000AE0BB6B5A69131C5B009B185A08BB6B5B6901210B40D3187B64BB6B9A697B6C3B498C4663445B0A9A4201D20D236AE0BB6B012252421A61BB6B1A69BB6BA4
:402C8000DA60BB6B80221A715723FB181B78032B4AD1BB6B6033181CFEF7A4FC031E012B42D13B6D0133BA6B101C191CFEF7E8FD031E39D1BB6B00221A71BB6B254A944693
:402CC0006344181CFEF78EFC031C1A1E224B9A422AD1BB6B3033181CFEF7A2FC021E1F4B9A4221D1BB6B8522920094466344181CFEF796FC021E1A4B9A4215D1BB6B862287
:402D0000920094466344181CFEF78AFC021CBB6B1A61BB6B8722920094466344181CFEF77FFC021CBB6BDA60BB6B5722BA1812781A700C4B1B8801339AB20A4B1A80094BCC
:402D40001A88BB6BDA800023181CBD4617B090BDFF0100002E02000055AA000052526141727241611006002080B584B000AF786039607B68BB607B68002B1AD0BB681B686D
:402D8000002B16D0BB681B681B78002B11D0BB681B68DA88BB689B889A420AD1BB681B685B78181C01F05EFA031C1A1C0123134007D03B6800221A600F23FB1809221A70E6
:402DC00007E0BB681A683B681A600F23FB1800221A700F23FB181B78181CBD4604B080BD90B589B000AFF860B960FB1D1A70BB683B611023FB18181CFFF7B0FC031CFB61A3
:402E0000FB69002B01DA0B232EE0194BFA699200D358BB61BB69002B02D0BB6900221A70FB68002B02D0FB6800221A70F968104BFA699200D150FB68002B03D0FB1D1B780E
:402E4000012B01D000230FE01723FC180823FA180C23FB18101C191C0022FFF719FD031C23701723FB181B78181CBD4609B090BD0C06002090B599B000AFF860B9603B609D
:402E8000FB1D1A70FB68002B01D10923CDE1FB1DFA1D12783F210A401A705F23FC180823F9181423FA18FB1D1B78081C111C1A1CFFF7EEFC031C23705F23FB181B78002B17
:402EC00000D0A7E17A691823FB181A60BB685F22BC181822BA18101C191CFFF7B7FB031C23705F23FB181B78002B0BD11823FB182B229B5CDBB25BB2002B03DA5F23FB1898
:402F000006221A70FB1D1B781C22134000D19DE05F23FB181B78002B17D05F23FB181B78042B08D15F23FC181823FB18181CFFF797FA031C23703B6801221A60FB1DFA1D2B
:402F4000127808210A431A7014E01823FB189B791A1C1123134004D05F23FB1807221A7008E0FB1D1B780422134003D05F23FB1808221A705F23FB181B78002B00D086E0E7
:402F8000FB1D1B780822134000D180E000233B651823FB18DB690E331A1C3B6D101C191CFEF77EFB1823FB18DB6916331A1C3B6D101C191CFEF774FB1823FB18DB690B3327
:402FC00020221A707A691823FB18DB69101C191CFFF79AF9031CFB647A691823FB18DB69101C191C0022FFF7AFF91823FB18DB691C33181C0021FEF753FB7B690122DA70C8
:40300000FB6C002B43D07B69DB6A3B655F23FC181823FA18FB6C101C191C0022FEF7AAFE031C23705F23FB181B78002B2FD17A695F23FC183B6D101C191CFEF721FC031C00
:4030400023707B69FA6C013ADA6020E05F23FB181B78002B1BD11823FB189B791A1C1023134004D05F23FB1804221A700FE0FB1D1B78022213400AD01823FB189B791A1C05
:403080000123134003D05F23FB1807221A705F23FB181B78002B13D1FB1D1B780822134005D0FB1DFA1D127840210A431A707B69DA6AFB681A621823FB18DA69FB685A62A2
:4030C0005F23FB181B78002B00D0A3E07A691823FB18DB69101C191CFFF716F9021CFB689A601823FB18DB691C33181CFEF798FA021CFB68DA607A69FB681A607B69DA8877
:40310000FB689A80FB68FA1D12781A74FB6800225A74FB680022DA61FB6800225A61FB6828331A1C80239B00101C00211A1CFEF7FFFAFB1D1B782022134000D16AE0FB68CC
:40314000DB68002B66D0FB68DA68FB685A617B695B895B02BB64FB689B68BB65FB68DB687B6519E0FA68BB6D101C191CFEF760FC031CBB65BB6D012B03D85F23FB1802223C
:403180001A70BB6D013303D15F23FB1801221A707A6DBB6CD31A7B655F23FB181B78002B03D17A6DBB6C9A42DCD8FB68BA6D9A615F23FB181B78002B2CD17B6DDB05DB0DEE
:4031C00028D07A69BB6D101C191CFEF715FC031C7B647B6C002B04D15F23FB1802221A7018E07B6D5A0A7B6CD218FB68DA617B695978FB6828331A1CFB68DB69081C111CE9
:403200001A1C012301F028F9031E03D05F23FB1801221A705F23FB181B78002B02D0FB6800221A605F23FB181B78181CBD4619B090BDC04690B58FB000AFF860B9607A60CF
:403240003B60BB687B623B6800221A603723FC18FA681423FB18101C191CFFF785FD031C23703723FB181B78002B09D13723FB18FA68527C1A703723FB181B78002B03D0A5
:403280003723FB181B7812E1FB681B7C1A1C0123134001D107230AE1FB68DA68FB685B69D31A3B627A683B6A9A4201D93B6A7B60F8E0FB685B69DB05DB0D00D0C2E0FB68DE
:4032C0005B695B0A7A695289013A1340FB61FB69002B23D1FB685B69002B03D1FB689B683B6308E0FA68FB689B69101C191CFEF79FFB031C3B633B6B012B04D8FB680222BD
:403300005A740223D3E03B6B013304D1FB6801225A740123CBE0FB683A6B9A617A69FB689B69101C191CFEF767FB031CBB61BB69002B04D1FB6802225A740223B7E0BA697D
:40334000FB69D318BB617B685B0ABB62BB6A002B3CD0FA69BB6AD3187A695289934205D97B695B891A1CFB69D31ABB627B695878796ABA69BB6A01F06FF8031E04D0FB6842
:4033800001225A74012392E0FB681B7CDBB25BB2002B17DAFB68DA69BB69D21ABB6A9A4210D2FB68DA69BB69D31A5B027A6AD118FB6828331A1C80239B00081C111C1A1CA3
:4033C000FEF798F9BB6A5B02FB6257E0FB68DA69BB699A4233D0FB681B7CDBB25BB2002B1ADA7B695978FB6828331A1CFB68DB69081C111C1A1C012301F08CF8031E04D070
:40340000FB6801225A74012351E0FB681B7C7F221340DAB2FB681A747B695978FB6828331A1CBB69081C111C1A1C012301F014F8031E04D0FB6801225A74012337E0FB681C
:40344000BA69DA61FB685B69DB05DB0D80229200D31AFB62FA6A7B689A4201D97B68FB62FB685B69DB05DB0D2833FA68D218796AFB6A081C111C1A1CFEF73CF97A6AFB6A6C
:40348000D3187B62FB685A69FB6AD218FB685A613B681A68FB6AD2183B681A607A68FB6AD31A7B607B68002B00D002E70023181CBD460FB090BDC04690B58DB000AFF86055
:4034C000B9607A603B60BB68FB613B6800221A602F23FC18FA681023FB18101C191CFFF743FC031C23702F23FB181B78002B09D12F23FB18FA68527C1A702F23FB181B7816
:40350000002B03D02F23FB181B7847E1FB681B7C1A1C0223134001D107233FE1FB685A697B68D218FB685B699A4203D2FB685B69DB437B6026E1FB685B69DB05DB0D00D0F8
:40354000DEE0FB685B695B0A3A695289013A1340BB61BB69002B38D1FB685B69002B0DD1FB689B68BB62BB6A002B10D1FB68181C0021FEF775FC031CBB6208E0FA68FB6896
:403580009B69101C191CFEF76BFC031CBB62BB6A002B00D1FAE0BB6A012B04D1FB6802225A740223FAE0BB6A013304D1FB6801225A740123F2E0FB68BA6A9A61FB689B6839
:4035C000002B02D1FB68BA6A9A60FB681B7CDBB25BB2002B1ADA3B695978FB6828331A1CFB68DB69081C111C1A1C012300F092FF031E04D0FB6801225A740123CEE0FB68DF
:403600001B7C7F221340DAB2FB681A743A69FB689B69101C191CFEF7EFF9031C7B617B69002B04D1FB6802225A740223B6E07A69BB69D3187B617B685B0A3B623B6A002BC8
:403640003DD0BA693B6AD3183A695289934205D93B695B891A1CBB69D31A3B623B695878F9697A693B6A00F055FF031E04D0FB6801225A74012391E0FB68DA697B69D21AF7
:403680003B6A9A4217D2FB682833191CFB68DA697B69D31A5B02FA69D21880239B00081C111C1A1CFEF726F8FB681B7C7F221340DAB2FB681A743B6A5B027B6244E0FB68E3
:4036C000DA697B699A4218D0FB685A69FB68DB689A4212D23B695978FB6828331A1C7B69081C111C1A1C012300F0B6FE031E04D0FB6801225A74012350E0FB687A69DA6199
:40370000FB685B69DB05DB0D80229200D31A7B627A6A7B689A4201D97B687B62FB685B69DB05DB0D2833FA68D118FA697B6A081C111C1A1CFDF7DEFFFB681B7C80225242FA
:403740001343DAB2FB681A74FA697B6AD318FB61FB685A697B6AD218FB685A61FB68D968FB685A690B1E934200D2131CFA68D3603B681A687B6AD2183B681A607A687B6A9E
:40378000D31A7B607B68002B00D0D4E6FB681B7C40221343DAB2FB681A740023181CBD460DB090BD90B587B000AF78601723FC187A680823FB18101C191CFFF7D5FA031C60
:4037C00023701723FB181B78002B74D17B681B7C1A1C402313406ED07B681B7CDBB25BB2002B17DABB6859787B6828331A1C7B68DB69081C111C1A1C012300F08BFE031E3E
:4038000001D001235AE07B681B7C7F221340DAB27B681A7400233B61BA687B681B6A17217C18101C191CFEF72BF8031C23701723FB181B78002B3ED17B685B6AFB60FB682E
:403840000B33FA680B32127820210A43D2B21A707B6819687B689B68FA68081C111C1A1CFEF772FDFB681C331A1C7B68DB68101C191CFDF715FFFB6816331A1C3B69101C85
:40388000191CFDF70DFFFB681233181C0021FDF7E9FEBB680122DA70BB681722BC18181CFEF728F8031C23707B681B7C40229343DAB27B681A741723FB181B78181CBD467A
:4038C00007B090BD90B585B000AF78600F23FC187B68181CFFF766FF031C23700F23FB181B78002B12D10F23FC187A680823FB18101C191CFFF738FA031C23700F23FB188D
:403900001B78002B02D17B6800221A600F23FB181B78181CBD4605B090BDC04680B588B000AFF860B9607A600023FB61FB68BB6129E079681423FA181023FB18081C111C31
:403940000122FFF777FC3B69012B00D020E01723FB181422BA1812781A701723FB181B780D2B00D10FE0BB695A1CBA611722BA1812781A70FB690133FB611723FB181B7832
:403980000A2B00D104E0BB685A1EFB699A42D0DCBB6900221A70FB69002B01D0FB6800E00023181CBD4608B080BDC04680B584B000AF78600A1CFB1C1A70FB1C1B780A2B38
:4039C00004D17B68181C0D21FFF7F0FF7B685B68FB60FB68002B25DBFB685A1CFA607A68D318FA1C12781A73FB683C2B12DD7B6818687B680C33191CFA680823FB18FFF703
:403A00005BFDFA68BB689A4201D1002301E001235B42FB607B68FA685A607B689B685A1C7B689A60BD4604B080BDC04690B585B000AF78607B685B68002B19DB7B6819687F
:403A40007B680C331A1C7B685B681C1C0C23FB18081C111C221CFFF72FFD031E08D17B685B681A1EFB689A4202D17B689B6801E001235B42181CBD4605B090BD80B582B00B
:403A800000AF786039607B683A681A607B6800225A607B685A687B689A60BD4602B080BD0EB480B5A7B000AF78602C23FA187B68101C191CFFF7E2FFA823FB18BB67A4239C
:403AC000FB181B685A1CA42179180A608322BA181B7813708323FB181B78002B00D126E28323FB181B78252B09D02C23FA188323FB181B78101C191CFFF758FF16E297239B
:403B0000FB1800221A7000238822BA181360A423FB181B685A1CA42179180A608322BA181B7813708323FB181B78302B0FD19723FB1801221A70A423FB181B685A1CA421FB
:403B400079180A608322BA181B78137013E08323FB181B782D2B0ED19723FB1802221A70A423FB181B685A1CA42179180A608322BA181B7813701AE08823FB181A68131C43
:403B80009B009B185B001A1C8323FB181B78D318303B8822BA181360A423FB181B685A1CA42179180A608322BA181B7813708323FB181B782F2B04D98323FB181B78392B42
:403BC000DAD98323FB181B786C2B04D08323FB181B784C2B12D19723FB189722BA18127804210A431A70A423FB181B685A1CA42179180A608322BA181B7813708323FB18FE
:403C00001B78002B00D192E18223FB188322BA1812781A708223FB181B78602B0BD98223FB181B787A2B06D88223FB188222BA181278203A1A708223FB181B78423B162B12
:403C400000D979E09A00C04BD3181B689F46BB6F1A1DBA671B68FB6700238C22BA18136006E08C23FB181B6801338C22BA181360FA6F8C23FB181B68D3181B78002BF0D133
:403C80009723FB181B780222134012D105E02C23FB18181C2021FFF789FE8C23FB181B685A1C8C2179180A608822BA1812689342EDD309E0FB6F5A1CFA671B782C22BA1846
:403CC000101C191CFFF772FEFB6F1B78002BF1D105E02C23FB18181C2021FFF767FE8C23FB181B685A1C8C2179180A608822BA1812689342EDD319E1BB6F1A1DBA671B680F
:403D0000DBB22C22BA18101C191CFFF74FFE0DE19623FB1802221A7018E09623FB1808221A7013E09623FB180A221A700EE09623FB1810221A7009E02C23FA188323FB1864
:403D40001B78101C191CFFF731FEEFE09723FB181B780422134004D0BB6F1A1DBA671B680DE08223FB181B78442B04D1BB6F1A1DBA671B6803E0BB6F1A1DBA671B6884229A
:403D8000BA1813608223FB181B78442B13D18423FB181B68002B0EDA8423FB181B685B428422BA1813609723FB189722BA18127808210A431A7000239022BA181360962356
:403DC000FB181B788422BA181268101C191C07F0E1F90B1C1A1C8223FB181A709623FB181B788422BA181068191C07F04DF9031C8422BA1813608223FB181B78092B0ED929
:403E00008323FB181B78782B01D1272300E007238222BA188221791809785B1813709023FB181B685A1C902179180A608222BA1812783032D1B20C22BA18D1548423FB181D
:403E40001B68002B04D09023FB181B681F2BB6D99723FB181B78082213400AD09023FB181B685A1C902179180A600C22BA182D21D1549023FB181B688C22BA181360972313
:403E8000FB181B780122134001D0302200E020228223FB181A7008E02C23FA188223FB181B78101C191CFFF781FD9723FB181B78022213400BD18C23FB181B685A1C8C21DB
:403EC00079180A608822BA1812689342E4D39023FB181B68013B9022BA1813600C23FA189023FB181B68D3181B782C22BA18101C191CFFF75BFD9023FB181B68002BE6D1C7
:403F000008E02C23FA188223FB181B78101C191CFFF74CFD8C23FB181B685A1C8C2179180A608822BA1812689342EAD3C7E52C23FB18181CFFF77AFD031C181CBD4627B086
:403F400080BC08BC03B0184764D0010080B582B000AF786039603B689BB27A68101C191C05F0BAFD052003F093FEBD4602B080BD90B583B000AF786039607C68631C7B6023
:403F800005F0D0FD031C23703B68013B3B603B68002BF2D1BD4603B090BDC04680B582B000AF0F4B7B600FE0FB1C181C0121FFF7DFFFFB1C1B78FF2B00D108E0642003F0FA
:403FC0008BFE7B68013B7B607B68002BECD17B685A1E9341DBB2181CBD4602B080BDC0468813000080B582B000AF012003F074FEFB1D181C0121FFF7BBFFBD4602B080BD44
:4040000080B582B000AF012003F066FEFB1D181C0121FFF7ADFFFFF7C1FF031E01D0012302E0FFF7DFFF0023181CBD4602B080BD80B584B000AF78603960FA239B00FB607B
:4040400011E00823FB18181C0121FFF791FF0823FB181B78FF2B00D008E0642003F03CFEFB68013BFB60FB68002BEAD10823FB181B78FE2B01D000230CE07A683B68101C03
:40408000191CFFF775FF0823FB18181C0221FFF76FFF0123181CBD4604B080BD80B584B000AF78600A1CFB1C1A70FFF777FF031E01D1002332E00C23FB18FA1C12781A7065
:4040C0000C23FB18181C0121FFF740FF642003F003FEFB1C1B78FD2B1FD07A6880239B00101C191CFFF732FF642003F0F5FD0C23FB18181C0221FFF73BFF0C23FB18181C6A
:404100000121FFF735FF0C23FB181B781A1C1F231340052B01D0002300E00123181CBD4604B080BD90B585B000AF021C3960FB1D1A70FB1D1B785BB2002B16DAFB1DFA1DBF
:4041400012787F210A401A700F23FC1837200021FFF7E8FF031C23700F23FB181B78012B03D90F23FB181B7877E0FB1D1B780C2B07D0FFF737FFFFF743FF031E01D1FF23B3
:404180006BE0FB1D1B7840221343DAB20823FB181A703B681B0EDAB20823FB185A703B681B0CDAB20823FB189A703B681B0ADAB20823FB18DA703B68DAB20823FB181A712B
:4041C0000F23FB1801221A70FB1D1B78002B03D10F23FB1895221A70FB1D1B78082B03D10F23FB1887221A700823FB180F22BA1812785A710823FB18181C0621FFF7A6FEAA
:40420000642003F069FDFB1D1B780C2B05D10E23FB18181C0121FFF7ABFE0F23FB1814221A700E23FB18181C0121FFF7A1FE0E23FB181B78DBB25BB2002B0BDA0F23FB18B6
:404240000F22BA181278013A1A700F23FB181B78002BE6D10E23FB181B78181CBD4605B090BDC04680B582B000AF021CFB1D1A70FB1D1B78002B01D0012301E0024B1B78BA
:40428000181CBD4602B080BDF000002080B586B000AF021CFB1D1A70FB1D1B78002B01D00323CEE0694B181C03F016FD1723FB180A221A700CE00823FB18181C0121FFF70C
:4042C00057FE1723FB181A781723FB18013A1A701723FB181B78002BEDD11623FB1800221A7000200021FFF71DFF031E012B00D08FE0D5235B000820191CFFF713FF031EFF
:40430000012B46D10823FB18181C0421FFF730FE0823FB189B78012B00D07AE00823FB18DB78AA2B00D074E0FA239B003B6110E08023DB05A920191CFFF7F4FE031E00D1AF
:404340000AE0FA239B00181C03F0C6FC3B69013B3B613B69002BEBD13B69002B59D03A200021FFF7DFFE031E53D10823FB18181C0421FFF7FDFD0823FB181B781A1C40232F
:40438000134001D00C2200E004221623FB181A703FE0A9200021FFF7C5FE031E012B08D81623FB1802221A701523FB18A9221A7007E01623FB1801221A701523FB180122F8
:4043C0001A70FA239B003B6111E01523FB181B78181C0021FFF7A6FE031E00D10AE0FA239B00181C03F078FC3B69013B3B613B69002BEAD13B69002B07D080239B001020D8
:40440000191CFFF78FFE031E03D01623FB1800221A700F4B1622BA1812781A701623FB181B785A425341DAB20F23FB181A70094B0F22BA1812781A70FFF7D4FD0F23FB187F
:404440001B78181CBD4606B080BDC0461027000014060020F000002080B586B000AFB9607A603B600F23FB18021C1A700F23FB181B78181CFFF7F6FE031C1A1C01231340A1
:4044800001D0032340E0224B1B781A1C0823134002D17B685B027B603B68012B01D9122200E011221723FB181A701723FB181A787B68101C191CFFF735FE031E1ED1BA68FE
:4044C00080239B00101C191CFFF7B2FD031E00D10BE0BB688022920094466344BB603B68013B3B603B68002BE9D11723FB181B78122B03D10C200021FFF714FEFFF772FDFB
:404500003B685A1E9341DBB2181CBD4606B080BD1406002080B584B000AFB9607A603B600F23FB18021C1A700F23FB181B78181CFFF798FE031C1A1C0123134001D00323AD
:4045400050E02A4B1B781A1C0823134002D17B685B027B603B68012B10D17B681820191CFFF7E0FD031E37D1BB68181CFE21FFF795FD031E30D000233B602DE01B4B1B7882
:404580001A1C0623134004D03B689720191CFFF7C9FD7B681920191CFFF7C4FD031E1BD1BB68181CFC21FFF779FD031E00D10BE0BB688022920094466344BB603B68013B86
:4045C0003B603B68002BEBD10020FD21FFF766FD031E01D101233B60FFF704FD3B685A1E9341DBB2181CBD4604B080BD1406002080B58AB000AF3A60FB1D021C1A70BB1D28
:404600000A1C1A70FB1D1B78181CFFF72BFE031C1A1C0123134001D0032394E02723FB1801221A70BB1D1B78012B0FD0032B00D178E0002B00D07DE0FFF7E2FC031E04D09D
:404640002723FB1800221A7078E077E009200021FFF768FD031E64D10C23FB18181C1021FFF7E6FC031E5CD00C23FB181B789B09DBB2012B18D10C23FB185B7A1A1C0C2324
:40468000FB181B7A1B02D3181A1C0C23FB18DB79191C3F230B401B04D31801333B623B6A9A023B681A6037E00C23FB185B790F221340DAB20C23FB189B7ADB09DBB2D31873
:4046C000DAB20C23FB185B7A03210B40DBB2DB18DBB2D318DAB21F23FB1802321A700C23FB181B7A9B09DBB21A1C0C23FB18DB799B00D2180C23FB189B79191C03230B40BC
:404700009B02D31801333B621F23FB181B78093B3A6A9A403B681A602723FB1800221A700CE00BE03B6880221A602723FB1800221A7003E02723FB1804221A70FFF752FC7D
:404740002723FB181B78181CBD460AB080BDC04698B500AF05F082FA094B01221A60FBF755FE031C0C1C074A13605460FBF758FE021C054B1A6005F07BFABD4698BDC046BB
:4047800024060020180600202006002080B500AF05F06EFA054B181C05F010FA05F05EFA034B00221A60BD4680BDC046514700002406002080B582B000AF054B1B687B6044
:4047C000034B00221A607B68181CBD4602B080BD2406002080B500AF05F04AFA05F034FABD4680BD90B583B000AF78603960064B5C681B687A6813605460044B1A683B684F
:404800001A60BD4603B090BD180600202006002080B500AF04F002FE064B1B78002B03D1054B181C04F0ACFE024B01221A70BD4680BDC0468A1900203D48000080B500AF2E
:4048400004F01EFF031CDB43DBB2181C04F0F4FE022004F089FEBD4680BDC04680B584B000AF021CBB1D1A80BB1D1B885B001A1CFA239800111C06F007FC031CFB60FB68F4
:40488000181C04F02DFE04F0E9FDBD4604B080BD80B582B000AF021CFB1D1A7004F0FAFDFB1D1B78181C04F0C7FEBD4602B080BD80B584B000AF78600A1CFB1C1A70FB1CBE
:4048C0001B78FB600C4B1B68002B01D100F03AF87A68FB685340BB607B681A0ABB68FF211940064B8900CB5853407B607B68181CBD4604B080BDC046280600202C0600201F
:4049000080B586B000AFF860B9607A607B683B6100237B610DE0FA687B69D3181B783A69101C191CFFF7C4FF031C3B617B6901337B617A69BB689A42EDD33B69181CBD46FA
:4049400006B080BD80B584B000AF0023FB601FE0FB687B600023BB600FE07B680122134005D07B685B080F4A53407B6002E07B685B087B60BB680133BB60BB68072BECDD76
:40498000094BFA6892007968D150FB680133FB60FB68FF2BDCDD054B01221A60BD4604B080BDC0462083B8ED2C06002028060020F0B599B004AFF8610A1C1B23FB181A70AB
:4049C0000023FB641B23FE181B23FB181B78181C00F020FA031C33701B23FB181B783C2B19D1C44B01221A70FB69181C00F054FAC14B00221A70C14B00221A70C04B002299
:404A00001A70C04B00221A70BF4B00221A70BF4B00221A70EFE1B74B1B780A2B00D9E6E19A00BB4BD3181B689F461B23FB181B78181C00F017FA031E1ED0FB691A881B2330
:404A4000FB181B789BB213439AB2FB691A80AA4B1B780133DAB2A84B1A70A74B1B78042B03D1A44B02221A70C5E1FB691B881B019AB2FB691A80BEE19E4B00221A7001234E
:404A8000FB64B8E11B23FB181B78212B03D1994B03221A70AFE1FB69181C00F0FDF90223FB64944B00221A70A5E11B23FB181B78181C00F0D7F9031E1BD0FB695A681B237C
:404AC000FB181B781A43FB695A608C4B1B780133DAB28A4B1A70894B1B78022B03D1854B04221A7087E1FB695B681A01FB695A6081E1FB69181C00F0CFF97E4B00221A7035
:404B00000323FB6477E11B23FB181B783A2B03D1784B05221A706EE1FB69181C00F0BCF90423FB64734B00221A7064E11B23FB181B78181C00F096F9031E2DD0FB699A682B
:404B4000DB681B2179180978C9B239610021796139691143B96079691943F960FB69B968FA689960DA60674B1B780133DAB2654B1A70644B1B78102B03D15E4B06221A70E9
:404B800039E1FB699A68DB68110F1D010D431401FB699C60DD602EE1FB69181C00F07CF90523FB64534B00221A7024E11B23FB181B78181C00F056F9031E1ED0FB691A8AA2
:404BC0001B23FB181B789BB213439AB2FB691A824D4B1B780133DAB24B4B1A704A4B1B78042B03D1434B07221A7004E1FB691B8A1B019AB2FB691A82FDE0FB69181C00F0B0
:404C00004BF90623FB643B4B00221A70F3E01B23FB181B78181C00F025F9031E1ED0FB695A8A1B23FB181B789BB213439AB2FB695A82364B1B780133DAB2344B1A70334BB8
:404C40001B78042B03D12B4B08221A70D3E0FB695B8A1B019AB2FB695A82CCE0FB69181C00F01AF90A23FB64224B00221A70C2E01B23FB181B78402B03D11E4B09221A7001
:404C8000B9E0FB69181C00F007F90723FB64194B00221A70AFE01B23FB181B78181C00F0E1F8031E1BD0FB695A691B23FB181B781A43FB695A61124B1B780133DAB2104B2C
:404CC0001A700F4B1B78082B03D10A4B0A221A7091E0FB695B691A01FB695A618BE0FB69181C00F0D9F80823FB64024B00221A7081E0C046901900208E1900208B19002056
:404D00008C1900208D1900208F19002091190020E0D001001B23FB181B783E2B5DD1FB695A68FB69DC689B6823003B6000237B603E68FB69DC689B681D1CFB691B8A1C1CD2
:404D4000FB695B8A181C082318217918C9182D4B009501940290081C191C331C07F02CFE01235B42BB64284ABB6C101C01211A1CFFF7C6FD031CBB64082318229446BC44B0
:404D80006344181C07F047FE011C08231822BA18D218BB6C101C1A1CFFF7B2FD031CBB641A4ABB6C101C01211A1CFFF7A9FD031CBB64BB6CDB43BB64FB695A69BB6C9A42BB
:404DC00005D1FB6901221A760023FB640BE0FB6900221A760A23FB6405E00923FB64FB69181C00F059F80A4B00221A7003E0FB69181C00F051F8FB6CDBB2181CBD4615B0C9
:404E0000F0BDC046C0D00100D8D00100DCD001009019002080B582B000AF021CFB1D1A70FB1D1B78402B09D9FB1D1B78462B05D8FB1DFA1D1278373A1A700CE0FB1D1B78FD
:404E40002F2B08D9FB1D1B78392B04D8FB1DFA1D1278303A1A70FB1D1B78181CBD4602B080BDC04680B584B000AF021CFB1D1A700F23FB1801221A70FB1D1B780F2B03D9FD
:404E80000F23FB1800221A700F23FB181B78181CBD4604B080BDC04690B583B000AF78607B6800221A807B6800225A607A68002300249360D4607B6800221A827B680022A8
:404EC0005A827B6800225A617B6800221A76BD4603B090BD80B590B000AFF860B960BB1D1A80BB68FB63BB1D1B882422B918474A081C111C1A1C07F05FFD01235B42BB631A
:404F0000434ABB6B101C01211A1CFFF7F9FC031CBB63FB6B181C07F07EFD011CFA6BBB6B101C1A1CFFF7ECFC031CBB63394ABB6B101C01211A1CFFF7E3FC031CBB63BB6B7C
:404F4000DB43BB631023F918334ABB6B081C111C1A1C07F031FDFA68304B111C1A1C0223081C111C1A1C07F016FDFA682423FB18101C191C07F042FDFB68181C07F04BFD43
:404F8000031C1A1CFB689A18254B111C1A1C0223081C111C1A1C07F0FEFCFA68FB6B101C191C07F02BFDFB68181C07F034FD031C1A1CFB689A181B4B111C1A1C0223081C94
:404FC000111C1A1C07F0E7FCFA681023FB18101C191C07F013FDFB68181C07F01CFD031C1A1CFB689A18104B111C1A1C0223081C111C1A1C07F0CFFCFB68181C07F00BFD91
:40500000031CDBB2181CBD4610B080BD0CD10100D8D00100DCD0010014D101001CD1010020D1010024D1010028D1010090B585B000AF78600A1CFB1C1A700B23FB18FA1C87
:4050400012781A700023FB60FC1CFB1C1B78181C00F086F9031C2370B94B1B78092B00D967E19A00B74BD3181B689F467B68181C00F0B8F9B44B00221A70B44B00221A709E
:40508000B34B00221A70B34B00221A70B24B00221A70B24B00221A70FB1C1B783C2B02D1A74B01221A7044E1FB1C1B78181C00F07FF9031E1DD07B681A88FB1C1B789BB2D2
:4050C00013439AB27B681A809F4B1B780133DAB29D4B1A709C4B1B78042B03D1984B02221A7026E17B681B881B019AB27B681A801FE1934B00221A700123FB6019E1FB1C48
:405100001B78212B03D18E4B03221A7011E17B68181C00F067F90223FB60894B00221A7007E1FB1C1B78181C00F042F9031E1AD07B685A68FB1C1B781A437B685A60844BC7
:405140001B780133DAB2824B1A70814B1B78082B03D17B4B04221A70EBE07B685B681A017B685A60E5E07B68181C00F03BF90323FB60734B00221A70DBE0FB1C1B78181CFC
:4051800000F016F9031E1DD07B681A89FB1C1B789BB213439AB27B681A816E4B1B780133DAB26C4B1A706B4B1B78032B03D1644B05221A70BDE07B681B891B019AB27B68DE
:4051C0001A81B6E07B68181C00F00CF90423FB605B4B00221A70ACE0FB1C1B78181C00F0E7F8031E1AD07B68DA68FB1C1B781A437B68DA60594B1B780133DAB2574B1A70EE
:40520000564B1B78082B03D14D4B06221A7090E07B68DB681A017B68DA608AE07B68181C00F0E0F80523FB60454B00221A7080E0FB1C1B78181C00F0BBF8031E1DD07B6841
:405240005A89FB1C1B789BB213439AB27B685A81414B1B780133DAB23F4B1A703E4B1B78032B03D1364B07221A7062E07B685B891B019AB27B685A815BE07B68181C00F03E
:40528000B1F80623FB602E4B00221A7051E0FB1C1B78402B03D12A4B08221A7049E07B68181C00F09FF80723FB60254B00221A703FE0FB1C1B78181C00F07AF8031E1AD087
:4052C0007B681A69FB1C1B781A437B681A611F4B1B780133DAB21D4B1A701C4B1B78082B03D1174B09221A7023E07B681B691A017B681A611DE07B68181C00F073F808239F
:40530000FB600F4B00221A7013E0FB1C1B783E2B05D17B6801221A750023FB6005E00923FB607B68181C00F05DF8054B00221A70C046FB68DBB2181CBD4605B090BDC04624
:405340002C0A00202CD1010094190020921900209619002093190020971900209519002080B582B000AF021CFB1D1A70FB1D1B78402B09D9FB1D1B78462B05D8FB1DFA1D12
:405380001278373A1A700CE0FB1D1B782F2B08D9FB1D1B78392B04D8FB1DFA1D1278303A1A70FB1D1B78181CBD4602B080BDC04680B584B000AF021CFB1D1A700F23FB180A
:4053C00001221A70FB1D1B780F2B03D90F23FB1800221A700F23FB181B78181CBD4604B080BDC04680B582B000AF78607B6800221A807B6800225A607B6800221A817B6879
:405400000022DA607B6800225A817B6800221A617B6800221A75BD4602B080BD80B500AF04F054F9064B01221A75064B00229A7404F0B4F9044BFF221A70BD4680BDC046A0
:40544000B8190020A01900209819002090B59FB004AF214B9B7C002B03D0204B1B7D012B36D100F0CBFD031CDAB21B4BDA701A4B5B781C1C184B9B78181C174BDB7834225B
:40548000B918174A00940190029300230393081C111C0022002307F08FFA0F4B1B789BB2391C3422BA18081C111C1A1CFFF712FD3B1C181C04F0AAFA074B01229A74074BF6
:4054C00000221A75074B00221A60322002F0E0FBBD461BB090BDC046A0190020B819002054D10100E4190020F0B5474680B48CB002AF644B1B7D002B00D0BCE0624B9B7CCB
:40550000012B00D0B7E000237B6290E03A1C2323FB181B78101C191CFFF74AFA031C7B62022002F0B5FB3B1C1B7E012B00D07EE03B1C1B88DAB2534B1A70534B1A78514B07
:405540001B789A4251D14F4B01221A754E4B00229A744E4B01221A604D4B00221A603B1C5B8A1B0A9BB2DAB2464B9A743B1CDC689B68444A9360D4603B1C1A8A414B1A82CC
:405580003B1C5B8ADAB23F4BDA743E4B9B7C012B21D13C4BDC689B683A4A128A181C211C00F0C6FC374B9C68DD68364B1B8A984601F086FA031CDEB200F020FD031CDBB2D4
:4055C000009304230193201C291C4246331C01F0C9FD01F089FA2C4B1B780133DAB22A4B1A70322002F054FB1FE0274B1B781A1C244B1B7801339A4217D13B1C5B8ADAB282
:40560000204B9A743B1CDC689B681E4A9360D4603B1C1A8A1B4B1A821C4B01221A601C4B00221A60322002F033FB012324E004F095F8031E0BD004F0C9F9021C2323FB187C
:405640001A702323FB181B78002B00D05EE7104B1B685A1C0E4B1A600D4B1B68312B08D9094B00229A74074B00221A75074B00221A60002300E00023181CBD460AB004BCE9
:405680009046F0BDB8190020A0190020E0190020E419002080B582B000AF78607B68DAB2024B5A70BD4602B080BDC046A019002080B500AF024B1B68181CBD4680BDC046F4
:4056C000E019002080B582B000AF0F4BDB7C012B03D10E4B9B78002B03D00D4B1B78FF2B05D1FF237B60084B0022DA7407E0074B00229A70044B0022DA74FE237B607B68B2
:40570000181CBD4602B080BDB8190020A01900209819002080B500AF054B00229A70054B0022DA74044BFE221A70BD4680BDC046A0190020B81900209819002080B500AFCA
:40574000054B01229A70054B0022DA74044BFF221A70BD4680BDC046A0190020B81900209819002090B591B002AF2A23FB1801221A802223FB1800221A8000237B62362350
:40578000FB1801221A800123FB62C4E0FAF73EFE031C0C1C1A1C1023FB181A60FAF740FE031C9AB20823FB181A801023FB1819680823FB181A882A23FB181B88081C111C1D
:4057C0001A1C00F0B3F800233B6300237B628EE01023FB18181D0823FB18991C1023FB1808331A1C0823FB181C1D2223FB180093231C00F0DDF8031C3B633B6B012B62D15C
:405800002223FB181B882A22BA1812889A425AD1FAF7FCFD031C0C1C1A1C1023FB18DA60FAF7FEFD031C9AB20823FB18DA800823FB18DB882D3B9AB20823FB18DA801023B8
:40584000F8180823F9183A1D3B1C00F05DF9FA239B00181C02F01CFA2A23FB1800221A807B68191C3B689AB22A23FB181B88081C111C1A1C00F0ECF8021C3623FB181A804F
:405880003623FB181B88012B14D10023FB6209E0FB6A181CFBF780FE642002F0F9F9FB6A0133FB62FB6A0C2BF2DD3623FB1800221A8003E03623FB1801221A800E23FB62CB
:4058C00001233B6313E07B6A01337B6200233B630A2002F0DDF93623FB183622BA1812881A802A23FB182A22BA1812881A803B6B002B03D17B6AC72B00D869E7642002F0B4
:40590000C7F92A23FB181A882A23FB1801321A80FB6A0133FB62FB6A0D2B00DC36E73623FB181B88181CBD460FB090BD80B59CB000AF7860081C111CBB1C021C1A803B1C5B
:405940000A1C1A80BB1CBA1C128820321A80BB1C1B88144A934209D9BB1CBA1C128812498C4662441A807B6801337B60BB1C1B880822B8180D497A6807F01EF83C23F918D6
:405980000823FA183B1C1B88081C111C1A1CFFF7A1FA3C23FB18181C04F038F8BD461CB080BDC046E703000018FCFFFF70D1010080B58CB000AFF860B9607A603B60012354
:4059C000FB622FE01023FA182B23FB181B78101C191CFFF72BFB031CFB62012002F058F91023FB181B7D012B1AD11023FB181A88BB6B1A801023FB185A68FB681A601023F0
:405A0000FB181A89BB681A801023FB18DA687B681A601023FB185A893B681A80012313E00023FB6203F09AFE031E0AD003F0CEFF021C2B23FB181A702B23FB181B78002BA3
:405A4000C0D10023FB62FB6A181CBD460CB080BD90B589B002AF7860081C111CBB1C021C1A803B1C0A1C1A80224B00221A6000237B6133E07968BB1C1A883B1C1B88081CEF
:405A8000111C1A1CFFF752FFFA235B00181C02F0FFF8194819491A4A1A4C0E23FB180093231CFFF785FF031C3B613B69012B09D10E23FB181B883A1C12889A4202D101237B
:405AC0007B610BE000237B610A4B1B685A1C094B1A60FA235B00181C02F0DAF87B69002B03D1044B1B68092BC4D97B69181CBD4607B090BDE4190020D4190020EA19002062
:405B0000D8190020EC19002080B58AB000AFF860B9607A603B60FB680C331A68FB681B68D31A3B62BB6806331B881A1CBB681B88D31A7B627B6A002B08DA7B6AFA2292004D
:405B4000944663447B623B6A013B3B62FB6808331A68FB6804331B68D31ABB61BB6804331B881A1CBB6802331B88D31AFB61FB69002B08DAFB69FA22920094466344FB612C
:405B8000BB69013BBB613A6ABB69D31A3B617A6AFB69D31A7B617B69002B00DA01335B107B613B690E4A134004D5013B0222524213430133012B03D17B69F533FF337B61E3
:405BC0003B69002B00DA01335B103B617B683A691A603B687A691A60BD460AB080BDC0460100008090B587B000AF78607B68952B04D87B68181C02F04BF848E000237B614B
:405C000004F0B4F8031C3B613B69181C04F0D6F804F072F826E000F041F800F047F800F0A3F800F0C9F800F0D3F8962002F030F804F0D4F8031CFB603A69FB68D31A181C8B
:405C400006F0ECFA031C0C1C181C211C114A124B05F010FC031C0C1C181C211C05F0B6FB031C7B617A687B69D31A962B03D97A697B689A42CFD904F051F87A687B699A4205
:405C800005D97A687B69D31A181C02F001F8BD4607B090BDFCA9F1D24D62404080B500AFFFF7D4FBFFF720FCBD4680BD90B5A3B008AF00F079FA031E03D12A4B1B88012BB0
:405CC0004CD1284B1B88002B16D13023FB18181C00F0B2FA3023FC186B46191C231C10332022081C191C06F056FE20686168A268E36800F0D5FA0EE03023FC183B1C181C30
:405D000000F0E8FA3B1C211C1A1C3023081C111C1A1C06F040FE3023FB18181C00F000FC031C7B667B6E002B05D000F0E1FB0D4B01221A8002E00B4B00221A8000F0CAFEBD
:405D4000031CDCB200F05AF9031CDBB23022BA18101C211C1A1C042301F030F9BD461BB090BDC046300A002080B500AF04F054F8031E06D10020FBF743FB002001F0EEFAA3
:405D800005E00120FBF73CFB012001F0E7FAFFF78FFC031E012B06D10020FBF749FB002001F000FB05E00120FBF742FB012001F0F9FABD4680BDC04680B500AFFBF750FB19
:405DC00000F01CF9031C181CFBF7CAFBBD4680BDB0B584B000AF01F0C5F801F0CDF8031CFB600E4B1A68FB689A4214D0FB683B6000237B6038687968FAF770FFFB681C1CB8
:405E000000231D1C201C291C02F096FB034BFA681A60FFF793FCBD4604B0B0BD340A002080B582B000AF00F063FB031C7B607B68002B02D101237B6001E000237B607B68D1
:405E4000181CBD4602B080BD80B582B000AF114B0C22DA8000237B600DE07B6801331A010D4BD2180C497B681B01CB1808335A607B6801337B607B68062BEED9064B064A09
:405E8000DA67064B044A1A60054B034A1A60BD4602B080BD8821002080250020042600200026002090B585B000AFB860F960BB1D1A800C4B1B68BA1D12881A81094B1A6899
:405EC000BB68FC6813605460064B1B68DA68054B1A60054B1B685A1C034B1A60BD4605B090BDC046002600208021002090B583B000AF786039600C4B1B681A893B681A809F
:405F0000094B1B685C681B687A6813605460064B1B68DA68044B1A60044B1B685A1E034B1A60BD4603B090BD042600208021002090B585B000AFB860F960BB1D1A80BB680C
:405F4000FC68BA1D1288181C211CFFF7ABFFBD4605B090BD90B585B000AFB860F960BB1D1A80244B1B88282B02D1224B00221A80204B1B881A1C131C5B009B181B011E4AC4
:405F800099181C4B1B881A1C131C5B009B181B0108331A1C184BD318081C191CFFF7A6FF144B1B88191C144A0B1C5B005B181B01D3181833BA1D12881A800E4B1B88191CCC
:405FC0000D4A0B1C5B005B181B01D31810331A1CBB68FC6813605460064B1B88181C00F017F8044B1B8801339AB2024B1A80BD4605B090BD84210020001A002080B500AFBF
:40600000024B1B68181CBD4680BDC0468021002090B583B000AF78603E497A68131C5B009B181B01CB18103319685A68394C7868031C5B001B181B01E3185C681B68C91AD8
:40604000A241344C7868031C5B001B181B01E318203319605A602F497A68131C5B009B181B01CB18183319882A487A68131C5B009B181B01C31808331B88CB1A98B225490E
:406080007A68131C5B009B181B01CB182833021C1A8020497A68131C5B009B181B01CB1828331A88FA239B009A422DD919497A68131C5B009B181B01CB1820335C681B6877
:4060C00001214942CA17C9186241124C7868031C5B001B181B01E318203319605A600D497A68131C5B009B181B01CB1828331B885B4298B207497A68131C5B009B181B0122
:40610000CB182833021C1A800123181CBD4603B090BDC046001A002090B583B000AF0F4B1B88002B07D10E4AEE23DB00D3185C681B687B600CE0094B1B885A1E0849131C7B
:406140005B009B181B01CB1820335C681B687B607B68181CBD4603B090BDC04684210020001A002080B582B000AF0D4B1B88002B05D10C4AEF23DB00D35A7B600BE0084BE3
:406180001B885A1E0749131C5B009B181B01CB1828331B887B607B68181CBD4602B080BD84210020001A002080B500AF024B1B88181CBD4680BDC0468821002084B098B5BF
:4061C00000AF10243C1920606160A260E360194B1A88184BDB889A4226D2164B1B8801339AB2144B1A80134B9B885A1C91B2114A9180181C0F4A0821031C5B001B181B019F
:40620000D3185B181022BA18191C3023081C111C1A1C06F0C0FB074B9A88064BDB889A4202D1044B00229A80BD4698BC08BC04B01847C0468821002090B583B000AF7860DE
:40624000164B1B88002B26D0144B5B885A1C91B2124A5180181C7C68104A0821031C5B001B181B01D3185B18211C1A1C3023081C111C1A1C06F08FFB084B5A88074BDB8858
:406280009A4202D1054B00225A80044B1B88013B9AB2024B1A80BD4603B090BD8821002084B098B500AF10243C1920606160A260E360074A92239B0010217918D3183022D7
:4062C000181C06F068FBBD4698BC08BC04B018478821002080B582B000AF78607968064A92239B00D3183022081C191C06F053FB7868BD4602B080BD88210020B0B588B099
:4063000008AF1E4B1B88002B18D11D4DEA23DC0010222B199B186A46111C1A1C2023081C111C1A1C06F037FB28592B1959682B199A682B19DB68FFF741FF1DE00F4B1B8882
:40634000013B0F4D1C1C6400E41823011C1C10222B199B186A46111C1A1C2023081C111C1A1C06F018FB60592B1959682B199A682B19DB68FFF722FFBD46B0BD84210020AB
:40638000001A002080B584B000AF78607B68702213401A09131C9B009B185B00FB607B680F221340FA68D318FB60FB68181CBD4604B080BD80B584B000AF78607A68E02326
:4063C000DB0113401A0B131C9B009B185B00FB607A68F0231B0113401B0AFA68D318FB60FB68181CBD4604B080BDC04680B584B000AF78607A68C0239B0313401A0D131C58
:406400009B009B185B00FB607A68F0231B0313401B0CFA68D318FB60FB68181CBD4604B080BDC04680B584B000AF78607A68C0239B0313401A0D131C9B009B185B00FB6092
:406440007A68F0231B0313401B0CFA68D318FB60FB68181CBD4604B080BDC04680B584B000AF78607A6880235B0513401A0F131C9B009B185B00FB607A68F0231B0513406A
:406480001B0EFA68D318FB60FB68181CBD4604B080BDC04680B584B000AF78607A68C0239B0113401B0BFA2292005343FB607A68F0231B0113401B0A64225343FA68D3181F
:4064C000FB607B68F02213401A09131C9B009B185B001A1CFB689B18FB607B680F221340FA68D318FB60FB68181CBD4604B080BD90B583B000AFFC1D074A084B101C191C78
:406500000122FCF76DFC031C2370FB1D1B78181CBD4603B090BDC046082600207CD10100B0B5B8B002AF786002F04EF8031CD022BA181360D023FB181B68181CFFF7AAFF66
:40654000031C904A94466344CC22BA181360D023FB181B68181CFFF781FF031CC822BA181360D023FB181B68181CFFF75BFF031CC422BA18136084488449C423FB181A6881
:40658000C823FB181C68CC23FB181B680093231C06F012FA7E4B00221A60D723FC187D49794A7B4B081C111C3222FCF763FC031C2370D723FB181B78002B00D0DAE07B685D
:4065C0005C681B687022B91800220092081C1A1C231C02F009F97023FB181B68181CFFF705FF051C7023FB181B68181CFFF7E2FE041C7023FB181B68181CFFF7C3FE7B68EE
:406600001B89191CA823FA18634B00900191101C191C2A1C231C06F0CFF97B685C691B697022B91800220092081C1A1C231C02F0DBF87023FB181B68181CFFF7D7FE051C46
:406640007023FB181B68181CFFF7B4FE041C7023FB181B68181CFFF795FE7B681B8B191C9423FA184C4B00900191101C191C2A1C231C06F0A1F97B685C6A1B6A1D1C7B680F
:406680001B8D1C1C8023FA18444B101C191C2A1C231C06F091F9424B1A680C23F8184149A823FC189423FB1800938023FB180193231C06F081F93A4B1B68012B03D0344BBD
:4066C0001B68012B35D101F05DFF031CC022BA181360C023FB181B68181CFFF787FE051CC023FB181B68181CFFF764FE041CC023FB181B68181CFFF745FE011C254A2A4BFD
:406700000091101C191C2A1C231CFDF7C9F9214A264B101C191CFDF7C3F91E4A244B101C191CFDF7BDF91B4A204B101C191CFDF7B7F90C23FB18181C06F06DF9051CD7239B
:40674000FC1814490C23FA18BC23FB18081C111C2A1CFCF7B1FE031C2370D723FC180D4B181CFDF7AFF8031C23700D4B1B685A1C0B4B1A60D723FB181B78181CBD4636B0C5
:40678000B0BDC04630F8FFFF380A002080D10100382800203C28002094D10100B0D10100F8000020C0D10100D0D10100F4D101002CD2010080B5A2B000AFBD4B00221A60B5
:4067C000BC49BD4ABA4B081C111C0122FCF752FB031C3B6755E100238022BA1813600123FB677B23FB1800221A70B44B1A681C23F9188023FB181B68CB181B780133D31851
:406800001B781A1C0423134000D13AE100237B6713E01423FB187A6F52000021D1520C23FB187A6F52000021D1523B1D7A6F52000021D1527B6F01337B677B6F032BE8DDF3
:406840008623FB1800221A8021E0FB6F9BB28622BA18128853439AB21C23F9188023FB181B68CB181B789BB2D3189AB28623FB18303A1A808023FB181B6801338022BA18CE
:406880001360FA6F131C9B009B185B00FB678B4B1A681C23F9188023FB181B68CB181B780133D3181B781A1C04231340CDD17A23FB1800221A70C2E00123FB677B23FB1836
:4068C00000221A7081E01C23FA188023FB181B68D3181B783A2B09D17B23FB181A787B23FB1801321A700123FB6767E07A23FB181B78012B22D0022B3FD0002B5CD17B2333
:40690000FB181A787B23FB1819781423FB184900CB5AF96F89B24B4399B21C23F8188023FB181B68C3181B789BB2CB189BB2303B99B21423FB185200D1523DE07B23FB1886
:406940001A787B23FB1819780C23FB184900CB5AF96F89B24B4399B21C23F8188023FB181B68C3181B789BB2CB189BB2303B99B20C23FB185200D1521EE07B23FB181B78F5
:406980009A1C7B23FB181B78991C3B1D4900CB5AF96F89B24B4399B21C23F8188023FB181B68C3181B789BB2CB189BB2303B99B23B1D5200D152C0460A23FB678023FB18A5
:4069C0001B6801338022BA1813603C4B1A681C23F9188023FB181B68CB181B780133D3181B781A1C0423134000D06CE71C23FA188023FB181B68D3181B783A2B00D162E7E5
:406A0000FB6F012B14D07A23FB181B78022B04D17A23FB1800221A7006E07A23FB181A787A23FB1801321A707B23FB1800221A708023FB181B6801338022BA1813601C23B6
:406A4000FA188023FB181B68D3181B780A2B09D01C23FA188023FB181B68D3181B780D2B00D029E78623FB1818881423F9180C23FA183B1D00F002FC00F074FA642001F021
:406A800007F91C23FA180B4B101C52211A1CFCF745FF031E00D09EE6064B181CFCF712FF031C3B673B6F181CBD4622B080BDC046382800203C280020380A002010050020D3
:406AC00080B500AF024B1B68181CBD4680BDC046F400002080B500AF024B1B68013B181CBD4680BDF800002080B500AF034B1B685A1C024B1A60BD4680BDC046F40000208C
:406B000080B584B000AF78607B68702213401A09131C9B009B185B00FB607B680F221340FA68D318FB60FB68181CBD4604B080BD80B584B000AF78607A68E023DB011340A9
:406B40001A0B131C9B009B185B00FB607A68F0231B0113401B0AFA68D318FB60FB68181CBD4604B080BDC04680B584B000AF78607A68C0239B0313401A0D131C9B009B18B1
:406B80005B00FB607A68F0231B0313401B0CFA68D318FB60FB68181CBD4604B080BDC04680B586B000AF786039607B68282B08D002D8012B05D0ACE0412B0BD04C2B0ED0BD
:406BC000A7E0554B00221A60002003F0C7F903F01BFD9EE003F07CFD00F0A6F899E03B683B613B699B89222B3CD13B691A1D4B4B101C00211A1C402311F0A6FD031E31D184
:406C0000474B00221A6003237B6113E03B695A687B69D2180F23FB1812781A70404B1B681A020F23FB181B781A433D4B1A607B69013B7B617B69002BE8DA394B1B68E1226C
:406C400052019A18364B1A60344B1A785B781B021A4300231204120C1B0C1B041343181C11F040F83B699B89252B1DD13B691A1D2A4B101C00211A1C402311F065FD031E96
:406C800012D13B695B681A78264B1A70234B1A785B781B021A4300231204120C1B0C1B041343181C11F01EF83B699B89102B0FD03B699B89142B0BD03B699B89182B07D0CC
:406CC0003B699B891C2B03D03B699B89202B1FD13B691A1D114B101C00211A1C402311F033FD3B695B681B781A1C01231A400A4B1A600A4B1A785B781B021A430023120477
:406D0000120C1B0C1B041343181C10F0EBFFFFE7C046BD4606B080BD642A0020C83600204C0A0020500A002080B584B000AF654B1B78022B00D0C1E03B1D0E221A813B1D69
:406D4000614A1A603B1D02229A803A1D5F4B101C00211A1C002311F0F7FC5D4B1B68002B0ED05A4B391D1A785B781B021A4300231204120C1B0C1B041343181C10F054FF35
:406D8000322000F085FF3B1D12221A813B1D514A1A603B1D08229A803A1D4C4B101C00211A1C002311F0D0FC494B1B68002B0ED0464B391D1A785B781B021A43002312045D
:406DC000120C1B0C1B041343181C10F02DFF322000F05EFF3B1D16221A813B1D3E4A1A603B1D08229A803A1D384B101C00211A1C002311F0A9FC364B1B68002B0ED0334B08
:406E0000391D1A785B781B021A4300231204120C1B0C1B041343181C10F006FF322000F037FF06F0E4F93B1D1A221A813B1D2B4A1A603B1D08229A803A1D244B101C002181
:406E40001A1C002311F080FC214B1B68002B0ED01E4B391D1A785B781B021A4300231204120C1B0C1B041343181C10F0DDFE322000F00EFF3B1D1E221A813B1D184A1A60EE
:406E80003B1D07229A803A1D104B101C00211A1C002311F059FC0E4B1B68002B0ED00B4B391D1A785B781B021A4300231204120C1B0C1B041343181C10F0B6FEBD4604B087
:406EC00080BDC046C0360020520A0020C8360020642A0020702A0020682A0020A02A0020782A002080B584B000AF154B1B78022B23D13B1D1E221A813B1D124A1A603B1DF4
:406F000007229A803A1D104B101C00211A1C002311F01AFC0D4B1B68002B0ED00A4B391D1A785B781B021A4300231204120C1B0C1B041343181C10F077FEBD4604B080BDA1
:406F4000C0360020782A0020C8360020642A002080B500AF024B181C02F092FFBD4680BDA16B000080B500AF06F041F9032006F036F9BD4680BDC04680B500AF054B1B68E0
:406F8000002B01D1002301E0024B1B68181CBD4680BDC0464C0A002080B500AF064B1B78002B01D1002303E0034B00221A700123181CBD4680BDC046500A002090B58BB0B3
:406FC00002AF78600C1C101C191CFB1C221C1A70BB1C021C1A707B1C0A1C1A707B685C681B680C22B91800220092081C1A1C231C01F0FAFB0C23FB181B68181CFFF7B4FDDE
:40700000031C9AB2524B1A800C23FB181B68181CFFF78EFD031C9AB24D4B5A800C23FB181B68181CFFF76CFD031C9AB2484B9A807B681A89464BDA807B685C691B690C221C
:40704000B91800220092081C1A1C231C01F0CCFB0C23FB181B68181CFFF786FD031C9AB23C4B1A800C23FB181B68181CFFF760FD031C9AB2374B5A800C23FB181B68181C30
:40708000FFF73EFD031C9AB2324B9A807B681A8B304BDA807B685C6A1B6A181C211C3C22002304F073F9031C0C1C191C221C1E23FB180A1C1A80284B00221A80264B1E2212
:4070C000BA1812885A807B685C6A1B6A9AB21E23FB181B883C214B439BB2D31A9AB21E4B9A807B681A8D1C4BDA80FB1C1B789AB21A4B1A80BB1C1B78181C0A2103F0C4FF26
:40710000031CDAB2164BDA70BB1C1B78181C0A2104F040F80B1CDAB2114B1A717B1C1B78181C0A2103F0B0FF031CDAB20C4B5A717B1C1B78181C0A2104F02CF80B1CDAB21E
:40714000074B9A71FFF7F0FDBD4609B090BDC046702A0020682A0020A02A0020520A0020782A002090B58DB002AFB860F960191CBB1D1A807B1D0A1C1A701423F918BB682E
:40718000FC6800220092081C1A1C231C01F02CFB1423FB181B68181CFFF7E6FC031C9AB2314B1A801423FB181B68181CFFF7C0FC031C9AB22C4B5A801423FB181B68181C3C
:4071C000FFF79EFC031C9AB2274B9A80264BBA1D1288DA8000237B620CE0244B7A6A52000021D152224B7A6A52000021D1527B6A01337B627B6A032BEFDD7B1D1B789AB2C4
:407200001C4B1A803823FB181B78181C0A2103F03BFF031CDAB2184BDA703823FB181B78181C0A2103F0B6FF0B1CDAB2124B1A713C23FB181B78181C0A2103F025FF031C2B
