:4000000000400020110000007D2100007D21000008B502F0B5F8C04638B512221C4B1A6002F0D0F91B4802F00FF9012002F0EAF9302002F019F9184A184B1A60184C802505
:40004000ED052560174A116802230B431360164A164B1A60164A136808218B431360FA20C00002F07BF9134802F06EF980221206114B1A608022D202104B1A600820104979
:4000800002F038F9082002F029F9256038BDC04630001040001BB7000600008004010B400C020B4078002E402D3E00007C002E406CF02E40DC05000008010B4000010B405A
:4000C0001D25000010B572B600221B4B1A60002410E01A4863001A195200821891881B195B001A5AC31858880004104302F0A6F80134E4B2012CECD9EE221206104B1A605F
:40010000992212040F4B1A600F4B197802220A431A700E4802783C218A4328390A430270197816220A431A70094A0A4B1A60FFF773FF02F073F810BD6CF02E407C29000057
:400140000000024000500F4000700F4001700F40B603D8000800044010B5064C2378002B07D1054B002B02D0044800E000BF0123237010BDE800002000000000982700000A
:4001800008B5084B002B03D00748084900E000BF07480368002B00D108BD064B002BFBD09847F9E70000000098270000EC000020C80000200000000080B5114FBD4462B610
:4001C0008AA81049002200F011FF002816D168460D49012200F038FF6846FFA960310A22FFAB5C3301F028F8002804D1FFAB5C331B68002BF0D1684601F05AFAFEE7C04615
:4002000070FBFFFFA42700009C27000008B501F047FD08BD08B501F0AFFC08BD08B5081C111C1A1C01F042FD08BDC04608B5081C111C1A1C01F074FD08BDC04608B5081C61
:40024000111C01F0C3FD08BD4278120203781A43101C7047C3781B02827813431B02427813431B02007818437047C0460170090A4170704701700B0A43700B0C8370090E8A
:40028000C1707047002A06D00B780370013A01300131002AF8D170470170013A0130002AFAD1704730B5031C5D1C1B784C1C0878181A013A002A03D02B1C211C0028F3D0BE
:4002C00030BDC04600E001300378002B01D08B42F9D1181C7047C04602394369023B8B4204D943895943806A081800E00020704770B5061C0D1C081C1A30FFF7A5FF041C6C
:400300003378032B05D1281C1430FFF79DFF0004204370BD70B5061C0D1C141C081C1A3091B2FFF7A3FF3378032B04D1281C1430210CFFF79BFF70BDF8B55F4656464D46D6
:400340004446F0B4824689460F68202353449B46181C20210B22FFF79FFF002600230822904600E02B1C5D1CFC5C202C2ED92F2C03D05C2C07D100E001357B5D2F2BFBD01B
:400380005C2BF9D022E02E2C01D0464508D343460B2B33D02E2C33D108260B239846E1E763B2002B02DA803C1B4B1C5D1B48211CFFF788FF002825D1231C613B192B01D84E
:4003C000203CE4B25B469C550136CBE77D194B461D60002E18D020235246D35CE52B03D10522C53B5146CA54202C01D8042200E000222B235146CA54002006E0062004E0AC
:40040000062002E0062000E006203CBC90469946A246AB46F8BDC046042800008428000010B50168002904D101235B421FE0013200E00A1C1378202B01D93A2BF7D13A2B08
:4004400014D14C1C0B78303B092B06D8944207D1002B08D10132026009E001235B4206E001235B4203E001235B4200E00023181C10BDC04601600023436083607047C04622
:4004800038B5041C0D1C00280ED00368002B0BD01A78002A08D0D9888288914204D15878FFF7B4FEC30703D500232B60092002E023682B60002038BDF8B5C378002B22D0E5
:4004C000041CC76A061C30364078311C3A1C0123FFF7ACFE002818D10023E370236AFB1AA269934213D2A57809E0A3699C4667446078311C3A1C0123FFF798FE013D012DE0
:40050000F3D8002004E0002002E0012000E00020F8BDC04670B5051C0E1CC36A8B4211D0FFF7CAFF041E0ED1291C30316878321C0123FFF773FE002802D001340126764296
:40054000EE6200E00024201C70BDC04610B5041C0023C370013BC362FFF7DCFF002822D1164BE018FFF770FE154B98421DD13023E35CE92B05D0134B226B1340124A934261
:4005800015D1201C6630FFF765FE0002000A0F4B98420ED0201C8230FFF75CFE0C4B984209D0022008E0042006E0032004E0022002E0002000E0002010BDC0462E02000082
:4005C00055AA0000FF00FF00EB0090004641540046415433F0B55F4656464D464446F0B487B00E1C171C00230B60FFF719FF051E00DA35E18300B14A9C58002C00D131E12F
:40060000346001239F432378002B0CD06078FFF7FDFDC30707D4002F00D125E1430700D524E1002043E100232370E8B26070FFF7F1FDC30700D51BE1002F02D0430700D5E4
:4006400018E1201C0021FFF781FF022812D0002524E02801EF30FF3020180379002B03D00830FFF7F7FD00E00020AB0002AA9850013500E00025032DEBD90026B30002AA3B
:400680009D58002D04D0201C291CFFF75FFF00E00320012802D90136032EEFD9042800D1EAE0012800D9E9E0201C3B30FFF7CCFD80239B00984200D0E2E0201C4630FFF7EE
:4006C000C3FD8146002804D1201C5430FFF7C2FD81464B46A3614023E35CA3705A1E012A00D9CFE04A465A4392463D23E35C9B4663815B46002B00D1C6E0013B5A461342E8
:4007000000D0C3E0201C4130FFF79EFD071C01902081030700D0BBE0201C4330FFF794FD061E04D1201C5030FFF794FD061C201C3E30FFF789FD8046031E00D1AAE05344AB
:400740003F09BFB2DF19BE4200D2A5E0F01B594601F062FF002800D1A0E0594B984202D903239B4601E002239B46564B984201D801239B46861C6661E5614346EB1823629C
:40078000EF19A7625A46032A11D1201C5A30FFF75BFD002800D083E0019B002B00D081E0201C5C30FFF756FD6062B6000FE0019A002A79D0534463625B46022B01D176001A
:4007C00005E0032373435B08012216409E193E4B9C466644760AB14568D301235B422361E360813323715B46032B2FD1201C6030FFF72AFD012829D1691C201CFFF78AFEF5
:40080000002823D100232371304BE018FFF71CFD2F4B98421AD1201C3030FFF71BFD2D4B984213D185239B00E018FFF713FD2A4B98420BD186239B00E018FFF70BFD20611D
:4008400087239B00E018FFF705FDE0605B4623701A4A938801339BB29380E380002026E00B2024E00C2022E0002020E00A201EE003201CE00A201AE0012018E00D2016E00F
:400880000D2014E00D2012E00D2010E00D200EE00D200CE00D200AE00D2008E00D2006E00D2004E00D2002E00D2000E00D2007B03CBC90469946A246AB46F0BD04010020FF
:4008C000F5FF0000F50F0000FF0100002E02000055AA00005252614172724161F8B54F464646C0B4061C0C1C171C012900D881E043698B4200D87FE00378022B4AD0032B43
:400900005CD0012B7AD14B08984688444346590A036A9C466144FFF7FDFD051E6FD10123434499464346DB05DB0D012214400BD0F21830321078FF210A1C3A4011010F22C0
:4009400002400A43D2B200E0FAB2F31830331A700123F3704B46590A336A9C466144301CFFF7D8FD051E4AD14B46DB05DB0D002C02D03F09FFB207E0F218303212780F218F
:400980008A433F053F0F1743F31830331F700123F37034E0090A036A9C466144FFF7BAFD051E2CD16000FF235B00184030303018B9B2FFF75BFC0123F37020E0C909036AB7
:4009C0009C466144FFF7A6FD051E18D13F013F09A400FE235B001C4030343419201CFFF739FC010F09073943201CFFF743FC0123F37004E0022502E0022500E00225281CBC
:400A00000CBC90469946F8BDF8B50668012958D973698B4257D90C1C3378022B2BD0032B3BD0012B51D14D084D19690A336A9C466144301CFFF76EFD002848D16F1CED05F6
:400A4000ED0D731930331D78790A336A9C466144301CFFF75FFD00283CD1FF05FF0DF6193036307800022843E30701D5000939E00005000D36E0090A336A9C466144301C57
:400A8000FFF748FD002828D16000FF235B00184030303018FFF7D8FB24E0C909336A9C466144301CFFF736FD002819D1A100FD30FF30014030317018FFF7CCFB00010009C5
:400AC00010E001200EE001200CE001200AE00120404207E00120404204E00120404201E001204042F8BDC046F0B5474680B4061C0C1E0768264B9C4239D8CB0639D13161FE
:400B00008568002D03D13B78022B00D97D6A002D06D163093A8993422DD27B6AB36118E07B895B0298460DE0301C291CFFF76CFF051C431C21D0012821D97B69834220D9DB
:400B40004346E41A4445EFD2381C291CFFF7C4FBB0617561B369002B15D0620A9B18B361E305DB0D3033FB18F36100200CE002200AE0022008E0022006E0012004E0022025
:400B800002E0022000E0022004BC9046F0BDC046FFFF1F00F0B5474680B4051C88460768002906D1FE68002E0ED07B69B3420DD90DE0FFF729FF012845D9431C48D07B6927
:400BC000834245D8464602E0012600E00126341C01347B69A34202D8012E36D90224281C211CFFF711FF002806D0012830D0431C2ED0B442ECD12AE0381C211C01225242DB
:400C0000FFF76CFE002807D14346002B04D0381C4146221CFFF762FE00280CD1FC603A697B69023B9A4201D2013A3A613A79012313433B7105E0012802D10124644200E04E
:400C40000124201C04E0012002E0002000E0002004BC9046F0BDC046F8B5071C0D1E0468012D2CD963698B422BD9002A07D0201C111C01225242FFF731FE002828D1381CD1
:400C8000291CFFF7C1FE061E1DD001281DD0431C1DD0201C291C0022FFF720FE002817D123695A1C05D0013323612279012313432371351E63699D42E1D3002008E00220EC
:400CC00006E0022004E0002002E0022000E00120F8BDC046F0B54F464646C0B483B00768056920358369002B6BD0414A95426AD80191041CEA05D60D5CD101338361416920
:400D0000002907D16B093A89934253D300238361042067E06B0A7A89013A1A424AD1FFF773FE8146031E012B4FD901334FD07B69834238D8019B002B02D1A361042051E042
:400D4000201C6169FFF726FF8146031E41D0012841D0013341D0381CFFF7AEFB00283ED1381C3030002180229200FFF795FA381C4946FFF7B1FAF862002398460CE0012333
:400D8000FB70381CFFF798FB00282AD101239C46E044FB6A6344FB627B894345EFD8FB6A42469B1AFB624B466361381C4946FFF793FAA0612561331C3033FF18E761002070
:400DC00010E004200EE004200CE002200AE0012008E0072006E0022004E0012002E0012000E0012003B00CBC90469946F0BDC046FFFF1F0070B5051C06680021FFF774FE57
:400E0000002820D1301CA969FFF784FB041E19D1E8690378002B14D0C37A3F221340AB71C37A1B0706D4291C2031343AFFF73AFA002807D0281C0021FFF74CFF041EE1D0F3
:400E400000E00424201C70BD30B583B0041C0191056801E001330193019B1A782F2AF9D05C2AF7D00022A2601B781F2B07D880322B23E254201C0021FFF736FE23E0201CA8
:400E800001A9FFF759FA00281DD1201CFFF7B2FF2B23E35C002804D0042814D15B070FD511E05B070FD4A379DB060BD52369D905C90D30316918281CFFF71AFAA060DEE71E
:400EC000052000E0052003B030BDC046F8B5051C0E1C04680021FFF707FE002817D10027201CA969FFF716FB002810D1EB691B78E52B01D0002B03D10137B74201D106E05D
:400F00000027281C0121FFF7E5FE0028E8D0042800D10330F8BDC04670B5051C06680121FFF7D4FF041E12D1301CA969FFF7F2FA041E0CD1E86900212022FFF7ADF9E869FC
:400F4000291C20310B22FFF79DF90123F370201C70BDC04670B5051CFFF7AEFA041E3AD12B78032B2FD12B79012B2CD12E1C3036301C002180229200FFF78EF9174BE8184D
:400F80001749FFF773F9301C1649FFF773F985239B00E8181449FFF76DF986239B00E8182969FFF767F987239B00E818E968FFF761F9EB695A1CEA626878311C0123FFF7F7
:400FC00035F900232B71687800210022FFF736F9002800D00124201C70BDC0462E02000055AA0000525261417272416110B584B001900091141C039103A8FFF711FA002882
:4010000019DB83000F4A9B58002B01D000221A70019B002B01D000221A70019B8000094A8350002B09D0012C09D1684601A90022FFF7D0FA04E00B2002E0002000E0002069
:4010400004B010BD04010020F0B54F464646C0B48FB00191002800D1E7E0161C071C3F25154001A802A92A1CFFF7B4FA041E00D0D5E0029B039303A80199FFF7E5FE041E99
:4010800005D12B2303AAD356002B00DA06341C23334257D0002C08D0042C03D103A8FFF73BFF041C08231D430AE003AB9B7911221A4202D1730702D402E0072400E0082417
:4010C000002C4DD12B074BD50A9B0093181C0E300021FFF7CFF80A9B0093181C16300021FFF7C8F80A9B00932023009AD372029B0A9E0093181C311CFFF7FAF88146009849
:40110000311C0022FFF706F90A981C300021FFF7B1F80123029AD3704B46002B20D0029BDE6A03A849460022FFF796FD041E17D10298311CFFF7EEF9041C4B46013B029ACD
:40114000D3600DE0002C0BD103AB9B79DA0604D4B20705D5DB0702D402E0042400E00724002C08D12B0701D540231D43029BDB6A3B620A9B7B62002C51D1029B98460A9E2B
:40118000181C311CFFF7B4F8B860301C1C30FFF761F8F86043463B60DB88BB803D7400237B74FB617B6128339846B8444046002180229200FFF770F8AB0630D5FD68002D42
:4011C0002DD07D61029B5E897602B9680AE0381CFFF71AFC011E012900D802244B1C00D10124AD1B002C01D1B542F0D8B961002C15D1EB0513D0029E301CFFF76DF8002816
:401200000AD06D0A2A18FA61707841460123FFF705F8002802D102E0022400E00124002C01D000233B60201C00E009200FB00CBC90469946F0BDC046F0B55F4656464D46CA
:401240004446F0B483B0041C8846151C1E1C0023336001A9FFF714F9002800D0ABE0607C002800D0A7E0237CDB0700D4A2E0E36862699F1ABD4200D997E02F1C95E06369F2
:40128000DA0500D07AE05A0A01994D89013D154014D1002B01D1A06803E0201CA169FFF7B3FB012803D802236374022083E0431C03D10123637402307DE0A061019B9A4648
:4012C000181CA169FFF708F8002803D102236374023070E08146A9447B0A9B4627D0EB1852465289934201D9531B9B465346587841464A465B46FEF791FF002803D00123F6
:401300006374012057E01023E356002B0CDAE3694A46981A584507D24002211C2831404480229200FEF7AEFF5B465D0235E0E2694A4521D01023E356002B0FDA211C2831D5
:40134000534658780123FEF771FF002802D00120607430E0237C7F2213402374211C2831019B58784A460123FEF758FF002803D00123637401201EE04B46E3616369D905BC
:40138000C90D8025AD006D1ABD4200D93D1C2831611840462A1CFEF775FFA84463695B19636133685B1933607F1B002F00D066E7002000E0072003B03CBC90469946A2465F
:4013C000AB46F0BDF0B55F4656464D464446F0B483B0041C8846161C1F1C00233B6001A9FFF74EF8002800D0CCE0607C002800D0C8E0237C9B0700D4C3E063699A1993424A
:4014000000D8B5E0DE43B3E06369DA0500D08EE05A0A01994D89013D154021D1002B07D1A068002808D1201C0021FFF7B3FB03E0201CA169FFF7AEFB002800D19BE00128D7
:4014400003D10223637401309CE0431C03D101236374023096E0A061A368002B00D1A0601023E356002B11DA211C2831019B5878E2690123FEF7DAFE002803D0012363745B
:4014800001207FE0237C7F2213402374019B9A46181CA169FEF720FF002803D10223637402306FE08146A944730A9B4629D0EB1852465289934201D9531B9B465346587853
:4014C00041464A465B46FEF7B1FE002803D001236374012056E0E3694A46981A58450DD2231C28334002011C4144181C80229200FEF7C8FE237C7F22134023745B465D026E
:4015000029E0E3694B4510D06369E26893420CD2211C2831534658784A460123FEF77EFE002802D0012060742CE04B46E3616369D805C00D8025AD002D1AB54200D9351CF9
:401540002830201841462A1CFEF79CFE237C8022524213432374A8446369EB186361E268934200D2131CE3603B685B193B60761B002E00D048E7227C40231343237400205D
:4015800000E0072003B03CBC90469946A246AB46F0BDC04670B582B0041C0E1E0A2E02D10D21FFF7F7FF6368002B16DB5D1CE3181E733C2D0DDD211C0C3120682A1C01AB3D
:4015C000FFF700FF019B9D4201D1002501E001256D426560A3680133A36002B070BDC04610B582B04268002A0EDB041C011C0C31006801ABFFF7E6FE002808D16368019A5F
:40160000934207D1A06807E00120404204E00120404201E00120404202B010BD30B583B0041C01A9FEF72CFF00283ED1237C5A063BD55BB2002B0DDA211C2831019B587878
:40164000E2690123FEF7F2FD00282DD1237C7F22134023740198216AFEF75CFF002824D1656AEA7A20231343EB722068291CA268FEF750FE281C1C30E168FEF7FBFD281CE9
:4016800016300021FEF7F6FD281C12300021FEF7EDFD0123019AD3700198FFF75BFC237C40229343237400E0012003B030BDC04610B582B0041CFFF7B1FF002807D1201C5F
:4016C00001A9FEF7DDFE002801D10023236002B010BDC0460EB4F0B55F464E464546E0B49FB0011C27AC08CC99460AA8FEF7C2FE1D944B465C1C1978002900D104E12529BB
:4017000004D00AA8FFF746FFA146F2E74B4602334A465778302F05D14B4603339778012293460AE02D2F06D14B4603334A4697780222934601E0002293469946002609E0B2
:40174000B3009E197600F619303E4B461F7801239C46E1443B1C303B092BF1D96C2F01D04C2F08D104235A461A4393464B461F7801239C46E144002F00D1C5E03B1C613B51
:40178000192B03D83A1C203AD2B200E03A1C131C423BD9B216293AD88B006149CB589F461D9B1A1D1D921D68002400E001342B5D002BFBD15B469B070ED4231C04E00AA806
:4017C0002021FFF7E7FE231C5C1CB342F7D303E001350AA8FFF7DEFE29780029F8D104E00AA82021FFF7D6FE2C1C651CB442F7D37FE71D9B1A1D1D9219780AA8FFF7CAFEF8
:4018000077E70A2301930CE01023019309E00AA8391CFFF7BFFE6CE70223019301E0082301935B465B0705D51D9B191D1D911B6800930CE0442A05D11D9B191D1D911B68A9
:40184000009304E01D9B191D1D911B680093442A08D1009B002B05DA5B42009308235A461A4393460023984600E0A0460098019C211C00F057FFCDB20098211C00F0CCFE95
:401880000090092D06D9782F01D1272100E007214D19EDB243465C1C303502AB42469D54009B002B01D01F2CDFD95B461B0703D52D2202A90A5501345B46DB0702D53023B9
:4018C000009301E020230093271C04E00AA80099FFF760FE2F1C5B469B0703D47D1CB742F4D32F1C013C02AB195D0AA8FFF752FE002CF7D104E00AA80099FFF74BFE271CD2
:401900007C1CB742F7D3F4E60AA8FFF769FE1FB01CBC90469946A346F0BC08BC03B01847A827000008B5002000F04AFE08BDC04608B5012000F044FE08BDC04638B5051C04
:40194000082419E06BB2002B03DA012000F050FE02E0002000F04CFE0A2000F075FC012000F03AFE142000F06FFC002000F034FE6D00EDB2013CE4B2002CE3D1002000F00E
:4019800037FE38BD70B5061C0D1C002404E0305DFFF7D4FF0134E4B2AC42F8D370BDC04638B50024082513E0012000F021FE012000F012FE00F028FE012801D101231C4362
:4019C000002000F009FE0F2000F03EFC6400013D002DE9D16408002000F00AFEE0B238BDF8B5071C0E1C002405E03D19FFF7D8FF28700134E4B2B442F7D3F8BD10B5041C00
:401A0000FFF79CFF201C10BD08B50A2100F004FE00F082FCFF20FFF7F1FFFF3843425841C0B208BD08B5FFF783FFFF20FFF7E6FF08BDC04608B5FFF775FFFF20FFF7DEFF20
:401A4000FA204000FFF7E0FF002801D1FFF7EAFF012008BD38B5041C0D1C43B2002B07DA7F231C4037200021FFF7F4FF012836D80C2C05D0FFF7D6FFFFF7DCFF00282DD0DD
:401A800040202043FFF7BAFF280EFFF7B7FF280CC0B2FFF7B3FF280AC0B2FFF7AFFFE8B2FFF7ACFF002C01D0012000E09520082C00D18720FFF7A2FF0C2C02D1FF20FFF7EB
:401AC0009DFF0A24FF20FFF799FF031C020603D5013CE4B2002CF5D1181C00E0FF2038BD08B5C9B2FFF77CFF08BDC04638B5051C0C1CC82000F010FCFF20FFF77FFFFE283C
:401B00000BD1281C211CFFF7EBFFFF20FFF776FFFF20FFF773FF012000E0002038BDC04608B5C9B2FFF72EFF08BDC04638B5051C0C1CFA204000FFF767FF00281BD0201CDA
:401B4000FFF75CFFFD2C13D0281C80218900FFF7E7FFFF20FFF752FFFF20FFF74FFFFF20FFF74CFF1F231840052803D0002002E0012000E0012038BD30B583B0642000F056
:401B8000CBFB454B1B789B0709D5434B1878C0B280E0FF20FFF732FF013CE4B200E00A24002CF6D100200021FFF754FF01285CD10730D5214900FFF74DFF012839D107E000
:401BC000FF20FFF71BFF01AB58550135EDB200E0251C032DF4D901AB9B78012B47D101ABDB78AA2B45D1642000F096FBA9208021C905FFF72FFF0028F8D1643000F08CFB20
:401C00003A200021FFF726FF002808D0002433E0FF20FFF7F3FE01AB18550134E4B2032CF6D901AB1B785B0601D50C2424E0042422E0A9200021FFF70DFF012802D8022406
:401C4000A92501E001240125642000F065FB281C0021FFF7FFFE0028F9D1103080218900FFF7F8FE002806D106E0002404E0002402E0002400E00024084B1C70FFF7D2FE36
:401C8000002C04D0044A137801218B431370024B1878C0B203B030BDCC0000200C010020014B1878C0B27047CC00002070B5051C141E2CD0184B1B78DB072AD4174B1B78A0
:401CC0001B0700D44902012C01D9122600E01126301CFFF7BFFE002813D1281C80218900FFF704FF002806D080239B009C466544013C002CF1D1122E03D10C200021FFF792
:401D0000A9FEFFF78FFE601E8441E0B202E0042000E0032070BDC046CC0000200C01002070B5051C0E1C141E45D0264B1B78DB0743D4244B1B785B0741D4234B1B781A0700
:401D400000D44E02012C0CD11820311CFFF782FE00282AD1281CFE21FFF7E8FE002821D123E006221A4203D09720211CFFF772FE1920311CFFF76EFE002816D1281CFC21B2
:401D8000FFF7D4FE002806D080239B009C466544013C002CF2D10020FD21FFF7C7FE002802D002E0002400E00124FFF73BFE601E8441E0B204E0042002E0032000E0022057
:401DC00070BDC046CC0000200C010020F0B585B00C1CCA4B1B78DB0700D5CAE1392800D9C4E18000C64B1B589F46FFF723FE002801D1012400E00024FFF714FEB7E10920C0
:401E00000021FFF727FE002839D168461021FFF76DFE002835D06B461B789B09012B0FD16B465A7A197A0B02D1186B46DA793F2313401B04CB1801339B022360002421E091
:401E40006B465A79997AC8095B7A0F210A408118032213405B00CB180233DBB26946087A8009C97989004018694689790A40920282180132093B9A402260002402E0012496
:401E800000E00124FFF7CEFD71E19E4B1B785B0721D58D200021FFF7DDFD00284ED1FF30FFF7ACFD68461021FFF720FE002807D1012448E0FF20FFF7A1FD013DEDB200E0D3
:401EC0003025002DF6D16B469B7A1A09102393402360002437E009200021FFF7BBFD00282ED168461021FFF701FE00282AD0854B1B789B0711D56B469A7A3F231A40520019
:401F00006B46DB7ADB09D3185A1C6B465B7B9B09013B9A402260002415E06B469B7A5B06DB0E5A1C6B46DB7A03211940C9005B09CB18013353432360002404E0012402E005
:401F4000012400E00124FFF76DFD10E16D4B1B780B7000240BE109200021FFF77BFD002807D1201C1021FFF7C1FD002803D1012402E0012400E00024FFF754FDF7E00A20C3
:401F80000021FFF767FD002807D1201C1021FFF7ADFD002803D1012402E0012400E00024FFF740FDE3E03A200021FFF753FD00280AD001240CE0661CFF20FFF71FFD207060
:401FC000013DEDB2341C00E00425002DF3D10024FFF728FDCBE08D200021FFF73BFD00280AD1FF30FFF70AFD201C4021FFF77EFD002803D1012402E0012400E00024FFF775
:4020000011FDB4E03D4A117801230B4313700024ADE00978090763685B0219436388013BDB05DB0D194380231B0619433020FFF711FD002804D0012421E0642000F06CF979
:40204000FF20FFF7DBFCFF28F7D0FE2816D1A668658806E0771CFF20FFF7D0FC3070013D3E1C002DF6D16488274B1C1B03E0FF20FFF7C4FC013C002CF9D100E00124FFF77D
:40208000D1FC74E00978090763685B0219436388013BDB05DB0D194380231B0619433120FFF7D8FC002823D1FF30FFF7A7FCFE20FFF7A4FCA368658805E05E1C1878FFF7EF
:4020C0009DFC013D331C002DF7D164880E4B1C1B03E0FF20FFF792FC013C002CF9D1FF20FFF78CFC1F231840052803D0013402E0012400E00024FFF795FC38E0CC0000208E
:40210000942800000C010020020200000978090763685B02194363881B0A194384231B0619433120FFF796FC002819D1FF30FFF765FCFE20FFF762FCA078FFF75FFC0E4C67
:4021400003E0FF20FFF75AFC013C002CF9D1FF20FFF754FC1F231840052803D0013402E0012400E00024FFF75DFC00E00424201C00E0032005B0F0BD01020000FEE7C046B9
:4021800070B50F4E0F4D13E029686B68AC68002202E001C901C30432A242FAD1E868002202E0002102C304328242FAD11035013E002EE9D100F0C2FAFDF7FEFFFEE7C0466C
:4021C00001000000DC29000008B50F4A136801218B43136000230AE0032B03D89A000B49505800E00A4899000A4A885001332F2BF2D9FDF767FF0022074B1A60024A1168DC
:4022000001230B43136008BD00001040000000007D21000000000020C00000200323044A1360044A13600022034B1A607047C0463000304030003140000E3F4008B50A1C06
:40224000002100F0A1FA08BD0230800803D00138FDD1C046C046C0467047EFF3108072B6704780F31088704710B586B0041CFFF7F4FF0E4B1B6800930D4B1B680193033C5C
:402280000C4B1B5D02930C4B1B68039304AA0B4B04936B4605930A4B1A600A490A4A11601B68FFF7DEFF06B010BDC04608010B4000010B408829000030001040B6EA00002F
:4022C000080010401700008004001040024B1B68012018407047C0460C002E401F2318401E3B8340181C014B1860704700E100E001BE704738B5041C0D1C1F2802D9002007
:40230000FFF7F6FFA400034B9C4664442068256038BDC0464000002010B5041C06E0084B1868FFF791FF074B9C46644480231B029C42F4D8024B58686043FFF785FF10BD6D
:40234000D00000200080FFFF08B5034B1B7A5843FFF77AFF08BDC046D000002010B5041C0F4A116801230B4313600E4A0E4B1A600E4A1368802109020B431360002809D181
:4023800000200CE00120FFF7DFFFFFF79FFF002804D1013C002CF5D1102000E0002010BD60F02E400220000078002E4010002E40034B1868C0231B02184000D0012070474D
:4023C00000010B4010B50D4B1A6801218A431A601A68022082431A60094A10683024A043203C204310601068093CA043014311601A68802109060A431A6010BD00F02E40FC
:4024000000FF2E4038B51D4B1B6801241C40002802D0012816D02BE0184B19680122914319601968022081431960154B19682E3081432038014319601968093881430A43A3
:402440001A6018E00D4B1A6802218A431A600C4A10680725A84301431160116830208143103801431160196801220A431A6002E00020FFF73DFF201C38BDC04600F02E404E
:4024800000FF2E4008B5FFF7E8FE044A1368C02109020B431360FFF7E4FE08BD00010B4010B5FFF7DAFE08490A68084B1A408024E40122430A600A6813408022120213438B
:4024C0000B60FFF7CEFE10BD00010B40FF3FFFFF70B5061CFFF7C1FE041CFFF769FF002803D0FFF7DDFF012500E000250848331C0340084A1068084908401843106013685D
:40250000012D01D1FFF7BEFF201CFFF7AAFE70BD0404040010020B40FBFBFBFF10B5244B1B685B0715D5234B5B685B070ED5224B596A042001401F4C62688A4362605A6AF2
:4025400082435A629B69002B00D098470420FFF7BFFF174B1B685B0518D5164B5B685B0510D5154B596A8022D2001140114842688A434260596A114A0A405A62DB69002B9C
:4025800000D098478020C000FFF7A2FF084B1B685B030CD5074B5B685B0304D5064B1B6A002B00D098478020C002FFF791FF10BD10020B40E000002010010020FFFBFFFF29
:4025C000031C04490868FE220240012018401043086070470000044004490A68FD231A404000FB3B18401043086070470000044004490A68FB231A408000F73B184010431D
:402600000860704700000440024B18680007C00F7047C04604000440002243088B4274D303098B425FD3030A8B4244D3030B8B4228D3030C8B420DD3FF22090212BA030C79
:402640008B4202D31212090265D0030B8B4219D300E0090AC30B8B4201D3CB03C01A5241830B8B4201D38B03C01A5241430B8B4201D34B03C01A5241030B8B4201D30B035F
:40268000C01A5241C30A8B4201D3CB02C01A5241830A8B4201D38B02C01A5241430A8B4201D34B02C01A5241030A8B4201D30B02C01A5241CDD2C3098B4201D3CB01C01A5B
:4026C000524183098B4201D38B01C01A524143098B4201D34B01C01A524103098B4201D30B01C01A5241C3088B4201D3CB00C01A524183088B4201D38B00C01A5241430842
:402700008B4201D34B00C01A5241411A00D20146524110467047FFE701B5002000F00CF802BDC0460029F7D003B5FFF775FF0EBC4243891A1847C0467047C0460E4B70B513
:4027400000251E1C0D4CE41AA410A54204D0AB00F35898470135F8E700F02EF9084B00251E1C084CE41AA410A54204D0AB00F35898470135F8E770BDC4290000C4290000CF
:40278000C4290000CC290000031C8218934202D019700133FAE7704700000000544553542E5458540000000018180000F2170000021800000E1800000E1800000E1800004F
:4027C0000E1800000E1800000E1800000E1800000E1800000E1800000E1800001E1800000E1800000E1800000E180000A01700000E180000021800000E1800000E180000E4
:4028000008180000809A45418E418F804545454949498E8F9092924F994F555559999A9B9C9D9E9F41494F55A5A5A6A7A8A9AAABACADAEAFB0B1B2B3B4B5B6B7B8B9BABB5E
:40284000BCBDBEBFC0C1C2C3C4C5C6C7C8C9CACBCCCDCECFD0D1D2D3D4D5D6D7D8D9DADBDCDDDEDFE0E1E2E3E4E5E6E7E8E9EAEBECEDEEEFF0F1F2F3F4F5F6F7F8F9FAFB78
:40288000FCFDFEFF222A2B2C3A3B3C3D3E3F5B5D7C7F0000EA1D0000FE1D00006C2100008A1E00006C2100006C2100006C210000042000006C2100006C2100006C21000098
:4028C0006C2100006C2100006C2100006C2100006C2100006C2100006C2100006C2100006C2100006C2100006C2100006C2100006C2100006C2100006C2100006C21000008
:402900006C2100006C2100006C2100006C2100006C2100006C2100006C2100006C2100006C2100006C2100006C2100006C2100006C2100006C2100006C2100006C210000C7
:402940006C2100006C2100006C2100006C2100006C2100006C2100006C2100004C1F0000561F00007E1F0000A61F0000D61F000012200000842000000C21000000300F40C3
:40298000000400400F400004030405060708090A0B0C0E0F101112131415161718191B1C1D1E1F2021222325262728292A2B2E2F3031323334350000F8B5C046F8BC08BC65
:4029C0009E46704781010000C9210000F8B5C046F8BC08BC9E46704759010000F0290000C800002020000000500000000000000000000000010000000000C05D80BB0000E6
:402A000030000000006CDC02F00000000404040000000000000000000000000000000000000000000000000000000000000000000000000000000000000000000000000020
:402A40000000000000000000000000000000000000000000000000000000000000000000000000000000000000000000000000000000000000000000000000000000000056
:402A80000000000000000000000000000000000000000000000000000000000000000000000000000000000000000000000000000000000000000000000000000000000016
:402AC00000000000000000000000000000000000000000000000000000000000000000000000000000000000000000000000000000000000000000000000000000000000D6
:402B00000000000000000000000000000000000000000000000000000000000000000000000000000000000000000000000000000000000000000000000000000000000095
:020000040001F9
:0200000490303A
:0200000070D7B7
:0200000490402A
:4000000000000000000000000000000000000000000000000000000000000000000000000000000000000000000000000000000000000000000000000000000000000000C0
:400040000000000000000000000000000000000000000000000000000000000000000000000000000000000000000000000000000000000000000000000000000000000080
:0200000490501A
:0C00000000020E34119E00010E438275B8
:0200000490600A
:0100000001FE
:00000001FF