:400000000010002011000000110500001105000008B500F097FAC04638B5164C23688022D20213432360182000F0F6FC2268124B13402360114A124B1A602022114B1A60C5
:40004000103A114B1A6080221206104B1A60002525600F4A0F4B1A600F4A104B1A6009200F4900F0A5FC092000F096FC0D4B1D6038BDC04600010B40FFFFFBFF0600008075
:4000800004010B40200202403002024008010B403801008000000240BF5D008040000240290C00000C020B4038B572B601223C4B1A70002410E03B4863001A1952008218BB
:4000C00091881B195B001A5AC31858880004104300F09AFA0134E4B2012CECD9002412E0304DA3001A195200AA189189D08900040843131C128A598A09041143802200F0B1
:4001000089FA0134E4B2002CEAD02649081C1830383100F05FFA80225200234B1A80FF3A224B1A70C0229203214B1A60EE221202204B1A60204A214B1A6080229204204B79
:400140001A60A222D2051F4B1A60992212041E4B1A6002231D4A13601D4A13601D4B197802220A431A701C4802783C218A4328390A430270197816220A431A70A422174B15
:400180001A60174A174B1A6080221202164B1A60D8221201154B1A60FFF73EFF38BDC0461C700F409816000000600F4002600F40000001400C0001400400990000500F402F
:4001C00004500F4008500F4030500F402000004000800F4000700F4001700F400000044080114300080004400C0004400803044010B5064C2378002B07D1054B002B02D033
:40020000044800E000BF0123237010BD48010020000000006C16000008B5084B002B03D00748084900E000BF07480368002B00D108BD064B002BFBD09847F9E70000000096
:400240006C1600004C010020C80000200000000070B50F4B1C685B689C4215DA0D4D66003019C000281808300B49082200F0ECFD00F064FA3419E4002C19E081044B1A6886
:4002800001321A6001221A7200F0C8F970BDC04664010020A8010020A001002008B50F4B5B7A002B16D00E4A938801339BB293803B2B0FD100239380538801339BB2538040
:4002C0003B2B07D1131C00225A801B88182B01D1034B1A80022000F099FA08BD64010020A0010020C389C2889A1A06D5FA239B009C4662440121494200E00021C2828289E3
:400300008388D31A04D53C335B180121494201E05B180021838242894388D31A04D53C335B180121494201E05B180021438202890388D31A5B18002B01DD5B180382704790
:4003400008B543001818C000183808180021182200F083FD08BDC04638B500F0B3F9041E712C27D0712802D863281BD026E072281CD0732822D100F0E1F91649C880164D71
:400380006A6853009B18DB001448C018082200F05BFD134800F0B6F901236B726B6801336B6014E00E4800F0ADF910E001220A4B9A720CE00A4800F0A5F908E0094B1B7828
:4003C000632B04D1201C30380449FFF7B9FF054B1C7038BDA001002064010020A80100207016000080020020F0B5474680B486B0071C884600252CE06C006419E4004444E0
:4004000022886388A088E188154E0090019102A8311C00F02BFD02A800F074F922896389A089E1890090019102A8311C00F01EFD02A800F067F9228A638AA08AE18A0090F5
:40044000019102A8074900F011FD02A800F05AF90135BD42D0DB06B004BC9046F0BDC046781600008816000008B5002000F0D4F90A2000F0AFFA012000F0CEF908BDC046FA
:4004800010B562B600F0B2F900F00CF91B4800F0F1F91B4800F054FA1A4800F01DFA1A4B1A685B689A4202D10022174B5A72164B5B7A002B01D0FFF7D7FF134B9B7A002B43
:4004C00006D009201149FFF78FFF00220E4B9A720D4B1B7A002B0BD00B4C2368013B5800C318DB0009481818FFF7FCFE00232372FA20800000F06EFAD1E7C046510200004D
:400500009D0200005903000064010020A8010020FEE7C04608B5031C084A1068C318084A9A1A802A02DC054A136005E000F060FC0C2303600120404208BDC046CC00002099
:400540008802002070B50F4E0F4D13E029686B68AC68002202E001C901C30432A242FAD1E868002202E0002102C304328242FAD11035013E002EE9D100F040FCFFF780FF05
:40058000FEE7C04601000000EC19000008B500230AE0032B03D89A000A49505800E00A4899000A4A885001332F2BF2D9FFF77CFD0022074B1A608022D205116801230B43D1
:4005C000136008BD000000001105000000000020C0000020F0B50025002711E0BB00C658F3B2FF22964308E06A008A181478A419527822700135013BDBB2002BF4D1013793
:40060000072FEBD9F0BDC04608B50A1C002100F024FC08BD08B500F017FC08BD034A1068802318401060C009C0B27047100004407222074B1A70523A064B1A701A3A064BBD
:400640001A704132054B1A700022054B1A70704780000F4081000F4022000F4032000F4083000F4010B500F08DF9041C0A4A117820230B43137009490A7810231A43D2B259
:400680000A70074A11780B43DBB2137000F066F9201C00F07BF910BD90000F4091000F4093000F4008B5064B1B78002B04D1FFF7BFFF0122024B1A70FFF7D4FF08BDC04648
:4006C00078010020074B1B78DBB29A0606D5064A1078C0B21E221A4202D102E0002000E00020704761000F4040000F40034B1B785B07FBD4024B18707047C04663000F406D
:4007000043000F4038B5084B1B78002B05D109E0FFF7ECFF0134A4B201E0051C0024285D0028F5D138BDC046780100200004000C014B18607047C04608010540024B186825
:400740000004000C7047C046080105400004000C014B18607047C046140105400004000C014B18607047C0460C01054038B5041C0D1C00F007F9AC40024B1C6000F006F9C6
:4007800038BDC0460800054008B500F0FBF8064A116801230B43136000F0F8F801201821FFF7E4FF08BDC04600000540014B18607047C0463801054010B50022094B1A60CC
:4007C0000C32094B1A600220FFF7F0FFFA24A400201CFFF7BBFF201CFFF7C0FF0020FFF7A5FF10BD000105402401054008B5064B1B78002B04D1FFF7DFFF0122024B1A70A1
:40080000FFF7C2FF08BDC0467A010020014B18607047C0463001054004490A68FB231A408000F73B184010430860704700000440014B18647047C0460000002010B5041C23
:4008400000F0A0F8044A1368C0218B43A4011C43146000F09BF810BD00E400E00122014B1A60704700E100E00122014B1A60704780E100E010B5041CFFF7F6FF201CFFF7A8
:40088000D7FF0320FFF7DAFFFFF7E8FF10BDC046014B58647047C0460000002010B5041C00F070F8044A1168044B0B40A4031C43146000F06BF810BD00E400E0FF3FFFFFA3
:4008C0000222014B1A60704700E100E00222014B1A60704780E100E010B5041CFFF7F6FF201CFFF7D5FF0320FFF7D8FFFFF7E8FF10BDC0468023014AD05070470000002059
:4009000010B5041C00F03EF8044A1368C0218B43A4011C43146000F039F810BD10E400E080225202014B1A607047C04600E100E080225202014B1A607047C04680E100E006
:4009400010B5041CFFF7F4FF201CFFF7D3FF0320FFF7D6FFFFF7E4FF10BDC046034A1368802109060B4313607047C046000002400230800804D0C0460138FDD1C046C0462C
:40098000C0467047EFF3108072B6704780F310887047C046C046C0461F2318401E3B8340181C014B1860704700E100E001BE704738B5041C0D1C1F2802D90020FFF7F6FF56
:4009C000A400034B9C4664442068256038BDC0464000002010B5041C06E0084B1868FFF7C7FF074B9C46644480231B029C42F4D8024B58686043FFF7BBFF10BDD000002056
:400A00000080FFFF08B5034B1B7A5843FFF7B0FF08BDC046D0000020F0B557464E46C0B483B0041CFFF7AEFF0190E71E2D2F74D83F4B1B78DBB2A34208D33E4B1B78DBB20C
:400A40009A463D4B1B78DBB2994631E03B4B1B78DBB2A34208D33A4B1B78DBB29A46394B1B78DBB2994623E0374B1B78DBB2A34208D3364B1B78DBB29A46354B1B78DBB20A
:400A8000994615E0334B1B78DBB2A34208D3324B1B78DBB29A46314B1B78DBB2994607E02F4B1B78DBB29A462E4B1B78DBB299462D4BDE5D2F2E09D92A2C07D919222B4B5A
:400AC0001A600520FFF754FF192503E0274B1D683F231D40AE4206D2234BDA5D234B1A600520FFF745FF1F4B9C4664442378DBB21F4A13601F4B52461A601F4B4A461A609B
:400B00000520FFF77FFFAE420AD9174BDA5D174B1A600520FFF72CFF02E00020FFF746FF0198FFF733FF03B00CBC91469A46F0BDC0F1FF0FC1F1FF0FC2F1FF0FC3F1FF0FAF
:400B4000C4F1FF0FC5F1FF0FC6F1FF0FC7F1FF0FC8F1FF0FC9F1FF0FCAF1FF0FCBF1FF0FCCF1FF0FCDF1FF0F601900002CFF0B4028FF0B401CFF0B4020FF0B40034B1868AB
:400B8000C0231B02184000D00120704700010B4008B5FFF7F7FE044A1368C02109020B431360FFF7F3FE08BD00010B4010B5FFF7E9FE08490A68084B1A408024E4012243D3
:400BC0000A600A6813408022120213430B60FFF7DDFE10BD00010B40FF3FFFFF70B5061CFFF7D0FE041CFFF7C9FF002803D0FFF7DDFF012500E000250848331C0340084A14
:400C0000106808490840184310601368012D01D1FFF7BEFF201CFFF7B9FE70BD0404040010020B40FBFBFBFF10B5244B1B685B0715D5234B1B685B070ED5224B996904206F
:400C400001401F4C22688A4322609A6982439A61DB68002B00D098470420FFF7BFFF174B1B685B0518D5164B1B685B0510D5154B99698022D2001140114802688A430260C3
:400C80009969114A0A409A611B69002B00D098478020C000FFF7A2FF084B1B685B030CD5074B1B685B0304D5064B5B69002B00D098478020C002FFF791FF10BD10020B401B
:400CC000E00000207C010020FFFBFFFF002243088B4274D303098B425FD3030A8B4244D3030B8B4228D3030C8B420DD3FF22090212BA030C8B4202D31212090265D0030B35
:400D00008B4219D300E0090AC30B8B4201D3CB03C01A5241830B8B4201D38B03C01A5241430B8B4201D34B03C01A5241030B8B4201D30B03C01A5241C30A8B4201D3CB0224
:400D4000C01A5241830A8B4201D38B02C01A5241430A8B4201D34B02C01A5241030A8B4201D30B02C01A5241CDD2C3098B4201D3CB01C01A524183098B4201D38B01C01A36
:400D8000524143098B4201D34B01C01A524103098B4201D30B01C01A5241C3088B4201D3CB00C01A524183088B4201D38B00C01A524143088B4201D34B00C01A5241411A0D
:400DC00000D20146524110467047FFE701B5002000F00CF802BDC0460029F7D003B5FFF775FF0EBC4243891A1847C0467047C046014B18687047C046440100200E4B70B533
:400E000000251E1C0D4CE41AA410A54204D0AB00F35898470135F8E700F0D6FD084B00251E1C084CE41AA410A54204D0AB00F35898470135F8E770BDD4190000D41900007C
:400E4000D4190000DC190000002310B5934203D0CC5CC4540133F9E710BD031C8218934202D019700133FAE7704700000EB410B59DB002A9029008610B4882248860486126
:400E8000012040421FABC881084804CBA400006801938C8100F06CF80023029A13701DB010BC08BC03B01847FFFFFF7F44010020F0B58E6885B0071C0C1C03920193B34291
:400EC00045D390238A89DB001A423DD003250969236801985B1A029363695D43EB0F5D19029B6D1001331B189D4200D21D1C381C53050FD5291C00F01DFB061E13D0029A41
:400F00002169FFF7A1FFA289184B134080221343A38111E02A1C00F065FB061E0CD1381C216900F0C1FA0C23402201203B60A38940421343A38117E0029B2661F61826605F
:400F40006561019EED1AA560019BB34200D2019E321C2068039900F092FA0020A3689B1BA36023689E19266005B0F0BD7FFBFFFFF0B59FB0029005938B890E1C171C1B06DA
:400F800010D50B69002B0DD1402100F0D3FA30603061002804D10C23029A01381360D0E040237361002306AD6B6120336B761033AB763C1C2378002B03D1E31B049312D092
:400FC00003E0252BF9D00134F4E7049B0298311C3A1CFFF76DFF431C00D1ACE06A69049B944663446B612378002B00D1A3E00122002352426A6002A95432521801342B6013
:40100000EB60AB601370AB654F4F2178381C052200F02AFA002808D0C01B01278740381C2B68013418432860EEE72B68DA0604D55322202102A8121811701A0704D553229D
:401040002B2102A81218117022782A2A01D0099B0EE0059A111D12680591002A01DB099204E05242EA60022213432B60013409E02278303A092A04D80A214B4301349B1867
:40108000F6E7099323782E2B18D163782A2B09D1059B02341A1D1B680592002B0DDA01235B420AE0002301342278303A092A04D80A214B4301349B18F6E70793234F21785E
:4010C000381C032200F0D0F9002807D0C01B40278740381C2B6801341843286021781C480622671C297600F0BFF9002812D0194B002B06D10722059B0733934308330593AC
:4011000014E005AB00930298291C321C124B00E000BF07E005AB00930298291C321C0E4B00F08AF80390039B013304D06B69039A9B186B613DE7B3890B985B0601D50120A9
:4011400040421FB0F0BDC04692190000981900009C19000000000000B10E0000F7B5171C01930A698B6800900C1C934200DA131C221C3B6043321278002A01D001333B608A
:4011800023689B0602D53B6802333B60062523681D401ED0231C43331B785A1E9341226892061CD53020E1184031C870211C5A1C45310978A21840320233D1700FE0221CA6
:4011C0000123009801991932089EB047431C0ED00135E3683A689B1A9D42F0DBDAE7221C009801994332089DA847431C02D10120404220E006232068E1683A6803400025DF
:40120000042B03D18D1AEB43DB171D40A3682269934201DD9B1AED180027AF420ADA221C0123009801991A32089EB047431CDED00137F2E70020FEBDF0B58BB006920A1C74
:4012400043320793059004920A7E0C1C109B6E2A00D1A8E011D8632A22D009D8002A00D1B2E0582A00D0C2E045310A707C4A4FE0642A1DD0692A1BD0B9E0732A00D1A7E0B2
:4012800009D86F2A29D0702A00D0B0E0202209680A43226037E0752A1FD0782A33D0A6E00E1C1A684236111D196013683370A1E021681A68080606D4490604D5111D196043
:4012C0000023D55E02E0111D19601568002D3BDA2D23049A6D42137036E021681A68080606D4490604D51568111D1960ADB202E0111D196015685A4B227E03930A276F2AD1
:401300001DD108271BE0221C782145321170554A19680392081D226818600D68100602D4500600D5ADB2D30702D520231A4322601027002D03D1202322689A432260231C89
:40134000002243331A7002E00A27454B03936368A360002B03DB0422216891432160002D02D1049E002B0ED0049E281C391CFFF733FD039B013E5B5C281C3370391CFFF765
:40138000A5FC051EF1D1082F09D12368DB0706D563682269934202DC3023013E3370049B9B1B23612BE009681A68080607D4490605D5111D19601368A28A1A8004E0111D2D
:4013C0001960136862691A600023049E236116E01A68111D196016680021301C626800F043F8002801D0801B6060636803E0261C42363270012323610023049A1370079B80
:4014000005980093211C069B09AAFFF7A7FE431C02D10120404221E0236905980699321C079DA847431CF4D023689B0705D4099BE068984212DA181C10E00025E368099ABF
:401440009B1A9D42F3DA221C0123059806991932079EB047431CDCD00135EFE70BB0F0BDA3190000B4190000C9B28218904204D003788B4202D00130F8E70020704710B5FD
:40148000814208D28B18984205D29B1A013A09D3995C8154FAE70023934203D0CC5CC4540133F9E710BD000030B500293ED004390B68002B00DAC9181D4A1368141C002BE9
:4014C00002D14B60116031E099420DD208680A189A4203D11368C3180B6053684B60216024E08A4203D8131C5A68002AF9D11D685C198C420BD10968691858181960904267
:4015000014D110685268091819605A600EE08C4202D90C23036009E008680C18944203D114685268001908604A60596030BDC0469C010020032370B5CC1C9C430834051CB7
:401540000C2C01D20C2405E0002C03DA0C2300202B6042E08C42F9D3204A1368101C191C002913D00A68121B0DD40B2A02D90A608B181FE08B4202D15A6802601BE04A684D
:401580005A600B1C17E00B1C4968E9E7144E3368002B03D1281C00F04BF83060281C211C00F046F8031C421CD0D00322C61C964386420AD11C60181C07210B301A1D884344
:4015C000821A0AD05142995007E0311A281C00F02FF8431CBAD0331CECE770BD9C01002098010020F8B5061C0C1C151C002904D1111CFFF79FFF041C18E0002A03D1FFF7CB
:4016000053FF2C1C12E000F025F8A8420ED2301C291CFFF78FFF071E07D0211C2A1CFFF713FC301C211CFFF73FFF3C1C201CF8BD38B50023064C051C081C2360FEF76AFF20
:40164000431C03D12368002B00D02B6038BDC046840200200B1F1A68101F002A04DA891804390B68D018043870470000000000004F4B0A0D0000000025693A25693A2569A7
:401680003A2569202020000025693A25693A25693A25690A0D00000080300F40800300400F40000400300F40E01800008000000003000F4013300F4037310F4069320F4074
:4016C00043330F4008400F4004410F4002600F4080728138830F8004860192029E01A008A602AF01B002B201B404B608B701BE55D418D604D804D904DB04DF0102010328BC
:401700000501061008880A880E400F81108012081384150A19221A201B481E041F85204022082389258029202A092D8031803218330438683A0240094110424843044920A9
:40174000510452105B085D02674A695470947202730487408C84C037C29FC43FCA17CC0ECE0FD00FD204D682D8B00010018002AC0313041408DC0A220B081203130C140C50
:40178000152C167117431E20200922D02410264029712B0E2D712F06301F32E03330350F37C039883A083B203F044002464049FF4A074BFF4C404D204EF04F0550085804E4
:4017C00059045A045F01604061A862406320800381018214830A840A85138614882089138AC08C408D108E209013920C941395029604970998809A209E08A215A4E0A8E07F
:40180000AB04B00FB303B4E0B510B610B70CBA02BE40BF40C041C103C5EBC60CC807C9FFCAFFCBFFCEF0CF44D00CD401D804D904DA04DB04DF01E6C0EA40EB0200040120BE
:40184000020103800506070809480A480D0B0F02111412801610170119A21A401B221D0A1F0820012110220424042540272929202F0A3204370939543A013C203E013F0276
:401880004201430A472049054E804F02538054105610582059815A0480208380915492049401952296089A019D01A720A9A0AA41AF80C07FC2BFC43ECA34CCC2CEAFD02B46
:4018C000D60F0A4063026E808640C210D640DA80E640AA40AF01E820EE1010011101000000100000C31800000F08F000413C0042F3000C00007FF300823C00410C00000444
:401900000804000004000003FF6700181C00E300C01F2C000F201C400080280A00000010620304000100E00C18FFFFFF62A0F0410C000000000002120404040400000001F0
:401940000000000000004002001030100010101200000000000000000000000000000000030405060708090A0B0C0E0F101112131415161718191B1C1D1E1F202122232532
:40198000262728292A2B2E2F30313233343500004300232D302B2000686C4C0065666745464700303132333435363738394142434445460030313233343536373839616204
:4019C0006364656600000000F8B5C046F8BC08BC9E467047190200008D050000F8B5C046F8BC08BC9E467047F1010000001A0000C800002080000000400100000000000067
:401A000000000000880200200000E02EC05D00001800000000366E01040404000000000000000000000000000000000000000000000000000000000000000000901900005F
:401A4000000000000000000000000000000000000000000000000000000000000000000000000000000000000000000000000000000000000000000000000000E400002062
:401A80000000000000000000000000000000000000000000000000000000000000000000000000000000000000000000000000000000000000000000000000000000000026
:401AC00000000000000000000000000000000000000000000000000000000000000000000000000000000000000000000000000000000000000000000000000000000000E6
:401B000000000000000000000000000000000000000000000000000000000000000000000000000000000000000000000000000000000000000000000000000000000000A5
:401B40000000000000000000000000000000000000000000000000000000000000000000000000000000000000000000000000000000000000000000000000000000000065
:0200000490303A
:0200000098FE68
:0200000490402A
:200000000000000000000000000000000000000000000000000000000000000000000000E0
:0200000490501A
:0C000000000204C81193110104D0AA9161
:0200000490600A
:0100000001FE
:00000001FF